{
  "transactions": [
    {
      "hash": "0x4f22186d6f9d2652a657db06567736c07b7987391c722b64fc15e2b76a93a7e3",
      "transactionType": "CREATE",
      "contractName": "MaseerPrice",
      "contractAddress": "0x44bfeb1110ba6091034dbaab450ef1e7469ff072",
      "function": null,
      "arguments": null,
      "transaction": {
        "from": "0xdeed2376ad1d9cc54e0cca449b1d7a96939120f9",
        "gas": "0x126468",
        "value": "0x0",
        "input": "0x6080604052348015600e575f5ffd5b50601633601a565b6081565b607e7f27ad9db40d40315deb7c9733dae204372b3012815db31bb8e8e56d6c68d6ac248260405160200160609291909182526001600160a01b0316602082015260400190565b60408051601f19818403018152919052805160209091012060019055565b50565b610f728061008e5f395ff3fe608060405234801561000f575f5ffd5b50600436106100da575f3560e01c806365c4ce7a116100885780639c52a7f1116100635780639c52a7f1146101a6578063bf353dbb146101b9578063e9b674b9146101cc578063f29c29c4146101df575f5ffd5b806365c4ce7a1461017857806365fae35e1461018b5780638456cb591461019e575f5ffd5b80634fce7a2a116100b85780634fce7a2a1461012b57806357de26a4146101585780635c975abb14610160575f5ffd5b806306fdde03146100de578063313ce567146100fc57806332145f9014610116575b5f5ffd5b6100e66101f2565b6040516100f39190610bff565b60405180910390f35b610104610222565b60405160ff90911681526020016100f3565b610129610124366004610c52565b61024c565b005b61014a610139366004610c69565b60016020525f908152604090205481565b6040519081526020016100f3565b61014a6102a8565b6101686102d2565b60405190151581526020016100f3565b610129610186366004610c69565b61030c565b610129610199366004610c69565b6103eb565b6101296104b0565b6101296101b4366004610c69565b610534565b61014a6101c7366004610c69565b6105f9565b6101296101da366004610ca3565b610655565b6101296101ed366004610c69565b61082d565b606061021d7f9bc13b9bea85446242b96c637f96a994030a999e4a37800a69c2f798a672860b6108f9565b905090565b5f61021d7fa5c4b505b3328f1f7b143b7cbfe5c1d30e20856c207cab51443a27fedf5d631661098f565b335f908152600160208190526040909120541461029c576040517f4a0bfec10000000000000000000000000000000000000000000000000000000081523360048201526024015b60405180910390fd5b6102a581610998565b50565b5f61021d7f0f6e463d71d43f924715baa2688119392f80a313b4437e6945310d50dba6177a61098f565b5f6102fc7f0f6e463d71d43f924715baa2688119392f80a313b4437e6945310d50dba6177a61098f565b1561030657505f90565b50600190565b604080517f27ad9db40d40315deb7c9733dae204372b3012815db31bb8e8e56d6c68d6ac2460208201523391810191909152610360906060015b604051602081830303815290604052805190602001205490565b60011461039b576040517f4a0bfec1000000000000000000000000000000000000000000000000000000008152336004820152602401610293565b73ffffffffffffffffffffffffffffffffffffffff81165f81815260016020526040808220829055517f12fdafd291eb287a54e3416070923d22aa5072f5ee04c4fb8361615e7508a37c9190a250565b604080517f27ad9db40d40315deb7c9733dae204372b3012815db31bb8e8e56d6c68d6ac246020820152339181019190915261042990606001610346565b600114610464576040517f4a0bfec1000000000000000000000000000000000000000000000000000000008152336004820152602401610293565b61046d816109f0565b60405173ffffffffffffffffffffffffffffffffffffffff8216907fdd0e34038ac38b2a1ce960229778ac48a8719bc900b6c4f8d0475c6e8b385a60905f90a250565b604080517f27ad9db40d40315deb7c9733dae204372b3012815db31bb8e8e56d6c68d6ac24602082015233918101919091526104ee90606001610346565b600114610529576040517f4a0bfec1000000000000000000000000000000000000000000000000000000008152336004820152602401610293565b6105325f610998565b565b604080517f27ad9db40d40315deb7c9733dae204372b3012815db31bb8e8e56d6c68d6ac246020820152339181019190915261057290606001610346565b6001146105ad576040517f4a0bfec1000000000000000000000000000000000000000000000000000000008152336004820152602401610293565b6105b681610a63565b60405173ffffffffffffffffffffffffffffffffffffffff8216907f184450df2e323acec0ed3b5c7531b81f9b4cdef7914dfd4c0a4317416bb5251b905f90a250565b5f61064f7f27ad9db40d40315deb7c9733dae204372b3012815db31bb8e8e56d6c68d6ac248360405160200161034692919091825273ffffffffffffffffffffffffffffffffffffffff16602082015260400190565b92915050565b604080517f27ad9db40d40315deb7c9733dae204372b3012815db31bb8e8e56d6c68d6ac246020820152339181019190915261069390606001610346565b6001146106ce576040517f4a0bfec1000000000000000000000000000000000000000000000000000000008152336004820152602401610293565b817f707269636500000000000000000000000000000000000000000000000000000003610703576106fe81610998565b6107ef565b817f6e616d65000000000000000000000000000000000000000000000000000000000361075c576106fe7f9bc13b9bea85446242b96c637f96a994030a999e4a37800a69c2f798a672860b61075783610ad5565b610bed565b817f646563696d616c7300000000000000000000000000000000000000000000000014801561078c575060128111155b156107ba576106fe7fa5c4b505b3328f1f7b143b7cbfe5c1d30e20856c207cab51443a27fedf5d6316829055565b6040517f35802fa300000000000000000000000000000000000000000000000000000000815260048101829052602401610293565b817f943a793c11a909d4409e7706d8c3d1467960e08f6141234950042994856812df8260405161082191815260200190565b60405180910390a25050565b604080517f27ad9db40d40315deb7c9733dae204372b3012815db31bb8e8e56d6c68d6ac246020820152339181019190915261086b90606001610346565b6001146108a6576040517f4a0bfec1000000000000000000000000000000000000000000000000000000008152336004820152602401610293565b73ffffffffffffffffffffffffffffffffffffffff81165f81815260016020819052604080832091909155517f6ffc0fabf0709270e42087e84a3bfc36041d3b281266d04ae1962185092fb2449190a250565b80546060908290819061090b90610cc3565b80601f016020809104026020016040519081016040528092919081815260200182805461093790610cc3565b80156109825780601f1061095957610100808354040283529160200191610982565b820191905f5260205f20905b81548152906001019060200180831161096557829003601f168201915b5050505050915050919050565b5f61064f825490565b6109c17f0f6e463d71d43f924715baa2688119392f80a313b4437e6945310d50dba6177a829055565b604051429082907f9205f54491e32927259b3f6e67e823b85407d3a915972fe9973e58788507b254905f90a350565b6102a57f27ad9db40d40315deb7c9733dae204372b3012815db31bb8e8e56d6c68d6ac2482604051602001610a4592919091825273ffffffffffffffffffffffffffffffffffffffff16602082015260400190565b6040516020818303038152906040528051906020012060015f1b9055565b6102a57f27ad9db40d40315deb7c9733dae204372b3012815db31bb8e8e56d6c68d6ac2482604051602001610ab892919091825273ffffffffffffffffffffffffffffffffffffffff16602082015260400190565b604051602081830303815290604052805190602001205f5f1b9055565b60605f5b602081108015610b1f5750828160208110610af657610af6610d14565b1a60f81b7fff000000000000000000000000000000000000000000000000000000000000001615155b15610b365780610b2e81610d41565b915050610ad9565b5f8167ffffffffffffffff811115610b5057610b50610d9d565b6040519080825280601f01601f191660200182016040528015610b7a576020820181803683370190505b5090505f5b82811015610be557848160208110610b9957610b99610d14565b1a60f81b828281518110610baf57610baf610d14565b60200101907effffffffffffffffffffffffffffffffffffffffffffffffffffffffffffff191690815f1a905350600101610b7f565b509392505050565b8180610bf98382610e21565b50505050565b602081525f82518060208401528060208501604085015e5f6040828501015260407fffffffffffffffffffffffffffffffffffffffffffffffffffffffffffffffe0601f83011684010191505092915050565b5f60208284031215610c62575f5ffd5b5035919050565b5f60208284031215610c79575f5ffd5b813573ffffffffffffffffffffffffffffffffffffffff81168114610c9c575f5ffd5b9392505050565b5f5f60408385031215610cb4575f5ffd5b50508035926020909101359150565b600181811c90821680610cd757607f821691505b602082108103610d0e577f4e487b71000000000000000000000000000000000000000000000000000000005f52602260045260245ffd5b50919050565b7f4e487b71000000000000000000000000000000000000000000000000000000005f52603260045260245ffd5b5f7fffffffffffffffffffffffffffffffffffffffffffffffffffffffffffffffff8203610d96577f4e487b71000000000000000000000000000000000000000000000000000000005f52601160045260245ffd5b5060010190565b7f4e487b71000000000000000000000000000000000000000000000000000000005f52604160045260245ffd5b601f821115610e1c5782821115610e1c57805f5260205f20601f840160051c6020851015610df557505f5b90810190601f840160051c035f5b81811015610e18575f83820155600101610e03565b5050505b505050565b815167ffffffffffffffff811115610e3b57610e3b610d9d565b610e4f81610e498454610cc3565b84610dca565b6020601f821160018114610ea0575f8315610e6a5750848201515b7fffffffffffffffffffffffffffffffffffffffffffffffffffffffffffffffff600385901b1c1916600184901b178455610f35565b5f848152602081207fffffffffffffffffffffffffffffffffffffffffffffffffffffffffffffffe08516915b82811015610eed5787850151825560209485019460019092019101610ecd565b5084821015610f2957868401517fffffffffffffffffffffffffffffffffffffffffffffffffffffffffffffffff600387901b60f8161c191681555b505060018360011b0184555b505050505056fea2646970667358221220f6095d3aa61a5ad8919a838591eec574b00e6470173f8e0f1ca77022f1a2e7df64736f6c63430008220033",
        "nonce": "0x0",
        "chainId": "0x1"
      },
      "additionalContracts": [],
      "isFixedGasLimit": false
    },
    {
      "hash": "0xf95ea28738e2910907e10d8ba09f058e061543d6992e0be2094bb53ecb1f2200",
      "transactionType": "CREATE",
      "contractName": "MaseerProxy",
      "contractAddress": "0x6a79dce61a12aa4b75449e0b03746260765d07df",
      "function": null,
      "arguments": [
        "0x44BFEB1110bA6091034DBaAb450eF1e7469fF072"
      ],
      "transaction": {
        "from": "0xdeed2376ad1d9cc54e0cca449b1d7a96939120f9",
        "gas": "0x881c2",
        "value": "0x0",
        "input": "0x608060405234801561000f575f5ffd5b5060405161076738038061076783398101604081905261002e916101c9565b610039336001610051565b610042336100b7565b61004b8161011d565b506101f6565b5f7f312ed9ac9b839e579b0572e42b6b61a1d0e768aa92df633e58ace1e6a3633e79836040516020016100979291909182526001600160a01b0316602082015260400190565b604051602081830303815290604052805190602001209050818155505050565b5f7f27ad9db40d40315deb7c9733dae204372b3012815db31bb8e8e56d6c68d6ac24826040516020016100fd9291909182526001600160a01b0316602082015260400190565b604051602081830303815290604052805190602001209050600181555050565b6001600160a01b038116610144576040516318ce8b9560e31b815260040160405180910390fd5b806001600160a01b03163b5f0361016e576040516318ce8b9560e31b815260040160405180910390fd5b7f0e4c00c0fe9fb028e73dd325b95165d8884bc26853613a6b5131a12effdd8ddd8181556040516001600160a01b038316907fa2dae01a1d724d8a8b98084c4e6f990890b1d873be068e99714cfd28b4060ddb905f90a25050565b5f602082840312156101d9575f5ffd5b81516001600160a01b03811681146101ef575f5ffd5b9392505050565b610564806102035f395ff3fe608060405234801561000f575f5ffd5b5060043610610065575f3560e01c8063266a164a1161004e578063266a164a146100d957806360cd9853146100ec5780638abf60771461011257610065565b8063048046c1146100b35780630715940e146100c6575b5f61008e7f0e4c00c0fe9fb028e73dd325b95165d8884bc26853613a6b5131a12effdd8ddd5490565b9050604051365f82375f5f3683855af43d5f833e8080156100ad573d83f35b3d83fd5b005b6100b16100c13660046104f4565b61013f565b6100b16100d43660046104f4565b61018d565b6100b16100e73660046104f4565b61021c565b6100ff6100fa3660046104f4565b6102ac565b6040519081526020015b60405180910390f35b61011a6102bc565b60405173ffffffffffffffffffffffffffffffffffffffff9091168152602001610109565b610148336102ea565b600114610181576040517fea8e4eb500000000000000000000000000000000000000000000000000000000815260040160405180910390fd5b61018a8161037c565b50565b610196336102ea565b6001146101cf576040517fea8e4eb500000000000000000000000000000000000000000000000000000000815260040160405180910390fd5b6101d9815f610481565b60405173ffffffffffffffffffffffffffffffffffffffff8216907f8e066a7a19e3d1aaa91c6958a58bf4cafce6fc1ced39e50a486f94dc58a8ca05905f90a250565b610225336102ea565b60011461025e576040517fea8e4eb500000000000000000000000000000000000000000000000000000000815260040160405180910390fd5b610269816001610481565b60405173ffffffffffffffffffffffffffffffffffffffff8216907fa8dd46fe41c432577d30ef7c761e2ef822cd09c86bbfb1c24d80387c798e60a3905f90a250565b5f6102b6826102ea565b92915050565b5f6102e57f0e4c00c0fe9fb028e73dd325b95165d8884bc26853613a6b5131a12effdd8ddd5490565b905090565b5f5f7f312ed9ac9b839e579b0572e42b6b61a1d0e768aa92df633e58ace1e6a3633e798360405160200161033e92919091825273ffffffffffffffffffffffffffffffffffffffff16602082015260400190565b604080517fffffffffffffffffffffffffffffffffffffffffffffffffffffffffffffffe08184030181529190528051602090910120549392505050565b73ffffffffffffffffffffffffffffffffffffffff81166103c9576040517fc6745ca800000000000000000000000000000000000000000000000000000000815260040160405180910390fd5b8073ffffffffffffffffffffffffffffffffffffffff163b5f03610419576040517fc6745ca800000000000000000000000000000000000000000000000000000000815260040160405180910390fd5b7f0e4c00c0fe9fb028e73dd325b95165d8884bc26853613a6b5131a12effdd8ddd81815560405173ffffffffffffffffffffffffffffffffffffffff8316907fa2dae01a1d724d8a8b98084c4e6f990890b1d873be068e99714cfd28b4060ddb905f90a25050565b5f7f312ed9ac9b839e579b0572e42b6b61a1d0e768aa92df633e58ace1e6a3633e79836040516020016104d492919091825273ffffffffffffffffffffffffffffffffffffffff16602082015260400190565b604051602081830303815290604052805190602001209050818155505050565b5f60208284031215610504575f5ffd5b813573ffffffffffffffffffffffffffffffffffffffff81168114610527575f5ffd5b939250505056fea26469706673582212209f8892d92d175cc5b8fc0670073a4f63e48e463dda97929f031659d5557348ee64736f6c6343000822003300000000000000000000000044bfeb1110ba6091034dbaab450ef1e7469ff072",
        "nonce": "0x1",
        "chainId": "0x1"
      },
      "additionalContracts": [],
      "isFixedGasLimit": false
    },
    {
      "hash": "0x9a6359025658ff5003416bb43f60e67e030d7e747b236f5d8f7119e67e24051a",
      "transactionType": "CREATE",
      "contractName": "MaseerGate",
      "contractAddress": "0x635dbb7841c27c74b6bdbf1bed548aae2c6c9d77",
      "function": null,
      "arguments": null,
      "transaction": {
        "from": "0xdeed2376ad1d9cc54e0cca449b1d7a96939120f9",
        "gas": "0x1e0a91",
        "value": "0x0",
        "input": "0x6080604052348015600e575f5ffd5b50601633601a565b6081565b607e7f27ad9db40d40315deb7c9733dae204372b3012815db31bb8e8e56d6c68d6ac248260405160200160609291909182526001600160a01b0316602082015260400190565b60408051601f19818403018152919052805160209091012060019055565b50565b611a268061008e5f395ff3fe608060405234801561000f575f5ffd5b50600436106101dc575f3560e01c8063787a08a611610109578063a943dc6c1161009e578063cb1626251161006e578063cb1626251461036c578063d502562514610374578063ef86cf5614610389578063fbd252461461039c575f5ffd5b8063a943dc6c14610341578063bbec93fa14610349578063bce6d67214610351578063bf353dbb14610359575f5ffd5b806398b836da116100d957806398b836da146103165780639c52a7f11461031e578063a03738dc14610331578063a07c7ce414610339575f5ffd5b8063787a08a6146102e057806378f86afc146102e857806391915ef8146102fb578063965745801461030e575f5ffd5b80634fc3f41a1161017f57806365fae35e1161014f57806365fae35e1461029f5780636c88d9e1146102b257806371ebdf4e146102ba5780637486bf47146102cd575f5ffd5b80634fc3f41a1461025e57806359361d8e146102715780635c4f46ed146102845780635cfc1a5114610297575f5ffd5b806329cbec1a116101ba57806329cbec1a146102235780632c0405271461022b5780633fb362b41461023e5780634bf365df14610246575f5ffd5b80631447cdf9146101e0578063168ff4f9146101f557806329ae811414610210575b5f5ffd5b6101f36101ee366004611633565b6103af565b005b6101fd610499565b6040519081526020015b60405180910390f35b6101f361021e36600461164a565b6104bb565b6101fd6106ed565b6101f3610239366004611633565b61071c565b6101fd6107e8565b61024e610812565b6040519015158152602001610207565b6101f361026c366004611633565b610835565b6101f361027f366004611633565b6108f8565b6101fd610292366004611633565b6109b9565b6101fd6109d1565b6101f36102ad36600461166a565b6109fb565b6101fd610ac0565b6101f36102c8366004611633565b610aca565b6101f36102db366004611633565b610b8b565b6101fd610c57565b6101f36102f636600461169d565b610c81565b6101f3610309366004611633565b610d59565b6101fd610ddb565b6101fd610e05565b6101f361032c36600461166a565b610e2e565b6101f3610ef3565b61024e610f92565b6101fd610fad565b6101fd610fb7565b6101fd610fc1565b6101fd61036736600461166a565b610feb565b6101fd611041565b61037c61106b565b604051610207919061170b565b6101fd610397366004611633565b611096565b6101f36103aa366004611633565b6110a8565b604080517f27ad9db40d40315deb7c9733dae204372b3012815db31bb8e8e56d6c68d6ac2460208201523391810191909152610403906060015b604051602081830303815290604052805190602001205490565b600114610443576040517f4a0bfec10000000000000000000000000000000000000000000000000000000081523360048201526024015b60405180910390fd5b610451426301e1338061178b565b81111561048d576040517f35802fa30000000000000000000000000000000000000000000000000000000081526004810182905260240161043a565b61049681611174565b50565b5f5f6104a36106ed565b9050428110156104b3575f6104b5565b805b91505090565b604080517f27ad9db40d40315deb7c9733dae204372b3012815db31bb8e8e56d6c68d6ac24602082015233918101919091526104f9906060016103e9565b600114610534576040517f4a0bfec100000000000000000000000000000000000000000000000000000000815233600482015260240161043a565b817f6f70656e6d696e740000000000000000000000000000000000000000000000000361056857610564816111d4565b5050565b817f68616c746d696e7400000000000000000000000000000000000000000000000003610598576105648161122d565b817f6f70656e6275726e000000000000000000000000000000000000000000000000036105c85761056481611174565b817f68616c746275726e000000000000000000000000000000000000000000000000036105f85761056481611286565b817f627073696e0000000000000000000000000000000000000000000000000000000361062857610564816112df565b817f6270736f75740000000000000000000000000000000000000000000000000000036106585761056481611337565b817f636f6f6c646f776e000000000000000000000000000000000000000000000000036106885761056481611390565b817f6361706163697479000000000000000000000000000000000000000000000000036106b857610564816113e9565b6040517f35802fa30000000000000000000000000000000000000000000000000000000081526004810183905260240161043a565b5f6107177f9c2ad2c21e274c8b57052f9f0ef73dd8f6e1d917d156e1368bb7cc739cf1f4b1611442565b905090565b604080517f27ad9db40d40315deb7c9733dae204372b3012815db31bb8e8e56d6c68d6ac246020820152339181019190915261075a906060016103e9565b600114610795576040517f4a0bfec100000000000000000000000000000000000000000000000000000000815233600482015260240161043a565b6107a3426301e1338061178b565b8111156107df576040517f35802fa30000000000000000000000000000000000000000000000000000000081526004810182905260240161043a565b6104968161122d565b5f6107177ffcb92606a933a3a2fc95ea37ffc5f3cf5a7a2f3776ccd27ff295f4bc9846f3e6611442565b5f61081b610fc1565b4210158015610717575061082d611041565b421115905090565b604080517f27ad9db40d40315deb7c9733dae204372b3012815db31bb8e8e56d6c68d6ac2460208201523391810191909152610873906060016103e9565b6001146108ae576040517f4a0bfec100000000000000000000000000000000000000000000000000000000815233600482015260240161043a565b6301e133808111156108ef576040517f35802fa30000000000000000000000000000000000000000000000000000000081526004810182905260240161043a565b61049681611390565b604080517f27ad9db40d40315deb7c9733dae204372b3012815db31bb8e8e56d6c68d6ac2460208201523391810191909152610936906060016103e9565b600114610971576040517f4a0bfec100000000000000000000000000000000000000000000000000000000815233600482015260240161043a565b6127108111156109b0576040517f35802fa30000000000000000000000000000000000000000000000000000000081526004810182905260240161043a565b610496816112df565b5f6109cb826109c6610e05565b61144b565b92915050565b5f6107177f223eebe857eb33ee31fe46155467a9e23b253715020bbb26850d321fdc3146ab611442565b604080517f27ad9db40d40315deb7c9733dae204372b3012815db31bb8e8e56d6c68d6ac2460208201523391810191909152610a39906060016103e9565b600114610a74576040517f4a0bfec100000000000000000000000000000000000000000000000000000000815233600482015260240161043a565b610a7d81611474565b60405173ffffffffffffffffffffffffffffffffffffffff8216907fdd0e34038ac38b2a1ce960229778ac48a8719bc900b6c4f8d0475c6e8b385a60905f90a250565b5f5f6104a3610fc1565b604080517f27ad9db40d40315deb7c9733dae204372b3012815db31bb8e8e56d6c68d6ac2460208201523391810191909152610b08906060016103e9565b600114610b43576040517f4a0bfec100000000000000000000000000000000000000000000000000000000815233600482015260240161043a565b612710811115610b82576040517f35802fa30000000000000000000000000000000000000000000000000000000081526004810182905260240161043a565b61049681611337565b604080517f27ad9db40d40315deb7c9733dae204372b3012815db31bb8e8e56d6c68d6ac2460208201523391810191909152610bc9906060016103e9565b600114610c04576040517f4a0bfec100000000000000000000000000000000000000000000000000000000815233600482015260240161043a565b610c12426301e1338061178b565b811115610c4e576040517f35802fa30000000000000000000000000000000000000000000000000000000081526004810182905260240161043a565b61049681611286565b5f6107177f09e5415ecbe88722a362e8ef1260b911b06c7c85eb60dd940ec2508f025009c7611442565b604080517f27ad9db40d40315deb7c9733dae204372b3012815db31bb8e8e56d6c68d6ac2460208201523391810191909152610cbf906060016103e9565b600114610cfa576040517f4a0bfec100000000000000000000000000000000000000000000000000000000815233600482015260240161043a565b6105647f22e8a156959d742c5752b74b16cb9f8ea7f952f101df0ae0892c22c2d7b19d2a83838080601f0160208091040260200160405190810160405280939291908181526020018383808284375f920191909152506114e792505050565b604080517f27ad9db40d40315deb7c9733dae204372b3012815db31bb8e8e56d6c68d6ac2460208201523391810191909152610d97906060016103e9565b600114610dd2576040517f4a0bfec100000000000000000000000000000000000000000000000000000000815233600482015260240161043a565b610496816113e9565b5f6107177ff6f62fd4da7bc2b32a6e1e65b29fc84ac47127fe667e702bfad2a308be5e31f3611442565b5f6107177e157179f0e328e9155f0e7f3bacad2e41db42b1e0800a411a594382df7a1e64611442565b604080517f27ad9db40d40315deb7c9733dae204372b3012815db31bb8e8e56d6c68d6ac2460208201523391810191909152610e6c906060016103e9565b600114610ea7576040517f4a0bfec100000000000000000000000000000000000000000000000000000000815233600482015260240161043a565b610eb0816114f9565b60405173ffffffffffffffffffffffffffffffffffffffff8216907f184450df2e323acec0ed3b5c7531b81f9b4cdef7914dfd4c0a4317416bb5251b905f90a250565b604080517f27ad9db40d40315deb7c9733dae204372b3012815db31bb8e8e56d6c68d6ac2460208201523391810191909152610f31906060016103e9565b600114610f6c576040517f4a0bfec100000000000000000000000000000000000000000000000000000000815233600482015260240161043a565b610f755f6111d4565b610f7e5f61122d565b610f875f611174565b610f905f611286565b565b5f610f9b6106ed565b4210158015610717575061082d6107e8565b5f5f6104a3611041565b5f5f6104a36107e8565b5f6107177fbe1a4dea2a7bf3bca8caa6d30da3b6665e2e170da688038ad0b7269f2e0ebf91611442565b5f6109cb7f27ad9db40d40315deb7c9733dae204372b3012815db31bb8e8e56d6c68d6ac24836040516020016103e992919091825273ffffffffffffffffffffffffffffffffffffffff16602082015260400190565b5f6107177fc6806e07b5185a5f2a4a279b21328cdfc10302bba8d637663c0af6df2ce3b5da611442565b60606107177f22e8a156959d742c5752b74b16cb9f8ea7f952f101df0ae0892c22c2d7b19d2a61156b565b5f6109cb826110a3610ddb565b611601565b604080517f27ad9db40d40315deb7c9733dae204372b3012815db31bb8e8e56d6c68d6ac24602082015233918101919091526110e6906060016103e9565b600114611121576040517f4a0bfec100000000000000000000000000000000000000000000000000000000815233600482015260240161043a565b61112f426301e1338061178b565b81111561116b576040517f35802fa30000000000000000000000000000000000000000000000000000000081526004810182905260240161043a565b610496816111d4565b61119d7f9c2ad2c21e274c8b57052f9f0ef73dd8f6e1d917d156e1368bb7cc739cf1f4b1829055565b6040518181527fe3c97aac895dcb57bfa53bd9e17560862f4da2f38926cb7a07c3d30ad86d1461906020015b60405180910390a150565b6111fd7fbe1a4dea2a7bf3bca8caa6d30da3b6665e2e170da688038ad0b7269f2e0ebf91829055565b6040518181527f28d421b627efdbdff5d3a7755d219c51d6b84890aa86158a96709c631b3d3621906020016111c9565b6112567fc6806e07b5185a5f2a4a279b21328cdfc10302bba8d637663c0af6df2ce3b5da829055565b6040518181527f0b46438ef921579327a039216737d67307c776f80ee589a68f6929473c11d7ea906020016111c9565b6112af7ffcb92606a933a3a2fc95ea37ffc5f3cf5a7a2f3776ccd27ff295f4bc9846f3e6829055565b6040518181527fb99712d62405da5b8c7cf827c6496803f89ca156fa0cb31ef41029c40fd01bc7906020016111c9565b6113077e157179f0e328e9155f0e7f3bacad2e41db42b1e0800a411a594382df7a1e64829055565b6040518181527f3b875fd8ec4e87d19ad192901e17c7e7070acacccc0433c2d2e4c89fd22e1455906020016111c9565b6113607ff6f62fd4da7bc2b32a6e1e65b29fc84ac47127fe667e702bfad2a308be5e31f3829055565b6040518181527f5e9ef102631b6991a5c93f0e8cccb183f633cb2cffac65b8c2f0abd3cdd21f09906020016111c9565b6113b97f09e5415ecbe88722a362e8ef1260b911b06c7c85eb60dd940ec2508f025009c7829055565b6040518181527fff658a1ccbd5d621da4584b917cc77706889b22a9a31935e92935801f1227829906020016111c9565b6114127f223eebe857eb33ee31fe46155467a9e23b253715020bbb26850d321fdc3146ab829055565b6040518181527fc521c5dce69531eca4ec23cd5e8dab98dc098d89af66a8dd86ff7f92b68701bc906020016111c9565b5f6109cb825490565b5f61146d61145b8361271061178b565b611465908561179e565b612710611611565b9392505050565b6104967f27ad9db40d40315deb7c9733dae204372b3012815db31bb8e8e56d6c68d6ac24826040516020016114c992919091825273ffffffffffffffffffffffffffffffffffffffff16602082015260400190565b6040516020818303038152906040528051906020012060015f1b9055565b81806114f3838261188a565b50505050565b6104967f27ad9db40d40315deb7c9733dae204372b3012815db31bb8e8e56d6c68d6ac248260405160200161154e92919091825273ffffffffffffffffffffffffffffffffffffffff16602082015260400190565b604051602081830303815290604052805190602001205f5f1b9055565b80546060908290819061157d906117e2565b80601f01602080910402602001604051908101604052809291908181526020018280546115a9906117e2565b80156115f45780601f106115cb576101008083540402835291602001916115f4565b820191905f5260205f20905b8154815290600101906020018083116115d757829003601f168201915b5050505050915050919050565b5f61146d61145b836127106119a5565b5f81600161161f828661178b565b61162991906119a5565b61146d91906119b8565b5f60208284031215611643575f5ffd5b5035919050565b5f5f6040838503121561165b575f5ffd5b50508035926020909101359150565b5f6020828403121561167a575f5ffd5b813573ffffffffffffffffffffffffffffffffffffffff8116811461146d575f5ffd5b5f5f602083850312156116ae575f5ffd5b823567ffffffffffffffff8111156116c4575f5ffd5b8301601f810185136116d4575f5ffd5b803567ffffffffffffffff8111156116ea575f5ffd5b8560208284010111156116fb575f5ffd5b6020919091019590945092505050565b602081525f82518060208401528060208501604085015e5f6040828501015260407fffffffffffffffffffffffffffffffffffffffffffffffffffffffffffffffe0601f83011684010191505092915050565b7f4e487b71000000000000000000000000000000000000000000000000000000005f52601160045260245ffd5b808201808211156109cb576109cb61175e565b80820281158282048414176109cb576109cb61175e565b7f4e487b71000000000000000000000000000000000000000000000000000000005f52604160045260245ffd5b600181811c908216806117f657607f821691505b60208210810361182d577f4e487b71000000000000000000000000000000000000000000000000000000005f52602260045260245ffd5b50919050565b601f821115611885578282111561188557805f5260205f20601f840160051c602085101561185e57505f5b90810190601f840160051c035f5b81811015611881575f8382015560010161186c565b5050505b505050565b815167ffffffffffffffff8111156118a4576118a46117b5565b6118b8816118b284546117e2565b84611833565b6020601f821160018114611909575f83156118d35750848201515b7fffffffffffffffffffffffffffffffffffffffffffffffffffffffffffffffff600385901b1c1916600184901b17845561199e565b5f848152602081207fffffffffffffffffffffffffffffffffffffffffffffffffffffffffffffffe08516915b828110156119565787850151825560209485019460019092019101611936565b508482101561199257868401517fffffffffffffffffffffffffffffffffffffffffffffffffffffffffffffffff600387901b60f8161c191681555b505060018360011b0184555b5050505050565b818103818111156109cb576109cb61175e565b5f826119eb577f4e487b71000000000000000000000000000000000000000000000000000000005f52601260045260245ffd5b50049056fea2646970667358221220fa05cc9fd84c5df3f0e33640f34c0046f0942e6e3f0b4a669fed7901e8a2e77864736f6c63430008220033",
        "nonce": "0x2",
        "chainId": "0x1"
      },
      "additionalContracts": [],
      "isFixedGasLimit": false
    },
    {
      "hash": "0x3a98af8f39129e29a7ded08a1020a03def11aff799866d0bc2b41b7fdc14ab66",
      "transactionType": "CREATE",
      "contractName": "MaseerProxy",
      "contractAddress": "0xb59cb4d3075a8ce5013c78e8bd7ada3fd1300f7f",
      "function": null,
      "arguments": [
        "0x635dbb7841c27c74b6bDbf1BEd548aAe2C6C9D77"
      ],
      "transaction": {
        "from": "0xdeed2376ad1d9cc54e0cca449b1d7a96939120f9",
        "gas": "0x881c2",
        "value": "0x0",
        "input": "0x608060405234801561000f575f5ffd5b5060405161076738038061076783398101604081905261002e916101c9565b610039336001610051565b610042336100b7565b61004b8161011d565b506101f6565b5f7f312ed9ac9b839e579b0572e42b6b61a1d0e768aa92df633e58ace1e6a3633e79836040516020016100979291909182526001600160a01b0316602082015260400190565b604051602081830303815290604052805190602001209050818155505050565b5f7f27ad9db40d40315deb7c9733dae204372b3012815db31bb8e8e56d6c68d6ac24826040516020016100fd9291909182526001600160a01b0316602082015260400190565b604051602081830303815290604052805190602001209050600181555050565b6001600160a01b038116610144576040516318ce8b9560e31b815260040160405180910390fd5b806001600160a01b03163b5f0361016e576040516318ce8b9560e31b815260040160405180910390fd5b7f0e4c00c0fe9fb028e73dd325b95165d8884bc26853613a6b5131a12effdd8ddd8181556040516001600160a01b038316907fa2dae01a1d724d8a8b98084c4e6f990890b1d873be068e99714cfd28b4060ddb905f90a25050565b5f602082840312156101d9575f5ffd5b81516001600160a01b03811681146101ef575f5ffd5b9392505050565b610564806102035f395ff3fe608060405234801561000f575f5ffd5b5060043610610065575f3560e01c8063266a164a1161004e578063266a164a146100d957806360cd9853146100ec5780638abf60771461011257610065565b8063048046c1146100b35780630715940e146100c6575b5f61008e7f0e4c00c0fe9fb028e73dd325b95165d8884bc26853613a6b5131a12effdd8ddd5490565b9050604051365f82375f5f3683855af43d5f833e8080156100ad573d83f35b3d83fd5b005b6100b16100c13660046104f4565b61013f565b6100b16100d43660046104f4565b61018d565b6100b16100e73660046104f4565b61021c565b6100ff6100fa3660046104f4565b6102ac565b6040519081526020015b60405180910390f35b61011a6102bc565b60405173ffffffffffffffffffffffffffffffffffffffff9091168152602001610109565b610148336102ea565b600114610181576040517fea8e4eb500000000000000000000000000000000000000000000000000000000815260040160405180910390fd5b61018a8161037c565b50565b610196336102ea565b6001146101cf576040517fea8e4eb500000000000000000000000000000000000000000000000000000000815260040160405180910390fd5b6101d9815f610481565b60405173ffffffffffffffffffffffffffffffffffffffff8216907f8e066a7a19e3d1aaa91c6958a58bf4cafce6fc1ced39e50a486f94dc58a8ca05905f90a250565b610225336102ea565b60011461025e576040517fea8e4eb500000000000000000000000000000000000000000000000000000000815260040160405180910390fd5b610269816001610481565b60405173ffffffffffffffffffffffffffffffffffffffff8216907fa8dd46fe41c432577d30ef7c761e2ef822cd09c86bbfb1c24d80387c798e60a3905f90a250565b5f6102b6826102ea565b92915050565b5f6102e57f0e4c00c0fe9fb028e73dd325b95165d8884bc26853613a6b5131a12effdd8ddd5490565b905090565b5f5f7f312ed9ac9b839e579b0572e42b6b61a1d0e768aa92df633e58ace1e6a3633e798360405160200161033e92919091825273ffffffffffffffffffffffffffffffffffffffff16602082015260400190565b604080517fffffffffffffffffffffffffffffffffffffffffffffffffffffffffffffffe08184030181529190528051602090910120549392505050565b73ffffffffffffffffffffffffffffffffffffffff81166103c9576040517fc6745ca800000000000000000000000000000000000000000000000000000000815260040160405180910390fd5b8073ffffffffffffffffffffffffffffffffffffffff163b5f03610419576040517fc6745ca800000000000000000000000000000000000000000000000000000000815260040160405180910390fd5b7f0e4c00c0fe9fb028e73dd325b95165d8884bc26853613a6b5131a12effdd8ddd81815560405173ffffffffffffffffffffffffffffffffffffffff8316907fa2dae01a1d724d8a8b98084c4e6f990890b1d873be068e99714cfd28b4060ddb905f90a25050565b5f7f312ed9ac9b839e579b0572e42b6b61a1d0e768aa92df633e58ace1e6a3633e79836040516020016104d492919091825273ffffffffffffffffffffffffffffffffffffffff16602082015260400190565b604051602081830303815290604052805190602001209050818155505050565b5f60208284031215610504575f5ffd5b813573ffffffffffffffffffffffffffffffffffffffff81168114610527575f5ffd5b939250505056fea26469706673582212209f8892d92d175cc5b8fc0670073a4f63e48e463dda97929f031659d5557348ee64736f6c63430008220033000000000000000000000000635dbb7841c27c74b6bdbf1bed548aae2c6c9d77",
        "nonce": "0x3",
        "chainId": "0x1"
      },
      "additionalContracts": [],
      "isFixedGasLimit": false
    },
    {
      "hash": "0x9869d05ef1c6574ef04f60dfb1a8a257031ddb0546ab3dd1b0117b376f69dcd4",
      "transactionType": "CREATE",
      "contractName": "MaseerTreasury",
      "contractAddress": "0x192575eeb42644a8014eb545c69f5125e2437a56",
      "function": null,
      "arguments": null,
      "transaction": {
        "from": "0xdeed2376ad1d9cc54e0cca449b1d7a96939120f9",
        "gas": "0x8b087",
        "value": "0x0",
        "input": "0x6080604052348015600e575f5ffd5b506106fa8061001c5f395ff3fe608060405234801561000f575f5ffd5b506004361061006f575f3560e01c80639c52a7f11161004d5780639c52a7f1146100c3578063bc0505f0146100d6578063bf353dbb146100e9575f5ffd5b80635711caaf1461007357806365fae35e1461009b57806375aa3cd1146100b0575b5f5ffd5b610086610081366004610691565b61010a565b60405190151581526020015b60405180910390f35b6100ae6100a9366004610691565b61011d565b005b6100ae6100be366004610691565b6101fd565b6100ae6100d1366004610691565b6102c3565b6100ae6100e4366004610691565b610388565b6100fc6100f7366004610691565b61044f565b604051908152602001610092565b5f610114826104ab565b60011492915050565b604080517f27ad9db40d40315deb7c9733dae204372b3012815db31bb8e8e56d6c68d6ac2460208201523391810191909152610171906060015b604051602081830303815290604052805190602001205490565b6001146101b1576040517f4a0bfec10000000000000000000000000000000000000000000000000000000081523360048201526024015b60405180910390fd5b6101ba81610527565b60405173ffffffffffffffffffffffffffffffffffffffff8216907fdd0e34038ac38b2a1ce960229778ac48a8719bc900b6c4f8d0475c6e8b385a60905f90a250565b604080517f27ad9db40d40315deb7c9733dae204372b3012815db31bb8e8e56d6c68d6ac246020820152339181019190915261023b90606001610157565b600114610276576040517f4a0bfec10000000000000000000000000000000000000000000000000000000081523360048201526024016101a8565b610280815f61059d565b60405173ffffffffffffffffffffffffffffffffffffffff8216907fa6f9a024d1dfdb84b5f3d49d1f757ab1c79fce2ee928d69372df2f04d5cb4a04905f90a250565b604080517f27ad9db40d40315deb7c9733dae204372b3012815db31bb8e8e56d6c68d6ac246020820152339181019190915261030190606001610157565b60011461033c576040517f4a0bfec10000000000000000000000000000000000000000000000000000000081523360048201526024016101a8565b61034581610616565b60405173ffffffffffffffffffffffffffffffffffffffff8216907f184450df2e323acec0ed3b5c7531b81f9b4cdef7914dfd4c0a4317416bb5251b905f90a250565b604080517f27ad9db40d40315deb7c9733dae204372b3012815db31bb8e8e56d6c68d6ac24602082015233918101919091526103c690606001610157565b600114610401576040517f4a0bfec10000000000000000000000000000000000000000000000000000000081523360048201526024016101a8565b61040c81600161059d565b60405173ffffffffffffffffffffffffffffffffffffffff8216907fa963685329cb5baf7fd78d35981a39531b48f5c5735eccf6f8e17966d9d76eb0905f90a250565b5f6104a57f27ad9db40d40315deb7c9733dae204372b3012815db31bb8e8e56d6c68d6ac248360405160200161015792919091825273ffffffffffffffffffffffffffffffffffffffff16602082015260400190565b92915050565b5f5f7f2c21f3d83b4a8aed4587d3e87ae205de8e022583c725dabdf3d39d5b8645c1b6836040516020016104ff92919091825273ffffffffffffffffffffffffffffffffffffffff16602082015260400190565b60405160208183030381529060405280519060200120905061052081610688565b9392505050565b61059a7f27ad9db40d40315deb7c9733dae204372b3012815db31bb8e8e56d6c68d6ac248260405160200161057c92919091825273ffffffffffffffffffffffffffffffffffffffff16602082015260400190565b6040516020818303038152906040528051906020012060015f1b9055565b50565b5f7f2c21f3d83b4a8aed4587d3e87ae205de8e022583c725dabdf3d39d5b8645c1b6836040516020016105f092919091825273ffffffffffffffffffffffffffffffffffffffff16602082015260400190565b60405160208183030381529060405280519060200120905061061181839055565b505050565b61059a7f27ad9db40d40315deb7c9733dae204372b3012815db31bb8e8e56d6c68d6ac248260405160200161066b92919091825273ffffffffffffffffffffffffffffffffffffffff16602082015260400190565b604051602081830303815290604052805190602001205f5f1b9055565b5f6104a5825490565b5f602082840312156106a1575f5ffd5b813573ffffffffffffffffffffffffffffffffffffffff81168114610520575f5ffdfea2646970667358221220c56648682377fa0a7a0f7dc4c1618d12118ce1601683260b336d3e4493c9101264736f6c63430008220033",
        "nonce": "0x4",
        "chainId": "0x1"
      },
      "additionalContracts": [],
      "isFixedGasLimit": false
    },
    {
      "hash": "0x147a5efd737e1f595994925e111cfecc639feba908b3e4dece7fe767bd8ddef7",
      "transactionType": "CREATE",
      "contractName": "MaseerProxy",
      "contractAddress": "0xa8f5be8457d6ed5c659647fa8d107c3f2086626a",
      "function": null,
      "arguments": [
        "0x192575eeb42644a8014eB545c69f5125e2437A56"
      ],
      "transaction": {
        "from": "0xdeed2376ad1d9cc54e0cca449b1d7a96939120f9",
        "gas": "0x881c2",
        "value": "0x0",
        "input": "0x608060405234801561000f575f5ffd5b5060405161076738038061076783398101604081905261002e916101c9565b610039336001610051565b610042336100b7565b61004b8161011d565b506101f6565b5f7f312ed9ac9b839e579b0572e42b6b61a1d0e768aa92df633e58ace1e6a3633e79836040516020016100979291909182526001600160a01b0316602082015260400190565b604051602081830303815290604052805190602001209050818155505050565b5f7f27ad9db40d40315deb7c9733dae204372b3012815db31bb8e8e56d6c68d6ac24826040516020016100fd9291909182526001600160a01b0316602082015260400190565b604051602081830303815290604052805190602001209050600181555050565b6001600160a01b038116610144576040516318ce8b9560e31b815260040160405180910390fd5b806001600160a01b03163b5f0361016e576040516318ce8b9560e31b815260040160405180910390fd5b7f0e4c00c0fe9fb028e73dd325b95165d8884bc26853613a6b5131a12effdd8ddd8181556040516001600160a01b038316907fa2dae01a1d724d8a8b98084c4e6f990890b1d873be068e99714cfd28b4060ddb905f90a25050565b5f602082840312156101d9575f5ffd5b81516001600160a01b03811681146101ef575f5ffd5b9392505050565b610564806102035f395ff3fe608060405234801561000f575f5ffd5b5060043610610065575f3560e01c8063266a164a1161004e578063266a164a146100d957806360cd9853146100ec5780638abf60771461011257610065565b8063048046c1146100b35780630715940e146100c6575b5f61008e7f0e4c00c0fe9fb028e73dd325b95165d8884bc26853613a6b5131a12effdd8ddd5490565b9050604051365f82375f5f3683855af43d5f833e8080156100ad573d83f35b3d83fd5b005b6100b16100c13660046104f4565b61013f565b6100b16100d43660046104f4565b61018d565b6100b16100e73660046104f4565b61021c565b6100ff6100fa3660046104f4565b6102ac565b6040519081526020015b60405180910390f35b61011a6102bc565b60405173ffffffffffffffffffffffffffffffffffffffff9091168152602001610109565b610148336102ea565b600114610181576040517fea8e4eb500000000000000000000000000000000000000000000000000000000815260040160405180910390fd5b61018a8161037c565b50565b610196336102ea565b6001146101cf576040517fea8e4eb500000000000000000000000000000000000000000000000000000000815260040160405180910390fd5b6101d9815f610481565b60405173ffffffffffffffffffffffffffffffffffffffff8216907f8e066a7a19e3d1aaa91c6958a58bf4cafce6fc1ced39e50a486f94dc58a8ca05905f90a250565b610225336102ea565b60011461025e576040517fea8e4eb500000000000000000000000000000000000000000000000000000000815260040160405180910390fd5b610269816001610481565b60405173ffffffffffffffffffffffffffffffffffffffff8216907fa8dd46fe41c432577d30ef7c761e2ef822cd09c86bbfb1c24d80387c798e60a3905f90a250565b5f6102b6826102ea565b92915050565b5f6102e57f0e4c00c0fe9fb028e73dd325b95165d8884bc26853613a6b5131a12effdd8ddd5490565b905090565b5f5f7f312ed9ac9b839e579b0572e42b6b61a1d0e768aa92df633e58ace1e6a3633e798360405160200161033e92919091825273ffffffffffffffffffffffffffffffffffffffff16602082015260400190565b604080517fffffffffffffffffffffffffffffffffffffffffffffffffffffffffffffffe08184030181529190528051602090910120549392505050565b73ffffffffffffffffffffffffffffffffffffffff81166103c9576040517fc6745ca800000000000000000000000000000000000000000000000000000000815260040160405180910390fd5b8073ffffffffffffffffffffffffffffffffffffffff163b5f03610419576040517fc6745ca800000000000000000000000000000000000000000000000000000000815260040160405180910390fd5b7f0e4c00c0fe9fb028e73dd325b95165d8884bc26853613a6b5131a12effdd8ddd81815560405173ffffffffffffffffffffffffffffffffffffffff8316907fa2dae01a1d724d8a8b98084c4e6f990890b1d873be068e99714cfd28b4060ddb905f90a25050565b5f7f312ed9ac9b839e579b0572e42b6b61a1d0e768aa92df633e58ace1e6a3633e79836040516020016104d492919091825273ffffffffffffffffffffffffffffffffffffffff16602082015260400190565b604051602081830303815290604052805190602001209050818155505050565b5f60208284031215610504575f5ffd5b813573ffffffffffffffffffffffffffffffffffffffff81168114610527575f5ffd5b939250505056fea26469706673582212209f8892d92d175cc5b8fc0670073a4f63e48e463dda97929f031659d5557348ee64736f6c63430008220033000000000000000000000000192575eeb42644a8014eb545c69f5125e2437a56",
        "nonce": "0x5",
        "chainId": "0x1"
      },
      "additionalContracts": [],
      "isFixedGasLimit": false
    },
    {
      "hash": "0xb9f76773696e84e4bfa57548f1c1b0930c766df0b9533dd978aca6c04a432e9c",
      "transactionType": "CREATE",
      "contractName": "MaseerGuardOZ",
      "contractAddress": "0x3bb8ebb11816e1c20c3db57e2e7e5b421b159255",
      "function": null,
      "arguments": [
        "0x27f6c8289550fCE67f6B50BeD1F519966aFE5287"
      ],
      "transaction": {
        "from": "0xdeed2376ad1d9cc54e0cca449b1d7a96939120f9",
        "gas": "0x6ed05",
        "value": "0x0",
        "input": "0x60a0604052348015600e575f5ffd5b506040516105da3803806105da833981016040819052602b91603b565b6001600160a01b03166080526066565b5f60208284031215604a575f5ffd5b81516001600160a01b0381168114605f575f5ffd5b9392505050565b6080516105566100845f395f81816082015261024c01526105565ff3fe608060405234801561000f575f5ffd5b5060043610610064575f3560e01c806382c4b3b21161004d57806382c4b3b2146100ce5780639c52a7f1146100f1578063bf353dbb14610104575f5ffd5b806365fae35e1461006857806367e828bf1461007d575b5f5ffd5b61007b6100763660046104c7565b610125565b005b6100a47f000000000000000000000000000000000000000000000000000000000000000081565b60405173ffffffffffffffffffffffffffffffffffffffff90911681526020015b60405180910390f35b6100e16100dc3660046104c7565b610205565b60405190151581526020016100c5565b61007b6100ff3660046104c7565b6102be565b6101176101123660046104c7565b610383565b6040519081526020016100c5565b604080517f27ad9db40d40315deb7c9733dae204372b3012815db31bb8e8e56d6c68d6ac2460208201523391810191909152610179906060015b604051602081830303815290604052805190602001205490565b6001146101b9576040517f4a0bfec10000000000000000000000000000000000000000000000000000000081523360048201526024015b60405180910390fd5b6101c2816103df565b60405173ffffffffffffffffffffffffffffffffffffffff8216907fdd0e34038ac38b2a1ce960229778ac48a8719bc900b6c4f8d0475c6e8b385a60905f90a250565b6040517f97f735d500000000000000000000000000000000000000000000000000000000815273ffffffffffffffffffffffffffffffffffffffff82811660048301525f917f0000000000000000000000000000000000000000000000000000000000000000909116906397f735d590602401602060405180830381865afa158015610293573d5f5f3e3d5ffd5b505050506040513d601f19601f820116820180604052508101906102b79190610501565b1592915050565b604080517f27ad9db40d40315deb7c9733dae204372b3012815db31bb8e8e56d6c68d6ac24602082015233918101919091526102fc9060600161015f565b600114610337576040517f4a0bfec10000000000000000000000000000000000000000000000000000000081523360048201526024016101b0565b61034081610455565b60405173ffffffffffffffffffffffffffffffffffffffff8216907f184450df2e323acec0ed3b5c7531b81f9b4cdef7914dfd4c0a4317416bb5251b905f90a250565b5f6103d97f27ad9db40d40315deb7c9733dae204372b3012815db31bb8e8e56d6c68d6ac248360405160200161015f92919091825273ffffffffffffffffffffffffffffffffffffffff16602082015260400190565b92915050565b6104527f27ad9db40d40315deb7c9733dae204372b3012815db31bb8e8e56d6c68d6ac248260405160200161043492919091825273ffffffffffffffffffffffffffffffffffffffff16602082015260400190565b6040516020818303038152906040528051906020012060015f1b9055565b50565b6104527f27ad9db40d40315deb7c9733dae204372b3012815db31bb8e8e56d6c68d6ac24826040516020016104aa92919091825273ffffffffffffffffffffffffffffffffffffffff16602082015260400190565b604051602081830303815290604052805190602001205f5f1b9055565b5f602082840312156104d7575f5ffd5b813573ffffffffffffffffffffffffffffffffffffffff811681146104fa575f5ffd5b9392505050565b5f60208284031215610511575f5ffd5b815180151581146104fa575f5ffdfea26469706673582212201b27a94aa0517e614dac872310afed6b717f0bd9746ccf5586d60994bf3eda7664736f6c6343000822003300000000000000000000000027f6c8289550fce67f6b50bed1f519966afe5287",
        "nonce": "0x6",
        "chainId": "0x1"
      },
      "additionalContracts": [],
      "isFixedGasLimit": false
    },
    {
      "hash": "0x566184b3f8cd3042fc2b947a71ae9c00d0d30161b4acea3ca8bfdb5072e65d56",
      "transactionType": "CREATE",
      "contractName": "MaseerProxy",
      "contractAddress": "0x794cf5948444b14105587455ebe96caace036d52",
      "function": null,
      "arguments": [
        "0x3bb8eBb11816e1C20c3Db57e2E7e5b421b159255"
      ],
      "transaction": {
        "from": "0xdeed2376ad1d9cc54e0cca449b1d7a96939120f9",
        "gas": "0x881c2",
        "value": "0x0",
        "input": "0x608060405234801561000f575f5ffd5b5060405161076738038061076783398101604081905261002e916101c9565b610039336001610051565b610042336100b7565b61004b8161011d565b506101f6565b5f7f312ed9ac9b839e579b0572e42b6b61a1d0e768aa92df633e58ace1e6a3633e79836040516020016100979291909182526001600160a01b0316602082015260400190565b604051602081830303815290604052805190602001209050818155505050565b5f7f27ad9db40d40315deb7c9733dae204372b3012815db31bb8e8e56d6c68d6ac24826040516020016100fd9291909182526001600160a01b0316602082015260400190565b604051602081830303815290604052805190602001209050600181555050565b6001600160a01b038116610144576040516318ce8b9560e31b815260040160405180910390fd5b806001600160a01b03163b5f0361016e576040516318ce8b9560e31b815260040160405180910390fd5b7f0e4c00c0fe9fb028e73dd325b95165d8884bc26853613a6b5131a12effdd8ddd8181556040516001600160a01b038316907fa2dae01a1d724d8a8b98084c4e6f990890b1d873be068e99714cfd28b4060ddb905f90a25050565b5f602082840312156101d9575f5ffd5b81516001600160a01b03811681146101ef575f5ffd5b9392505050565b610564806102035f395ff3fe608060405234801561000f575f5ffd5b5060043610610065575f3560e01c8063266a164a1161004e578063266a164a146100d957806360cd9853146100ec5780638abf60771461011257610065565b8063048046c1146100b35780630715940e146100c6575b5f61008e7f0e4c00c0fe9fb028e73dd325b95165d8884bc26853613a6b5131a12effdd8ddd5490565b9050604051365f82375f5f3683855af43d5f833e8080156100ad573d83f35b3d83fd5b005b6100b16100c13660046104f4565b61013f565b6100b16100d43660046104f4565b61018d565b6100b16100e73660046104f4565b61021c565b6100ff6100fa3660046104f4565b6102ac565b6040519081526020015b60405180910390f35b61011a6102bc565b60405173ffffffffffffffffffffffffffffffffffffffff9091168152602001610109565b610148336102ea565b600114610181576040517fea8e4eb500000000000000000000000000000000000000000000000000000000815260040160405180910390fd5b61018a8161037c565b50565b610196336102ea565b6001146101cf576040517fea8e4eb500000000000000000000000000000000000000000000000000000000815260040160405180910390fd5b6101d9815f610481565b60405173ffffffffffffffffffffffffffffffffffffffff8216907f8e066a7a19e3d1aaa91c6958a58bf4cafce6fc1ced39e50a486f94dc58a8ca05905f90a250565b610225336102ea565b60011461025e576040517fea8e4eb500000000000000000000000000000000000000000000000000000000815260040160405180910390fd5b610269816001610481565b60405173ffffffffffffffffffffffffffffffffffffffff8216907fa8dd46fe41c432577d30ef7c761e2ef822cd09c86bbfb1c24d80387c798e60a3905f90a250565b5f6102b6826102ea565b92915050565b5f6102e57f0e4c00c0fe9fb028e73dd325b95165d8884bc26853613a6b5131a12effdd8ddd5490565b905090565b5f5f7f312ed9ac9b839e579b0572e42b6b61a1d0e768aa92df633e58ace1e6a3633e798360405160200161033e92919091825273ffffffffffffffffffffffffffffffffffffffff16602082015260400190565b604080517fffffffffffffffffffffffffffffffffffffffffffffffffffffffffffffffe08184030181529190528051602090910120549392505050565b73ffffffffffffffffffffffffffffffffffffffff81166103c9576040517fc6745ca800000000000000000000000000000000000000000000000000000000815260040160405180910390fd5b8073ffffffffffffffffffffffffffffffffffffffff163b5f03610419576040517fc6745ca800000000000000000000000000000000000000000000000000000000815260040160405180910390fd5b7f0e4c00c0fe9fb028e73dd325b95165d8884bc26853613a6b5131a12effdd8ddd81815560405173ffffffffffffffffffffffffffffffffffffffff8316907fa2dae01a1d724d8a8b98084c4e6f990890b1d873be068e99714cfd28b4060ddb905f90a25050565b5f7f312ed9ac9b839e579b0572e42b6b61a1d0e768aa92df633e58ace1e6a3633e79836040516020016104d492919091825273ffffffffffffffffffffffffffffffffffffffff16602082015260400190565b604051602081830303815290604052805190602001209050818155505050565b5f60208284031215610504575f5ffd5b813573ffffffffffffffffffffffffffffffffffffffff81168114610527575f5ffd5b939250505056fea26469706673582212209f8892d92d175cc5b8fc0670073a4f63e48e463dda97929f031659d5557348ee64736f6c634300082200330000000000000000000000003bb8ebb11816e1c20c3db57e2e7e5b421b159255",
        "nonce": "0x7",
        "chainId": "0x1"
      },
      "additionalContracts": [],
      "isFixedGasLimit": false
    },
    {
      "hash": "0xaf5c9e7d22b0157bf41ec81776e2609e04e0f09bd7408a5bb1b1fc564ac90d6f",
      "transactionType": "CREATE",
      "contractName": "MaseerOne",
      "contractAddress": "0x57c3571f10767e49c9d7b60feb6c67804783b7ae",
      "function": null,
      "arguments": [
        "0x27f6c8289550fCE67f6B50BeD1F519966aFE5287",
        "0x6A79dCe61A12aa4b75449e0B03746260765D07dF",
        "0xB59cB4d3075a8ce5013C78e8Bd7aDA3Fd1300f7f",
        "0xa8F5bE8457D6ed5c659647fa8d107C3F2086626A",
        "0x794cF5948444b14105587455EbE96Caace036d52",
        "0x57C3571f10767E49C9d7b60feb6c67804783B7aE",
        "Wren Staked tGBP",
        "wstGBP"
      ],
      "transaction": {
        "from": "0xdeed2376ad1d9cc54e0cca449b1d7a96939120f9",
        "gas": "0x34dedb",
        "value": "0x0",
        "input": "0x610180604052348015610010575f5ffd5b506040516133af3803806133af83398101604081905261002f916101f5565b8181600361003d838261034b565b50600461004a828261034b565b504660a05261005761008f565b6080525050506001600160a01b0396871660c0525093851660e05291841661010052831661012052821661014052166101605261047a565b5f7f8b73c3c69bb8fe3d512ecc4cf759cc79239f7b179b0ffacaa9a75d522b39400f60036040516100c09190610409565b60408051918290038220828201825260018352603160f81b6020938401528151928301939093528101919091527fc89efdaa54c0f20c7adf612882df0950f5a951637e0307cdcb4c672f298b8bc660608201524660808201523060a082015260c00160405160208183030381529060405280519060200120905090565b80516001600160a01b0381168114610153575f5ffd5b919050565b634e487b7160e01b5f52604160045260245ffd5b5f82601f83011261017b575f5ffd5b81516001600160401b0381111561019457610194610158565b604051601f8201601f19908116603f011681016001600160401b03811182821017156101c2576101c2610158565b6040528181528382016020018510156101d9575f5ffd5b8160208501602083015e5f918101602001919091529392505050565b5f5f5f5f5f5f5f5f610100898b03121561020d575f5ffd5b6102168961013d565b975061022460208a0161013d565b965061023260408a0161013d565b955061024060608a0161013d565b945061024e60808a0161013d565b935061025c60a08a0161013d565b60c08a01519093506001600160401b03811115610277575f5ffd5b6102838b828c0161016c565b60e08b015190935090506001600160401b038111156102a0575f5ffd5b6102ac8b828c0161016c565b9150509295985092959890939650565b600181811c908216806102d057607f821691505b6020821081036102ee57634e487b7160e01b5f52602260045260245ffd5b50919050565b601f821115610346578282111561034657805f5260205f20601f840160051c602085101561031f57505f5b90810190601f840160051c035f5b81811015610342575f8382015560010161032d565b5050505b505050565b81516001600160401b0381111561036457610364610158565b6103788161037284546102bc565b846102f4565b6020601f8211600181146103aa575f83156103935750848201515b5f19600385901b1c1916600184901b178455610402565b5f84815260208120601f198516915b828110156103d957878501518255602094850194600190920191016103b9565b50848210156103f657868401515f19600387901b60f8161c191681555b505060018360011b0184555b5050505050565b5f5f8354610416816102bc565b60018216801561042d57600181146104425761046f565b60ff198316865281151582028601935061046f565b865f5260205f205f5b838110156104675781548882015260019091019060200161044b565b505081860193505b509195945050505050565b60805160a05160c05160e05161010051610120516101405161016051612e6361054c5f395f818161039701528181610946015261098701525f81816104d50152611b9501525f81816102e10152818161133601526114c301525f818161072c01528181610c8d0152818161114a0152818161160f0152818161213c0152818161223e015281816122c0015261235801525f81816106ad01526121a601525f818161052b0152818161092501528181610eac015281816110e10152611ca801525f610c3301525f610c680152612e635ff3fe608060405234801561000f575f5ffd5b50600436106102d8575f3560e01c806370a0823111610187578063ad1a2396116100dd578063d741e2f911610093578063dd62ed3e1161006e578063dd62ed3e146106f5578063ede750941461071f578063ee42b10b14610727575f5ffd5b8063d741e2f9146106a8578063daea85c5146106cf578063db006a75146106e2575f5ffd5b8063cc872b66116100c3578063cc872b661461067a578063d50256251461068d578063d505accf14610695575f5ffd5b8063ad1a2396146105c5578063beb65893146105d8575f5ffd5b806394c3cbf41161013d578063a0712d6811610118578063a0712d6814610597578063a07c7ce4146105aa578063a9059cbb146105b2575f5ffd5b806394c3cbf41461057f57806395d89b4114610587578063973efb5c1461058f575f5ffd5b80637bd2bea71161016d5780637bd2bea7146105265780637ecebe001461054d5780637f8661a11461056c575f5ffd5b806370a08231146104ff578063787a08a61461051e575f5ffd5b806326ea37991161023c5780634bf365df116101f25780635cfc1a51116101cd5780635cfc1a51146104c85780635f7efbea146104d05780636c96474f146104f7575f5ffd5b80634bf365df146104805780634d773aa61461048857806351f5d98d14610490575f5ffd5b80633644e515116102225780633644e515146104275780633f90916a1461042f57806342c4a1aa14610438575f5ffd5b806326ea379914610404578063313ce5671461040d575f5ffd5b806311da60b411610291578063219df1cc11610277578063219df1cc146103c957806323b872dd146103de578063248c11f5146103f1575f5ffd5b806311da60b4146103b957806318160ddd146103c1575f5ffd5b806306ff7a41116102c157806306ff7a4114610342578063095ea7b31461036f5780630a77bd4914610392575f5ffd5b806304d7aef2146102dc57806306fdde031461032d575b5f5ffd5b6103037f000000000000000000000000000000000000000000000000000000000000000081565b60405173ffffffffffffffffffffffffffffffffffffffff90911681526020015b60405180910390f35b61033561074e565b604051610324919061291c565b61036161035036600461296f565b5f9081526008602052604090205490565b604051908152602001610324565b61038261037d3660046129ae565b6107da565b6040519015158152602001610324565b6103037f000000000000000000000000000000000000000000000000000000000000000081565b6103616108a3565b6103615f5481565b6103dc6103d736600461296f565b6109d3565b005b6103826103ec3660046129d6565b610a65565b6103826103ff366004612a10565b610c20565b61036160075481565b610415601281565b60405160ff9091168152602001610324565b610361610c30565b61036160065481565b61036161044636600461296f565b5f908152600860205260409020600101547401000000000000000000000000000000000000000090046bffffffffffffffffffffffff1690565b610382610c8a565b610361610d18565b61030361049e36600461296f565b5f9081526008602052604090206001015473ffffffffffffffffffffffffffffffffffffffff1690565b610361610d48565b6103037f000000000000000000000000000000000000000000000000000000000000000081565b610361610d51565b61036161050d366004612a10565b60016020525f908152604090205481565b610361610d62565b6103037f000000000000000000000000000000000000000000000000000000000000000081565b61036161055b366004612a10565b60056020525f908152604090205481565b61036161057a36600461296f565b610d6b565b610361610f3a565b610335610f4b565b610361610f58565b6103616105a536600461296f565b610f61565b610382611147565b6103826105c03660046129ae565b6111b1565b6103dc6105d33660046129ae565b611308565b61063c6105e636600461296f565b60086020525f90815260409020805460019091015473ffffffffffffffffffffffffffffffffffffffff8116907401000000000000000000000000000000000000000090046bffffffffffffffffffffffff1683565b6040805193845273ffffffffffffffffffffffffffffffffffffffff90921660208401526bffffffffffffffffffffffff1690820152606001610324565b6103dc61068836600461296f565b611495565b61033561160b565b6103dc6106a3366004612a29565b6116ba565b6103037f000000000000000000000000000000000000000000000000000000000000000081565b6103826106dd366004612a10565b6117dd565b6103616106f036600461296f565b61189f565b610361610703366004612a96565b600260209081525f928352604080842090915290825290205481565b610361611b2c565b6103037f000000000000000000000000000000000000000000000000000000000000000081565b6003805461075b90612ac7565b80601f016020809104026020016040519081016040528092919081815260200182805461078790612ac7565b80156107d25780601f106107a9576101008083540402835291602001916107d2565b820191905f5260205f20905b8154815290600101906020018083116107b557829003601f168201915b505050505081565b5f336107e581611b4e565b610838576040517f4a0bfec100000000000000000000000000000000000000000000000000000000815273ffffffffffffffffffffffffffffffffffffffff821660048201526024015b60405180910390fd5b8361084281611b4e565b610890576040517f4a0bfec100000000000000000000000000000000000000000000000000000000815273ffffffffffffffffffffffffffffffffffffffff8216600482015260240161082f565b61089a8585611c00565b95945050505050565b5f336108ae81611b4e565b6108fc576040517f4a0bfec100000000000000000000000000000000000000000000000000000000815273ffffffffffffffffffffffffffffffffffffffff8216600482015260240161082f565b5f610905611c78565b60065490915080821161091b575f935050505090565b808203935061096b7f00000000000000000000000000000000000000000000000000000000000000007f000000000000000000000000000000000000000000000000000000000000000086611d26565b604051849073ffffffffffffffffffffffffffffffffffffffff7f000000000000000000000000000000000000000000000000000000000000000016907f7823e479a1a4ebe2418874847436f8a1680c5ee5b17f38bb59dbff28e1b45552905f90a350505090565b336109dd81611b4e565b610a2b576040517f4a0bfec100000000000000000000000000000000000000000000000000000000815273ffffffffffffffffffffffffffffffffffffffff8216600482015260240161082f565b610a353383611e66565b604051829033907f266ba2fe22d2b352fe1eb8c45b5d486ff3c0b83ef953959b6d34397d53fb088d905f90a35050565b5f33610a7081611b4e565b610abe576040517f4a0bfec100000000000000000000000000000000000000000000000000000000815273ffffffffffffffffffffffffffffffffffffffff8216600482015260240161082f565b84610ac881611b4e565b610b16576040517f4a0bfec100000000000000000000000000000000000000000000000000000000815273ffffffffffffffffffffffffffffffffffffffff8216600482015260240161082f565b84610b2081611b4e565b610b6e576040517f4a0bfec100000000000000000000000000000000000000000000000000000000815273ffffffffffffffffffffffffffffffffffffffff8216600482015260240161082f565b3073ffffffffffffffffffffffffffffffffffffffff871603610bbd576040517f3a49fd5c00000000000000000000000000000000000000000000000000000000815260040160405180910390fd5b73ffffffffffffffffffffffffffffffffffffffff8616610c0a576040517fea553b3400000000000000000000000000000000000000000000000000000000815260040160405180910390fd5b610c15878787611ef7565b979650505050505050565b5f610c2a82611b4e565b92915050565b5f7f00000000000000000000000000000000000000000000000000000000000000004614610c6557610c6061206f565b905090565b507f000000000000000000000000000000000000000000000000000000000000000090565b5f7f000000000000000000000000000000000000000000000000000000000000000073ffffffffffffffffffffffffffffffffffffffff16634bf365df6040518163ffffffff1660e01b8152600401602060405180830381865afa158015610cf4573d5f5f3e3d5ffd5b505050506040513d601f19601f82011682018060405250810190610c609190612b18565b5f5f610d22611c78565b90506006548111610d405780600654610d3b9190612b64565b610d42565b5f5b91505090565b5f610c60612139565b5f610c60610d5d6121a3565b61220d565b5f610c606122bd565b5f33610d7681611b4e565b610dc4576040517f4a0bfec100000000000000000000000000000000000000000000000000000000815273ffffffffffffffffffffffffffffffffffffffff8216600482015260240161082f565b5f83815260086020526040902060018101547401000000000000000000000000000000000000000090046bffffffffffffffffffffffff1642811115610e39576040517f774cceca0000000000000000000000000000000000000000000000000000000081526004810182905260240161082f565b805f03610e72576040517f9b604d0b00000000000000000000000000000000000000000000000000000000815260040160405180910390fd5b81545f610e7d611c78565b9050808210610e8c5780610e8e565b815b600680548290039055845481900385556001850154909650610ee8907f00000000000000000000000000000000000000000000000000000000000000009073ffffffffffffffffffffffffffffffffffffffff1688611d26565b6001840154604051879173ffffffffffffffffffffffffffffffffffffffff169089907f786e090d783caced3baddcb29bd555ffb93faf484529ab87feab4ec4c48a81e1905f90a45050505050919050565b5f610c60610f466121a3565b612327565b6004805461075b90612ac7565b5f610c606121a3565b5f610f6a610c8a565b610fa0576040517f0b5f6bf000000000000000000000000000000000000000000000000000000000815260040160405180910390fd5b33610faa81611b4e565b610ff8576040517f4a0bfec100000000000000000000000000000000000000000000000000000000815273ffffffffffffffffffffffffffffffffffffffff8216600482015260240161082f565b5f6110016121a3565b9050805f0361103b576040517ebfc92100000000000000000000000000000000000000000000000000000000815260040160405180910390fd5b61104481612327565b905080841015611083576040517fa4a050250000000000000000000000000000000000000000000000000000000081526004810182905260240161082f565b61108d848261239c565b9250611097612139565b835f546110a49190612b77565b11156110dc576040517f2edaff4300000000000000000000000000000000000000000000000000000000815260040160405180910390fd5b6111087f00000000000000000000000000000000000000000000000000000000000000003330876123c1565b611112338461250a565b6040518390829033907f58781ca443f8e3ecffad28c83044b16c6e549d8e9c677aebb3b8ee176f99f53f905f90a45050919050565b5f7f000000000000000000000000000000000000000000000000000000000000000073ffffffffffffffffffffffffffffffffffffffff1663a07c7ce46040518163ffffffff1660e01b8152600401602060405180830381865afa158015610cf4573d5f5f3e3d5ffd5b5f336111bc81611b4e565b61120a576040517f4a0bfec100000000000000000000000000000000000000000000000000000000815273ffffffffffffffffffffffffffffffffffffffff8216600482015260240161082f565b8361121481611b4e565b611262576040517f4a0bfec100000000000000000000000000000000000000000000000000000000815273ffffffffffffffffffffffffffffffffffffffff8216600482015260240161082f565b3073ffffffffffffffffffffffffffffffffffffffff8616036112b1576040517f3a49fd5c00000000000000000000000000000000000000000000000000000000815260040160405180910390fd5b73ffffffffffffffffffffffffffffffffffffffff85166112fe576040517fea553b3400000000000000000000000000000000000000000000000000000000815260040160405180910390fd5b61089a8585612578565b6040517f5711caaf0000000000000000000000000000000000000000000000000000000081523360048201527f000000000000000000000000000000000000000000000000000000000000000073ffffffffffffffffffffffffffffffffffffffff1690635711caaf90602401602060405180830381865afa158015611390573d5f5f3e3d5ffd5b505050506040513d601f19601f820116820180604052508101906113b49190612b18565b6113ec576040517f4a0bfec100000000000000000000000000000000000000000000000000000000815233600482015260240161082f565b336113f681611b4e565b611444576040517f4a0bfec100000000000000000000000000000000000000000000000000000000815273ffffffffffffffffffffffffffffffffffffffff8216600482015260240161082f565b61144e8383611e66565b604051829073ffffffffffffffffffffffffffffffffffffffff8516907f266ba2fe22d2b352fe1eb8c45b5d486ff3c0b83ef953959b6d34397d53fb088d905f90a3505050565b6040517f5711caaf0000000000000000000000000000000000000000000000000000000081523360048201527f000000000000000000000000000000000000000000000000000000000000000073ffffffffffffffffffffffffffffffffffffffff1690635711caaf90602401602060405180830381865afa15801561151d573d5f5f3e3d5ffd5b505050506040513d601f19601f820116820180604052508101906115419190612b18565b611579576040517f4a0bfec100000000000000000000000000000000000000000000000000000000815233600482015260240161082f565b3361158381611b4e565b6115d1576040517f4a0bfec100000000000000000000000000000000000000000000000000000000815273ffffffffffffffffffffffffffffffffffffffff8216600482015260240161082f565b6115db338361250a565b604051829033907fa59f12e354e8cd10bb74c559844c2dd69a5458e31fe56c7594c62ca57480509a905f90a35050565b60607f000000000000000000000000000000000000000000000000000000000000000073ffffffffffffffffffffffffffffffffffffffff1663d50256256040518163ffffffff1660e01b81526004015f60405180830381865afa158015611675573d5f5f3e3d5ffd5b505050506040513d5f823e601f3d9081017fffffffffffffffffffffffffffffffffffffffffffffffffffffffffffffffe0168201604052610c609190810190612bb7565b336116c481611b4e565b611712576040517f4a0bfec100000000000000000000000000000000000000000000000000000000815273ffffffffffffffffffffffffffffffffffffffff8216600482015260240161082f565b8761171c81611b4e565b61176a576040517f4a0bfec100000000000000000000000000000000000000000000000000000000815273ffffffffffffffffffffffffffffffffffffffff8216600482015260240161082f565b8761177481611b4e565b6117c2576040517f4a0bfec100000000000000000000000000000000000000000000000000000000815273ffffffffffffffffffffffffffffffffffffffff8216600482015260240161082f565b6117d18a8a8a8a8a8a8a6125fb565b50505050505050505050565b5f336117e881611b4e565b611836576040517f4a0bfec100000000000000000000000000000000000000000000000000000000815273ffffffffffffffffffffffffffffffffffffffff8216600482015260240161082f565b8261184081611b4e565b61188e576040517f4a0bfec100000000000000000000000000000000000000000000000000000000815273ffffffffffffffffffffffffffffffffffffffff8216600482015260240161082f565b611897846128dd565b949350505050565b5f6118a8611147565b6118de576040517f0b5f6bf000000000000000000000000000000000000000000000000000000000815260040160405180910390fd5b336118e881611b4e565b611936576040517f4a0bfec100000000000000000000000000000000000000000000000000000000815273ffffffffffffffffffffffffffffffffffffffff8216600482015260240161082f565b670de0b6b3a7640000831015611982576040517fa4a05025000000000000000000000000000000000000000000000000000000008152670de0b6b3a7640000600482015260240161082f565b5f61198b6121a3565b9050805f036119c5576040517ebfc92100000000000000000000000000000000000000000000000000000000815260040160405180910390fd5b6119ce8161220d565b90505f6119db8583612908565b90508060065f8282546119ee9190612b77565b909155505060078054905f611a0283612ca7565b9190505593505f611a116122bd565b611a1b9042612b77565b604080516060810182528481523360208083018281526bffffffffffffffffffffffff8087168587019081525f8d81526008909452959092209351845551935116740100000000000000000000000000000000000000000273ffffffffffffffffffffffffffffffffffffffff9390931692909217600190910155909150611aa39087611e66565b3373ffffffffffffffffffffffffffffffffffffffff16816bffffffffffffffffffffffff16867f5a084092180e1b482afdddc2a20027f4d3619225151fb1a9934c119cd7307f3285604051611afb91815260200190565b60405180910390a442816bffffffffffffffffffffffff1603611b2357611b2185610d6b565b505b50505050919050565b5f5f611b36611c78565b90506006548110610d4057600654610d3b9082612b64565b6040517f82c4b3b200000000000000000000000000000000000000000000000000000000815273ffffffffffffffffffffffffffffffffffffffff82811660048301525f917f0000000000000000000000000000000000000000000000000000000000000000909116906382c4b3b290602401602060405180830381865afa158015611bdc573d5f5f3e3d5ffd5b505050506040513d601f19601f82011682018060405250810190610c2a9190612b18565b335f81815260026020908152604080832073ffffffffffffffffffffffffffffffffffffffff8716808552925280832085905551919290917f8c5be1e5ebec7d5bd14f71427d1e84f3dd0314c0f7b2291e5b200ac8c7c3b92590611c679086815260200190565b60405180910390a350600192915050565b6040517f70a082310000000000000000000000000000000000000000000000000000000081523060048201525f907f000000000000000000000000000000000000000000000000000000000000000073ffffffffffffffffffffffffffffffffffffffff16906370a0823190602401602060405180830381865afa158015611d02573d5f5f3e3d5ffd5b505050506040513d601f19601f82011682018060405250810190610c609190612cde565b6040805173ffffffffffffffffffffffffffffffffffffffff8481166024830152604480830185905283518084039091018152606490920183526020820180517bffffffffffffffffffffffffffffffffffffffffffffffffffffffff167fa9059cbb0000000000000000000000000000000000000000000000000000000017905291515f92839290871691611dbc9190612cf5565b5f604051808303815f865af19150503d805f8114611df5576040519150601f19603f3d011682016040523d82523d5f602084013e611dfa565b606091505b5091509150811580611e2857505f8151118015611e28575080806020019051810190611e269190612b18565b155b15611e5f576040517f90b8ec1800000000000000000000000000000000000000000000000000000000815260040160405180910390fd5b5050505050565b73ffffffffffffffffffffffffffffffffffffffff82165f9081526001602052604081208054839290611e9a908490612b64565b90915550505f8054829003815560405182815273ffffffffffffffffffffffffffffffffffffffff8416907fddf252ad1be2c89b69c2b068fc378daa952ba7f163c4a11628f55a4df523b3ef906020015b60405180910390a35050565b73ffffffffffffffffffffffffffffffffffffffff83165f9081526002602090815260408083203384529091528120547fffffffffffffffffffffffffffffffffffffffffffffffffffffffffffffffff8114611f8957611f588382612b64565b73ffffffffffffffffffffffffffffffffffffffff86165f9081526002602090815260408083203384529091529020555b73ffffffffffffffffffffffffffffffffffffffff85165f9081526001602052604081208054859290611fbd908490612b64565b909155505073ffffffffffffffffffffffffffffffffffffffff84165f9081526001602052604081208054859290611ff6908490612b77565b925050819055508373ffffffffffffffffffffffffffffffffffffffff168573ffffffffffffffffffffffffffffffffffffffff167fddf252ad1be2c89b69c2b068fc378daa952ba7f163c4a11628f55a4df523b3ef8560405161205c91815260200190565b60405180910390a3506001949350505050565b5f7f8b73c3c69bb8fe3d512ecc4cf759cc79239f7b179b0ffacaa9a75d522b39400f60036040516120a09190612d0b565b604080519182900382208282018252600183527f31000000000000000000000000000000000000000000000000000000000000006020938401528151928301939093528101919091527fc89efdaa54c0f20c7adf612882df0950f5a951637e0307cdcb4c672f298b8bc660608201524660808201523060a082015260c00160405160208183030381529060405280519060200120905090565b5f7f000000000000000000000000000000000000000000000000000000000000000073ffffffffffffffffffffffffffffffffffffffff16635cfc1a516040518163ffffffff1660e01b8152600401602060405180830381865afa158015611d02573d5f5f3e3d5ffd5b5f7f000000000000000000000000000000000000000000000000000000000000000073ffffffffffffffffffffffffffffffffffffffff166357de26a46040518163ffffffff1660e01b8152600401602060405180830381865afa158015611d02573d5f5f3e3d5ffd5b6040517fef86cf56000000000000000000000000000000000000000000000000000000008152600481018290525f907f000000000000000000000000000000000000000000000000000000000000000073ffffffffffffffffffffffffffffffffffffffff169063ef86cf56906024015b602060405180830381865afa158015612299573d5f5f3e3d5ffd5b505050506040513d601f19601f82011682018060405250810190610c2a9190612cde565b5f7f000000000000000000000000000000000000000000000000000000000000000073ffffffffffffffffffffffffffffffffffffffff1663787a08a66040518163ffffffff1660e01b8152600401602060405180830381865afa158015611d02573d5f5f3e3d5ffd5b6040517f5c4f46ed000000000000000000000000000000000000000000000000000000008152600481018290525f907f000000000000000000000000000000000000000000000000000000000000000073ffffffffffffffffffffffffffffffffffffffff1690635c4f46ed9060240161227e565b5f816123b0670de0b6b3a764000085612dde565b6123ba9190612df5565b9392505050565b6040805173ffffffffffffffffffffffffffffffffffffffff85811660248301528481166044830152606480830185905283518084039091018152608490920183526020820180517bffffffffffffffffffffffffffffffffffffffffffffffffffffffff167f23b872dd0000000000000000000000000000000000000000000000000000000017905291515f9283929088169161245f9190612cf5565b5f604051808303815f865af19150503d805f8114612498576040519150601f19603f3d011682016040523d82523d5f602084013e61249d565b606091505b50915091508115806124cb57505f81511180156124cb5750808060200190518101906124c99190612b18565b155b15612502576040517f90b8ec1800000000000000000000000000000000000000000000000000000000815260040160405180910390fd5b505050505050565b805f5f82825461251a9190612b77565b909155505073ffffffffffffffffffffffffffffffffffffffff82165f818152600160209081526040808320805486019055518481527fddf252ad1be2c89b69c2b068fc378daa952ba7f163c4a11628f55a4df523b3ef9101611eeb565b335f90815260016020526040812080548391908390612598908490612b64565b909155505073ffffffffffffffffffffffffffffffffffffffff83165f81815260016020526040908190208054850190555133907fddf252ad1be2c89b69c2b068fc378daa952ba7f163c4a11628f55a4df523b3ef90611c679086815260200190565b4284101561263e576040517fc4773cba0000000000000000000000000000000000000000000000000000000081526004810185905242602482015260440161082f565b5f6001612649610c30565b73ffffffffffffffffffffffffffffffffffffffff8a81165f8181526005602090815260409182902080546001810190915582517f6e71edae12b1b97f4d1f60370fef10105fa2faae0126114a169c64845d6126c98184015280840194909452938d166060840152608083018c905260a083019390935260c08083018b90528151808403909101815260e0830190915280519201919091207f190100000000000000000000000000000000000000000000000000000000000061010083015261010282019290925261012281019190915261014201604080517fffffffffffffffffffffffffffffffffffffffffffffffffffffffffffffffe081840301815282825280516020918201205f84529083018083525260ff871690820152606081018590526080810184905260a0016020604051602081039080840390855afa158015612797573d5f5f3e3d5ffd5b50506040517fffffffffffffffffffffffffffffffffffffffffffffffffffffffffffffffe0015191505073ffffffffffffffffffffffffffffffffffffffff8116158061281157508773ffffffffffffffffffffffffffffffffffffffff168173ffffffffffffffffffffffffffffffffffffffff1614155b15612868576040517f7ba5ffb500000000000000000000000000000000000000000000000000000000815273ffffffffffffffffffffffffffffffffffffffff80831660048301528916602482015260440161082f565b73ffffffffffffffffffffffffffffffffffffffff9081165f9081526002602090815260408083208a8516808552908352928190208990555188815291928a16917f8c5be1e5ebec7d5bd14f71427d1e84f3dd0314c0f7b2291e5b200ac8c7c3b925910160405180910390a350505050505050565b5f610c2a827fffffffffffffffffffffffffffffffffffffffffffffffffffffffffffffffff6107da565b5f670de0b6b3a76400006123b08385612dde565b602081525f82518060208401528060208501604085015e5f6040828501015260407fffffffffffffffffffffffffffffffffffffffffffffffffffffffffffffffe0601f83011684010191505092915050565b5f6020828403121561297f575f5ffd5b5035919050565b803573ffffffffffffffffffffffffffffffffffffffff811681146129a9575f5ffd5b919050565b5f5f604083850312156129bf575f5ffd5b6129c883612986565b946020939093013593505050565b5f5f5f606084860312156129e8575f5ffd5b6129f184612986565b92506129ff60208501612986565b929592945050506040919091013590565b5f60208284031215612a20575f5ffd5b6123ba82612986565b5f5f5f5f5f5f5f60e0888a031215612a3f575f5ffd5b612a4888612986565b9650612a5660208901612986565b95506040880135945060608801359350608088013560ff81168114612a79575f5ffd5b9699959850939692959460a0840135945060c09093013592915050565b5f5f60408385031215612aa7575f5ffd5b612ab083612986565b9150612abe60208401612986565b90509250929050565b600181811c90821680612adb57607f821691505b602082108103612b12577f4e487b71000000000000000000000000000000000000000000000000000000005f52602260045260245ffd5b50919050565b5f60208284031215612b28575f5ffd5b815180151581146123ba575f5ffd5b7f4e487b71000000000000000000000000000000000000000000000000000000005f52601160045260245ffd5b81810381811115610c2a57610c2a612b37565b80820180821115610c2a57610c2a612b37565b7f4e487b71000000000000000000000000000000000000000000000000000000005f52604160045260245ffd5b5f60208284031215612bc7575f5ffd5b815167ffffffffffffffff811115612bdd575f5ffd5b8201601f81018413612bed575f5ffd5b805167ffffffffffffffff811115612c0757612c07612b8a565b6040517fffffffffffffffffffffffffffffffffffffffffffffffffffffffffffffffe0603f7fffffffffffffffffffffffffffffffffffffffffffffffffffffffffffffffe0601f8501160116810181811067ffffffffffffffff82111715612c7357612c73612b8a565b604052818152828201602001861015612c8a575f5ffd5b8160208401602083015e5f91810160200191909152949350505050565b5f7fffffffffffffffffffffffffffffffffffffffffffffffffffffffffffffffff8203612cd757612cd7612b37565b5060010190565b5f60208284031215612cee575f5ffd5b5051919050565b5f82518060208501845e5f920191825250919050565b5f5f83545f8160011c90506001821680612d2657607f821691505b602082108103612d5d577f4e487b71000000000000000000000000000000000000000000000000000000005f52602260045260245ffd5b808015612d715760018114612da457612dd2565b7fffffffffffffffffffffffffffffffffffffffffffffffffffffffffffffff0084168752821515830287019450612dd2565b5f888152602090205f5b84811015612dca57815489820152600190910190602001612dae565b505082870194505b50929695505050505050565b8082028115828204841417610c2a57610c2a612b37565b5f82612e28577f4e487b71000000000000000000000000000000000000000000000000000000005f52601260045260245ffd5b50049056fea2646970667358221220056da0b4af3782eb0a70f7c4ad4d5190e0ac5f313a461b0735720ba25562a63464736f6c6343000822003300000000000000000000000027f6c8289550fce67f6b50bed1f519966afe52870000000000000000000000006a79dce61a12aa4b75449e0b03746260765d07df000000000000000000000000b59cb4d3075a8ce5013c78e8bd7ada3fd1300f7f000000000000000000000000a8f5be8457d6ed5c659647fa8d107c3f2086626a000000000000000000000000794cf5948444b14105587455ebe96caace036d5200000000000000000000000057c3571f10767e49c9d7b60feb6c67804783b7ae0000000000000000000000000000000000000000000000000000000000000100000000000000000000000000000000000000000000000000000000000000014000000000000000000000000000000000000000000000000000000000000000105772656e205374616b656420744742500000000000000000000000000000000000000000000000000000000000000000000000000000000000000000000000067773744742500000000000000000000000000000000000000000000000000000",
        "nonce": "0x8",
        "chainId": "0x1"
      },
      "additionalContracts": [],
      "isFixedGasLimit": false
    },
    {
      "hash": "0x6eb7e987b396c65d90f0ad473cadf465b1c4fb944ed53c2901f3676f9188c581",
      "transactionType": "CALL",
      "contractName": "MaseerProxy",
      "contractAddress": "0x6a79dce61a12aa4b75449e0b03746260765d07df",
      "function": null,
      "arguments": null,
      "transaction": {
        "from": "0xdeed2376ad1d9cc54e0cca449b1d7a96939120f9",
        "to": "0x6a79dce61a12aa4b75449e0b03746260765d07df",
        "gas": "0x1326a",
        "value": "0x0",
        "input": "0xe9b674b96e616d65000000000000000000000000000000000000000000000000000000007773744742507447425000000000000000000000000000000000000000000000",
        "nonce": "0x9",
        "chainId": "0x1"
      },
      "additionalContracts": [],
      "isFixedGasLimit": false
    },
    {
      "hash": "0x3f13ae328c7bfde7d856123058117982cbbbb29c459571c148168fdc6d9c4361",
      "transactionType": "CALL",
      "contractName": "MaseerProxy",
      "contractAddress": "0x6a79dce61a12aa4b75449e0b03746260765d07df",
      "function": null,
      "arguments": null,
      "transaction": {
        "from": "0xdeed2376ad1d9cc54e0cca449b1d7a96939120f9",
        "to": "0x6a79dce61a12aa4b75449e0b03746260765d07df",
        "gas": "0x11c70",
        "value": "0x0",
        "input": "0xe9b674b9646563696d616c730000000000000000000000000000000000000000000000000000000000000000000000000000000000000000000000000000000000000012",
        "nonce": "0xa",
        "chainId": "0x1"
      },
      "additionalContracts": [],
      "isFixedGasLimit": false
    },
    {
      "hash": "0xe11489a98f56f2cd7822e9d4f0fcfc38c5efc5f885431b8c8b76ec7645edf44b",
      "transactionType": "CALL",
      "contractName": "MaseerProxy",
      "contractAddress": "0x6a79dce61a12aa4b75449e0b03746260765d07df",
      "function": null,
      "arguments": null,
      "transaction": {
        "from": "0xdeed2376ad1d9cc54e0cca449b1d7a96939120f9",
        "to": "0x6a79dce61a12aa4b75449e0b03746260765d07df",
        "gas": "0x135bc",
        "value": "0x0",
        "input": "0xe9b674b970726963650000000000000000000000000000000000000000000000000000000000000000000000000000000000000000000000000000000de0b6b3a7640000",
        "nonce": "0xb",
        "chainId": "0x1"
      },
      "additionalContracts": [],
      "isFixedGasLimit": false
    },
    {
      "hash": "0x256559c414f2e49e06b1bac425e8231a228556b5089cba1f95a6f924adbdf518",
      "transactionType": "CALL",
      "contractName": "MaseerProxy",
      "contractAddress": "0x6a79dce61a12aa4b75449e0b03746260765d07df",
      "function": null,
      "arguments": null,
      "transaction": {
        "from": "0xdeed2376ad1d9cc54e0cca449b1d7a96939120f9",
        "to": "0x6a79dce61a12aa4b75449e0b03746260765d07df",
        "gas": "0x11ab3",
        "value": "0x0",
        "input": "0xf29c29c4000000000000000000000000a73c94969de90edb159d29922c42ff24bedfa085",
        "nonce": "0xc",
        "chainId": "0x1"
      },
      "additionalContracts": [],
      "isFixedGasLimit": false
    },
    {
      "hash": "0x32c83da2ff75061631e305e5f68ed17a8cb8d32df3e77d0e28e40b5fbaa15321",
      "transactionType": "CALL",
      "contractName": "MaseerProxy",
      "contractAddress": "0x6a79dce61a12aa4b75449e0b03746260765d07df",
      "function": null,
      "arguments": null,
      "transaction": {
        "from": "0xdeed2376ad1d9cc54e0cca449b1d7a96939120f9",
        "to": "0x6a79dce61a12aa4b75449e0b03746260765d07df",
        "gas": "0x11b48",
        "value": "0x0",
        "input": "0x65fae35e000000000000000000000000a73c94969de90edb159d29922c42ff24bedfa085",
        "nonce": "0xd",
        "chainId": "0x1"
      },
      "additionalContracts": [],
      "isFixedGasLimit": false
    },
    {
      "hash": "0x9e5bc6cae0bc126f9a1a3387b0ae66ab6b8f6dc32f58927e3364f75f721bb8f2",
      "transactionType": "CALL",
      "contractName": "MaseerProxy",
      "contractAddress": "0x6a79dce61a12aa4b75449e0b03746260765d07df",
      "function": "relyProxy(address)",
      "arguments": [
        "0xa73c94969dE90Edb159D29922C42fF24beDFA085"
      ],
      "transaction": {
        "from": "0xdeed2376ad1d9cc54e0cca449b1d7a96939120f9",
        "to": "0x6a79dce61a12aa4b75449e0b03746260765d07df",
        "gas": "0x10f72",
        "value": "0x0",
        "input": "0x266a164a000000000000000000000000a73c94969de90edb159d29922c42ff24bedfa085",
        "nonce": "0xe",
        "chainId": "0x1"
      },
      "additionalContracts": [],
      "isFixedGasLimit": false
    },
    {
      "hash": "0x1471789f82f6749d2b785a887457dd39b6825a07ad398537684de67992b55227",
      "transactionType": "CALL",
      "contractName": "MaseerProxy",
      "contractAddress": "0xb59cb4d3075a8ce5013c78e8bd7ada3fd1300f7f",
      "function": null,
      "arguments": null,
      "transaction": {
        "from": "0xdeed2376ad1d9cc54e0cca449b1d7a96939120f9",
        "to": "0xb59cb4d3075a8ce5013c78e8bd7ada3fd1300f7f",
        "gas": "0xb753",
        "value": "0x0",
        "input": "0x4fc3f41a0000000000000000000000000000000000000000000000000000000000000000",
        "nonce": "0xf",
        "chainId": "0x1"
      },
      "additionalContracts": [],
      "isFixedGasLimit": false
    },
    {
      "hash": "0x5dfcea7358bc541d7a571aebb89d80702bcc5419b404c891fa21dd9ad5f6d40c",
      "transactionType": "CALL",
      "contractName": "MaseerProxy",
      "contractAddress": "0xb59cb4d3075a8ce5013c78e8bd7ada3fd1300f7f",
      "function": null,
      "arguments": null,
      "transaction": {
        "from": "0xdeed2376ad1d9cc54e0cca449b1d7a96939120f9",
        "to": "0xb59cb4d3075a8ce5013c78e8bd7ada3fd1300f7f",
        "gas": "0x11aad",
        "value": "0x0",
        "input": "0x91915ef8ffffffffffffffffffffffffffffffffffffffffffffffffffffffffffffffff",
        "nonce": "0x10",
        "chainId": "0x1"
      },
      "additionalContracts": [],
      "isFixedGasLimit": false
    },
    {
      "hash": "0xd3b20ece138ccf71bf0ca8b43f5f14ed2e31ef22aaf7f7f2af1387a64d849a00",
      "transactionType": "CALL",
      "contractName": "MaseerProxy",
      "contractAddress": "0xb59cb4d3075a8ce5013c78e8bd7ada3fd1300f7f",
      "function": null,
      "arguments": null,
      "transaction": {
        "from": "0xdeed2376ad1d9cc54e0cca449b1d7a96939120f9",
        "to": "0xb59cb4d3075a8ce5013c78e8bd7ada3fd1300f7f",
        "gas": "0xad42",
        "value": "0x0",
        "input": "0x59361d8e0000000000000000000000000000000000000000000000000000000000000000",
        "nonce": "0x11",
        "chainId": "0x1"
      },
      "additionalContracts": [],
      "isFixedGasLimit": false
    },
    {
      "hash": "0x79aab291cd862913b0d8a6a56bbd4a45c42632a5a3c1792ad1ac632225e8a9d0",
      "transactionType": "CALL",
      "contractName": "MaseerProxy",
      "contractAddress": "0xb59cb4d3075a8ce5013c78e8bd7ada3fd1300f7f",
      "function": null,
      "arguments": null,
      "transaction": {
        "from": "0xdeed2376ad1d9cc54e0cca449b1d7a96939120f9",
        "to": "0xb59cb4d3075a8ce5013c78e8bd7ada3fd1300f7f",
        "gas": "0x118ce",
        "value": "0x0",
        "input": "0x71ebdf4e0000000000000000000000000000000000000000000000000000000000000019",
        "nonce": "0x12",
        "chainId": "0x1"
      },
      "additionalContracts": [],
      "isFixedGasLimit": false
    },
    {
      "hash": "0x9da80fa1019d91587d734a9e3948dfc3bf0d7cee9c6bc2bb5c429ee029400e1b",
      "transactionType": "CALL",
      "contractName": "MaseerProxy",
      "contractAddress": "0xb59cb4d3075a8ce5013c78e8bd7ada3fd1300f7f",
      "function": null,
      "arguments": null,
      "transaction": {
        "from": "0xdeed2376ad1d9cc54e0cca449b1d7a96939120f9",
        "to": "0xb59cb4d3075a8ce5013c78e8bd7ada3fd1300f7f",
        "gas": "0xabbe",
        "value": "0x0",
        "input": "0x78f86afc00000000000000000000000000000000000000000000000000000000000000200000000000000000000000000000000000000000000000000000000000000000",
        "nonce": "0x13",
        "chainId": "0x1"
      },
      "additionalContracts": [],
      "isFixedGasLimit": false
    },
    {
      "hash": "0xeabb4faed583fb10518cecc574a08aaabd60df577b47f6552b9445c1b0f38c05",
      "transactionType": "CALL",
      "contractName": "MaseerProxy",
      "contractAddress": "0xb59cb4d3075a8ce5013c78e8bd7ada3fd1300f7f",
      "function": null,
      "arguments": null,
      "transaction": {
        "from": "0xdeed2376ad1d9cc54e0cca449b1d7a96939120f9",
        "to": "0xb59cb4d3075a8ce5013c78e8bd7ada3fd1300f7f",
        "gas": "0x1197e",
        "value": "0x0",
        "input": "0xfbd252460000000000000000000000000000000000000000000000000000000069d9781f",
        "nonce": "0x14",
        "chainId": "0x1"
      },
      "additionalContracts": [],
      "isFixedGasLimit": false
    },
    {
      "hash": "0x6264a4af3aea1c9ab1726ee5d42fd82d881c2db4cd162027d471041663268230",
      "transactionType": "CALL",
      "contractName": "MaseerProxy",
      "contractAddress": "0xb59cb4d3075a8ce5013c78e8bd7ada3fd1300f7f",
      "function": null,
      "arguments": null,
      "transaction": {
        "from": "0xdeed2376ad1d9cc54e0cca449b1d7a96939120f9",
        "to": "0xb59cb4d3075a8ce5013c78e8bd7ada3fd1300f7f",
        "gas": "0x11c4c",
        "value": "0x0",
        "input": "0x29ae811468616c746d696e74000000000000000000000000000000000000000000000000ffffffffffffffffffffffffffffffffffffffffffffffffffffffffffffffff",
        "nonce": "0x15",
        "chainId": "0x1"
      },
      "additionalContracts": [],
      "isFixedGasLimit": false
    },
    {
      "hash": "0xb5705c476e96d33a0bfe1b0991a35a98b2b01a4350d6a13870b25247a8007998",
      "transactionType": "CALL",
      "contractName": "MaseerProxy",
      "contractAddress": "0xb59cb4d3075a8ce5013c78e8bd7ada3fd1300f7f",
      "function": null,
      "arguments": null,
      "transaction": {
        "from": "0xdeed2376ad1d9cc54e0cca449b1d7a96939120f9",
        "to": "0xb59cb4d3075a8ce5013c78e8bd7ada3fd1300f7f",
        "gas": "0x118dd",
        "value": "0x0",
        "input": "0x1447cdf90000000000000000000000000000000000000000000000000000000069d9781f",
        "nonce": "0x16",
        "chainId": "0x1"
      },
      "additionalContracts": [],
      "isFixedGasLimit": false
    },
    {
      "hash": "0x08e01b0377beeb72fbb41cfc4e79884016dfe72b910f4e37259d5dcd0b90c5b2",
      "transactionType": "CALL",
      "contractName": "MaseerProxy",
      "contractAddress": "0xb59cb4d3075a8ce5013c78e8bd7ada3fd1300f7f",
      "function": null,
      "arguments": null,
      "transaction": {
        "from": "0xdeed2376ad1d9cc54e0cca449b1d7a96939120f9",
        "to": "0xb59cb4d3075a8ce5013c78e8bd7ada3fd1300f7f",
        "gas": "0x12d49",
        "value": "0x0",
        "input": "0x29ae811468616c746275726e000000000000000000000000000000000000000000000000ffffffffffffffffffffffffffffffffffffffffffffffffffffffffffffffff",
        "nonce": "0x17",
        "chainId": "0x1"
      },
      "additionalContracts": [],
      "isFixedGasLimit": false
    },
    {
      "hash": "0x483889fba959656c001a100c9aeccee537bad4e65d6c51d8815c537a61bd18c1",
      "transactionType": "CALL",
      "contractName": "MaseerProxy",
      "contractAddress": "0xb59cb4d3075a8ce5013c78e8bd7ada3fd1300f7f",
      "function": null,
      "arguments": null,
      "transaction": {
        "from": "0xdeed2376ad1d9cc54e0cca449b1d7a96939120f9",
        "to": "0xb59cb4d3075a8ce5013c78e8bd7ada3fd1300f7f",
        "gas": "0x11b48",
        "value": "0x0",
        "input": "0x65fae35e000000000000000000000000a73c94969de90edb159d29922c42ff24bedfa085",
        "nonce": "0x18",
        "chainId": "0x1"
      },
      "additionalContracts": [],
      "isFixedGasLimit": false
    },
    {
      "hash": "0x6ff83aad6eda05b06789b74f78792b87ba055a958439c28a99c0fe63162f8391",
      "transactionType": "CALL",
      "contractName": "MaseerProxy",
      "contractAddress": "0xb59cb4d3075a8ce5013c78e8bd7ada3fd1300f7f",
      "function": "relyProxy(address)",
      "arguments": [
        "0xa73c94969dE90Edb159D29922C42fF24beDFA085"
      ],
      "transaction": {
        "from": "0xdeed2376ad1d9cc54e0cca449b1d7a96939120f9",
        "to": "0xb59cb4d3075a8ce5013c78e8bd7ada3fd1300f7f",
        "gas": "0x10f72",
        "value": "0x0",
        "input": "0x266a164a000000000000000000000000a73c94969de90edb159d29922c42ff24bedfa085",
        "nonce": "0x19",
        "chainId": "0x1"
      },
      "additionalContracts": [],
      "isFixedGasLimit": false
    },
    {
      "hash": "0x1d4bb483c656822f1ad2b15eb36abe5cf230efaa2b0ce1f10a0bfc5912442630",
      "transactionType": "CALL",
      "contractName": "MaseerProxy",
      "contractAddress": "0xa8f5be8457d6ed5c659647fa8d107c3f2086626a",
      "function": null,
      "arguments": null,
      "transaction": {
        "from": "0xdeed2376ad1d9cc54e0cca449b1d7a96939120f9",
        "to": "0xa8f5be8457d6ed5c659647fa8d107c3f2086626a",
        "gas": "0x11b1b",
        "value": "0x0",
        "input": "0x65fae35e000000000000000000000000a73c94969de90edb159d29922c42ff24bedfa085",
        "nonce": "0x1a",
        "chainId": "0x1"
      },
      "additionalContracts": [],
      "isFixedGasLimit": false
    },
    {
      "hash": "0x429e39207f03b8ea6589ae0f660f8467e517955f375687de37cb0d51e657aed9",
      "transactionType": "CALL",
      "contractName": "MaseerProxy",
      "contractAddress": "0xa8f5be8457d6ed5c659647fa8d107c3f2086626a",
      "function": null,
      "arguments": null,
      "transaction": {
        "from": "0xdeed2376ad1d9cc54e0cca449b1d7a96939120f9",
        "to": "0xa8f5be8457d6ed5c659647fa8d107c3f2086626a",
        "gas": "0x11b38",
        "value": "0x0",
        "input": "0xbc0505f0000000000000000000000000a73c94969de90edb159d29922c42ff24bedfa085",
        "nonce": "0x1b",
        "chainId": "0x1"
      },
      "additionalContracts": [],
      "isFixedGasLimit": false
    },
    {
      "hash": "0xe37c5a46bc4aefe7880f68811cd1a253e620bebb1de691f9bcd74100e4fb3bd2",
      "transactionType": "CALL",
      "contractName": "MaseerProxy",
      "contractAddress": "0xa8f5be8457d6ed5c659647fa8d107c3f2086626a",
      "function": "relyProxy(address)",
      "arguments": [
        "0xa73c94969dE90Edb159D29922C42fF24beDFA085"
      ],
      "transaction": {
        "from": "0xdeed2376ad1d9cc54e0cca449b1d7a96939120f9",
        "to": "0xa8f5be8457d6ed5c659647fa8d107c3f2086626a",
        "gas": "0x10f72",
        "value": "0x0",
        "input": "0x266a164a000000000000000000000000a73c94969de90edb159d29922c42ff24bedfa085",
        "nonce": "0x1c",
        "chainId": "0x1"
      },
      "additionalContracts": [],
      "isFixedGasLimit": false
    },
    {
      "hash": "0xb74429f88655839bd4a0ed105268598b6f94471b2343300cedf17120e0e1417f",
      "transactionType": "CALL",
      "contractName": "MaseerProxy",
      "contractAddress": "0x794cf5948444b14105587455ebe96caace036d52",
      "function": null,
      "arguments": null,
      "transaction": {
        "from": "0xdeed2376ad1d9cc54e0cca449b1d7a96939120f9",
        "to": "0x794cf5948444b14105587455ebe96caace036d52",
        "gas": "0x12ba2",
        "value": "0x0",
        "input": "0x65fae35e000000000000000000000000a73c94969de90edb159d29922c42ff24bedfa085",
        "nonce": "0x1d",
        "chainId": "0x1"
      },
      "additionalContracts": [],
      "isFixedGasLimit": false
    },
    {
      "hash": "0x177417da7c2678b4f6e82d3a83b1047c6f3ad848f6b6e3da40745b05b42111de",
      "transactionType": "CALL",
      "contractName": "MaseerProxy",
      "contractAddress": "0x794cf5948444b14105587455ebe96caace036d52",
      "function": "relyProxy(address)",
      "arguments": [
        "0xa73c94969dE90Edb159D29922C42fF24beDFA085"
      ],
      "transaction": {
        "from": "0xdeed2376ad1d9cc54e0cca449b1d7a96939120f9",
        "to": "0x794cf5948444b14105587455ebe96caace036d52",
        "gas": "0x10f72",
        "value": "0x0",
        "input": "0x266a164a000000000000000000000000a73c94969de90edb159d29922c42ff24bedfa085",
        "nonce": "0x1e",
        "chainId": "0x1"
      },
      "additionalContracts": [],
      "isFixedGasLimit": false
    },
    {
      "hash": "0x69c680f941ad37fe31ae15ffac4602364fb7597e59bd742526ba677c8747a686",
      "transactionType": "CALL",
      "contractName": "MaseerProxy",
      "contractAddress": "0x6a79dce61a12aa4b75449e0b03746260765d07df",
      "function": null,
      "arguments": null,
      "transaction": {
        "from": "0xdeed2376ad1d9cc54e0cca449b1d7a96939120f9",
        "to": "0x6a79dce61a12aa4b75449e0b03746260765d07df",
        "gas": "0x99aa",
        "value": "0x0",
        "input": "0x9c52a7f1000000000000000000000000deed2376ad1d9cc54e0cca449b1d7a96939120f9",
        "nonce": "0x1f",
        "chainId": "0x1"
      },
      "additionalContracts": [],
      "isFixedGasLimit": false
    },
    {
      "hash": "0xea8a0ff9d8d13637ac559f62bdf4119678b821c261db03b71d1f55629067d57c",
      "transactionType": "CALL",
      "contractName": "MaseerProxy",
      "contractAddress": "0x6a79dce61a12aa4b75449e0b03746260765d07df",
      "function": "denyProxy(address)",
      "arguments": [
        "0xdeED2376aD1D9cC54E0CCa449B1d7A96939120F9"
      ],
      "transaction": {
        "from": "0xdeed2376ad1d9cc54e0cca449b1d7a96939120f9",
        "to": "0x6a79dce61a12aa4b75449e0b03746260765d07df",
        "gas": "0x8676",
        "value": "0x0",
        "input": "0x0715940e000000000000000000000000deed2376ad1d9cc54e0cca449b1d7a96939120f9",
        "nonce": "0x20",
        "chainId": "0x1"
      },
      "additionalContracts": [],
      "isFixedGasLimit": false
    },
    {
      "hash": "0x7e61720b9523177c1a7d6678af518444462e8c3d6de47e82587ff01c4f791cc2",
      "transactionType": "CALL",
      "contractName": "MaseerProxy",
      "contractAddress": "0xb59cb4d3075a8ce5013c78e8bd7ada3fd1300f7f",
      "function": null,
      "arguments": null,
      "transaction": {
        "from": "0xdeed2376ad1d9cc54e0cca449b1d7a96939120f9",
        "to": "0xb59cb4d3075a8ce5013c78e8bd7ada3fd1300f7f",
        "gas": "0x99e7",
        "value": "0x0",
        "input": "0x9c52a7f1000000000000000000000000deed2376ad1d9cc54e0cca449b1d7a96939120f9",
        "nonce": "0x21",
        "chainId": "0x1"
      },
      "additionalContracts": [],
      "isFixedGasLimit": false
    },
    {
      "hash": "0xd8c7156d211325d5eabdc77d31403fc383a66471f1fbecd5fea0b2c5de1b5fc2",
      "transactionType": "CALL",
      "contractName": "MaseerProxy",
      "contractAddress": "0xb59cb4d3075a8ce5013c78e8bd7ada3fd1300f7f",
      "function": "denyProxy(address)",
      "arguments": [
        "0xdeED2376aD1D9cC54E0CCa449B1d7A96939120F9"
      ],
      "transaction": {
        "from": "0xdeed2376ad1d9cc54e0cca449b1d7a96939120f9",
        "to": "0xb59cb4d3075a8ce5013c78e8bd7ada3fd1300f7f",
        "gas": "0x8676",
        "value": "0x0",
        "input": "0x0715940e000000000000000000000000deed2376ad1d9cc54e0cca449b1d7a96939120f9",
        "nonce": "0x22",
        "chainId": "0x1"
      },
      "additionalContracts": [],
      "isFixedGasLimit": false
    },
    {
      "hash": "0xd4b02df0d10f544b48fb270bd8dc85a9f38f92af3b02ca3e0aa9b0215da10e69",
      "transactionType": "CALL",
      "contractName": "MaseerProxy",
      "contractAddress": "0xa8f5be8457d6ed5c659647fa8d107c3f2086626a",
      "function": null,
      "arguments": null,
      "transaction": {
        "from": "0xdeed2376ad1d9cc54e0cca449b1d7a96939120f9",
        "to": "0xa8f5be8457d6ed5c659647fa8d107c3f2086626a",
        "gas": "0xa293",
        "value": "0x0",
        "input": "0x9c52a7f1000000000000000000000000deed2376ad1d9cc54e0cca449b1d7a96939120f9",
        "nonce": "0x23",
        "chainId": "0x1"
      },
      "additionalContracts": [],
      "isFixedGasLimit": false
    },
    {
      "hash": "0xb36e87a61f2407d562f47f1f194f2f483f12999446bebeea780b90ea92317743",
      "transactionType": "CALL",
      "contractName": "MaseerProxy",
      "contractAddress": "0xa8f5be8457d6ed5c659647fa8d107c3f2086626a",
      "function": "denyProxy(address)",
      "arguments": [
        "0xdeED2376aD1D9cC54E0CCa449B1d7A96939120F9"
      ],
      "transaction": {
        "from": "0xdeed2376ad1d9cc54e0cca449b1d7a96939120f9",
        "to": "0xa8f5be8457d6ed5c659647fa8d107c3f2086626a",
        "gas": "0x8676",
        "value": "0x0",
        "input": "0x0715940e000000000000000000000000deed2376ad1d9cc54e0cca449b1d7a96939120f9",
        "nonce": "0x24",
        "chainId": "0x1"
      },
      "additionalContracts": [],
      "isFixedGasLimit": false
    },
    {
      "hash": "0x39453f98c2c35c3c98b47c3de2a4304894cd5c5c7ad06fb20ed6382b2f6c65d7",
      "transactionType": "CALL",
      "contractName": "MaseerProxy",
      "contractAddress": "0x794cf5948444b14105587455ebe96caace036d52",
      "function": null,
      "arguments": null,
      "transaction": {
        "from": "0xdeed2376ad1d9cc54e0cca449b1d7a96939120f9",
        "to": "0x794cf5948444b14105587455ebe96caace036d52",
        "gas": "0x99aa",
        "value": "0x0",
        "input": "0x9c52a7f1000000000000000000000000deed2376ad1d9cc54e0cca449b1d7a96939120f9",
        "nonce": "0x25",
        "chainId": "0x1"
      },
      "additionalContracts": [],
      "isFixedGasLimit": false
    },
    {
      "hash": "0x11f632e4b4a70d8183896cf94dd89ac282347059e0457f1246a7a58ed9da2db0",
      "transactionType": "CALL",
      "contractName": "MaseerProxy",
      "contractAddress": "0x794cf5948444b14105587455ebe96caace036d52",
      "function": "denyProxy(address)",
      "arguments": [
        "0xdeED2376aD1D9cC54E0CCa449B1d7A96939120F9"
      ],
      "transaction": {
        "from": "0xdeed2376ad1d9cc54e0cca449b1d7a96939120f9",
        "to": "0x794cf5948444b14105587455ebe96caace036d52",
        "gas": "0x8676",
        "value": "0x0",
        "input": "0x0715940e000000000000000000000000deed2376ad1d9cc54e0cca449b1d7a96939120f9",
        "nonce": "0x26",
        "chainId": "0x1"
      },
      "additionalContracts": [],
      "isFixedGasLimit": false
    }
  ],
  "receipts": [
    {
      "status": "0x1",
      "cumulativeGasUsed": "0xbc4eb1",
      "logs": [],
      "logsBloom": "0x00000000000000000000000000000000000000000000000000000000000000000000000000000000000000000000000000000000000000000000000000000000000000000000000000000000000000000000000000000000000000000000000000000000000000000000000000000000000000000000000000000000000000000000000000000000000000000000000000000000000000000000000000000000000000000000000000000000000000000000000000000000000000000000000000000000000000000000000000000000000000000000000000000000000000000000000000000000000000000000000000000000000000000000000000000000",
      "type": "0x2",
      "transactionHash": "0x4f22186d6f9d2652a657db06567736c07b7987391c722b64fc15e2b76a93a7e3",
      "transactionIndex": "0x75",
      "blockHash": "0xf603ebf56253b0b61ecccb951c7291494972629058e7f573ce67cfc244b49ed8",
      "blockNumber": "0x17b373c",
      "gasUsed": "0xe25da",
      "effectiveGasPrice": "0x3d8e124",
      "from": "0xdeed2376ad1d9cc54e0cca449b1d7a96939120f9",
      "to": null,
      "contractAddress": "0x44bfeb1110ba6091034dbaab450ef1e7469ff072"
    },
    {
      "status": "0x1",
      "cumulativeGasUsed": "0x6c6e24",
      "logs": [
        {
          "address": "0x6a79dce61a12aa4b75449e0b03746260765d07df",
          "topics": [
            "0xa2dae01a1d724d8a8b98084c4e6f990890b1d873be068e99714cfd28b4060ddb",
            "0x00000000000000000000000044bfeb1110ba6091034dbaab450ef1e7469ff072"
          ],
          "data": "0x",
          "blockHash": "0x2c70190820a200bacfac2e8acfa6473056f7197ff097a2b5d73ac1e3ba0b46d7",
          "blockNumber": "0x17b373d",
          "blockTimestamp": "0x69d97843",
          "transactionHash": "0xf95ea28738e2910907e10d8ba09f058e061543d6992e0be2094bb53ecb1f2200",
          "transactionIndex": "0x11",
          "logIndex": "0x82",
          "removed": false
        }
      ],
      "logsBloom": "0x00000000000000000000000000000800000000000000000000000000004000000000000000000000000000000000000000000000000000000010000000000000000000000000000000000000000000000000000000000000000000000000000000000000000000000000000000000000000000000000000000000000000000080000000000000000000000000000000000000000000000000000000000000000000000000000000000000000000000000000000008000000000000000000000000000000000000000000000008000022000000000000000000000000000000000000000000000000000000000000002000000000000000000000000000000000",
      "type": "0x2",
      "transactionHash": "0xf95ea28738e2910907e10d8ba09f058e061543d6992e0be2094bb53ecb1f2200",
      "transactionIndex": "0x11",
      "blockHash": "0x2c70190820a200bacfac2e8acfa6473056f7197ff097a2b5d73ac1e3ba0b46d7",
      "blockNumber": "0x17b373d",
      "gasUsed": "0x68b33",
      "effectiveGasPrice": "0x3d335b7",
      "from": "0xdeed2376ad1d9cc54e0cca449b1d7a96939120f9",
      "to": null,
      "contractAddress": "0x6a79dce61a12aa4b75449e0b03746260765d07df"
    },
    {
      "status": "0x1",
      "cumulativeGasUsed": "0x466c8c",
      "logs": [],
      "logsBloom": "0x00000000000000000000000000000000000000000000000000000000000000000000000000000000000000000000000000000000000000000000000000000000000000000000000000000000000000000000000000000000000000000000000000000000000000000000000000000000000000000000000000000000000000000000000000000000000000000000000000000000000000000000000000000000000000000000000000000000000000000000000000000000000000000000000000000000000000000000000000000000000000000000000000000000000000000000000000000000000000000000000000000000000000000000000000000000",
      "type": "0x2",
      "transactionHash": "0x9a6359025658ff5003416bb43f60e67e030d7e747b236f5d8f7119e67e24051a",
      "transactionIndex": "0x1b",
      "blockHash": "0xf0e5441a5962a9e9de6f730523ae8b79fa3f2877fcbf3cde3d25e6f47198eb99",
      "blockNumber": "0x17b373e",
      "gasUsed": "0x171bd2",
      "effectiveGasPrice": "0x3c9ca43",
      "from": "0xdeed2376ad1d9cc54e0cca449b1d7a96939120f9",
      "to": null,
      "contractAddress": "0x635dbb7841c27c74b6bdbf1bed548aae2c6c9d77"
    },
    {
      "status": "0x1",
      "cumulativeGasUsed": "0x2d3430c",
      "logs": [
        {
          "address": "0xb59cb4d3075a8ce5013c78e8bd7ada3fd1300f7f",
          "topics": [
            "0xa2dae01a1d724d8a8b98084c4e6f990890b1d873be068e99714cfd28b4060ddb",
            "0x000000000000000000000000635dbb7841c27c74b6bdbf1bed548aae2c6c9d77"
          ],
          "data": "0x",
          "blockHash": "0xdafdac44f46a83849ca15a31fa4a9bc4ac59df27e92b59a5ccfbc24ab8918cc1",
          "blockNumber": "0x17b373f",
          "blockTimestamp": "0x69d9785b",
          "transactionHash": "0x3a98af8f39129e29a7ded08a1020a03def11aff799866d0bc2b41b7fdc14ab66",
          "transactionIndex": "0x48",
          "logIndex": "0x1fe",
          "removed": false
        }
      ],
      "logsBloom": "0x00000000000000000000000000000800400000000000000000000000000008000000000000000000000000000000000000000000000000000010000000000000000000000000000000000000000000000000000000000000000000000000000000000000000000000000000000000000000000000004000000000000000000000000000000000000000000000000000000000000000000000000000000000000020000000000000000000000000000000000000000000000000000000000000000000000000000000010000000000000000000000000000000000000000000000000000000000000000000000000002000010000000000000000000000000000",
      "type": "0x2",
      "transactionHash": "0x3a98af8f39129e29a7ded08a1020a03def11aff799866d0bc2b41b7fdc14ab66",
      "transactionIndex": "0x48",
      "blockHash": "0xdafdac44f46a83849ca15a31fa4a9bc4ac59df27e92b59a5ccfbc24ab8918cc1",
      "blockNumber": "0x17b373f",
      "gasUsed": "0x68b33",
      "effectiveGasPrice": "0x3a559aa",
      "from": "0xdeed2376ad1d9cc54e0cca449b1d7a96939120f9",
      "to": null,
      "contractAddress": "0xb59cb4d3075a8ce5013c78e8bd7ada3fd1300f7f"
    },
    {
      "status": "0x1",
      "cumulativeGasUsed": "0x993305",
      "logs": [],
      "logsBloom": "0x00000000000000000000000000000000000000000000000000000000000000000000000000000000000000000000000000000000000000000000000000000000000000000000000000000000000000000000000000000000000000000000000000000000000000000000000000000000000000000000000000000000000000000000000000000000000000000000000000000000000000000000000000000000000000000000000000000000000000000000000000000000000000000000000000000000000000000000000000000000000000000000000000000000000000000000000000000000000000000000000000000000000000000000000000000000",
      "type": "0x2",
      "transactionHash": "0x9869d05ef1c6574ef04f60dfb1a8a257031ddb0546ab3dd1b0117b376f69dcd4",
      "transactionIndex": "0x5e",
      "blockHash": "0xe911e6db3b1172ccf6a926388982088b5b9f835c23a7f94dadf675175d80e097",
      "blockNumber": "0x17b3740",
      "gasUsed": "0x6af2d",
      "effectiveGasPrice": "0x3e2143e",
      "from": "0xdeed2376ad1d9cc54e0cca449b1d7a96939120f9",
      "to": null,
      "contractAddress": "0x192575eeb42644a8014eb545c69f5125e2437a56"
    },
    {
      "status": "0x1",
      "cumulativeGasUsed": "0xa53590",
      "logs": [
        {
          "address": "0xa8f5be8457d6ed5c659647fa8d107c3f2086626a",
          "topics": [
            "0xa2dae01a1d724d8a8b98084c4e6f990890b1d873be068e99714cfd28b4060ddb",
            "0x000000000000000000000000192575eeb42644a8014eb545c69f5125e2437a56"
          ],
          "data": "0x",
          "blockHash": "0x54c5834c08861d99c377fdd9841a80b57516a25110f2b4a1748ffa7393c97d0b",
          "blockNumber": "0x17b3741",
          "blockTimestamp": "0x69d97873",
          "transactionHash": "0x147a5efd737e1f595994925e111cfecc639feba908b3e4dece7fe767bd8ddef7",
          "transactionIndex": "0x5e",
          "logIndex": "0xec",
          "removed": false
        }
      ],
      "logsBloom": "0x00000000000000000000000000000800000000000000000000000000000000000000000000000000000000000000000000000000000000000010000001000000000000000000000000000000000000000200000000000000000000000000000000000000000000000000000000000000000000000000000000000000000000000000000000000000000000000000000000000000000000000000000000000000000000000002000000000000000000000000000000000000000000000000000000000000000080000000000000000002020000000000000000000000000000000000000000000000000000000000002000000000000000000000000000000000",
      "type": "0x2",
      "transactionHash": "0x147a5efd737e1f595994925e111cfecc639feba908b3e4dece7fe767bd8ddef7",
      "transactionIndex": "0x5e",
      "blockHash": "0x54c5834c08861d99c377fdd9841a80b57516a25110f2b4a1748ffa7393c97d0b",
      "blockNumber": "0x17b3741",
      "gasUsed": "0x68b33",
      "effectiveGasPrice": "0x3f3485b",
      "from": "0xdeed2376ad1d9cc54e0cca449b1d7a96939120f9",
      "to": null,
      "contractAddress": "0xa8f5be8457d6ed5c659647fa8d107c3f2086626a"
    },
    {
      "status": "0x1",
      "cumulativeGasUsed": "0xd778ba",
      "logs": [],
      "logsBloom": "0x00000000000000000000000000000000000000000000000000000000000000000000000000000000000000000000000000000000000000000000000000000000000000000000000000000000000000000000000000000000000000000000000000000000000000000000000000000000000000000000000000000000000000000000000000000000000000000000000000000000000000000000000000000000000000000000000000000000000000000000000000000000000000000000000000000000000000000000000000000000000000000000000000000000000000000000000000000000000000000000000000000000000000000000000000000000",
      "type": "0x2",
      "transactionHash": "0xb9f76773696e84e4bfa57548f1c1b0930c766df0b9533dd978aca6c04a432e9c",
      "transactionIndex": "0x5a",
      "blockHash": "0xc9922f4cf6e94d1064cda300bd1c0e0b20e6d732f4b9993fa753daf65deec4fe",
      "blockNumber": "0x17b3742",
      "gasUsed": "0x553dd",
      "effectiveGasPrice": "0x3d6d7c8",
      "from": "0xdeed2376ad1d9cc54e0cca449b1d7a96939120f9",
      "to": null,
      "contractAddress": "0x3bb8ebb11816e1c20c3db57e2e7e5b421b159255"
    },
    {
      "status": "0x1",
      "cumulativeGasUsed": "0x811f2c",
      "logs": [
        {
          "address": "0x794cf5948444b14105587455ebe96caace036d52",
          "topics": [
            "0xa2dae01a1d724d8a8b98084c4e6f990890b1d873be068e99714cfd28b4060ddb",
            "0x0000000000000000000000003bb8ebb11816e1c20c3db57e2e7e5b421b159255"
          ],
          "data": "0x",
          "blockHash": "0x2446301cab92061d4da94f6583d8126184436d6c2a3b6c4a6675d43620def3fd",
          "blockNumber": "0x17b3743",
          "blockTimestamp": "0x69d9788b",
          "transactionHash": "0x566184b3f8cd3042fc2b947a71ae9c00d0d30161b4acea3ca8bfdb5072e65d56",
          "transactionIndex": "0x50",
          "logIndex": "0xd0",
          "removed": false
        }
      ],
      "logsBloom": "0x00000000000000000000000000000800000000000000000000000000100000000000000000000000000000000000000000000000000000000010000000010000000000000000000000000000000000000000000000000000000000000000000000000000000000000000000000000000000000000000000000000000000000000000000000000000000000000000000000000000000000000000000010000000000000000000000000000000000000000000100000000000000000000040000000000000000000000000000000000000000000000000000000000200000000000000000000000000000000000000002000000000000000000000000000000000",
      "type": "0x2",
      "transactionHash": "0x566184b3f8cd3042fc2b947a71ae9c00d0d30161b4acea3ca8bfdb5072e65d56",
      "transactionIndex": "0x50",
      "blockHash": "0x2446301cab92061d4da94f6583d8126184436d6c2a3b6c4a6675d43620def3fd",
      "blockNumber": "0x17b3743",
      "gasUsed": "0x68b33",
      "effectiveGasPrice": "0x3bc3d39",
      "from": "0xdeed2376ad1d9cc54e0cca449b1d7a96939120f9",
      "to": null,
      "contractAddress": "0x794cf5948444b14105587455ebe96caace036d52"
    },
    {
      "status": "0x1",
      "cumulativeGasUsed": "0x524b47",
      "logs": [],
      "logsBloom": "0x00000000000000000000000000000000000000000000000000000000000000000000000000000000000000000000000000000000000000000000000000000000000000000000000000000000000000000000000000000000000000000000000000000000000000000000000000000000000000000000000000000000000000000000000000000000000000000000000000000000000000000000000000000000000000000000000000000000000000000000000000000000000000000000000000000000000000000000000000000000000000000000000000000000000000000000000000000000000000000000000000000000000000000000000000000000",
      "type": "0x2",
      "transactionHash": "0xaf5c9e7d22b0157bf41ec81776e2609e04e0f09bd7408a5bb1b1fc564ac90d6f",
      "transactionIndex": "0x21",
      "blockHash": "0x0cc67dc41ba388fa731a2bd6a61f3c3ef44b50413a9b514d866e179f9f16b047",
      "blockNumber": "0x17b3744",
      "gasUsed": "0x28ab6e",
      "effectiveGasPrice": "0x3a5ce25",
      "from": "0xdeed2376ad1d9cc54e0cca449b1d7a96939120f9",
      "to": null,
      "contractAddress": "0x57c3571f10767e49c9d7b60feb6c67804783b7ae"
    },
    {
      "status": "0x1",
      "cumulativeGasUsed": "0x838995",
      "logs": [
        {
          "address": "0x6a79dce61a12aa4b75449e0b03746260765d07df",
          "topics": [
            "0x943a793c11a909d4409e7706d8c3d1467960e08f6141234950042994856812df",
            "0x6e616d6500000000000000000000000000000000000000000000000000000000"
          ],
          "data": "0x7773744742507447425000000000000000000000000000000000000000000000",
          "blockHash": "0xf58aae28782a6919d12cc5694b95808fa02a95f3f91b30a2fde87f828ed16344",
          "blockNumber": "0x17b3745",
          "blockTimestamp": "0x69d978a3",
          "transactionHash": "0x6eb7e987b396c65d90f0ad473cadf465b1c4fb944ed53c2901f3676f9188c581",
          "transactionIndex": "0x5b",
          "logIndex": "0x8c",
          "removed": false
        }
      ],
      "logsBloom": "0x00000000000000000000000000000000000000000000000000000000004000000000000000000000800000000000000000000000000000000000000000000000000000200000000000000000000000000000000000000000000000000000000000000000000000000000000000000000000000000000000000000000000000080000000000000000000000000000000000000000000000000000000000000010000000000000000000000000000000000020000000000000000000000000000000000000000000000000000000000020000400100000000000000000000000000000000000000000000000000000000000000000000000000000000000000000",
      "type": "0x2",
      "transactionHash": "0x6eb7e987b396c65d90f0ad473cadf465b1c4fb944ed53c2901f3676f9188c581",
      "transactionIndex": "0x5b",
      "blockHash": "0xf58aae28782a6919d12cc5694b95808fa02a95f3f91b30a2fde87f828ed16344",
      "blockNumber": "0x17b3745",
      "gasUsed": "0xddd7",
      "effectiveGasPrice": "0x3d87b39",
      "from": "0xdeed2376ad1d9cc54e0cca449b1d7a96939120f9",
      "to": "0x6a79dce61a12aa4b75449e0b03746260765d07df",
      "contractAddress": null
    },
    {
      "status": "0x1",
      "cumulativeGasUsed": "0x108afb7",
      "logs": [
        {
          "address": "0x6a79dce61a12aa4b75449e0b03746260765d07df",
          "topics": [
            "0x943a793c11a909d4409e7706d8c3d1467960e08f6141234950042994856812df",
            "0x646563696d616c73000000000000000000000000000000000000000000000000"
          ],
          "data": "0x0000000000000000000000000000000000000000000000000000000000000012",
          "blockHash": "0xc688c92b2ad8655ace8e86edbe2f2b14a7ab14f586d444ddf6ee1696b78b1c16",
          "blockNumber": "0x17b3746",
          "blockTimestamp": "0x69d978af",
          "transactionHash": "0x3f13ae328c7bfde7d856123058117982cbbbb29c459571c148168fdc6d9c4361",
          "transactionIndex": "0x7b",
          "logIndex": "0x12b",
          "removed": false
        }
      ],
      "logsBloom": "0x00000000000000000000000000000000000000000000000000000000004000000000000000000000000000000400000000000000000000000000000000000000000000200000000000000000000000000000000000000000000000000000000000000000000000000000000000000000000000000000000000000000000000080000000000000000000000000000000000000000000000000000000000000000000000000000000000000000000000000020000000000000000000000000000000000000000000000000000000000020001000100000000000000000000000000000000000000000000000000000000000004000000000000000000000000000",
      "type": "0x2",
      "transactionHash": "0x3f13ae328c7bfde7d856123058117982cbbbb29c459571c148168fdc6d9c4361",
      "transactionIndex": "0x7b",
      "blockHash": "0xc688c92b2ad8655ace8e86edbe2f2b14a7ab14f586d444ddf6ee1696b78b1c16",
      "blockNumber": "0x17b3746",
      "gasUsed": "0xcdef",
      "effectiveGasPrice": "0x3d7750a",
      "from": "0xdeed2376ad1d9cc54e0cca449b1d7a96939120f9",
      "to": "0x6a79dce61a12aa4b75449e0b03746260765d07df",
      "contractAddress": null
    },
    {
      "status": "0x1",
      "cumulativeGasUsed": "0x7eae85",
      "logs": [
        {
          "address": "0x6a79dce61a12aa4b75449e0b03746260765d07df",
          "topics": [
            "0x9205f54491e32927259b3f6e67e823b85407d3a915972fe9973e58788507b254",
            "0x0000000000000000000000000000000000000000000000000de0b6b3a7640000",
            "0x0000000000000000000000000000000000000000000000000000000069d978bb"
          ],
          "data": "0x",
          "blockHash": "0xddec426f97552ae76d53d0bac4c3acf447ac0a38b7fca20c72d93b92b930ce6a",
          "blockNumber": "0x17b3747",
          "blockTimestamp": "0x69d978bb",
          "transactionHash": "0xe11489a98f56f2cd7822e9d4f0fcfc38c5efc5f885431b8c8b76ec7645edf44b",
          "transactionIndex": "0x4d",
          "logIndex": "0x7d",
          "removed": false
        },
        {
          "address": "0x6a79dce61a12aa4b75449e0b03746260765d07df",
          "topics": [
            "0x943a793c11a909d4409e7706d8c3d1467960e08f6141234950042994856812df",
            "0x7072696365000000000000000000000000000000000000000000000000000000"
          ],
          "data": "0x0000000000000000000000000000000000000000000000000de0b6b3a7640000",
          "blockHash": "0xddec426f97552ae76d53d0bac4c3acf447ac0a38b7fca20c72d93b92b930ce6a",
          "blockNumber": "0x17b3747",
          "blockTimestamp": "0x69d978bb",
          "transactionHash": "0xe11489a98f56f2cd7822e9d4f0fcfc38c5efc5f885431b8c8b76ec7645edf44b",
          "transactionIndex": "0x4d",
          "logIndex": "0x7e",
          "removed": false
        }
      ],
      "logsBloom": "0x00000000000000000000000000000000000000000000000200000000404000000000000000000000000000200000000000000000000000000000000000000000000000200000000020020000000000000000000000000000000000000000000000000000000000000000000000000000000000000000000000000000000000080000000000000000000000000000000000000000004000000000000000000000000000000000000000000000000010000020000000000000000000000000000000000000000800000000000000000020000000100000010000000040000000000000000000000000000000000000000000000000800000000000020000000000",
      "type": "0x2",
      "transactionHash": "0xe11489a98f56f2cd7822e9d4f0fcfc38c5efc5f885431b8c8b76ec7645edf44b",
      "transactionIndex": "0x4d",
      "blockHash": "0xddec426f97552ae76d53d0bac4c3acf447ac0a38b7fca20c72d93b92b930ce6a",
      "blockNumber": "0x17b3747",
      "gasUsed": "0xd3c9",
      "effectiveGasPrice": "0x3c9b293",
      "from": "0xdeed2376ad1d9cc54e0cca449b1d7a96939120f9",
      "to": "0x6a79dce61a12aa4b75449e0b03746260765d07df",
      "contractAddress": null
    },
    {
      "status": "0x1",
      "cumulativeGasUsed": "0xce1954",
      "logs": [
        {
          "address": "0x6a79dce61a12aa4b75449e0b03746260765d07df",
          "topics": [
            "0x6ffc0fabf0709270e42087e84a3bfc36041d3b281266d04ae1962185092fb244",
            "0x000000000000000000000000a73c94969de90edb159d29922c42ff24bedfa085"
          ],
          "data": "0x",
          "blockHash": "0x66e990881fbc9c258f0604daea13fbfa793e5a728d5505b982a1d1d21b612971",
          "blockNumber": "0x17b3748",
          "blockTimestamp": "0x69d978c7",
          "transactionHash": "0x256559c414f2e49e06b1bac425e8231a228556b5089cba1f95a6f924adbdf518",
          "transactionIndex": "0x58",
          "logIndex": "0x143",
          "removed": false
        }
      ],
      "logsBloom": "0x00020000000000000000000000000000000000000000000000000000004000000000000000000000000000000000000000000000000000000000000000000000000000000000000000000010000000000000000000000000000000000000000000000000000000000000000000000000000000000000000000000000000000080000000000000000000000000000000000000000000000000000000000000000000000000000000000000000000000000000000000000000000000000000000000000020000000000020000000000020000000000000000000000000000000000000400000000000800000000000000000000000000000000000000000000000",
      "type": "0x2",
      "transactionHash": "0x256559c414f2e49e06b1bac425e8231a228556b5089cba1f95a6f924adbdf518",
      "transactionIndex": "0x58",
      "blockHash": "0x66e990881fbc9c258f0604daea13fbfa793e5a728d5505b982a1d1d21b612971",
      "blockNumber": "0x17b3748",
      "gasUsed": "0xccac",
      "effectiveGasPrice": "0x3bc8480",
      "from": "0xdeed2376ad1d9cc54e0cca449b1d7a96939120f9",
      "to": "0x6a79dce61a12aa4b75449e0b03746260765d07df",
      "contractAddress": null
    },
    {
      "status": "0x1",
      "cumulativeGasUsed": "0xa28698",
      "logs": [
        {
          "address": "0x6a79dce61a12aa4b75449e0b03746260765d07df",
          "topics": [
            "0xdd0e34038ac38b2a1ce960229778ac48a8719bc900b6c4f8d0475c6e8b385a60",
            "0x000000000000000000000000a73c94969de90edb159d29922c42ff24bedfa085"
          ],
          "data": "0x",
          "blockHash": "0x3644abbdaf7498759e0e7209aef788cca66c7395f98e0e46b652537e2a5b7adc",
          "blockNumber": "0x17b374b",
          "blockTimestamp": "0x69d978eb",
          "transactionHash": "0x32c83da2ff75061631e305e5f68ed17a8cb8d32df3e77d0e28e40b5fbaa15321",
          "transactionIndex": "0x8f",
          "logIndex": "0xff",
          "removed": false
        }
      ],
      "logsBloom": "0x00000000000000000000000000000000000000000000000000000000004000000000000000000000000000000000000000004000000000000000000000000000000000400000000000000000000000000000000000000000000000000000000000000000000000000000000000000000000000000000000000000000000000080000000000000000000000000000000000000000000000000000000000000000000000000000000000000000000000000000000000000000000000000000000000000000000000000020000000000020000000000000000000000000000010000000400000000000800000000000000000000000000000000000000000000000",
      "type": "0x2",
      "transactionHash": "0x32c83da2ff75061631e305e5f68ed17a8cb8d32df3e77d0e28e40b5fbaa15321",
      "transactionIndex": "0x8f",
      "blockHash": "0x3644abbdaf7498759e0e7209aef788cca66c7395f98e0e46b652537e2a5b7adc",
      "blockNumber": "0x17b374b",
      "gasUsed": "0xcd18",
      "effectiveGasPrice": "0x3919197",
      "from": "0xdeed2376ad1d9cc54e0cca449b1d7a96939120f9",
      "to": "0x6a79dce61a12aa4b75449e0b03746260765d07df",
      "contractAddress": null
    },
    {
      "status": "0x1",
      "cumulativeGasUsed": "0x2ba8b3c",
      "logs": [
        {
          "address": "0x6a79dce61a12aa4b75449e0b03746260765d07df",
          "topics": [
            "0xa8dd46fe41c432577d30ef7c761e2ef822cd09c86bbfb1c24d80387c798e60a3",
            "0x000000000000000000000000a73c94969de90edb159d29922c42ff24bedfa085"
          ],
          "data": "0x",
          "blockHash": "0xe20ddb35f58df4b1986070a6cad03a886dff99b1769ef3b15c23fe7adecfe034",
          "blockNumber": "0x17b374d",
          "blockTimestamp": "0x69d97903",
          "transactionHash": "0x9e5bc6cae0bc126f9a1a3387b0ae66ab6b8f6dc32f58927e3364f75f721bb8f2",
          "transactionIndex": "0x5e",
          "logIndex": "0x1b3",
          "removed": false
        }
      ],
      "logsBloom": "0x00000000000000000000000000000000000000000000000000000000004000000000000000000000000000000000000000000000000000000000000000000000000000000000000000000000000000000000000000000000000000000000000000000000000000000000000000000000008000000000000010000000000000080000000000000000000000000000000000000000000000000000000000000000000000000000000000000000000000000000000000000000000000000000000000000000000000000020000000000020000000000000000010000000000000000000400000000000800000000000000000000000000000000000000000000000",
      "type": "0x2",
      "transactionHash": "0x9e5bc6cae0bc126f9a1a3387b0ae66ab6b8f6dc32f58927e3364f75f721bb8f2",
      "transactionIndex": "0x5e",
      "blockHash": "0xe20ddb35f58df4b1986070a6cad03a886dff99b1769ef3b15c23fe7adecfe034",
      "blockNumber": "0x17b374d",
      "gasUsed": "0xb99b",
      "effectiveGasPrice": "0x3a204ff",
      "from": "0xdeed2376ad1d9cc54e0cca449b1d7a96939120f9",
      "to": "0x6a79dce61a12aa4b75449e0b03746260765d07df",
      "contractAddress": null
    },
    {
      "status": "0x1",
      "cumulativeGasUsed": "0xa1cc39",
      "logs": [
        {
          "address": "0xb59cb4d3075a8ce5013c78e8bd7ada3fd1300f7f",
          "topics": [
            "0xff658a1ccbd5d621da4584b917cc77706889b22a9a31935e92935801f1227829"
          ],
          "data": "0x0000000000000000000000000000000000000000000000000000000000000000",
          "blockHash": "0x0c8f5d56423af78033a07296dc3c3d632cd067b19079c1a492ad195de5112726",
          "blockNumber": "0x17b374e",
          "blockTimestamp": "0x69d9790f",
          "transactionHash": "0x1471789f82f6749d2b785a887457dd39b6825a07ad398537684de67992b55227",
          "transactionIndex": "0x2b",
          "logIndex": "0xff",
          "removed": false
        }
      ],
      "logsBloom": "0x00000000000000000000000000000000000000000000000000000000000008000000000000000000000000000000000000000000000000000000000000000000000000000000000000000000000000000000000000000000000000000000000000000000000000000000000000000000000000000004000000000000000000000000000000000000000000000000000040000000000000000000000000000000000000000000000000000000000000000000000000000200000000000000000000000000000000000000000000000000000000000000000000000000000000000000100000000000000000000000000000010000000000000000000000000000",
      "type": "0x2",
      "transactionHash": "0x1471789f82f6749d2b785a887457dd39b6825a07ad398537684de67992b55227",
      "transactionIndex": "0x2b",
      "blockHash": "0x0c8f5d56423af78033a07296dc3c3d632cd067b19079c1a492ad195de5112726",
      "blockNumber": "0x17b374e",
      "gasUsed": "0x7d5a",
      "effectiveGasPrice": "0x3dd6ad4",
      "from": "0xdeed2376ad1d9cc54e0cca449b1d7a96939120f9",
      "to": "0xb59cb4d3075a8ce5013c78e8bd7ada3fd1300f7f",
      "contractAddress": null
    },
    {
      "status": "0x1",
      "cumulativeGasUsed": "0x77df7a",
      "logs": [
        {
          "address": "0xb59cb4d3075a8ce5013c78e8bd7ada3fd1300f7f",
          "topics": [
            "0xc521c5dce69531eca4ec23cd5e8dab98dc098d89af66a8dd86ff7f92b68701bc"
          ],
          "data": "0xffffffffffffffffffffffffffffffffffffffffffffffffffffffffffffffff",
          "blockHash": "0xe5a3c9bfb1752d290b609beb4c6b8612c8dd7c073564cbc8c120640cdb1b24d4",
          "blockNumber": "0x17b374f",
          "blockTimestamp": "0x69d9791b",
          "transactionHash": "0x5dfcea7358bc541d7a571aebb89d80702bcc5419b404c891fa21dd9ad5f6d40c",
          "transactionIndex": "0x3a",
          "logIndex": "0x99",
          "removed": false
        }
      ],
      "logsBloom": "0x00000000000000000000000000000000000000000000000000000000000008000000000000000000000000000000000000000000000000000000000000000000000000000000000000000000000000000000000000004000000000000000000000000000000000000000000000000000000000000004000000000000000000000000000000000040000000000000000000000000000000000000000000000000000000000000000000000000000400000000000000000000000000000000000000000000000000000000000000000000000000000000000000000000000000000000000000000000000000000000000000010000000000000000000000000000",
      "type": "0x2",
      "transactionHash": "0x5dfcea7358bc541d7a571aebb89d80702bcc5419b404c891fa21dd9ad5f6d40c",
      "transactionIndex": "0x3a",
      "blockHash": "0xe5a3c9bfb1752d290b609beb4c6b8612c8dd7c073564cbc8c120640cdb1b24d4",
      "blockNumber": "0x17b374f",
      "gasUsed": "0xcca8",
      "effectiveGasPrice": "0x400c68d",
      "from": "0xdeed2376ad1d9cc54e0cca449b1d7a96939120f9",
      "to": "0xb59cb4d3075a8ce5013c78e8bd7ada3fd1300f7f",
      "contractAddress": null
    },
    {
      "status": "0x1",
      "cumulativeGasUsed": "0x89cae2",
      "logs": [
        {
          "address": "0xb59cb4d3075a8ce5013c78e8bd7ada3fd1300f7f",
          "topics": [
            "0x3b875fd8ec4e87d19ad192901e17c7e7070acacccc0433c2d2e4c89fd22e1455"
          ],
          "data": "0x0000000000000000000000000000000000000000000000000000000000000000",
          "blockHash": "0xa39b0ed3ce7c309384820f970a080c3fe5a5808ecfc2a52f28f52db781d07ae7",
          "blockNumber": "0x17b3750",
          "blockTimestamp": "0x69d97927",
          "transactionHash": "0xd3b20ece138ccf71bf0ca8b43f5f14ed2e31ef22aaf7f7f2af1387a64d849a00",
          "transactionIndex": "0x6e",
          "logIndex": "0xbc",
          "removed": false
        }
      ],
      "logsBloom": "0x00000000000000000000000000000000000000000000000000000000000008000000000000000000000000000000000000000000000000000000000000000000000000000000000000000000000000000000000000000000000000000000000000000000000000000000000000000000000000000004000000000000000000000000000000000000000000000000000000000000000000000000000000000000000000000000000000000000000000000000000000000000000000000000000000000000000000000000000040000000000800000000000000010000000000000000000000000000000000000000000000010000000000000000000000000000",
      "type": "0x2",
      "transactionHash": "0xd3b20ece138ccf71bf0ca8b43f5f14ed2e31ef22aaf7f7f2af1387a64d849a00",
      "transactionIndex": "0x6e",
      "blockHash": "0xa39b0ed3ce7c309384820f970a080c3fe5a5808ecfc2a52f28f52db781d07ae7",
      "blockNumber": "0x17b3750",
      "gasUsed": "0x7d70",
      "effectiveGasPrice": "0x3dab510",
      "from": "0xdeed2376ad1d9cc54e0cca449b1d7a96939120f9",
      "to": "0xb59cb4d3075a8ce5013c78e8bd7ada3fd1300f7f",
      "contractAddress": null
    },
    {
      "status": "0x1",
      "cumulativeGasUsed": "0x9d8da4",
      "logs": [
        {
          "address": "0xb59cb4d3075a8ce5013c78e8bd7ada3fd1300f7f",
          "topics": [
            "0x5e9ef102631b6991a5c93f0e8cccb183f633cb2cffac65b8c2f0abd3cdd21f09"
          ],
          "data": "0x0000000000000000000000000000000000000000000000000000000000000019",
          "blockHash": "0x256cbbf81e00b5ce56cd9071d7cb68382473160a52592e0b56aeb2b270091b41",
          "blockNumber": "0x17b3751",
          "blockTimestamp": "0x69d97933",
          "transactionHash": "0x79aab291cd862913b0d8a6a56bbd4a45c42632a5a3c1792ad1ac632225e8a9d0",
          "transactionIndex": "0x6c",
          "logIndex": "0xa9",
          "removed": false
        }
      ],
      "logsBloom": "0x00000000000000000000000000000000000000000000000000000000000008000000000000000000000000000000000000000000000000000000000000000000000000000000000000000000000000000000000000000000100000000000000100000000000000000000000000000000000000000004000000000000000000000000000000000000000000000000000000000000000000000000000000000000000000000000000000000000000000000000000000000000000000000000000000000000000000000000000100000000000000000000000000000000000000000000000000000000000000000000000000010000000000000000000000000000",
      "type": "0x2",
      "transactionHash": "0x79aab291cd862913b0d8a6a56bbd4a45c42632a5a3c1792ad1ac632225e8a9d0",
      "transactionIndex": "0x6c",
      "blockHash": "0x256cbbf81e00b5ce56cd9071d7cb68382473160a52592e0b56aeb2b270091b41",
      "blockNumber": "0x17b3751",
      "gasUsed": "0xcb4d",
      "effectiveGasPrice": "0x3cb2c73",
      "from": "0xdeed2376ad1d9cc54e0cca449b1d7a96939120f9",
      "to": "0xb59cb4d3075a8ce5013c78e8bd7ada3fd1300f7f",
      "contractAddress": null
    },
    {
      "status": "0x1",
      "cumulativeGasUsed": "0xd4a216",
      "logs": [],
      "logsBloom": "0x00000000000000000000000000000000000000000000000000000000000000000000000000000000000000000000000000000000000000000000000000000000000000000000000000000000000000000000000000000000000000000000000000000000000000000000000000000000000000000000000000000000000000000000000000000000000000000000000000000000000000000000000000000000000000000000000000000000000000000000000000000000000000000000000000000000000000000000000000000000000000000000000000000000000000000000000000000000000000000000000000000000000000000000000000000000",
      "type": "0x2",
      "transactionHash": "0x9da80fa1019d91587d734a9e3948dfc3bf0d7cee9c6bc2bb5c429ee029400e1b",
      "transactionIndex": "0x62",
      "blockHash": "0x58327373c8e67b99fe5bffac12071f756829f8216389962600e4b53d742ac096",
      "blockNumber": "0x17b3752",
      "gasUsed": "0x7c57",
      "effectiveGasPrice": "0x3c50c3c",
      "from": "0xdeed2376ad1d9cc54e0cca449b1d7a96939120f9",
      "to": "0xb59cb4d3075a8ce5013c78e8bd7ada3fd1300f7f",
      "contractAddress": null
    },
    {
      "status": "0x1",
      "cumulativeGasUsed": "0xcd382b",
      "logs": [
        {
          "address": "0xb59cb4d3075a8ce5013c78e8bd7ada3fd1300f7f",
          "topics": [
            "0x28d421b627efdbdff5d3a7755d219c51d6b84890aa86158a96709c631b3d3621"
          ],
          "data": "0x0000000000000000000000000000000000000000000000000000000069d9781f",
          "blockHash": "0x9af39de54be82af44e3ab4d970ee1fb82270908390d8bd5f7cfc4f4a3e961289",
          "blockNumber": "0x17b3755",
          "blockTimestamp": "0x69d97963",
          "transactionHash": "0xeabb4faed583fb10518cecc574a08aaabd60df577b47f6552b9445c1b0f38c05",
          "transactionIndex": "0x57",
          "logIndex": "0x13d",
          "removed": false
        }
      ],
      "logsBloom": "0x00000000000000000000000000000000000000000000000000000000000008000000000000000000000000000000000000000000000000000000000000000000000000000000000010000000000000000000000000000000000000000000000000000000000000000000000000000004000000000004000000000000000000000000000000000000000000400000000000000000000000000000000000000000000000000000000000000000000000000000000000000000000000000000000000000000000000000000000000000000000000000000000000000000000000000000000000000000000000000000000000010000000000000000000000000000",
      "type": "0x2",
      "transactionHash": "0xeabb4faed583fb10518cecc574a08aaabd60df577b47f6552b9445c1b0f38c05",
      "transactionIndex": "0x57",
      "blockHash": "0x9af39de54be82af44e3ab4d970ee1fb82270908390d8bd5f7cfc4f4a3e961289",
      "blockNumber": "0x17b3755",
      "gasUsed": "0xcbcd",
      "effectiveGasPrice": "0x3e65810",
      "from": "0xdeed2376ad1d9cc54e0cca449b1d7a96939120f9",
      "to": "0xb59cb4d3075a8ce5013c78e8bd7ada3fd1300f7f",
      "contractAddress": null
    },
    {
      "status": "0x1",
      "cumulativeGasUsed": "0xc22db9",
      "logs": [
        {
          "address": "0xb59cb4d3075a8ce5013c78e8bd7ada3fd1300f7f",
          "topics": [
            "0x0b46438ef921579327a039216737d67307c776f80ee589a68f6929473c11d7ea"
          ],
          "data": "0xffffffffffffffffffffffffffffffffffffffffffffffffffffffffffffffff",
          "blockHash": "0xcbd672bcb182c710cee0e5947f75858a6a7d34b0d94438ab04207829ecb1df52",
          "blockNumber": "0x17b3756",
          "blockTimestamp": "0x69d9796f",
          "transactionHash": "0x6264a4af3aea1c9ab1726ee5d42fd82d881c2db4cd162027d471041663268230",
          "transactionIndex": "0x55",
          "logIndex": "0x11d",
          "removed": false
        }
      ],
      "logsBloom": "0x00000000000000000000000000000000000000000000000000000000000008000000000000000000000000000000000000000000000000000000000000000000000000004000000000000000000000000000000000000000000000000000000000000000000000000000000000000000000000000004000000000000000000000000000000000000000000000000000000000000000000000000000000000000000000000000000000000000000000000000000000000000000000000000000000000000000000000000000000000000000000000000000000000000000000000200000000000000000000000000000000010000000000000000000000000000",
      "type": "0x2",
      "transactionHash": "0x6264a4af3aea1c9ab1726ee5d42fd82d881c2db4cd162027d471041663268230",
      "transactionIndex": "0x55",
      "blockHash": "0xcbd672bcb182c710cee0e5947f75858a6a7d34b0d94438ab04207829ecb1df52",
      "blockNumber": "0x17b3756",
      "gasUsed": "0xcdd4",
      "effectiveGasPrice": "0x3f16477",
      "from": "0xdeed2376ad1d9cc54e0cca449b1d7a96939120f9",
      "to": "0xb59cb4d3075a8ce5013c78e8bd7ada3fd1300f7f",
      "contractAddress": null
    },
    {
      "status": "0x1",
      "cumulativeGasUsed": "0x6b1560",
      "logs": [
        {
          "address": "0xb59cb4d3075a8ce5013c78e8bd7ada3fd1300f7f",
          "topics": [
            "0xe3c97aac895dcb57bfa53bd9e17560862f4da2f38926cb7a07c3d30ad86d1461"
          ],
          "data": "0x0000000000000000000000000000000000000000000000000000000069d9781f",
          "blockHash": "0x77facffb3b1a40464b1bf2e145d45df52c389205dcf6a20c4ce92483b9fa723c",
          "blockNumber": "0x17b3757",
          "blockTimestamp": "0x69d9797b",
          "transactionHash": "0xb5705c476e96d33a0bfe1b0991a35a98b2b01a4350d6a13870b25247a8007998",
          "transactionIndex": "0x57",
          "logIndex": "0x6f",
          "removed": false
        }
      ],
      "logsBloom": "0x00000000000000000000000000000000000000000000000000000000000008000000000000000000000000000000000000000000000000000000000000000000000000000000000000000000000000000000000000100000000000000000000000000000000000000000000000000000000000000004000000000000000000000000000000000000000000000000000000000000000000000000000000000000000000000000000000000000000100000000000000000000000000000000000000040000000000000000000000000000000000000000000000000000000000000000000000000000000000000000000000010000000000000000000000000000",
      "type": "0x2",
      "transactionHash": "0xb5705c476e96d33a0bfe1b0991a35a98b2b01a4350d6a13870b25247a8007998",
      "transactionIndex": "0x57",
      "blockHash": "0x77facffb3b1a40464b1bf2e145d45df52c389205dcf6a20c4ce92483b9fa723c",
      "blockNumber": "0x17b3757",
      "gasUsed": "0xcb58",
      "effectiveGasPrice": "0x3d73cfb",
      "from": "0xdeed2376ad1d9cc54e0cca449b1d7a96939120f9",
      "to": "0xb59cb4d3075a8ce5013c78e8bd7ada3fd1300f7f",
      "contractAddress": null
    },
    {
      "status": "0x1",
      "cumulativeGasUsed": "0x17206d9",
      "logs": [
        {
          "address": "0xb59cb4d3075a8ce5013c78e8bd7ada3fd1300f7f",
          "topics": [
            "0xb99712d62405da5b8c7cf827c6496803f89ca156fa0cb31ef41029c40fd01bc7"
          ],
          "data": "0xffffffffffffffffffffffffffffffffffffffffffffffffffffffffffffffff",
          "blockHash": "0x30bcbdf2d154657de4772c20b822240b8bd024123d9a0517852b5270c53d68d6",
          "blockNumber": "0x17b3758",
          "blockTimestamp": "0x69d97987",
          "transactionHash": "0x08e01b0377beeb72fbb41cfc4e79884016dfe72b910f4e37259d5dcd0b90c5b2",
          "transactionIndex": "0x80",
          "logIndex": "0x193",
          "removed": false
        }
      ],
      "logsBloom": "0x00000010000000000000040000000000000000000000000000000000000008000000000000000000000000000000000000000000000000000000000000000000000000000000000000000000000000000000000000000000000000000000000000000000000000000000000000000000000000000004000000000000000000000000000000000000000000000000000000000000000000000000000000000000000000000000000000000000000000000000000000000000000000000000800000000000000000000000000000000000000000000000000000000000000000000000000000000000000000000000000000010000000000000000000000000000",
      "type": "0x2",
      "transactionHash": "0x08e01b0377beeb72fbb41cfc4e79884016dfe72b910f4e37259d5dcd0b90c5b2",
      "transactionIndex": "0x80",
      "blockHash": "0x30bcbdf2d154657de4772c20b822240b8bd024123d9a0517852b5270c53d68d6",
      "blockNumber": "0x17b3758",
      "gasUsed": "0xce02",
      "effectiveGasPrice": "0x3b8f4f2",
      "from": "0xdeed2376ad1d9cc54e0cca449b1d7a96939120f9",
      "to": "0xb59cb4d3075a8ce5013c78e8bd7ada3fd1300f7f",
      "contractAddress": null
    },
    {
      "status": "0x1",
      "cumulativeGasUsed": "0x7137e2",
      "logs": [
        {
          "address": "0xb59cb4d3075a8ce5013c78e8bd7ada3fd1300f7f",
          "topics": [
            "0xdd0e34038ac38b2a1ce960229778ac48a8719bc900b6c4f8d0475c6e8b385a60",
            "0x000000000000000000000000a73c94969de90edb159d29922c42ff24bedfa085"
          ],
          "data": "0x",
          "blockHash": "0x0a23fcff706764d1c9f4be307a0fa8213be27917a8f146c2bee9be6a2e274724",
          "blockNumber": "0x17b375a",
          "blockTimestamp": "0x69d9799f",
          "transactionHash": "0x483889fba959656c001a100c9aeccee537bad4e65d6c51d8815c537a61bd18c1",
          "transactionIndex": "0x6e",
          "logIndex": "0xa1",
          "removed": false
        }
      ],
      "logsBloom": "0x00000000000000000000000000000000000000000000000000000000000008000000000000000000000000000000000000004000000000000000000000000000000000400000000000000000000000000000000000000000000000000000000000000000000000000000000000000000000000000004000000000000000000000000000000000000000000000000000000000000000000000000000000000000000000000000000000000000000000000000000000000000000000000000000000000000000000000020000000000000000000000000000000000000000010000000400000000000800000000000000000010000000000000000000000000000",
      "type": "0x2",
      "transactionHash": "0x483889fba959656c001a100c9aeccee537bad4e65d6c51d8815c537a61bd18c1",
      "transactionIndex": "0x6e",
      "blockHash": "0x0a23fcff706764d1c9f4be307a0fa8213be27917a8f146c2bee9be6a2e274724",
      "blockNumber": "0x17b375a",
      "gasUsed": "0xcd18",
      "effectiveGasPrice": "0x38b7f1a",
      "from": "0xdeed2376ad1d9cc54e0cca449b1d7a96939120f9",
      "to": "0xb59cb4d3075a8ce5013c78e8bd7ada3fd1300f7f",
      "contractAddress": null
    },
    {
      "status": "0x1",
      "cumulativeGasUsed": "0x9b1e09",
      "logs": [
        {
          "address": "0xb59cb4d3075a8ce5013c78e8bd7ada3fd1300f7f",
          "topics": [
            "0xa8dd46fe41c432577d30ef7c761e2ef822cd09c86bbfb1c24d80387c798e60a3",
            "0x000000000000000000000000a73c94969de90edb159d29922c42ff24bedfa085"
          ],
          "data": "0x",
          "blockHash": "0x5b1e7a6d08e63a10c9294f9227988ae2e285cd120fe4d32a3e51a40a3c4731e8",
          "blockNumber": "0x17b375b",
          "blockTimestamp": "0x69d979ab",
          "transactionHash": "0x6ff83aad6eda05b06789b74f78792b87ba055a958439c28a99c0fe63162f8391",
          "transactionIndex": "0x62",
          "logIndex": "0xc3",
          "removed": false
        }
      ],
      "logsBloom": "0x00000000000000000000000000000000000000000000000000000000000008000000000000000000000000000000000000000000000000000000000000000000000000000000000000000000000000000000000000000000000000000000000000000000000000000000000000000000008000000004000010000000000000000000000000000000000000000000000000000000000000000000000000000000000000000000000000000000000000000000000000000000000000000000000000000000000000000020000000000000000000000000000010000000000000000000400000000000800000000000000000010000000000000000000000000000",
      "type": "0x2",
      "transactionHash": "0x6ff83aad6eda05b06789b74f78792b87ba055a958439c28a99c0fe63162f8391",
      "transactionIndex": "0x62",
      "blockHash": "0x5b1e7a6d08e63a10c9294f9227988ae2e285cd120fe4d32a3e51a40a3c4731e8",
      "blockNumber": "0x17b375b",
      "gasUsed": "0xb99b",
      "effectiveGasPrice": "0x3c1468e",
      "from": "0xdeed2376ad1d9cc54e0cca449b1d7a96939120f9",
      "to": "0xb59cb4d3075a8ce5013c78e8bd7ada3fd1300f7f",
      "contractAddress": null
    },
    {
      "status": "0x1",
      "cumulativeGasUsed": "0xb3a838",
      "logs": [
        {
          "address": "0xa8f5be8457d6ed5c659647fa8d107c3f2086626a",
          "topics": [
            "0xdd0e34038ac38b2a1ce960229778ac48a8719bc900b6c4f8d0475c6e8b385a60",
            "0x000000000000000000000000a73c94969de90edb159d29922c42ff24bedfa085"
          ],
          "data": "0x",
          "blockHash": "0xe86b5174473ee24984628b58e7ba1384008253d330456eeaf7913008590d9e83",
          "blockNumber": "0x17b375c",
          "blockTimestamp": "0x69d979b7",
          "transactionHash": "0x1d4bb483c656822f1ad2b15eb36abe5cf230efaa2b0ce1f10a0bfc5912442630",
          "transactionIndex": "0x6a",
          "logIndex": "0xd9",
          "removed": false
        }
      ],
      "logsBloom": "0x00000000000000000000000000000000000000000000000000000000000000000000000000000000000000000000000000004000000000000000000000000000000000400000000000000000000000000200000000000000000000000000000000000000000000000000000000000000000000000000000000000000000000000000000000000000000000000000000000000000000000000000000000000000000000000002000000000000000000000000000000000000000000000000000000000000000080000020000000000000000000000000000000000000000010000000400000000000800000000000000000000000000000000000000000000000",
      "type": "0x2",
      "transactionHash": "0x1d4bb483c656822f1ad2b15eb36abe5cf230efaa2b0ce1f10a0bfc5912442630",
      "transactionIndex": "0x6a",
      "blockHash": "0xe86b5174473ee24984628b58e7ba1384008253d330456eeaf7913008590d9e83",
      "blockNumber": "0x17b375c",
      "gasUsed": "0xccf7",
      "effectiveGasPrice": "0x3a699e0",
      "from": "0xdeed2376ad1d9cc54e0cca449b1d7a96939120f9",
      "to": "0xa8f5be8457d6ed5c659647fa8d107c3f2086626a",
      "contractAddress": null
    },
    {
      "status": "0x1",
      "cumulativeGasUsed": "0x667f9a",
      "logs": [
        {
          "address": "0xa8f5be8457d6ed5c659647fa8d107c3f2086626a",
          "topics": [
            "0xa963685329cb5baf7fd78d35981a39531b48f5c5735eccf6f8e17966d9d76eb0",
            "0x000000000000000000000000a73c94969de90edb159d29922c42ff24bedfa085"
          ],
          "data": "0x",
          "blockHash": "0xed44fa3d869244315c7fbb7bfed63672cf57c6a99c6247a59523364ea744b2f9",
          "blockNumber": "0x17b375d",
          "blockTimestamp": "0x69d979c3",
          "transactionHash": "0x429e39207f03b8ea6589ae0f660f8467e517955f375687de37cb0d51e657aed9",
          "transactionIndex": "0x57",
          "logIndex": "0x61",
          "removed": false
        }
      ],
      "logsBloom": "0x00000000000000000000000000000000000000000000000000000000000000000000000000000000000200000000000000000000000000000000000000000000000000000000000000000000000000000200000000000000000000000000000000000000000000000000000000000000000000000000000000000000000000000000000000000000000000000000000000000000000000000000000400000000000000000002000000000000000000000000000000000000000000000000000000000000000080000020000100000000000000000000000000000000000000000000400000000000800000000000000000000000000000000000000000000000",
      "type": "0x2",
      "transactionHash": "0x429e39207f03b8ea6589ae0f660f8467e517955f375687de37cb0d51e657aed9",
      "transactionIndex": "0x57",
      "blockHash": "0xed44fa3d869244315c7fbb7bfed63672cf57c6a99c6247a59523364ea744b2f9",
      "blockNumber": "0x17b375d",
      "gasUsed": "0xcd0d",
      "effectiveGasPrice": "0x3b47f96",
      "from": "0xdeed2376ad1d9cc54e0cca449b1d7a96939120f9",
      "to": "0xa8f5be8457d6ed5c659647fa8d107c3f2086626a",
      "contractAddress": null
    },
    {
      "status": "0x1",
      "cumulativeGasUsed": "0x11e1345",
      "logs": [
        {
          "address": "0xa8f5be8457d6ed5c659647fa8d107c3f2086626a",
          "topics": [
            "0xa8dd46fe41c432577d30ef7c761e2ef822cd09c86bbfb1c24d80387c798e60a3",
            "0x000000000000000000000000a73c94969de90edb159d29922c42ff24bedfa085"
          ],
          "data": "0x",
          "blockHash": "0x6b9ebcdeea382361ba5a69fbf5af19df9f2b6af988bbb9b4f218e509a9c820fd",
          "blockNumber": "0x17b3760",
          "blockTimestamp": "0x69d979e7",
          "transactionHash": "0xe37c5a46bc4aefe7880f68811cd1a253e620bebb1de691f9bcd74100e4fb3bd2",
          "transactionIndex": "0x89",
          "logIndex": "0x201",
          "removed": false
        }
      ],
      "logsBloom": "0x00000000000000000000000000000000000000000000000000000000000000000000000000000000000000000000000000000000000000000000000000000000000000000000000000000000000000000200000000000000000000000000000000000000000000000000000000000000008000000000000010000000000000000000000000000000000000000000000000000000000000000000000000000000000000000002000000000000000000000000000000000000000000000000000000000000000080000020000000000000000000000000000010000000000000000000400000000000800000000000000000000000000000000000000000000000",
      "type": "0x2",
      "transactionHash": "0xe37c5a46bc4aefe7880f68811cd1a253e620bebb1de691f9bcd74100e4fb3bd2",
      "transactionIndex": "0x89",
      "blockHash": "0x6b9ebcdeea382361ba5a69fbf5af19df9f2b6af988bbb9b4f218e509a9c820fd",
      "blockNumber": "0x17b3760",
      "gasUsed": "0xb99b",
      "effectiveGasPrice": "0x3e89299",
      "from": "0xdeed2376ad1d9cc54e0cca449b1d7a96939120f9",
      "to": "0xa8f5be8457d6ed5c659647fa8d107c3f2086626a",
      "contractAddress": null
    },
    {
      "status": "0x1",
      "cumulativeGasUsed": "0x11b8322",
      "logs": [
        {
          "address": "0x794cf5948444b14105587455ebe96caace036d52",
          "topics": [
            "0xdd0e34038ac38b2a1ce960229778ac48a8719bc900b6c4f8d0475c6e8b385a60",
            "0x000000000000000000000000a73c94969de90edb159d29922c42ff24bedfa085"
          ],
          "data": "0x",
          "blockHash": "0x367972ed5e8306adfccee575cf2ffe77022a2654ff3e040875c66cec3b0df1c1",
          "blockNumber": "0x17b3761",
          "blockTimestamp": "0x69d979f3",
          "transactionHash": "0xb74429f88655839bd4a0ed105268598b6f94471b2343300cedf17120e0e1417f",
          "transactionIndex": "0x98",
          "logIndex": "0x194",
          "removed": false
        }
      ],
      "logsBloom": "0x00000000000000000000000000000000000000000000000000000000100000000000000000000000000000000000000000004000000000000000000000000000000000400000000000000000000000000000000000000000000000000000000000000000000000000000000000000000000000000000000000000000000000000000000000000000000000000000000000000000000000000000000000000000000000000000000000000000000000000000100000000000000000000040000000000000000000000020000000000000000000000000000000000000000010000000400000000000800000000000000000000000000000000000000000000000",
      "type": "0x2",
      "transactionHash": "0xb74429f88655839bd4a0ed105268598b6f94471b2343300cedf17120e0e1417f",
      "transactionIndex": "0x98",
      "blockHash": "0x367972ed5e8306adfccee575cf2ffe77022a2654ff3e040875c66cec3b0df1c1",
      "blockNumber": "0x17b3761",
      "gasUsed": "0xcce1",
      "effectiveGasPrice": "0x3eaab8c",
      "from": "0xdeed2376ad1d9cc54e0cca449b1d7a96939120f9",
      "to": "0x794cf5948444b14105587455ebe96caace036d52",
      "contractAddress": null
    },
    {
      "status": "0x1",
      "cumulativeGasUsed": "0xcffb62",
      "logs": [
        {
          "address": "0x794cf5948444b14105587455ebe96caace036d52",
          "topics": [
            "0xa8dd46fe41c432577d30ef7c761e2ef822cd09c86bbfb1c24d80387c798e60a3",
            "0x000000000000000000000000a73c94969de90edb159d29922c42ff24bedfa085"
          ],
          "data": "0x",
          "blockHash": "0xf0877a28e91341e99703bcd399eae65b7657e47c3ddd9989d7cd1490574a5681",
          "blockNumber": "0x17b3763",
          "blockTimestamp": "0x69d97a0b",
          "transactionHash": "0x177417da7c2678b4f6e82d3a83b1047c6f3ad848f6b6e3da40745b05b42111de",
          "transactionIndex": "0x7a",
          "logIndex": "0x121",
          "removed": false
        }
      ],
      "logsBloom": "0x00000000000000000000000000000000000000000000000000000000100000000000000000000000000000000000000000000000000000000000000000000000000000000000000000000000000000000000000000000000000000000000000000000000000000000000000000000000008000000000000010000000000000000000000000000000000000000000000000000000000000000000000000000000000000000000000000000000000000000000100000000000000000000040000000000000000000000020000000000000000000000000000010000000000000000000400000000000800000000000000000000000000000000000000000000000",
      "type": "0x2",
      "transactionHash": "0x177417da7c2678b4f6e82d3a83b1047c6f3ad848f6b6e3da40745b05b42111de",
      "transactionIndex": "0x7a",
      "blockHash": "0xf0877a28e91341e99703bcd399eae65b7657e47c3ddd9989d7cd1490574a5681",
      "blockNumber": "0x17b3763",
      "gasUsed": "0xb99b",
      "effectiveGasPrice": "0x3c4e422",
      "from": "0xdeed2376ad1d9cc54e0cca449b1d7a96939120f9",
      "to": "0x794cf5948444b14105587455ebe96caace036d52",
      "contractAddress": null
    },
    {
      "status": "0x1",
      "cumulativeGasUsed": "0x110e471",
      "logs": [
        {
          "address": "0x6a79dce61a12aa4b75449e0b03746260765d07df",
          "topics": [
            "0x184450df2e323acec0ed3b5c7531b81f9b4cdef7914dfd4c0a4317416bb5251b",
            "0x000000000000000000000000deed2376ad1d9cc54e0cca449b1d7a96939120f9"
          ],
          "data": "0x",
          "blockHash": "0x6ab5858e4fd0e69430df1892ef07ec5149270c8a1c97d5259db57167fd08a2a3",
          "blockNumber": "0x17b3764",
          "blockTimestamp": "0x69d97a17",
          "transactionHash": "0x69c680f941ad37fe31ae15ffac4602364fb7597e59bd742526ba677c8747a686",
          "transactionIndex": "0x92",
          "logIndex": "0x1d8",
          "removed": false
        }
      ],
      "logsBloom": "0x00000000000000000000000000000000000000000000800000000000004000000000000000000000000000000000000000000000000000000000000000000000000000000000000000000000000000000000000000000000002000000000000000000000000000000000000000000000000000000000000000000020000000080000000000000000000000000000000000000000000000000000000000000000000000000000000000000000000000000000000000000000000000000000000000000000000000000008000000000020000000000000000000000000000000000000020000000000000000000000000000000000000000000040000000000000",
      "type": "0x2",
      "transactionHash": "0x69c680f941ad37fe31ae15ffac4602364fb7597e59bd742526ba677c8747a686",
      "transactionIndex": "0x92",
      "blockHash": "0x6ab5858e4fd0e69430df1892ef07ec5149270c8a1c97d5259db57167fd08a2a3",
      "blockNumber": "0x17b3764",
      "gasUsed": "0x6f40",
      "effectiveGasPrice": "0x3c812f1",
      "from": "0xdeed2376ad1d9cc54e0cca449b1d7a96939120f9",
      "to": "0x6a79dce61a12aa4b75449e0b03746260765d07df",
      "contractAddress": null
    },
    {
      "status": "0x1",
      "cumulativeGasUsed": "0x939df7",
      "logs": [
        {
          "address": "0x6a79dce61a12aa4b75449e0b03746260765d07df",
          "topics": [
            "0x8e066a7a19e3d1aaa91c6958a58bf4cafce6fc1ced39e50a486f94dc58a8ca05",
            "0x000000000000000000000000deed2376ad1d9cc54e0cca449b1d7a96939120f9"
          ],
          "data": "0x",
          "blockHash": "0x301f4c6e7d3cbb7f4994f2da02a8b6bcfda5449fdbd1a9acae42733480a7c35a",
          "blockNumber": "0x17b3765",
          "blockTimestamp": "0x69d97a23",
          "transactionHash": "0xea8a0ff9d8d13637ac559f62bdf4119678b821c261db03b71d1f55629067d57c",
          "transactionIndex": "0x57",
          "logIndex": "0xb9",
          "removed": false
        }
      ],
      "logsBloom": "0x00000000000000000000000000000000000000000000800000000000004000000000000000000000000000000000200000000000000000000000000000000000000000000000000000000000000000000000000000000000000000000000000000000000000000000000000000000000000000000000000000000000000000080000000000000000000000000000000000000000000000000000000000000000000000000000000000000000000000000000000000000000000000000000000000000000010000000008000000000020000000000000000000000000000000000000020000000000000000000000000000002000000000000000000000000000",
      "type": "0x2",
      "transactionHash": "0xea8a0ff9d8d13637ac559f62bdf4119678b821c261db03b71d1f55629067d57c",
      "transactionIndex": "0x57",
      "blockHash": "0x301f4c6e7d3cbb7f4994f2da02a8b6bcfda5449fdbd1a9acae42733480a7c35a",
      "blockNumber": "0x17b3765",
      "gasUsed": "0x5bf1",
      "effectiveGasPrice": "0x3bbba2e",
      "from": "0xdeed2376ad1d9cc54e0cca449b1d7a96939120f9",
      "to": "0x6a79dce61a12aa4b75449e0b03746260765d07df",
      "contractAddress": null
    },
    {
      "status": "0x1",
      "cumulativeGasUsed": "0x31fa0cb",
      "logs": [
        {
          "address": "0xb59cb4d3075a8ce5013c78e8bd7ada3fd1300f7f",
          "topics": [
            "0x184450df2e323acec0ed3b5c7531b81f9b4cdef7914dfd4c0a4317416bb5251b",
            "0x000000000000000000000000deed2376ad1d9cc54e0cca449b1d7a96939120f9"
          ],
          "data": "0x",
          "blockHash": "0x1d2ab46877e3804fb2c1803e9bbd19b777ccd624974988adad8e1900a07efa02",
          "blockNumber": "0x17b3767",
          "blockTimestamp": "0x69d97a3b",
          "transactionHash": "0x7e61720b9523177c1a7d6678af518444462e8c3d6de47e82587ff01c4f791cc2",
          "transactionIndex": "0xa2",
          "logIndex": "0x48a",
          "removed": false
        }
      ],
      "logsBloom": "0x00000000000000000000000000000000000000000000800000000000000008000000000000000000000000000000000000000000000000000000000000000000000000000000000000000000000000000000000000000000002000000000000000000000000000000000000000000000000000000004000000000020000000000000000000000000000000000000000000000000000000000000000000000000000000000000000000000000000000000000000000000000000000000000000000000000000000000008000000000000000000000000000000000000000000000000020000000000000000000000000000010000000000000040000000000000",
      "type": "0x2",
      "transactionHash": "0x7e61720b9523177c1a7d6678af518444462e8c3d6de47e82587ff01c4f791cc2",
      "transactionIndex": "0xa2",
      "blockHash": "0x1d2ab46877e3804fb2c1803e9bbd19b777ccd624974988adad8e1900a07efa02",
      "blockNumber": "0x17b3767",
      "gasUsed": "0x6f6d",
      "effectiveGasPrice": "0x39cf9af",
      "from": "0xdeed2376ad1d9cc54e0cca449b1d7a96939120f9",
      "to": "0xb59cb4d3075a8ce5013c78e8bd7ada3fd1300f7f",
      "contractAddress": null
    },
    {
      "status": "0x1",
      "cumulativeGasUsed": "0xe545aa",
      "logs": [
        {
          "address": "0xb59cb4d3075a8ce5013c78e8bd7ada3fd1300f7f",
          "topics": [
            "0x8e066a7a19e3d1aaa91c6958a58bf4cafce6fc1ced39e50a486f94dc58a8ca05",
            "0x000000000000000000000000deed2376ad1d9cc54e0cca449b1d7a96939120f9"
          ],
          "data": "0x",
          "blockHash": "0x46da025055e196c04f2bb3f92299c74ccfcebdb594fed4323ac45cb1e5a5ee6d",
          "blockNumber": "0x17b376a",
          "blockTimestamp": "0x69d97a5f",
          "transactionHash": "0xd8c7156d211325d5eabdc77d31403fc383a66471f1fbecd5fea0b2c5de1b5fc2",
          "transactionIndex": "0x69",
          "logIndex": "0x188",
          "removed": false
        }
      ],
      "logsBloom": "0x00000000000000000000000000000000000000000000800000000000000008000000000000000000000000000000200000000000000000000000000000000000000000000000000000000000000000000000000000000000000000000000000000000000000000000000000000000000000000000004000000000000000000000000000000000000000000000000000000000000000000000000000000000000000000000000000000000000000000000000000000000000000000000000000000000000010000000008000000000000000000000000000000000000000000000000020000000000000000000000000000012000000000000000000000000000",
      "type": "0x2",
      "transactionHash": "0xd8c7156d211325d5eabdc77d31403fc383a66471f1fbecd5fea0b2c5de1b5fc2",
      "transactionIndex": "0x69",
      "blockHash": "0x46da025055e196c04f2bb3f92299c74ccfcebdb594fed4323ac45cb1e5a5ee6d",
      "blockNumber": "0x17b376a",
      "gasUsed": "0x5bf1",
      "effectiveGasPrice": "0x39acd49",
      "from": "0xdeed2376ad1d9cc54e0cca449b1d7a96939120f9",
      "to": "0xb59cb4d3075a8ce5013c78e8bd7ada3fd1300f7f",
      "contractAddress": null
    },
    {
      "status": "0x1",
      "cumulativeGasUsed": "0xc0c136",
      "logs": [
        {
          "address": "0xa8f5be8457d6ed5c659647fa8d107c3f2086626a",
          "topics": [
            "0x184450df2e323acec0ed3b5c7531b81f9b4cdef7914dfd4c0a4317416bb5251b",
            "0x000000000000000000000000deed2376ad1d9cc54e0cca449b1d7a96939120f9"
          ],
          "data": "0x",
          "blockHash": "0x96865e0fda87ec9a64d3ad81e979ac55e20716abc2aac5600afb8e5f0efaab9d",
          "blockNumber": "0x17b376c",
          "blockTimestamp": "0x69d97a77",
          "transactionHash": "0xd4b02df0d10f544b48fb270bd8dc85a9f38f92af3b02ca3e0aa9b0215da10e69",
          "transactionIndex": "0x70",
          "logIndex": "0xc3",
          "removed": false
        }
      ],
      "logsBloom": "0x00000000000000000000000000000000000000000000800000000000000000000000000000000000000000000000000000000000000000000000000000000000000000000000000000000000000000000200000000000000002000000000000000000000000000000000000000000000000000000000000000000020000000000000000000000000000000000000000000000000000000000000000000000000000000000002000000000000000000000000000000000000000000000000000000000000000080000008000000000000000000000000000000000000000000000000020000000000000000000000000000000000000000000040000000000000",
      "type": "0x2",
      "transactionHash": "0xd4b02df0d10f544b48fb270bd8dc85a9f38f92af3b02ca3e0aa9b0215da10e69",
      "transactionIndex": "0x70",
      "blockHash": "0x96865e0fda87ec9a64d3ad81e979ac55e20716abc2aac5600afb8e5f0efaab9d",
      "blockNumber": "0x17b376c",
      "gasUsed": "0x6f2a",
      "effectiveGasPrice": "0x3c024ac",
      "from": "0xdeed2376ad1d9cc54e0cca449b1d7a96939120f9",
      "to": "0xa8f5be8457d6ed5c659647fa8d107c3f2086626a",
      "contractAddress": null
    },
    {
      "status": "0x1",
      "cumulativeGasUsed": "0x10a5ef3",
      "logs": [
        {
          "address": "0xa8f5be8457d6ed5c659647fa8d107c3f2086626a",
          "topics": [
            "0x8e066a7a19e3d1aaa91c6958a58bf4cafce6fc1ced39e50a486f94dc58a8ca05",
            "0x000000000000000000000000deed2376ad1d9cc54e0cca449b1d7a96939120f9"
          ],
          "data": "0x",
          "blockHash": "0xdfc030d2195d121053cb33b84208033d17bf1daed433ccbe0e881ccb18f78ebb",
          "blockNumber": "0x17b376d",
          "blockTimestamp": "0x69d97a83",
          "transactionHash": "0xb36e87a61f2407d562f47f1f194f2f483f12999446bebeea780b90ea92317743",
          "transactionIndex": "0x78",
          "logIndex": "0x184",
          "removed": false
        }
      ],
      "logsBloom": "0x00000000000000000000000000000000000000000000800000000000000000000000000000000000000000000000200000000000000000000000000000000000000000000000000000000000000000000200000000000000000000000000000000000000000000000000000000000000000000000000000000000000000000000000000000000000000000000000000000000000000000000000000000000000000000000002000000000000000000000000000000000000000000000000000000000000010080000008000000000000000000000000000000000000000000000000020000000000000000000000000000002000000000000000000000000000",
      "type": "0x2",
      "transactionHash": "0xb36e87a61f2407d562f47f1f194f2f483f12999446bebeea780b90ea92317743",
      "transactionIndex": "0x78",
      "blockHash": "0xdfc030d2195d121053cb33b84208033d17bf1daed433ccbe0e881ccb18f78ebb",
      "blockNumber": "0x17b376d",
      "gasUsed": "0x5bf1",
      "effectiveGasPrice": "0x3c6fa48",
      "from": "0xdeed2376ad1d9cc54e0cca449b1d7a96939120f9",
      "to": "0xa8f5be8457d6ed5c659647fa8d107c3f2086626a",
      "contractAddress": null
    },
    {
      "status": "0x1",
      "cumulativeGasUsed": "0x381116a",
      "logs": [
        {
          "address": "0x794cf5948444b14105587455ebe96caace036d52",
          "topics": [
            "0x184450df2e323acec0ed3b5c7531b81f9b4cdef7914dfd4c0a4317416bb5251b",
            "0x000000000000000000000000deed2376ad1d9cc54e0cca449b1d7a96939120f9"
          ],
          "data": "0x",
          "blockHash": "0xd410fdb21a354ff8fb387506fd5cd9ab84382f3dc75b61b2c1391515d169ad29",
          "blockNumber": "0x17b376e",
          "blockTimestamp": "0x69d97a8f",
          "transactionHash": "0x39453f98c2c35c3c98b47c3de2a4304894cd5c5c7ad06fb20ed6382b2f6c65d7",
          "transactionIndex": "0x70",
          "logIndex": "0x2ee",
          "removed": false
        }
      ],
      "logsBloom": "0x00000000000000000000000000000000000000000000800000000000100000000000000000000000000000000000000000000000000000000000000000000000000000000000000000000000000000000000000000000000002000000000000000000000000000000000000000000000000000000000000000000020000000000000000000000000000000000000000000000000000000000000000000000000000000000000000000000000000000000000100000000000000000000040000000000000000000000008000000000000000000000000000000000000000000000000020000000000000000000000000000000000000000000040000000000000",
      "type": "0x2",
      "transactionHash": "0x39453f98c2c35c3c98b47c3de2a4304894cd5c5c7ad06fb20ed6382b2f6c65d7",
      "transactionIndex": "0x70",
      "blockHash": "0xd410fdb21a354ff8fb387506fd5cd9ab84382f3dc75b61b2c1391515d169ad29",
      "blockNumber": "0x17b376e",
      "gasUsed": "0x6f40",
      "effectiveGasPrice": "0x3b94fa6",
      "from": "0xdeed2376ad1d9cc54e0cca449b1d7a96939120f9",
      "to": "0x794cf5948444b14105587455ebe96caace036d52",
      "contractAddress": null
    },
    {
      "status": "0x1",
      "cumulativeGasUsed": "0x17ca3b6",
      "logs": [
        {
          "address": "0x794cf5948444b14105587455ebe96caace036d52",
          "topics": [
            "0x8e066a7a19e3d1aaa91c6958a58bf4cafce6fc1ced39e50a486f94dc58a8ca05",
            "0x000000000000000000000000deed2376ad1d9cc54e0cca449b1d7a96939120f9"
          ],
          "data": "0x",
          "blockHash": "0x3558cb40224961778726e136f8f9a696619fc22eea6b69b37f78d891999154b8",
          "blockNumber": "0x17b3770",
          "blockTimestamp": "0x69d97aa7",
          "transactionHash": "0x11f632e4b4a70d8183896cf94dd89ac282347059e0457f1246a7a58ed9da2db0",
          "transactionIndex": "0x92",
          "logIndex": "0x2eb",
          "removed": false
        }
      ],
      "logsBloom": "0x00000000000000000000000000000000000000000000800000000000100000000000000000000000000000000000200000000000000000000000000000000000000000000000000000000000000000000000000000000000000000000000000000000000000000000000000000000000000000000000000000000000000000000000000000000000000000000000000000000000000000000000000000000000000000000000000000000000000000000000100000000000000000000040000000000000010000000008000000000000000000000000000000000000000000000000020000000000000000000000000000002000000000000000000000000000",
      "type": "0x2",
      "transactionHash": "0x11f632e4b4a70d8183896cf94dd89ac282347059e0457f1246a7a58ed9da2db0",
      "transactionIndex": "0x92",
      "blockHash": "0x3558cb40224961778726e136f8f9a696619fc22eea6b69b37f78d891999154b8",
      "blockNumber": "0x17b3770",
      "gasUsed": "0x5bf1",
      "effectiveGasPrice": "0x3c04dbd",
      "from": "0xdeed2376ad1d9cc54e0cca449b1d7a96939120f9",
      "to": "0x794cf5948444b14105587455ebe96caace036d52",
      "contractAddress": null
    }
  ],
  "libraries": [],
  "pending": [],
  "returns": {},
  "timestamp": 1775860511793,
  "chain": 1,
  "commit": "ab9f552"
}