{
  "transactions": [
    {
      "hash": "0x3ee58c807ecd7ae02daf1bf547e2d5dd3067efe8cfb5262233a729df4f6716da",
      "transactionType": "CREATE",
      "contractName": "MockUSDT",
      "contractAddress": "0x7898361f8438a60a25cc89e11941b13fcddb2ca5",
      "function": null,
      "arguments": null,
      "transaction": {
        "from": "0xdef12db2bd62f88c8d59807e0ce9868279fd7fef",
        "gas": "0xb96d5",
        "value": "0x0",
        "input": "0x608060405234801561000f575f5ffd5b5060408051808201909152600a81526915195d1a195c881554d160b21b602082015260039061003e9082610116565b50604080518082019091526004808252631554d11560e21b6020830152906100669082610116565b50600580546001600160a01b031916331790556101d0565b634e487b7160e01b5f52604160045260245ffd5b600181811c908216806100a657607f821691505b6020821081036100c457634e487b7160e01b5f52602260045260245ffd5b50919050565b601f82111561011157805f5260205f20601f840160051c810160208510156100ef5750805b601f840160051c820191505b8181101561010e575f81556001016100fb565b50505b505050565b81516001600160401b0381111561012f5761012f61007e565b6101438161013d8454610092565b846100ca565b6020601f821160018114610175575f831561015e5750848201515b5f19600385901b1c1916600184901b17845561010e565b5f84815260208120601f198516915b828110156101a45787850151825560209485019460019092019101610184565b50848210156101c157868401515f19600387901b60f8161c191681555b50505050600190811b01905550565b610844806101dd5f395ff3fe608060405234801561000f575f5ffd5b50600436106100f0575f3560e01c806370a0823111610093578063daea85c511610063578063daea85c514610244578063dd62ed3e14610257578063f9f92be414610281578063fcf4b4aa146102a3575f5ffd5b806370a08231146101c55780638da5cb5b146101e457806395d89b4114610229578063a9059cbb14610231575f5ffd5b806323b872dd116100ce57806323b872dd1461014b578063313ce5671461016057806340c10f191461017a57806359bf1abe1461018d575f5ffd5b806306fdde03146100f4578063095ea7b31461011257806318160ddd14610135575b5f5ffd5b6100fc610306565b6040516101099190610603565b60405180910390f35b61012561012036600461067e565b610392565b6040519015158152602001610109565b61013d5f5481565b604051908152602001610109565b61015e6101593660046106a6565b6103cd565b005b610168600681565b60405160ff9091168152602001610109565b61015e61018836600461067e565b6104d7565b61012561019b3660046106e0565b73ffffffffffffffffffffffffffffffffffffffff165f9081526006602052604090205460ff1690565b61013d6101d33660046106e0565b60016020525f908152604090205481565b6005546102049073ffffffffffffffffffffffffffffffffffffffff1681565b60405173ffffffffffffffffffffffffffffffffffffffff9091168152602001610109565b6100fc61056a565b61015e61023f36600461067e565b610577565b6101256102523660046106e0565b6105c8565b61013d610265366004610700565b600260209081525f928352604080842090915290825290205481565b61012561028f3660046106e0565b60066020525f908152604090205460ff1681565b61015e6102b1366004610731565b73ffffffffffffffffffffffffffffffffffffffff919091165f90815260066020526040902080547fffffffffffffffffffffffffffffffffffffffffffffffffffffffffffffff0016911515919091179055565b600380546103139061076a565b80601f016020809104026020016040519081016040528092919081815260200182805461033f9061076a565b801561038a5780601f106103615761010080835404028352916020019161038a565b820191905f5260205f20905b81548152906001019060200180831161036d57829003601f168201915b505050505081565b335f90815260026020908152604080832073ffffffffffffffffffffffffffffffffffffffff86168452909152902081905560015b92915050565b73ffffffffffffffffffffffffffffffffffffffff83165f9081526002602090815260408083203384529091529020547fffffffffffffffffffffffffffffffffffffffffffffffffffffffffffffffff811461045f5761042e82826107e8565b73ffffffffffffffffffffffffffffffffffffffff85165f9081526002602090815260408083203384529091529020555b73ffffffffffffffffffffffffffffffffffffffff84165f90815260016020526040812080548492906104939084906107e8565b909155505073ffffffffffffffffffffffffffffffffffffffff83165f90815260016020526040812080548492906104cc9084906107fb565b909155505050505050565b60055473ffffffffffffffffffffffffffffffffffffffff16331461055c576040517f08c379a000000000000000000000000000000000000000000000000000000000815260206004820152601d60248201527f4d6f636b555344543a206f6e6c79206f776e65722063616e206d696e74000000604482015260640160405180910390fd5b61056682826105f3565b5050565b600480546103139061076a565b335f90815260016020526040812080548392906105959084906107e8565b909155505073ffffffffffffffffffffffffffffffffffffffff9091165f90815260016020526040902080549091019055565b5f6103c7827fffffffffffffffffffffffffffffffffffffffffffffffffffffffffffffffff610392565b805f5f82825461059591906107fb565b602081525f82518060208401528060208501604085015e5f6040828501015260407fffffffffffffffffffffffffffffffffffffffffffffffffffffffffffffffe0601f83011684010191505092915050565b803573ffffffffffffffffffffffffffffffffffffffff81168114610679575f5ffd5b919050565b5f5f6040838503121561068f575f5ffd5b61069883610656565b946020939093013593505050565b5f5f5f606084860312156106b8575f5ffd5b6106c184610656565b92506106cf60208501610656565b929592945050506040919091013590565b5f602082840312156106f0575f5ffd5b6106f982610656565b9392505050565b5f5f60408385031215610711575f5ffd5b61071a83610656565b915061072860208401610656565b90509250929050565b5f5f60408385031215610742575f5ffd5b61074b83610656565b91506020830135801515811461075f575f5ffd5b809150509250929050565b600181811c9082168061077e57607f821691505b6020821081036107b5577f4e487b71000000000000000000000000000000000000000000000000000000005f52602260045260245ffd5b50919050565b7f4e487b71000000000000000000000000000000000000000000000000000000005f52601160045260245ffd5b818103818111156103c7576103c76107bb565b808201808211156103c7576103c76107bb56fea2646970667358221220cea7288b57a7c2518893682aaeab4296b4a0c65116b292103633b4455bbffcb164736f6c634300081c0033",
        "nonce": "0xdc",
        "chainId": "0xaa36a7"
      },
      "additionalContracts": [],
      "isFixedGasLimit": false
    },
    {
      "hash": "0xdfefb8e8ee42c60e898bfe6f774c94f2ad69fdd48e1065dcf2e3a484a8653a83",
      "transactionType": "CALL",
      "contractName": "MockUSDT",
      "contractAddress": "0x7898361f8438a60a25cc89e11941b13fcddb2ca5",
      "function": "mint(address,uint256)",
      "arguments": [
        "0xB05502bf20342331F42A7B80Aa4bAB3F8cA86C0F",
        "100000000000000000"
      ],
      "transaction": {
        "from": "0xdef12db2bd62f88c8d59807e0ce9868279fd7fef",
        "to": "0x7898361f8438a60a25cc89e11941b13fcddb2ca5",
        "gas": "0x187af",
        "value": "0x0",
        "input": "0x40c10f19000000000000000000000000b05502bf20342331f42a7b80aa4bab3f8ca86c0f000000000000000000000000000000000000000000000000016345785d8a0000",
        "nonce": "0xdd",
        "chainId": "0xaa36a7"
      },
      "additionalContracts": [],
      "isFixedGasLimit": false
    },
    {
      "hash": "0x135bcab696874bfc2c296090bb2bcd5f9ea5b7e5963cf58f32069bad7b47364f",
      "transactionType": "CREATE",
      "contractName": "MaseerPrice",
      "contractAddress": "0x9d69875c39a1e30050859a59bbf8eaee38379303",
      "function": null,
      "arguments": null,
      "transaction": {
        "from": "0xdef12db2bd62f88c8d59807e0ce9868279fd7fef",
        "gas": "0xd3e2d",
        "value": "0x0",
        "input": "0x6080604052348015600e575f5ffd5b50601633601a565b6081565b607e7f27ad9db40d40315deb7c9733dae204372b3012815db31bb8e8e56d6c68d6ac248260405160200160609291909182526001600160a01b0316602082015260400190565b60408051601f19818403018152919052805160209091012060019055565b50565b610abd8061008e5f395ff3fe608060405234801561000f575f5ffd5b50600436106100b9575f3560e01c806365fae35e116100725780639c52a7f1116100585780639c52a7f114610153578063bf353dbb14610166578063e9b674b914610179575f5ffd5b806365fae35e146101385780638456cb591461014b575f5ffd5b806332145f90116100a257806332145f90146100f557806357de26a41461010a5780635c975abb14610120575f5ffd5b806306fdde03146100bd578063313ce567146100db575b5f5ffd5b6100c561018c565b6040516100d2919061090d565b60405180910390f35b6100e36101bc565b60405160ff90911681526020016100d2565b610108610103366004610960565b6101e6565b005b610112610286565b6040519081526020016100d2565b6101286102b0565b60405190151581526020016100d2565b610108610146366004610977565b6102ea565b61010861036c565b610108610161366004610977565b6103f0565b610112610174366004610977565b610472565b6101086101873660046109b1565b6104ce565b60606101b77f9bc13b9bea85446242b96c637f96a994030a999e4a37800a69c2f798a672860b61069d565b905090565b5f6101b77fa5c4b505b3328f1f7b143b7cbfe5c1d30e20856c207cab51443a27fedf5d63166106af565b604080517f27ad9db40d40315deb7c9733dae204372b3012815db31bb8e8e56d6c68d6ac246020820152339181019190915261023a906060015b604051602081830303815290604052805190602001205490565b60011461027a576040517f4a0bfec10000000000000000000000000000000000000000000000000000000081523360048201526024015b60405180910390fd5b610283816106b8565b50565b5f6101b77f0f6e463d71d43f924715baa2688119392f80a313b4437e6945310d50dba6177a6106af565b5f6102da7f0f6e463d71d43f924715baa2688119392f80a313b4437e6945310d50dba6177a6106af565b156102e457505f90565b50600190565b604080517f27ad9db40d40315deb7c9733dae204372b3012815db31bb8e8e56d6c68d6ac246020820152339181019190915261032890606001610220565b600114610363576040517f4a0bfec1000000000000000000000000000000000000000000000000000000008152336004820152602401610271565b61028381610710565b604080517f27ad9db40d40315deb7c9733dae204372b3012815db31bb8e8e56d6c68d6ac24602082015233918101919091526103aa90606001610220565b6001146103e5576040517f4a0bfec1000000000000000000000000000000000000000000000000000000008152336004820152602401610271565b6103ee5f6106b8565b565b604080517f27ad9db40d40315deb7c9733dae204372b3012815db31bb8e8e56d6c68d6ac246020820152339181019190915261042e90606001610220565b600114610469576040517f4a0bfec1000000000000000000000000000000000000000000000000000000008152336004820152602401610271565b61028381610783565b5f6104c87f27ad9db40d40315deb7c9733dae204372b3012815db31bb8e8e56d6c68d6ac248360405160200161022092919091825273ffffffffffffffffffffffffffffffffffffffff16602082015260400190565b92915050565b604080517f27ad9db40d40315deb7c9733dae204372b3012815db31bb8e8e56d6c68d6ac246020820152339181019190915261050c90606001610220565b600114610547576040517f4a0bfec1000000000000000000000000000000000000000000000000000000008152336004820152602401610271565b817f70726963650000000000000000000000000000000000000000000000000000000361057c57610577816106b8565b61065f565b817f6e616d6500000000000000000000000000000000000000000000000000000000036105cc576105777f9bc13b9bea85446242b96c637f96a994030a999e4a37800a69c2f798a672860b829055565b817f646563696d616c730000000000000000000000000000000000000000000000001480156105fc575060128111155b1561062a576105777fa5c4b505b3328f1f7b143b7cbfe5c1d30e20856c207cab51443a27fedf5d6316829055565b6040517f35802fa300000000000000000000000000000000000000000000000000000000815260048101829052602401610271565b817f943a793c11a909d4409e7706d8c3d1467960e08f6141234950042994856812df8260405161069191815260200190565b60405180910390a25050565b60606104c86106aa835490565b6107f5565b5f6104c8825490565b6106e17f0f6e463d71d43f924715baa2688119392f80a313b4437e6945310d50dba6177a829055565b604051429082907f92664190cca12aca9cd5309d87194bdda75bb51362d71c06e1a6f75c7c765711905f90a350565b6102837f27ad9db40d40315deb7c9733dae204372b3012815db31bb8e8e56d6c68d6ac248260405160200161076592919091825273ffffffffffffffffffffffffffffffffffffffff16602082015260400190565b6040516020818303038152906040528051906020012060015f1b9055565b6102837f27ad9db40d40315deb7c9733dae204372b3012815db31bb8e8e56d6c68d6ac24826040516020016107d892919091825273ffffffffffffffffffffffffffffffffffffffff16602082015260400190565b604051602081830303815290604052805190602001205f5f1b9055565b60605f5b60208110801561083f5750828160208110610816576108166109d1565b1a60f81b7fff000000000000000000000000000000000000000000000000000000000000001615155b15610856578061084e816109fe565b9150506107f9565b5f8167ffffffffffffffff81111561087057610870610a5a565b6040519080825280601f01601f19166020018201604052801561089a576020820181803683370190505b5090505f5b82811015610905578481602081106108b9576108b96109d1565b1a60f81b8282815181106108cf576108cf6109d1565b60200101907effffffffffffffffffffffffffffffffffffffffffffffffffffffffffffff191690815f1a90535060010161089f565b509392505050565b602081525f82518060208401528060208501604085015e5f6040828501015260407fffffffffffffffffffffffffffffffffffffffffffffffffffffffffffffffe0601f83011684010191505092915050565b5f60208284031215610970575f5ffd5b5035919050565b5f60208284031215610987575f5ffd5b813573ffffffffffffffffffffffffffffffffffffffff811681146109aa575f5ffd5b9392505050565b5f5f604083850312156109c2575f5ffd5b50508035926020909101359150565b7f4e487b71000000000000000000000000000000000000000000000000000000005f52603260045260245ffd5b5f7fffffffffffffffffffffffffffffffffffffffffffffffffffffffffffffffff8203610a53577f4e487b71000000000000000000000000000000000000000000000000000000005f52601160045260245ffd5b5060010190565b7f4e487b71000000000000000000000000000000000000000000000000000000005f52604160045260245ffdfea2646970667358221220f47e893fe014c9943d86093238d528dd304df0853d485fd0cd408e3f735de62564736f6c634300081c0033",
        "nonce": "0xde",
        "chainId": "0xaa36a7"
      },
      "additionalContracts": [],
      "isFixedGasLimit": false
    },
    {
      "hash": "0x461b924f1589b5ada7281a5e31cea80b81ed67ce83023b8a143aa17fa2cb1985",
      "transactionType": "CREATE",
      "contractName": "MaseerProxy",
      "contractAddress": "0x3d773d2c05aef9fd41715fddb726aa2aaca5f77e",
      "function": null,
      "arguments": [
        "0x9D69875c39A1e30050859a59bBF8eaee38379303"
      ],
      "transaction": {
        "from": "0xdef12db2bd62f88c8d59807e0ce9868279fd7fef",
        "gas": "0x7325d",
        "value": "0x0",
        "input": "0x608060405234801561000f575f5ffd5b506040516105ec3803806105ec83398101604081905261002e91610168565b610039336001610051565b610042336100b7565b61004b8161011d565b50610195565b5f7f312ed9ac9b839e579b0572e42b6b61a1d0e768aa92df633e58ace1e6a3633e79836040516020016100979291909182526001600160a01b0316602082015260400190565b604051602081830303815290604052805190602001209050818155505050565b5f7f27ad9db40d40315deb7c9733dae204372b3012815db31bb8e8e56d6c68d6ac24826040516020016100fd9291909182526001600160a01b0316602082015260400190565b604051602081830303815290604052805190602001209050600181555050565b6001600160a01b038116610144576040516318ce8b9560e31b815260040160405180910390fd5b7f0e4c00c0fe9fb028e73dd325b95165d8884bc26853613a6b5131a12effdd8ddd55565b5f60208284031215610178575f5ffd5b81516001600160a01b038116811461018e575f5ffd5b9392505050565b61044a806101a25f395ff3fe608060405234801561000f575f5ffd5b5060043610610065575f3560e01c8063266a164a1161004e578063266a164a146100d957806360cd9853146100ec5780638abf60771461011257610065565b8063048046c1146100b35780630715940e146100c6575b5f61008e7f0e4c00c0fe9fb028e73dd325b95165d8884bc26853613a6b5131a12effdd8ddd5490565b9050604051365f82375f5f3683855af43d5f833e8080156100ad573d83f35b3d83fd5b005b6100b16100c13660046103da565b61013f565b6100b16100d43660046103da565b61018d565b6100b16100e73660046103da565b6101d9565b6100ff6100fa3660046103da565b610226565b6040519081526020015b60405180910390f35b61011a610236565b60405173ffffffffffffffffffffffffffffffffffffffff9091168152602001610109565b61014833610264565b600114610181576040517fea8e4eb500000000000000000000000000000000000000000000000000000000815260040160405180910390fd5b61018a816102f6565b50565b61019633610264565b6001146101cf576040517fea8e4eb500000000000000000000000000000000000000000000000000000000815260040160405180910390fd5b61018a815f610367565b6101e233610264565b60011461021b576040517fea8e4eb500000000000000000000000000000000000000000000000000000000815260040160405180910390fd5b61018a816001610367565b5f61023082610264565b92915050565b5f61025f7f0e4c00c0fe9fb028e73dd325b95165d8884bc26853613a6b5131a12effdd8ddd5490565b905090565b5f5f7f312ed9ac9b839e579b0572e42b6b61a1d0e768aa92df633e58ace1e6a3633e79836040516020016102b892919091825273ffffffffffffffffffffffffffffffffffffffff16602082015260400190565b604080517fffffffffffffffffffffffffffffffffffffffffffffffffffffffffffffffe08184030181529190528051602090910120549392505050565b73ffffffffffffffffffffffffffffffffffffffff8116610343576040517fc6745ca800000000000000000000000000000000000000000000000000000000815260040160405180910390fd5b7f0e4c00c0fe9fb028e73dd325b95165d8884bc26853613a6b5131a12effdd8ddd55565b5f7f312ed9ac9b839e579b0572e42b6b61a1d0e768aa92df633e58ace1e6a3633e79836040516020016103ba92919091825273ffffffffffffffffffffffffffffffffffffffff16602082015260400190565b604051602081830303815290604052805190602001209050818155505050565b5f602082840312156103ea575f5ffd5b813573ffffffffffffffffffffffffffffffffffffffff8116811461040d575f5ffd5b939250505056fea26469706673582212200785485ad77ba3aaa277c004e29063fe9db3f9943f75962800ad028f720ea9e564736f6c634300081c00330000000000000000000000009d69875c39a1e30050859a59bbf8eaee38379303",
        "nonce": "0xdf",
        "chainId": "0xaa36a7"
      },
      "additionalContracts": [],
      "isFixedGasLimit": false
    },
    {
      "hash": "0x0de92e32d0d4583fe44526918ea6353d39f5dd697528771de4855d1dd0f91039",
      "transactionType": "CREATE",
      "contractName": "MaseerGate",
      "contractAddress": "0x9b5fbb4997f34c3c78c56814dafb8cdc19e4af91",
      "function": null,
      "arguments": null,
      "transaction": {
        "from": "0xdef12db2bd62f88c8d59807e0ce9868279fd7fef",
        "gas": "0x16a825",
        "value": "0x0",
        "input": "0x6080604052348015600e575f5ffd5b50601633601a565b6081565b607e7f27ad9db40d40315deb7c9733dae204372b3012815db31bb8e8e56d6c68d6ac248260405160200160609291909182526001600160a01b0316602082015260400190565b60408051601f19818403018152919052805160209091012060019055565b50565b6113688061008e5f395ff3fe608060405234801561000f575f5ffd5b50600436106101c6575f3560e01c80637486bf47116100fe578063a07c7ce41161009e578063bf353dbb1161006e578063bf353dbb14610330578063cb16262514610343578063ef86cf561461034b578063fbd252461461035e575f5ffd5b8063a07c7ce414610310578063a943dc6c14610318578063bbec93fa14610320578063bce6d67214610328575f5ffd5b806396574580116100d957806396574580146102e557806398b836da146102ed5780639c52a7f1146102f5578063a03738dc14610308575f5ffd5b80637486bf47146102b7578063787a08a6146102ca57806391915ef8146102d2575f5ffd5b80634fc3f41a116101695780635cfc1a51116101445780635cfc1a511461028157806365fae35e146102895780636c88d9e11461029c57806371ebdf4e146102a4575f5ffd5b80634fc3f41a1461024857806359361d8e1461025b5780635c4f46ed1461026e575f5ffd5b806329cbec1a116101a457806329cbec1a1461020d5780632c040527146102155780633fb362b4146102285780634bf365df14610230575f5ffd5b80631447cdf9146101ca578063168ff4f9146101df57806329ae8114146101fa575b5f5ffd5b6101dd6101d8366004611239565b610371565b005b6101e761045b565b6040519081526020015b60405180910390f35b6101dd610208366004611250565b61047d565b6101e76106af565b6101dd610223366004611239565b6106de565b6101e76107aa565b6102386107d4565b60405190151581526020016101f1565b6101dd610256366004611239565b6107f7565b6101dd610269366004611239565b6108ba565b6101e761027c366004611239565b61097b565b6101e7610993565b6101dd610297366004611270565b6109bd565b6101e7610a3f565b6101dd6102b2366004611239565b610a49565b6101dd6102c5366004611239565b610b0a565b6101e7610bd6565b6101dd6102e0366004611239565b610c00565b6101e7610c82565b6101e7610cac565b6101dd610303366004611270565b610cd5565b6101dd610d57565b610238610df6565b6101e7610e11565b6101e7610e1b565b6101e7610e25565b6101e761033e366004611270565b610e4f565b6101e7610ea5565b6101e7610359366004611239565b610ecf565b6101dd61036c366004611239565b610ee1565b604080517f27ad9db40d40315deb7c9733dae204372b3012815db31bb8e8e56d6c68d6ac24602082015233918101919091526103c5906060015b604051602081830303815290604052805190602001205490565b600114610405576040517f4a0bfec10000000000000000000000000000000000000000000000000000000081523360048201526024015b60405180910390fd5b610413426301e133806112d0565b81111561044f576040517f35802fa3000000000000000000000000000000000000000000000000000000008152600481018290526024016103fc565b61045881610fad565b50565b5f5f6104656106af565b905042811015610475575f610477565b805b91505090565b604080517f27ad9db40d40315deb7c9733dae204372b3012815db31bb8e8e56d6c68d6ac24602082015233918101919091526104bb906060016103ab565b6001146104f6576040517f4a0bfec10000000000000000000000000000000000000000000000000000000081523360048201526024016103fc565b817f6f70656e6d696e740000000000000000000000000000000000000000000000000361052a5761052681610fd6565b5050565b817f68616c746d696e740000000000000000000000000000000000000000000000000361055a5761052681610fff565b817f6f70656e6275726e0000000000000000000000000000000000000000000000000361058a5761052681610fad565b817f68616c746275726e000000000000000000000000000000000000000000000000036105ba5761052681611028565b817f627073696e000000000000000000000000000000000000000000000000000000036105ea5761052681611051565b817f6270736f757400000000000000000000000000000000000000000000000000000361061a5761052681611079565b817f636f6f6c646f776e0000000000000000000000000000000000000000000000000361064a57610526816110a2565b817f63617061636974790000000000000000000000000000000000000000000000000361067a57610526816110cb565b6040517f35802fa3000000000000000000000000000000000000000000000000000000008152600481018390526024016103fc565b5f6106d97f9c2ad2c21e274c8b57052f9f0ef73dd8f6e1d917d156e1368bb7cc739cf1f4b16110f4565b905090565b604080517f27ad9db40d40315deb7c9733dae204372b3012815db31bb8e8e56d6c68d6ac246020820152339181019190915261071c906060016103ab565b600114610757576040517f4a0bfec10000000000000000000000000000000000000000000000000000000081523360048201526024016103fc565b610765426301e133806112d0565b8111156107a1576040517f35802fa3000000000000000000000000000000000000000000000000000000008152600481018290526024016103fc565b61045881610fff565b5f6106d97ffcb92606a933a3a2fc95ea37ffc5f3cf5a7a2f3776ccd27ff295f4bc9846f3e66110f4565b5f6107dd610e25565b42101580156106d957506107ef610ea5565b421115905090565b604080517f27ad9db40d40315deb7c9733dae204372b3012815db31bb8e8e56d6c68d6ac2460208201523391810191909152610835906060016103ab565b600114610870576040517f4a0bfec10000000000000000000000000000000000000000000000000000000081523360048201526024016103fc565b6301e133808111156108b1576040517f35802fa3000000000000000000000000000000000000000000000000000000008152600481018290526024016103fc565b610458816110a2565b604080517f27ad9db40d40315deb7c9733dae204372b3012815db31bb8e8e56d6c68d6ac24602082015233918101919091526108f8906060016103ab565b600114610933576040517f4a0bfec10000000000000000000000000000000000000000000000000000000081523360048201526024016103fc565b612710811115610972576040517f35802fa3000000000000000000000000000000000000000000000000000000008152600481018290526024016103fc565b61045881611051565b5f61098d82610988610cac565b6110fd565b92915050565b5f6106d97f223eebe857eb33ee31fe46155467a9e23b253715020bbb26850d321fdc3146ab6110f4565b604080517f27ad9db40d40315deb7c9733dae204372b3012815db31bb8e8e56d6c68d6ac24602082015233918101919091526109fb906060016103ab565b600114610a36576040517f4a0bfec10000000000000000000000000000000000000000000000000000000081523360048201526024016103fc565b61045881611126565b5f5f610465610e25565b604080517f27ad9db40d40315deb7c9733dae204372b3012815db31bb8e8e56d6c68d6ac2460208201523391810191909152610a87906060016103ab565b600114610ac2576040517f4a0bfec10000000000000000000000000000000000000000000000000000000081523360048201526024016103fc565b612710811115610b01576040517f35802fa3000000000000000000000000000000000000000000000000000000008152600481018290526024016103fc565b61045881611079565b604080517f27ad9db40d40315deb7c9733dae204372b3012815db31bb8e8e56d6c68d6ac2460208201523391810191909152610b48906060016103ab565b600114610b83576040517f4a0bfec10000000000000000000000000000000000000000000000000000000081523360048201526024016103fc565b610b91426301e133806112d0565b811115610bcd576040517f35802fa3000000000000000000000000000000000000000000000000000000008152600481018290526024016103fc565b61045881611028565b5f6106d97f09e5415ecbe88722a362e8ef1260b911b06c7c85eb60dd940ec2508f025009c76110f4565b604080517f27ad9db40d40315deb7c9733dae204372b3012815db31bb8e8e56d6c68d6ac2460208201523391810191909152610c3e906060016103ab565b600114610c79576040517f4a0bfec10000000000000000000000000000000000000000000000000000000081523360048201526024016103fc565b610458816110cb565b5f6106d97ff6f62fd4da7bc2b32a6e1e65b29fc84ac47127fe667e702bfad2a308be5e31f36110f4565b5f6106d97e157179f0e328e9155f0e7f3bacad2e41db42b1e0800a411a594382df7a1e646110f4565b604080517f27ad9db40d40315deb7c9733dae204372b3012815db31bb8e8e56d6c68d6ac2460208201523391810191909152610d13906060016103ab565b600114610d4e576040517f4a0bfec10000000000000000000000000000000000000000000000000000000081523360048201526024016103fc565b61045881611199565b604080517f27ad9db40d40315deb7c9733dae204372b3012815db31bb8e8e56d6c68d6ac2460208201523391810191909152610d95906060016103ab565b600114610dd0576040517f4a0bfec10000000000000000000000000000000000000000000000000000000081523360048201526024016103fc565b610dd95f610fd6565b610de25f610fff565b610deb5f610fad565b610df45f611028565b565b5f610dff6106af565b42101580156106d957506107ef6107aa565b5f5f610465610ea5565b5f5f6104656107aa565b5f6106d97fbe1a4dea2a7bf3bca8caa6d30da3b6665e2e170da688038ad0b7269f2e0ebf916110f4565b5f61098d7f27ad9db40d40315deb7c9733dae204372b3012815db31bb8e8e56d6c68d6ac24836040516020016103ab92919091825273ffffffffffffffffffffffffffffffffffffffff16602082015260400190565b5f6106d97fc6806e07b5185a5f2a4a279b21328cdfc10302bba8d637663c0af6df2ce3b5da6110f4565b5f61098d82610edc610c82565b61120b565b604080517f27ad9db40d40315deb7c9733dae204372b3012815db31bb8e8e56d6c68d6ac2460208201523391810191909152610f1f906060016103ab565b600114610f5a576040517f4a0bfec10000000000000000000000000000000000000000000000000000000081523360048201526024016103fc565b610f68426301e133806112d0565b811115610fa4576040517f35802fa3000000000000000000000000000000000000000000000000000000008152600481018290526024016103fc565b61045881610fd6565b6104587f9c2ad2c21e274c8b57052f9f0ef73dd8f6e1d917d156e1368bb7cc739cf1f4b1829055565b6104587fbe1a4dea2a7bf3bca8caa6d30da3b6665e2e170da688038ad0b7269f2e0ebf91829055565b6104587fc6806e07b5185a5f2a4a279b21328cdfc10302bba8d637663c0af6df2ce3b5da829055565b6104587ffcb92606a933a3a2fc95ea37ffc5f3cf5a7a2f3776ccd27ff295f4bc9846f3e6829055565b6104587e157179f0e328e9155f0e7f3bacad2e41db42b1e0800a411a594382df7a1e64829055565b6104587ff6f62fd4da7bc2b32a6e1e65b29fc84ac47127fe667e702bfad2a308be5e31f3829055565b6104587f09e5415ecbe88722a362e8ef1260b911b06c7c85eb60dd940ec2508f025009c7829055565b6104587f223eebe857eb33ee31fe46155467a9e23b253715020bbb26850d321fdc3146ab829055565b5f61098d825490565b5f61271061110b83826112d0565b61111590856112e3565b61111f91906112fa565b9392505050565b6104587f27ad9db40d40315deb7c9733dae204372b3012815db31bb8e8e56d6c68d6ac248260405160200161117b92919091825273ffffffffffffffffffffffffffffffffffffffff16602082015260400190565b6040516020818303038152906040528051906020012060015f1b9055565b6104587f27ad9db40d40315deb7c9733dae204372b3012815db31bb8e8e56d6c68d6ac24826040516020016111ee92919091825273ffffffffffffffffffffffffffffffffffffffff16602082015260400190565b604051602081830303815290604052805190602001205f5f1b9055565b5f611218826127106112d0565b611224846127106112e3565b61122e91906112fa565b61111f9060016112d0565b5f60208284031215611249575f5ffd5b5035919050565b5f5f60408385031215611261575f5ffd5b50508035926020909101359150565b5f60208284031215611280575f5ffd5b813573ffffffffffffffffffffffffffffffffffffffff8116811461111f575f5ffd5b7f4e487b71000000000000000000000000000000000000000000000000000000005f52601160045260245ffd5b8082018082111561098d5761098d6112a3565b808202811582820484141761098d5761098d6112a3565b5f8261132d577f4e487b71000000000000000000000000000000000000000000000000000000005f52601260045260245ffd5b50049056fea26469706673582212208fc481623e41d9ac2a2d96c2c568e789aaaeb4352220d3c341534aecefa10cad64736f6c634300081c0033",
        "nonce": "0xe0",
        "chainId": "0xaa36a7"
      },
      "additionalContracts": [],
      "isFixedGasLimit": false
    },
    {
      "hash": "0xb7c483c6d5adcfc6a81ea00f729624cd006f731874cd6acb11ffd5a3d3ae961b",
      "transactionType": "CREATE",
      "contractName": "MaseerProxy",
      "contractAddress": "0x9e8c1863dc38dcf814d8ebd650894ee1a58cd4be",
      "function": null,
      "arguments": [
        "0x9B5fbB4997F34c3c78c56814daFb8CDC19E4AF91"
      ],
      "transaction": {
        "from": "0xdef12db2bd62f88c8d59807e0ce9868279fd7fef",
        "gas": "0x7326c",
        "value": "0x0",
        "input": "0x608060405234801561000f575f5ffd5b506040516105ec3803806105ec83398101604081905261002e91610168565b610039336001610051565b610042336100b7565b61004b8161011d565b50610195565b5f7f312ed9ac9b839e579b0572e42b6b61a1d0e768aa92df633e58ace1e6a3633e79836040516020016100979291909182526001600160a01b0316602082015260400190565b604051602081830303815290604052805190602001209050818155505050565b5f7f27ad9db40d40315deb7c9733dae204372b3012815db31bb8e8e56d6c68d6ac24826040516020016100fd9291909182526001600160a01b0316602082015260400190565b604051602081830303815290604052805190602001209050600181555050565b6001600160a01b038116610144576040516318ce8b9560e31b815260040160405180910390fd5b7f0e4c00c0fe9fb028e73dd325b95165d8884bc26853613a6b5131a12effdd8ddd55565b5f60208284031215610178575f5ffd5b81516001600160a01b038116811461018e575f5ffd5b9392505050565b61044a806101a25f395ff3fe608060405234801561000f575f5ffd5b5060043610610065575f3560e01c8063266a164a1161004e578063266a164a146100d957806360cd9853146100ec5780638abf60771461011257610065565b8063048046c1146100b35780630715940e146100c6575b5f61008e7f0e4c00c0fe9fb028e73dd325b95165d8884bc26853613a6b5131a12effdd8ddd5490565b9050604051365f82375f5f3683855af43d5f833e8080156100ad573d83f35b3d83fd5b005b6100b16100c13660046103da565b61013f565b6100b16100d43660046103da565b61018d565b6100b16100e73660046103da565b6101d9565b6100ff6100fa3660046103da565b610226565b6040519081526020015b60405180910390f35b61011a610236565b60405173ffffffffffffffffffffffffffffffffffffffff9091168152602001610109565b61014833610264565b600114610181576040517fea8e4eb500000000000000000000000000000000000000000000000000000000815260040160405180910390fd5b61018a816102f6565b50565b61019633610264565b6001146101cf576040517fea8e4eb500000000000000000000000000000000000000000000000000000000815260040160405180910390fd5b61018a815f610367565b6101e233610264565b60011461021b576040517fea8e4eb500000000000000000000000000000000000000000000000000000000815260040160405180910390fd5b61018a816001610367565b5f61023082610264565b92915050565b5f61025f7f0e4c00c0fe9fb028e73dd325b95165d8884bc26853613a6b5131a12effdd8ddd5490565b905090565b5f5f7f312ed9ac9b839e579b0572e42b6b61a1d0e768aa92df633e58ace1e6a3633e79836040516020016102b892919091825273ffffffffffffffffffffffffffffffffffffffff16602082015260400190565b604080517fffffffffffffffffffffffffffffffffffffffffffffffffffffffffffffffe08184030181529190528051602090910120549392505050565b73ffffffffffffffffffffffffffffffffffffffff8116610343576040517fc6745ca800000000000000000000000000000000000000000000000000000000815260040160405180910390fd5b7f0e4c00c0fe9fb028e73dd325b95165d8884bc26853613a6b5131a12effdd8ddd55565b5f7f312ed9ac9b839e579b0572e42b6b61a1d0e768aa92df633e58ace1e6a3633e79836040516020016103ba92919091825273ffffffffffffffffffffffffffffffffffffffff16602082015260400190565b604051602081830303815290604052805190602001209050818155505050565b5f602082840312156103ea575f5ffd5b813573ffffffffffffffffffffffffffffffffffffffff8116811461040d575f5ffd5b939250505056fea26469706673582212200785485ad77ba3aaa277c004e29063fe9db3f9943f75962800ad028f720ea9e564736f6c634300081c00330000000000000000000000009b5fbb4997f34c3c78c56814dafb8cdc19e4af91",
        "nonce": "0xe1",
        "chainId": "0xaa36a7"
      },
      "additionalContracts": [],
      "isFixedGasLimit": false
    },
    {
      "hash": "0xe760eaf6256ca2a4f631a6380954379333368af6846ad06a9403ddbcdad4964f",
      "transactionType": "CREATE",
      "contractName": "MaseerGuard",
      "contractAddress": "0x946e35247c025c987fbbb148da65dd309270aadf",
      "function": null,
      "arguments": [
        "0x7898361f8438A60A25cc89e11941B13Fcddb2CA5"
      ],
      "transaction": {
        "from": "0xdef12db2bd62f88c8d59807e0ce9868279fd7fef",
        "gas": "0x659d0",
        "value": "0x0",
        "input": "0x60a0604052348015600e575f5ffd5b50604051610554380380610554833981016040819052602b91603b565b6001600160a01b03166080526066565b5f60208284031215604a575f5ffd5b81516001600160a01b0381168114605f575f5ffd5b9392505050565b6080516104d06100845f395f81816082015261020c01526104d05ff3fe608060405234801561000f575f5ffd5b5060043610610064575f3560e01c806382c4b3b21161004d57806382c4b3b2146100ce5780639c52a7f1146100f1578063bf353dbb14610104575f5ffd5b806365fae35e1461006857806367e828bf1461007d575b5f5ffd5b61007b610076366004610441565b610125565b005b6100a47f000000000000000000000000000000000000000000000000000000000000000081565b60405173ffffffffffffffffffffffffffffffffffffffff90911681526020015b60405180910390f35b6100e16100dc366004610441565b6101c5565b60405190151581526020016100c5565b61007b6100ff366004610441565b61027e565b610117610112366004610441565b610300565b6040519081526020016100c5565b604080517f27ad9db40d40315deb7c9733dae204372b3012815db31bb8e8e56d6c68d6ac2460208201523391810191909152610179906060015b604051602081830303815290604052805190602001205490565b6001146101b9576040517f4a0bfec10000000000000000000000000000000000000000000000000000000081523360048201526024015b60405180910390fd5b6101c28161035c565b50565b6040517f59bf1abe00000000000000000000000000000000000000000000000000000000815273ffffffffffffffffffffffffffffffffffffffff82811660048301525f917f0000000000000000000000000000000000000000000000000000000000000000909116906359bf1abe90602401602060405180830381865afa158015610253573d5f5f3e3d5ffd5b505050506040513d601f19601f82011682018060405250810190610277919061047b565b1592915050565b604080517f27ad9db40d40315deb7c9733dae204372b3012815db31bb8e8e56d6c68d6ac24602082015233918101919091526102bc9060600161015f565b6001146102f7576040517f4a0bfec10000000000000000000000000000000000000000000000000000000081523360048201526024016101b0565b6101c2816103cf565b5f6103567f27ad9db40d40315deb7c9733dae204372b3012815db31bb8e8e56d6c68d6ac248360405160200161015f92919091825273ffffffffffffffffffffffffffffffffffffffff16602082015260400190565b92915050565b6101c27f27ad9db40d40315deb7c9733dae204372b3012815db31bb8e8e56d6c68d6ac24826040516020016103b192919091825273ffffffffffffffffffffffffffffffffffffffff16602082015260400190565b6040516020818303038152906040528051906020012060015f1b9055565b6101c27f27ad9db40d40315deb7c9733dae204372b3012815db31bb8e8e56d6c68d6ac248260405160200161042492919091825273ffffffffffffffffffffffffffffffffffffffff16602082015260400190565b604051602081830303815290604052805190602001205f5f1b9055565b5f60208284031215610451575f5ffd5b813573ffffffffffffffffffffffffffffffffffffffff81168114610474575f5ffd5b9392505050565b5f6020828403121561048b575f5ffd5b81518015158114610474575f5ffdfea26469706673582212201a66cb64cd859deb029fd3bbaeb107293ef1a9edf688839c7700ba03a9377c8d64736f6c634300081c00330000000000000000000000007898361f8438a60a25cc89e11941b13fcddb2ca5",
        "nonce": "0xe2",
        "chainId": "0xaa36a7"
      },
      "additionalContracts": [],
      "isFixedGasLimit": false
    },
    {
      "hash": "0x2a9be7ab9f871c74bda609f42ad7da631a8a3ee8b682122a015dc4da4160e215",
      "transactionType": "CREATE",
      "contractName": "MaseerProxy",
      "contractAddress": "0x68934b63b9dcd3cfa58c66694fe239e3a9c08293",
      "function": null,
      "arguments": [
        "0x946E35247C025c987FbbB148da65DD309270aadF"
      ],
      "transaction": {
        "from": "0xdef12db2bd62f88c8d59807e0ce9868279fd7fef",
        "gas": "0x7326c",
        "value": "0x0",
        "input": "0x608060405234801561000f575f5ffd5b506040516105ec3803806105ec83398101604081905261002e91610168565b610039336001610051565b610042336100b7565b61004b8161011d565b50610195565b5f7f312ed9ac9b839e579b0572e42b6b61a1d0e768aa92df633e58ace1e6a3633e79836040516020016100979291909182526001600160a01b0316602082015260400190565b604051602081830303815290604052805190602001209050818155505050565b5f7f27ad9db40d40315deb7c9733dae204372b3012815db31bb8e8e56d6c68d6ac24826040516020016100fd9291909182526001600160a01b0316602082015260400190565b604051602081830303815290604052805190602001209050600181555050565b6001600160a01b038116610144576040516318ce8b9560e31b815260040160405180910390fd5b7f0e4c00c0fe9fb028e73dd325b95165d8884bc26853613a6b5131a12effdd8ddd55565b5f60208284031215610178575f5ffd5b81516001600160a01b038116811461018e575f5ffd5b9392505050565b61044a806101a25f395ff3fe608060405234801561000f575f5ffd5b5060043610610065575f3560e01c8063266a164a1161004e578063266a164a146100d957806360cd9853146100ec5780638abf60771461011257610065565b8063048046c1146100b35780630715940e146100c6575b5f61008e7f0e4c00c0fe9fb028e73dd325b95165d8884bc26853613a6b5131a12effdd8ddd5490565b9050604051365f82375f5f3683855af43d5f833e8080156100ad573d83f35b3d83fd5b005b6100b16100c13660046103da565b61013f565b6100b16100d43660046103da565b61018d565b6100b16100e73660046103da565b6101d9565b6100ff6100fa3660046103da565b610226565b6040519081526020015b60405180910390f35b61011a610236565b60405173ffffffffffffffffffffffffffffffffffffffff9091168152602001610109565b61014833610264565b600114610181576040517fea8e4eb500000000000000000000000000000000000000000000000000000000815260040160405180910390fd5b61018a816102f6565b50565b61019633610264565b6001146101cf576040517fea8e4eb500000000000000000000000000000000000000000000000000000000815260040160405180910390fd5b61018a815f610367565b6101e233610264565b60011461021b576040517fea8e4eb500000000000000000000000000000000000000000000000000000000815260040160405180910390fd5b61018a816001610367565b5f61023082610264565b92915050565b5f61025f7f0e4c00c0fe9fb028e73dd325b95165d8884bc26853613a6b5131a12effdd8ddd5490565b905090565b5f5f7f312ed9ac9b839e579b0572e42b6b61a1d0e768aa92df633e58ace1e6a3633e79836040516020016102b892919091825273ffffffffffffffffffffffffffffffffffffffff16602082015260400190565b604080517fffffffffffffffffffffffffffffffffffffffffffffffffffffffffffffffe08184030181529190528051602090910120549392505050565b73ffffffffffffffffffffffffffffffffffffffff8116610343576040517fc6745ca800000000000000000000000000000000000000000000000000000000815260040160405180910390fd5b7f0e4c00c0fe9fb028e73dd325b95165d8884bc26853613a6b5131a12effdd8ddd55565b5f7f312ed9ac9b839e579b0572e42b6b61a1d0e768aa92df633e58ace1e6a3633e79836040516020016103ba92919091825273ffffffffffffffffffffffffffffffffffffffff16602082015260400190565b604051602081830303815290604052805190602001209050818155505050565b5f602082840312156103ea575f5ffd5b813573ffffffffffffffffffffffffffffffffffffffff8116811461040d575f5ffd5b939250505056fea26469706673582212200785485ad77ba3aaa277c004e29063fe9db3f9943f75962800ad028f720ea9e564736f6c634300081c0033000000000000000000000000946e35247c025c987fbbb148da65dd309270aadf",
        "nonce": "0xe3",
        "chainId": "0xaa36a7"
      },
      "additionalContracts": [],
      "isFixedGasLimit": false
    },
    {
      "hash": "0x8f39a9d88b682ee6d3d664861b908fed4da820827f4384e3071d940ef821c923",
      "transactionType": "CREATE",
      "contractName": "MaseerConduit",
      "contractAddress": "0x0a1589136e0171c7d53b3d9d03b74fd31e98b8ee",
      "function": null,
      "arguments": null,
      "transaction": {
        "from": "0xdef12db2bd62f88c8d59807e0ce9868279fd7fef",
        "gas": "0xeae73",
        "value": "0x0",
        "input": "0x6080604052348015600e575f5ffd5b50601633601a565b6081565b607e7f27ad9db40d40315deb7c9733dae204372b3012815db31bb8e8e56d6c68d6ac248260405160200160609291909182526001600160a01b0316602082015260400190565b60408051601f19818403018152919052805160209091012060019055565b50565b610c0e8061008e5f395ff3fe608060405234801561000f575f5ffd5b50600436106100c4575f3560e01c8063a3b22fc41161007d578063bf353dbb11610058578063bf353dbb1461018c578063dc4d20fa1461019f578063f29c29c4146101b2575f5ffd5b8063a3b22fc414610147578063bb35783b1461015a578063bc206b0a1461016d575f5ffd5b806365c4ce7a116100ad57806365c4ce7a1461010c57806365fae35e146101215780639c52a7f114610134575f5ffd5b8063322265a8146100c85780634fce7a2a146100ed575b5f5ffd5b6100db6100d6366004610b02565b6101c5565b60405190815260200160405180910390f35b6100db6100fb366004610b33565b60026020525f908152604090205481565b61011f61011a366004610b33565b61032c565b005b61011f61012f366004610b33565b6103e1565b61011f610142366004610b33565b610466565b61011f610155366004610b33565b6104e8565b6100db610168366004610b53565b61058a565b6100db61017b366004610b33565b60016020525f908152604090205481565b6100db61019a366004610b33565b610660565b61011f6101ad366004610b33565b6106bc565b61011f6101c0366004610b33565b61075b565b335f90815260016020819052604082205414610214576040517f76c6c93a0000000000000000000000000000000000000000000000000000000081523360048201526024015b60405180910390fd5b73ffffffffffffffffffffffffffffffffffffffff82165f90815260026020526040902054829060011461028c576040517f8e4c8aa600000000000000000000000000000000000000000000000000000000815273ffffffffffffffffffffffffffffffffffffffff8216600482015260240161020b565b6040517f70a0823100000000000000000000000000000000000000000000000000000000815230600482015273ffffffffffffffffffffffffffffffffffffffff8516906370a0823190602401602060405180830381865afa1580156102f4573d5f5f3e3d5ffd5b505050506040513d601f19601f820116820180604052508101906103189190610b8c565b91506103258484846107fd565b5092915050565b604080517f27ad9db40d40315deb7c9733dae204372b3012815db31bb8e8e56d6c68d6ac2460208201523391810191909152610380906060015b604051602081830303815290604052805190602001205490565b6001146103bb576040517f4a0bfec100000000000000000000000000000000000000000000000000000000815233600482015260240161020b565b73ffffffffffffffffffffffffffffffffffffffff165f90815260026020526040812055565b604080517f27ad9db40d40315deb7c9733dae204372b3012815db31bb8e8e56d6c68d6ac246020820152339181019190915261041f90606001610366565b60011461045a576040517f4a0bfec100000000000000000000000000000000000000000000000000000000815233600482015260240161020b565b610463816108b5565b50565b604080517f27ad9db40d40315deb7c9733dae204372b3012815db31bb8e8e56d6c68d6ac24602082015233918101919091526104a490606001610366565b6001146104df576040517f4a0bfec100000000000000000000000000000000000000000000000000000000815233600482015260240161020b565b61046381610928565b604080517f27ad9db40d40315deb7c9733dae204372b3012815db31bb8e8e56d6c68d6ac246020820152339181019190915261052690606001610366565b600114610561576040517f4a0bfec100000000000000000000000000000000000000000000000000000000815233600482015260240161020b565b73ffffffffffffffffffffffffffffffffffffffff165f90815260016020819052604090912055565b335f908152600160208190526040822054146105d4576040517f76c6c93a00000000000000000000000000000000000000000000000000000000815233600482015260240161020b565b73ffffffffffffffffffffffffffffffffffffffff83165f90815260026020526040902054839060011461064c576040517f8e4c8aa600000000000000000000000000000000000000000000000000000000815273ffffffffffffffffffffffffffffffffffffffff8216600482015260240161020b565b6106578585856107fd565b50909392505050565b5f6106b67f27ad9db40d40315deb7c9733dae204372b3012815db31bb8e8e56d6c68d6ac248360405160200161036692919091825273ffffffffffffffffffffffffffffffffffffffff16602082015260400190565b92915050565b604080517f27ad9db40d40315deb7c9733dae204372b3012815db31bb8e8e56d6c68d6ac24602082015233918101919091526106fa90606001610366565b600114610735576040517f4a0bfec100000000000000000000000000000000000000000000000000000000815233600482015260240161020b565b73ffffffffffffffffffffffffffffffffffffffff165f90815260016020526040812055565b604080517f27ad9db40d40315deb7c9733dae204372b3012815db31bb8e8e56d6c68d6ac246020820152339181019190915261079990606001610366565b6001146107d4576040517f4a0bfec100000000000000000000000000000000000000000000000000000000815233600482015260240161020b565b73ffffffffffffffffffffffffffffffffffffffff165f90815260026020526040902060019055565b73ffffffffffffffffffffffffffffffffffffffff831661084a576040517fd92e233d00000000000000000000000000000000000000000000000000000000815260040160405180910390fd5b61085583838361099a565b808273ffffffffffffffffffffffffffffffffffffffff168473ffffffffffffffffffffffffffffffffffffffff167fdeb3a6837278f6e9914a507e4d73f08e841d8fca434fb97d4307b3b0d3d6b10560405160405180910390a4505050565b6104637f27ad9db40d40315deb7c9733dae204372b3012815db31bb8e8e56d6c68d6ac248260405160200161090a92919091825273ffffffffffffffffffffffffffffffffffffffff16602082015260400190565b6040516020818303038152906040528051906020012060015f1b9055565b6104637f27ad9db40d40315deb7c9733dae204372b3012815db31bb8e8e56d6c68d6ac248260405160200161097d92919091825273ffffffffffffffffffffffffffffffffffffffff16602082015260400190565b604051602081830303815290604052805190602001205f5f1b9055565b6040805173ffffffffffffffffffffffffffffffffffffffff8481166024830152604480830185905283518084039091018152606490920183526020820180517bffffffffffffffffffffffffffffffffffffffffffffffffffffffff167fa9059cbb0000000000000000000000000000000000000000000000000000000017905291515f92839290871691610a309190610ba3565b5f604051808303815f865af19150503d805f8114610a69576040519150601f19603f3d011682016040523d82523d5f602084013e610a6e565b606091505b5091509150811580610a9c57505f8151118015610a9c575080806020019051810190610a9a9190610bb9565b155b15610ad3576040517f90b8ec1800000000000000000000000000000000000000000000000000000000815260040160405180910390fd5b5050505050565b803573ffffffffffffffffffffffffffffffffffffffff81168114610afd575f5ffd5b919050565b5f5f60408385031215610b13575f5ffd5b610b1c83610ada565b9150610b2a60208401610ada565b90509250929050565b5f60208284031215610b43575f5ffd5b610b4c82610ada565b9392505050565b5f5f5f60608486031215610b65575f5ffd5b610b6e84610ada565b9250610b7c60208501610ada565b9150604084013590509250925092565b5f60208284031215610b9c575f5ffd5b5051919050565b5f82518060208501845e5f920191825250919050565b5f60208284031215610bc9575f5ffd5b81518015158114610b4c575f5ffdfea2646970667358221220c6ea8ad0d045ca2298669673597b39ab616c3834fbb1ad8e11c215e95b9b2c2064736f6c634300081c0033",
        "nonce": "0xe4",
        "chainId": "0xaa36a7"
      },
      "additionalContracts": [],
      "isFixedGasLimit": false
    },
    {
      "hash": "0x7d3d4bbe2ea27cf3f5bf1fc3335b01bff4be269c29c007277a8e8c762382535a",
      "transactionType": "CREATE",
      "contractName": "MaseerProxy",
      "contractAddress": "0x8eb6895e4900e4a432bac149a79714492cb5dc93",
      "function": null,
      "arguments": [
        "0x0a1589136e0171C7D53b3d9D03B74FD31e98B8eE"
      ],
      "transaction": {
        "from": "0xdef12db2bd62f88c8d59807e0ce9868279fd7fef",
        "gas": "0x7326c",
        "value": "0x0",
        "input": "0x608060405234801561000f575f5ffd5b506040516105ec3803806105ec83398101604081905261002e91610168565b610039336001610051565b610042336100b7565b61004b8161011d565b50610195565b5f7f312ed9ac9b839e579b0572e42b6b61a1d0e768aa92df633e58ace1e6a3633e79836040516020016100979291909182526001600160a01b0316602082015260400190565b604051602081830303815290604052805190602001209050818155505050565b5f7f27ad9db40d40315deb7c9733dae204372b3012815db31bb8e8e56d6c68d6ac24826040516020016100fd9291909182526001600160a01b0316602082015260400190565b604051602081830303815290604052805190602001209050600181555050565b6001600160a01b038116610144576040516318ce8b9560e31b815260040160405180910390fd5b7f0e4c00c0fe9fb028e73dd325b95165d8884bc26853613a6b5131a12effdd8ddd55565b5f60208284031215610178575f5ffd5b81516001600160a01b038116811461018e575f5ffd5b9392505050565b61044a806101a25f395ff3fe608060405234801561000f575f5ffd5b5060043610610065575f3560e01c8063266a164a1161004e578063266a164a146100d957806360cd9853146100ec5780638abf60771461011257610065565b8063048046c1146100b35780630715940e146100c6575b5f61008e7f0e4c00c0fe9fb028e73dd325b95165d8884bc26853613a6b5131a12effdd8ddd5490565b9050604051365f82375f5f3683855af43d5f833e8080156100ad573d83f35b3d83fd5b005b6100b16100c13660046103da565b61013f565b6100b16100d43660046103da565b61018d565b6100b16100e73660046103da565b6101d9565b6100ff6100fa3660046103da565b610226565b6040519081526020015b60405180910390f35b61011a610236565b60405173ffffffffffffffffffffffffffffffffffffffff9091168152602001610109565b61014833610264565b600114610181576040517fea8e4eb500000000000000000000000000000000000000000000000000000000815260040160405180910390fd5b61018a816102f6565b50565b61019633610264565b6001146101cf576040517fea8e4eb500000000000000000000000000000000000000000000000000000000815260040160405180910390fd5b61018a815f610367565b6101e233610264565b60011461021b576040517fea8e4eb500000000000000000000000000000000000000000000000000000000815260040160405180910390fd5b61018a816001610367565b5f61023082610264565b92915050565b5f61025f7f0e4c00c0fe9fb028e73dd325b95165d8884bc26853613a6b5131a12effdd8ddd5490565b905090565b5f5f7f312ed9ac9b839e579b0572e42b6b61a1d0e768aa92df633e58ace1e6a3633e79836040516020016102b892919091825273ffffffffffffffffffffffffffffffffffffffff16602082015260400190565b604080517fffffffffffffffffffffffffffffffffffffffffffffffffffffffffffffffe08184030181529190528051602090910120549392505050565b73ffffffffffffffffffffffffffffffffffffffff8116610343576040517fc6745ca800000000000000000000000000000000000000000000000000000000815260040160405180910390fd5b7f0e4c00c0fe9fb028e73dd325b95165d8884bc26853613a6b5131a12effdd8ddd55565b5f7f312ed9ac9b839e579b0572e42b6b61a1d0e768aa92df633e58ace1e6a3633e79836040516020016103ba92919091825273ffffffffffffffffffffffffffffffffffffffff16602082015260400190565b604051602081830303815290604052805190602001209050818155505050565b5f602082840312156103ea575f5ffd5b813573ffffffffffffffffffffffffffffffffffffffff8116811461040d575f5ffd5b939250505056fea26469706673582212200785485ad77ba3aaa277c004e29063fe9db3f9943f75962800ad028f720ea9e564736f6c634300081c00330000000000000000000000000a1589136e0171c7d53b3d9d03b74fd31e98b8ee",
        "nonce": "0xe5",
        "chainId": "0xaa36a7"
      },
      "additionalContracts": [],
      "isFixedGasLimit": false
    },
    {
      "hash": "0x8a8df8f6ec70313d75fb34ef228961f02f3235e20412112946ca2c10d106a2bb",
      "transactionType": "CREATE",
      "contractName": "MaseerOne",
      "contractAddress": "0xe64ab09886df82906cfb9972e1818a775aba8ed6",
      "function": null,
      "arguments": [
        "0x7898361f8438A60A25cc89e11941B13Fcddb2CA5",
        "0x3D773d2c05aEF9fD41715FdDB726aA2aACA5F77E",
        "0x9E8c1863Dc38dCF814D8EBd650894eE1a58Cd4Be",
        "0x68934B63B9Dcd3cFa58c66694FE239e3a9C08293",
        "0x8eB6895E4900E4A432BaC149a79714492Cb5dc93",
        "Cana",
        "CANA"
      ],
      "transaction": {
        "from": "0xdef12db2bd62f88c8d59807e0ce9868279fd7fef",
        "gas": "0x2cbd9a",
        "value": "0x0",
        "input": "0x610160604052348015610010575f5ffd5b50604051612c03380380612c0383398101604081905261002f916101f5565b8181600361003d838261032f565b50600461004a828261032f565b504660a052610057610089565b6080525050506001600160a01b0395861660c0525092841660e05290831661010052821661012052166101405261045a565b5f7f8b73c3c69bb8fe3d512ecc4cf759cc79239f7b179b0ffacaa9a75d522b39400f60036040516100ba91906103e9565b60408051918290038220828201825260018352603160f81b60209384015260a08051835194850195909552918301527fc89efdaa54c0f20c7adf612882df0950f5a951637e0307cdcb4c672f298b8bc660608301526080820192909252309181019190915260c00160405160208183030381529060405280519060200120905090565b80516001600160a01b0381168114610153575f5ffd5b919050565b634e487b7160e01b5f52604160045260245ffd5b5f82601f83011261017b575f5ffd5b81516001600160401b0381111561019457610194610158565b604051601f8201601f19908116603f011681016001600160401b03811182821017156101c2576101c2610158565b6040528181528382016020018510156101d9575f5ffd5b8160208501602083015e5f918101602001919091529392505050565b5f5f5f5f5f5f5f60e0888a03121561020b575f5ffd5b6102148861013d565b96506102226020890161013d565b95506102306040890161013d565b945061023e6060890161013d565b935061024c6080890161013d565b60a08901519093506001600160401b03811115610267575f5ffd5b6102738a828b0161016c565b60c08a015190935090506001600160401b03811115610290575f5ffd5b61029c8a828b0161016c565b91505092959891949750929550565b600181811c908216806102bf57607f821691505b6020821081036102dd57634e487b7160e01b5f52602260045260245ffd5b50919050565b601f82111561032a57805f5260205f20601f840160051c810160208510156103085750805b601f840160051c820191505b81811015610327575f8155600101610314565b50505b505050565b81516001600160401b0381111561034857610348610158565b61035c8161035684546102ab565b846102e3565b6020601f82116001811461038e575f83156103775750848201515b5f19600385901b1c1916600184901b178455610327565b5f84815260208120601f198516915b828110156103bd578785015182556020948501946001909201910161039d565b50848210156103da57868401515f19600387901b60f8161c191681555b50505050600190811b01905550565b5f5f83546103f6816102ab565b60018216801561040d57600181146104225761044f565b60ff198316865281151582028601935061044f565b865f5260205f205f5b838110156104475781548882015260019091019060200161042b565b505081860193505b509195945050505050565b60805160a05160c05160e0516101005161012051610140516126ef6105145f395f8181610314015281816108d9015261091a01525f818161048101526115ec01525f81816106bf01528181610ae70152818161103b01528181611a3801528181611b3a01528181611bbc0152611c5401525f81816106400152611aa201525f81816104d7015281816108b801528181610d0b01528181610fd201526116ff01525f611f9f01525f81816103b9015261214e01526126ef5ff3fe608060405234801561000f575f5ffd5b506004361061029d575f3560e01c806370a0823111610171578063a07c7ce4116100d2578063daea85c511610088578063dd62ed3e1161006e578063dd62ed3e14610688578063ede75094146106b2578063ee42b10b146106ba575f5ffd5b8063daea85c514610662578063db006a7514610675575f5ffd5b8063beb65893116100b8578063beb6589314610586578063d505accf14610628578063d741e2f91461063b575f5ffd5b8063a07c7ce41461056b578063a9059cbb14610573575f5ffd5b806394c3cbf411610127578063973efb5c1161010d578063973efb5c1461053b5780639d11877014610543578063a0712d6814610558575f5ffd5b806394c3cbf41461052b57806395d89b4114610533575f5ffd5b80637bd2bea7116101575780637bd2bea7146104d25780637ecebe00146104f95780637f8661a114610518575f5ffd5b806370a08231146104ab578063787a08a6146104ca575f5ffd5b8063313ce5671161021b5780634d773aa6116101d15780635cfc1a51116101b75780635cfc1a51146104745780635f7efbea1461047c5780636c96474f146104a3575f5ffd5b80634d773aa61461043457806351f5d98d1461043c575f5ffd5b80633f90916a116102015780633f90916a146103db57806342c4a1aa146103e45780634bf365df1461042c575f5ffd5b8063313ce5671461039a5780633644e515146103b4575f5ffd5b806311da60b41161027057806323b872dd1161025657806323b872dd1461036b578063248c11f51461037e57806326ea379914610391575f5ffd5b806311da60b41461035b57806318160ddd14610363575f5ffd5b806306fdde03146102a157806306ff7a41146102bf578063095ea7b3146102ec5780630a77bd491461030f575b5f5ffd5b6102a96106e1565b6040516102b69190612398565b60405180910390f35b6102de6102cd3660046123eb565b5f9081526008602052604090205490565b6040519081526020016102b6565b6102ff6102fa36600461242a565b61076d565b60405190151581526020016102b6565b6103367f000000000000000000000000000000000000000000000000000000000000000081565b60405173ffffffffffffffffffffffffffffffffffffffff90911681526020016102b6565b6102de610836565b6102de5f5481565b6102ff610379366004612452565b610966565b6102ff61038c36600461248c565b610ad4565b6102de60075481565b6103a2601281565b60405160ff90911681526020016102b6565b6102de7f000000000000000000000000000000000000000000000000000000000000000081565b6102de60065481565b6102de6103f23660046123eb565b5f908152600860205260409020600101547401000000000000000000000000000000000000000090046bffffffffffffffffffffffff1690565b6102ff610ae4565b6102de610b77565b61033661044a3660046123eb565b5f9081526008602052604090206001015473ffffffffffffffffffffffffffffffffffffffff1690565b6102de610ba7565b6103367f000000000000000000000000000000000000000000000000000000000000000081565b6102de610bb0565b6102de6104b936600461248c565b60016020525f908152604090205481565b6102de610bc1565b6103367f000000000000000000000000000000000000000000000000000000000000000081565b6102de61050736600461248c565b60056020525f908152604090205481565b6102de6105263660046123eb565b610bca565b6102de610d99565b6102a9610daa565b6102de610db7565b6105566105513660046123eb565b610dc0565b005b6102de6105663660046123eb565b610e52565b6102ff611038565b6102ff61058136600461242a565b6110a2565b6105ea6105943660046123eb565b60086020525f90815260409020805460019091015473ffffffffffffffffffffffffffffffffffffffff8116907401000000000000000000000000000000000000000090046bffffffffffffffffffffffff1683565b6040805193845273ffffffffffffffffffffffffffffffffffffffff90921660208401526bffffffffffffffffffffffff16908201526060016102b6565b6105566106363660046124a5565b6111ac565b6103367f000000000000000000000000000000000000000000000000000000000000000081565b6102ff61067036600461248c565b6112cf565b6102de6106833660046123eb565b611391565b6102de610696366004612512565b600260209081525f928352604080842090915290825290205481565b6102de611583565b6103367f000000000000000000000000000000000000000000000000000000000000000081565b600380546106ee90612543565b80601f016020809104026020016040519081016040528092919081815260200182805461071a90612543565b80156107655780601f1061073c57610100808354040283529160200191610765565b820191905f5260205f20905b81548152906001019060200180831161074857829003601f168201915b505050505081565b5f33610778816115a5565b6107cb576040517fea93ab6d00000000000000000000000000000000000000000000000000000000815273ffffffffffffffffffffffffffffffffffffffff821660048201526024015b60405180910390fd5b836107d5816115a5565b610823576040517fea93ab6d00000000000000000000000000000000000000000000000000000000815273ffffffffffffffffffffffffffffffffffffffff821660048201526024016107c2565b61082d8585611657565b95945050505050565b5f33610841816115a5565b61088f576040517fea93ab6d00000000000000000000000000000000000000000000000000000000815273ffffffffffffffffffffffffffffffffffffffff821660048201526024016107c2565b5f6108986116cf565b6006549091508082116108ae575f935050505090565b80820393506108fe7f00000000000000000000000000000000000000000000000000000000000000007f00000000000000000000000000000000000000000000000000000000000000008661177d565b604051849073ffffffffffffffffffffffffffffffffffffffff7f000000000000000000000000000000000000000000000000000000000000000016907f7823e479a1a4ebe2418874847436f8a1680c5ee5b17f38bb59dbff28e1b45552905f90a350505090565b5f33610971816115a5565b6109bf576040517fea93ab6d00000000000000000000000000000000000000000000000000000000815273ffffffffffffffffffffffffffffffffffffffff821660048201526024016107c2565b846109c9816115a5565b610a17576040517fea93ab6d00000000000000000000000000000000000000000000000000000000815273ffffffffffffffffffffffffffffffffffffffff821660048201526024016107c2565b84610a21816115a5565b610a6f576040517fea93ab6d00000000000000000000000000000000000000000000000000000000815273ffffffffffffffffffffffffffffffffffffffff821660048201526024016107c2565b3073ffffffffffffffffffffffffffffffffffffffff871603610abe576040517f3a49fd5c00000000000000000000000000000000000000000000000000000000815260040160405180910390fd5b610ac98787876118bd565b979650505050505050565b5f610ade826115a5565b92915050565b5f7f000000000000000000000000000000000000000000000000000000000000000073ffffffffffffffffffffffffffffffffffffffff16634bf365df6040518163ffffffff1660e01b8152600401602060405180830381865afa158015610b4e573d5f5f3e3d5ffd5b505050506040513d601f19601f82011682018060405250810190610b729190612594565b905090565b5f5f610b816116cf565b90506006548111610b9f5780600654610b9a91906125e0565b610ba1565b5f5b91505090565b5f610b72611a35565b5f610b72610bbc611a9f565b611b09565b5f610b72611bb9565b5f33610bd5816115a5565b610c23576040517fea93ab6d00000000000000000000000000000000000000000000000000000000815273ffffffffffffffffffffffffffffffffffffffff821660048201526024016107c2565b5f83815260086020526040902060018101547401000000000000000000000000000000000000000090046bffffffffffffffffffffffff1642811115610c98576040517f774cceca000000000000000000000000000000000000000000000000000000008152600481018290526024016107c2565b805f03610cd1576040517f9b604d0b00000000000000000000000000000000000000000000000000000000815260040160405180910390fd5b81545f610cdc6116cf565b9050808210610ceb5780610ced565b815b600680548290039055845481900385556001850154909650610d47907f00000000000000000000000000000000000000000000000000000000000000009073ffffffffffffffffffffffffffffffffffffffff168861177d565b6001840154604051879173ffffffffffffffffffffffffffffffffffffffff169089907f786e090d783caced3baddcb29bd555ffb93faf484529ab87feab4ec4c48a81e1905f90a45050505050919050565b5f610b72610da5611a9f565b611c23565b600480546106ee90612543565b5f610b72611a9f565b33610dca816115a5565b610e18576040517fea93ab6d00000000000000000000000000000000000000000000000000000000815273ffffffffffffffffffffffffffffffffffffffff821660048201526024016107c2565b610e223383611c98565b604051829033907f789ec66f21698ed1b990c0a8a8be99cf6f5fb8eb3826ee4ee9384870e8db25b1905f90a35050565b5f610e5b610ae4565b610e91576040517f0b5f6bf000000000000000000000000000000000000000000000000000000000815260040160405180910390fd5b33610e9b816115a5565b610ee9576040517fea93ab6d00000000000000000000000000000000000000000000000000000000815273ffffffffffffffffffffffffffffffffffffffff821660048201526024016107c2565b5f610ef2611a9f565b9050805f03610f2c576040517ebfc92100000000000000000000000000000000000000000000000000000000815260040160405180910390fd5b610f3581611c23565b905080841015610f74576040517fa4a05025000000000000000000000000000000000000000000000000000000008152600481018290526024016107c2565b610f7e8482611d29565b9250610f88611a35565b835f54610f9591906125f3565b1115610fcd576040517f2edaff4300000000000000000000000000000000000000000000000000000000815260040160405180910390fd5b610ff97f0000000000000000000000000000000000000000000000000000000000000000333087611d63565b6110033384611eac565b6040518390829033907f58781ca443f8e3ecffad28c83044b16c6e549d8e9c677aebb3b8ee176f99f53f905f90a45050919050565b5f7f000000000000000000000000000000000000000000000000000000000000000073ffffffffffffffffffffffffffffffffffffffff1663a07c7ce46040518163ffffffff1660e01b8152600401602060405180830381865afa158015610b4e573d5f5f3e3d5ffd5b5f336110ad816115a5565b6110fb576040517fea93ab6d00000000000000000000000000000000000000000000000000000000815273ffffffffffffffffffffffffffffffffffffffff821660048201526024016107c2565b83611105816115a5565b611153576040517fea93ab6d00000000000000000000000000000000000000000000000000000000815273ffffffffffffffffffffffffffffffffffffffff821660048201526024016107c2565b3073ffffffffffffffffffffffffffffffffffffffff8616036111a2576040517f3a49fd5c00000000000000000000000000000000000000000000000000000000815260040160405180910390fd5b61082d8585611f1a565b336111b6816115a5565b611204576040517fea93ab6d00000000000000000000000000000000000000000000000000000000815273ffffffffffffffffffffffffffffffffffffffff821660048201526024016107c2565b8761120e816115a5565b61125c576040517fea93ab6d00000000000000000000000000000000000000000000000000000000815273ffffffffffffffffffffffffffffffffffffffff821660048201526024016107c2565b87611266816115a5565b6112b4576040517fea93ab6d00000000000000000000000000000000000000000000000000000000815273ffffffffffffffffffffffffffffffffffffffff821660048201526024016107c2565b6112c38a8a8a8a8a8a8a611f9d565b50505050505050505050565b5f336112da816115a5565b611328576040517fea93ab6d00000000000000000000000000000000000000000000000000000000815273ffffffffffffffffffffffffffffffffffffffff821660048201526024016107c2565b82611332816115a5565b611380576040517fea93ab6d00000000000000000000000000000000000000000000000000000000815273ffffffffffffffffffffffffffffffffffffffff821660048201526024016107c2565b6113898461234e565b949350505050565b5f61139a611038565b6113d0576040517f0b5f6bf000000000000000000000000000000000000000000000000000000000815260040160405180910390fd5b336113da816115a5565b611428576040517fea93ab6d00000000000000000000000000000000000000000000000000000000815273ffffffffffffffffffffffffffffffffffffffff821660048201526024016107c2565b5f611431611a9f565b9050805f0361146b576040517ebfc92100000000000000000000000000000000000000000000000000000000815260040160405180910390fd5b61147481611b09565b90505f6114818583612379565b90508060065f82825461149491906125f3565b909155505060078054905f6114a883612606565b909155506040805160608101825283815233602082015291955081016114cc611bb9565b6114d690426125f3565b6bffffffffffffffffffffffff9081169091525f8681526008602090815260409182902084518155908401519390910151909116740100000000000000000000000000000000000000000273ffffffffffffffffffffffffffffffffffffffff9092169190911760019091015561154d3386611c98565b6040518190339086907f63c54001ca7debc648c4a36675b358dd417b4c13cebb04ecbae5beee0a6dfdfe905f90a4505050919050565b5f5f61158d6116cf565b90506006548110610b9f57600654610b9a90826125e0565b6040517f82c4b3b200000000000000000000000000000000000000000000000000000000815273ffffffffffffffffffffffffffffffffffffffff82811660048301525f917f0000000000000000000000000000000000000000000000000000000000000000909116906382c4b3b290602401602060405180830381865afa158015611633573d5f5f3e3d5ffd5b505050506040513d601f19601f82011682018060405250810190610ade9190612594565b335f81815260026020908152604080832073ffffffffffffffffffffffffffffffffffffffff8716808552925280832085905551919290917f8c5be1e5ebec7d5bd14f71427d1e84f3dd0314c0f7b2291e5b200ac8c7c3b925906116be9086815260200190565b60405180910390a350600192915050565b6040517f70a082310000000000000000000000000000000000000000000000000000000081523060048201525f907f000000000000000000000000000000000000000000000000000000000000000073ffffffffffffffffffffffffffffffffffffffff16906370a0823190602401602060405180830381865afa158015611759573d5f5f3e3d5ffd5b505050506040513d601f19601f82011682018060405250810190610b72919061263d565b6040805173ffffffffffffffffffffffffffffffffffffffff8481166024830152604480830185905283518084039091018152606490920183526020820180517bffffffffffffffffffffffffffffffffffffffffffffffffffffffff167fa9059cbb0000000000000000000000000000000000000000000000000000000017905291515f928392908716916118139190612654565b5f604051808303815f865af19150503d805f811461184c576040519150601f19603f3d011682016040523d82523d5f602084013e611851565b606091505b509150915081158061187f57505f815111801561187f57508080602001905181019061187d9190612594565b155b156118b6576040517f90b8ec1800000000000000000000000000000000000000000000000000000000815260040160405180910390fd5b5050505050565b73ffffffffffffffffffffffffffffffffffffffff83165f9081526002602090815260408083203384529091528120547fffffffffffffffffffffffffffffffffffffffffffffffffffffffffffffffff811461194f5761191e83826125e0565b73ffffffffffffffffffffffffffffffffffffffff86165f9081526002602090815260408083203384529091529020555b73ffffffffffffffffffffffffffffffffffffffff85165f90815260016020526040812080548592906119839084906125e0565b909155505073ffffffffffffffffffffffffffffffffffffffff84165f90815260016020526040812080548592906119bc9084906125f3565b925050819055508373ffffffffffffffffffffffffffffffffffffffff168573ffffffffffffffffffffffffffffffffffffffff167fddf252ad1be2c89b69c2b068fc378daa952ba7f163c4a11628f55a4df523b3ef85604051611a2291815260200190565b60405180910390a3506001949350505050565b5f7f000000000000000000000000000000000000000000000000000000000000000073ffffffffffffffffffffffffffffffffffffffff16635cfc1a516040518163ffffffff1660e01b8152600401602060405180830381865afa158015611759573d5f5f3e3d5ffd5b5f7f000000000000000000000000000000000000000000000000000000000000000073ffffffffffffffffffffffffffffffffffffffff166357de26a46040518163ffffffff1660e01b8152600401602060405180830381865afa158015611759573d5f5f3e3d5ffd5b6040517fef86cf56000000000000000000000000000000000000000000000000000000008152600481018290525f907f000000000000000000000000000000000000000000000000000000000000000073ffffffffffffffffffffffffffffffffffffffff169063ef86cf56906024015b602060405180830381865afa158015611b95573d5f5f3e3d5ffd5b505050506040513d601f19601f82011682018060405250810190610ade919061263d565b5f7f000000000000000000000000000000000000000000000000000000000000000073ffffffffffffffffffffffffffffffffffffffff1663787a08a66040518163ffffffff1660e01b8152600401602060405180830381865afa158015611759573d5f5f3e3d5ffd5b6040517f5c4f46ed000000000000000000000000000000000000000000000000000000008152600481018290525f907f000000000000000000000000000000000000000000000000000000000000000073ffffffffffffffffffffffffffffffffffffffff1690635c4f46ed90602401611b7a565b73ffffffffffffffffffffffffffffffffffffffff82165f9081526001602052604081208054839290611ccc9084906125e0565b90915550505f8054829003815560405182815273ffffffffffffffffffffffffffffffffffffffff8416907fddf252ad1be2c89b69c2b068fc378daa952ba7f163c4a11628f55a4df523b3ef906020015b60405180910390a35050565b5f81611d3660028261266a565b611d48670de0b6b3a7640000866126a2565b611d5291906125f3565b611d5c919061266a565b9392505050565b6040805173ffffffffffffffffffffffffffffffffffffffff85811660248301528481166044830152606480830185905283518084039091018152608490920183526020820180517bffffffffffffffffffffffffffffffffffffffffffffffffffffffff167f23b872dd0000000000000000000000000000000000000000000000000000000017905291515f92839290881691611e019190612654565b5f604051808303815f865af19150503d805f8114611e3a576040519150601f19603f3d011682016040523d82523d5f602084013e611e3f565b606091505b5091509150811580611e6d57505f8151118015611e6d575080806020019051810190611e6b9190612594565b155b15611ea4576040517f90b8ec1800000000000000000000000000000000000000000000000000000000815260040160405180910390fd5b505050505050565b805f5f828254611ebc91906125f3565b909155505073ffffffffffffffffffffffffffffffffffffffff82165f818152600160209081526040808320805486019055518481527fddf252ad1be2c89b69c2b068fc378daa952ba7f163c4a11628f55a4df523b3ef9101611d1d565b335f90815260016020526040812080548391908390611f3a9084906125e0565b909155505073ffffffffffffffffffffffffffffffffffffffff83165f81815260016020526040908190208054850190555133907fddf252ad1be2c89b69c2b068fc378daa952ba7f163c4a11628f55a4df523b3ef906116be9086815260200190565b7f00000000000000000000000000000000000000000000000000000000000000004614612026576040517f08c379a000000000000000000000000000000000000000000000000000000000815260206004820152600d60248201527f494e56414c49445f434841494e0000000000000000000000000000000000000060448201526064016107c2565b42841015612090576040517f08c379a000000000000000000000000000000000000000000000000000000000815260206004820152601760248201527f5045524d49545f444541444c494e455f4558504952454400000000000000000060448201526064016107c2565b73ffffffffffffffffffffffffffffffffffffffff8781165f8181526005602090815260408083208054600180820190925582517f6e71edae12b1b97f4d1f60370fef10105fa2faae0126114a169c64845d6126c98186015280840196909652958c166060860152608085018b905260a085019590955260c08085018a90528151808603909101815260e0850190915280519101207f19010000000000000000000000000000000000000000000000000000000000006101008401527f0000000000000000000000000000000000000000000000000000000000000000610102840152610122830152919061014201604080517fffffffffffffffffffffffffffffffffffffffffffffffffffffffffffffffe081840301815282825280516020918201205f84529083018083525260ff871690820152606081018590526080810184905260a0016020604051602081039080840390855afa1580156121f8573d5f5f3e3d5ffd5b50506040517fffffffffffffffffffffffffffffffffffffffffffffffffffffffffffffffe0015191505073ffffffffffffffffffffffffffffffffffffffff81161580159061227357508773ffffffffffffffffffffffffffffffffffffffff168173ffffffffffffffffffffffffffffffffffffffff16145b6122d9576040517f08c379a000000000000000000000000000000000000000000000000000000000815260206004820152600e60248201527f494e56414c49445f5349474e455200000000000000000000000000000000000060448201526064016107c2565b73ffffffffffffffffffffffffffffffffffffffff9081165f9081526002602090815260408083208a8516808552908352928190208990555188815291928a16917f8c5be1e5ebec7d5bd14f71427d1e84f3dd0314c0f7b2291e5b200ac8c7c3b925910160405180910390a350505050505050565b5f610ade827fffffffffffffffffffffffffffffffffffffffffffffffffffffffffffffffff61076d565b5f670de0b6b3a764000061238e60028261266a565b611d4884866126a2565b602081525f82518060208401528060208501604085015e5f6040828501015260407fffffffffffffffffffffffffffffffffffffffffffffffffffffffffffffffe0601f83011684010191505092915050565b5f602082840312156123fb575f5ffd5b5035919050565b803573ffffffffffffffffffffffffffffffffffffffff81168114612425575f5ffd5b919050565b5f5f6040838503121561243b575f5ffd5b61244483612402565b946020939093013593505050565b5f5f5f60608486031215612464575f5ffd5b61246d84612402565b925061247b60208501612402565b929592945050506040919091013590565b5f6020828403121561249c575f5ffd5b611d5c82612402565b5f5f5f5f5f5f5f60e0888a0312156124bb575f5ffd5b6124c488612402565b96506124d260208901612402565b95506040880135945060608801359350608088013560ff811681146124f5575f5ffd5b9699959850939692959460a0840135945060c09093013592915050565b5f5f60408385031215612523575f5ffd5b61252c83612402565b915061253a60208401612402565b90509250929050565b600181811c9082168061255757607f821691505b60208210810361258e577f4e487b71000000000000000000000000000000000000000000000000000000005f52602260045260245ffd5b50919050565b5f602082840312156125a4575f5ffd5b81518015158114611d5c575f5ffd5b7f4e487b71000000000000000000000000000000000000000000000000000000005f52601160045260245ffd5b81810381811115610ade57610ade6125b3565b80820180821115610ade57610ade6125b3565b5f7fffffffffffffffffffffffffffffffffffffffffffffffffffffffffffffffff8203612636576126366125b3565b5060010190565b5f6020828403121561264d575f5ffd5b5051919050565b5f82518060208501845e5f920191825250919050565b5f8261269d577f4e487b71000000000000000000000000000000000000000000000000000000005f52601260045260245ffd5b500490565b8082028115828204841417610ade57610ade6125b356fea2646970667358221220ba7ee41d016ad5b88532256bf9471d7971298e11bde2ffdef6bc5e38a7fbf75e64736f6c634300081c00330000000000000000000000007898361f8438a60a25cc89e11941b13fcddb2ca50000000000000000000000003d773d2c05aef9fd41715fddb726aa2aaca5f77e0000000000000000000000009e8c1863dc38dcf814d8ebd650894ee1a58cd4be00000000000000000000000068934b63b9dcd3cfa58c66694fe239e3a9c082930000000000000000000000008eb6895e4900e4a432bac149a79714492cb5dc9300000000000000000000000000000000000000000000000000000000000000e00000000000000000000000000000000000000000000000000000000000000120000000000000000000000000000000000000000000000000000000000000000443616e6100000000000000000000000000000000000000000000000000000000000000000000000000000000000000000000000000000000000000000000000443414e4100000000000000000000000000000000000000000000000000000000",
        "nonce": "0xe6",
        "chainId": "0xaa36a7"
      },
      "additionalContracts": [],
      "isFixedGasLimit": false
    },
    {
      "hash": "0xed3167d04d6727cd7f32e4da86edf6aed4ea4cb6a5224a3031b57cfc615e6b8d",
      "transactionType": "CALL",
      "contractName": "MaseerProxy",
      "contractAddress": "0x3d773d2c05aef9fd41715fddb726aa2aaca5f77e",
      "function": null,
      "arguments": null,
      "transaction": {
        "from": "0xdef12db2bd62f88c8d59807e0ce9868279fd7fef",
        "to": "0x3d773d2c05aef9fd41715fddb726aa2aaca5f77e",
        "gas": "0x11c50",
        "value": "0x0",
        "input": "0xe9b674b96e616d650000000000000000000000000000000000000000000000000000000043414e4155534454000000000000000000000000000000000000000000000000",
        "nonce": "0xe7",
        "chainId": "0xaa36a7"
      },
      "additionalContracts": [],
      "isFixedGasLimit": false
    },
    {
      "hash": "0x606f07048298458a4db7afeee3a4524acc6c5f53409441b04d895f1aea7ab45a",
      "transactionType": "CALL",
      "contractName": "MaseerProxy",
      "contractAddress": "0x3d773d2c05aef9fd41715fddb726aa2aaca5f77e",
      "function": null,
      "arguments": null,
      "transaction": {
        "from": "0xdef12db2bd62f88c8d59807e0ce9868279fd7fef",
        "to": "0x3d773d2c05aef9fd41715fddb726aa2aaca5f77e",
        "gas": "0x11c70",
        "value": "0x0",
        "input": "0xe9b674b9646563696d616c730000000000000000000000000000000000000000000000000000000000000000000000000000000000000000000000000000000000000006",
        "nonce": "0xe8",
        "chainId": "0xaa36a7"
      },
      "additionalContracts": [],
      "isFixedGasLimit": false
    },
    {
      "hash": "0xd02115b5dce761984cdd54655027b29fd9d30e193eff3186aa32c450c0253971",
      "transactionType": "CALL",
      "contractName": "MaseerProxy",
      "contractAddress": "0x3d773d2c05aef9fd41715fddb726aa2aaca5f77e",
      "function": null,
      "arguments": null,
      "transaction": {
        "from": "0xdef12db2bd62f88c8d59807e0ce9868279fd7fef",
        "to": "0x3d773d2c05aef9fd41715fddb726aa2aaca5f77e",
        "gas": "0x11adf",
        "value": "0x0",
        "input": "0x32145f9000000000000000000000000000000000000000000000000000000000000f4240",
        "nonce": "0xe9",
        "chainId": "0xaa36a7"
      },
      "additionalContracts": [],
      "isFixedGasLimit": false
    },
    {
      "hash": "0xc5e53f66eb4508a8d35400c37e04282190cb6987dee48b0f79a72f7168795504",
      "transactionType": "CALL",
      "contractName": "MaseerProxy",
      "contractAddress": "0x3d773d2c05aef9fd41715fddb726aa2aaca5f77e",
      "function": null,
      "arguments": null,
      "transaction": {
        "from": "0xdef12db2bd62f88c8d59807e0ce9868279fd7fef",
        "to": "0x3d773d2c05aef9fd41715fddb726aa2aaca5f77e",
        "gas": "0x114f0",
        "value": "0x0",
        "input": "0x65fae35e000000000000000000000000b05502bf20342331f42a7b80aa4bab3f8ca86c0f",
        "nonce": "0xea",
        "chainId": "0xaa36a7"
      },
      "additionalContracts": [],
      "isFixedGasLimit": false
    },
    {
      "hash": "0xe62920825c808420a975c5d7a620071dcbf836204124aa715f66eb2fda4b1fc0",
      "transactionType": "CALL",
      "contractName": "MaseerProxy",
      "contractAddress": "0x3d773d2c05aef9fd41715fddb726aa2aaca5f77e",
      "function": null,
      "arguments": null,
      "transaction": {
        "from": "0xdef12db2bd62f88c8d59807e0ce9868279fd7fef",
        "to": "0x3d773d2c05aef9fd41715fddb726aa2aaca5f77e",
        "gas": "0xb388",
        "value": "0x0",
        "input": "0x9c52a7f10000000000000000000000001804c8ab1f12e6bbf3894d4083f33e07309d1f38",
        "nonce": "0xeb",
        "chainId": "0xaa36a7"
      },
      "additionalContracts": [],
      "isFixedGasLimit": false
    },
    {
      "hash": "0x94e806b49aa450b68f15fb69ef45649037a88a12f229fc6d95b754035641d545",
      "transactionType": "CALL",
      "contractName": "MaseerProxy",
      "contractAddress": "0x3d773d2c05aef9fd41715fddb726aa2aaca5f77e",
      "function": "relyProxy(address)",
      "arguments": [
        "0xB05502bf20342331F42A7B80Aa4bAB3F8cA86C0F"
      ],
      "transaction": {
        "from": "0xdef12db2bd62f88c8d59807e0ce9868279fd7fef",
        "to": "0x3d773d2c05aef9fd41715fddb726aa2aaca5f77e",
        "gas": "0x108da",
        "value": "0x0",
        "input": "0x266a164a000000000000000000000000b05502bf20342331f42a7b80aa4bab3f8ca86c0f",
        "nonce": "0xec",
        "chainId": "0xaa36a7"
      },
      "additionalContracts": [],
      "isFixedGasLimit": false
    },
    {
      "hash": "0xef8471a8a6a80f2276f7020710c340d3954f2d286ae862c133337e6b93fd9d79",
      "transactionType": "CALL",
      "contractName": "MaseerProxy",
      "contractAddress": "0x3d773d2c05aef9fd41715fddb726aa2aaca5f77e",
      "function": "denyProxy(address)",
      "arguments": [
        "0x1804c8AB1F12E6bbf3894d4083f33e07309d1f38"
      ],
      "transaction": {
        "from": "0xdef12db2bd62f88c8d59807e0ce9868279fd7fef",
        "to": "0x3d773d2c05aef9fd41715fddb726aa2aaca5f77e",
        "gas": "0x974a",
        "value": "0x0",
        "input": "0x0715940e0000000000000000000000001804c8ab1f12e6bbf3894d4083f33e07309d1f38",
        "nonce": "0xed",
        "chainId": "0xaa36a7"
      },
      "additionalContracts": [],
      "isFixedGasLimit": false
    },
    {
      "hash": "0x9899d3a37fe1df731ffdd88426e2f386c57fd7789e228a5aa984987cf6a5817b",
      "transactionType": "CALL",
      "contractName": "MaseerProxy",
      "contractAddress": "0x9e8c1863dc38dcf814d8ebd650894ee1a58cd4be",
      "function": null,
      "arguments": null,
      "transaction": {
        "from": "0xdef12db2bd62f88c8d59807e0ce9868279fd7fef",
        "to": "0x9e8c1863dc38dcf814d8ebd650894ee1a58cd4be",
        "gas": "0x112f4",
        "value": "0x0",
        "input": "0x4fc3f41a0000000000000000000000000000000000000000000000000000000000069780",
        "nonce": "0xee",
        "chainId": "0xaa36a7"
      },
      "additionalContracts": [],
      "isFixedGasLimit": false
    },
    {
      "hash": "0x0247c2a05aa72fd39409750ff9df32286d82f5b420bd7ed1764a69ea50fdae6d",
      "transactionType": "CALL",
      "contractName": "MaseerProxy",
      "contractAddress": "0x9e8c1863dc38dcf814d8ebd650894ee1a58cd4be",
      "function": null,
      "arguments": null,
      "transaction": {
        "from": "0xdef12db2bd62f88c8d59807e0ce9868279fd7fef",
        "to": "0x9e8c1863dc38dcf814d8ebd650894ee1a58cd4be",
        "gas": "0x12381",
        "value": "0x0",
        "input": "0x91915ef800000000000000000000000000000000000000000000d3c21bcecceda1000000",
        "nonce": "0xef",
        "chainId": "0xaa36a7"
      },
      "additionalContracts": [],
      "isFixedGasLimit": false
    },
    {
      "hash": "0x9755d6bdb8d5f4f3b18fba5e4322b2cc7fb4236092173049c1af0ac01a22db54",
      "transactionType": "CALL",
      "contractName": "MaseerProxy",
      "contractAddress": "0x9e8c1863dc38dcf814d8ebd650894ee1a58cd4be",
      "function": null,
      "arguments": null,
      "transaction": {
        "from": "0xdef12db2bd62f88c8d59807e0ce9868279fd7fef",
        "to": "0x9e8c1863dc38dcf814d8ebd650894ee1a58cd4be",
        "gas": "0x112f0",
        "value": "0x0",
        "input": "0x59361d8e0000000000000000000000000000000000000000000000000000000000000032",
        "nonce": "0xf0",
        "chainId": "0xaa36a7"
      },
      "additionalContracts": [],
      "isFixedGasLimit": false
    },
    {
      "hash": "0xbdd931308852146fd52f941885fd80ad06b7ca37016e9e21dca3ad8cacb0dd30",
      "transactionType": "CALL",
      "contractName": "MaseerProxy",
      "contractAddress": "0x9e8c1863dc38dcf814d8ebd650894ee1a58cd4be",
      "function": null,
      "arguments": null,
      "transaction": {
        "from": "0xdef12db2bd62f88c8d59807e0ce9868279fd7fef",
        "to": "0x9e8c1863dc38dcf814d8ebd650894ee1a58cd4be",
        "gas": "0x1235c",
        "value": "0x0",
        "input": "0x71ebdf4e0000000000000000000000000000000000000000000000000000000000000032",
        "nonce": "0xf1",
        "chainId": "0xaa36a7"
      },
      "additionalContracts": [],
      "isFixedGasLimit": false
    },
    {
      "hash": "0x9196f13b22fbfe4d1841ec8ba6375727dda249a59068c43b588bb0f929206d1e",
      "transactionType": "CALL",
      "contractName": "MaseerProxy",
      "contractAddress": "0x9e8c1863dc38dcf814d8ebd650894ee1a58cd4be",
      "function": null,
      "arguments": null,
      "transaction": {
        "from": "0xdef12db2bd62f88c8d59807e0ce9868279fd7fef",
        "to": "0x9e8c1863dc38dcf814d8ebd650894ee1a58cd4be",
        "gas": "0x1152c",
        "value": "0x0",
        "input": "0x65fae35e000000000000000000000000b05502bf20342331f42a7b80aa4bab3f8ca86c0f",
        "nonce": "0xf2",
        "chainId": "0xaa36a7"
      },
      "additionalContracts": [],
      "isFixedGasLimit": false
    },
    {
      "hash": "0x83b3b314469f02d79e209e2d383410c7cbb750753df95117c6d6a610d079cf4a",
      "transactionType": "CALL",
      "contractName": "MaseerProxy",
      "contractAddress": "0x9e8c1863dc38dcf814d8ebd650894ee1a58cd4be",
      "function": null,
      "arguments": null,
      "transaction": {
        "from": "0xdef12db2bd62f88c8d59807e0ce9868279fd7fef",
        "to": "0x9e8c1863dc38dcf814d8ebd650894ee1a58cd4be",
        "gas": "0xa9eb",
        "value": "0x0",
        "input": "0x9c52a7f10000000000000000000000001804c8ab1f12e6bbf3894d4083f33e07309d1f38",
        "nonce": "0xf3",
        "chainId": "0xaa36a7"
      },
      "additionalContracts": [],
      "isFixedGasLimit": false
    },
    {
      "hash": "0x3259c6568d7bf28c67cca5d853e8299e2a76e328555adb2f25c6787659c706fc",
      "transactionType": "CALL",
      "contractName": "MaseerProxy",
      "contractAddress": "0x9e8c1863dc38dcf814d8ebd650894ee1a58cd4be",
      "function": "relyProxy(address)",
      "arguments": [
        "0xB05502bf20342331F42A7B80Aa4bAB3F8cA86C0F"
      ],
      "transaction": {
        "from": "0xdef12db2bd62f88c8d59807e0ce9868279fd7fef",
        "to": "0x9e8c1863dc38dcf814d8ebd650894ee1a58cd4be",
        "gas": "0x108da",
        "value": "0x0",
        "input": "0x266a164a000000000000000000000000b05502bf20342331f42a7b80aa4bab3f8ca86c0f",
        "nonce": "0xf4",
        "chainId": "0xaa36a7"
      },
      "additionalContracts": [],
      "isFixedGasLimit": false
    },
    {
      "hash": "0x447e12a322229eca50be551b814fe794e930dcecd015829c8d0c830d301bf19a",
      "transactionType": "CALL",
      "contractName": "MaseerProxy",
      "contractAddress": "0x9e8c1863dc38dcf814d8ebd650894ee1a58cd4be",
      "function": "denyProxy(address)",
      "arguments": [
        "0x1804c8AB1F12E6bbf3894d4083f33e07309d1f38"
      ],
      "transaction": {
        "from": "0xdef12db2bd62f88c8d59807e0ce9868279fd7fef",
        "to": "0x9e8c1863dc38dcf814d8ebd650894ee1a58cd4be",
        "gas": "0x974a",
        "value": "0x0",
        "input": "0x0715940e0000000000000000000000001804c8ab1f12e6bbf3894d4083f33e07309d1f38",
        "nonce": "0xf5",
        "chainId": "0xaa36a7"
      },
      "additionalContracts": [],
      "isFixedGasLimit": false
    },
    {
      "hash": "0xe6ac5b8084cfbc206e18283818022420e52302d927277ebd34203b89c84c8c97",
      "transactionType": "CALL",
      "contractName": "MaseerProxy",
      "contractAddress": "0x68934b63b9dcd3cfa58c66694fe239e3a9c08293",
      "function": null,
      "arguments": null,
      "transaction": {
        "from": "0xdef12db2bd62f88c8d59807e0ce9868279fd7fef",
        "to": "0x68934b63b9dcd3cfa58c66694fe239e3a9c08293",
        "gas": "0x114c2",
        "value": "0x0",
        "input": "0x65fae35e000000000000000000000000b05502bf20342331f42a7b80aa4bab3f8ca86c0f",
        "nonce": "0xf6",
        "chainId": "0xaa36a7"
      },
      "additionalContracts": [],
      "isFixedGasLimit": false
    },
    {
      "hash": "0xd20d5b52eec7a363230128f192f756ac2065b02fa971242a4290e4f79cc9e87e",
      "transactionType": "CALL",
      "contractName": "MaseerProxy",
      "contractAddress": "0x68934b63b9dcd3cfa58c66694fe239e3a9c08293",
      "function": null,
      "arguments": null,
      "transaction": {
        "from": "0xdef12db2bd62f88c8d59807e0ce9868279fd7fef",
        "to": "0x68934b63b9dcd3cfa58c66694fe239e3a9c08293",
        "gas": "0xb388",
        "value": "0x0",
        "input": "0x9c52a7f10000000000000000000000001804c8ab1f12e6bbf3894d4083f33e07309d1f38",
        "nonce": "0xf7",
        "chainId": "0xaa36a7"
      },
      "additionalContracts": [],
      "isFixedGasLimit": false
    },
    {
      "hash": "0x4c38b103994799e24f202dde8de3a55adc7d6348077ee7acaf82d61e7fb4a734",
      "transactionType": "CALL",
      "contractName": "MaseerProxy",
      "contractAddress": "0x68934b63b9dcd3cfa58c66694fe239e3a9c08293",
      "function": "relyProxy(address)",
      "arguments": [
        "0xB05502bf20342331F42A7B80Aa4bAB3F8cA86C0F"
      ],
      "transaction": {
        "from": "0xdef12db2bd62f88c8d59807e0ce9868279fd7fef",
        "to": "0x68934b63b9dcd3cfa58c66694fe239e3a9c08293",
        "gas": "0x108da",
        "value": "0x0",
        "input": "0x266a164a000000000000000000000000b05502bf20342331f42a7b80aa4bab3f8ca86c0f",
        "nonce": "0xf8",
        "chainId": "0xaa36a7"
      },
      "additionalContracts": [],
      "isFixedGasLimit": false
    },
    {
      "hash": "0xd25045612003a4abb8d75c94ecd2816e69df4686fc5376dc0963eebce68cf526",
      "transactionType": "CALL",
      "contractName": "MaseerProxy",
      "contractAddress": "0x68934b63b9dcd3cfa58c66694fe239e3a9c08293",
      "function": "denyProxy(address)",
      "arguments": [
        "0x1804c8AB1F12E6bbf3894d4083f33e07309d1f38"
      ],
      "transaction": {
        "from": "0xdef12db2bd62f88c8d59807e0ce9868279fd7fef",
        "to": "0x68934b63b9dcd3cfa58c66694fe239e3a9c08293",
        "gas": "0x974a",
        "value": "0x0",
        "input": "0x0715940e0000000000000000000000001804c8ab1f12e6bbf3894d4083f33e07309d1f38",
        "nonce": "0xf9",
        "chainId": "0xaa36a7"
      },
      "additionalContracts": [],
      "isFixedGasLimit": false
    },
    {
      "hash": "0x022ea356bac5d9e7928e831f0c1ee37ad80f51305ac8fb873bc320849ce79899",
      "transactionType": "CALL",
      "contractName": "MaseerProxy",
      "contractAddress": "0x8eb6895e4900e4a432bac149a79714492cb5dc93",
      "function": null,
      "arguments": null,
      "transaction": {
        "from": "0xdef12db2bd62f88c8d59807e0ce9868279fd7fef",
        "to": "0x8eb6895e4900e4a432bac149a79714492cb5dc93",
        "gas": "0x11453",
        "value": "0x0",
        "input": "0xa3b22fc4000000000000000000000000b05502bf20342331f42a7b80aa4bab3f8ca86c0f",
        "nonce": "0xfa",
        "chainId": "0xaa36a7"
      },
      "additionalContracts": [],
      "isFixedGasLimit": false
    },
    {
      "hash": "0xea58092d88940b196e27301d06ecaab5250d3e200271cf1067fa305a1006b138",
      "transactionType": "CALL",
      "contractName": "MaseerProxy",
      "contractAddress": "0x8eb6895e4900e4a432bac149a79714492cb5dc93",
      "function": null,
      "arguments": null,
      "transaction": {
        "from": "0xdef12db2bd62f88c8d59807e0ce9868279fd7fef",
        "to": "0x8eb6895e4900e4a432bac149a79714492cb5dc93",
        "gas": "0x1148b",
        "value": "0x0",
        "input": "0xf29c29c4000000000000000000000000b05502bf20342331f42a7b80aa4bab3f8ca86c0f",
        "nonce": "0xfb",
        "chainId": "0xaa36a7"
      },
      "additionalContracts": [],
      "isFixedGasLimit": false
    },
    {
      "hash": "0x3e523a7a6f6d11d3499960e5b0cb5da3d682bb1aaed6fa5de93711a2d8a3b8e4",
      "transactionType": "CALL",
      "contractName": "MaseerProxy",
      "contractAddress": "0x8eb6895e4900e4a432bac149a79714492cb5dc93",
      "function": null,
      "arguments": null,
      "transaction": {
        "from": "0xdef12db2bd62f88c8d59807e0ce9868279fd7fef",
        "to": "0x8eb6895e4900e4a432bac149a79714492cb5dc93",
        "gas": "0x1148b",
        "value": "0x0",
        "input": "0xf29c29c4000000000000000000000000e64ab09886df82906cfb9972e1818a775aba8ed6",
        "nonce": "0xfc",
        "chainId": "0xaa36a7"
      },
      "additionalContracts": [],
      "isFixedGasLimit": false
    },
    {
      "hash": "0xc1ee2db47f9b22e960803ff2f313848b484bd754374a3de0e593dbd8ad1a7186",
      "transactionType": "CALL",
      "contractName": "MaseerProxy",
      "contractAddress": "0x8eb6895e4900e4a432bac149a79714492cb5dc93",
      "function": null,
      "arguments": null,
      "transaction": {
        "from": "0xdef12db2bd62f88c8d59807e0ce9868279fd7fef",
        "to": "0x8eb6895e4900e4a432bac149a79714492cb5dc93",
        "gas": "0x1258e",
        "value": "0x0",
        "input": "0x65fae35e000000000000000000000000b05502bf20342331f42a7b80aa4bab3f8ca86c0f",
        "nonce": "0xfd",
        "chainId": "0xaa36a7"
      },
      "additionalContracts": [],
      "isFixedGasLimit": false
    },
    {
      "hash": "0xc2b9c0bf77c1125116f23d279084759a5873d92662853f6a040ff8828efdd54d",
      "transactionType": "CALL",
      "contractName": "MaseerProxy",
      "contractAddress": "0x8eb6895e4900e4a432bac149a79714492cb5dc93",
      "function": null,
      "arguments": null,
      "transaction": {
        "from": "0xdef12db2bd62f88c8d59807e0ce9868279fd7fef",
        "to": "0x8eb6895e4900e4a432bac149a79714492cb5dc93",
        "gas": "0xb3fd",
        "value": "0x0",
        "input": "0x9c52a7f10000000000000000000000001804c8ab1f12e6bbf3894d4083f33e07309d1f38",
        "nonce": "0xfe",
        "chainId": "0xaa36a7"
      },
      "additionalContracts": [],
      "isFixedGasLimit": false
    },
    {
      "hash": "0xccc57eee366618d8fa17adb180a971799ced1dcd7ec17ff6acfcc1cbb1ba762c",
      "transactionType": "CALL",
      "contractName": "MaseerProxy",
      "contractAddress": "0x8eb6895e4900e4a432bac149a79714492cb5dc93",
      "function": "relyProxy(address)",
      "arguments": [
        "0xB05502bf20342331F42A7B80Aa4bAB3F8cA86C0F"
      ],
      "transaction": {
        "from": "0xdef12db2bd62f88c8d59807e0ce9868279fd7fef",
        "to": "0x8eb6895e4900e4a432bac149a79714492cb5dc93",
        "gas": "0x108da",
        "value": "0x0",
        "input": "0x266a164a000000000000000000000000b05502bf20342331f42a7b80aa4bab3f8ca86c0f",
        "nonce": "0xff",
        "chainId": "0xaa36a7"
      },
      "additionalContracts": [],
      "isFixedGasLimit": false
    },
    {
      "hash": "0x6c91b8feb2863b7f5d5e0e46a900fed90593c93d530d316e4520b0454ad9f4aa",
      "transactionType": "CALL",
      "contractName": "MaseerProxy",
      "contractAddress": "0x8eb6895e4900e4a432bac149a79714492cb5dc93",
      "function": "denyProxy(address)",
      "arguments": [
        "0x1804c8AB1F12E6bbf3894d4083f33e07309d1f38"
      ],
      "transaction": {
        "from": "0xdef12db2bd62f88c8d59807e0ce9868279fd7fef",
        "to": "0x8eb6895e4900e4a432bac149a79714492cb5dc93",
        "gas": "0x974a",
        "value": "0x0",
        "input": "0x0715940e0000000000000000000000001804c8ab1f12e6bbf3894d4083f33e07309d1f38",
        "nonce": "0x100",
        "chainId": "0xaa36a7"
      },
      "additionalContracts": [],
      "isFixedGasLimit": false
    }
  ],
  "receipts": [
    {
      "status": "0x1",
      "cumulativeGasUsed": "0x89c6df",
      "logs": [],
      "logsBloom": "0x00000000000000000000000000000000000000000000000000000000000000000000000000000000000000000000000000000000000000000000000000000000000000000000000000000000000000000000000000000000000000000000000000000000000000000000000000000000000000000000000000000000000000000000000000000000000000000000000000000000000000000000000000000000000000000000000000000000000000000000000000000000000000000000000000000000000000000000000000000000000000000000000000000000000000000000000000000000000000000000000000000000000000000000000000000000",
      "type": "0x2",
      "transactionHash": "0x3ee58c807ecd7ae02daf1bf547e2d5dd3067efe8cfb5262233a729df4f6716da",
      "transactionIndex": "0x43",
      "blockHash": "0xab5eb60779382d337df34fadefdc9a662629c386abcca593e1c5ea74c2ce33f6",
      "blockNumber": "0x75f2a8",
      "gasUsed": "0x8ea2e",
      "effectiveGasPrice": "0xcb1d790",
      "from": "0xdef12db2bd62f88c8d59807e0ce9868279fd7fef",
      "to": null,
      "contractAddress": "0x7898361f8438a60a25cc89e11941b13fcddb2ca5"
    },
    {
      "status": "0x1",
      "cumulativeGasUsed": "0x8ad2b1",
      "logs": [],
      "logsBloom": "0x00000000000000000000000000000000000000000000000000000000000000000000000000000000000000000000000000000000000000000000000000000000000000000000000000000000000000000000000000000000000000000000000000000000000000000000000000000000000000000000000000000000000000000000000000000000000000000000000000000000000000000000000000000000000000000000000000000000000000000000000000000000000000000000000000000000000000000000000000000000000000000000000000000000000000000000000000000000000000000000000000000000000000000000000000000000",
      "type": "0x2",
      "transactionHash": "0xdfefb8e8ee42c60e898bfe6f774c94f2ad69fdd48e1065dcf2e3a484a8653a83",
      "transactionIndex": "0x44",
      "blockHash": "0xab5eb60779382d337df34fadefdc9a662629c386abcca593e1c5ea74c2ce33f6",
      "blockNumber": "0x75f2a8",
      "gasUsed": "0x10bd2",
      "effectiveGasPrice": "0xcb1d790",
      "from": "0xdef12db2bd62f88c8d59807e0ce9868279fd7fef",
      "to": "0x7898361f8438a60a25cc89e11941b13fcddb2ca5",
      "contractAddress": null
    },
    {
      "status": "0x1",
      "cumulativeGasUsed": "0x950285",
      "logs": [],
      "logsBloom": "0x00000000000000000000000000000000000000000000000000000000000000000000000000000000000000000000000000000000000000000000000000000000000000000000000000000000000000000000000000000000000000000000000000000000000000000000000000000000000000000000000000000000000000000000000000000000000000000000000000000000000000000000000000000000000000000000000000000000000000000000000000000000000000000000000000000000000000000000000000000000000000000000000000000000000000000000000000000000000000000000000000000000000000000000000000000000",
      "type": "0x2",
      "transactionHash": "0x135bcab696874bfc2c296090bb2bcd5f9ea5b7e5963cf58f32069bad7b47364f",
      "transactionIndex": "0x45",
      "blockHash": "0xab5eb60779382d337df34fadefdc9a662629c386abcca593e1c5ea74c2ce33f6",
      "blockNumber": "0x75f2a8",
      "gasUsed": "0xa2fd4",
      "effectiveGasPrice": "0xcb1d790",
      "from": "0xdef12db2bd62f88c8d59807e0ce9868279fd7fef",
      "to": null,
      "contractAddress": "0x9d69875c39a1e30050859a59bbf8eaee38379303"
    },
    {
      "status": "0x1",
      "cumulativeGasUsed": "0x9a8bb9",
      "logs": [],
      "logsBloom": "0x00000000000000000000000000000000000000000000000000000000000000000000000000000000000000000000000000000000000000000000000000000000000000000000000000000000000000000000000000000000000000000000000000000000000000000000000000000000000000000000000000000000000000000000000000000000000000000000000000000000000000000000000000000000000000000000000000000000000000000000000000000000000000000000000000000000000000000000000000000000000000000000000000000000000000000000000000000000000000000000000000000000000000000000000000000000",
      "type": "0x2",
      "transactionHash": "0x461b924f1589b5ada7281a5e31cea80b81ed67ce83023b8a143aa17fa2cb1985",
      "transactionIndex": "0x46",
      "blockHash": "0xab5eb60779382d337df34fadefdc9a662629c386abcca593e1c5ea74c2ce33f6",
      "blockNumber": "0x75f2a8",
      "gasUsed": "0x58934",
      "effectiveGasPrice": "0xcb1d790",
      "from": "0xdef12db2bd62f88c8d59807e0ce9868279fd7fef",
      "to": null,
      "contractAddress": "0x3d773d2c05aef9fd41715fddb726aa2aaca5f77e"
    },
    {
      "status": "0x1",
      "cumulativeGasUsed": "0xabf960",
      "logs": [],
      "logsBloom": "0x00000000000000000000000000000000000000000000000000000000000000000000000000000000000000000000000000000000000000000000000000000000000000000000000000000000000000000000000000000000000000000000000000000000000000000000000000000000000000000000000000000000000000000000000000000000000000000000000000000000000000000000000000000000000000000000000000000000000000000000000000000000000000000000000000000000000000000000000000000000000000000000000000000000000000000000000000000000000000000000000000000000000000000000000000000000",
      "type": "0x2",
      "transactionHash": "0x0de92e32d0d4583fe44526918ea6353d39f5dd697528771de4855d1dd0f91039",
      "transactionIndex": "0x47",
      "blockHash": "0xab5eb60779382d337df34fadefdc9a662629c386abcca593e1c5ea74c2ce33f6",
      "blockNumber": "0x75f2a8",
      "gasUsed": "0x116da7",
      "effectiveGasPrice": "0xcb1d790",
      "from": "0xdef12db2bd62f88c8d59807e0ce9868279fd7fef",
      "to": null,
      "contractAddress": "0x9b5fbb4997f34c3c78c56814dafb8cdc19e4af91"
    },
    {
      "status": "0x1",
      "cumulativeGasUsed": "0xb182a0",
      "logs": [],
      "logsBloom": "0x00000000000000000000000000000000000000000000000000000000000000000000000000000000000000000000000000000000000000000000000000000000000000000000000000000000000000000000000000000000000000000000000000000000000000000000000000000000000000000000000000000000000000000000000000000000000000000000000000000000000000000000000000000000000000000000000000000000000000000000000000000000000000000000000000000000000000000000000000000000000000000000000000000000000000000000000000000000000000000000000000000000000000000000000000000000",
      "type": "0x2",
      "transactionHash": "0xb7c483c6d5adcfc6a81ea00f729624cd006f731874cd6acb11ffd5a3d3ae961b",
      "transactionIndex": "0x48",
      "blockHash": "0xab5eb60779382d337df34fadefdc9a662629c386abcca593e1c5ea74c2ce33f6",
      "blockNumber": "0x75f2a8",
      "gasUsed": "0x58940",
      "effectiveGasPrice": "0xcb1d790",
      "from": "0xdef12db2bd62f88c8d59807e0ce9868279fd7fef",
      "to": null,
      "contractAddress": "0x9e8c1863dc38dcf814d8ebd650894ee1a58cd4be"
    },
    {
      "status": "0x1",
      "cumulativeGasUsed": "0xb66540",
      "logs": [],
      "logsBloom": "0x00000000000000000000000000000000000000000000000000000000000000000000000000000000000000000000000000000000000000000000000000000000000000000000000000000000000000000000000000000000000000000000000000000000000000000000000000000000000000000000000000000000000000000000000000000000000000000000000000000000000000000000000000000000000000000000000000000000000000000000000000000000000000000000000000000000000000000000000000000000000000000000000000000000000000000000000000000000000000000000000000000000000000000000000000000000",
      "type": "0x2",
      "transactionHash": "0xe760eaf6256ca2a4f631a6380954379333368af6846ad06a9403ddbcdad4964f",
      "transactionIndex": "0x49",
      "blockHash": "0xab5eb60779382d337df34fadefdc9a662629c386abcca593e1c5ea74c2ce33f6",
      "blockNumber": "0x75f2a8",
      "gasUsed": "0x4e2a0",
      "effectiveGasPrice": "0xcb1d790",
      "from": "0xdef12db2bd62f88c8d59807e0ce9868279fd7fef",
      "to": null,
      "contractAddress": "0x946e35247c025c987fbbb148da65dd309270aadf"
    },
    {
      "status": "0x1",
      "cumulativeGasUsed": "0xbbee80",
      "logs": [],
      "logsBloom": "0x00000000000000000000000000000000000000000000000000000000000000000000000000000000000000000000000000000000000000000000000000000000000000000000000000000000000000000000000000000000000000000000000000000000000000000000000000000000000000000000000000000000000000000000000000000000000000000000000000000000000000000000000000000000000000000000000000000000000000000000000000000000000000000000000000000000000000000000000000000000000000000000000000000000000000000000000000000000000000000000000000000000000000000000000000000000",
      "type": "0x2",
      "transactionHash": "0x2a9be7ab9f871c74bda609f42ad7da631a8a3ee8b682122a015dc4da4160e215",
      "transactionIndex": "0x4a",
      "blockHash": "0xab5eb60779382d337df34fadefdc9a662629c386abcca593e1c5ea74c2ce33f6",
      "blockNumber": "0x75f2a8",
      "gasUsed": "0x58940",
      "effectiveGasPrice": "0xcb1d790",
      "from": "0xdef12db2bd62f88c8d59807e0ce9868279fd7fef",
      "to": null,
      "contractAddress": "0x68934b63b9dcd3cfa58c66694fe239e3a9c08293"
    },
    {
      "status": "0x1",
      "cumulativeGasUsed": "0xc7399e",
      "logs": [],
      "logsBloom": "0x00000000000000000000000000000000000000000000000000000000000000000000000000000000000000000000000000000000000000000000000000000000000000000000000000000000000000000000000000000000000000000000000000000000000000000000000000000000000000000000000000000000000000000000000000000000000000000000000000000000000000000000000000000000000000000000000000000000000000000000000000000000000000000000000000000000000000000000000000000000000000000000000000000000000000000000000000000000000000000000000000000000000000000000000000000000",
      "type": "0x2",
      "transactionHash": "0x8f39a9d88b682ee6d3d664861b908fed4da820827f4384e3071d940ef821c923",
      "transactionIndex": "0x4b",
      "blockHash": "0xab5eb60779382d337df34fadefdc9a662629c386abcca593e1c5ea74c2ce33f6",
      "blockNumber": "0x75f2a8",
      "gasUsed": "0xb4b1e",
      "effectiveGasPrice": "0xcb1d790",
      "from": "0xdef12db2bd62f88c8d59807e0ce9868279fd7fef",
      "to": null,
      "contractAddress": "0x0a1589136e0171c7d53b3d9d03b74fd31e98b8ee"
    },
    {
      "status": "0x1",
      "cumulativeGasUsed": "0xccc2de",
      "logs": [],
      "logsBloom": "0x00000000000000000000000000000000000000000000000000000000000000000000000000000000000000000000000000000000000000000000000000000000000000000000000000000000000000000000000000000000000000000000000000000000000000000000000000000000000000000000000000000000000000000000000000000000000000000000000000000000000000000000000000000000000000000000000000000000000000000000000000000000000000000000000000000000000000000000000000000000000000000000000000000000000000000000000000000000000000000000000000000000000000000000000000000000",
      "type": "0x2",
      "transactionHash": "0x7d3d4bbe2ea27cf3f5bf1fc3335b01bff4be269c29c007277a8e8c762382535a",
      "transactionIndex": "0x4c",
      "blockHash": "0xab5eb60779382d337df34fadefdc9a662629c386abcca593e1c5ea74c2ce33f6",
      "blockNumber": "0x75f2a8",
      "gasUsed": "0x58940",
      "effectiveGasPrice": "0xcb1d790",
      "from": "0xdef12db2bd62f88c8d59807e0ce9868279fd7fef",
      "to": null,
      "contractAddress": "0x8eb6895e4900e4a432bac149a79714492cb5dc93"
    },
    {
      "status": "0x1",
      "cumulativeGasUsed": "0xef2d55",
      "logs": [],
      "logsBloom": "0x00000000000000000000000000000000000000000000000000000000000000000000000000000000000000000000000000000000000000000000000000000000000000000000000000000000000000000000000000000000000000000000000000000000000000000000000000000000000000000000000000000000000000000000000000000000000000000000000000000000000000000000000000000000000000000000000000000000000000000000000000000000000000000000000000000000000000000000000000000000000000000000000000000000000000000000000000000000000000000000000000000000000000000000000000000000",
      "type": "0x2",
      "transactionHash": "0x8a8df8f6ec70313d75fb34ef228961f02f3235e20412112946ca2c10d106a2bb",
      "transactionIndex": "0x4d",
      "blockHash": "0xab5eb60779382d337df34fadefdc9a662629c386abcca593e1c5ea74c2ce33f6",
      "blockNumber": "0x75f2a8",
      "gasUsed": "0x226a77",
      "effectiveGasPrice": "0xcb1d790",
      "from": "0xdef12db2bd62f88c8d59807e0ce9868279fd7fef",
      "to": null,
      "contractAddress": "0xe64ab09886df82906cfb9972e1818a775aba8ed6"
    },
    {
      "status": "0x1",
      "cumulativeGasUsed": "0xeffb2c",
      "logs": [
        {
          "address": "0x3d773d2c05aef9fd41715fddb726aa2aaca5f77e",
          "topics": [
            "0x943a793c11a909d4409e7706d8c3d1467960e08f6141234950042994856812df",
            "0x6e616d6500000000000000000000000000000000000000000000000000000000"
          ],
          "data": "0x43414e4155534454000000000000000000000000000000000000000000000000",
          "blockHash": "0xab5eb60779382d337df34fadefdc9a662629c386abcca593e1c5ea74c2ce33f6",
          "blockNumber": "0x75f2a8",
          "transactionHash": "0xed3167d04d6727cd7f32e4da86edf6aed4ea4cb6a5224a3031b57cfc615e6b8d",
          "transactionIndex": "0x4e",
          "logIndex": "0x55",
          "removed": false
        }
      ],
      "logsBloom": "0x00000000000000000000000000000000000000000000000000000000000000000000000000000000800000000000200000000000000000000000000000000000000000200000000000000000000000000000000000000000000000000000000000000000000000000000000000000000000000000000000000000000000000000000000000000000000000000000000000000000000000000000000000000010000000080000000000000000000000000020000000000000000000000000000000000000000000000000000000000000000400100000000000000000000000000000000100000000000000000000000000000000000000000000000000000000",
      "type": "0x2",
      "transactionHash": "0xed3167d04d6727cd7f32e4da86edf6aed4ea4cb6a5224a3031b57cfc615e6b8d",
      "transactionIndex": "0x4e",
      "blockHash": "0xab5eb60779382d337df34fadefdc9a662629c386abcca593e1c5ea74c2ce33f6",
      "blockNumber": "0x75f2a8",
      "gasUsed": "0xcdd7",
      "effectiveGasPrice": "0xcb1d790",
      "from": "0xdef12db2bd62f88c8d59807e0ce9868279fd7fef",
      "to": "0x3d773d2c05aef9fd41715fddb726aa2aaca5f77e",
      "contractAddress": null
    },
    {
      "status": "0x1",
      "cumulativeGasUsed": "0xf0c91b",
      "logs": [
        {
          "address": "0x3d773d2c05aef9fd41715fddb726aa2aaca5f77e",
          "topics": [
            "0x943a793c11a909d4409e7706d8c3d1467960e08f6141234950042994856812df",
            "0x646563696d616c73000000000000000000000000000000000000000000000000"
          ],
          "data": "0x0000000000000000000000000000000000000000000000000000000000000006",
          "blockHash": "0xab5eb60779382d337df34fadefdc9a662629c386abcca593e1c5ea74c2ce33f6",
          "blockNumber": "0x75f2a8",
          "transactionHash": "0x606f07048298458a4db7afeee3a4524acc6c5f53409441b04d895f1aea7ab45a",
          "transactionIndex": "0x4f",
          "logIndex": "0x56",
          "removed": false
        }
      ],
      "logsBloom": "0x00000000000000000000000000000000000000000000000000000000000000000000000000000000000000000400200000000000000000000000000000000000000000200000000000000000000000000000000000000000000000000000000000000000000000000000000000000000000000000000000000000000000000000000000000000000000000000000000000000000000000000000000000000000000000080000000000000000000000000020000000000000000000000000000000000000000000000000000000000000001000100000000000000000000000000000000100000000000000000000000000004000000000000000000000000000",
      "type": "0x2",
      "transactionHash": "0x606f07048298458a4db7afeee3a4524acc6c5f53409441b04d895f1aea7ab45a",
      "transactionIndex": "0x4f",
      "blockHash": "0xab5eb60779382d337df34fadefdc9a662629c386abcca593e1c5ea74c2ce33f6",
      "blockNumber": "0x75f2a8",
      "gasUsed": "0xcdef",
      "effectiveGasPrice": "0xcb1d790",
      "from": "0xdef12db2bd62f88c8d59807e0ce9868279fd7fef",
      "to": "0x3d773d2c05aef9fd41715fddb726aa2aaca5f77e",
      "contractAddress": null
    },
    {
      "status": "0x1",
      "cumulativeGasUsed": "0xf195e7",
      "logs": [
        {
          "address": "0x3d773d2c05aef9fd41715fddb726aa2aaca5f77e",
          "topics": [
            "0x92664190cca12aca9cd5309d87194bdda75bb51362d71c06e1a6f75c7c765711",
            "0x00000000000000000000000000000000000000000000000000000000000f4240",
            "0x0000000000000000000000000000000000000000000000000000000067b3bae4"
          ],
          "data": "0x",
          "blockHash": "0xab5eb60779382d337df34fadefdc9a662629c386abcca593e1c5ea74c2ce33f6",
          "blockNumber": "0x75f2a8",
          "transactionHash": "0xd02115b5dce761984cdd54655027b29fd9d30e193eff3186aa32c450c0253971",
          "transactionIndex": "0x50",
          "logIndex": "0x57",
          "removed": false
        }
      ],
      "logsBloom": "0x00000000000000000000000000000000000000000000000000000000000000000000000000000000000000000000200000001000000000000800000000000000000000000000000000000000000000000000000000000000000000000000000000000000000000000000000000000000000200000000000000000000000000000000000000000000000000000010000000000000000000000000000000000000000000080000000000000000000002000000000000000010000000000000000000000000000000000000800000000000000000000000000000000000000000100000000100000000000000000000000000000000008000000000000000000000",
      "type": "0x2",
      "transactionHash": "0xd02115b5dce761984cdd54655027b29fd9d30e193eff3186aa32c450c0253971",
      "transactionIndex": "0x50",
      "blockHash": "0xab5eb60779382d337df34fadefdc9a662629c386abcca593e1c5ea74c2ce33f6",
      "blockNumber": "0x75f2a8",
      "gasUsed": "0xcccc",
      "effectiveGasPrice": "0xcb1d790",
      "from": "0xdef12db2bd62f88c8d59807e0ce9868279fd7fef",
      "to": "0x3d773d2c05aef9fd41715fddb726aa2aaca5f77e",
      "contractAddress": null
    },
    {
      "status": "0x1",
      "cumulativeGasUsed": "0xf25e67",
      "logs": [],
      "logsBloom": "0x00000000000000000000000000000000000000000000000000000000000000000000000000000000000000000000000000000000000000000000000000000000000000000000000000000000000000000000000000000000000000000000000000000000000000000000000000000000000000000000000000000000000000000000000000000000000000000000000000000000000000000000000000000000000000000000000000000000000000000000000000000000000000000000000000000000000000000000000000000000000000000000000000000000000000000000000000000000000000000000000000000000000000000000000000000000",
      "type": "0x2",
      "transactionHash": "0xc5e53f66eb4508a8d35400c37e04282190cb6987dee48b0f79a72f7168795504",
      "transactionIndex": "0x51",
      "blockHash": "0xab5eb60779382d337df34fadefdc9a662629c386abcca593e1c5ea74c2ce33f6",
      "blockNumber": "0x75f2a8",
      "gasUsed": "0xc880",
      "effectiveGasPrice": "0xcb1d790",
      "from": "0xdef12db2bd62f88c8d59807e0ce9868279fd7fef",
      "to": "0x3d773d2c05aef9fd41715fddb726aa2aaca5f77e",
      "contractAddress": null
    },
    {
      "status": "0x1",
      "cumulativeGasUsed": "0xf2d929",
      "logs": [],
      "logsBloom": "0x00000000000000000000000000000000000000000000000000000000000000000000000000000000000000000000000000000000000000000000000000000000000000000000000000000000000000000000000000000000000000000000000000000000000000000000000000000000000000000000000000000000000000000000000000000000000000000000000000000000000000000000000000000000000000000000000000000000000000000000000000000000000000000000000000000000000000000000000000000000000000000000000000000000000000000000000000000000000000000000000000000000000000000000000000000000",
      "type": "0x2",
      "transactionHash": "0xe62920825c808420a975c5d7a620071dcbf836204124aa715f66eb2fda4b1fc0",
      "transactionIndex": "0x52",
      "blockHash": "0xab5eb60779382d337df34fadefdc9a662629c386abcca593e1c5ea74c2ce33f6",
      "blockNumber": "0x75f2a8",
      "gasUsed": "0x7ac2",
      "effectiveGasPrice": "0xcb1d790",
      "from": "0xdef12db2bd62f88c8d59807e0ce9868279fd7fef",
      "to": "0x3d773d2c05aef9fd41715fddb726aa2aaca5f77e",
      "contractAddress": null
    },
    {
      "status": "0x1",
      "cumulativeGasUsed": "0x5382e2",
      "logs": [],
      "logsBloom": "0x00000000000000000000000000000000000000000000000000000000000000000000000000000000000000000000000000000000000000000000000000000000000000000000000000000000000000000000000000000000000000000000000000000000000000000000000000000000000000000000000000000000000000000000000000000000000000000000000000000000000000000000000000000000000000000000000000000000000000000000000000000000000000000000000000000000000000000000000000000000000000000000000000000000000000000000000000000000000000000000000000000000000000000000000000000000",
      "type": "0x2",
      "transactionHash": "0x94e806b49aa450b68f15fb69ef45649037a88a12f229fc6d95b754035641d545",
      "transactionIndex": "0x43",
      "blockHash": "0x3e0a02579d34ef1d88680272a5ad0202c8b106d04e187ee9652c40fc14555593",
      "blockNumber": "0x75f2ab",
      "gasUsed": "0xb519",
      "effectiveGasPrice": "0xc2c0589",
      "from": "0xdef12db2bd62f88c8d59807e0ce9868279fd7fef",
      "to": "0x3d773d2c05aef9fd41715fddb726aa2aaca5f77e",
      "contractAddress": null
    },
    {
      "status": "0x1",
      "cumulativeGasUsed": "0x53ea55",
      "logs": [],
      "logsBloom": "0x00000000000000000000000000000000000000000000000000000000000000000000000000000000000000000000000000000000000000000000000000000000000000000000000000000000000000000000000000000000000000000000000000000000000000000000000000000000000000000000000000000000000000000000000000000000000000000000000000000000000000000000000000000000000000000000000000000000000000000000000000000000000000000000000000000000000000000000000000000000000000000000000000000000000000000000000000000000000000000000000000000000000000000000000000000000",
      "type": "0x2",
      "transactionHash": "0xef8471a8a6a80f2276f7020710c340d3954f2d286ae862c133337e6b93fd9d79",
      "transactionIndex": "0x44",
      "blockHash": "0x3e0a02579d34ef1d88680272a5ad0202c8b106d04e187ee9652c40fc14555593",
      "blockNumber": "0x75f2ab",
      "gasUsed": "0x6773",
      "effectiveGasPrice": "0xc2c0589",
      "from": "0xdef12db2bd62f88c8d59807e0ce9868279fd7fef",
      "to": "0x3d773d2c05aef9fd41715fddb726aa2aaca5f77e",
      "contractAddress": null
    },
    {
      "status": "0x1",
      "cumulativeGasUsed": "0x54b165",
      "logs": [],
      "logsBloom": "0x00000000000000000000000000000000000000000000000000000000000000000000000000000000000000000000000000000000000000000000000000000000000000000000000000000000000000000000000000000000000000000000000000000000000000000000000000000000000000000000000000000000000000000000000000000000000000000000000000000000000000000000000000000000000000000000000000000000000000000000000000000000000000000000000000000000000000000000000000000000000000000000000000000000000000000000000000000000000000000000000000000000000000000000000000000000",
      "type": "0x2",
      "transactionHash": "0x9899d3a37fe1df731ffdd88426e2f386c57fd7789e228a5aa984987cf6a5817b",
      "transactionIndex": "0x45",
      "blockHash": "0x3e0a02579d34ef1d88680272a5ad0202c8b106d04e187ee9652c40fc14555593",
      "blockNumber": "0x75f2ab",
      "gasUsed": "0xc710",
      "effectiveGasPrice": "0xc2c0589",
      "from": "0xdef12db2bd62f88c8d59807e0ce9868279fd7fef",
      "to": "0x9e8c1863dc38dcf814d8ebd650894ee1a58cd4be",
      "contractAddress": null
    },
    {
      "status": "0x1",
      "cumulativeGasUsed": "0x5578b7",
      "logs": [],
      "logsBloom": "0x00000000000000000000000000000000000000000000000000000000000000000000000000000000000000000000000000000000000000000000000000000000000000000000000000000000000000000000000000000000000000000000000000000000000000000000000000000000000000000000000000000000000000000000000000000000000000000000000000000000000000000000000000000000000000000000000000000000000000000000000000000000000000000000000000000000000000000000000000000000000000000000000000000000000000000000000000000000000000000000000000000000000000000000000000000000",
      "type": "0x2",
      "transactionHash": "0x0247c2a05aa72fd39409750ff9df32286d82f5b420bd7ed1764a69ea50fdae6d",
      "transactionIndex": "0x46",
      "blockHash": "0x3e0a02579d34ef1d88680272a5ad0202c8b106d04e187ee9652c40fc14555593",
      "blockNumber": "0x75f2ab",
      "gasUsed": "0xc752",
      "effectiveGasPrice": "0xc2c0589",
      "from": "0xdef12db2bd62f88c8d59807e0ce9868279fd7fef",
      "to": "0x9e8c1863dc38dcf814d8ebd650894ee1a58cd4be",
      "contractAddress": null
    },
    {
      "status": "0x1",
      "cumulativeGasUsed": "0x563fc5",
      "logs": [],
      "logsBloom": "0x00000000000000000000000000000000000000000000000000000000000000000000000000000000000000000000000000000000000000000000000000000000000000000000000000000000000000000000000000000000000000000000000000000000000000000000000000000000000000000000000000000000000000000000000000000000000000000000000000000000000000000000000000000000000000000000000000000000000000000000000000000000000000000000000000000000000000000000000000000000000000000000000000000000000000000000000000000000000000000000000000000000000000000000000000000000",
      "type": "0x2",
      "transactionHash": "0x9755d6bdb8d5f4f3b18fba5e4322b2cc7fb4236092173049c1af0ac01a22db54",
      "transactionIndex": "0x47",
      "blockHash": "0x3e0a02579d34ef1d88680272a5ad0202c8b106d04e187ee9652c40fc14555593",
      "blockNumber": "0x75f2ab",
      "gasUsed": "0xc70e",
      "effectiveGasPrice": "0xc2c0589",
      "from": "0xdef12db2bd62f88c8d59807e0ce9868279fd7fef",
      "to": "0x9e8c1863dc38dcf814d8ebd650894ee1a58cd4be",
      "contractAddress": null
    },
    {
      "status": "0x1",
      "cumulativeGasUsed": "0x5706fe",
      "logs": [],
      "logsBloom": "0x00000000000000000000000000000000000000000000000000000000000000000000000000000000000000000000000000000000000000000000000000000000000000000000000000000000000000000000000000000000000000000000000000000000000000000000000000000000000000000000000000000000000000000000000000000000000000000000000000000000000000000000000000000000000000000000000000000000000000000000000000000000000000000000000000000000000000000000000000000000000000000000000000000000000000000000000000000000000000000000000000000000000000000000000000000000",
      "type": "0x2",
      "transactionHash": "0xbdd931308852146fd52f941885fd80ad06b7ca37016e9e21dca3ad8cacb0dd30",
      "transactionIndex": "0x48",
      "blockHash": "0x3e0a02579d34ef1d88680272a5ad0202c8b106d04e187ee9652c40fc14555593",
      "blockNumber": "0x75f2ab",
      "gasUsed": "0xc739",
      "effectiveGasPrice": "0xc2c0589",
      "from": "0xdef12db2bd62f88c8d59807e0ce9868279fd7fef",
      "to": "0x9e8c1863dc38dcf814d8ebd650894ee1a58cd4be",
      "contractAddress": null
    },
    {
      "status": "0x1",
      "cumulativeGasUsed": "0x57cfaa",
      "logs": [],
      "logsBloom": "0x00000000000000000000000000000000000000000000000000000000000000000000000000000000000000000000000000000000000000000000000000000000000000000000000000000000000000000000000000000000000000000000000000000000000000000000000000000000000000000000000000000000000000000000000000000000000000000000000000000000000000000000000000000000000000000000000000000000000000000000000000000000000000000000000000000000000000000000000000000000000000000000000000000000000000000000000000000000000000000000000000000000000000000000000000000000",
      "type": "0x2",
      "transactionHash": "0x9196f13b22fbfe4d1841ec8ba6375727dda249a59068c43b588bb0f929206d1e",
      "transactionIndex": "0x49",
      "blockHash": "0x3e0a02579d34ef1d88680272a5ad0202c8b106d04e187ee9652c40fc14555593",
      "blockNumber": "0x75f2ab",
      "gasUsed": "0xc8ac",
      "effectiveGasPrice": "0xc2c0589",
      "from": "0xdef12db2bd62f88c8d59807e0ce9868279fd7fef",
      "to": "0x9e8c1863dc38dcf814d8ebd650894ee1a58cd4be",
      "contractAddress": null
    },
    {
      "status": "0x1",
      "cumulativeGasUsed": "0x584aaf",
      "logs": [],
      "logsBloom": "0x00000000000000000000000000000000000000000000000000000000000000000000000000000000000000000000000000000000000000000000000000000000000000000000000000000000000000000000000000000000000000000000000000000000000000000000000000000000000000000000000000000000000000000000000000000000000000000000000000000000000000000000000000000000000000000000000000000000000000000000000000000000000000000000000000000000000000000000000000000000000000000000000000000000000000000000000000000000000000000000000000000000000000000000000000000000",
      "type": "0x2",
      "transactionHash": "0x83b3b314469f02d79e209e2d383410c7cbb750753df95117c6d6a610d079cf4a",
      "transactionIndex": "0x4a",
      "blockHash": "0x3e0a02579d34ef1d88680272a5ad0202c8b106d04e187ee9652c40fc14555593",
      "blockNumber": "0x75f2ab",
      "gasUsed": "0x7b05",
      "effectiveGasPrice": "0xc2c0589",
      "from": "0xdef12db2bd62f88c8d59807e0ce9868279fd7fef",
      "to": "0x9e8c1863dc38dcf814d8ebd650894ee1a58cd4be",
      "contractAddress": null
    },
    {
      "status": "0x1",
      "cumulativeGasUsed": "0x58ffc8",
      "logs": [],
      "logsBloom": "0x00000000000000000000000000000000000000000000000000000000000000000000000000000000000000000000000000000000000000000000000000000000000000000000000000000000000000000000000000000000000000000000000000000000000000000000000000000000000000000000000000000000000000000000000000000000000000000000000000000000000000000000000000000000000000000000000000000000000000000000000000000000000000000000000000000000000000000000000000000000000000000000000000000000000000000000000000000000000000000000000000000000000000000000000000000000",
      "type": "0x2",
      "transactionHash": "0x3259c6568d7bf28c67cca5d853e8299e2a76e328555adb2f25c6787659c706fc",
      "transactionIndex": "0x4b",
      "blockHash": "0x3e0a02579d34ef1d88680272a5ad0202c8b106d04e187ee9652c40fc14555593",
      "blockNumber": "0x75f2ab",
      "gasUsed": "0xb519",
      "effectiveGasPrice": "0xc2c0589",
      "from": "0xdef12db2bd62f88c8d59807e0ce9868279fd7fef",
      "to": "0x9e8c1863dc38dcf814d8ebd650894ee1a58cd4be",
      "contractAddress": null
    },
    {
      "status": "0x1",
      "cumulativeGasUsed": "0x59673b",
      "logs": [],
      "logsBloom": "0x00000000000000000000000000000000000000000000000000000000000000000000000000000000000000000000000000000000000000000000000000000000000000000000000000000000000000000000000000000000000000000000000000000000000000000000000000000000000000000000000000000000000000000000000000000000000000000000000000000000000000000000000000000000000000000000000000000000000000000000000000000000000000000000000000000000000000000000000000000000000000000000000000000000000000000000000000000000000000000000000000000000000000000000000000000000",
      "type": "0x2",
      "transactionHash": "0x447e12a322229eca50be551b814fe794e930dcecd015829c8d0c830d301bf19a",
      "transactionIndex": "0x4c",
      "blockHash": "0x3e0a02579d34ef1d88680272a5ad0202c8b106d04e187ee9652c40fc14555593",
      "blockNumber": "0x75f2ab",
      "gasUsed": "0x6773",
      "effectiveGasPrice": "0xc2c0589",
      "from": "0xdef12db2bd62f88c8d59807e0ce9868279fd7fef",
      "to": "0x9e8c1863dc38dcf814d8ebd650894ee1a58cd4be",
      "contractAddress": null
    },
    {
      "status": "0x1",
      "cumulativeGasUsed": "0x5a2f9a",
      "logs": [],
      "logsBloom": "0x00000000000000000000000000000000000000000000000000000000000000000000000000000000000000000000000000000000000000000000000000000000000000000000000000000000000000000000000000000000000000000000000000000000000000000000000000000000000000000000000000000000000000000000000000000000000000000000000000000000000000000000000000000000000000000000000000000000000000000000000000000000000000000000000000000000000000000000000000000000000000000000000000000000000000000000000000000000000000000000000000000000000000000000000000000000",
      "type": "0x2",
      "transactionHash": "0xe6ac5b8084cfbc206e18283818022420e52302d927277ebd34203b89c84c8c97",
      "transactionIndex": "0x4d",
      "blockHash": "0x3e0a02579d34ef1d88680272a5ad0202c8b106d04e187ee9652c40fc14555593",
      "blockNumber": "0x75f2ab",
      "gasUsed": "0xc85f",
      "effectiveGasPrice": "0xc2c0589",
      "from": "0xdef12db2bd62f88c8d59807e0ce9868279fd7fef",
      "to": "0x68934b63b9dcd3cfa58c66694fe239e3a9c08293",
      "contractAddress": null
    },
    {
      "status": "0x1",
      "cumulativeGasUsed": "0x5aaa5c",
      "logs": [],
      "logsBloom": "0x00000000000000000000000000000000000000000000000000000000000000000000000000000000000000000000000000000000000000000000000000000000000000000000000000000000000000000000000000000000000000000000000000000000000000000000000000000000000000000000000000000000000000000000000000000000000000000000000000000000000000000000000000000000000000000000000000000000000000000000000000000000000000000000000000000000000000000000000000000000000000000000000000000000000000000000000000000000000000000000000000000000000000000000000000000000",
      "type": "0x2",
      "transactionHash": "0xd20d5b52eec7a363230128f192f756ac2065b02fa971242a4290e4f79cc9e87e",
      "transactionIndex": "0x4e",
      "blockHash": "0x3e0a02579d34ef1d88680272a5ad0202c8b106d04e187ee9652c40fc14555593",
      "blockNumber": "0x75f2ab",
      "gasUsed": "0x7ac2",
      "effectiveGasPrice": "0xc2c0589",
      "from": "0xdef12db2bd62f88c8d59807e0ce9868279fd7fef",
      "to": "0x68934b63b9dcd3cfa58c66694fe239e3a9c08293",
      "contractAddress": null
    },
    {
      "status": "0x1",
      "cumulativeGasUsed": "0x5b5f75",
      "logs": [],
      "logsBloom": "0x00000000000000000000000000000000000000000000000000000000000000000000000000000000000000000000000000000000000000000000000000000000000000000000000000000000000000000000000000000000000000000000000000000000000000000000000000000000000000000000000000000000000000000000000000000000000000000000000000000000000000000000000000000000000000000000000000000000000000000000000000000000000000000000000000000000000000000000000000000000000000000000000000000000000000000000000000000000000000000000000000000000000000000000000000000000",
      "type": "0x2",
      "transactionHash": "0x4c38b103994799e24f202dde8de3a55adc7d6348077ee7acaf82d61e7fb4a734",
      "transactionIndex": "0x4f",
      "blockHash": "0x3e0a02579d34ef1d88680272a5ad0202c8b106d04e187ee9652c40fc14555593",
      "blockNumber": "0x75f2ab",
      "gasUsed": "0xb519",
      "effectiveGasPrice": "0xc2c0589",
      "from": "0xdef12db2bd62f88c8d59807e0ce9868279fd7fef",
      "to": "0x68934b63b9dcd3cfa58c66694fe239e3a9c08293",
      "contractAddress": null
    },
    {
      "status": "0x1",
      "cumulativeGasUsed": "0x5bc6e8",
      "logs": [],
      "logsBloom": "0x00000000000000000000000000000000000000000000000000000000000000000000000000000000000000000000000000000000000000000000000000000000000000000000000000000000000000000000000000000000000000000000000000000000000000000000000000000000000000000000000000000000000000000000000000000000000000000000000000000000000000000000000000000000000000000000000000000000000000000000000000000000000000000000000000000000000000000000000000000000000000000000000000000000000000000000000000000000000000000000000000000000000000000000000000000000",
      "type": "0x2",
      "transactionHash": "0xd25045612003a4abb8d75c94ecd2816e69df4686fc5376dc0963eebce68cf526",
      "transactionIndex": "0x50",
      "blockHash": "0x3e0a02579d34ef1d88680272a5ad0202c8b106d04e187ee9652c40fc14555593",
      "blockNumber": "0x75f2ab",
      "gasUsed": "0x6773",
      "effectiveGasPrice": "0xc2c0589",
      "from": "0xdef12db2bd62f88c8d59807e0ce9868279fd7fef",
      "to": "0x68934b63b9dcd3cfa58c66694fe239e3a9c08293",
      "contractAddress": null
    },
    {
      "status": "0x1",
      "cumulativeGasUsed": "0x5c8ef7",
      "logs": [],
      "logsBloom": "0x00000000000000000000000000000000000000000000000000000000000000000000000000000000000000000000000000000000000000000000000000000000000000000000000000000000000000000000000000000000000000000000000000000000000000000000000000000000000000000000000000000000000000000000000000000000000000000000000000000000000000000000000000000000000000000000000000000000000000000000000000000000000000000000000000000000000000000000000000000000000000000000000000000000000000000000000000000000000000000000000000000000000000000000000000000000",
      "type": "0x2",
      "transactionHash": "0x022ea356bac5d9e7928e831f0c1ee37ad80f51305ac8fb873bc320849ce79899",
      "transactionIndex": "0x51",
      "blockHash": "0x3e0a02579d34ef1d88680272a5ad0202c8b106d04e187ee9652c40fc14555593",
      "blockNumber": "0x75f2ab",
      "gasUsed": "0xc80f",
      "effectiveGasPrice": "0xc2c0589",
      "from": "0xdef12db2bd62f88c8d59807e0ce9868279fd7fef",
      "to": "0x8eb6895e4900e4a432bac149a79714492cb5dc93",
      "contractAddress": null
    },
    {
      "status": "0x1",
      "cumulativeGasUsed": "0x5d572e",
      "logs": [],
      "logsBloom": "0x00000000000000000000000000000000000000000000000000000000000000000000000000000000000000000000000000000000000000000000000000000000000000000000000000000000000000000000000000000000000000000000000000000000000000000000000000000000000000000000000000000000000000000000000000000000000000000000000000000000000000000000000000000000000000000000000000000000000000000000000000000000000000000000000000000000000000000000000000000000000000000000000000000000000000000000000000000000000000000000000000000000000000000000000000000000",
      "type": "0x2",
      "transactionHash": "0xea58092d88940b196e27301d06ecaab5250d3e200271cf1067fa305a1006b138",
      "transactionIndex": "0x52",
      "blockHash": "0x3e0a02579d34ef1d88680272a5ad0202c8b106d04e187ee9652c40fc14555593",
      "blockNumber": "0x75f2ab",
      "gasUsed": "0xc837",
      "effectiveGasPrice": "0xc2c0589",
      "from": "0xdef12db2bd62f88c8d59807e0ce9868279fd7fef",
      "to": "0x8eb6895e4900e4a432bac149a79714492cb5dc93",
      "contractAddress": null
    },
    {
      "status": "0x1",
      "cumulativeGasUsed": "0x5e1f65",
      "logs": [],
      "logsBloom": "0x00000000000000000000000000000000000000000000000000000000000000000000000000000000000000000000000000000000000000000000000000000000000000000000000000000000000000000000000000000000000000000000000000000000000000000000000000000000000000000000000000000000000000000000000000000000000000000000000000000000000000000000000000000000000000000000000000000000000000000000000000000000000000000000000000000000000000000000000000000000000000000000000000000000000000000000000000000000000000000000000000000000000000000000000000000000",
      "type": "0x2",
      "transactionHash": "0x3e523a7a6f6d11d3499960e5b0cb5da3d682bb1aaed6fa5de93711a2d8a3b8e4",
      "transactionIndex": "0x53",
      "blockHash": "0x3e0a02579d34ef1d88680272a5ad0202c8b106d04e187ee9652c40fc14555593",
      "blockNumber": "0x75f2ab",
      "gasUsed": "0xc837",
      "effectiveGasPrice": "0xc2c0589",
      "from": "0xdef12db2bd62f88c8d59807e0ce9868279fd7fef",
      "to": "0x8eb6895e4900e4a432bac149a79714492cb5dc93",
      "contractAddress": null
    },
    {
      "status": "0x1",
      "cumulativeGasUsed": "0x5ee81e",
      "logs": [],
      "logsBloom": "0x00000000000000000000000000000000000000000000000000000000000000000000000000000000000000000000000000000000000000000000000000000000000000000000000000000000000000000000000000000000000000000000000000000000000000000000000000000000000000000000000000000000000000000000000000000000000000000000000000000000000000000000000000000000000000000000000000000000000000000000000000000000000000000000000000000000000000000000000000000000000000000000000000000000000000000000000000000000000000000000000000000000000000000000000000000000",
      "type": "0x2",
      "transactionHash": "0xc1ee2db47f9b22e960803ff2f313848b484bd754374a3de0e593dbd8ad1a7186",
      "transactionIndex": "0x54",
      "blockHash": "0x3e0a02579d34ef1d88680272a5ad0202c8b106d04e187ee9652c40fc14555593",
      "blockNumber": "0x75f2ab",
      "gasUsed": "0xc8b9",
      "effectiveGasPrice": "0xc2c0589",
      "from": "0xdef12db2bd62f88c8d59807e0ce9868279fd7fef",
      "to": "0x8eb6895e4900e4a432bac149a79714492cb5dc93",
      "contractAddress": null
    },
    {
      "status": "0x1",
      "cumulativeGasUsed": "0x5f6330",
      "logs": [],
      "logsBloom": "0x00000000000000000000000000000000000000000000000000000000000000000000000000000000000000000000000000000000000000000000000000000000000000000000000000000000000000000000000000000000000000000000000000000000000000000000000000000000000000000000000000000000000000000000000000000000000000000000000000000000000000000000000000000000000000000000000000000000000000000000000000000000000000000000000000000000000000000000000000000000000000000000000000000000000000000000000000000000000000000000000000000000000000000000000000000000",
      "type": "0x2",
      "transactionHash": "0xc2b9c0bf77c1125116f23d279084759a5873d92662853f6a040ff8828efdd54d",
      "transactionIndex": "0x55",
      "blockHash": "0x3e0a02579d34ef1d88680272a5ad0202c8b106d04e187ee9652c40fc14555593",
      "blockNumber": "0x75f2ab",
      "gasUsed": "0x7b12",
      "effectiveGasPrice": "0xc2c0589",
      "from": "0xdef12db2bd62f88c8d59807e0ce9868279fd7fef",
      "to": "0x8eb6895e4900e4a432bac149a79714492cb5dc93",
      "contractAddress": null
    },
    {
      "status": "0x1",
      "cumulativeGasUsed": "0x601849",
      "logs": [],
      "logsBloom": "0x00000000000000000000000000000000000000000000000000000000000000000000000000000000000000000000000000000000000000000000000000000000000000000000000000000000000000000000000000000000000000000000000000000000000000000000000000000000000000000000000000000000000000000000000000000000000000000000000000000000000000000000000000000000000000000000000000000000000000000000000000000000000000000000000000000000000000000000000000000000000000000000000000000000000000000000000000000000000000000000000000000000000000000000000000000000",
      "type": "0x2",
      "transactionHash": "0xccc57eee366618d8fa17adb180a971799ced1dcd7ec17ff6acfcc1cbb1ba762c",
      "transactionIndex": "0x56",
      "blockHash": "0x3e0a02579d34ef1d88680272a5ad0202c8b106d04e187ee9652c40fc14555593",
      "blockNumber": "0x75f2ab",
      "gasUsed": "0xb519",
      "effectiveGasPrice": "0xc2c0589",
      "from": "0xdef12db2bd62f88c8d59807e0ce9868279fd7fef",
      "to": "0x8eb6895e4900e4a432bac149a79714492cb5dc93",
      "contractAddress": null
    },
    {
      "status": "0x1",
      "cumulativeGasUsed": "0x607fbc",
      "logs": [],
      "logsBloom": "0x00000000000000000000000000000000000000000000000000000000000000000000000000000000000000000000000000000000000000000000000000000000000000000000000000000000000000000000000000000000000000000000000000000000000000000000000000000000000000000000000000000000000000000000000000000000000000000000000000000000000000000000000000000000000000000000000000000000000000000000000000000000000000000000000000000000000000000000000000000000000000000000000000000000000000000000000000000000000000000000000000000000000000000000000000000000",
      "type": "0x2",
      "transactionHash": "0x6c91b8feb2863b7f5d5e0e46a900fed90593c93d530d316e4520b0454ad9f4aa",
      "transactionIndex": "0x57",
      "blockHash": "0x3e0a02579d34ef1d88680272a5ad0202c8b106d04e187ee9652c40fc14555593",
      "blockNumber": "0x75f2ab",
      "gasUsed": "0x6773",
      "effectiveGasPrice": "0xc2c0589",
      "from": "0xdef12db2bd62f88c8d59807e0ce9868279fd7fef",
      "to": "0x8eb6895e4900e4a432bac149a79714492cb5dc93",
      "contractAddress": null
    }
  ],
  "libraries": [],
  "pending": [],
  "returns": {},
  "timestamp": 1739907691,
  "chain": 11155111,
  "commit": "3f7222f"
}