{
  "transactions": [
    {
      "hash": "0x93f193c1b5c71f4b5526367525f8ec67e661f3e92ab6f696fc5b4dfb40b6b950",
      "transactionType": "CREATE",
      "contractName": "MockUSDT",
      "contractAddress": "0xcaddb146b3f1a6a558ecd01380b81c2faf9c8a10",
      "function": null,
      "arguments": null,
      "transaction": {
        "from": "0xdef12db2bd62f88c8d59807e0ce9868279fd7fef",
        "gas": "0xb96d5",
        "value": "0x0",
        "input": "0x608060405234801561000f575f5ffd5b5060408051808201909152600a81526915195d1a195c881554d160b21b602082015260039061003e9082610116565b50604080518082019091526004808252631554d11560e21b6020830152906100669082610116565b50600580546001600160a01b031916331790556101d0565b634e487b7160e01b5f52604160045260245ffd5b600181811c908216806100a657607f821691505b6020821081036100c457634e487b7160e01b5f52602260045260245ffd5b50919050565b601f82111561011157805f5260205f20601f840160051c810160208510156100ef5750805b601f840160051c820191505b8181101561010e575f81556001016100fb565b50505b505050565b81516001600160401b0381111561012f5761012f61007e565b6101438161013d8454610092565b846100ca565b6020601f821160018114610175575f831561015e5750848201515b5f19600385901b1c1916600184901b17845561010e565b5f84815260208120601f198516915b828110156101a45787850151825560209485019460019092019101610184565b50848210156101c157868401515f19600387901b60f8161c191681555b50505050600190811b01905550565b610844806101dd5f395ff3fe608060405234801561000f575f5ffd5b50600436106100f0575f3560e01c806370a0823111610093578063daea85c511610063578063daea85c514610244578063dd62ed3e14610257578063f9f92be414610281578063fcf4b4aa146102a3575f5ffd5b806370a08231146101c55780638da5cb5b146101e457806395d89b4114610229578063a9059cbb14610231575f5ffd5b806323b872dd116100ce57806323b872dd1461014b578063313ce5671461016057806340c10f191461017a57806359bf1abe1461018d575f5ffd5b806306fdde03146100f4578063095ea7b31461011257806318160ddd14610135575b5f5ffd5b6100fc610306565b6040516101099190610603565b60405180910390f35b61012561012036600461067e565b610392565b6040519015158152602001610109565b61013d5f5481565b604051908152602001610109565b61015e6101593660046106a6565b6103cd565b005b610168600681565b60405160ff9091168152602001610109565b61015e61018836600461067e565b6104d7565b61012561019b3660046106e0565b73ffffffffffffffffffffffffffffffffffffffff165f9081526006602052604090205460ff1690565b61013d6101d33660046106e0565b60016020525f908152604090205481565b6005546102049073ffffffffffffffffffffffffffffffffffffffff1681565b60405173ffffffffffffffffffffffffffffffffffffffff9091168152602001610109565b6100fc61056a565b61015e61023f36600461067e565b610577565b6101256102523660046106e0565b6105c8565b61013d610265366004610700565b600260209081525f928352604080842090915290825290205481565b61012561028f3660046106e0565b60066020525f908152604090205460ff1681565b61015e6102b1366004610731565b73ffffffffffffffffffffffffffffffffffffffff919091165f90815260066020526040902080547fffffffffffffffffffffffffffffffffffffffffffffffffffffffffffffff0016911515919091179055565b600380546103139061076a565b80601f016020809104026020016040519081016040528092919081815260200182805461033f9061076a565b801561038a5780601f106103615761010080835404028352916020019161038a565b820191905f5260205f20905b81548152906001019060200180831161036d57829003601f168201915b505050505081565b335f90815260026020908152604080832073ffffffffffffffffffffffffffffffffffffffff86168452909152902081905560015b92915050565b73ffffffffffffffffffffffffffffffffffffffff83165f9081526002602090815260408083203384529091529020547fffffffffffffffffffffffffffffffffffffffffffffffffffffffffffffffff811461045f5761042e82826107e8565b73ffffffffffffffffffffffffffffffffffffffff85165f9081526002602090815260408083203384529091529020555b73ffffffffffffffffffffffffffffffffffffffff84165f90815260016020526040812080548492906104939084906107e8565b909155505073ffffffffffffffffffffffffffffffffffffffff83165f90815260016020526040812080548492906104cc9084906107fb565b909155505050505050565b60055473ffffffffffffffffffffffffffffffffffffffff16331461055c576040517f08c379a000000000000000000000000000000000000000000000000000000000815260206004820152601d60248201527f4d6f636b555344543a206f6e6c79206f776e65722063616e206d696e74000000604482015260640160405180910390fd5b61056682826105f3565b5050565b600480546103139061076a565b335f90815260016020526040812080548392906105959084906107e8565b909155505073ffffffffffffffffffffffffffffffffffffffff9091165f90815260016020526040902080549091019055565b5f6103c7827fffffffffffffffffffffffffffffffffffffffffffffffffffffffffffffffff610392565b805f5f82825461059591906107fb565b602081525f82518060208401528060208501604085015e5f6040828501015260407fffffffffffffffffffffffffffffffffffffffffffffffffffffffffffffffe0601f83011684010191505092915050565b803573ffffffffffffffffffffffffffffffffffffffff81168114610679575f5ffd5b919050565b5f5f6040838503121561068f575f5ffd5b61069883610656565b946020939093013593505050565b5f5f5f606084860312156106b8575f5ffd5b6106c184610656565b92506106cf60208501610656565b929592945050506040919091013590565b5f602082840312156106f0575f5ffd5b6106f982610656565b9392505050565b5f5f60408385031215610711575f5ffd5b61071a83610656565b915061072860208401610656565b90509250929050565b5f5f60408385031215610742575f5ffd5b61074b83610656565b91506020830135801515811461075f575f5ffd5b809150509250929050565b600181811c9082168061077e57607f821691505b6020821081036107b5577f4e487b71000000000000000000000000000000000000000000000000000000005f52602260045260245ffd5b50919050565b7f4e487b71000000000000000000000000000000000000000000000000000000005f52601160045260245ffd5b818103818111156103c7576103c76107bb565b808201808211156103c7576103c76107bb56fea2646970667358221220cea7288b57a7c2518893682aaeab4296b4a0c65116b292103633b4455bbffcb164736f6c634300081c0033",
        "nonce": "0x101",
        "chainId": "0xaa36a7"
      },
      "additionalContracts": [],
      "isFixedGasLimit": false
    },
    {
      "hash": "0x6fbe592cf2529faa4cb0d4db579de5bd087fbeae07d89392a9c7b83f9fcd3eac",
      "transactionType": "CALL",
      "contractName": "MockUSDT",
      "contractAddress": "0xcaddb146b3f1a6a558ecd01380b81c2faf9c8a10",
      "function": "mint(address,uint256)",
      "arguments": [
        "0x1804c8AB1F12E6bbf3894d4083f33e07309d1f38",
        "100000000000000000"
      ],
      "transaction": {
        "from": "0xdef12db2bd62f88c8d59807e0ce9868279fd7fef",
        "to": "0xcaddb146b3f1a6a558ecd01380b81c2faf9c8a10",
        "gas": "0x187af",
        "value": "0x0",
        "input": "0x40c10f190000000000000000000000001804c8ab1f12e6bbf3894d4083f33e07309d1f38000000000000000000000000000000000000000000000000016345785d8a0000",
        "nonce": "0x102",
        "chainId": "0xaa36a7"
      },
      "additionalContracts": [],
      "isFixedGasLimit": false
    },
    {
      "hash": "0x30f0652128e98d4a65245b73c4a6a418ab8c01f2e257229c83148290a3715cde",
      "transactionType": "CALL",
      "contractName": "MockUSDT",
      "contractAddress": "0xcaddb146b3f1a6a558ecd01380b81c2faf9c8a10",
      "function": "mint(address,uint256)",
      "arguments": [
        "0xB05502bf20342331F42A7B80Aa4bAB3F8cA86C0F",
        "100000000000000000"
      ],
      "transaction": {
        "from": "0xdef12db2bd62f88c8d59807e0ce9868279fd7fef",
        "to": "0xcaddb146b3f1a6a558ecd01380b81c2faf9c8a10",
        "gas": "0x115a9",
        "value": "0x0",
        "input": "0x40c10f19000000000000000000000000b05502bf20342331f42a7b80aa4bab3f8ca86c0f000000000000000000000000000000000000000000000000016345785d8a0000",
        "nonce": "0x103",
        "chainId": "0xaa36a7"
      },
      "additionalContracts": [],
      "isFixedGasLimit": false
    },
    {
      "hash": "0xd248f01661f78e3c7f83c6776b2dfc7be6e3e49cbe732f3432930052e61c406d",
      "transactionType": "CREATE",
      "contractName": "MaseerPrice",
      "contractAddress": "0xa3170216edf8e4976084ea7bb5581ee04367cf16",
      "function": null,
      "arguments": null,
      "transaction": {
        "from": "0xdef12db2bd62f88c8d59807e0ce9868279fd7fef",
        "gas": "0xd3e2d",
        "value": "0x0",
        "input": "0x6080604052348015600e575f5ffd5b50601633601a565b6081565b607e7f27ad9db40d40315deb7c9733dae204372b3012815db31bb8e8e56d6c68d6ac248260405160200160609291909182526001600160a01b0316602082015260400190565b60408051601f19818403018152919052805160209091012060019055565b50565b610abd8061008e5f395ff3fe608060405234801561000f575f5ffd5b50600436106100b9575f3560e01c806365fae35e116100725780639c52a7f1116100585780639c52a7f114610153578063bf353dbb14610166578063e9b674b914610179575f5ffd5b806365fae35e146101385780638456cb591461014b575f5ffd5b806332145f90116100a257806332145f90146100f557806357de26a41461010a5780635c975abb14610120575f5ffd5b806306fdde03146100bd578063313ce567146100db575b5f5ffd5b6100c561018c565b6040516100d2919061090d565b60405180910390f35b6100e36101bc565b60405160ff90911681526020016100d2565b610108610103366004610960565b6101e6565b005b610112610286565b6040519081526020016100d2565b6101286102b0565b60405190151581526020016100d2565b610108610146366004610977565b6102ea565b61010861036c565b610108610161366004610977565b6103f0565b610112610174366004610977565b610472565b6101086101873660046109b1565b6104ce565b60606101b77f9bc13b9bea85446242b96c637f96a994030a999e4a37800a69c2f798a672860b61069d565b905090565b5f6101b77fa5c4b505b3328f1f7b143b7cbfe5c1d30e20856c207cab51443a27fedf5d63166106af565b604080517f27ad9db40d40315deb7c9733dae204372b3012815db31bb8e8e56d6c68d6ac246020820152339181019190915261023a906060015b604051602081830303815290604052805190602001205490565b60011461027a576040517f4a0bfec10000000000000000000000000000000000000000000000000000000081523360048201526024015b60405180910390fd5b610283816106b8565b50565b5f6101b77f0f6e463d71d43f924715baa2688119392f80a313b4437e6945310d50dba6177a6106af565b5f6102da7f0f6e463d71d43f924715baa2688119392f80a313b4437e6945310d50dba6177a6106af565b156102e457505f90565b50600190565b604080517f27ad9db40d40315deb7c9733dae204372b3012815db31bb8e8e56d6c68d6ac246020820152339181019190915261032890606001610220565b600114610363576040517f4a0bfec1000000000000000000000000000000000000000000000000000000008152336004820152602401610271565b61028381610710565b604080517f27ad9db40d40315deb7c9733dae204372b3012815db31bb8e8e56d6c68d6ac24602082015233918101919091526103aa90606001610220565b6001146103e5576040517f4a0bfec1000000000000000000000000000000000000000000000000000000008152336004820152602401610271565b6103ee5f6106b8565b565b604080517f27ad9db40d40315deb7c9733dae204372b3012815db31bb8e8e56d6c68d6ac246020820152339181019190915261042e90606001610220565b600114610469576040517f4a0bfec1000000000000000000000000000000000000000000000000000000008152336004820152602401610271565b61028381610783565b5f6104c87f27ad9db40d40315deb7c9733dae204372b3012815db31bb8e8e56d6c68d6ac248360405160200161022092919091825273ffffffffffffffffffffffffffffffffffffffff16602082015260400190565b92915050565b604080517f27ad9db40d40315deb7c9733dae204372b3012815db31bb8e8e56d6c68d6ac246020820152339181019190915261050c90606001610220565b600114610547576040517f4a0bfec1000000000000000000000000000000000000000000000000000000008152336004820152602401610271565b817f70726963650000000000000000000000000000000000000000000000000000000361057c57610577816106b8565b61065f565b817f6e616d6500000000000000000000000000000000000000000000000000000000036105cc576105777f9bc13b9bea85446242b96c637f96a994030a999e4a37800a69c2f798a672860b829055565b817f646563696d616c730000000000000000000000000000000000000000000000001480156105fc575060128111155b1561062a576105777fa5c4b505b3328f1f7b143b7cbfe5c1d30e20856c207cab51443a27fedf5d6316829055565b6040517f35802fa300000000000000000000000000000000000000000000000000000000815260048101829052602401610271565b817f943a793c11a909d4409e7706d8c3d1467960e08f6141234950042994856812df8260405161069191815260200190565b60405180910390a25050565b60606104c86106aa835490565b6107f5565b5f6104c8825490565b6106e17f0f6e463d71d43f924715baa2688119392f80a313b4437e6945310d50dba6177a829055565b604051429082907f92664190cca12aca9cd5309d87194bdda75bb51362d71c06e1a6f75c7c765711905f90a350565b6102837f27ad9db40d40315deb7c9733dae204372b3012815db31bb8e8e56d6c68d6ac248260405160200161076592919091825273ffffffffffffffffffffffffffffffffffffffff16602082015260400190565b6040516020818303038152906040528051906020012060015f1b9055565b6102837f27ad9db40d40315deb7c9733dae204372b3012815db31bb8e8e56d6c68d6ac24826040516020016107d892919091825273ffffffffffffffffffffffffffffffffffffffff16602082015260400190565b604051602081830303815290604052805190602001205f5f1b9055565b60605f5b60208110801561083f5750828160208110610816576108166109d1565b1a60f81b7fff000000000000000000000000000000000000000000000000000000000000001615155b15610856578061084e816109fe565b9150506107f9565b5f8167ffffffffffffffff81111561087057610870610a5a565b6040519080825280601f01601f19166020018201604052801561089a576020820181803683370190505b5090505f5b82811015610905578481602081106108b9576108b96109d1565b1a60f81b8282815181106108cf576108cf6109d1565b60200101907effffffffffffffffffffffffffffffffffffffffffffffffffffffffffffff191690815f1a90535060010161089f565b509392505050565b602081525f82518060208401528060208501604085015e5f6040828501015260407fffffffffffffffffffffffffffffffffffffffffffffffffffffffffffffffe0601f83011684010191505092915050565b5f60208284031215610970575f5ffd5b5035919050565b5f60208284031215610987575f5ffd5b813573ffffffffffffffffffffffffffffffffffffffff811681146109aa575f5ffd5b9392505050565b5f5f604083850312156109c2575f5ffd5b50508035926020909101359150565b7f4e487b71000000000000000000000000000000000000000000000000000000005f52603260045260245ffd5b5f7fffffffffffffffffffffffffffffffffffffffffffffffffffffffffffffffff8203610a53577f4e487b71000000000000000000000000000000000000000000000000000000005f52601160045260245ffd5b5060010190565b7f4e487b71000000000000000000000000000000000000000000000000000000005f52604160045260245ffdfea2646970667358221220f47e893fe014c9943d86093238d528dd304df0853d485fd0cd408e3f735de62564736f6c634300081c0033",
        "nonce": "0x104",
        "chainId": "0xaa36a7"
      },
      "additionalContracts": [],
      "isFixedGasLimit": false
    },
    {
      "hash": "0x286d585fa9fe18d9f34812eb2113d30b1bcf7426a6413edbb582525bf79d2a23",
      "transactionType": "CREATE",
      "contractName": "MaseerProxy",
      "contractAddress": "0xb8bf8326d2768750b43f71e68adfcb01b29f4873",
      "function": null,
      "arguments": [
        "0xA3170216Edf8E4976084EA7Bb5581EE04367cf16"
      ],
      "transaction": {
        "from": "0xdef12db2bd62f88c8d59807e0ce9868279fd7fef",
        "gas": "0x7326c",
        "value": "0x0",
        "input": "0x608060405234801561000f575f5ffd5b506040516105ec3803806105ec83398101604081905261002e91610168565b610039336001610051565b610042336100b7565b61004b8161011d565b50610195565b5f7f312ed9ac9b839e579b0572e42b6b61a1d0e768aa92df633e58ace1e6a3633e79836040516020016100979291909182526001600160a01b0316602082015260400190565b604051602081830303815290604052805190602001209050818155505050565b5f7f27ad9db40d40315deb7c9733dae204372b3012815db31bb8e8e56d6c68d6ac24826040516020016100fd9291909182526001600160a01b0316602082015260400190565b604051602081830303815290604052805190602001209050600181555050565b6001600160a01b038116610144576040516318ce8b9560e31b815260040160405180910390fd5b7f0e4c00c0fe9fb028e73dd325b95165d8884bc26853613a6b5131a12effdd8ddd55565b5f60208284031215610178575f5ffd5b81516001600160a01b038116811461018e575f5ffd5b9392505050565b61044a806101a25f395ff3fe608060405234801561000f575f5ffd5b5060043610610065575f3560e01c8063266a164a1161004e578063266a164a146100d957806360cd9853146100ec5780638abf60771461011257610065565b8063048046c1146100b35780630715940e146100c6575b5f61008e7f0e4c00c0fe9fb028e73dd325b95165d8884bc26853613a6b5131a12effdd8ddd5490565b9050604051365f82375f5f3683855af43d5f833e8080156100ad573d83f35b3d83fd5b005b6100b16100c13660046103da565b61013f565b6100b16100d43660046103da565b61018d565b6100b16100e73660046103da565b6101d9565b6100ff6100fa3660046103da565b610226565b6040519081526020015b60405180910390f35b61011a610236565b60405173ffffffffffffffffffffffffffffffffffffffff9091168152602001610109565b61014833610264565b600114610181576040517fea8e4eb500000000000000000000000000000000000000000000000000000000815260040160405180910390fd5b61018a816102f6565b50565b61019633610264565b6001146101cf576040517fea8e4eb500000000000000000000000000000000000000000000000000000000815260040160405180910390fd5b61018a815f610367565b6101e233610264565b60011461021b576040517fea8e4eb500000000000000000000000000000000000000000000000000000000815260040160405180910390fd5b61018a816001610367565b5f61023082610264565b92915050565b5f61025f7f0e4c00c0fe9fb028e73dd325b95165d8884bc26853613a6b5131a12effdd8ddd5490565b905090565b5f5f7f312ed9ac9b839e579b0572e42b6b61a1d0e768aa92df633e58ace1e6a3633e79836040516020016102b892919091825273ffffffffffffffffffffffffffffffffffffffff16602082015260400190565b604080517fffffffffffffffffffffffffffffffffffffffffffffffffffffffffffffffe08184030181529190528051602090910120549392505050565b73ffffffffffffffffffffffffffffffffffffffff8116610343576040517fc6745ca800000000000000000000000000000000000000000000000000000000815260040160405180910390fd5b7f0e4c00c0fe9fb028e73dd325b95165d8884bc26853613a6b5131a12effdd8ddd55565b5f7f312ed9ac9b839e579b0572e42b6b61a1d0e768aa92df633e58ace1e6a3633e79836040516020016103ba92919091825273ffffffffffffffffffffffffffffffffffffffff16602082015260400190565b604051602081830303815290604052805190602001209050818155505050565b5f602082840312156103ea575f5ffd5b813573ffffffffffffffffffffffffffffffffffffffff8116811461040d575f5ffd5b939250505056fea26469706673582212200785485ad77ba3aaa277c004e29063fe9db3f9943f75962800ad028f720ea9e564736f6c634300081c0033000000000000000000000000a3170216edf8e4976084ea7bb5581ee04367cf16",
        "nonce": "0x105",
        "chainId": "0xaa36a7"
      },
      "additionalContracts": [],
      "isFixedGasLimit": false
    },
    {
      "hash": "0x14afef029cac1cccb0fcfe94b2c27862fc0a65a318984dd1ba13aca7def2fd78",
      "transactionType": "CREATE",
      "contractName": "MaseerGate",
      "contractAddress": "0x36e2a277866742d772a4eaece921170f81e8acd4",
      "function": null,
      "arguments": null,
      "transaction": {
        "from": "0xdef12db2bd62f88c8d59807e0ce9868279fd7fef",
        "gas": "0x16a825",
        "value": "0x0",
        "input": "0x6080604052348015600e575f5ffd5b50601633601a565b6081565b607e7f27ad9db40d40315deb7c9733dae204372b3012815db31bb8e8e56d6c68d6ac248260405160200160609291909182526001600160a01b0316602082015260400190565b60408051601f19818403018152919052805160209091012060019055565b50565b6113688061008e5f395ff3fe608060405234801561000f575f5ffd5b50600436106101c6575f3560e01c80637486bf47116100fe578063a07c7ce41161009e578063bf353dbb1161006e578063bf353dbb14610330578063cb16262514610343578063ef86cf561461034b578063fbd252461461035e575f5ffd5b8063a07c7ce414610310578063a943dc6c14610318578063bbec93fa14610320578063bce6d67214610328575f5ffd5b806396574580116100d957806396574580146102e557806398b836da146102ed5780639c52a7f1146102f5578063a03738dc14610308575f5ffd5b80637486bf47146102b7578063787a08a6146102ca57806391915ef8146102d2575f5ffd5b80634fc3f41a116101695780635cfc1a51116101445780635cfc1a511461028157806365fae35e146102895780636c88d9e11461029c57806371ebdf4e146102a4575f5ffd5b80634fc3f41a1461024857806359361d8e1461025b5780635c4f46ed1461026e575f5ffd5b806329cbec1a116101a457806329cbec1a1461020d5780632c040527146102155780633fb362b4146102285780634bf365df14610230575f5ffd5b80631447cdf9146101ca578063168ff4f9146101df57806329ae8114146101fa575b5f5ffd5b6101dd6101d8366004611239565b610371565b005b6101e761045b565b6040519081526020015b60405180910390f35b6101dd610208366004611250565b61047d565b6101e76106af565b6101dd610223366004611239565b6106de565b6101e76107aa565b6102386107d4565b60405190151581526020016101f1565b6101dd610256366004611239565b6107f7565b6101dd610269366004611239565b6108ba565b6101e761027c366004611239565b61097b565b6101e7610993565b6101dd610297366004611270565b6109bd565b6101e7610a3f565b6101dd6102b2366004611239565b610a49565b6101dd6102c5366004611239565b610b0a565b6101e7610bd6565b6101dd6102e0366004611239565b610c00565b6101e7610c82565b6101e7610cac565b6101dd610303366004611270565b610cd5565b6101dd610d57565b610238610df6565b6101e7610e11565b6101e7610e1b565b6101e7610e25565b6101e761033e366004611270565b610e4f565b6101e7610ea5565b6101e7610359366004611239565b610ecf565b6101dd61036c366004611239565b610ee1565b604080517f27ad9db40d40315deb7c9733dae204372b3012815db31bb8e8e56d6c68d6ac24602082015233918101919091526103c5906060015b604051602081830303815290604052805190602001205490565b600114610405576040517f4a0bfec10000000000000000000000000000000000000000000000000000000081523360048201526024015b60405180910390fd5b610413426301e133806112d0565b81111561044f576040517f35802fa3000000000000000000000000000000000000000000000000000000008152600481018290526024016103fc565b61045881610fad565b50565b5f5f6104656106af565b905042811015610475575f610477565b805b91505090565b604080517f27ad9db40d40315deb7c9733dae204372b3012815db31bb8e8e56d6c68d6ac24602082015233918101919091526104bb906060016103ab565b6001146104f6576040517f4a0bfec10000000000000000000000000000000000000000000000000000000081523360048201526024016103fc565b817f6f70656e6d696e740000000000000000000000000000000000000000000000000361052a5761052681610fd6565b5050565b817f68616c746d696e740000000000000000000000000000000000000000000000000361055a5761052681610fff565b817f6f70656e6275726e0000000000000000000000000000000000000000000000000361058a5761052681610fad565b817f68616c746275726e000000000000000000000000000000000000000000000000036105ba5761052681611028565b817f627073696e000000000000000000000000000000000000000000000000000000036105ea5761052681611051565b817f6270736f757400000000000000000000000000000000000000000000000000000361061a5761052681611079565b817f636f6f6c646f776e0000000000000000000000000000000000000000000000000361064a57610526816110a2565b817f63617061636974790000000000000000000000000000000000000000000000000361067a57610526816110cb565b6040517f35802fa3000000000000000000000000000000000000000000000000000000008152600481018390526024016103fc565b5f6106d97f9c2ad2c21e274c8b57052f9f0ef73dd8f6e1d917d156e1368bb7cc739cf1f4b16110f4565b905090565b604080517f27ad9db40d40315deb7c9733dae204372b3012815db31bb8e8e56d6c68d6ac246020820152339181019190915261071c906060016103ab565b600114610757576040517f4a0bfec10000000000000000000000000000000000000000000000000000000081523360048201526024016103fc565b610765426301e133806112d0565b8111156107a1576040517f35802fa3000000000000000000000000000000000000000000000000000000008152600481018290526024016103fc565b61045881610fff565b5f6106d97ffcb92606a933a3a2fc95ea37ffc5f3cf5a7a2f3776ccd27ff295f4bc9846f3e66110f4565b5f6107dd610e25565b42101580156106d957506107ef610ea5565b421115905090565b604080517f27ad9db40d40315deb7c9733dae204372b3012815db31bb8e8e56d6c68d6ac2460208201523391810191909152610835906060016103ab565b600114610870576040517f4a0bfec10000000000000000000000000000000000000000000000000000000081523360048201526024016103fc565b6301e133808111156108b1576040517f35802fa3000000000000000000000000000000000000000000000000000000008152600481018290526024016103fc565b610458816110a2565b604080517f27ad9db40d40315deb7c9733dae204372b3012815db31bb8e8e56d6c68d6ac24602082015233918101919091526108f8906060016103ab565b600114610933576040517f4a0bfec10000000000000000000000000000000000000000000000000000000081523360048201526024016103fc565b612710811115610972576040517f35802fa3000000000000000000000000000000000000000000000000000000008152600481018290526024016103fc565b61045881611051565b5f61098d82610988610cac565b6110fd565b92915050565b5f6106d97f223eebe857eb33ee31fe46155467a9e23b253715020bbb26850d321fdc3146ab6110f4565b604080517f27ad9db40d40315deb7c9733dae204372b3012815db31bb8e8e56d6c68d6ac24602082015233918101919091526109fb906060016103ab565b600114610a36576040517f4a0bfec10000000000000000000000000000000000000000000000000000000081523360048201526024016103fc565b61045881611126565b5f5f610465610e25565b604080517f27ad9db40d40315deb7c9733dae204372b3012815db31bb8e8e56d6c68d6ac2460208201523391810191909152610a87906060016103ab565b600114610ac2576040517f4a0bfec10000000000000000000000000000000000000000000000000000000081523360048201526024016103fc565b612710811115610b01576040517f35802fa3000000000000000000000000000000000000000000000000000000008152600481018290526024016103fc565b61045881611079565b604080517f27ad9db40d40315deb7c9733dae204372b3012815db31bb8e8e56d6c68d6ac2460208201523391810191909152610b48906060016103ab565b600114610b83576040517f4a0bfec10000000000000000000000000000000000000000000000000000000081523360048201526024016103fc565b610b91426301e133806112d0565b811115610bcd576040517f35802fa3000000000000000000000000000000000000000000000000000000008152600481018290526024016103fc565b61045881611028565b5f6106d97f09e5415ecbe88722a362e8ef1260b911b06c7c85eb60dd940ec2508f025009c76110f4565b604080517f27ad9db40d40315deb7c9733dae204372b3012815db31bb8e8e56d6c68d6ac2460208201523391810191909152610c3e906060016103ab565b600114610c79576040517f4a0bfec10000000000000000000000000000000000000000000000000000000081523360048201526024016103fc565b610458816110cb565b5f6106d97ff6f62fd4da7bc2b32a6e1e65b29fc84ac47127fe667e702bfad2a308be5e31f36110f4565b5f6106d97e157179f0e328e9155f0e7f3bacad2e41db42b1e0800a411a594382df7a1e646110f4565b604080517f27ad9db40d40315deb7c9733dae204372b3012815db31bb8e8e56d6c68d6ac2460208201523391810191909152610d13906060016103ab565b600114610d4e576040517f4a0bfec10000000000000000000000000000000000000000000000000000000081523360048201526024016103fc565b61045881611199565b604080517f27ad9db40d40315deb7c9733dae204372b3012815db31bb8e8e56d6c68d6ac2460208201523391810191909152610d95906060016103ab565b600114610dd0576040517f4a0bfec10000000000000000000000000000000000000000000000000000000081523360048201526024016103fc565b610dd95f610fd6565b610de25f610fff565b610deb5f610fad565b610df45f611028565b565b5f610dff6106af565b42101580156106d957506107ef6107aa565b5f5f610465610ea5565b5f5f6104656107aa565b5f6106d97fbe1a4dea2a7bf3bca8caa6d30da3b6665e2e170da688038ad0b7269f2e0ebf916110f4565b5f61098d7f27ad9db40d40315deb7c9733dae204372b3012815db31bb8e8e56d6c68d6ac24836040516020016103ab92919091825273ffffffffffffffffffffffffffffffffffffffff16602082015260400190565b5f6106d97fc6806e07b5185a5f2a4a279b21328cdfc10302bba8d637663c0af6df2ce3b5da6110f4565b5f61098d82610edc610c82565b61120b565b604080517f27ad9db40d40315deb7c9733dae204372b3012815db31bb8e8e56d6c68d6ac2460208201523391810191909152610f1f906060016103ab565b600114610f5a576040517f4a0bfec10000000000000000000000000000000000000000000000000000000081523360048201526024016103fc565b610f68426301e133806112d0565b811115610fa4576040517f35802fa3000000000000000000000000000000000000000000000000000000008152600481018290526024016103fc565b61045881610fd6565b6104587f9c2ad2c21e274c8b57052f9f0ef73dd8f6e1d917d156e1368bb7cc739cf1f4b1829055565b6104587fbe1a4dea2a7bf3bca8caa6d30da3b6665e2e170da688038ad0b7269f2e0ebf91829055565b6104587fc6806e07b5185a5f2a4a279b21328cdfc10302bba8d637663c0af6df2ce3b5da829055565b6104587ffcb92606a933a3a2fc95ea37ffc5f3cf5a7a2f3776ccd27ff295f4bc9846f3e6829055565b6104587e157179f0e328e9155f0e7f3bacad2e41db42b1e0800a411a594382df7a1e64829055565b6104587ff6f62fd4da7bc2b32a6e1e65b29fc84ac47127fe667e702bfad2a308be5e31f3829055565b6104587f09e5415ecbe88722a362e8ef1260b911b06c7c85eb60dd940ec2508f025009c7829055565b6104587f223eebe857eb33ee31fe46155467a9e23b253715020bbb26850d321fdc3146ab829055565b5f61098d825490565b5f61271061110b83826112d0565b61111590856112e3565b61111f91906112fa565b9392505050565b6104587f27ad9db40d40315deb7c9733dae204372b3012815db31bb8e8e56d6c68d6ac248260405160200161117b92919091825273ffffffffffffffffffffffffffffffffffffffff16602082015260400190565b6040516020818303038152906040528051906020012060015f1b9055565b6104587f27ad9db40d40315deb7c9733dae204372b3012815db31bb8e8e56d6c68d6ac24826040516020016111ee92919091825273ffffffffffffffffffffffffffffffffffffffff16602082015260400190565b604051602081830303815290604052805190602001205f5f1b9055565b5f611218826127106112d0565b611224846127106112e3565b61122e91906112fa565b61111f9060016112d0565b5f60208284031215611249575f5ffd5b5035919050565b5f5f60408385031215611261575f5ffd5b50508035926020909101359150565b5f60208284031215611280575f5ffd5b813573ffffffffffffffffffffffffffffffffffffffff8116811461111f575f5ffd5b7f4e487b71000000000000000000000000000000000000000000000000000000005f52601160045260245ffd5b8082018082111561098d5761098d6112a3565b808202811582820484141761098d5761098d6112a3565b5f8261132d577f4e487b71000000000000000000000000000000000000000000000000000000005f52601260045260245ffd5b50049056fea26469706673582212208fc481623e41d9ac2a2d96c2c568e789aaaeb4352220d3c341534aecefa10cad64736f6c634300081c0033",
        "nonce": "0x106",
        "chainId": "0xaa36a7"
      },
      "additionalContracts": [],
      "isFixedGasLimit": false
    },
    {
      "hash": "0x2defc30b53bb932363766dccf641b2a48772b1aa628543046ef88dc9cadbbc24",
      "transactionType": "CREATE",
      "contractName": "MaseerProxy",
      "contractAddress": "0x00c2b3c7bcaa083e31b7d3272df9aea2efe3939f",
      "function": null,
      "arguments": [
        "0x36e2A277866742D772a4EaEce921170f81e8Acd4"
      ],
      "transaction": {
        "from": "0xdef12db2bd62f88c8d59807e0ce9868279fd7fef",
        "gas": "0x7326c",
        "value": "0x0",
        "input": "0x608060405234801561000f575f5ffd5b506040516105ec3803806105ec83398101604081905261002e91610168565b610039336001610051565b610042336100b7565b61004b8161011d565b50610195565b5f7f312ed9ac9b839e579b0572e42b6b61a1d0e768aa92df633e58ace1e6a3633e79836040516020016100979291909182526001600160a01b0316602082015260400190565b604051602081830303815290604052805190602001209050818155505050565b5f7f27ad9db40d40315deb7c9733dae204372b3012815db31bb8e8e56d6c68d6ac24826040516020016100fd9291909182526001600160a01b0316602082015260400190565b604051602081830303815290604052805190602001209050600181555050565b6001600160a01b038116610144576040516318ce8b9560e31b815260040160405180910390fd5b7f0e4c00c0fe9fb028e73dd325b95165d8884bc26853613a6b5131a12effdd8ddd55565b5f60208284031215610178575f5ffd5b81516001600160a01b038116811461018e575f5ffd5b9392505050565b61044a806101a25f395ff3fe608060405234801561000f575f5ffd5b5060043610610065575f3560e01c8063266a164a1161004e578063266a164a146100d957806360cd9853146100ec5780638abf60771461011257610065565b8063048046c1146100b35780630715940e146100c6575b5f61008e7f0e4c00c0fe9fb028e73dd325b95165d8884bc26853613a6b5131a12effdd8ddd5490565b9050604051365f82375f5f3683855af43d5f833e8080156100ad573d83f35b3d83fd5b005b6100b16100c13660046103da565b61013f565b6100b16100d43660046103da565b61018d565b6100b16100e73660046103da565b6101d9565b6100ff6100fa3660046103da565b610226565b6040519081526020015b60405180910390f35b61011a610236565b60405173ffffffffffffffffffffffffffffffffffffffff9091168152602001610109565b61014833610264565b600114610181576040517fea8e4eb500000000000000000000000000000000000000000000000000000000815260040160405180910390fd5b61018a816102f6565b50565b61019633610264565b6001146101cf576040517fea8e4eb500000000000000000000000000000000000000000000000000000000815260040160405180910390fd5b61018a815f610367565b6101e233610264565b60011461021b576040517fea8e4eb500000000000000000000000000000000000000000000000000000000815260040160405180910390fd5b61018a816001610367565b5f61023082610264565b92915050565b5f61025f7f0e4c00c0fe9fb028e73dd325b95165d8884bc26853613a6b5131a12effdd8ddd5490565b905090565b5f5f7f312ed9ac9b839e579b0572e42b6b61a1d0e768aa92df633e58ace1e6a3633e79836040516020016102b892919091825273ffffffffffffffffffffffffffffffffffffffff16602082015260400190565b604080517fffffffffffffffffffffffffffffffffffffffffffffffffffffffffffffffe08184030181529190528051602090910120549392505050565b73ffffffffffffffffffffffffffffffffffffffff8116610343576040517fc6745ca800000000000000000000000000000000000000000000000000000000815260040160405180910390fd5b7f0e4c00c0fe9fb028e73dd325b95165d8884bc26853613a6b5131a12effdd8ddd55565b5f7f312ed9ac9b839e579b0572e42b6b61a1d0e768aa92df633e58ace1e6a3633e79836040516020016103ba92919091825273ffffffffffffffffffffffffffffffffffffffff16602082015260400190565b604051602081830303815290604052805190602001209050818155505050565b5f602082840312156103ea575f5ffd5b813573ffffffffffffffffffffffffffffffffffffffff8116811461040d575f5ffd5b939250505056fea26469706673582212200785485ad77ba3aaa277c004e29063fe9db3f9943f75962800ad028f720ea9e564736f6c634300081c003300000000000000000000000036e2a277866742d772a4eaece921170f81e8acd4",
        "nonce": "0x107",
        "chainId": "0xaa36a7"
      },
      "additionalContracts": [],
      "isFixedGasLimit": false
    },
    {
      "hash": "0xf6db866f3f0d214837aecd4fb6740a39cd6b5d3ed86e96c092423c8f89a49920",
      "transactionType": "CREATE",
      "contractName": "MaseerGuard",
      "contractAddress": "0x20e4f709a6ea631c76d9b4fff7db73be769f7fda",
      "function": null,
      "arguments": [
        "0xcAddB146B3f1A6A558eCD01380b81c2Faf9C8a10"
      ],
      "transaction": {
        "from": "0xdef12db2bd62f88c8d59807e0ce9868279fd7fef",
        "gas": "0x659d0",
        "value": "0x0",
        "input": "0x60a0604052348015600e575f5ffd5b50604051610554380380610554833981016040819052602b91603b565b6001600160a01b03166080526066565b5f60208284031215604a575f5ffd5b81516001600160a01b0381168114605f575f5ffd5b9392505050565b6080516104d06100845f395f81816082015261020c01526104d05ff3fe608060405234801561000f575f5ffd5b5060043610610064575f3560e01c806382c4b3b21161004d57806382c4b3b2146100ce5780639c52a7f1146100f1578063bf353dbb14610104575f5ffd5b806365fae35e1461006857806367e828bf1461007d575b5f5ffd5b61007b610076366004610441565b610125565b005b6100a47f000000000000000000000000000000000000000000000000000000000000000081565b60405173ffffffffffffffffffffffffffffffffffffffff90911681526020015b60405180910390f35b6100e16100dc366004610441565b6101c5565b60405190151581526020016100c5565b61007b6100ff366004610441565b61027e565b610117610112366004610441565b610300565b6040519081526020016100c5565b604080517f27ad9db40d40315deb7c9733dae204372b3012815db31bb8e8e56d6c68d6ac2460208201523391810191909152610179906060015b604051602081830303815290604052805190602001205490565b6001146101b9576040517f4a0bfec10000000000000000000000000000000000000000000000000000000081523360048201526024015b60405180910390fd5b6101c28161035c565b50565b6040517f59bf1abe00000000000000000000000000000000000000000000000000000000815273ffffffffffffffffffffffffffffffffffffffff82811660048301525f917f0000000000000000000000000000000000000000000000000000000000000000909116906359bf1abe90602401602060405180830381865afa158015610253573d5f5f3e3d5ffd5b505050506040513d601f19601f82011682018060405250810190610277919061047b565b1592915050565b604080517f27ad9db40d40315deb7c9733dae204372b3012815db31bb8e8e56d6c68d6ac24602082015233918101919091526102bc9060600161015f565b6001146102f7576040517f4a0bfec10000000000000000000000000000000000000000000000000000000081523360048201526024016101b0565b6101c2816103cf565b5f6103567f27ad9db40d40315deb7c9733dae204372b3012815db31bb8e8e56d6c68d6ac248360405160200161015f92919091825273ffffffffffffffffffffffffffffffffffffffff16602082015260400190565b92915050565b6101c27f27ad9db40d40315deb7c9733dae204372b3012815db31bb8e8e56d6c68d6ac24826040516020016103b192919091825273ffffffffffffffffffffffffffffffffffffffff16602082015260400190565b6040516020818303038152906040528051906020012060015f1b9055565b6101c27f27ad9db40d40315deb7c9733dae204372b3012815db31bb8e8e56d6c68d6ac248260405160200161042492919091825273ffffffffffffffffffffffffffffffffffffffff16602082015260400190565b604051602081830303815290604052805190602001205f5f1b9055565b5f60208284031215610451575f5ffd5b813573ffffffffffffffffffffffffffffffffffffffff81168114610474575f5ffd5b9392505050565b5f6020828403121561048b575f5ffd5b81518015158114610474575f5ffdfea26469706673582212201a66cb64cd859deb029fd3bbaeb107293ef1a9edf688839c7700ba03a9377c8d64736f6c634300081c0033000000000000000000000000caddb146b3f1a6a558ecd01380b81c2faf9c8a10",
        "nonce": "0x108",
        "chainId": "0xaa36a7"
      },
      "additionalContracts": [],
      "isFixedGasLimit": false
    },
    {
      "hash": "0x73a7d3fb7b69ef5dbabc947bdd79b0a518b1e835b05d1055d57e01e68e5c4a49",
      "transactionType": "CREATE",
      "contractName": "MaseerProxy",
      "contractAddress": "0xa76ea8bf3cb88f8d6e34b0e066608db8f58a1ef0",
      "function": null,
      "arguments": [
        "0x20e4f709A6eA631C76D9B4fFF7DB73Be769f7Fda"
      ],
      "transaction": {
        "from": "0xdef12db2bd62f88c8d59807e0ce9868279fd7fef",
        "gas": "0x7326c",
        "value": "0x0",
        "input": "0x608060405234801561000f575f5ffd5b506040516105ec3803806105ec83398101604081905261002e91610168565b610039336001610051565b610042336100b7565b61004b8161011d565b50610195565b5f7f312ed9ac9b839e579b0572e42b6b61a1d0e768aa92df633e58ace1e6a3633e79836040516020016100979291909182526001600160a01b0316602082015260400190565b604051602081830303815290604052805190602001209050818155505050565b5f7f27ad9db40d40315deb7c9733dae204372b3012815db31bb8e8e56d6c68d6ac24826040516020016100fd9291909182526001600160a01b0316602082015260400190565b604051602081830303815290604052805190602001209050600181555050565b6001600160a01b038116610144576040516318ce8b9560e31b815260040160405180910390fd5b7f0e4c00c0fe9fb028e73dd325b95165d8884bc26853613a6b5131a12effdd8ddd55565b5f60208284031215610178575f5ffd5b81516001600160a01b038116811461018e575f5ffd5b9392505050565b61044a806101a25f395ff3fe608060405234801561000f575f5ffd5b5060043610610065575f3560e01c8063266a164a1161004e578063266a164a146100d957806360cd9853146100ec5780638abf60771461011257610065565b8063048046c1146100b35780630715940e146100c6575b5f61008e7f0e4c00c0fe9fb028e73dd325b95165d8884bc26853613a6b5131a12effdd8ddd5490565b9050604051365f82375f5f3683855af43d5f833e8080156100ad573d83f35b3d83fd5b005b6100b16100c13660046103da565b61013f565b6100b16100d43660046103da565b61018d565b6100b16100e73660046103da565b6101d9565b6100ff6100fa3660046103da565b610226565b6040519081526020015b60405180910390f35b61011a610236565b60405173ffffffffffffffffffffffffffffffffffffffff9091168152602001610109565b61014833610264565b600114610181576040517fea8e4eb500000000000000000000000000000000000000000000000000000000815260040160405180910390fd5b61018a816102f6565b50565b61019633610264565b6001146101cf576040517fea8e4eb500000000000000000000000000000000000000000000000000000000815260040160405180910390fd5b61018a815f610367565b6101e233610264565b60011461021b576040517fea8e4eb500000000000000000000000000000000000000000000000000000000815260040160405180910390fd5b61018a816001610367565b5f61023082610264565b92915050565b5f61025f7f0e4c00c0fe9fb028e73dd325b95165d8884bc26853613a6b5131a12effdd8ddd5490565b905090565b5f5f7f312ed9ac9b839e579b0572e42b6b61a1d0e768aa92df633e58ace1e6a3633e79836040516020016102b892919091825273ffffffffffffffffffffffffffffffffffffffff16602082015260400190565b604080517fffffffffffffffffffffffffffffffffffffffffffffffffffffffffffffffe08184030181529190528051602090910120549392505050565b73ffffffffffffffffffffffffffffffffffffffff8116610343576040517fc6745ca800000000000000000000000000000000000000000000000000000000815260040160405180910390fd5b7f0e4c00c0fe9fb028e73dd325b95165d8884bc26853613a6b5131a12effdd8ddd55565b5f7f312ed9ac9b839e579b0572e42b6b61a1d0e768aa92df633e58ace1e6a3633e79836040516020016103ba92919091825273ffffffffffffffffffffffffffffffffffffffff16602082015260400190565b604051602081830303815290604052805190602001209050818155505050565b5f602082840312156103ea575f5ffd5b813573ffffffffffffffffffffffffffffffffffffffff8116811461040d575f5ffd5b939250505056fea26469706673582212200785485ad77ba3aaa277c004e29063fe9db3f9943f75962800ad028f720ea9e564736f6c634300081c003300000000000000000000000020e4f709a6ea631c76d9b4fff7db73be769f7fda",
        "nonce": "0x109",
        "chainId": "0xaa36a7"
      },
      "additionalContracts": [],
      "isFixedGasLimit": false
    },
    {
      "hash": "0x41e3dc3c379037eb6672dee1d824e69e4a0f904098af50c3d15d9ddcb91b3279",
      "transactionType": "CREATE",
      "contractName": "MaseerConduit",
      "contractAddress": "0x89fad5c74acfa2540e0d72dc00de37d68fe0d0ab",
      "function": null,
      "arguments": null,
      "transaction": {
        "from": "0xdef12db2bd62f88c8d59807e0ce9868279fd7fef",
        "gas": "0xeae73",
        "value": "0x0",
        "input": "0x6080604052348015600e575f5ffd5b50601633601a565b6081565b607e7f27ad9db40d40315deb7c9733dae204372b3012815db31bb8e8e56d6c68d6ac248260405160200160609291909182526001600160a01b0316602082015260400190565b60408051601f19818403018152919052805160209091012060019055565b50565b610c0e8061008e5f395ff3fe608060405234801561000f575f5ffd5b50600436106100c4575f3560e01c8063a3b22fc41161007d578063bf353dbb11610058578063bf353dbb1461018c578063dc4d20fa1461019f578063f29c29c4146101b2575f5ffd5b8063a3b22fc414610147578063bb35783b1461015a578063bc206b0a1461016d575f5ffd5b806365c4ce7a116100ad57806365c4ce7a1461010c57806365fae35e146101215780639c52a7f114610134575f5ffd5b8063322265a8146100c85780634fce7a2a146100ed575b5f5ffd5b6100db6100d6366004610b02565b6101c5565b60405190815260200160405180910390f35b6100db6100fb366004610b33565b60026020525f908152604090205481565b61011f61011a366004610b33565b61032c565b005b61011f61012f366004610b33565b6103e1565b61011f610142366004610b33565b610466565b61011f610155366004610b33565b6104e8565b6100db610168366004610b53565b61058a565b6100db61017b366004610b33565b60016020525f908152604090205481565b6100db61019a366004610b33565b610660565b61011f6101ad366004610b33565b6106bc565b61011f6101c0366004610b33565b61075b565b335f90815260016020819052604082205414610214576040517f76c6c93a0000000000000000000000000000000000000000000000000000000081523360048201526024015b60405180910390fd5b73ffffffffffffffffffffffffffffffffffffffff82165f90815260026020526040902054829060011461028c576040517f8e4c8aa600000000000000000000000000000000000000000000000000000000815273ffffffffffffffffffffffffffffffffffffffff8216600482015260240161020b565b6040517f70a0823100000000000000000000000000000000000000000000000000000000815230600482015273ffffffffffffffffffffffffffffffffffffffff8516906370a0823190602401602060405180830381865afa1580156102f4573d5f5f3e3d5ffd5b505050506040513d601f19601f820116820180604052508101906103189190610b8c565b91506103258484846107fd565b5092915050565b604080517f27ad9db40d40315deb7c9733dae204372b3012815db31bb8e8e56d6c68d6ac2460208201523391810191909152610380906060015b604051602081830303815290604052805190602001205490565b6001146103bb576040517f4a0bfec100000000000000000000000000000000000000000000000000000000815233600482015260240161020b565b73ffffffffffffffffffffffffffffffffffffffff165f90815260026020526040812055565b604080517f27ad9db40d40315deb7c9733dae204372b3012815db31bb8e8e56d6c68d6ac246020820152339181019190915261041f90606001610366565b60011461045a576040517f4a0bfec100000000000000000000000000000000000000000000000000000000815233600482015260240161020b565b610463816108b5565b50565b604080517f27ad9db40d40315deb7c9733dae204372b3012815db31bb8e8e56d6c68d6ac24602082015233918101919091526104a490606001610366565b6001146104df576040517f4a0bfec100000000000000000000000000000000000000000000000000000000815233600482015260240161020b565b61046381610928565b604080517f27ad9db40d40315deb7c9733dae204372b3012815db31bb8e8e56d6c68d6ac246020820152339181019190915261052690606001610366565b600114610561576040517f4a0bfec100000000000000000000000000000000000000000000000000000000815233600482015260240161020b565b73ffffffffffffffffffffffffffffffffffffffff165f90815260016020819052604090912055565b335f908152600160208190526040822054146105d4576040517f76c6c93a00000000000000000000000000000000000000000000000000000000815233600482015260240161020b565b73ffffffffffffffffffffffffffffffffffffffff83165f90815260026020526040902054839060011461064c576040517f8e4c8aa600000000000000000000000000000000000000000000000000000000815273ffffffffffffffffffffffffffffffffffffffff8216600482015260240161020b565b6106578585856107fd565b50909392505050565b5f6106b67f27ad9db40d40315deb7c9733dae204372b3012815db31bb8e8e56d6c68d6ac248360405160200161036692919091825273ffffffffffffffffffffffffffffffffffffffff16602082015260400190565b92915050565b604080517f27ad9db40d40315deb7c9733dae204372b3012815db31bb8e8e56d6c68d6ac24602082015233918101919091526106fa90606001610366565b600114610735576040517f4a0bfec100000000000000000000000000000000000000000000000000000000815233600482015260240161020b565b73ffffffffffffffffffffffffffffffffffffffff165f90815260016020526040812055565b604080517f27ad9db40d40315deb7c9733dae204372b3012815db31bb8e8e56d6c68d6ac246020820152339181019190915261079990606001610366565b6001146107d4576040517f4a0bfec100000000000000000000000000000000000000000000000000000000815233600482015260240161020b565b73ffffffffffffffffffffffffffffffffffffffff165f90815260026020526040902060019055565b73ffffffffffffffffffffffffffffffffffffffff831661084a576040517fd92e233d00000000000000000000000000000000000000000000000000000000815260040160405180910390fd5b61085583838361099a565b808273ffffffffffffffffffffffffffffffffffffffff168473ffffffffffffffffffffffffffffffffffffffff167fdeb3a6837278f6e9914a507e4d73f08e841d8fca434fb97d4307b3b0d3d6b10560405160405180910390a4505050565b6104637f27ad9db40d40315deb7c9733dae204372b3012815db31bb8e8e56d6c68d6ac248260405160200161090a92919091825273ffffffffffffffffffffffffffffffffffffffff16602082015260400190565b6040516020818303038152906040528051906020012060015f1b9055565b6104637f27ad9db40d40315deb7c9733dae204372b3012815db31bb8e8e56d6c68d6ac248260405160200161097d92919091825273ffffffffffffffffffffffffffffffffffffffff16602082015260400190565b604051602081830303815290604052805190602001205f5f1b9055565b6040805173ffffffffffffffffffffffffffffffffffffffff8481166024830152604480830185905283518084039091018152606490920183526020820180517bffffffffffffffffffffffffffffffffffffffffffffffffffffffff167fa9059cbb0000000000000000000000000000000000000000000000000000000017905291515f92839290871691610a309190610ba3565b5f604051808303815f865af19150503d805f8114610a69576040519150601f19603f3d011682016040523d82523d5f602084013e610a6e565b606091505b5091509150811580610a9c57505f8151118015610a9c575080806020019051810190610a9a9190610bb9565b155b15610ad3576040517f90b8ec1800000000000000000000000000000000000000000000000000000000815260040160405180910390fd5b5050505050565b803573ffffffffffffffffffffffffffffffffffffffff81168114610afd575f5ffd5b919050565b5f5f60408385031215610b13575f5ffd5b610b1c83610ada565b9150610b2a60208401610ada565b90509250929050565b5f60208284031215610b43575f5ffd5b610b4c82610ada565b9392505050565b5f5f5f60608486031215610b65575f5ffd5b610b6e84610ada565b9250610b7c60208501610ada565b9150604084013590509250925092565b5f60208284031215610b9c575f5ffd5b5051919050565b5f82518060208501845e5f920191825250919050565b5f60208284031215610bc9575f5ffd5b81518015158114610b4c575f5ffdfea2646970667358221220c6ea8ad0d045ca2298669673597b39ab616c3834fbb1ad8e11c215e95b9b2c2064736f6c634300081c0033",
        "nonce": "0x10a",
        "chainId": "0xaa36a7"
      },
      "additionalContracts": [],
      "isFixedGasLimit": false
    },
    {
      "hash": "0xc6db3d6064b1e1f39892afe5bfff82281912ab79072860a1a45476b35d8b30d4",
      "transactionType": "CREATE",
      "contractName": "MaseerProxy",
      "contractAddress": "0xc3b7a9b11e5efc35a9819050d32e78ab6d7bc18b",
      "function": null,
      "arguments": [
        "0x89Fad5c74acfa2540E0D72DC00de37d68fE0d0AB"
      ],
      "transaction": {
        "from": "0xdef12db2bd62f88c8d59807e0ce9868279fd7fef",
        "gas": "0x7325d",
        "value": "0x0",
        "input": "0x608060405234801561000f575f5ffd5b506040516105ec3803806105ec83398101604081905261002e91610168565b610039336001610051565b610042336100b7565b61004b8161011d565b50610195565b5f7f312ed9ac9b839e579b0572e42b6b61a1d0e768aa92df633e58ace1e6a3633e79836040516020016100979291909182526001600160a01b0316602082015260400190565b604051602081830303815290604052805190602001209050818155505050565b5f7f27ad9db40d40315deb7c9733dae204372b3012815db31bb8e8e56d6c68d6ac24826040516020016100fd9291909182526001600160a01b0316602082015260400190565b604051602081830303815290604052805190602001209050600181555050565b6001600160a01b038116610144576040516318ce8b9560e31b815260040160405180910390fd5b7f0e4c00c0fe9fb028e73dd325b95165d8884bc26853613a6b5131a12effdd8ddd55565b5f60208284031215610178575f5ffd5b81516001600160a01b038116811461018e575f5ffd5b9392505050565b61044a806101a25f395ff3fe608060405234801561000f575f5ffd5b5060043610610065575f3560e01c8063266a164a1161004e578063266a164a146100d957806360cd9853146100ec5780638abf60771461011257610065565b8063048046c1146100b35780630715940e146100c6575b5f61008e7f0e4c00c0fe9fb028e73dd325b95165d8884bc26853613a6b5131a12effdd8ddd5490565b9050604051365f82375f5f3683855af43d5f833e8080156100ad573d83f35b3d83fd5b005b6100b16100c13660046103da565b61013f565b6100b16100d43660046103da565b61018d565b6100b16100e73660046103da565b6101d9565b6100ff6100fa3660046103da565b610226565b6040519081526020015b60405180910390f35b61011a610236565b60405173ffffffffffffffffffffffffffffffffffffffff9091168152602001610109565b61014833610264565b600114610181576040517fea8e4eb500000000000000000000000000000000000000000000000000000000815260040160405180910390fd5b61018a816102f6565b50565b61019633610264565b6001146101cf576040517fea8e4eb500000000000000000000000000000000000000000000000000000000815260040160405180910390fd5b61018a815f610367565b6101e233610264565b60011461021b576040517fea8e4eb500000000000000000000000000000000000000000000000000000000815260040160405180910390fd5b61018a816001610367565b5f61023082610264565b92915050565b5f61025f7f0e4c00c0fe9fb028e73dd325b95165d8884bc26853613a6b5131a12effdd8ddd5490565b905090565b5f5f7f312ed9ac9b839e579b0572e42b6b61a1d0e768aa92df633e58ace1e6a3633e79836040516020016102b892919091825273ffffffffffffffffffffffffffffffffffffffff16602082015260400190565b604080517fffffffffffffffffffffffffffffffffffffffffffffffffffffffffffffffe08184030181529190528051602090910120549392505050565b73ffffffffffffffffffffffffffffffffffffffff8116610343576040517fc6745ca800000000000000000000000000000000000000000000000000000000815260040160405180910390fd5b7f0e4c00c0fe9fb028e73dd325b95165d8884bc26853613a6b5131a12effdd8ddd55565b5f7f312ed9ac9b839e579b0572e42b6b61a1d0e768aa92df633e58ace1e6a3633e79836040516020016103ba92919091825273ffffffffffffffffffffffffffffffffffffffff16602082015260400190565b604051602081830303815290604052805190602001209050818155505050565b5f602082840312156103ea575f5ffd5b813573ffffffffffffffffffffffffffffffffffffffff8116811461040d575f5ffd5b939250505056fea26469706673582212200785485ad77ba3aaa277c004e29063fe9db3f9943f75962800ad028f720ea9e564736f6c634300081c003300000000000000000000000089fad5c74acfa2540e0d72dc00de37d68fe0d0ab",
        "nonce": "0x10b",
        "chainId": "0xaa36a7"
      },
      "additionalContracts": [],
      "isFixedGasLimit": false
    },
    {
      "hash": "0xf76c2c91dd3ff974a397a7db0e84f27632e8a4a5334dab96bedea13474a37e60",
      "transactionType": "CREATE",
      "contractName": "MaseerOne",
      "contractAddress": "0xcb76a30ac792bf0dec4af6eb70dfaf99cecb4a90",
      "function": null,
      "arguments": [
        "0xcAddB146B3f1A6A558eCD01380b81c2Faf9C8a10",
        "0xB8bf8326d2768750B43f71e68aDfcb01b29f4873",
        "0x00c2b3C7BCaa083E31B7D3272Df9AEa2Efe3939F",
        "0xA76Ea8bf3cB88f8D6E34B0e066608db8F58a1EF0",
        "0xC3b7a9B11e5eFC35a9819050D32e78AB6d7bc18B",
        "Cana",
        "CANA"
      ],
      "transaction": {
        "from": "0xdef12db2bd62f88c8d59807e0ce9868279fd7fef",
        "gas": "0x2cd5c5",
        "value": "0x0",
        "input": "0x610160604052348015610010575f5ffd5b50604051612c19380380612c1983398101604081905261002f916101f5565b8181600361003d838261032f565b50600461004a828261032f565b504660a052610057610089565b6080525050506001600160a01b0395861660c0525092841660e05290831661010052821661012052166101405261045a565b5f7f8b73c3c69bb8fe3d512ecc4cf759cc79239f7b179b0ffacaa9a75d522b39400f60036040516100ba91906103e9565b60408051918290038220828201825260018352603160f81b60209384015260a08051835194850195909552918301527fc89efdaa54c0f20c7adf612882df0950f5a951637e0307cdcb4c672f298b8bc660608301526080820192909252309181019190915260c00160405160208183030381529060405280519060200120905090565b80516001600160a01b0381168114610153575f5ffd5b919050565b634e487b7160e01b5f52604160045260245ffd5b5f82601f83011261017b575f5ffd5b81516001600160401b0381111561019457610194610158565b604051601f8201601f19908116603f011681016001600160401b03811182821017156101c2576101c2610158565b6040528181528382016020018510156101d9575f5ffd5b8160208501602083015e5f918101602001919091529392505050565b5f5f5f5f5f5f5f60e0888a03121561020b575f5ffd5b6102148861013d565b96506102226020890161013d565b95506102306040890161013d565b945061023e6060890161013d565b935061024c6080890161013d565b60a08901519093506001600160401b03811115610267575f5ffd5b6102738a828b0161016c565b60c08a015190935090506001600160401b03811115610290575f5ffd5b61029c8a828b0161016c565b91505092959891949750929550565b600181811c908216806102bf57607f821691505b6020821081036102dd57634e487b7160e01b5f52602260045260245ffd5b50919050565b601f82111561032a57805f5260205f20601f840160051c810160208510156103085750805b601f840160051c820191505b81811015610327575f8155600101610314565b50505b505050565b81516001600160401b0381111561034857610348610158565b61035c8161035684546102ab565b846102e3565b6020601f82116001811461038e575f83156103775750848201515b5f19600385901b1c1916600184901b178455610327565b5f84815260208120601f198516915b828110156103bd578785015182556020948501946001909201910161039d565b50848210156103da57868401515f19600387901b60f8161c191681555b50505050600190811b01905550565b5f5f83546103f6816102ab565b60018216801561040d57600181146104225761044f565b60ff198316865281151582028601935061044f565b865f5260205f205f5b838110156104475781548882015260019091019060200161042b565b505081860193505b509195945050505050565b60805160a05160c05160e0516101005161012051610140516127056105145f395f8181610314015281816108d9015261091a01525f8181610481015261160201525f81816106bf01528181610ae70152818161103b01528181611a4e01528181611b5001528181611bd20152611c6a01525f81816106400152611ab801525f81816104d7015281816108b801528181610d0b01528181610fd2015261171501525f611fb501525f81816103b9015261216401526127055ff3fe608060405234801561000f575f5ffd5b506004361061029d575f3560e01c806370a0823111610171578063a07c7ce4116100d2578063daea85c511610088578063dd62ed3e1161006e578063dd62ed3e14610688578063ede75094146106b2578063ee42b10b146106ba575f5ffd5b8063daea85c514610662578063db006a7514610675575f5ffd5b8063beb65893116100b8578063beb6589314610586578063d505accf14610628578063d741e2f91461063b575f5ffd5b8063a07c7ce41461056b578063a9059cbb14610573575f5ffd5b806394c3cbf411610127578063973efb5c1161010d578063973efb5c1461053b5780639d11877014610543578063a0712d6814610558575f5ffd5b806394c3cbf41461052b57806395d89b4114610533575f5ffd5b80637bd2bea7116101575780637bd2bea7146104d25780637ecebe00146104f95780637f8661a114610518575f5ffd5b806370a08231146104ab578063787a08a6146104ca575f5ffd5b8063313ce5671161021b5780634d773aa6116101d15780635cfc1a51116101b75780635cfc1a51146104745780635f7efbea1461047c5780636c96474f146104a3575f5ffd5b80634d773aa61461043457806351f5d98d1461043c575f5ffd5b80633f90916a116102015780633f90916a146103db57806342c4a1aa146103e45780634bf365df1461042c575f5ffd5b8063313ce5671461039a5780633644e515146103b4575f5ffd5b806311da60b41161027057806323b872dd1161025657806323b872dd1461036b578063248c11f51461037e57806326ea379914610391575f5ffd5b806311da60b41461035b57806318160ddd14610363575f5ffd5b806306fdde03146102a157806306ff7a41146102bf578063095ea7b3146102ec5780630a77bd491461030f575b5f5ffd5b6102a96106e1565b6040516102b691906123ae565b60405180910390f35b6102de6102cd366004612401565b5f9081526008602052604090205490565b6040519081526020016102b6565b6102ff6102fa366004612440565b61076d565b60405190151581526020016102b6565b6103367f000000000000000000000000000000000000000000000000000000000000000081565b60405173ffffffffffffffffffffffffffffffffffffffff90911681526020016102b6565b6102de610836565b6102de5f5481565b6102ff610379366004612468565b610966565b6102ff61038c3660046124a2565b610ad4565b6102de60075481565b6103a2601281565b60405160ff90911681526020016102b6565b6102de7f000000000000000000000000000000000000000000000000000000000000000081565b6102de60065481565b6102de6103f2366004612401565b5f908152600860205260409020600101547401000000000000000000000000000000000000000090046bffffffffffffffffffffffff1690565b6102ff610ae4565b6102de610b77565b61033661044a366004612401565b5f9081526008602052604090206001015473ffffffffffffffffffffffffffffffffffffffff1690565b6102de610ba7565b6103367f000000000000000000000000000000000000000000000000000000000000000081565b6102de610bb0565b6102de6104b93660046124a2565b60016020525f908152604090205481565b6102de610bc1565b6103367f000000000000000000000000000000000000000000000000000000000000000081565b6102de6105073660046124a2565b60056020525f908152604090205481565b6102de610526366004612401565b610bca565b6102de610d99565b6102a9610daa565b6102de610db7565b610556610551366004612401565b610dc0565b005b6102de610566366004612401565b610e52565b6102ff611038565b6102ff610581366004612440565b6110a2565b6105ea610594366004612401565b60086020525f90815260409020805460019091015473ffffffffffffffffffffffffffffffffffffffff8116907401000000000000000000000000000000000000000090046bffffffffffffffffffffffff1683565b6040805193845273ffffffffffffffffffffffffffffffffffffffff90921660208401526bffffffffffffffffffffffff16908201526060016102b6565b6105566106363660046124bb565b6111ac565b6103367f000000000000000000000000000000000000000000000000000000000000000081565b6102ff6106703660046124a2565b6112cf565b6102de610683366004612401565b611391565b6102de610696366004612528565b600260209081525f928352604080842090915290825290205481565b6102de611599565b6103367f000000000000000000000000000000000000000000000000000000000000000081565b600380546106ee90612559565b80601f016020809104026020016040519081016040528092919081815260200182805461071a90612559565b80156107655780601f1061073c57610100808354040283529160200191610765565b820191905f5260205f20905b81548152906001019060200180831161074857829003601f168201915b505050505081565b5f33610778816115bb565b6107cb576040517fea93ab6d00000000000000000000000000000000000000000000000000000000815273ffffffffffffffffffffffffffffffffffffffff821660048201526024015b60405180910390fd5b836107d5816115bb565b610823576040517fea93ab6d00000000000000000000000000000000000000000000000000000000815273ffffffffffffffffffffffffffffffffffffffff821660048201526024016107c2565b61082d858561166d565b95945050505050565b5f33610841816115bb565b61088f576040517fea93ab6d00000000000000000000000000000000000000000000000000000000815273ffffffffffffffffffffffffffffffffffffffff821660048201526024016107c2565b5f6108986116e5565b6006549091508082116108ae575f935050505090565b80820393506108fe7f00000000000000000000000000000000000000000000000000000000000000007f000000000000000000000000000000000000000000000000000000000000000086611793565b604051849073ffffffffffffffffffffffffffffffffffffffff7f000000000000000000000000000000000000000000000000000000000000000016907f7823e479a1a4ebe2418874847436f8a1680c5ee5b17f38bb59dbff28e1b45552905f90a350505090565b5f33610971816115bb565b6109bf576040517fea93ab6d00000000000000000000000000000000000000000000000000000000815273ffffffffffffffffffffffffffffffffffffffff821660048201526024016107c2565b846109c9816115bb565b610a17576040517fea93ab6d00000000000000000000000000000000000000000000000000000000815273ffffffffffffffffffffffffffffffffffffffff821660048201526024016107c2565b84610a21816115bb565b610a6f576040517fea93ab6d00000000000000000000000000000000000000000000000000000000815273ffffffffffffffffffffffffffffffffffffffff821660048201526024016107c2565b3073ffffffffffffffffffffffffffffffffffffffff871603610abe576040517f3a49fd5c00000000000000000000000000000000000000000000000000000000815260040160405180910390fd5b610ac98787876118d3565b979650505050505050565b5f610ade826115bb565b92915050565b5f7f000000000000000000000000000000000000000000000000000000000000000073ffffffffffffffffffffffffffffffffffffffff16634bf365df6040518163ffffffff1660e01b8152600401602060405180830381865afa158015610b4e573d5f5f3e3d5ffd5b505050506040513d601f19601f82011682018060405250810190610b7291906125aa565b905090565b5f5f610b816116e5565b90506006548111610b9f5780600654610b9a91906125f6565b610ba1565b5f5b91505090565b5f610b72611a4b565b5f610b72610bbc611ab5565b611b1f565b5f610b72611bcf565b5f33610bd5816115bb565b610c23576040517fea93ab6d00000000000000000000000000000000000000000000000000000000815273ffffffffffffffffffffffffffffffffffffffff821660048201526024016107c2565b5f83815260086020526040902060018101547401000000000000000000000000000000000000000090046bffffffffffffffffffffffff1642811115610c98576040517f774cceca000000000000000000000000000000000000000000000000000000008152600481018290526024016107c2565b805f03610cd1576040517f9b604d0b00000000000000000000000000000000000000000000000000000000815260040160405180910390fd5b81545f610cdc6116e5565b9050808210610ceb5780610ced565b815b600680548290039055845481900385556001850154909650610d47907f00000000000000000000000000000000000000000000000000000000000000009073ffffffffffffffffffffffffffffffffffffffff1688611793565b6001840154604051879173ffffffffffffffffffffffffffffffffffffffff169089907f786e090d783caced3baddcb29bd555ffb93faf484529ab87feab4ec4c48a81e1905f90a45050505050919050565b5f610b72610da5611ab5565b611c39565b600480546106ee90612559565b5f610b72611ab5565b33610dca816115bb565b610e18576040517fea93ab6d00000000000000000000000000000000000000000000000000000000815273ffffffffffffffffffffffffffffffffffffffff821660048201526024016107c2565b610e223383611cae565b604051829033907f789ec66f21698ed1b990c0a8a8be99cf6f5fb8eb3826ee4ee9384870e8db25b1905f90a35050565b5f610e5b610ae4565b610e91576040517f0b5f6bf000000000000000000000000000000000000000000000000000000000815260040160405180910390fd5b33610e9b816115bb565b610ee9576040517fea93ab6d00000000000000000000000000000000000000000000000000000000815273ffffffffffffffffffffffffffffffffffffffff821660048201526024016107c2565b5f610ef2611ab5565b9050805f03610f2c576040517ebfc92100000000000000000000000000000000000000000000000000000000815260040160405180910390fd5b610f3581611c39565b905080841015610f74576040517fa4a05025000000000000000000000000000000000000000000000000000000008152600481018290526024016107c2565b610f7e8482611d3f565b9250610f88611a4b565b835f54610f959190612609565b1115610fcd576040517f2edaff4300000000000000000000000000000000000000000000000000000000815260040160405180910390fd5b610ff97f0000000000000000000000000000000000000000000000000000000000000000333087611d79565b6110033384611ec2565b6040518390829033907f58781ca443f8e3ecffad28c83044b16c6e549d8e9c677aebb3b8ee176f99f53f905f90a45050919050565b5f7f000000000000000000000000000000000000000000000000000000000000000073ffffffffffffffffffffffffffffffffffffffff1663a07c7ce46040518163ffffffff1660e01b8152600401602060405180830381865afa158015610b4e573d5f5f3e3d5ffd5b5f336110ad816115bb565b6110fb576040517fea93ab6d00000000000000000000000000000000000000000000000000000000815273ffffffffffffffffffffffffffffffffffffffff821660048201526024016107c2565b83611105816115bb565b611153576040517fea93ab6d00000000000000000000000000000000000000000000000000000000815273ffffffffffffffffffffffffffffffffffffffff821660048201526024016107c2565b3073ffffffffffffffffffffffffffffffffffffffff8616036111a2576040517f3a49fd5c00000000000000000000000000000000000000000000000000000000815260040160405180910390fd5b61082d8585611f30565b336111b6816115bb565b611204576040517fea93ab6d00000000000000000000000000000000000000000000000000000000815273ffffffffffffffffffffffffffffffffffffffff821660048201526024016107c2565b8761120e816115bb565b61125c576040517fea93ab6d00000000000000000000000000000000000000000000000000000000815273ffffffffffffffffffffffffffffffffffffffff821660048201526024016107c2565b87611266816115bb565b6112b4576040517fea93ab6d00000000000000000000000000000000000000000000000000000000815273ffffffffffffffffffffffffffffffffffffffff821660048201526024016107c2565b6112c38a8a8a8a8a8a8a611fb3565b50505050505050505050565b5f336112da816115bb565b611328576040517fea93ab6d00000000000000000000000000000000000000000000000000000000815273ffffffffffffffffffffffffffffffffffffffff821660048201526024016107c2565b82611332816115bb565b611380576040517fea93ab6d00000000000000000000000000000000000000000000000000000000815273ffffffffffffffffffffffffffffffffffffffff821660048201526024016107c2565b61138984612364565b949350505050565b5f61139a611038565b6113d0576040517f0b5f6bf000000000000000000000000000000000000000000000000000000000815260040160405180910390fd5b336113da816115bb565b611428576040517fea93ab6d00000000000000000000000000000000000000000000000000000000815273ffffffffffffffffffffffffffffffffffffffff821660048201526024016107c2565b5f611431611ab5565b9050805f0361146b576040517ebfc92100000000000000000000000000000000000000000000000000000000815260040160405180910390fd5b61147481611b1f565b90505f611481858361238f565b90508060065f8282546114949190612609565b909155505060078054905f6114a88361261c565b9190505593505f6114b7611bcf565b6114c19042612609565b604080516060810182528481523360208083018281526bffffffffffffffffffffffff8087168587019081525f8d81526008909452959092209351845551935116740100000000000000000000000000000000000000000273ffffffffffffffffffffffffffffffffffffffff93909316929092176001909101559091506115499087611cae565b6040513381526bffffffffffffffffffffffff821690839087907f5e1a430f82fc8d0f62b8d0df30501fdb199c45d181c344b5ce527976c11ed2a09060200160405180910390a450505050919050565b5f5f6115a36116e5565b90506006548110610b9f57600654610b9a90826125f6565b6040517f82c4b3b200000000000000000000000000000000000000000000000000000000815273ffffffffffffffffffffffffffffffffffffffff82811660048301525f917f0000000000000000000000000000000000000000000000000000000000000000909116906382c4b3b290602401602060405180830381865afa158015611649573d5f5f3e3d5ffd5b505050506040513d601f19601f82011682018060405250810190610ade91906125aa565b335f81815260026020908152604080832073ffffffffffffffffffffffffffffffffffffffff8716808552925280832085905551919290917f8c5be1e5ebec7d5bd14f71427d1e84f3dd0314c0f7b2291e5b200ac8c7c3b925906116d49086815260200190565b60405180910390a350600192915050565b6040517f70a082310000000000000000000000000000000000000000000000000000000081523060048201525f907f000000000000000000000000000000000000000000000000000000000000000073ffffffffffffffffffffffffffffffffffffffff16906370a0823190602401602060405180830381865afa15801561176f573d5f5f3e3d5ffd5b505050506040513d601f19601f82011682018060405250810190610b729190612653565b6040805173ffffffffffffffffffffffffffffffffffffffff8481166024830152604480830185905283518084039091018152606490920183526020820180517bffffffffffffffffffffffffffffffffffffffffffffffffffffffff167fa9059cbb0000000000000000000000000000000000000000000000000000000017905291515f92839290871691611829919061266a565b5f604051808303815f865af19150503d805f8114611862576040519150601f19603f3d011682016040523d82523d5f602084013e611867565b606091505b509150915081158061189557505f815111801561189557508080602001905181019061189391906125aa565b155b156118cc576040517f90b8ec1800000000000000000000000000000000000000000000000000000000815260040160405180910390fd5b5050505050565b73ffffffffffffffffffffffffffffffffffffffff83165f9081526002602090815260408083203384529091528120547fffffffffffffffffffffffffffffffffffffffffffffffffffffffffffffffff81146119655761193483826125f6565b73ffffffffffffffffffffffffffffffffffffffff86165f9081526002602090815260408083203384529091529020555b73ffffffffffffffffffffffffffffffffffffffff85165f90815260016020526040812080548592906119999084906125f6565b909155505073ffffffffffffffffffffffffffffffffffffffff84165f90815260016020526040812080548592906119d2908490612609565b925050819055508373ffffffffffffffffffffffffffffffffffffffff168573ffffffffffffffffffffffffffffffffffffffff167fddf252ad1be2c89b69c2b068fc378daa952ba7f163c4a11628f55a4df523b3ef85604051611a3891815260200190565b60405180910390a3506001949350505050565b5f7f000000000000000000000000000000000000000000000000000000000000000073ffffffffffffffffffffffffffffffffffffffff16635cfc1a516040518163ffffffff1660e01b8152600401602060405180830381865afa15801561176f573d5f5f3e3d5ffd5b5f7f000000000000000000000000000000000000000000000000000000000000000073ffffffffffffffffffffffffffffffffffffffff166357de26a46040518163ffffffff1660e01b8152600401602060405180830381865afa15801561176f573d5f5f3e3d5ffd5b6040517fef86cf56000000000000000000000000000000000000000000000000000000008152600481018290525f907f000000000000000000000000000000000000000000000000000000000000000073ffffffffffffffffffffffffffffffffffffffff169063ef86cf56906024015b602060405180830381865afa158015611bab573d5f5f3e3d5ffd5b505050506040513d601f19601f82011682018060405250810190610ade9190612653565b5f7f000000000000000000000000000000000000000000000000000000000000000073ffffffffffffffffffffffffffffffffffffffff1663787a08a66040518163ffffffff1660e01b8152600401602060405180830381865afa15801561176f573d5f5f3e3d5ffd5b6040517f5c4f46ed000000000000000000000000000000000000000000000000000000008152600481018290525f907f000000000000000000000000000000000000000000000000000000000000000073ffffffffffffffffffffffffffffffffffffffff1690635c4f46ed90602401611b90565b73ffffffffffffffffffffffffffffffffffffffff82165f9081526001602052604081208054839290611ce29084906125f6565b90915550505f8054829003815560405182815273ffffffffffffffffffffffffffffffffffffffff8416907fddf252ad1be2c89b69c2b068fc378daa952ba7f163c4a11628f55a4df523b3ef906020015b60405180910390a35050565b5f81611d4c600282612680565b611d5e670de0b6b3a7640000866126b8565b611d689190612609565b611d729190612680565b9392505050565b6040805173ffffffffffffffffffffffffffffffffffffffff85811660248301528481166044830152606480830185905283518084039091018152608490920183526020820180517bffffffffffffffffffffffffffffffffffffffffffffffffffffffff167f23b872dd0000000000000000000000000000000000000000000000000000000017905291515f92839290881691611e17919061266a565b5f604051808303815f865af19150503d805f8114611e50576040519150601f19603f3d011682016040523d82523d5f602084013e611e55565b606091505b5091509150811580611e8357505f8151118015611e83575080806020019051810190611e8191906125aa565b155b15611eba576040517f90b8ec1800000000000000000000000000000000000000000000000000000000815260040160405180910390fd5b505050505050565b805f5f828254611ed29190612609565b909155505073ffffffffffffffffffffffffffffffffffffffff82165f818152600160209081526040808320805486019055518481527fddf252ad1be2c89b69c2b068fc378daa952ba7f163c4a11628f55a4df523b3ef9101611d33565b335f90815260016020526040812080548391908390611f509084906125f6565b909155505073ffffffffffffffffffffffffffffffffffffffff83165f81815260016020526040908190208054850190555133907fddf252ad1be2c89b69c2b068fc378daa952ba7f163c4a11628f55a4df523b3ef906116d49086815260200190565b7f0000000000000000000000000000000000000000000000000000000000000000461461203c576040517f08c379a000000000000000000000000000000000000000000000000000000000815260206004820152600d60248201527f494e56414c49445f434841494e0000000000000000000000000000000000000060448201526064016107c2565b428410156120a6576040517f08c379a000000000000000000000000000000000000000000000000000000000815260206004820152601760248201527f5045524d49545f444541444c494e455f4558504952454400000000000000000060448201526064016107c2565b73ffffffffffffffffffffffffffffffffffffffff8781165f8181526005602090815260408083208054600180820190925582517f6e71edae12b1b97f4d1f60370fef10105fa2faae0126114a169c64845d6126c98186015280840196909652958c166060860152608085018b905260a085019590955260c08085018a90528151808603909101815260e0850190915280519101207f19010000000000000000000000000000000000000000000000000000000000006101008401527f0000000000000000000000000000000000000000000000000000000000000000610102840152610122830152919061014201604080517fffffffffffffffffffffffffffffffffffffffffffffffffffffffffffffffe081840301815282825280516020918201205f84529083018083525260ff871690820152606081018590526080810184905260a0016020604051602081039080840390855afa15801561220e573d5f5f3e3d5ffd5b50506040517fffffffffffffffffffffffffffffffffffffffffffffffffffffffffffffffe0015191505073ffffffffffffffffffffffffffffffffffffffff81161580159061228957508773ffffffffffffffffffffffffffffffffffffffff168173ffffffffffffffffffffffffffffffffffffffff16145b6122ef576040517f08c379a000000000000000000000000000000000000000000000000000000000815260206004820152600e60248201527f494e56414c49445f5349474e455200000000000000000000000000000000000060448201526064016107c2565b73ffffffffffffffffffffffffffffffffffffffff9081165f9081526002602090815260408083208a8516808552908352928190208990555188815291928a16917f8c5be1e5ebec7d5bd14f71427d1e84f3dd0314c0f7b2291e5b200ac8c7c3b925910160405180910390a350505050505050565b5f610ade827fffffffffffffffffffffffffffffffffffffffffffffffffffffffffffffffff61076d565b5f670de0b6b3a76400006123a4600282612680565b611d5e84866126b8565b602081525f82518060208401528060208501604085015e5f6040828501015260407fffffffffffffffffffffffffffffffffffffffffffffffffffffffffffffffe0601f83011684010191505092915050565b5f60208284031215612411575f5ffd5b5035919050565b803573ffffffffffffffffffffffffffffffffffffffff8116811461243b575f5ffd5b919050565b5f5f60408385031215612451575f5ffd5b61245a83612418565b946020939093013593505050565b5f5f5f6060848603121561247a575f5ffd5b61248384612418565b925061249160208501612418565b929592945050506040919091013590565b5f602082840312156124b2575f5ffd5b611d7282612418565b5f5f5f5f5f5f5f60e0888a0312156124d1575f5ffd5b6124da88612418565b96506124e860208901612418565b95506040880135945060608801359350608088013560ff8116811461250b575f5ffd5b9699959850939692959460a0840135945060c09093013592915050565b5f5f60408385031215612539575f5ffd5b61254283612418565b915061255060208401612418565b90509250929050565b600181811c9082168061256d57607f821691505b6020821081036125a4577f4e487b71000000000000000000000000000000000000000000000000000000005f52602260045260245ffd5b50919050565b5f602082840312156125ba575f5ffd5b81518015158114611d72575f5ffd5b7f4e487b71000000000000000000000000000000000000000000000000000000005f52601160045260245ffd5b81810381811115610ade57610ade6125c9565b80820180821115610ade57610ade6125c9565b5f7fffffffffffffffffffffffffffffffffffffffffffffffffffffffffffffffff820361264c5761264c6125c9565b5060010190565b5f60208284031215612663575f5ffd5b5051919050565b5f82518060208501845e5f920191825250919050565b5f826126b3577f4e487b71000000000000000000000000000000000000000000000000000000005f52601260045260245ffd5b500490565b8082028115828204841417610ade57610ade6125c956fea264697066735822122001ef13824a279096cb3e616ef2ee7367d1d0fe4e1cb79853d6be215e870e8c4f64736f6c634300081c0033000000000000000000000000caddb146b3f1a6a558ecd01380b81c2faf9c8a10000000000000000000000000b8bf8326d2768750b43f71e68adfcb01b29f487300000000000000000000000000c2b3c7bcaa083e31b7d3272df9aea2efe3939f000000000000000000000000a76ea8bf3cb88f8d6e34b0e066608db8f58a1ef0000000000000000000000000c3b7a9b11e5efc35a9819050d32e78ab6d7bc18b00000000000000000000000000000000000000000000000000000000000000e00000000000000000000000000000000000000000000000000000000000000120000000000000000000000000000000000000000000000000000000000000000443616e6100000000000000000000000000000000000000000000000000000000000000000000000000000000000000000000000000000000000000000000000443414e4100000000000000000000000000000000000000000000000000000000",
        "nonce": "0x10c",
        "chainId": "0xaa36a7"
      },
      "additionalContracts": [],
      "isFixedGasLimit": false
    },
    {
      "hash": "0xb5cc3319549433e364c82afe5dd33e28cd02e36b4666f02a44fd10209e3ac54c",
      "transactionType": "CALL",
      "contractName": "MaseerProxy",
      "contractAddress": "0xb8bf8326d2768750b43f71e68adfcb01b29f4873",
      "function": null,
      "arguments": null,
      "transaction": {
        "from": "0xdef12db2bd62f88c8d59807e0ce9868279fd7fef",
        "to": "0xb8bf8326d2768750b43f71e68adfcb01b29f4873",
        "gas": "0x11c50",
        "value": "0x0",
        "input": "0xe9b674b96e616d650000000000000000000000000000000000000000000000000000000043414e4155534454000000000000000000000000000000000000000000000000",
        "nonce": "0x10d",
        "chainId": "0xaa36a7"
      },
      "additionalContracts": [],
      "isFixedGasLimit": false
    },
    {
      "hash": "0xaa9dbe8d74d057fe78b5c120f8818574d53eccf302a5926a59de60dc34fdf9f4",
      "transactionType": "CALL",
      "contractName": "MaseerProxy",
      "contractAddress": "0xb8bf8326d2768750b43f71e68adfcb01b29f4873",
      "function": null,
      "arguments": null,
      "transaction": {
        "from": "0xdef12db2bd62f88c8d59807e0ce9868279fd7fef",
        "to": "0xb8bf8326d2768750b43f71e68adfcb01b29f4873",
        "gas": "0x11c70",
        "value": "0x0",
        "input": "0xe9b674b9646563696d616c730000000000000000000000000000000000000000000000000000000000000000000000000000000000000000000000000000000000000006",
        "nonce": "0x10e",
        "chainId": "0xaa36a7"
      },
      "additionalContracts": [],
      "isFixedGasLimit": false
    },
    {
      "hash": "0x66d70c075f1cf0c2509145cb28e815ccd6ffc6e4c1bddb4644b77b85925de9a8",
      "transactionType": "CALL",
      "contractName": "MaseerProxy",
      "contractAddress": "0xb8bf8326d2768750b43f71e68adfcb01b29f4873",
      "function": null,
      "arguments": null,
      "transaction": {
        "from": "0xdef12db2bd62f88c8d59807e0ce9868279fd7fef",
        "to": "0xb8bf8326d2768750b43f71e68adfcb01b29f4873",
        "gas": "0xaf4e",
        "value": "0x0",
        "input": "0x32145f900000000000000000000000000000000000000000000000000000000000000000",
        "nonce": "0x10f",
        "chainId": "0xaa36a7"
      },
      "additionalContracts": [],
      "isFixedGasLimit": false
    },
    {
      "hash": "0x378639d182016af59766fc89b4da71bba32b64746955706c0e5c0fea2bb944eb",
      "transactionType": "CALL",
      "contractName": "MaseerProxy",
      "contractAddress": "0xb8bf8326d2768750b43f71e68adfcb01b29f4873",
      "function": null,
      "arguments": null,
      "transaction": {
        "from": "0xdef12db2bd62f88c8d59807e0ce9868279fd7fef",
        "to": "0xb8bf8326d2768750b43f71e68adfcb01b29f4873",
        "gas": "0x114f0",
        "value": "0x0",
        "input": "0x65fae35e000000000000000000000000b05502bf20342331f42a7b80aa4bab3f8ca86c0f",
        "nonce": "0x110",
        "chainId": "0xaa36a7"
      },
      "additionalContracts": [],
      "isFixedGasLimit": false
    },
    {
      "hash": "0x85557f05d84820ea602219490b09106726c7fef6b680d0d61b0ef0ca783c9203",
      "transactionType": "CALL",
      "contractName": "MaseerProxy",
      "contractAddress": "0xb8bf8326d2768750b43f71e68adfcb01b29f4873",
      "function": "relyProxy(address)",
      "arguments": [
        "0xB05502bf20342331F42A7B80Aa4bAB3F8cA86C0F"
      ],
      "transaction": {
        "from": "0xdef12db2bd62f88c8d59807e0ce9868279fd7fef",
        "to": "0xb8bf8326d2768750b43f71e68adfcb01b29f4873",
        "gas": "0x108da",
        "value": "0x0",
        "input": "0x266a164a000000000000000000000000b05502bf20342331f42a7b80aa4bab3f8ca86c0f",
        "nonce": "0x111",
        "chainId": "0xaa36a7"
      },
      "additionalContracts": [],
      "isFixedGasLimit": false
    },
    {
      "hash": "0xee57081a7c0e8311488f6a9195c564f8f277354e47e0d93485afe180ea624eeb",
      "transactionType": "CALL",
      "contractName": "MaseerProxy",
      "contractAddress": "0x00c2b3c7bcaa083e31b7d3272df9aea2efe3939f",
      "function": null,
      "arguments": null,
      "transaction": {
        "from": "0xdef12db2bd62f88c8d59807e0ce9868279fd7fef",
        "to": "0x00c2b3c7bcaa083e31b7d3272df9aea2efe3939f",
        "gas": "0x112f4",
        "value": "0x0",
        "input": "0x4fc3f41a0000000000000000000000000000000000000000000000000000000000069780",
        "nonce": "0x112",
        "chainId": "0xaa36a7"
      },
      "additionalContracts": [],
      "isFixedGasLimit": false
    },
    {
      "hash": "0xf242ce1bf71264cc9fdaa982303142f74e2939f5f9330141f2a4c39227c0982f",
      "transactionType": "CALL",
      "contractName": "MaseerProxy",
      "contractAddress": "0x00c2b3c7bcaa083e31b7d3272df9aea2efe3939f",
      "function": null,
      "arguments": null,
      "transaction": {
        "from": "0xdef12db2bd62f88c8d59807e0ce9868279fd7fef",
        "to": "0x00c2b3c7bcaa083e31b7d3272df9aea2efe3939f",
        "gas": "0x12381",
        "value": "0x0",
        "input": "0x91915ef800000000000000000000000000000000000000000000d3c21bcecceda1000000",
        "nonce": "0x113",
        "chainId": "0xaa36a7"
      },
      "additionalContracts": [],
      "isFixedGasLimit": false
    },
    {
      "hash": "0x90a06ea5844a833e837cd6401fa03e0e4483d38ef505398a4c2ae1bd4eed6b87",
      "transactionType": "CALL",
      "contractName": "MaseerProxy",
      "contractAddress": "0x00c2b3c7bcaa083e31b7d3272df9aea2efe3939f",
      "function": null,
      "arguments": null,
      "transaction": {
        "from": "0xdef12db2bd62f88c8d59807e0ce9868279fd7fef",
        "to": "0x00c2b3c7bcaa083e31b7d3272df9aea2efe3939f",
        "gas": "0x112f0",
        "value": "0x0",
        "input": "0x59361d8e0000000000000000000000000000000000000000000000000000000000000032",
        "nonce": "0x114",
        "chainId": "0xaa36a7"
      },
      "additionalContracts": [],
      "isFixedGasLimit": false
    },
    {
      "hash": "0xda95be4ac317e9bb92a355576d3f7967a16c49491917c23f9d73a7c0f1565705",
      "transactionType": "CALL",
      "contractName": "MaseerProxy",
      "contractAddress": "0x00c2b3c7bcaa083e31b7d3272df9aea2efe3939f",
      "function": null,
      "arguments": null,
      "transaction": {
        "from": "0xdef12db2bd62f88c8d59807e0ce9868279fd7fef",
        "to": "0x00c2b3c7bcaa083e31b7d3272df9aea2efe3939f",
        "gas": "0x1235c",
        "value": "0x0",
        "input": "0x71ebdf4e0000000000000000000000000000000000000000000000000000000000000032",
        "nonce": "0x115",
        "chainId": "0xaa36a7"
      },
      "additionalContracts": [],
      "isFixedGasLimit": false
    },
    {
      "hash": "0x581cb016ba4627ca2284722f477b43b315bef5ac8e7b0624115faa49c07ffa92",
      "transactionType": "CALL",
      "contractName": "MaseerProxy",
      "contractAddress": "0x00c2b3c7bcaa083e31b7d3272df9aea2efe3939f",
      "function": null,
      "arguments": null,
      "transaction": {
        "from": "0xdef12db2bd62f88c8d59807e0ce9868279fd7fef",
        "to": "0x00c2b3c7bcaa083e31b7d3272df9aea2efe3939f",
        "gas": "0x1152c",
        "value": "0x0",
        "input": "0x65fae35e000000000000000000000000b05502bf20342331f42a7b80aa4bab3f8ca86c0f",
        "nonce": "0x116",
        "chainId": "0xaa36a7"
      },
      "additionalContracts": [],
      "isFixedGasLimit": false
    },
    {
      "hash": "0xce5009537e3ec50fb3e067dcea4080c52160e1df7a77a076d69d1c7a529f88cc",
      "transactionType": "CALL",
      "contractName": "MaseerProxy",
      "contractAddress": "0x00c2b3c7bcaa083e31b7d3272df9aea2efe3939f",
      "function": "relyProxy(address)",
      "arguments": [
        "0xB05502bf20342331F42A7B80Aa4bAB3F8cA86C0F"
      ],
      "transaction": {
        "from": "0xdef12db2bd62f88c8d59807e0ce9868279fd7fef",
        "to": "0x00c2b3c7bcaa083e31b7d3272df9aea2efe3939f",
        "gas": "0x108da",
        "value": "0x0",
        "input": "0x266a164a000000000000000000000000b05502bf20342331f42a7b80aa4bab3f8ca86c0f",
        "nonce": "0x117",
        "chainId": "0xaa36a7"
      },
      "additionalContracts": [],
      "isFixedGasLimit": false
    },
    {
      "hash": "0x31c24a21d2f851b09ac3cfc181934c34d7ee4c09e66b7a24af2c31c4bfdc1739",
      "transactionType": "CALL",
      "contractName": "MaseerProxy",
      "contractAddress": "0xa76ea8bf3cb88f8d6e34b0e066608db8f58a1ef0",
      "function": null,
      "arguments": null,
      "transaction": {
        "from": "0xdef12db2bd62f88c8d59807e0ce9868279fd7fef",
        "to": "0xa76ea8bf3cb88f8d6e34b0e066608db8f58a1ef0",
        "gas": "0x114c2",
        "value": "0x0",
        "input": "0x65fae35e000000000000000000000000b05502bf20342331f42a7b80aa4bab3f8ca86c0f",
        "nonce": "0x118",
        "chainId": "0xaa36a7"
      },
      "additionalContracts": [],
      "isFixedGasLimit": false
    },
    {
      "hash": "0x3b7ff760126578fd4ab9704be19bc12692713c60cf33122bcec054f5e1bd3fe4",
      "transactionType": "CALL",
      "contractName": "MaseerProxy",
      "contractAddress": "0xa76ea8bf3cb88f8d6e34b0e066608db8f58a1ef0",
      "function": "relyProxy(address)",
      "arguments": [
        "0xB05502bf20342331F42A7B80Aa4bAB3F8cA86C0F"
      ],
      "transaction": {
        "from": "0xdef12db2bd62f88c8d59807e0ce9868279fd7fef",
        "to": "0xa76ea8bf3cb88f8d6e34b0e066608db8f58a1ef0",
        "gas": "0x108da",
        "value": "0x0",
        "input": "0x266a164a000000000000000000000000b05502bf20342331f42a7b80aa4bab3f8ca86c0f",
        "nonce": "0x119",
        "chainId": "0xaa36a7"
      },
      "additionalContracts": [],
      "isFixedGasLimit": false
    },
    {
      "hash": "0xb46c888c3f8e61426c49576c6337247e2269544b142167e335ea213b63380707",
      "transactionType": "CALL",
      "contractName": "MaseerProxy",
      "contractAddress": "0xc3b7a9b11e5efc35a9819050d32e78ab6d7bc18b",
      "function": null,
      "arguments": null,
      "transaction": {
        "from": "0xdef12db2bd62f88c8d59807e0ce9868279fd7fef",
        "to": "0xc3b7a9b11e5efc35a9819050d32e78ab6d7bc18b",
        "gas": "0x11453",
        "value": "0x0",
        "input": "0xa3b22fc4000000000000000000000000b05502bf20342331f42a7b80aa4bab3f8ca86c0f",
        "nonce": "0x11a",
        "chainId": "0xaa36a7"
      },
      "additionalContracts": [],
      "isFixedGasLimit": false
    },
    {
      "hash": "0x2ce1732c7f85332a135efe66525ad2122391e09b75892f8cfc91dba6feb148e6",
      "transactionType": "CALL",
      "contractName": "MaseerProxy",
      "contractAddress": "0xc3b7a9b11e5efc35a9819050d32e78ab6d7bc18b",
      "function": null,
      "arguments": null,
      "transaction": {
        "from": "0xdef12db2bd62f88c8d59807e0ce9868279fd7fef",
        "to": "0xc3b7a9b11e5efc35a9819050d32e78ab6d7bc18b",
        "gas": "0x1148b",
        "value": "0x0",
        "input": "0xf29c29c4000000000000000000000000b05502bf20342331f42a7b80aa4bab3f8ca86c0f",
        "nonce": "0x11b",
        "chainId": "0xaa36a7"
      },
      "additionalContracts": [],
      "isFixedGasLimit": false
    },
    {
      "hash": "0xb36584196234001ad7648757d1dc182759d20d453a0a780a260b3bfa74630b6e",
      "transactionType": "CALL",
      "contractName": "MaseerProxy",
      "contractAddress": "0xc3b7a9b11e5efc35a9819050d32e78ab6d7bc18b",
      "function": null,
      "arguments": null,
      "transaction": {
        "from": "0xdef12db2bd62f88c8d59807e0ce9868279fd7fef",
        "to": "0xc3b7a9b11e5efc35a9819050d32e78ab6d7bc18b",
        "gas": "0x1148b",
        "value": "0x0",
        "input": "0xf29c29c4000000000000000000000000cb76a30ac792bf0dec4af6eb70dfaf99cecb4a90",
        "nonce": "0x11c",
        "chainId": "0xaa36a7"
      },
      "additionalContracts": [],
      "isFixedGasLimit": false
    },
    {
      "hash": "0xeab781c9329e4e853e16ad50e0f4000f73496dcb6b142e6391033c0642ec0f30",
      "transactionType": "CALL",
      "contractName": "MaseerProxy",
      "contractAddress": "0xc3b7a9b11e5efc35a9819050d32e78ab6d7bc18b",
      "function": null,
      "arguments": null,
      "transaction": {
        "from": "0xdef12db2bd62f88c8d59807e0ce9868279fd7fef",
        "to": "0xc3b7a9b11e5efc35a9819050d32e78ab6d7bc18b",
        "gas": "0x1258e",
        "value": "0x0",
        "input": "0x65fae35e000000000000000000000000b05502bf20342331f42a7b80aa4bab3f8ca86c0f",
        "nonce": "0x11d",
        "chainId": "0xaa36a7"
      },
      "additionalContracts": [],
      "isFixedGasLimit": false
    },
    {
      "hash": "0xed3d665cf2e09a146085b3a93a3df2531fa55396b9f1ee082a648bb94ac8d898",
      "transactionType": "CALL",
      "contractName": "MaseerProxy",
      "contractAddress": "0xc3b7a9b11e5efc35a9819050d32e78ab6d7bc18b",
      "function": "relyProxy(address)",
      "arguments": [
        "0xB05502bf20342331F42A7B80Aa4bAB3F8cA86C0F"
      ],
      "transaction": {
        "from": "0xdef12db2bd62f88c8d59807e0ce9868279fd7fef",
        "to": "0xc3b7a9b11e5efc35a9819050d32e78ab6d7bc18b",
        "gas": "0x108da",
        "value": "0x0",
        "input": "0x266a164a000000000000000000000000b05502bf20342331f42a7b80aa4bab3f8ca86c0f",
        "nonce": "0x11e",
        "chainId": "0xaa36a7"
      },
      "additionalContracts": [],
      "isFixedGasLimit": false
    },
    {
      "hash": "0x230e68ab0bb53dbee8bd3b4d5da50924d396faffda3d3a94245d03e7a8363077",
      "transactionType": "CALL",
      "contractName": "MaseerProxy",
      "contractAddress": "0x00c2b3c7bcaa083e31b7d3272df9aea2efe3939f",
      "function": null,
      "arguments": null,
      "transaction": {
        "from": "0xdef12db2bd62f88c8d59807e0ce9868279fd7fef",
        "to": "0x00c2b3c7bcaa083e31b7d3272df9aea2efe3939f",
        "gas": "0xa81d",
        "value": "0x0",
        "input": "0xfbd252460000000000000000000000000000000000000000000000000000000000000000",
        "nonce": "0x11f",
        "chainId": "0xaa36a7"
      },
      "additionalContracts": [],
      "isFixedGasLimit": false
    },
    {
      "hash": "0x60bbe65f81ab1db94904eb88e77b0f8842135278642b00b9fe0de3a22e442199",
      "transactionType": "CALL",
      "contractName": "MaseerProxy",
      "contractAddress": "0x00c2b3c7bcaa083e31b7d3272df9aea2efe3939f",
      "function": null,
      "arguments": null,
      "transaction": {
        "from": "0xdef12db2bd62f88c8d59807e0ce9868279fd7fef",
        "to": "0x00c2b3c7bcaa083e31b7d3272df9aea2efe3939f",
        "gas": "0x126ee",
        "value": "0x0",
        "input": "0x29ae811468616c746d696e74000000000000000000000000000000000000000000000000ffffffffffffffffffffffffffffffffffffffffffffffffffffffffffffffff",
        "nonce": "0x120",
        "chainId": "0xaa36a7"
      },
      "additionalContracts": [],
      "isFixedGasLimit": false
    },
    {
      "hash": "0xf7b534ee377df8f4585eeaa98606ae068326aede86d944326f9576cecdb5c15e",
      "transactionType": "CALL",
      "contractName": "MaseerProxy",
      "contractAddress": "0x00c2b3c7bcaa083e31b7d3272df9aea2efe3939f",
      "function": null,
      "arguments": null,
      "transaction": {
        "from": "0xdef12db2bd62f88c8d59807e0ce9868279fd7fef",
        "to": "0x00c2b3c7bcaa083e31b7d3272df9aea2efe3939f",
        "gas": "0xa78a",
        "value": "0x0",
        "input": "0x1447cdf90000000000000000000000000000000000000000000000000000000000000000",
        "nonce": "0x121",
        "chainId": "0xaa36a7"
      },
      "additionalContracts": [],
      "isFixedGasLimit": false
    },
    {
      "hash": "0x1297882e54fb41b9d2fef873d802ecc6ec4a0f2eb4e1b2488b3b51aa387fed7e",
      "transactionType": "CALL",
      "contractName": "MaseerProxy",
      "contractAddress": "0x00c2b3c7bcaa083e31b7d3272df9aea2efe3939f",
      "function": null,
      "arguments": null,
      "transaction": {
        "from": "0xdef12db2bd62f88c8d59807e0ce9868279fd7fef",
        "to": "0x00c2b3c7bcaa083e31b7d3272df9aea2efe3939f",
        "gas": "0x116cb",
        "value": "0x0",
        "input": "0x29ae811468616c746275726e000000000000000000000000000000000000000000000000ffffffffffffffffffffffffffffffffffffffffffffffffffffffffffffffff",
        "nonce": "0x122",
        "chainId": "0xaa36a7"
      },
      "additionalContracts": [],
      "isFixedGasLimit": false
    },
    {
      "hash": "0xf9ecb8f8ff0832ccb171ffaca59b72f845543939bad728bcde277b0b834cceed",
      "transactionType": "CALL",
      "contractName": "MaseerProxy",
      "contractAddress": "0x00c2b3c7bcaa083e31b7d3272df9aea2efe3939f",
      "function": null,
      "arguments": null,
      "transaction": {
        "from": "0xdef12db2bd62f88c8d59807e0ce9868279fd7fef",
        "to": "0x00c2b3c7bcaa083e31b7d3272df9aea2efe3939f",
        "gas": "0xb72c",
        "value": "0x0",
        "input": "0x91915ef80000000000000000000000000000000000000000033b2e3c9fd0803ce8000000",
        "nonce": "0x123",
        "chainId": "0xaa36a7"
      },
      "additionalContracts": [],
      "isFixedGasLimit": false
    },
    {
      "hash": "0xccbed028f43fdf8d4c8d2048e6e1acb9fb3460b62d949cdb27f8b290d7ddf3c7",
      "transactionType": "CALL",
      "contractName": "MaseerProxy",
      "contractAddress": "0x00c2b3c7bcaa083e31b7d3272df9aea2efe3939f",
      "function": null,
      "arguments": null,
      "transaction": {
        "from": "0xdef12db2bd62f88c8d59807e0ce9868279fd7fef",
        "to": "0x00c2b3c7bcaa083e31b7d3272df9aea2efe3939f",
        "gas": "0xb69f",
        "value": "0x0",
        "input": "0x4fc3f41a0000000000000000000000000000000000000000000000000000000000000258",
        "nonce": "0x124",
        "chainId": "0xaa36a7"
      },
      "additionalContracts": [],
      "isFixedGasLimit": false
    },
    {
      "hash": "0x147bb7ca66c9614bd40bf7da1f0339443427e0af9c4954cb4472796a34985d22",
      "transactionType": "CALL",
      "contractName": "MaseerProxy",
      "contractAddress": "0xb8bf8326d2768750b43f71e68adfcb01b29f4873",
      "function": null,
      "arguments": null,
      "transaction": {
        "from": "0xdef12db2bd62f88c8d59807e0ce9868279fd7fef",
        "to": "0xb8bf8326d2768750b43f71e68adfcb01b29f4873",
        "gas": "0xb388",
        "value": "0x0",
        "input": "0x9c52a7f10000000000000000000000001804c8ab1f12e6bbf3894d4083f33e07309d1f38",
        "nonce": "0x125",
        "chainId": "0xaa36a7"
      },
      "additionalContracts": [],
      "isFixedGasLimit": false
    },
    {
      "hash": "0x262a00391a1be6d0d2c6d815286b968d77d9b8c36e674e3e4aac318028b5b185",
      "transactionType": "CALL",
      "contractName": "MaseerProxy",
      "contractAddress": "0xb8bf8326d2768750b43f71e68adfcb01b29f4873",
      "function": "denyProxy(address)",
      "arguments": [
        "0x1804c8AB1F12E6bbf3894d4083f33e07309d1f38"
      ],
      "transaction": {
        "from": "0xdef12db2bd62f88c8d59807e0ce9868279fd7fef",
        "to": "0xb8bf8326d2768750b43f71e68adfcb01b29f4873",
        "gas": "0x974a",
        "value": "0x0",
        "input": "0x0715940e0000000000000000000000001804c8ab1f12e6bbf3894d4083f33e07309d1f38",
        "nonce": "0x126",
        "chainId": "0xaa36a7"
      },
      "additionalContracts": [],
      "isFixedGasLimit": false
    },
    {
      "hash": "0xf9693561232428d8ef9979fb0fd6e0bc83a7317256e87a8ac04197e90b68e365",
      "transactionType": "CALL",
      "contractName": "MaseerProxy",
      "contractAddress": "0x00c2b3c7bcaa083e31b7d3272df9aea2efe3939f",
      "function": null,
      "arguments": null,
      "transaction": {
        "from": "0xdef12db2bd62f88c8d59807e0ce9868279fd7fef",
        "to": "0x00c2b3c7bcaa083e31b7d3272df9aea2efe3939f",
        "gas": "0xa9eb",
        "value": "0x0",
        "input": "0x9c52a7f10000000000000000000000001804c8ab1f12e6bbf3894d4083f33e07309d1f38",
        "nonce": "0x127",
        "chainId": "0xaa36a7"
      },
      "additionalContracts": [],
      "isFixedGasLimit": false
    },
    {
      "hash": "0xd884207db915eacac0199ae8ab7e8c6b2e896da3df69cf1aab2195f9e1c3f030",
      "transactionType": "CALL",
      "contractName": "MaseerProxy",
      "contractAddress": "0x00c2b3c7bcaa083e31b7d3272df9aea2efe3939f",
      "function": "denyProxy(address)",
      "arguments": [
        "0x1804c8AB1F12E6bbf3894d4083f33e07309d1f38"
      ],
      "transaction": {
        "from": "0xdef12db2bd62f88c8d59807e0ce9868279fd7fef",
        "to": "0x00c2b3c7bcaa083e31b7d3272df9aea2efe3939f",
        "gas": "0x974a",
        "value": "0x0",
        "input": "0x0715940e0000000000000000000000001804c8ab1f12e6bbf3894d4083f33e07309d1f38",
        "nonce": "0x128",
        "chainId": "0xaa36a7"
      },
      "additionalContracts": [],
      "isFixedGasLimit": false
    },
    {
      "hash": "0x1b0ee74e9b75d3e298411b640d426e2ac7c04a28531ad11441f7333c7e9a41a6",
      "transactionType": "CALL",
      "contractName": "MaseerProxy",
      "contractAddress": "0xa76ea8bf3cb88f8d6e34b0e066608db8f58a1ef0",
      "function": null,
      "arguments": null,
      "transaction": {
        "from": "0xdef12db2bd62f88c8d59807e0ce9868279fd7fef",
        "to": "0xa76ea8bf3cb88f8d6e34b0e066608db8f58a1ef0",
        "gas": "0xb388",
        "value": "0x0",
        "input": "0x9c52a7f10000000000000000000000001804c8ab1f12e6bbf3894d4083f33e07309d1f38",
        "nonce": "0x129",
        "chainId": "0xaa36a7"
      },
      "additionalContracts": [],
      "isFixedGasLimit": false
    },
    {
      "hash": "0x9713ae3e5a4b02c52e4a8d6837372e8518b24aaa899657b4742679c42b681ddf",
      "transactionType": "CALL",
      "contractName": "MaseerProxy",
      "contractAddress": "0xa76ea8bf3cb88f8d6e34b0e066608db8f58a1ef0",
      "function": "denyProxy(address)",
      "arguments": [
        "0x1804c8AB1F12E6bbf3894d4083f33e07309d1f38"
      ],
      "transaction": {
        "from": "0xdef12db2bd62f88c8d59807e0ce9868279fd7fef",
        "to": "0xa76ea8bf3cb88f8d6e34b0e066608db8f58a1ef0",
        "gas": "0x974a",
        "value": "0x0",
        "input": "0x0715940e0000000000000000000000001804c8ab1f12e6bbf3894d4083f33e07309d1f38",
        "nonce": "0x12a",
        "chainId": "0xaa36a7"
      },
      "additionalContracts": [],
      "isFixedGasLimit": false
    },
    {
      "hash": "0xe91ef460b5c798d1a31bafe0c88e79530aafe182598a7c968b18e8848643d134",
      "transactionType": "CALL",
      "contractName": "MaseerProxy",
      "contractAddress": "0xc3b7a9b11e5efc35a9819050d32e78ab6d7bc18b",
      "function": null,
      "arguments": null,
      "transaction": {
        "from": "0xdef12db2bd62f88c8d59807e0ce9868279fd7fef",
        "to": "0xc3b7a9b11e5efc35a9819050d32e78ab6d7bc18b",
        "gas": "0xb3fd",
        "value": "0x0",
        "input": "0x9c52a7f10000000000000000000000001804c8ab1f12e6bbf3894d4083f33e07309d1f38",
        "nonce": "0x12b",
        "chainId": "0xaa36a7"
      },
      "additionalContracts": [],
      "isFixedGasLimit": false
    },
    {
      "hash": "0x716284f7da875fa7870170493c0b7cee01ee23aba942257fde4328b8e12c970e",
      "transactionType": "CALL",
      "contractName": "MaseerProxy",
      "contractAddress": "0xc3b7a9b11e5efc35a9819050d32e78ab6d7bc18b",
      "function": "denyProxy(address)",
      "arguments": [
        "0x1804c8AB1F12E6bbf3894d4083f33e07309d1f38"
      ],
      "transaction": {
        "from": "0xdef12db2bd62f88c8d59807e0ce9868279fd7fef",
        "to": "0xc3b7a9b11e5efc35a9819050d32e78ab6d7bc18b",
        "gas": "0x974a",
        "value": "0x0",
        "input": "0x0715940e0000000000000000000000001804c8ab1f12e6bbf3894d4083f33e07309d1f38",
        "nonce": "0x12c",
        "chainId": "0xaa36a7"
      },
      "additionalContracts": [],
      "isFixedGasLimit": false
    }
  ],
  "receipts": [
    {
      "status": "0x1",
      "cumulativeGasUsed": "0x8d4b97",
      "logs": [],
      "logsBloom": "0x00000000000000000000000000000000000000000000000000000000000000000000000000000000000000000000000000000000000000000000000000000000000000000000000000000000000000000000000000000000000000000000000000000000000000000000000000000000000000000000000000000000000000000000000000000000000000000000000000000000000000000000000000000000000000000000000000000000000000000000000000000000000000000000000000000000000000000000000000000000000000000000000000000000000000000000000000000000000000000000000000000000000000000000000000000000",
      "type": "0x2",
      "transactionHash": "0x93f193c1b5c71f4b5526367525f8ec67e661f3e92ab6f696fc5b4dfb40b6b950",
      "transactionIndex": "0x5b",
      "blockHash": "0x359a91a1aedc26834f445719551adb8b4af0ff8e74e15b65089003c9ca94bd5e",
      "blockNumber": "0x760a54",
      "gasUsed": "0x8ea2e",
      "effectiveGasPrice": "0x5fe457cc",
      "from": "0xdef12db2bd62f88c8d59807e0ce9868279fd7fef",
      "to": null,
      "contractAddress": "0xcaddb146b3f1a6a558ecd01380b81c2faf9c8a10"
    },
    {
      "status": "0x1",
      "cumulativeGasUsed": "0x8e5769",
      "logs": [],
      "logsBloom": "0x00000000000000000000000000000000000000000000000000000000000000000000000000000000000000000000000000000000000000000000000000000000000000000000000000000000000000000000000000000000000000000000000000000000000000000000000000000000000000000000000000000000000000000000000000000000000000000000000000000000000000000000000000000000000000000000000000000000000000000000000000000000000000000000000000000000000000000000000000000000000000000000000000000000000000000000000000000000000000000000000000000000000000000000000000000000",
      "type": "0x2",
      "transactionHash": "0x6fbe592cf2529faa4cb0d4db579de5bd087fbeae07d89392a9c7b83f9fcd3eac",
      "transactionIndex": "0x5c",
      "blockHash": "0x359a91a1aedc26834f445719551adb8b4af0ff8e74e15b65089003c9ca94bd5e",
      "blockNumber": "0x760a54",
      "gasUsed": "0x10bd2",
      "effectiveGasPrice": "0x5fe457cc",
      "from": "0xdef12db2bd62f88c8d59807e0ce9868279fd7fef",
      "to": "0xcaddb146b3f1a6a558ecd01380b81c2faf9c8a10",
      "contractAddress": null
    },
    {
      "status": "0x1",
      "cumulativeGasUsed": "0x8f206f",
      "logs": [],
      "logsBloom": "0x00000000000000000000000000000000000000000000000000000000000000000000000000000000000000000000000000000000000000000000000000000000000000000000000000000000000000000000000000000000000000000000000000000000000000000000000000000000000000000000000000000000000000000000000000000000000000000000000000000000000000000000000000000000000000000000000000000000000000000000000000000000000000000000000000000000000000000000000000000000000000000000000000000000000000000000000000000000000000000000000000000000000000000000000000000000",
      "type": "0x2",
      "transactionHash": "0x30f0652128e98d4a65245b73c4a6a418ab8c01f2e257229c83148290a3715cde",
      "transactionIndex": "0x5d",
      "blockHash": "0x359a91a1aedc26834f445719551adb8b4af0ff8e74e15b65089003c9ca94bd5e",
      "blockNumber": "0x760a54",
      "gasUsed": "0xc906",
      "effectiveGasPrice": "0x5fe457cc",
      "from": "0xdef12db2bd62f88c8d59807e0ce9868279fd7fef",
      "to": "0xcaddb146b3f1a6a558ecd01380b81c2faf9c8a10",
      "contractAddress": null
    },
    {
      "status": "0x1",
      "cumulativeGasUsed": "0x995043",
      "logs": [],
      "logsBloom": "0x00000000000000000000000000000000000000000000000000000000000000000000000000000000000000000000000000000000000000000000000000000000000000000000000000000000000000000000000000000000000000000000000000000000000000000000000000000000000000000000000000000000000000000000000000000000000000000000000000000000000000000000000000000000000000000000000000000000000000000000000000000000000000000000000000000000000000000000000000000000000000000000000000000000000000000000000000000000000000000000000000000000000000000000000000000000",
      "type": "0x2",
      "transactionHash": "0xd248f01661f78e3c7f83c6776b2dfc7be6e3e49cbe732f3432930052e61c406d",
      "transactionIndex": "0x5e",
      "blockHash": "0x359a91a1aedc26834f445719551adb8b4af0ff8e74e15b65089003c9ca94bd5e",
      "blockNumber": "0x760a54",
      "gasUsed": "0xa2fd4",
      "effectiveGasPrice": "0x5fe457cc",
      "from": "0xdef12db2bd62f88c8d59807e0ce9868279fd7fef",
      "to": null,
      "contractAddress": "0xa3170216edf8e4976084ea7bb5581ee04367cf16"
    },
    {
      "status": "0x1",
      "cumulativeGasUsed": "0x9ed983",
      "logs": [],
      "logsBloom": "0x00000000000000000000000000000000000000000000000000000000000000000000000000000000000000000000000000000000000000000000000000000000000000000000000000000000000000000000000000000000000000000000000000000000000000000000000000000000000000000000000000000000000000000000000000000000000000000000000000000000000000000000000000000000000000000000000000000000000000000000000000000000000000000000000000000000000000000000000000000000000000000000000000000000000000000000000000000000000000000000000000000000000000000000000000000000",
      "type": "0x2",
      "transactionHash": "0x286d585fa9fe18d9f34812eb2113d30b1bcf7426a6413edbb582525bf79d2a23",
      "transactionIndex": "0x5f",
      "blockHash": "0x359a91a1aedc26834f445719551adb8b4af0ff8e74e15b65089003c9ca94bd5e",
      "blockNumber": "0x760a54",
      "gasUsed": "0x58940",
      "effectiveGasPrice": "0x5fe457cc",
      "from": "0xdef12db2bd62f88c8d59807e0ce9868279fd7fef",
      "to": null,
      "contractAddress": "0xb8bf8326d2768750b43f71e68adfcb01b29f4873"
    },
    {
      "status": "0x1",
      "cumulativeGasUsed": "0xb0472a",
      "logs": [],
      "logsBloom": "0x00000000000000000000000000000000000000000000000000000000000000000000000000000000000000000000000000000000000000000000000000000000000000000000000000000000000000000000000000000000000000000000000000000000000000000000000000000000000000000000000000000000000000000000000000000000000000000000000000000000000000000000000000000000000000000000000000000000000000000000000000000000000000000000000000000000000000000000000000000000000000000000000000000000000000000000000000000000000000000000000000000000000000000000000000000000",
      "type": "0x2",
      "transactionHash": "0x14afef029cac1cccb0fcfe94b2c27862fc0a65a318984dd1ba13aca7def2fd78",
      "transactionIndex": "0x60",
      "blockHash": "0x359a91a1aedc26834f445719551adb8b4af0ff8e74e15b65089003c9ca94bd5e",
      "blockNumber": "0x760a54",
      "gasUsed": "0x116da7",
      "effectiveGasPrice": "0x5fe457cc",
      "from": "0xdef12db2bd62f88c8d59807e0ce9868279fd7fef",
      "to": null,
      "contractAddress": "0x36e2a277866742d772a4eaece921170f81e8acd4"
    },
    {
      "status": "0x1",
      "cumulativeGasUsed": "0xb5d06a",
      "logs": [],
      "logsBloom": "0x00000000000000000000000000000000000000000000000000000000000000000000000000000000000000000000000000000000000000000000000000000000000000000000000000000000000000000000000000000000000000000000000000000000000000000000000000000000000000000000000000000000000000000000000000000000000000000000000000000000000000000000000000000000000000000000000000000000000000000000000000000000000000000000000000000000000000000000000000000000000000000000000000000000000000000000000000000000000000000000000000000000000000000000000000000000",
      "type": "0x2",
      "transactionHash": "0x2defc30b53bb932363766dccf641b2a48772b1aa628543046ef88dc9cadbbc24",
      "transactionIndex": "0x61",
      "blockHash": "0x359a91a1aedc26834f445719551adb8b4af0ff8e74e15b65089003c9ca94bd5e",
      "blockNumber": "0x760a54",
      "gasUsed": "0x58940",
      "effectiveGasPrice": "0x5fe457cc",
      "from": "0xdef12db2bd62f88c8d59807e0ce9868279fd7fef",
      "to": null,
      "contractAddress": "0x00c2b3c7bcaa083e31b7d3272df9aea2efe3939f"
    },
    {
      "status": "0x1",
      "cumulativeGasUsed": "0xbab30a",
      "logs": [],
      "logsBloom": "0x00000000000000000000000000000000000000000000000000000000000000000000000000000000000000000000000000000000000000000000000000000000000000000000000000000000000000000000000000000000000000000000000000000000000000000000000000000000000000000000000000000000000000000000000000000000000000000000000000000000000000000000000000000000000000000000000000000000000000000000000000000000000000000000000000000000000000000000000000000000000000000000000000000000000000000000000000000000000000000000000000000000000000000000000000000000",
      "type": "0x2",
      "transactionHash": "0xf6db866f3f0d214837aecd4fb6740a39cd6b5d3ed86e96c092423c8f89a49920",
      "transactionIndex": "0x62",
      "blockHash": "0x359a91a1aedc26834f445719551adb8b4af0ff8e74e15b65089003c9ca94bd5e",
      "blockNumber": "0x760a54",
      "gasUsed": "0x4e2a0",
      "effectiveGasPrice": "0x5fe457cc",
      "from": "0xdef12db2bd62f88c8d59807e0ce9868279fd7fef",
      "to": null,
      "contractAddress": "0x20e4f709a6ea631c76d9b4fff7db73be769f7fda"
    },
    {
      "status": "0x1",
      "cumulativeGasUsed": "0xc03c4a",
      "logs": [],
      "logsBloom": "0x00000000000000000000000000000000000000000000000000000000000000000000000000000000000000000000000000000000000000000000000000000000000000000000000000000000000000000000000000000000000000000000000000000000000000000000000000000000000000000000000000000000000000000000000000000000000000000000000000000000000000000000000000000000000000000000000000000000000000000000000000000000000000000000000000000000000000000000000000000000000000000000000000000000000000000000000000000000000000000000000000000000000000000000000000000000",
      "type": "0x2",
      "transactionHash": "0x73a7d3fb7b69ef5dbabc947bdd79b0a518b1e835b05d1055d57e01e68e5c4a49",
      "transactionIndex": "0x63",
      "blockHash": "0x359a91a1aedc26834f445719551adb8b4af0ff8e74e15b65089003c9ca94bd5e",
      "blockNumber": "0x760a54",
      "gasUsed": "0x58940",
      "effectiveGasPrice": "0x5fe457cc",
      "from": "0xdef12db2bd62f88c8d59807e0ce9868279fd7fef",
      "to": null,
      "contractAddress": "0xa76ea8bf3cb88f8d6e34b0e066608db8f58a1ef0"
    },
    {
      "status": "0x1",
      "cumulativeGasUsed": "0xcb8768",
      "logs": [],
      "logsBloom": "0x00000000000000000000000000000000000000000000000000000000000000000000000000000000000000000000000000000000000000000000000000000000000000000000000000000000000000000000000000000000000000000000000000000000000000000000000000000000000000000000000000000000000000000000000000000000000000000000000000000000000000000000000000000000000000000000000000000000000000000000000000000000000000000000000000000000000000000000000000000000000000000000000000000000000000000000000000000000000000000000000000000000000000000000000000000000",
      "type": "0x2",
      "transactionHash": "0x41e3dc3c379037eb6672dee1d824e69e4a0f904098af50c3d15d9ddcb91b3279",
      "transactionIndex": "0x64",
      "blockHash": "0x359a91a1aedc26834f445719551adb8b4af0ff8e74e15b65089003c9ca94bd5e",
      "blockNumber": "0x760a54",
      "gasUsed": "0xb4b1e",
      "effectiveGasPrice": "0x5fe457cc",
      "from": "0xdef12db2bd62f88c8d59807e0ce9868279fd7fef",
      "to": null,
      "contractAddress": "0x89fad5c74acfa2540e0d72dc00de37d68fe0d0ab"
    },
    {
      "status": "0x1",
      "cumulativeGasUsed": "0xd1109c",
      "logs": [],
      "logsBloom": "0x00000000000000000000000000000000000000000000000000000000000000000000000000000000000000000000000000000000000000000000000000000000000000000000000000000000000000000000000000000000000000000000000000000000000000000000000000000000000000000000000000000000000000000000000000000000000000000000000000000000000000000000000000000000000000000000000000000000000000000000000000000000000000000000000000000000000000000000000000000000000000000000000000000000000000000000000000000000000000000000000000000000000000000000000000000000",
      "type": "0x2",
      "transactionHash": "0xc6db3d6064b1e1f39892afe5bfff82281912ab79072860a1a45476b35d8b30d4",
      "transactionIndex": "0x65",
      "blockHash": "0x359a91a1aedc26834f445719551adb8b4af0ff8e74e15b65089003c9ca94bd5e",
      "blockNumber": "0x760a54",
      "gasUsed": "0x58934",
      "effectiveGasPrice": "0x5fe457cc",
      "from": "0xdef12db2bd62f88c8d59807e0ce9868279fd7fef",
      "to": null,
      "contractAddress": "0xc3b7a9b11e5efc35a9819050d32e78ab6d7bc18b"
    },
    {
      "status": "0x1",
      "cumulativeGasUsed": "0xf38daa",
      "logs": [],
      "logsBloom": "0x00000000000000000000000000000000000000000000000000000000000000000000000000000000000000000000000000000000000000000000000000000000000000000000000000000000000000000000000000000000000000000000000000000000000000000000000000000000000000000000000000000000000000000000000000000000000000000000000000000000000000000000000000000000000000000000000000000000000000000000000000000000000000000000000000000000000000000000000000000000000000000000000000000000000000000000000000000000000000000000000000000000000000000000000000000000",
      "type": "0x2",
      "transactionHash": "0xf76c2c91dd3ff974a397a7db0e84f27632e8a4a5334dab96bedea13474a37e60",
      "transactionIndex": "0x66",
      "blockHash": "0x359a91a1aedc26834f445719551adb8b4af0ff8e74e15b65089003c9ca94bd5e",
      "blockNumber": "0x760a54",
      "gasUsed": "0x227d0e",
      "effectiveGasPrice": "0x5fe457cc",
      "from": "0xdef12db2bd62f88c8d59807e0ce9868279fd7fef",
      "to": null,
      "contractAddress": "0xcb76a30ac792bf0dec4af6eb70dfaf99cecb4a90"
    },
    {
      "status": "0x1",
      "cumulativeGasUsed": "0xf45b81",
      "logs": [
        {
          "address": "0xb8bf8326d2768750b43f71e68adfcb01b29f4873",
          "topics": [
            "0x943a793c11a909d4409e7706d8c3d1467960e08f6141234950042994856812df",
            "0x6e616d6500000000000000000000000000000000000000000000000000000000"
          ],
          "data": "0x43414e4155534454000000000000000000000000000000000000000000000000",
          "blockHash": "0x359a91a1aedc26834f445719551adb8b4af0ff8e74e15b65089003c9ca94bd5e",
          "blockNumber": "0x760a54",
          "transactionHash": "0xb5cc3319549433e364c82afe5dd33e28cd02e36b4666f02a44fd10209e3ac54c",
          "transactionIndex": "0x67",
          "logIndex": "0x9f",
          "removed": false
        }
      ],
      "logsBloom": "0x00000000000000000000000000000000000000000000000000000000000000000000000000000000800000000000000000000000000000000000000000000000000000200000000080000000000000000000000000000000000000000100000000000000000000000000000000000000000000000000000000000000000000000000000000000000000000000000000000000000000000000000000000000010000000000000000000000000000000000020000000000000000000000000004000000000000000000000000000000000000400100000000000000000000000000000000000000000000000000000000000000000000000000000000000000000",
      "type": "0x2",
      "transactionHash": "0xb5cc3319549433e364c82afe5dd33e28cd02e36b4666f02a44fd10209e3ac54c",
      "transactionIndex": "0x67",
      "blockHash": "0x359a91a1aedc26834f445719551adb8b4af0ff8e74e15b65089003c9ca94bd5e",
      "blockNumber": "0x760a54",
      "gasUsed": "0xcdd7",
      "effectiveGasPrice": "0x5fe457cc",
      "from": "0xdef12db2bd62f88c8d59807e0ce9868279fd7fef",
      "to": "0xb8bf8326d2768750b43f71e68adfcb01b29f4873",
      "contractAddress": null
    },
    {
      "status": "0x1",
      "cumulativeGasUsed": "0xf52970",
      "logs": [
        {
          "address": "0xb8bf8326d2768750b43f71e68adfcb01b29f4873",
          "topics": [
            "0x943a793c11a909d4409e7706d8c3d1467960e08f6141234950042994856812df",
            "0x646563696d616c73000000000000000000000000000000000000000000000000"
          ],
          "data": "0x0000000000000000000000000000000000000000000000000000000000000006",
          "blockHash": "0x359a91a1aedc26834f445719551adb8b4af0ff8e74e15b65089003c9ca94bd5e",
          "blockNumber": "0x760a54",
          "transactionHash": "0xaa9dbe8d74d057fe78b5c120f8818574d53eccf302a5926a59de60dc34fdf9f4",
          "transactionIndex": "0x68",
          "logIndex": "0xa0",
          "removed": false
        }
      ],
      "logsBloom": "0x00000000000000000000000000000000000000000000000000000000000000000000000000000000000000000400000000000000000000000000000000000000000000200000000080000000000000000000000000000000000000000100000000000000000000000000000000000000000000000000000000000000000000000000000000000000000000000000000000000000000000000000000000000000000000000000000000000000000000000020000000000000000000000000004000000000000000000000000000000000001000100000000000000000000000000000000000000000000000000000000000004000000000000000000000000000",
      "type": "0x2",
      "transactionHash": "0xaa9dbe8d74d057fe78b5c120f8818574d53eccf302a5926a59de60dc34fdf9f4",
      "transactionIndex": "0x68",
      "blockHash": "0x359a91a1aedc26834f445719551adb8b4af0ff8e74e15b65089003c9ca94bd5e",
      "blockNumber": "0x760a54",
      "gasUsed": "0xcdef",
      "effectiveGasPrice": "0x5fe457cc",
      "from": "0xdef12db2bd62f88c8d59807e0ce9868279fd7fef",
      "to": "0xb8bf8326d2768750b43f71e68adfcb01b29f4873",
      "contractAddress": null
    },
    {
      "status": "0x1",
      "cumulativeGasUsed": "0xf5a85c",
      "logs": [
        {
          "address": "0xb8bf8326d2768750b43f71e68adfcb01b29f4873",
          "topics": [
            "0x92664190cca12aca9cd5309d87194bdda75bb51362d71c06e1a6f75c7c765711",
            "0x0000000000000000000000000000000000000000000000000000000000000000",
            "0x0000000000000000000000000000000000000000000000000000000067b4e318"
          ],
          "data": "0x",
          "blockHash": "0x359a91a1aedc26834f445719551adb8b4af0ff8e74e15b65089003c9ca94bd5e",
          "blockNumber": "0x760a54",
          "transactionHash": "0x66d70c075f1cf0c2509145cb28e815ccd6ffc6e4c1bddb4644b77b85925de9a8",
          "transactionIndex": "0x69",
          "logIndex": "0xa1",
          "removed": false
        }
      ],
      "logsBloom": "0x00000000000000000000000000000000000000000000000000000000000000000000000000000000000000000000000000000000000000000000000000000000000000000000000080000000000000000000000000000000000000000100000000002000020000000000000000000800000200000000000000000000000000000000000000000000000000000000000000000000000000000000000000000000000000000000000000000000000002000000000000000000000000000000004000000000000000000000000000000000000000000200000000000000000020100000000000000000000000000000000000000000000000000000000000000000",
      "type": "0x2",
      "transactionHash": "0x66d70c075f1cf0c2509145cb28e815ccd6ffc6e4c1bddb4644b77b85925de9a8",
      "transactionIndex": "0x69",
      "blockHash": "0x359a91a1aedc26834f445719551adb8b4af0ff8e74e15b65089003c9ca94bd5e",
      "blockNumber": "0x760a54",
      "gasUsed": "0x7eec",
      "effectiveGasPrice": "0x5fe457cc",
      "from": "0xdef12db2bd62f88c8d59807e0ce9868279fd7fef",
      "to": "0xb8bf8326d2768750b43f71e68adfcb01b29f4873",
      "contractAddress": null
    },
    {
      "status": "0x1",
      "cumulativeGasUsed": "0xf670dc",
      "logs": [],
      "logsBloom": "0x00000000000000000000000000000000000000000000000000000000000000000000000000000000000000000000000000000000000000000000000000000000000000000000000000000000000000000000000000000000000000000000000000000000000000000000000000000000000000000000000000000000000000000000000000000000000000000000000000000000000000000000000000000000000000000000000000000000000000000000000000000000000000000000000000000000000000000000000000000000000000000000000000000000000000000000000000000000000000000000000000000000000000000000000000000000",
      "type": "0x2",
      "transactionHash": "0x378639d182016af59766fc89b4da71bba32b64746955706c0e5c0fea2bb944eb",
      "transactionIndex": "0x6a",
      "blockHash": "0x359a91a1aedc26834f445719551adb8b4af0ff8e74e15b65089003c9ca94bd5e",
      "blockNumber": "0x760a54",
      "gasUsed": "0xc880",
      "effectiveGasPrice": "0x5fe457cc",
      "from": "0xdef12db2bd62f88c8d59807e0ce9868279fd7fef",
      "to": "0xb8bf8326d2768750b43f71e68adfcb01b29f4873",
      "contractAddress": null
    },
    {
      "status": "0x1",
      "cumulativeGasUsed": "0xfb7e03",
      "logs": [],
      "logsBloom": "0x00000000000000000000000000000000000000000000000000000000000000000000000000000000000000000000000000000000000000000000000000000000000000000000000000000000000000000000000000000000000000000000000000000000000000000000000000000000000000000000000000000000000000000000000000000000000000000000000000000000000000000000000000000000000000000000000000000000000000000000000000000000000000000000000000000000000000000000000000000000000000000000000000000000000000000000000000000000000000000000000000000000000000000000000000000000",
      "type": "0x2",
      "transactionHash": "0x85557f05d84820ea602219490b09106726c7fef6b680d0d61b0ef0ca783c9203",
      "transactionIndex": "0xb1",
      "blockHash": "0x3ebc0145d9da225b9cdf8b06c7c73108aca76286cacaccb7700fe602c5e1216d",
      "blockNumber": "0x760a58",
      "gasUsed": "0xb519",
      "effectiveGasPrice": "0x5fe457cc",
      "from": "0xdef12db2bd62f88c8d59807e0ce9868279fd7fef",
      "to": "0xb8bf8326d2768750b43f71e68adfcb01b29f4873",
      "contractAddress": null
    },
    {
      "status": "0x1",
      "cumulativeGasUsed": "0x9d0752",
      "logs": [],
      "logsBloom": "0x00000000000000000000000000000000000000000000000000000000000000000000000000000000000000000000000000000000000000000000000000000000000000000000000000000000000000000000000000000000000000000000000000000000000000000000000000000000000000000000000000000000000000000000000000000000000000000000000000000000000000000000000000000000000000000000000000000000000000000000000000000000000000000000000000000000000000000000000000000000000000000000000000000000000000000000000000000000000000000000000000000000000000000000000000000000",
      "type": "0x2",
      "transactionHash": "0xee57081a7c0e8311488f6a9195c564f8f277354e47e0d93485afe180ea624eeb",
      "transactionIndex": "0x5f",
      "blockHash": "0x6692f4e0f53e8690f83393260f8455c739d35c3ea5cefdaa6f888e5b2b76bc74",
      "blockNumber": "0x760a5a",
      "gasUsed": "0xc710",
      "effectiveGasPrice": "0x5fe457cc",
      "from": "0xdef12db2bd62f88c8d59807e0ce9868279fd7fef",
      "to": "0x00c2b3c7bcaa083e31b7d3272df9aea2efe3939f",
      "contractAddress": null
    },
    {
      "status": "0x1",
      "cumulativeGasUsed": "0x9dcea4",
      "logs": [],
      "logsBloom": "0x00000000000000000000000000000000000000000000000000000000000000000000000000000000000000000000000000000000000000000000000000000000000000000000000000000000000000000000000000000000000000000000000000000000000000000000000000000000000000000000000000000000000000000000000000000000000000000000000000000000000000000000000000000000000000000000000000000000000000000000000000000000000000000000000000000000000000000000000000000000000000000000000000000000000000000000000000000000000000000000000000000000000000000000000000000000",
      "type": "0x2",
      "transactionHash": "0xf242ce1bf71264cc9fdaa982303142f74e2939f5f9330141f2a4c39227c0982f",
      "transactionIndex": "0x60",
      "blockHash": "0x6692f4e0f53e8690f83393260f8455c739d35c3ea5cefdaa6f888e5b2b76bc74",
      "blockNumber": "0x760a5a",
      "gasUsed": "0xc752",
      "effectiveGasPrice": "0x5fe457cc",
      "from": "0xdef12db2bd62f88c8d59807e0ce9868279fd7fef",
      "to": "0x00c2b3c7bcaa083e31b7d3272df9aea2efe3939f",
      "contractAddress": null
    },
    {
      "status": "0x1",
      "cumulativeGasUsed": "0x9e95b2",
      "logs": [],
      "logsBloom": "0x00000000000000000000000000000000000000000000000000000000000000000000000000000000000000000000000000000000000000000000000000000000000000000000000000000000000000000000000000000000000000000000000000000000000000000000000000000000000000000000000000000000000000000000000000000000000000000000000000000000000000000000000000000000000000000000000000000000000000000000000000000000000000000000000000000000000000000000000000000000000000000000000000000000000000000000000000000000000000000000000000000000000000000000000000000000",
      "type": "0x2",
      "transactionHash": "0x90a06ea5844a833e837cd6401fa03e0e4483d38ef505398a4c2ae1bd4eed6b87",
      "transactionIndex": "0x61",
      "blockHash": "0x6692f4e0f53e8690f83393260f8455c739d35c3ea5cefdaa6f888e5b2b76bc74",
      "blockNumber": "0x760a5a",
      "gasUsed": "0xc70e",
      "effectiveGasPrice": "0x5fe457cc",
      "from": "0xdef12db2bd62f88c8d59807e0ce9868279fd7fef",
      "to": "0x00c2b3c7bcaa083e31b7d3272df9aea2efe3939f",
      "contractAddress": null
    },
    {
      "status": "0x1",
      "cumulativeGasUsed": "0x9f5ceb",
      "logs": [],
      "logsBloom": "0x00000000000000000000000000000000000000000000000000000000000000000000000000000000000000000000000000000000000000000000000000000000000000000000000000000000000000000000000000000000000000000000000000000000000000000000000000000000000000000000000000000000000000000000000000000000000000000000000000000000000000000000000000000000000000000000000000000000000000000000000000000000000000000000000000000000000000000000000000000000000000000000000000000000000000000000000000000000000000000000000000000000000000000000000000000000",
      "type": "0x2",
      "transactionHash": "0xda95be4ac317e9bb92a355576d3f7967a16c49491917c23f9d73a7c0f1565705",
      "transactionIndex": "0x62",
      "blockHash": "0x6692f4e0f53e8690f83393260f8455c739d35c3ea5cefdaa6f888e5b2b76bc74",
      "blockNumber": "0x760a5a",
      "gasUsed": "0xc739",
      "effectiveGasPrice": "0x5fe457cc",
      "from": "0xdef12db2bd62f88c8d59807e0ce9868279fd7fef",
      "to": "0x00c2b3c7bcaa083e31b7d3272df9aea2efe3939f",
      "contractAddress": null
    },
    {
      "status": "0x1",
      "cumulativeGasUsed": "0xa0dab0",
      "logs": [],
      "logsBloom": "0x00000000000000000000000000000000000000000000000000000000000000000000000000000000000000000000000000000000000000000000000000000000000000000000000000000000000000000000000000000000000000000000000000000000000000000000000000000000000000000000000000000000000000000000000000000000000000000000000000000000000000000000000000000000000000000000000000000000000000000000000000000000000000000000000000000000000000000000000000000000000000000000000000000000000000000000000000000000000000000000000000000000000000000000000000000000",
      "type": "0x2",
      "transactionHash": "0xce5009537e3ec50fb3e067dcea4080c52160e1df7a77a076d69d1c7a529f88cc",
      "transactionIndex": "0x64",
      "blockHash": "0x6692f4e0f53e8690f83393260f8455c739d35c3ea5cefdaa6f888e5b2b76bc74",
      "blockNumber": "0x760a5a",
      "gasUsed": "0xb519",
      "effectiveGasPrice": "0x5fe457cc",
      "from": "0xdef12db2bd62f88c8d59807e0ce9868279fd7fef",
      "to": "0x00c2b3c7bcaa083e31b7d3272df9aea2efe3939f",
      "contractAddress": null
    },
    {
      "status": "0x1",
      "cumulativeGasUsed": "0xa25828",
      "logs": [],
      "logsBloom": "0x00000000000000000000000000000000000000000000000000000000000000000000000000000000000000000000000000000000000000000000000000000000000000000000000000000000000000000000000000000000000000000000000000000000000000000000000000000000000000000000000000000000000000000000000000000000000000000000000000000000000000000000000000000000000000000000000000000000000000000000000000000000000000000000000000000000000000000000000000000000000000000000000000000000000000000000000000000000000000000000000000000000000000000000000000000000",
      "type": "0x2",
      "transactionHash": "0x3b7ff760126578fd4ab9704be19bc12692713c60cf33122bcec054f5e1bd3fe4",
      "transactionIndex": "0x66",
      "blockHash": "0x6692f4e0f53e8690f83393260f8455c739d35c3ea5cefdaa6f888e5b2b76bc74",
      "blockNumber": "0x760a5a",
      "gasUsed": "0xb519",
      "effectiveGasPrice": "0x5fe457cc",
      "from": "0xdef12db2bd62f88c8d59807e0ce9868279fd7fef",
      "to": "0xa76ea8bf3cb88f8d6e34b0e066608db8f58a1ef0",
      "contractAddress": null
    },
    {
      "status": "0x1",
      "cumulativeGasUsed": "0xa3e86e",
      "logs": [],
      "logsBloom": "0x00000000000000000000000000000000000000000000000000000000000000000000000000000000000000000000000000000000000000000000000000000000000000000000000000000000000000000000000000000000000000000000000000000000000000000000000000000000000000000000000000000000000000000000000000000000000000000000000000000000000000000000000000000000000000000000000000000000000000000000000000000000000000000000000000000000000000000000000000000000000000000000000000000000000000000000000000000000000000000000000000000000000000000000000000000000",
      "type": "0x2",
      "transactionHash": "0x2ce1732c7f85332a135efe66525ad2122391e09b75892f8cfc91dba6feb148e6",
      "transactionIndex": "0x68",
      "blockHash": "0x6692f4e0f53e8690f83393260f8455c739d35c3ea5cefdaa6f888e5b2b76bc74",
      "blockNumber": "0x760a5a",
      "gasUsed": "0xc837",
      "effectiveGasPrice": "0x5fe457cc",
      "from": "0xdef12db2bd62f88c8d59807e0ce9868279fd7fef",
      "to": "0xc3b7a9b11e5efc35a9819050d32e78ab6d7bc18b",
      "contractAddress": null
    },
    {
      "status": "0x1",
      "cumulativeGasUsed": "0xa4b0a5",
      "logs": [],
      "logsBloom": "0x00000000000000000000000000000000000000000000000000000000000000000000000000000000000000000000000000000000000000000000000000000000000000000000000000000000000000000000000000000000000000000000000000000000000000000000000000000000000000000000000000000000000000000000000000000000000000000000000000000000000000000000000000000000000000000000000000000000000000000000000000000000000000000000000000000000000000000000000000000000000000000000000000000000000000000000000000000000000000000000000000000000000000000000000000000000",
      "type": "0x2",
      "transactionHash": "0xb36584196234001ad7648757d1dc182759d20d453a0a780a260b3bfa74630b6e",
      "transactionIndex": "0x69",
      "blockHash": "0x6692f4e0f53e8690f83393260f8455c739d35c3ea5cefdaa6f888e5b2b76bc74",
      "blockNumber": "0x760a5a",
      "gasUsed": "0xc837",
      "effectiveGasPrice": "0x5fe457cc",
      "from": "0xdef12db2bd62f88c8d59807e0ce9868279fd7fef",
      "to": "0xc3b7a9b11e5efc35a9819050d32e78ab6d7bc18b",
      "contractAddress": null
    },
    {
      "status": "0x1",
      "cumulativeGasUsed": "0xa5795e",
      "logs": [],
      "logsBloom": "0x00000000000000000000000000000000000000000000000000000000000000000000000000000000000000000000000000000000000000000000000000000000000000000000000000000000000000000000000000000000000000000000000000000000000000000000000000000000000000000000000000000000000000000000000000000000000000000000000000000000000000000000000000000000000000000000000000000000000000000000000000000000000000000000000000000000000000000000000000000000000000000000000000000000000000000000000000000000000000000000000000000000000000000000000000000000",
      "type": "0x2",
      "transactionHash": "0xeab781c9329e4e853e16ad50e0f4000f73496dcb6b142e6391033c0642ec0f30",
      "transactionIndex": "0x6a",
      "blockHash": "0x6692f4e0f53e8690f83393260f8455c739d35c3ea5cefdaa6f888e5b2b76bc74",
      "blockNumber": "0x760a5a",
      "gasUsed": "0xc8b9",
      "effectiveGasPrice": "0x5fe457cc",
      "from": "0xdef12db2bd62f88c8d59807e0ce9868279fd7fef",
      "to": "0xc3b7a9b11e5efc35a9819050d32e78ab6d7bc18b",
      "contractAddress": null
    },
    {
      "status": "0x1",
      "cumulativeGasUsed": "0xa62e77",
      "logs": [],
      "logsBloom": "0x00000000000000000000000000000000000000000000000000000000000000000000000000000000000000000000000000000000000000000000000000000000000000000000000000000000000000000000000000000000000000000000000000000000000000000000000000000000000000000000000000000000000000000000000000000000000000000000000000000000000000000000000000000000000000000000000000000000000000000000000000000000000000000000000000000000000000000000000000000000000000000000000000000000000000000000000000000000000000000000000000000000000000000000000000000000",
      "type": "0x2",
      "transactionHash": "0xed3d665cf2e09a146085b3a93a3df2531fa55396b9f1ee082a648bb94ac8d898",
      "transactionIndex": "0x6b",
      "blockHash": "0x6692f4e0f53e8690f83393260f8455c739d35c3ea5cefdaa6f888e5b2b76bc74",
      "blockNumber": "0x760a5a",
      "gasUsed": "0xb519",
      "effectiveGasPrice": "0x5fe457cc",
      "from": "0xdef12db2bd62f88c8d59807e0ce9868279fd7fef",
      "to": "0xc3b7a9b11e5efc35a9819050d32e78ab6d7bc18b",
      "contractAddress": null
    },
    {
      "status": "0x1",
      "cumulativeGasUsed": "0xa6a82e",
      "logs": [],
      "logsBloom": "0x00000000000000000000000000000000000000000000000000000000000000000000000000000000000000000000000000000000000000000000000000000000000000000000000000000000000000000000000000000000000000000000000000000000000000000000000000000000000000000000000000000000000000000000000000000000000000000000000000000000000000000000000000000000000000000000000000000000000000000000000000000000000000000000000000000000000000000000000000000000000000000000000000000000000000000000000000000000000000000000000000000000000000000000000000000000",
      "type": "0x2",
      "transactionHash": "0x230e68ab0bb53dbee8bd3b4d5da50924d396faffda3d3a94245d03e7a8363077",
      "transactionIndex": "0x6c",
      "blockHash": "0x6692f4e0f53e8690f83393260f8455c739d35c3ea5cefdaa6f888e5b2b76bc74",
      "blockNumber": "0x760a5a",
      "gasUsed": "0x79b7",
      "effectiveGasPrice": "0x5fe457cc",
      "from": "0xdef12db2bd62f88c8d59807e0ce9868279fd7fef",
      "to": "0x00c2b3c7bcaa083e31b7d3272df9aea2efe3939f",
      "contractAddress": null
    },
    {
      "status": "0x1",
      "cumulativeGasUsed": "0xa771d8",
      "logs": [],
      "logsBloom": "0x00000000000000000000000000000000000000000000000000000000000000000000000000000000000000000000000000000000000000000000000000000000000000000000000000000000000000000000000000000000000000000000000000000000000000000000000000000000000000000000000000000000000000000000000000000000000000000000000000000000000000000000000000000000000000000000000000000000000000000000000000000000000000000000000000000000000000000000000000000000000000000000000000000000000000000000000000000000000000000000000000000000000000000000000000000000",
      "type": "0x2",
      "transactionHash": "0x60bbe65f81ab1db94904eb88e77b0f8842135278642b00b9fe0de3a22e442199",
      "transactionIndex": "0x6d",
      "blockHash": "0x6692f4e0f53e8690f83393260f8455c739d35c3ea5cefdaa6f888e5b2b76bc74",
      "blockNumber": "0x760a5a",
      "gasUsed": "0xc9aa",
      "effectiveGasPrice": "0x5fe457cc",
      "from": "0xdef12db2bd62f88c8d59807e0ce9868279fd7fef",
      "to": "0x00c2b3c7bcaa083e31b7d3272df9aea2efe3939f",
      "contractAddress": null
    },
    {
      "status": "0x1",
      "cumulativeGasUsed": "0xa7eb25",
      "logs": [],
      "logsBloom": "0x00000000000000000000000000000000000000000000000000000000000000000000000000000000000000000000000000000000000000000000000000000000000000000000000000000000000000000000000000000000000000000000000000000000000000000000000000000000000000000000000000000000000000000000000000000000000000000000000000000000000000000000000000000000000000000000000000000000000000000000000000000000000000000000000000000000000000000000000000000000000000000000000000000000000000000000000000000000000000000000000000000000000000000000000000000000",
      "type": "0x2",
      "transactionHash": "0xf7b534ee377df8f4585eeaa98606ae068326aede86d944326f9576cecdb5c15e",
      "transactionIndex": "0x6e",
      "blockHash": "0x6692f4e0f53e8690f83393260f8455c739d35c3ea5cefdaa6f888e5b2b76bc74",
      "blockNumber": "0x760a5a",
      "gasUsed": "0x794d",
      "effectiveGasPrice": "0x5fe457cc",
      "from": "0xdef12db2bd62f88c8d59807e0ce9868279fd7fef",
      "to": "0x00c2b3c7bcaa083e31b7d3272df9aea2efe3939f",
      "contractAddress": null
    },
    {
      "status": "0x1",
      "cumulativeGasUsed": "0xa8b4fd",
      "logs": [],
      "logsBloom": "0x00000000000000000000000000000000000000000000000000000000000000000000000000000000000000000000000000000000000000000000000000000000000000000000000000000000000000000000000000000000000000000000000000000000000000000000000000000000000000000000000000000000000000000000000000000000000000000000000000000000000000000000000000000000000000000000000000000000000000000000000000000000000000000000000000000000000000000000000000000000000000000000000000000000000000000000000000000000000000000000000000000000000000000000000000000000",
      "type": "0x2",
      "transactionHash": "0x1297882e54fb41b9d2fef873d802ecc6ec4a0f2eb4e1b2488b3b51aa387fed7e",
      "transactionIndex": "0x6f",
      "blockHash": "0x6692f4e0f53e8690f83393260f8455c739d35c3ea5cefdaa6f888e5b2b76bc74",
      "blockNumber": "0x760a5a",
      "gasUsed": "0xc9d8",
      "effectiveGasPrice": "0x5fe457cc",
      "from": "0xdef12db2bd62f88c8d59807e0ce9868279fd7fef",
      "to": "0x00c2b3c7bcaa083e31b7d3272df9aea2efe3939f",
      "contractAddress": null
    },
    {
      "status": "0x1",
      "cumulativeGasUsed": "0xa9399b",
      "logs": [],
      "logsBloom": "0x00000000000000000000000000000000000000000000000000000000000000000000000000000000000000000000000000000000000000000000000000000000000000000000000000000000000000000000000000000000000000000000000000000000000000000000000000000000000000000000000000000000000000000000000000000000000000000000000000000000000000000000000000000000000000000000000000000000000000000000000000000000000000000000000000000000000000000000000000000000000000000000000000000000000000000000000000000000000000000000000000000000000000000000000000000000",
      "type": "0x2",
      "transactionHash": "0xf9ecb8f8ff0832ccb171ffaca59b72f845543939bad728bcde277b0b834cceed",
      "transactionIndex": "0x70",
      "blockHash": "0x6692f4e0f53e8690f83393260f8455c739d35c3ea5cefdaa6f888e5b2b76bc74",
      "blockNumber": "0x760a5a",
      "gasUsed": "0x849e",
      "effectiveGasPrice": "0x5fe457cc",
      "from": "0xdef12db2bd62f88c8d59807e0ce9868279fd7fef",
      "to": "0x00c2b3c7bcaa083e31b7d3272df9aea2efe3939f",
      "contractAddress": null
    },
    {
      "status": "0x1",
      "cumulativeGasUsed": "0xa9bdd3",
      "logs": [],
      "logsBloom": "0x00000000000000000000000000000000000000000000000000000000000000000000000000000000000000000000000000000000000000000000000000000000000000000000000000000000000000000000000000000000000000000000000000000000000000000000000000000000000000000000000000000000000000000000000000000000000000000000000000000000000000000000000000000000000000000000000000000000000000000000000000000000000000000000000000000000000000000000000000000000000000000000000000000000000000000000000000000000000000000000000000000000000000000000000000000000",
      "type": "0x2",
      "transactionHash": "0xccbed028f43fdf8d4c8d2048e6e1acb9fb3460b62d949cdb27f8b290d7ddf3c7",
      "transactionIndex": "0x71",
      "blockHash": "0x6692f4e0f53e8690f83393260f8455c739d35c3ea5cefdaa6f888e5b2b76bc74",
      "blockNumber": "0x760a5a",
      "gasUsed": "0x8438",
      "effectiveGasPrice": "0x5fe457cc",
      "from": "0xdef12db2bd62f88c8d59807e0ce9868279fd7fef",
      "to": "0x00c2b3c7bcaa083e31b7d3272df9aea2efe3939f",
      "contractAddress": null
    },
    {
      "status": "0x1",
      "cumulativeGasUsed": "0xaa3895",
      "logs": [],
      "logsBloom": "0x00000000000000000000000000000000000000000000000000000000000000000000000000000000000000000000000000000000000000000000000000000000000000000000000000000000000000000000000000000000000000000000000000000000000000000000000000000000000000000000000000000000000000000000000000000000000000000000000000000000000000000000000000000000000000000000000000000000000000000000000000000000000000000000000000000000000000000000000000000000000000000000000000000000000000000000000000000000000000000000000000000000000000000000000000000000",
      "type": "0x2",
      "transactionHash": "0x147bb7ca66c9614bd40bf7da1f0339443427e0af9c4954cb4472796a34985d22",
      "transactionIndex": "0x72",
      "blockHash": "0x6692f4e0f53e8690f83393260f8455c739d35c3ea5cefdaa6f888e5b2b76bc74",
      "blockNumber": "0x760a5a",
      "gasUsed": "0x7ac2",
      "effectiveGasPrice": "0x5fe457cc",
      "from": "0xdef12db2bd62f88c8d59807e0ce9868279fd7fef",
      "to": "0xb8bf8326d2768750b43f71e68adfcb01b29f4873",
      "contractAddress": null
    },
    {
      "status": "0x1",
      "cumulativeGasUsed": "0xaaa008",
      "logs": [],
      "logsBloom": "0x00000000000000000000000000000000000000000000000000000000000000000000000000000000000000000000000000000000000000000000000000000000000000000000000000000000000000000000000000000000000000000000000000000000000000000000000000000000000000000000000000000000000000000000000000000000000000000000000000000000000000000000000000000000000000000000000000000000000000000000000000000000000000000000000000000000000000000000000000000000000000000000000000000000000000000000000000000000000000000000000000000000000000000000000000000000",
      "type": "0x2",
      "transactionHash": "0x262a00391a1be6d0d2c6d815286b968d77d9b8c36e674e3e4aac318028b5b185",
      "transactionIndex": "0x73",
      "blockHash": "0x6692f4e0f53e8690f83393260f8455c739d35c3ea5cefdaa6f888e5b2b76bc74",
      "blockNumber": "0x760a5a",
      "gasUsed": "0x6773",
      "effectiveGasPrice": "0x5fe457cc",
      "from": "0xdef12db2bd62f88c8d59807e0ce9868279fd7fef",
      "to": "0xb8bf8326d2768750b43f71e68adfcb01b29f4873",
      "contractAddress": null
    },
    {
      "status": "0x1",
      "cumulativeGasUsed": "0xab1b0d",
      "logs": [],
      "logsBloom": "0x00000000000000000000000000000000000000000000000000000000000000000000000000000000000000000000000000000000000000000000000000000000000000000000000000000000000000000000000000000000000000000000000000000000000000000000000000000000000000000000000000000000000000000000000000000000000000000000000000000000000000000000000000000000000000000000000000000000000000000000000000000000000000000000000000000000000000000000000000000000000000000000000000000000000000000000000000000000000000000000000000000000000000000000000000000000",
      "type": "0x2",
      "transactionHash": "0xf9693561232428d8ef9979fb0fd6e0bc83a7317256e87a8ac04197e90b68e365",
      "transactionIndex": "0x74",
      "blockHash": "0x6692f4e0f53e8690f83393260f8455c739d35c3ea5cefdaa6f888e5b2b76bc74",
      "blockNumber": "0x760a5a",
      "gasUsed": "0x7b05",
      "effectiveGasPrice": "0x5fe457cc",
      "from": "0xdef12db2bd62f88c8d59807e0ce9868279fd7fef",
      "to": "0x00c2b3c7bcaa083e31b7d3272df9aea2efe3939f",
      "contractAddress": null
    },
    {
      "status": "0x1",
      "cumulativeGasUsed": "0xab8280",
      "logs": [],
      "logsBloom": "0x00000000000000000000000000000000000000000000000000000000000000000000000000000000000000000000000000000000000000000000000000000000000000000000000000000000000000000000000000000000000000000000000000000000000000000000000000000000000000000000000000000000000000000000000000000000000000000000000000000000000000000000000000000000000000000000000000000000000000000000000000000000000000000000000000000000000000000000000000000000000000000000000000000000000000000000000000000000000000000000000000000000000000000000000000000000",
      "type": "0x2",
      "transactionHash": "0xd884207db915eacac0199ae8ab7e8c6b2e896da3df69cf1aab2195f9e1c3f030",
      "transactionIndex": "0x75",
      "blockHash": "0x6692f4e0f53e8690f83393260f8455c739d35c3ea5cefdaa6f888e5b2b76bc74",
      "blockNumber": "0x760a5a",
      "gasUsed": "0x6773",
      "effectiveGasPrice": "0x5fe457cc",
      "from": "0xdef12db2bd62f88c8d59807e0ce9868279fd7fef",
      "to": "0x00c2b3c7bcaa083e31b7d3272df9aea2efe3939f",
      "contractAddress": null
    },
    {
      "status": "0x1",
      "cumulativeGasUsed": "0xabfd42",
      "logs": [],
      "logsBloom": "0x00000000000000000000000000000000000000000000000000000000000000000000000000000000000000000000000000000000000000000000000000000000000000000000000000000000000000000000000000000000000000000000000000000000000000000000000000000000000000000000000000000000000000000000000000000000000000000000000000000000000000000000000000000000000000000000000000000000000000000000000000000000000000000000000000000000000000000000000000000000000000000000000000000000000000000000000000000000000000000000000000000000000000000000000000000000",
      "type": "0x2",
      "transactionHash": "0x1b0ee74e9b75d3e298411b640d426e2ac7c04a28531ad11441f7333c7e9a41a6",
      "transactionIndex": "0x76",
      "blockHash": "0x6692f4e0f53e8690f83393260f8455c739d35c3ea5cefdaa6f888e5b2b76bc74",
      "blockNumber": "0x760a5a",
      "gasUsed": "0x7ac2",
      "effectiveGasPrice": "0x5fe457cc",
      "from": "0xdef12db2bd62f88c8d59807e0ce9868279fd7fef",
      "to": "0xa76ea8bf3cb88f8d6e34b0e066608db8f58a1ef0",
      "contractAddress": null
    },
    {
      "status": "0x1",
      "cumulativeGasUsed": "0xac64b5",
      "logs": [],
      "logsBloom": "0x00000000000000000000000000000000000000000000000000000000000000000000000000000000000000000000000000000000000000000000000000000000000000000000000000000000000000000000000000000000000000000000000000000000000000000000000000000000000000000000000000000000000000000000000000000000000000000000000000000000000000000000000000000000000000000000000000000000000000000000000000000000000000000000000000000000000000000000000000000000000000000000000000000000000000000000000000000000000000000000000000000000000000000000000000000000",
      "type": "0x2",
      "transactionHash": "0x9713ae3e5a4b02c52e4a8d6837372e8518b24aaa899657b4742679c42b681ddf",
      "transactionIndex": "0x77",
      "blockHash": "0x6692f4e0f53e8690f83393260f8455c739d35c3ea5cefdaa6f888e5b2b76bc74",
      "blockNumber": "0x760a5a",
      "gasUsed": "0x6773",
      "effectiveGasPrice": "0x5fe457cc",
      "from": "0xdef12db2bd62f88c8d59807e0ce9868279fd7fef",
      "to": "0xa76ea8bf3cb88f8d6e34b0e066608db8f58a1ef0",
      "contractAddress": null
    },
    {
      "status": "0x1",
      "cumulativeGasUsed": "0xacdfc7",
      "logs": [],
      "logsBloom": "0x00000000000000000000000000000000000000000000000000000000000000000000000000000000000000000000000000000000000000000000000000000000000000000000000000000000000000000000000000000000000000000000000000000000000000000000000000000000000000000000000000000000000000000000000000000000000000000000000000000000000000000000000000000000000000000000000000000000000000000000000000000000000000000000000000000000000000000000000000000000000000000000000000000000000000000000000000000000000000000000000000000000000000000000000000000000",
      "type": "0x2",
      "transactionHash": "0xe91ef460b5c798d1a31bafe0c88e79530aafe182598a7c968b18e8848643d134",
      "transactionIndex": "0x78",
      "blockHash": "0x6692f4e0f53e8690f83393260f8455c739d35c3ea5cefdaa6f888e5b2b76bc74",
      "blockNumber": "0x760a5a",
      "gasUsed": "0x7b12",
      "effectiveGasPrice": "0x5fe457cc",
      "from": "0xdef12db2bd62f88c8d59807e0ce9868279fd7fef",
      "to": "0xc3b7a9b11e5efc35a9819050d32e78ab6d7bc18b",
      "contractAddress": null
    },
    {
      "status": "0x1",
      "cumulativeGasUsed": "0xad473a",
      "logs": [],
      "logsBloom": "0x00000000000000000000000000000000000000000000000000000000000000000000000000000000000000000000000000000000000000000000000000000000000000000000000000000000000000000000000000000000000000000000000000000000000000000000000000000000000000000000000000000000000000000000000000000000000000000000000000000000000000000000000000000000000000000000000000000000000000000000000000000000000000000000000000000000000000000000000000000000000000000000000000000000000000000000000000000000000000000000000000000000000000000000000000000000",
      "type": "0x2",
      "transactionHash": "0x716284f7da875fa7870170493c0b7cee01ee23aba942257fde4328b8e12c970e",
      "transactionIndex": "0x79",
      "blockHash": "0x6692f4e0f53e8690f83393260f8455c739d35c3ea5cefdaa6f888e5b2b76bc74",
      "blockNumber": "0x760a5a",
      "gasUsed": "0x6773",
      "effectiveGasPrice": "0x5fe457cc",
      "from": "0xdef12db2bd62f88c8d59807e0ce9868279fd7fef",
      "to": "0xc3b7a9b11e5efc35a9819050d32e78ab6d7bc18b",
      "contractAddress": null
    }
  ],
  "libraries": [],
  "pending": [
    "0x581cb016ba4627ca2284722f477b43b315bef5ac8e7b0624115faa49c07ffa92",
    "0x31c24a21d2f851b09ac3cfc181934c34d7ee4c09e66b7a24af2c31c4bfdc1739",
    "0xb46c888c3f8e61426c49576c6337247e2269544b142167e335ea213b63380707"
  ],
  "returns": {},
  "timestamp": 1739907977,
  "chain": 11155111,
  "commit": "96b15de"
}