{
  "transactions": [
    {
      "hash": "0x0f69493194d2a617188e3ab901f59e6dde506fe0329bdee9f4c1fa4c29969134",
      "transactionType": "CREATE",
      "contractName": "MockUSDT",
      "contractAddress": "0x72038c6bfb7ae7d91571029f43be2b41f74d941d",
      "function": null,
      "arguments": null,
      "transaction": {
        "from": "0xdef12db2bd62f88c8d59807e0ce9868279fd7fef",
        "gas": "0xb96d5",
        "value": "0x0",
        "input": "0x608060405234801561000f575f5ffd5b5060408051808201909152600a81526915195d1a195c881554d160b21b602082015260039061003e9082610116565b50604080518082019091526004808252631554d11560e21b6020830152906100669082610116565b50600580546001600160a01b031916331790556101d0565b634e487b7160e01b5f52604160045260245ffd5b600181811c908216806100a657607f821691505b6020821081036100c457634e487b7160e01b5f52602260045260245ffd5b50919050565b601f82111561011157805f5260205f20601f840160051c810160208510156100ef5750805b601f840160051c820191505b8181101561010e575f81556001016100fb565b50505b505050565b81516001600160401b0381111561012f5761012f61007e565b6101438161013d8454610092565b846100ca565b6020601f821160018114610175575f831561015e5750848201515b5f19600385901b1c1916600184901b17845561010e565b5f84815260208120601f198516915b828110156101a45787850151825560209485019460019092019101610184565b50848210156101c157868401515f19600387901b60f8161c191681555b50505050600190811b01905550565b610844806101dd5f395ff3fe608060405234801561000f575f5ffd5b50600436106100f0575f3560e01c806370a0823111610093578063daea85c511610063578063daea85c514610244578063dd62ed3e14610257578063f9f92be414610281578063fcf4b4aa146102a3575f5ffd5b806370a08231146101c55780638da5cb5b146101e457806395d89b4114610229578063a9059cbb14610231575f5ffd5b806323b872dd116100ce57806323b872dd1461014b578063313ce5671461016057806340c10f191461017a57806359bf1abe1461018d575f5ffd5b806306fdde03146100f4578063095ea7b31461011257806318160ddd14610135575b5f5ffd5b6100fc610306565b6040516101099190610603565b60405180910390f35b61012561012036600461067e565b610392565b6040519015158152602001610109565b61013d5f5481565b604051908152602001610109565b61015e6101593660046106a6565b6103cd565b005b610168600681565b60405160ff9091168152602001610109565b61015e61018836600461067e565b6104d7565b61012561019b3660046106e0565b73ffffffffffffffffffffffffffffffffffffffff165f9081526006602052604090205460ff1690565b61013d6101d33660046106e0565b60016020525f908152604090205481565b6005546102049073ffffffffffffffffffffffffffffffffffffffff1681565b60405173ffffffffffffffffffffffffffffffffffffffff9091168152602001610109565b6100fc61056a565b61015e61023f36600461067e565b610577565b6101256102523660046106e0565b6105c8565b61013d610265366004610700565b600260209081525f928352604080842090915290825290205481565b61012561028f3660046106e0565b60066020525f908152604090205460ff1681565b61015e6102b1366004610731565b73ffffffffffffffffffffffffffffffffffffffff919091165f90815260066020526040902080547fffffffffffffffffffffffffffffffffffffffffffffffffffffffffffffff0016911515919091179055565b600380546103139061076a565b80601f016020809104026020016040519081016040528092919081815260200182805461033f9061076a565b801561038a5780601f106103615761010080835404028352916020019161038a565b820191905f5260205f20905b81548152906001019060200180831161036d57829003601f168201915b505050505081565b335f90815260026020908152604080832073ffffffffffffffffffffffffffffffffffffffff86168452909152902081905560015b92915050565b73ffffffffffffffffffffffffffffffffffffffff83165f9081526002602090815260408083203384529091529020547fffffffffffffffffffffffffffffffffffffffffffffffffffffffffffffffff811461045f5761042e82826107e8565b73ffffffffffffffffffffffffffffffffffffffff85165f9081526002602090815260408083203384529091529020555b73ffffffffffffffffffffffffffffffffffffffff84165f90815260016020526040812080548492906104939084906107e8565b909155505073ffffffffffffffffffffffffffffffffffffffff83165f90815260016020526040812080548492906104cc9084906107fb565b909155505050505050565b60055473ffffffffffffffffffffffffffffffffffffffff16331461055c576040517f08c379a000000000000000000000000000000000000000000000000000000000815260206004820152601d60248201527f4d6f636b555344543a206f6e6c79206f776e65722063616e206d696e74000000604482015260640160405180910390fd5b61056682826105f3565b5050565b600480546103139061076a565b335f90815260016020526040812080548392906105959084906107e8565b909155505073ffffffffffffffffffffffffffffffffffffffff9091165f90815260016020526040902080549091019055565b5f6103c7827fffffffffffffffffffffffffffffffffffffffffffffffffffffffffffffffff610392565b805f5f82825461059591906107fb565b602081525f82518060208401528060208501604085015e5f6040828501015260407fffffffffffffffffffffffffffffffffffffffffffffffffffffffffffffffe0601f83011684010191505092915050565b803573ffffffffffffffffffffffffffffffffffffffff81168114610679575f5ffd5b919050565b5f5f6040838503121561068f575f5ffd5b61069883610656565b946020939093013593505050565b5f5f5f606084860312156106b8575f5ffd5b6106c184610656565b92506106cf60208501610656565b929592945050506040919091013590565b5f602082840312156106f0575f5ffd5b6106f982610656565b9392505050565b5f5f60408385031215610711575f5ffd5b61071a83610656565b915061072860208401610656565b90509250929050565b5f5f60408385031215610742575f5ffd5b61074b83610656565b91506020830135801515811461075f575f5ffd5b809150509250929050565b600181811c9082168061077e57607f821691505b6020821081036107b5577f4e487b71000000000000000000000000000000000000000000000000000000005f52602260045260245ffd5b50919050565b7f4e487b71000000000000000000000000000000000000000000000000000000005f52601160045260245ffd5b818103818111156103c7576103c76107bb565b808201808211156103c7576103c76107bb56fea2646970667358221220cea7288b57a7c2518893682aaeab4296b4a0c65116b292103633b4455bbffcb164736f6c634300081c0033",
        "nonce": "0x24",
        "chainId": "0xaa36a7"
      },
      "additionalContracts": [],
      "isFixedGasLimit": false
    },
    {
      "hash": "0x1f0d912119b571f715f16539a979d1aa1cc9ff3718685e61d9239f6926be4074",
      "transactionType": "CREATE",
      "contractName": "MaseerPrice",
      "contractAddress": "0x527a925f11dcb9ca72894e6a64f7a7dc6bc9fb21",
      "function": null,
      "arguments": null,
      "transaction": {
        "from": "0xdef12db2bd62f88c8d59807e0ce9868279fd7fef",
        "gas": "0xd3e2d",
        "value": "0x0",
        "input": "0x6080604052348015600e575f5ffd5b50601633601a565b6081565b607e7f27ad9db40d40315deb7c9733dae204372b3012815db31bb8e8e56d6c68d6ac248260405160200160609291909182526001600160a01b0316602082015260400190565b60408051601f19818403018152919052805160209091012060019055565b50565b610abd8061008e5f395ff3fe608060405234801561000f575f5ffd5b50600436106100b9575f3560e01c806365fae35e116100725780639c52a7f1116100585780639c52a7f114610153578063bf353dbb14610166578063e9b674b914610179575f5ffd5b806365fae35e146101385780638456cb591461014b575f5ffd5b806332145f90116100a257806332145f90146100f557806357de26a41461010a5780635c975abb14610120575f5ffd5b806306fdde03146100bd578063313ce567146100db575b5f5ffd5b6100c561018c565b6040516100d2919061090d565b60405180910390f35b6100e36101bc565b60405160ff90911681526020016100d2565b610108610103366004610960565b6101e6565b005b610112610286565b6040519081526020016100d2565b6101286102b0565b60405190151581526020016100d2565b610108610146366004610977565b6102ea565b61010861036c565b610108610161366004610977565b6103f0565b610112610174366004610977565b610472565b6101086101873660046109b1565b6104ce565b60606101b77f9bc13b9bea85446242b96c637f96a994030a999e4a37800a69c2f798a672860b61069d565b905090565b5f6101b77fa5c4b505b3328f1f7b143b7cbfe5c1d30e20856c207cab51443a27fedf5d63166106af565b604080517f27ad9db40d40315deb7c9733dae204372b3012815db31bb8e8e56d6c68d6ac246020820152339181019190915261023a906060015b604051602081830303815290604052805190602001205490565b60011461027a576040517f4a0bfec10000000000000000000000000000000000000000000000000000000081523360048201526024015b60405180910390fd5b610283816106b8565b50565b5f6101b77f0f6e463d71d43f924715baa2688119392f80a313b4437e6945310d50dba6177a6106af565b5f6102da7f0f6e463d71d43f924715baa2688119392f80a313b4437e6945310d50dba6177a6106af565b156102e457505f90565b50600190565b604080517f27ad9db40d40315deb7c9733dae204372b3012815db31bb8e8e56d6c68d6ac246020820152339181019190915261032890606001610220565b600114610363576040517f4a0bfec1000000000000000000000000000000000000000000000000000000008152336004820152602401610271565b61028381610710565b604080517f27ad9db40d40315deb7c9733dae204372b3012815db31bb8e8e56d6c68d6ac24602082015233918101919091526103aa90606001610220565b6001146103e5576040517f4a0bfec1000000000000000000000000000000000000000000000000000000008152336004820152602401610271565b6103ee5f6106b8565b565b604080517f27ad9db40d40315deb7c9733dae204372b3012815db31bb8e8e56d6c68d6ac246020820152339181019190915261042e90606001610220565b600114610469576040517f4a0bfec1000000000000000000000000000000000000000000000000000000008152336004820152602401610271565b61028381610783565b5f6104c87f27ad9db40d40315deb7c9733dae204372b3012815db31bb8e8e56d6c68d6ac248360405160200161022092919091825273ffffffffffffffffffffffffffffffffffffffff16602082015260400190565b92915050565b604080517f27ad9db40d40315deb7c9733dae204372b3012815db31bb8e8e56d6c68d6ac246020820152339181019190915261050c90606001610220565b600114610547576040517f4a0bfec1000000000000000000000000000000000000000000000000000000008152336004820152602401610271565b817f70726963650000000000000000000000000000000000000000000000000000000361057c57610577816106b8565b61065f565b817f6e616d6500000000000000000000000000000000000000000000000000000000036105cc576105777f9bc13b9bea85446242b96c637f96a994030a999e4a37800a69c2f798a672860b829055565b817f646563696d616c730000000000000000000000000000000000000000000000001480156105fc575060128111155b1561062a576105777fa5c4b505b3328f1f7b143b7cbfe5c1d30e20856c207cab51443a27fedf5d6316829055565b6040517f35802fa300000000000000000000000000000000000000000000000000000000815260048101829052602401610271565b817f943a793c11a909d4409e7706d8c3d1467960e08f6141234950042994856812df8260405161069191815260200190565b60405180910390a25050565b60606104c86106aa835490565b6107f5565b5f6104c8825490565b6106e17f0f6e463d71d43f924715baa2688119392f80a313b4437e6945310d50dba6177a829055565b604051429082907f92664190cca12aca9cd5309d87194bdda75bb51362d71c06e1a6f75c7c765711905f90a350565b6102837f27ad9db40d40315deb7c9733dae204372b3012815db31bb8e8e56d6c68d6ac248260405160200161076592919091825273ffffffffffffffffffffffffffffffffffffffff16602082015260400190565b6040516020818303038152906040528051906020012060015f1b9055565b6102837f27ad9db40d40315deb7c9733dae204372b3012815db31bb8e8e56d6c68d6ac24826040516020016107d892919091825273ffffffffffffffffffffffffffffffffffffffff16602082015260400190565b604051602081830303815290604052805190602001205f5f1b9055565b60605f5b60208110801561083f5750828160208110610816576108166109d1565b1a60f81b7fff000000000000000000000000000000000000000000000000000000000000001615155b15610856578061084e816109fe565b9150506107f9565b5f8167ffffffffffffffff81111561087057610870610a5a565b6040519080825280601f01601f19166020018201604052801561089a576020820181803683370190505b5090505f5b82811015610905578481602081106108b9576108b96109d1565b1a60f81b8282815181106108cf576108cf6109d1565b60200101907effffffffffffffffffffffffffffffffffffffffffffffffffffffffffffff191690815f1a90535060010161089f565b509392505050565b602081525f82518060208401528060208501604085015e5f6040828501015260407fffffffffffffffffffffffffffffffffffffffffffffffffffffffffffffffe0601f83011684010191505092915050565b5f60208284031215610970575f5ffd5b5035919050565b5f60208284031215610987575f5ffd5b813573ffffffffffffffffffffffffffffffffffffffff811681146109aa575f5ffd5b9392505050565b5f5f604083850312156109c2575f5ffd5b50508035926020909101359150565b7f4e487b71000000000000000000000000000000000000000000000000000000005f52603260045260245ffd5b5f7fffffffffffffffffffffffffffffffffffffffffffffffffffffffffffffffff8203610a53577f4e487b71000000000000000000000000000000000000000000000000000000005f52601160045260245ffd5b5060010190565b7f4e487b71000000000000000000000000000000000000000000000000000000005f52604160045260245ffdfea2646970667358221220f47e893fe014c9943d86093238d528dd304df0853d485fd0cd408e3f735de62564736f6c634300081c0033",
        "nonce": "0x25",
        "chainId": "0xaa36a7"
      },
      "additionalContracts": [],
      "isFixedGasLimit": false
    },
    {
      "hash": "0xc66af653aa4fdf96bf8f973415d4d23c55db8b021ace4eaedc8c74358fb6315b",
      "transactionType": "CREATE",
      "contractName": "MaseerProxy",
      "contractAddress": "0xf642166a50a99098a1a31eada5c5698c71baf8e5",
      "function": null,
      "arguments": [
        "0x527A925f11DCB9ca72894e6a64F7A7dc6bc9fb21"
      ],
      "transaction": {
        "from": "0xdef12db2bd62f88c8d59807e0ce9868279fd7fef",
        "gas": "0x7326c",
        "value": "0x0",
        "input": "0x608060405234801561000f575f5ffd5b506040516105ec3803806105ec83398101604081905261002e91610168565b610039336001610051565b610042336100b7565b61004b8161011d565b50610195565b5f7f312ed9ac9b839e579b0572e42b6b61a1d0e768aa92df633e58ace1e6a3633e79836040516020016100979291909182526001600160a01b0316602082015260400190565b604051602081830303815290604052805190602001209050818155505050565b5f7f27ad9db40d40315deb7c9733dae204372b3012815db31bb8e8e56d6c68d6ac24826040516020016100fd9291909182526001600160a01b0316602082015260400190565b604051602081830303815290604052805190602001209050600181555050565b6001600160a01b038116610144576040516318ce8b9560e31b815260040160405180910390fd5b7f0e4c00c0fe9fb028e73dd325b95165d8884bc26853613a6b5131a12effdd8ddd55565b5f60208284031215610178575f5ffd5b81516001600160a01b038116811461018e575f5ffd5b9392505050565b61044a806101a25f395ff3fe608060405234801561000f575f5ffd5b5060043610610065575f3560e01c8063266a164a1161004e578063266a164a146100d957806360cd9853146100ec5780638abf60771461011257610065565b8063048046c1146100b35780630715940e146100c6575b5f61008e7f0e4c00c0fe9fb028e73dd325b95165d8884bc26853613a6b5131a12effdd8ddd5490565b9050604051365f82375f5f3683855af43d5f833e8080156100ad573d83f35b3d83fd5b005b6100b16100c13660046103da565b61013f565b6100b16100d43660046103da565b61018d565b6100b16100e73660046103da565b6101d9565b6100ff6100fa3660046103da565b610226565b6040519081526020015b60405180910390f35b61011a610236565b60405173ffffffffffffffffffffffffffffffffffffffff9091168152602001610109565b61014833610264565b600114610181576040517fea8e4eb500000000000000000000000000000000000000000000000000000000815260040160405180910390fd5b61018a816102f6565b50565b61019633610264565b6001146101cf576040517fea8e4eb500000000000000000000000000000000000000000000000000000000815260040160405180910390fd5b61018a815f610367565b6101e233610264565b60011461021b576040517fea8e4eb500000000000000000000000000000000000000000000000000000000815260040160405180910390fd5b61018a816001610367565b5f61023082610264565b92915050565b5f61025f7f0e4c00c0fe9fb028e73dd325b95165d8884bc26853613a6b5131a12effdd8ddd5490565b905090565b5f5f7f312ed9ac9b839e579b0572e42b6b61a1d0e768aa92df633e58ace1e6a3633e79836040516020016102b892919091825273ffffffffffffffffffffffffffffffffffffffff16602082015260400190565b604080517fffffffffffffffffffffffffffffffffffffffffffffffffffffffffffffffe08184030181529190528051602090910120549392505050565b73ffffffffffffffffffffffffffffffffffffffff8116610343576040517fc6745ca800000000000000000000000000000000000000000000000000000000815260040160405180910390fd5b7f0e4c00c0fe9fb028e73dd325b95165d8884bc26853613a6b5131a12effdd8ddd55565b5f7f312ed9ac9b839e579b0572e42b6b61a1d0e768aa92df633e58ace1e6a3633e79836040516020016103ba92919091825273ffffffffffffffffffffffffffffffffffffffff16602082015260400190565b604051602081830303815290604052805190602001209050818155505050565b5f602082840312156103ea575f5ffd5b813573ffffffffffffffffffffffffffffffffffffffff8116811461040d575f5ffd5b939250505056fea26469706673582212200785485ad77ba3aaa277c004e29063fe9db3f9943f75962800ad028f720ea9e564736f6c634300081c0033000000000000000000000000527a925f11dcb9ca72894e6a64f7a7dc6bc9fb21",
        "nonce": "0x26",
        "chainId": "0xaa36a7"
      },
      "additionalContracts": [],
      "isFixedGasLimit": false
    },
    {
      "hash": "0x00e104b903e3b2d2aeb00727e4e8eb2bb56bb216b3ccb2f2c35c33f0a352264c",
      "transactionType": "CREATE",
      "contractName": "MaseerGate",
      "contractAddress": "0xae642cc210b3ab684189a303d33db9fe8dc392e5",
      "function": null,
      "arguments": null,
      "transaction": {
        "from": "0xdef12db2bd62f88c8d59807e0ce9868279fd7fef",
        "gas": "0x158889",
        "value": "0x0",
        "input": "0x6080604052348015600e575f5ffd5b50601633601a565b6081565b607e7f27ad9db40d40315deb7c9733dae204372b3012815db31bb8e8e56d6c68d6ac248260405160200160609291909182526001600160a01b0316602082015260400190565b60408051601f19818403018152919052805160209091012060019055565b50565b6112618061008e5f395ff3fe608060405234801561000f575f5ffd5b50600436106101b0575f3560e01c806371ebdf4e116100f3578063a943dc6c11610093578063bf353dbb1161006e578063bf353dbb146102f4578063cb16262514610307578063e177246e1461030f578063fbd2524614610322575f5ffd5b8063a943dc6c146102dc578063bbec93fa146102e4578063bce6d672146102ec575f5ffd5b806398b836da116100ce57806398b836da146102b15780639c52a7f1146102b9578063a03738dc146102cc578063a07c7ce4146102d4575f5ffd5b806371ebdf4e146102835780637486bf471461029657806396574580146102a9575f5ffd5b80633fb362b41161015e57806359361d8e1161013957806359361d8e1461024d57806365fae35e146102605780636a42b8f8146102735780636c88d9e11461027b575f5ffd5b80633fb362b41461021a57806347786d37146102225780634bf365df14610235575f5ffd5b806329cbec1a1161018e57806329cbec1a146101f75780632c040527146101ff578063355274ea14610212575f5ffd5b80631447cdf9146101b4578063168ff4f9146101c957806329ae8114146101e4575b5f5ffd5b6101c76101c2366004611182565b610335565b005b6101d161041f565b6040519081526020015b60405180910390f35b6101c76101f2366004611199565b610441565b6101d1610673565b6101c761020d366004611182565b6106a2565b6101d161076e565b6101d1610798565b6101c7610230366004611182565b6107c2565b61023d610844565b60405190151581526020016101db565b6101c761025b366004611182565b610867565b6101c761026e3660046111b9565b610928565b6101d16109aa565b6101d16109d4565b6101c7610291366004611182565b6109de565b6101c76102a4366004611182565b610a9f565b6101d1610b6b565b6101d1610b95565b6101c76102c73660046111b9565b610bbe565b6101c7610c40565b61023d610cdf565b6101d1610cfa565b6101d1610d04565b6101d1610d0e565b6101d16103023660046111b9565b610d38565b6101d1610d94565b6101c761031d366004611182565b610dbe565b6101c7610330366004611182565b610e81565b604080517f27ad9db40d40315deb7c9733dae204372b3012815db31bb8e8e56d6c68d6ac2460208201523391810191909152610389906060015b604051602081830303815290604052805190602001205490565b6001146103c9576040517f4a0bfec10000000000000000000000000000000000000000000000000000000081523360048201526024015b60405180910390fd5b6103d7426301e133806111f3565b811115610413576040517f35802fa3000000000000000000000000000000000000000000000000000000008152600481018290526024016103c0565b61041c81610f4d565b50565b5f5f610429610673565b905042811015610439575f61043b565b805b91505090565b604080517f27ad9db40d40315deb7c9733dae204372b3012815db31bb8e8e56d6c68d6ac246020820152339181019190915261047f9060600161036f565b6001146104ba576040517f4a0bfec10000000000000000000000000000000000000000000000000000000081523360048201526024016103c0565b817f6f70656e6d696e74000000000000000000000000000000000000000000000000036104ee576104ea81610f76565b5050565b817f68616c746d696e740000000000000000000000000000000000000000000000000361051e576104ea81610f9f565b817f6f70656e6275726e0000000000000000000000000000000000000000000000000361054e576104ea81610f4d565b817f68616c746275726e0000000000000000000000000000000000000000000000000361057e576104ea81610fc8565b817f627073696e000000000000000000000000000000000000000000000000000000036105ae576104ea81610ff1565b817f6270736f75740000000000000000000000000000000000000000000000000000036105de576104ea81611019565b817f64656c61790000000000000000000000000000000000000000000000000000000361060e576104ea81611042565b817f63617000000000000000000000000000000000000000000000000000000000000361063e576104ea8161106b565b6040517f35802fa3000000000000000000000000000000000000000000000000000000008152600481018390526024016103c0565b5f61069d7f9c2ad2c21e274c8b57052f9f0ef73dd8f6e1d917d156e1368bb7cc739cf1f4b1611094565b905090565b604080517f27ad9db40d40315deb7c9733dae204372b3012815db31bb8e8e56d6c68d6ac24602082015233918101919091526106e09060600161036f565b60011461071b576040517f4a0bfec10000000000000000000000000000000000000000000000000000000081523360048201526024016103c0565b610729426301e133806111f3565b811115610765576040517f35802fa3000000000000000000000000000000000000000000000000000000008152600481018290526024016103c0565b61041c81610f9f565b5f61069d7ffe815a1457537bf82e07ec3b5db1045d325eb3ef476772d6651718df9eedb949611094565b5f61069d7ffcb92606a933a3a2fc95ea37ffc5f3cf5a7a2f3776ccd27ff295f4bc9846f3e6611094565b604080517f27ad9db40d40315deb7c9733dae204372b3012815db31bb8e8e56d6c68d6ac24602082015233918101919091526108009060600161036f565b60011461083b576040517f4a0bfec10000000000000000000000000000000000000000000000000000000081523360048201526024016103c0565b61041c8161106b565b5f61084d610d0e565b421015801561069d575061085f610d94565b421115905090565b604080517f27ad9db40d40315deb7c9733dae204372b3012815db31bb8e8e56d6c68d6ac24602082015233918101919091526108a59060600161036f565b6001146108e0576040517f4a0bfec10000000000000000000000000000000000000000000000000000000081523360048201526024016103c0565b61271081111561091f576040517f35802fa3000000000000000000000000000000000000000000000000000000008152600481018290526024016103c0565b61041c81610ff1565b604080517f27ad9db40d40315deb7c9733dae204372b3012815db31bb8e8e56d6c68d6ac24602082015233918101919091526109669060600161036f565b6001146109a1576040517f4a0bfec10000000000000000000000000000000000000000000000000000000081523360048201526024016103c0565b61041c8161109d565b5f61069d7f2cc253a4d93223d9477710a34eba641f870f2b7747513d319cd0e45cad5b95b3611094565b5f5f610429610d0e565b604080517f27ad9db40d40315deb7c9733dae204372b3012815db31bb8e8e56d6c68d6ac2460208201523391810191909152610a1c9060600161036f565b600114610a57576040517f4a0bfec10000000000000000000000000000000000000000000000000000000081523360048201526024016103c0565b612710811115610a96576040517f35802fa3000000000000000000000000000000000000000000000000000000008152600481018290526024016103c0565b61041c81611019565b604080517f27ad9db40d40315deb7c9733dae204372b3012815db31bb8e8e56d6c68d6ac2460208201523391810191909152610add9060600161036f565b600114610b18576040517f4a0bfec10000000000000000000000000000000000000000000000000000000081523360048201526024016103c0565b610b26426301e133806111f3565b811115610b62576040517f35802fa3000000000000000000000000000000000000000000000000000000008152600481018290526024016103c0565b61041c81610fc8565b5f61069d7ff6f62fd4da7bc2b32a6e1e65b29fc84ac47127fe667e702bfad2a308be5e31f3611094565b5f61069d7e157179f0e328e9155f0e7f3bacad2e41db42b1e0800a411a594382df7a1e64611094565b604080517f27ad9db40d40315deb7c9733dae204372b3012815db31bb8e8e56d6c68d6ac2460208201523391810191909152610bfc9060600161036f565b600114610c37576040517f4a0bfec10000000000000000000000000000000000000000000000000000000081523360048201526024016103c0565b61041c81611110565b604080517f27ad9db40d40315deb7c9733dae204372b3012815db31bb8e8e56d6c68d6ac2460208201523391810191909152610c7e9060600161036f565b600114610cb9576040517f4a0bfec10000000000000000000000000000000000000000000000000000000081523360048201526024016103c0565b610cc25f610f76565b610ccb5f610f9f565b610cd45f610f4d565b610cdd5f610fc8565b565b5f610ce8610673565b421015801561069d575061085f610798565b5f5f610429610d94565b5f5f610429610798565b5f61069d7fbe1a4dea2a7bf3bca8caa6d30da3b6665e2e170da688038ad0b7269f2e0ebf91611094565b5f610d8e7f27ad9db40d40315deb7c9733dae204372b3012815db31bb8e8e56d6c68d6ac248360405160200161036f92919091825273ffffffffffffffffffffffffffffffffffffffff16602082015260400190565b92915050565b5f61069d7fc6806e07b5185a5f2a4a279b21328cdfc10302bba8d637663c0af6df2ce3b5da611094565b604080517f27ad9db40d40315deb7c9733dae204372b3012815db31bb8e8e56d6c68d6ac2460208201523391810191909152610dfc9060600161036f565b600114610e37576040517f4a0bfec10000000000000000000000000000000000000000000000000000000081523360048201526024016103c0565b6301e13380811115610e78576040517f35802fa3000000000000000000000000000000000000000000000000000000008152600481018290526024016103c0565b61041c81611042565b604080517f27ad9db40d40315deb7c9733dae204372b3012815db31bb8e8e56d6c68d6ac2460208201523391810191909152610ebf9060600161036f565b600114610efa576040517f4a0bfec10000000000000000000000000000000000000000000000000000000081523360048201526024016103c0565b610f08426301e133806111f3565b811115610f44576040517f35802fa3000000000000000000000000000000000000000000000000000000008152600481018290526024016103c0565b61041c81610f76565b61041c7f9c2ad2c21e274c8b57052f9f0ef73dd8f6e1d917d156e1368bb7cc739cf1f4b1829055565b61041c7fbe1a4dea2a7bf3bca8caa6d30da3b6665e2e170da688038ad0b7269f2e0ebf91829055565b61041c7fc6806e07b5185a5f2a4a279b21328cdfc10302bba8d637663c0af6df2ce3b5da829055565b61041c7ffcb92606a933a3a2fc95ea37ffc5f3cf5a7a2f3776ccd27ff295f4bc9846f3e6829055565b61041c7e157179f0e328e9155f0e7f3bacad2e41db42b1e0800a411a594382df7a1e64829055565b61041c7ff6f62fd4da7bc2b32a6e1e65b29fc84ac47127fe667e702bfad2a308be5e31f3829055565b61041c7f2cc253a4d93223d9477710a34eba641f870f2b7747513d319cd0e45cad5b95b3829055565b61041c7ffe815a1457537bf82e07ec3b5db1045d325eb3ef476772d6651718df9eedb949829055565b5f610d8e825490565b61041c7f27ad9db40d40315deb7c9733dae204372b3012815db31bb8e8e56d6c68d6ac24826040516020016110f292919091825273ffffffffffffffffffffffffffffffffffffffff16602082015260400190565b6040516020818303038152906040528051906020012060015f1b9055565b61041c7f27ad9db40d40315deb7c9733dae204372b3012815db31bb8e8e56d6c68d6ac248260405160200161116592919091825273ffffffffffffffffffffffffffffffffffffffff16602082015260400190565b604051602081830303815290604052805190602001205f5f1b9055565b5f60208284031215611192575f5ffd5b5035919050565b5f5f604083850312156111aa575f5ffd5b50508035926020909101359150565b5f602082840312156111c9575f5ffd5b813573ffffffffffffffffffffffffffffffffffffffff811681146111ec575f5ffd5b9392505050565b80820180821115610d8e577f4e487b71000000000000000000000000000000000000000000000000000000005f52601160045260245ffdfea2646970667358221220f23336837f42f138d1da411dde0ddb9db82a200a8ee2baee1394aa9451b328dc64736f6c634300081c0033",
        "nonce": "0x27",
        "chainId": "0xaa36a7"
      },
      "additionalContracts": [],
      "isFixedGasLimit": false
    },
    {
      "hash": "0x11492970688f14e28044d8bcbd93207fee0c50403037445ec68db4c87a891faa",
      "transactionType": "CREATE",
      "contractName": "MaseerProxy",
      "contractAddress": "0xd500e4980296f62a5512b4e49d84bb2ec4e42725",
      "function": null,
      "arguments": [
        "0xAE642Cc210B3ab684189A303D33dB9fE8dC392E5"
      ],
      "transaction": {
        "from": "0xdef12db2bd62f88c8d59807e0ce9868279fd7fef",
        "gas": "0x7326c",
        "value": "0x0",
        "input": "0x608060405234801561000f575f5ffd5b506040516105ec3803806105ec83398101604081905261002e91610168565b610039336001610051565b610042336100b7565b61004b8161011d565b50610195565b5f7f312ed9ac9b839e579b0572e42b6b61a1d0e768aa92df633e58ace1e6a3633e79836040516020016100979291909182526001600160a01b0316602082015260400190565b604051602081830303815290604052805190602001209050818155505050565b5f7f27ad9db40d40315deb7c9733dae204372b3012815db31bb8e8e56d6c68d6ac24826040516020016100fd9291909182526001600160a01b0316602082015260400190565b604051602081830303815290604052805190602001209050600181555050565b6001600160a01b038116610144576040516318ce8b9560e31b815260040160405180910390fd5b7f0e4c00c0fe9fb028e73dd325b95165d8884bc26853613a6b5131a12effdd8ddd55565b5f60208284031215610178575f5ffd5b81516001600160a01b038116811461018e575f5ffd5b9392505050565b61044a806101a25f395ff3fe608060405234801561000f575f5ffd5b5060043610610065575f3560e01c8063266a164a1161004e578063266a164a146100d957806360cd9853146100ec5780638abf60771461011257610065565b8063048046c1146100b35780630715940e146100c6575b5f61008e7f0e4c00c0fe9fb028e73dd325b95165d8884bc26853613a6b5131a12effdd8ddd5490565b9050604051365f82375f5f3683855af43d5f833e8080156100ad573d83f35b3d83fd5b005b6100b16100c13660046103da565b61013f565b6100b16100d43660046103da565b61018d565b6100b16100e73660046103da565b6101d9565b6100ff6100fa3660046103da565b610226565b6040519081526020015b60405180910390f35b61011a610236565b60405173ffffffffffffffffffffffffffffffffffffffff9091168152602001610109565b61014833610264565b600114610181576040517fea8e4eb500000000000000000000000000000000000000000000000000000000815260040160405180910390fd5b61018a816102f6565b50565b61019633610264565b6001146101cf576040517fea8e4eb500000000000000000000000000000000000000000000000000000000815260040160405180910390fd5b61018a815f610367565b6101e233610264565b60011461021b576040517fea8e4eb500000000000000000000000000000000000000000000000000000000815260040160405180910390fd5b61018a816001610367565b5f61023082610264565b92915050565b5f61025f7f0e4c00c0fe9fb028e73dd325b95165d8884bc26853613a6b5131a12effdd8ddd5490565b905090565b5f5f7f312ed9ac9b839e579b0572e42b6b61a1d0e768aa92df633e58ace1e6a3633e79836040516020016102b892919091825273ffffffffffffffffffffffffffffffffffffffff16602082015260400190565b604080517fffffffffffffffffffffffffffffffffffffffffffffffffffffffffffffffe08184030181529190528051602090910120549392505050565b73ffffffffffffffffffffffffffffffffffffffff8116610343576040517fc6745ca800000000000000000000000000000000000000000000000000000000815260040160405180910390fd5b7f0e4c00c0fe9fb028e73dd325b95165d8884bc26853613a6b5131a12effdd8ddd55565b5f7f312ed9ac9b839e579b0572e42b6b61a1d0e768aa92df633e58ace1e6a3633e79836040516020016103ba92919091825273ffffffffffffffffffffffffffffffffffffffff16602082015260400190565b604051602081830303815290604052805190602001209050818155505050565b5f602082840312156103ea575f5ffd5b813573ffffffffffffffffffffffffffffffffffffffff8116811461040d575f5ffd5b939250505056fea26469706673582212200785485ad77ba3aaa277c004e29063fe9db3f9943f75962800ad028f720ea9e564736f6c634300081c0033000000000000000000000000ae642cc210b3ab684189a303d33db9fe8dc392e5",
        "nonce": "0x28",
        "chainId": "0xaa36a7"
      },
      "additionalContracts": [],
      "isFixedGasLimit": false
    },
    {
      "hash": "0x26db17b8db9b420a0897065d4b904779ce9884cf83f0048f5b227d958b0bed70",
      "transactionType": "CREATE",
      "contractName": "MaseerGuard",
      "contractAddress": "0x0d8a0a205a8ebd28fc043acf4fa5912da6bdee37",
      "function": null,
      "arguments": [
        "0x72038C6BFB7AE7d91571029f43BE2b41f74D941d"
      ],
      "transaction": {
        "from": "0xdef12db2bd62f88c8d59807e0ce9868279fd7fef",
        "gas": "0x659d0",
        "value": "0x0",
        "input": "0x60a0604052348015600e575f5ffd5b50604051610554380380610554833981016040819052602b91603b565b6001600160a01b03166080526066565b5f60208284031215604a575f5ffd5b81516001600160a01b0381168114605f575f5ffd5b9392505050565b6080516104d06100845f395f81816082015261020c01526104d05ff3fe608060405234801561000f575f5ffd5b5060043610610064575f3560e01c806382c4b3b21161004d57806382c4b3b2146100ce5780639c52a7f1146100f1578063bf353dbb14610104575f5ffd5b806365fae35e1461006857806367e828bf1461007d575b5f5ffd5b61007b610076366004610441565b610125565b005b6100a47f000000000000000000000000000000000000000000000000000000000000000081565b60405173ffffffffffffffffffffffffffffffffffffffff90911681526020015b60405180910390f35b6100e16100dc366004610441565b6101c5565b60405190151581526020016100c5565b61007b6100ff366004610441565b61027e565b610117610112366004610441565b610300565b6040519081526020016100c5565b604080517f27ad9db40d40315deb7c9733dae204372b3012815db31bb8e8e56d6c68d6ac2460208201523391810191909152610179906060015b604051602081830303815290604052805190602001205490565b6001146101b9576040517f4a0bfec10000000000000000000000000000000000000000000000000000000081523360048201526024015b60405180910390fd5b6101c28161035c565b50565b6040517f59bf1abe00000000000000000000000000000000000000000000000000000000815273ffffffffffffffffffffffffffffffffffffffff82811660048301525f917f0000000000000000000000000000000000000000000000000000000000000000909116906359bf1abe90602401602060405180830381865afa158015610253573d5f5f3e3d5ffd5b505050506040513d601f19601f82011682018060405250810190610277919061047b565b1592915050565b604080517f27ad9db40d40315deb7c9733dae204372b3012815db31bb8e8e56d6c68d6ac24602082015233918101919091526102bc9060600161015f565b6001146102f7576040517f4a0bfec10000000000000000000000000000000000000000000000000000000081523360048201526024016101b0565b6101c2816103cf565b5f6103567f27ad9db40d40315deb7c9733dae204372b3012815db31bb8e8e56d6c68d6ac248360405160200161015f92919091825273ffffffffffffffffffffffffffffffffffffffff16602082015260400190565b92915050565b6101c27f27ad9db40d40315deb7c9733dae204372b3012815db31bb8e8e56d6c68d6ac24826040516020016103b192919091825273ffffffffffffffffffffffffffffffffffffffff16602082015260400190565b6040516020818303038152906040528051906020012060015f1b9055565b6101c27f27ad9db40d40315deb7c9733dae204372b3012815db31bb8e8e56d6c68d6ac248260405160200161042492919091825273ffffffffffffffffffffffffffffffffffffffff16602082015260400190565b604051602081830303815290604052805190602001205f5f1b9055565b5f60208284031215610451575f5ffd5b813573ffffffffffffffffffffffffffffffffffffffff81168114610474575f5ffd5b9392505050565b5f6020828403121561048b575f5ffd5b81518015158114610474575f5ffdfea26469706673582212201a66cb64cd859deb029fd3bbaeb107293ef1a9edf688839c7700ba03a9377c8d64736f6c634300081c003300000000000000000000000072038c6bfb7ae7d91571029f43be2b41f74d941d",
        "nonce": "0x29",
        "chainId": "0xaa36a7"
      },
      "additionalContracts": [],
      "isFixedGasLimit": false
    },
    {
      "hash": "0xe193dd6e4fbe2ae4096fd6c619bdb069fcf980787d7072a94e2b4b64b1b0ef05",
      "transactionType": "CREATE",
      "contractName": "MaseerProxy",
      "contractAddress": "0x0188856f12f8f666adc055910e8129ac35cb2893",
      "function": null,
      "arguments": [
        "0x0d8a0a205a8EbD28fC043acf4Fa5912Da6bDEE37"
      ],
      "transaction": {
        "from": "0xdef12db2bd62f88c8d59807e0ce9868279fd7fef",
        "gas": "0x7326c",
        "value": "0x0",
        "input": "0x608060405234801561000f575f5ffd5b506040516105ec3803806105ec83398101604081905261002e91610168565b610039336001610051565b610042336100b7565b61004b8161011d565b50610195565b5f7f312ed9ac9b839e579b0572e42b6b61a1d0e768aa92df633e58ace1e6a3633e79836040516020016100979291909182526001600160a01b0316602082015260400190565b604051602081830303815290604052805190602001209050818155505050565b5f7f27ad9db40d40315deb7c9733dae204372b3012815db31bb8e8e56d6c68d6ac24826040516020016100fd9291909182526001600160a01b0316602082015260400190565b604051602081830303815290604052805190602001209050600181555050565b6001600160a01b038116610144576040516318ce8b9560e31b815260040160405180910390fd5b7f0e4c00c0fe9fb028e73dd325b95165d8884bc26853613a6b5131a12effdd8ddd55565b5f60208284031215610178575f5ffd5b81516001600160a01b038116811461018e575f5ffd5b9392505050565b61044a806101a25f395ff3fe608060405234801561000f575f5ffd5b5060043610610065575f3560e01c8063266a164a1161004e578063266a164a146100d957806360cd9853146100ec5780638abf60771461011257610065565b8063048046c1146100b35780630715940e146100c6575b5f61008e7f0e4c00c0fe9fb028e73dd325b95165d8884bc26853613a6b5131a12effdd8ddd5490565b9050604051365f82375f5f3683855af43d5f833e8080156100ad573d83f35b3d83fd5b005b6100b16100c13660046103da565b61013f565b6100b16100d43660046103da565b61018d565b6100b16100e73660046103da565b6101d9565b6100ff6100fa3660046103da565b610226565b6040519081526020015b60405180910390f35b61011a610236565b60405173ffffffffffffffffffffffffffffffffffffffff9091168152602001610109565b61014833610264565b600114610181576040517fea8e4eb500000000000000000000000000000000000000000000000000000000815260040160405180910390fd5b61018a816102f6565b50565b61019633610264565b6001146101cf576040517fea8e4eb500000000000000000000000000000000000000000000000000000000815260040160405180910390fd5b61018a815f610367565b6101e233610264565b60011461021b576040517fea8e4eb500000000000000000000000000000000000000000000000000000000815260040160405180910390fd5b61018a816001610367565b5f61023082610264565b92915050565b5f61025f7f0e4c00c0fe9fb028e73dd325b95165d8884bc26853613a6b5131a12effdd8ddd5490565b905090565b5f5f7f312ed9ac9b839e579b0572e42b6b61a1d0e768aa92df633e58ace1e6a3633e79836040516020016102b892919091825273ffffffffffffffffffffffffffffffffffffffff16602082015260400190565b604080517fffffffffffffffffffffffffffffffffffffffffffffffffffffffffffffffe08184030181529190528051602090910120549392505050565b73ffffffffffffffffffffffffffffffffffffffff8116610343576040517fc6745ca800000000000000000000000000000000000000000000000000000000815260040160405180910390fd5b7f0e4c00c0fe9fb028e73dd325b95165d8884bc26853613a6b5131a12effdd8ddd55565b5f7f312ed9ac9b839e579b0572e42b6b61a1d0e768aa92df633e58ace1e6a3633e79836040516020016103ba92919091825273ffffffffffffffffffffffffffffffffffffffff16602082015260400190565b604051602081830303815290604052805190602001209050818155505050565b5f602082840312156103ea575f5ffd5b813573ffffffffffffffffffffffffffffffffffffffff8116811461040d575f5ffd5b939250505056fea26469706673582212200785485ad77ba3aaa277c004e29063fe9db3f9943f75962800ad028f720ea9e564736f6c634300081c00330000000000000000000000000d8a0a205a8ebd28fc043acf4fa5912da6bdee37",
        "nonce": "0x2a",
        "chainId": "0xaa36a7"
      },
      "additionalContracts": [],
      "isFixedGasLimit": false
    },
    {
      "hash": "0x84f90918c12325a8764a4f5ed89e294a94933c8c204b27d784c9173ec339b005",
      "transactionType": "CREATE",
      "contractName": "MaseerConduit",
      "contractAddress": "0xa298211dc575eacb4fe30230d4c472d665aab218",
      "function": null,
      "arguments": null,
      "transaction": {
        "from": "0xdef12db2bd62f88c8d59807e0ce9868279fd7fef",
        "gas": "0xeae73",
        "value": "0x0",
        "input": "0x6080604052348015600e575f5ffd5b50601633601a565b6081565b607e7f27ad9db40d40315deb7c9733dae204372b3012815db31bb8e8e56d6c68d6ac248260405160200160609291909182526001600160a01b0316602082015260400190565b60408051601f19818403018152919052805160209091012060019055565b50565b610c0e8061008e5f395ff3fe608060405234801561000f575f5ffd5b50600436106100c4575f3560e01c8063a3b22fc41161007d578063bf353dbb11610058578063bf353dbb1461018c578063dc4d20fa1461019f578063f29c29c4146101b2575f5ffd5b8063a3b22fc414610147578063bb35783b1461015a578063bc206b0a1461016d575f5ffd5b806365c4ce7a116100ad57806365c4ce7a1461010c57806365fae35e146101215780639c52a7f114610134575f5ffd5b8063322265a8146100c85780634fce7a2a146100ed575b5f5ffd5b6100db6100d6366004610b02565b6101c5565b60405190815260200160405180910390f35b6100db6100fb366004610b33565b60026020525f908152604090205481565b61011f61011a366004610b33565b61032c565b005b61011f61012f366004610b33565b6103e1565b61011f610142366004610b33565b610466565b61011f610155366004610b33565b6104e8565b6100db610168366004610b53565b61058a565b6100db61017b366004610b33565b60016020525f908152604090205481565b6100db61019a366004610b33565b610660565b61011f6101ad366004610b33565b6106bc565b61011f6101c0366004610b33565b61075b565b335f90815260016020819052604082205414610214576040517f76c6c93a0000000000000000000000000000000000000000000000000000000081523360048201526024015b60405180910390fd5b73ffffffffffffffffffffffffffffffffffffffff82165f90815260026020526040902054829060011461028c576040517f8e4c8aa600000000000000000000000000000000000000000000000000000000815273ffffffffffffffffffffffffffffffffffffffff8216600482015260240161020b565b6040517f70a0823100000000000000000000000000000000000000000000000000000000815230600482015273ffffffffffffffffffffffffffffffffffffffff8516906370a0823190602401602060405180830381865afa1580156102f4573d5f5f3e3d5ffd5b505050506040513d601f19601f820116820180604052508101906103189190610b8c565b91506103258484846107fd565b5092915050565b604080517f27ad9db40d40315deb7c9733dae204372b3012815db31bb8e8e56d6c68d6ac2460208201523391810191909152610380906060015b604051602081830303815290604052805190602001205490565b6001146103bb576040517f4a0bfec100000000000000000000000000000000000000000000000000000000815233600482015260240161020b565b73ffffffffffffffffffffffffffffffffffffffff165f90815260026020526040812055565b604080517f27ad9db40d40315deb7c9733dae204372b3012815db31bb8e8e56d6c68d6ac246020820152339181019190915261041f90606001610366565b60011461045a576040517f4a0bfec100000000000000000000000000000000000000000000000000000000815233600482015260240161020b565b610463816108b5565b50565b604080517f27ad9db40d40315deb7c9733dae204372b3012815db31bb8e8e56d6c68d6ac24602082015233918101919091526104a490606001610366565b6001146104df576040517f4a0bfec100000000000000000000000000000000000000000000000000000000815233600482015260240161020b565b61046381610928565b604080517f27ad9db40d40315deb7c9733dae204372b3012815db31bb8e8e56d6c68d6ac246020820152339181019190915261052690606001610366565b600114610561576040517f4a0bfec100000000000000000000000000000000000000000000000000000000815233600482015260240161020b565b73ffffffffffffffffffffffffffffffffffffffff165f90815260016020819052604090912055565b335f908152600160208190526040822054146105d4576040517f76c6c93a00000000000000000000000000000000000000000000000000000000815233600482015260240161020b565b73ffffffffffffffffffffffffffffffffffffffff83165f90815260026020526040902054839060011461064c576040517f8e4c8aa600000000000000000000000000000000000000000000000000000000815273ffffffffffffffffffffffffffffffffffffffff8216600482015260240161020b565b6106578585856107fd565b50909392505050565b5f6106b67f27ad9db40d40315deb7c9733dae204372b3012815db31bb8e8e56d6c68d6ac248360405160200161036692919091825273ffffffffffffffffffffffffffffffffffffffff16602082015260400190565b92915050565b604080517f27ad9db40d40315deb7c9733dae204372b3012815db31bb8e8e56d6c68d6ac24602082015233918101919091526106fa90606001610366565b600114610735576040517f4a0bfec100000000000000000000000000000000000000000000000000000000815233600482015260240161020b565b73ffffffffffffffffffffffffffffffffffffffff165f90815260016020526040812055565b604080517f27ad9db40d40315deb7c9733dae204372b3012815db31bb8e8e56d6c68d6ac246020820152339181019190915261079990606001610366565b6001146107d4576040517f4a0bfec100000000000000000000000000000000000000000000000000000000815233600482015260240161020b565b73ffffffffffffffffffffffffffffffffffffffff165f90815260026020526040902060019055565b73ffffffffffffffffffffffffffffffffffffffff831661084a576040517fd92e233d00000000000000000000000000000000000000000000000000000000815260040160405180910390fd5b61085583838361099a565b808273ffffffffffffffffffffffffffffffffffffffff168473ffffffffffffffffffffffffffffffffffffffff167fdeb3a6837278f6e9914a507e4d73f08e841d8fca434fb97d4307b3b0d3d6b10560405160405180910390a4505050565b6104637f27ad9db40d40315deb7c9733dae204372b3012815db31bb8e8e56d6c68d6ac248260405160200161090a92919091825273ffffffffffffffffffffffffffffffffffffffff16602082015260400190565b6040516020818303038152906040528051906020012060015f1b9055565b6104637f27ad9db40d40315deb7c9733dae204372b3012815db31bb8e8e56d6c68d6ac248260405160200161097d92919091825273ffffffffffffffffffffffffffffffffffffffff16602082015260400190565b604051602081830303815290604052805190602001205f5f1b9055565b6040805173ffffffffffffffffffffffffffffffffffffffff8481166024830152604480830185905283518084039091018152606490920183526020820180517bffffffffffffffffffffffffffffffffffffffffffffffffffffffff167fa9059cbb0000000000000000000000000000000000000000000000000000000017905291515f92839290871691610a309190610ba3565b5f604051808303815f865af19150503d805f8114610a69576040519150601f19603f3d011682016040523d82523d5f602084013e610a6e565b606091505b5091509150811580610a9c57505f8151118015610a9c575080806020019051810190610a9a9190610bb9565b155b15610ad3576040517f90b8ec1800000000000000000000000000000000000000000000000000000000815260040160405180910390fd5b5050505050565b803573ffffffffffffffffffffffffffffffffffffffff81168114610afd575f5ffd5b919050565b5f5f60408385031215610b13575f5ffd5b610b1c83610ada565b9150610b2a60208401610ada565b90509250929050565b5f60208284031215610b43575f5ffd5b610b4c82610ada565b9392505050565b5f5f5f60608486031215610b65575f5ffd5b610b6e84610ada565b9250610b7c60208501610ada565b9150604084013590509250925092565b5f60208284031215610b9c575f5ffd5b5051919050565b5f82518060208501845e5f920191825250919050565b5f60208284031215610bc9575f5ffd5b81518015158114610b4c575f5ffdfea2646970667358221220c6ea8ad0d045ca2298669673597b39ab616c3834fbb1ad8e11c215e95b9b2c2064736f6c634300081c0033",
        "nonce": "0x2b",
        "chainId": "0xaa36a7"
      },
      "additionalContracts": [],
      "isFixedGasLimit": false
    },
    {
      "hash": "0x0f8ee1407af1c19fdb7b4dc241a971b0c78457ee4cf43a51a7aebfa3e753f8af",
      "transactionType": "CREATE",
      "contractName": "MaseerProxy",
      "contractAddress": "0x2b115e940d0071217964d665b6311c95517c14c4",
      "function": null,
      "arguments": [
        "0xA298211DC575eaCB4Fe30230d4c472d665aaB218"
      ],
      "transaction": {
        "from": "0xdef12db2bd62f88c8d59807e0ce9868279fd7fef",
        "gas": "0x7326c",
        "value": "0x0",
        "input": "0x608060405234801561000f575f5ffd5b506040516105ec3803806105ec83398101604081905261002e91610168565b610039336001610051565b610042336100b7565b61004b8161011d565b50610195565b5f7f312ed9ac9b839e579b0572e42b6b61a1d0e768aa92df633e58ace1e6a3633e79836040516020016100979291909182526001600160a01b0316602082015260400190565b604051602081830303815290604052805190602001209050818155505050565b5f7f27ad9db40d40315deb7c9733dae204372b3012815db31bb8e8e56d6c68d6ac24826040516020016100fd9291909182526001600160a01b0316602082015260400190565b604051602081830303815290604052805190602001209050600181555050565b6001600160a01b038116610144576040516318ce8b9560e31b815260040160405180910390fd5b7f0e4c00c0fe9fb028e73dd325b95165d8884bc26853613a6b5131a12effdd8ddd55565b5f60208284031215610178575f5ffd5b81516001600160a01b038116811461018e575f5ffd5b9392505050565b61044a806101a25f395ff3fe608060405234801561000f575f5ffd5b5060043610610065575f3560e01c8063266a164a1161004e578063266a164a146100d957806360cd9853146100ec5780638abf60771461011257610065565b8063048046c1146100b35780630715940e146100c6575b5f61008e7f0e4c00c0fe9fb028e73dd325b95165d8884bc26853613a6b5131a12effdd8ddd5490565b9050604051365f82375f5f3683855af43d5f833e8080156100ad573d83f35b3d83fd5b005b6100b16100c13660046103da565b61013f565b6100b16100d43660046103da565b61018d565b6100b16100e73660046103da565b6101d9565b6100ff6100fa3660046103da565b610226565b6040519081526020015b60405180910390f35b61011a610236565b60405173ffffffffffffffffffffffffffffffffffffffff9091168152602001610109565b61014833610264565b600114610181576040517fea8e4eb500000000000000000000000000000000000000000000000000000000815260040160405180910390fd5b61018a816102f6565b50565b61019633610264565b6001146101cf576040517fea8e4eb500000000000000000000000000000000000000000000000000000000815260040160405180910390fd5b61018a815f610367565b6101e233610264565b60011461021b576040517fea8e4eb500000000000000000000000000000000000000000000000000000000815260040160405180910390fd5b61018a816001610367565b5f61023082610264565b92915050565b5f61025f7f0e4c00c0fe9fb028e73dd325b95165d8884bc26853613a6b5131a12effdd8ddd5490565b905090565b5f5f7f312ed9ac9b839e579b0572e42b6b61a1d0e768aa92df633e58ace1e6a3633e79836040516020016102b892919091825273ffffffffffffffffffffffffffffffffffffffff16602082015260400190565b604080517fffffffffffffffffffffffffffffffffffffffffffffffffffffffffffffffe08184030181529190528051602090910120549392505050565b73ffffffffffffffffffffffffffffffffffffffff8116610343576040517fc6745ca800000000000000000000000000000000000000000000000000000000815260040160405180910390fd5b7f0e4c00c0fe9fb028e73dd325b95165d8884bc26853613a6b5131a12effdd8ddd55565b5f7f312ed9ac9b839e579b0572e42b6b61a1d0e768aa92df633e58ace1e6a3633e79836040516020016103ba92919091825273ffffffffffffffffffffffffffffffffffffffff16602082015260400190565b604051602081830303815290604052805190602001209050818155505050565b5f602082840312156103ea575f5ffd5b813573ffffffffffffffffffffffffffffffffffffffff8116811461040d575f5ffd5b939250505056fea26469706673582212200785485ad77ba3aaa277c004e29063fe9db3f9943f75962800ad028f720ea9e564736f6c634300081c0033000000000000000000000000a298211dc575eacb4fe30230d4c472d665aab218",
        "nonce": "0x2c",
        "chainId": "0xaa36a7"
      },
      "additionalContracts": [],
      "isFixedGasLimit": false
    },
    {
      "hash": "0xb593e2bf8eb486379b62e51a9bdda5be0ddc08dbf10b260df384074c3273b44e",
      "transactionType": "CREATE",
      "contractName": "MaseerOne",
      "contractAddress": "0x57c30327b56cce78ee270f72070f188253c05bb2",
      "function": null,
      "arguments": [
        "0x72038C6BFB7AE7d91571029f43BE2b41f74D941d",
        "0xF642166a50A99098a1A31EaDa5C5698c71baF8E5",
        "0xd500E4980296F62a5512B4E49D84BB2Ec4E42725",
        "0x0188856f12F8F666Adc055910E8129AC35Cb2893",
        "0x2b115E940d0071217964D665B6311c95517c14c4",
        "Cana",
        "CANA"
      ],
      "transaction": {
        "from": "0xdef12db2bd62f88c8d59807e0ce9868279fd7fef",
        "gas": "0x29c5a9",
        "value": "0x0",
        "input": "0x610160604052348015610010575f5ffd5b5060405161294638038061294683398101604081905261002f916101f5565b8181600361003d838261032f565b50600461004a828261032f565b504660a052610057610089565b6080525050506001600160a01b0395861660c0525092841660e05290831661010052821661012052166101405261045a565b5f7f8b73c3c69bb8fe3d512ecc4cf759cc79239f7b179b0ffacaa9a75d522b39400f60036040516100ba91906103e9565b60408051918290038220828201825260018352603160f81b60209384015260a08051835194850195909552918301527fc89efdaa54c0f20c7adf612882df0950f5a951637e0307cdcb4c672f298b8bc660608301526080820192909252309181019190915260c00160405160208183030381529060405280519060200120905090565b80516001600160a01b0381168114610153575f5ffd5b919050565b634e487b7160e01b5f52604160045260245ffd5b5f82601f83011261017b575f5ffd5b81516001600160401b0381111561019457610194610158565b604051601f8201601f19908116603f011681016001600160401b03811182821017156101c2576101c2610158565b6040528181528382016020018510156101d9575f5ffd5b8160208501602083015e5f918101602001919091529392505050565b5f5f5f5f5f5f5f60e0888a03121561020b575f5ffd5b6102148861013d565b96506102226020890161013d565b95506102306040890161013d565b945061023e6060890161013d565b935061024c6080890161013d565b60a08901519093506001600160401b03811115610267575f5ffd5b6102738a828b0161016c565b60c08a015190935090506001600160401b03811115610290575f5ffd5b61029c8a828b0161016c565b91505092959891949750929550565b600181811c908216806102bf57607f821691505b6020821081036102dd57634e487b7160e01b5f52602260045260245ffd5b50919050565b601f82111561032a57805f5260205f20601f840160051c810160208510156103085750805b601f840160051c820191505b81811015610327575f8155600101610314565b50505b505050565b81516001600160401b0381111561034857610348610158565b61035c8161035684546102ab565b846102e3565b6020601f82116001811461038e575f83156103775750848201515b5f19600385901b1c1916600184901b178455610327565b5f84815260208120601f198516915b828110156103bd578785015182556020948501946001909201910161039d565b50848210156103da57868401515f19600387901b60f8161c191681555b50505050600190811b01905550565b5f5f83546103f6816102ab565b60018216801561040d57600181146104225761044f565b60ff198316865281151582028601935061044f565b865f5260205f205f5b838110156104475781548882015260019091019060200161042b565b505081860193505b509195945050505050565b60805160a05160c05160e0516101005161012051610140516124326105145f395f818161027f0152818161074f015261079001525f818161038c015261135a01525f818161052d01528181610b0901528181610dd60152818161162e01528181611810015281816118e40152611a4701525f81816104b1015261187a01525f81816103da0152818161072e01528181610d6d01528181611299015261146d01525f611d2101525f81816103390152611ed001526124325ff3fe608060405234801561000f575f5ffd5b5060043610610235575f3560e01c806370a082311161013d578063bde6a5a9116100b8578063dd62ed3e11610088578063e9fad8ee1161006e578063e9fad8ee14610518578063ede7509414610520578063ee42b10b14610528575f5ffd5b8063dd62ed3e146104e6578063e73faa2d14610510575f5ffd5b8063bde6a5a91461048f578063d505accf14610497578063d741e2f9146104ac578063daea85c5146104d3575f5ffd5b806395d89b411161010d578063a0712d68116100f3578063a0712d6814610461578063a07c7ce414610474578063a9059cbb1461047c575f5ffd5b806395d89b411461043a5780639c95759d14610442575f5ffd5b806370a08231146103b65780637bd2bea7146103d55780637ec7123f146103fc5780637ecebe001461041b575f5ffd5b8063313ce567116101cd57806342966c681161019d5780634d773aa6116101835780634d773aa61461037f5780635f7efbea146103875780636817c76c146103ae575f5ffd5b806342966c68146103645780634bf365df14610377575f5ffd5b8063313ce56714610312578063355274ea1461032c5780633644e515146103345780633f90916a1461035b575f5ffd5b806318160ddd1161020857806318160ddd146102dc5780631c8ec299146102e457806323b872dd146102ec578063248c11f5146102ff575f5ffd5b806306fdde0314610239578063095ea7b3146102575780630a77bd491461027a57806311da60b4146102c6575b5f5ffd5b61024161054f565b60405161024e9190612112565b60405180910390f35b61026a61026536600461218d565b6105db565b604051901515815260200161024e565b6102a17f000000000000000000000000000000000000000000000000000000000000000081565b60405173ffffffffffffffffffffffffffffffffffffffff909116815260200161024e565b6102ce6106a4565b60405190815260200161024e565b6102ce5f5481565b6102ce6107db565b61026a6102fa3660046121b5565b6107e9565b61026a61030d3660046121ef565b610957565b61031a601281565b60405160ff909116815260200161024e565b6102ce610967565b6102ce7f000000000000000000000000000000000000000000000000000000000000000081565b6102ce60065481565b6102ce610372366004612208565b610970565b61026a610b06565b6102ce610b94565b6102a17f000000000000000000000000000000000000000000000000000000000000000081565b6102ce610bc4565b6102ce6103c43660046121ef565b60016020525f908152604090205481565b6102a17f000000000000000000000000000000000000000000000000000000000000000081565b6102ce61040a3660046121ef565b60086020525f908152604090205481565b6102ce6104293660046121ef565b60056020525f908152604090205481565b610241610bdd565b6102ce6104503660046121ef565b60076020525f908152604090205481565b6102ce61046f366004612208565b610bea565b61026a610dd3565b61026a61048a36600461218d565b610e3d565b6102ce610f47565b6104aa6104a536600461221f565b610f5b565b005b6102a17f000000000000000000000000000000000000000000000000000000000000000081565b61026a6104e13660046121ef565b61107e565b6102ce6104f436600461228c565b600260209081525f928352604080842090915290825290205481565b6102ce611140565b6102ce611149565b6102ce6112f1565b6102a17f000000000000000000000000000000000000000000000000000000000000000081565b6003805461055c906122bd565b80601f0160208091040260200160405190810160405280929190818152602001828054610588906122bd565b80156105d35780601f106105aa576101008083540402835291602001916105d3565b820191905f5260205f20905b8154815290600101906020018083116105b657829003601f168201915b505050505081565b5f336105e681611313565b610639576040517fea93ab6d00000000000000000000000000000000000000000000000000000000815273ffffffffffffffffffffffffffffffffffffffff821660048201526024015b60405180910390fd5b8361064381611313565b610691576040517fea93ab6d00000000000000000000000000000000000000000000000000000000815273ffffffffffffffffffffffffffffffffffffffff82166004820152602401610630565b61069b85856113c5565b95945050505050565b5f336106af81611313565b6106fd576040517fea93ab6d00000000000000000000000000000000000000000000000000000000815273ffffffffffffffffffffffffffffffffffffffff82166004820152602401610630565b5f61070661143d565b905060065481101561071a575f9250505090565b600654610727908261233b565b92506107747f00000000000000000000000000000000000000000000000000000000000000007f0000000000000000000000000000000000000000000000000000000000000000856114eb565b604051839073ffffffffffffffffffffffffffffffffffffffff7f000000000000000000000000000000000000000000000000000000000000000016907f7823e479a1a4ebe2418874847436f8a1680c5ee5b17f38bb59dbff28e1b45552905f90a3505090565b5f6107e461162b565b905090565b5f336107f481611313565b610842576040517fea93ab6d00000000000000000000000000000000000000000000000000000000815273ffffffffffffffffffffffffffffffffffffffff82166004820152602401610630565b8461084c81611313565b61089a576040517fea93ab6d00000000000000000000000000000000000000000000000000000000815273ffffffffffffffffffffffffffffffffffffffff82166004820152602401610630565b846108a481611313565b6108f2576040517fea93ab6d00000000000000000000000000000000000000000000000000000000815273ffffffffffffffffffffffffffffffffffffffff82166004820152602401610630565b3073ffffffffffffffffffffffffffffffffffffffff871603610941576040517f3a49fd5c00000000000000000000000000000000000000000000000000000000815260040160405180910390fd5b61094c878787611695565b979650505050505050565b5f61096182611313565b92915050565b5f6107e461180d565b5f610979610dd3565b6109af576040517f0b5f6bf000000000000000000000000000000000000000000000000000000000815260040160405180910390fd5b336109b981611313565b610a07576040517fea93ab6d00000000000000000000000000000000000000000000000000000000815273ffffffffffffffffffffffffffffffffffffffff82166004820152602401610630565b5f610a10611877565b9050805f03610a4a576040517ebfc92100000000000000000000000000000000000000000000000000000000815260040160405180910390fd5b610a5b81610a566118e1565b61194b565b9050610a678482611980565b92508260065f828254610a7a919061234e565b9091555050335f9081526007602052604081208054859290610a9d90849061234e565b90915550610aab905061162b565b610ab5904261234e565b335f81815260086020526040902091909155610ad190856119b3565b6040518390829033907f19c0c250189e1e330c8bab01f81dc84492fc93833b9f33815cab02e8d7804356905f90a45050919050565b5f7f000000000000000000000000000000000000000000000000000000000000000073ffffffffffffffffffffffffffffffffffffffff16634bf365df6040518163ffffffff1660e01b8152600401602060405180830381865afa158015610b70573d5f5f3e3d5ffd5b505050506040513d601f19601f820116820180604052508101906107e49190612361565b5f5f610b9e61143d565b90506006548111610bbc5780600654610bb7919061233b565b610bbe565b5f5b91505090565b5f6107e4610bd0611877565b610bd8611a44565b611aae565b6004805461055c906122bd565b5f610bf3610b06565b610c29576040517f0b5f6bf000000000000000000000000000000000000000000000000000000000815260040160405180910390fd5b33610c3381611313565b610c81576040517fea93ab6d00000000000000000000000000000000000000000000000000000000815273ffffffffffffffffffffffffffffffffffffffff82166004820152602401610630565b5f610c8a611877565b9050805f03610cc4576040517ebfc92100000000000000000000000000000000000000000000000000000000815260040160405180910390fd5b610cd081610bd8611a44565b905080841015610d0f576040517fa4a0502500000000000000000000000000000000000000000000000000000000815260048101829052602401610630565b610d198482611ac6565b9250610d2361180d565b835f54610d30919061234e565b1115610d68576040517f2edaff4300000000000000000000000000000000000000000000000000000000815260040160405180910390fd5b610d947f0000000000000000000000000000000000000000000000000000000000000000333087611ae5565b610d9e3384611c2e565b6040518390829033907f58781ca443f8e3ecffad28c83044b16c6e549d8e9c677aebb3b8ee176f99f53f905f90a45050919050565b5f7f000000000000000000000000000000000000000000000000000000000000000073ffffffffffffffffffffffffffffffffffffffff1663a07c7ce46040518163ffffffff1660e01b8152600401602060405180830381865afa158015610b70573d5f5f3e3d5ffd5b5f33610e4881611313565b610e96576040517fea93ab6d00000000000000000000000000000000000000000000000000000000815273ffffffffffffffffffffffffffffffffffffffff82166004820152602401610630565b83610ea081611313565b610eee576040517fea93ab6d00000000000000000000000000000000000000000000000000000000815273ffffffffffffffffffffffffffffffffffffffff82166004820152602401610630565b3073ffffffffffffffffffffffffffffffffffffffff861603610f3d576040517f3a49fd5c00000000000000000000000000000000000000000000000000000000815260040160405180910390fd5b61069b8585611c9c565b5f6107e4610f53611877565b610a566118e1565b33610f6581611313565b610fb3576040517fea93ab6d00000000000000000000000000000000000000000000000000000000815273ffffffffffffffffffffffffffffffffffffffff82166004820152602401610630565b87610fbd81611313565b61100b576040517fea93ab6d00000000000000000000000000000000000000000000000000000000815273ffffffffffffffffffffffffffffffffffffffff82166004820152602401610630565b8761101581611313565b611063576040517fea93ab6d00000000000000000000000000000000000000000000000000000000815273ffffffffffffffffffffffffffffffffffffffff82166004820152602401610630565b6110728a8a8a8a8a8a8a611d1f565b50505050505050505050565b5f3361108981611313565b6110d7576040517fea93ab6d00000000000000000000000000000000000000000000000000000000815273ffffffffffffffffffffffffffffffffffffffff82166004820152602401610630565b826110e181611313565b61112f576040517fea93ab6d00000000000000000000000000000000000000000000000000000000815273ffffffffffffffffffffffffffffffffffffffff82166004820152602401610630565b611138846120d0565b949350505050565b5f6107e4611877565b5f3361115481611313565b6111a2576040517fea93ab6d00000000000000000000000000000000000000000000000000000000815273ffffffffffffffffffffffffffffffffffffffff82166004820152602401610630565b335f90815260086020526040902054428111156111ff57335f90815260086020526040908190205490517f774cceca0000000000000000000000000000000000000000000000000000000081526004810191909152602401610630565b805f03611238576040517f9b604d0b00000000000000000000000000000000000000000000000000000000815260040160405180910390fd5b335f908152600760205260409020546112588161125361143d565b6120fb565b93508360065f82825461126b919061233b565b9091555050335f908152600760205260408120805486929061128e90849061233b565b909155506112bf90507f000000000000000000000000000000000000000000000000000000000000000033866114eb565b604051849033907fe80d36773458ce7a03850714245b45fa8535fda364366bf7552e38ec63fbf997905f90a350505090565b5f5f6112fb61143d565b90506006548110610bbc57600654610bb7908261233b565b6040517f82c4b3b200000000000000000000000000000000000000000000000000000000815273ffffffffffffffffffffffffffffffffffffffff82811660048301525f917f0000000000000000000000000000000000000000000000000000000000000000909116906382c4b3b290602401602060405180830381865afa1580156113a1573d5f5f3e3d5ffd5b505050506040513d601f19601f820116820180604052508101906109619190612361565b335f81815260026020908152604080832073ffffffffffffffffffffffffffffffffffffffff8716808552925280832085905551919290917f8c5be1e5ebec7d5bd14f71427d1e84f3dd0314c0f7b2291e5b200ac8c7c3b9259061142c9086815260200190565b60405180910390a350600192915050565b6040517f70a082310000000000000000000000000000000000000000000000000000000081523060048201525f907f000000000000000000000000000000000000000000000000000000000000000073ffffffffffffffffffffffffffffffffffffffff16906370a0823190602401602060405180830381865afa1580156114c7573d5f5f3e3d5ffd5b505050506040513d601f19601f820116820180604052508101906107e49190612380565b6040805173ffffffffffffffffffffffffffffffffffffffff8481166024830152604480830185905283518084039091018152606490920183526020820180517bffffffffffffffffffffffffffffffffffffffffffffffffffffffff167fa9059cbb0000000000000000000000000000000000000000000000000000000017905291515f928392908716916115819190612397565b5f604051808303815f865af19150503d805f81146115ba576040519150601f19603f3d011682016040523d82523d5f602084013e6115bf565b606091505b50915091508115806115ed57505f81511180156115ed5750808060200190518101906115eb9190612361565b155b15611624576040517f90b8ec1800000000000000000000000000000000000000000000000000000000815260040160405180910390fd5b5050505050565b5f7f000000000000000000000000000000000000000000000000000000000000000073ffffffffffffffffffffffffffffffffffffffff16636a42b8f86040518163ffffffff1660e01b8152600401602060405180830381865afa1580156114c7573d5f5f3e3d5ffd5b73ffffffffffffffffffffffffffffffffffffffff83165f9081526002602090815260408083203384529091528120547fffffffffffffffffffffffffffffffffffffffffffffffffffffffffffffffff8114611727576116f6838261233b565b73ffffffffffffffffffffffffffffffffffffffff86165f9081526002602090815260408083203384529091529020555b73ffffffffffffffffffffffffffffffffffffffff85165f908152600160205260408120805485929061175b90849061233b565b909155505073ffffffffffffffffffffffffffffffffffffffff84165f908152600160205260408120805485929061179490849061234e565b925050819055508373ffffffffffffffffffffffffffffffffffffffff168573ffffffffffffffffffffffffffffffffffffffff167fddf252ad1be2c89b69c2b068fc378daa952ba7f163c4a11628f55a4df523b3ef856040516117fa91815260200190565b60405180910390a3506001949350505050565b5f7f000000000000000000000000000000000000000000000000000000000000000073ffffffffffffffffffffffffffffffffffffffff1663355274ea6040518163ffffffff1660e01b8152600401602060405180830381865afa1580156114c7573d5f5f3e3d5ffd5b5f7f000000000000000000000000000000000000000000000000000000000000000073ffffffffffffffffffffffffffffffffffffffff166357de26a46040518163ffffffff1660e01b8152600401602060405180830381865afa1580156114c7573d5f5f3e3d5ffd5b5f7f000000000000000000000000000000000000000000000000000000000000000073ffffffffffffffffffffffffffffffffffffffff1663965745806040518163ffffffff1660e01b8152600401602060405180830381865afa1580156114c7573d5f5f3e3d5ffd5b5f6119588261271061234e565b611964846127106123ad565b61196e91906123c4565b61197990600161234e565b9392505050565b5f670de0b6b3a76400006119956002826123c4565b61199f84866123ad565b6119a9919061234e565b61197991906123c4565b73ffffffffffffffffffffffffffffffffffffffff82165f90815260016020526040812080548392906119e790849061233b565b90915550505f8054829003815560405182815273ffffffffffffffffffffffffffffffffffffffff8416907fddf252ad1be2c89b69c2b068fc378daa952ba7f163c4a11628f55a4df523b3ef906020015b60405180910390a35050565b5f7f000000000000000000000000000000000000000000000000000000000000000073ffffffffffffffffffffffffffffffffffffffff166398b836da6040518163ffffffff1660e01b8152600401602060405180830381865afa1580156114c7573d5f5f3e3d5ffd5b5f612710611abc838261234e565b6119a990856123ad565b5f81611ad36002826123c4565b61199f670de0b6b3a7640000866123ad565b6040805173ffffffffffffffffffffffffffffffffffffffff85811660248301528481166044830152606480830185905283518084039091018152608490920183526020820180517bffffffffffffffffffffffffffffffffffffffffffffffffffffffff167f23b872dd0000000000000000000000000000000000000000000000000000000017905291515f92839290881691611b839190612397565b5f604051808303815f865af19150503d805f8114611bbc576040519150601f19603f3d011682016040523d82523d5f602084013e611bc1565b606091505b5091509150811580611bef57505f8151118015611bef575080806020019051810190611bed9190612361565b155b15611c26576040517f90b8ec1800000000000000000000000000000000000000000000000000000000815260040160405180910390fd5b505050505050565b805f5f828254611c3e919061234e565b909155505073ffffffffffffffffffffffffffffffffffffffff82165f818152600160209081526040808320805486019055518481527fddf252ad1be2c89b69c2b068fc378daa952ba7f163c4a11628f55a4df523b3ef9101611a38565b335f90815260016020526040812080548391908390611cbc90849061233b565b909155505073ffffffffffffffffffffffffffffffffffffffff83165f81815260016020526040908190208054850190555133907fddf252ad1be2c89b69c2b068fc378daa952ba7f163c4a11628f55a4df523b3ef9061142c9086815260200190565b7f00000000000000000000000000000000000000000000000000000000000000004614611da8576040517f08c379a000000000000000000000000000000000000000000000000000000000815260206004820152600d60248201527f494e56414c49445f434841494e000000000000000000000000000000000000006044820152606401610630565b42841015611e12576040517f08c379a000000000000000000000000000000000000000000000000000000000815260206004820152601760248201527f5045524d49545f444541444c494e455f455850495245440000000000000000006044820152606401610630565b73ffffffffffffffffffffffffffffffffffffffff8781165f8181526005602090815260408083208054600180820190925582517f6e71edae12b1b97f4d1f60370fef10105fa2faae0126114a169c64845d6126c98186015280840196909652958c166060860152608085018b905260a085019590955260c08085018a90528151808603909101815260e0850190915280519101207f19010000000000000000000000000000000000000000000000000000000000006101008401527f0000000000000000000000000000000000000000000000000000000000000000610102840152610122830152919061014201604080517fffffffffffffffffffffffffffffffffffffffffffffffffffffffffffffffe081840301815282825280516020918201205f84529083018083525260ff871690820152606081018590526080810184905260a0016020604051602081039080840390855afa158015611f7a573d5f5f3e3d5ffd5b50506040517fffffffffffffffffffffffffffffffffffffffffffffffffffffffffffffffe0015191505073ffffffffffffffffffffffffffffffffffffffff811615801590611ff557508773ffffffffffffffffffffffffffffffffffffffff168173ffffffffffffffffffffffffffffffffffffffff16145b61205b576040517f08c379a000000000000000000000000000000000000000000000000000000000815260206004820152600e60248201527f494e56414c49445f5349474e45520000000000000000000000000000000000006044820152606401610630565b73ffffffffffffffffffffffffffffffffffffffff9081165f9081526002602090815260408083208a8516808552908352928190208990555188815291928a16917f8c5be1e5ebec7d5bd14f71427d1e84f3dd0314c0f7b2291e5b200ac8c7c3b925910160405180910390a350505050505050565b5f610961827fffffffffffffffffffffffffffffffffffffffffffffffffffffffffffffffff6105db565b5f8183111561210b575080610961565b5090919050565b602081525f82518060208401528060208501604085015e5f6040828501015260407fffffffffffffffffffffffffffffffffffffffffffffffffffffffffffffffe0601f83011684010191505092915050565b803573ffffffffffffffffffffffffffffffffffffffff81168114612188575f5ffd5b919050565b5f5f6040838503121561219e575f5ffd5b6121a783612165565b946020939093013593505050565b5f5f5f606084860312156121c7575f5ffd5b6121d084612165565b92506121de60208501612165565b929592945050506040919091013590565b5f602082840312156121ff575f5ffd5b61197982612165565b5f60208284031215612218575f5ffd5b5035919050565b5f5f5f5f5f5f5f60e0888a031215612235575f5ffd5b61223e88612165565b965061224c60208901612165565b95506040880135945060608801359350608088013560ff8116811461226f575f5ffd5b9699959850939692959460a0840135945060c09093013592915050565b5f5f6040838503121561229d575f5ffd5b6122a683612165565b91506122b460208401612165565b90509250929050565b600181811c908216806122d157607f821691505b602082108103612308577f4e487b71000000000000000000000000000000000000000000000000000000005f52602260045260245ffd5b50919050565b7f4e487b71000000000000000000000000000000000000000000000000000000005f52601160045260245ffd5b818103818111156109615761096161230e565b808201808211156109615761096161230e565b5f60208284031215612371575f5ffd5b81518015158114611979575f5ffd5b5f60208284031215612390575f5ffd5b5051919050565b5f82518060208501845e5f920191825250919050565b80820281158282048414176109615761096161230e565b5f826123f7577f4e487b71000000000000000000000000000000000000000000000000000000005f52601260045260245ffd5b50049056fea2646970667358221220f8c6ead6eb67e237055a0bc9078e5a9c1e795ddacf3dece240fa722a1fb4fe1564736f6c634300081c003300000000000000000000000072038c6bfb7ae7d91571029f43be2b41f74d941d000000000000000000000000f642166a50a99098a1a31eada5c5698c71baf8e5000000000000000000000000d500e4980296f62a5512b4e49d84bb2ec4e427250000000000000000000000000188856f12f8f666adc055910e8129ac35cb28930000000000000000000000002b115e940d0071217964d665b6311c95517c14c400000000000000000000000000000000000000000000000000000000000000e00000000000000000000000000000000000000000000000000000000000000120000000000000000000000000000000000000000000000000000000000000000443616e6100000000000000000000000000000000000000000000000000000000000000000000000000000000000000000000000000000000000000000000000443414e4100000000000000000000000000000000000000000000000000000000",
        "nonce": "0x2d",
        "chainId": "0xaa36a7"
      },
      "additionalContracts": [],
      "isFixedGasLimit": false
    },
    {
      "hash": "0xc0414409267762a861059d4286fe525a2e75cba9a712046b36f0ead8d7aa3abe",
      "transactionType": "CALL",
      "contractName": "MaseerProxy",
      "contractAddress": "0xf642166a50a99098a1a31eada5c5698c71baf8e5",
      "function": null,
      "arguments": null,
      "transaction": {
        "from": "0xdef12db2bd62f88c8d59807e0ce9868279fd7fef",
        "to": "0xf642166a50a99098a1a31eada5c5698c71baf8e5",
        "gas": "0x11c50",
        "value": "0x0",
        "input": "0xe9b674b96e616d650000000000000000000000000000000000000000000000000000000043414e4155534454000000000000000000000000000000000000000000000000",
        "nonce": "0x2e",
        "chainId": "0xaa36a7"
      },
      "additionalContracts": [],
      "isFixedGasLimit": false
    },
    {
      "hash": "0xe62a151c8a43cff26262db4b47e6dbcc4a2343f1a9a36bba65a3817e00aaa674",
      "transactionType": "CALL",
      "contractName": "MaseerProxy",
      "contractAddress": "0xf642166a50a99098a1a31eada5c5698c71baf8e5",
      "function": null,
      "arguments": null,
      "transaction": {
        "from": "0xdef12db2bd62f88c8d59807e0ce9868279fd7fef",
        "to": "0xf642166a50a99098a1a31eada5c5698c71baf8e5",
        "gas": "0x11c70",
        "value": "0x0",
        "input": "0xe9b674b9646563696d616c730000000000000000000000000000000000000000000000000000000000000000000000000000000000000000000000000000000000000006",
        "nonce": "0x2f",
        "chainId": "0xaa36a7"
      },
      "additionalContracts": [],
      "isFixedGasLimit": false
    },
    {
      "hash": "0xa00b694bcf7766bce88aae4bc2e2da8873924c44d1d89ffba0fd6e99dbb4f9bc",
      "transactionType": "CALL",
      "contractName": "MaseerProxy",
      "contractAddress": "0xf642166a50a99098a1a31eada5c5698c71baf8e5",
      "function": null,
      "arguments": null,
      "transaction": {
        "from": "0xdef12db2bd62f88c8d59807e0ce9868279fd7fef",
        "to": "0xf642166a50a99098a1a31eada5c5698c71baf8e5",
        "gas": "0x11adf",
        "value": "0x0",
        "input": "0x32145f9000000000000000000000000000000000000000000000000000000000000f4240",
        "nonce": "0x30",
        "chainId": "0xaa36a7"
      },
      "additionalContracts": [],
      "isFixedGasLimit": false
    },
    {
      "hash": "0x11858409e7cf511bba2e54e364e90e6bca37884500cd9cf371f125c1abca8ffa",
      "transactionType": "CALL",
      "contractName": "MaseerProxy",
      "contractAddress": "0xf642166a50a99098a1a31eada5c5698c71baf8e5",
      "function": null,
      "arguments": null,
      "transaction": {
        "from": "0xdef12db2bd62f88c8d59807e0ce9868279fd7fef",
        "to": "0xf642166a50a99098a1a31eada5c5698c71baf8e5",
        "gas": "0x114f0",
        "value": "0x0",
        "input": "0x65fae35e0000000000000000000000001804c8ab1f12e6bbf3894d4083f33e07309d1f38",
        "nonce": "0x31",
        "chainId": "0xaa36a7"
      },
      "additionalContracts": [],
      "isFixedGasLimit": false
    },
    {
      "hash": "0x77778d776268ae9cda81c04916946585553ab1e6bdc332a9d17fa96d34fd70f1",
      "transactionType": "CALL",
      "contractName": "MaseerProxy",
      "contractAddress": "0xf642166a50a99098a1a31eada5c5698c71baf8e5",
      "function": null,
      "arguments": null,
      "transaction": {
        "from": "0xdef12db2bd62f88c8d59807e0ce9868279fd7fef",
        "to": "0xf642166a50a99098a1a31eada5c5698c71baf8e5",
        "gas": "0xa81b",
        "value": "0x0",
        "input": "0x9c52a7f10000000000000000000000001804c8ab1f12e6bbf3894d4083f33e07309d1f38",
        "nonce": "0x32",
        "chainId": "0xaa36a7"
      },
      "additionalContracts": [],
      "isFixedGasLimit": false
    },
    {
      "hash": "0xcd55884eeea0c14f5fd04718400a4a19f396b10a5f49ef2af94765f615dcdd16",
      "transactionType": "CALL",
      "contractName": "MaseerProxy",
      "contractAddress": "0xf642166a50a99098a1a31eada5c5698c71baf8e5",
      "function": "relyProxy(address)",
      "arguments": [
        "0x1804c8AB1F12E6bbf3894d4083f33e07309d1f38"
      ],
      "transaction": {
        "from": "0xdef12db2bd62f88c8d59807e0ce9868279fd7fef",
        "to": "0xf642166a50a99098a1a31eada5c5698c71baf8e5",
        "gas": "0x108da",
        "value": "0x0",
        "input": "0x266a164a0000000000000000000000001804c8ab1f12e6bbf3894d4083f33e07309d1f38",
        "nonce": "0x33",
        "chainId": "0xaa36a7"
      },
      "additionalContracts": [],
      "isFixedGasLimit": false
    },
    {
      "hash": "0xca608d5bee4f82cc8a89db9d9243a5d0340772a707c3bdcb791eba16e13d4911",
      "transactionType": "CALL",
      "contractName": "MaseerProxy",
      "contractAddress": "0xf642166a50a99098a1a31eada5c5698c71baf8e5",
      "function": "denyProxy(address)",
      "arguments": [
        "0x1804c8AB1F12E6bbf3894d4083f33e07309d1f38"
      ],
      "transaction": {
        "from": "0xdef12db2bd62f88c8d59807e0ce9868279fd7fef",
        "to": "0xf642166a50a99098a1a31eada5c5698c71baf8e5",
        "gas": "0x8bdd",
        "value": "0x0",
        "input": "0x0715940e0000000000000000000000001804c8ab1f12e6bbf3894d4083f33e07309d1f38",
        "nonce": "0x34",
        "chainId": "0xaa36a7"
      },
      "additionalContracts": [],
      "isFixedGasLimit": false
    },
    {
      "hash": "0xf67fbc40698cd1a49a9bab1335986c0dbbf966064a3089da971e56253aeb562c",
      "transactionType": "CALL",
      "contractName": "MaseerProxy",
      "contractAddress": "0xd500e4980296f62a5512b4e49d84bb2ec4e42725",
      "function": null,
      "arguments": null,
      "transaction": {
        "from": "0xdef12db2bd62f88c8d59807e0ce9868279fd7fef",
        "to": "0xd500e4980296f62a5512b4e49d84bb2ec4e42725",
        "gas": "0x1235e",
        "value": "0x0",
        "input": "0xe177246e0000000000000000000000000000000000000000000000000000000000069780",
        "nonce": "0x35",
        "chainId": "0xaa36a7"
      },
      "additionalContracts": [],
      "isFixedGasLimit": false
    },
    {
      "hash": "0x222353955bf75834120d6ff4ff417ac500812fafa2c5533492480bdcda04ae5a",
      "transactionType": "CALL",
      "contractName": "MaseerProxy",
      "contractAddress": "0xd500e4980296f62a5512b4e49d84bb2ec4e42725",
      "function": null,
      "arguments": null,
      "transaction": {
        "from": "0xdef12db2bd62f88c8d59807e0ce9868279fd7fef",
        "to": "0xd500e4980296f62a5512b4e49d84bb2ec4e42725",
        "gas": "0x11330",
        "value": "0x0",
        "input": "0x47786d3700000000000000000000000000000000000000000000d3c21bcecceda1000000",
        "nonce": "0x36",
        "chainId": "0xaa36a7"
      },
      "additionalContracts": [],
      "isFixedGasLimit": false
    },
    {
      "hash": "0x069a1a726092f5d64595d195ad61eed2f623162258cc2ad316acb64df8056494",
      "transactionType": "CALL",
      "contractName": "MaseerProxy",
      "contractAddress": "0xd500e4980296f62a5512b4e49d84bb2ec4e42725",
      "function": null,
      "arguments": null,
      "transaction": {
        "from": "0xdef12db2bd62f88c8d59807e0ce9868279fd7fef",
        "to": "0xd500e4980296f62a5512b4e49d84bb2ec4e42725",
        "gas": "0x112d1",
        "value": "0x0",
        "input": "0x59361d8e0000000000000000000000000000000000000000000000000000000000000032",
        "nonce": "0x37",
        "chainId": "0xaa36a7"
      },
      "additionalContracts": [],
      "isFixedGasLimit": false
    },
    {
      "hash": "0x6560dc95e0ac5ec91ef72e3051ae63c3034fcbffb60a7d9e22d283613a7fe495",
      "transactionType": "CALL",
      "contractName": "MaseerProxy",
      "contractAddress": "0xd500e4980296f62a5512b4e49d84bb2ec4e42725",
      "function": null,
      "arguments": null,
      "transaction": {
        "from": "0xdef12db2bd62f88c8d59807e0ce9868279fd7fef",
        "to": "0xd500e4980296f62a5512b4e49d84bb2ec4e42725",
        "gas": "0x112d2",
        "value": "0x0",
        "input": "0x71ebdf4e0000000000000000000000000000000000000000000000000000000000000032",
        "nonce": "0x38",
        "chainId": "0xaa36a7"
      },
      "additionalContracts": [],
      "isFixedGasLimit": false
    },
    {
      "hash": "0xc1c5f39628d58957eddb78b098f3c2027e106126cc5032816722863abfbd6051",
      "transactionType": "CALL",
      "contractName": "MaseerProxy",
      "contractAddress": "0xd500e4980296f62a5512b4e49d84bb2ec4e42725",
      "function": null,
      "arguments": null,
      "transaction": {
        "from": "0xdef12db2bd62f88c8d59807e0ce9868279fd7fef",
        "to": "0xd500e4980296f62a5512b4e49d84bb2ec4e42725",
        "gas": "0x1152c",
        "value": "0x0",
        "input": "0x65fae35e0000000000000000000000001804c8ab1f12e6bbf3894d4083f33e07309d1f38",
        "nonce": "0x39",
        "chainId": "0xaa36a7"
      },
      "additionalContracts": [],
      "isFixedGasLimit": false
    },
    {
      "hash": "0x769e20e1dfea7c49fee4fc0a4db8b97441e23136d64f79f257ce35451f6de2c9",
      "transactionType": "CALL",
      "contractName": "MaseerProxy",
      "contractAddress": "0xd500e4980296f62a5512b4e49d84bb2ec4e42725",
      "function": null,
      "arguments": null,
      "transaction": {
        "from": "0xdef12db2bd62f88c8d59807e0ce9868279fd7fef",
        "to": "0xd500e4980296f62a5512b4e49d84bb2ec4e42725",
        "gas": "0x9f01",
        "value": "0x0",
        "input": "0x9c52a7f10000000000000000000000001804c8ab1f12e6bbf3894d4083f33e07309d1f38",
        "nonce": "0x3a",
        "chainId": "0xaa36a7"
      },
      "additionalContracts": [],
      "isFixedGasLimit": false
    },
    {
      "hash": "0xbd9864c60df735d5e343cc4dabda79021d0775b6be19dad71284addbebdc3400",
      "transactionType": "CALL",
      "contractName": "MaseerProxy",
      "contractAddress": "0xd500e4980296f62a5512b4e49d84bb2ec4e42725",
      "function": "relyProxy(address)",
      "arguments": [
        "0x1804c8AB1F12E6bbf3894d4083f33e07309d1f38"
      ],
      "transaction": {
        "from": "0xdef12db2bd62f88c8d59807e0ce9868279fd7fef",
        "to": "0xd500e4980296f62a5512b4e49d84bb2ec4e42725",
        "gas": "0x108da",
        "value": "0x0",
        "input": "0x266a164a0000000000000000000000001804c8ab1f12e6bbf3894d4083f33e07309d1f38",
        "nonce": "0x3b",
        "chainId": "0xaa36a7"
      },
      "additionalContracts": [],
      "isFixedGasLimit": false
    },
    {
      "hash": "0x0fe452fe471a1960e2f9808a5310b49109fe99c06cb580a6a3e8869a94dbe833",
      "transactionType": "CALL",
      "contractName": "MaseerProxy",
      "contractAddress": "0xd500e4980296f62a5512b4e49d84bb2ec4e42725",
      "function": "denyProxy(address)",
      "arguments": [
        "0x1804c8AB1F12E6bbf3894d4083f33e07309d1f38"
      ],
      "transaction": {
        "from": "0xdef12db2bd62f88c8d59807e0ce9868279fd7fef",
        "to": "0xd500e4980296f62a5512b4e49d84bb2ec4e42725",
        "gas": "0x8bdd",
        "value": "0x0",
        "input": "0x0715940e0000000000000000000000001804c8ab1f12e6bbf3894d4083f33e07309d1f38",
        "nonce": "0x3c",
        "chainId": "0xaa36a7"
      },
      "additionalContracts": [],
      "isFixedGasLimit": false
    },
    {
      "hash": "0xdbc6044bbdb87d1158e338384fff28112c5a670817176f30df9de0339a3318e3",
      "transactionType": "CALL",
      "contractName": "MaseerProxy",
      "contractAddress": "0x0188856f12f8f666adc055910e8129ac35cb2893",
      "function": null,
      "arguments": null,
      "transaction": {
        "from": "0xdef12db2bd62f88c8d59807e0ce9868279fd7fef",
        "to": "0x0188856f12f8f666adc055910e8129ac35cb2893",
        "gas": "0x114c2",
        "value": "0x0",
        "input": "0x65fae35e0000000000000000000000001804c8ab1f12e6bbf3894d4083f33e07309d1f38",
        "nonce": "0x3d",
        "chainId": "0xaa36a7"
      },
      "additionalContracts": [],
      "isFixedGasLimit": false
    },
    {
      "hash": "0x3b81531fd7bb5c70fad0301f4718a548f88ced6af916dc7345899eb1b5327b10",
      "transactionType": "CALL",
      "contractName": "MaseerProxy",
      "contractAddress": "0x0188856f12f8f666adc055910e8129ac35cb2893",
      "function": null,
      "arguments": null,
      "transaction": {
        "from": "0xdef12db2bd62f88c8d59807e0ce9868279fd7fef",
        "to": "0x0188856f12f8f666adc055910e8129ac35cb2893",
        "gas": "0xa81b",
        "value": "0x0",
        "input": "0x9c52a7f10000000000000000000000001804c8ab1f12e6bbf3894d4083f33e07309d1f38",
        "nonce": "0x3e",
        "chainId": "0xaa36a7"
      },
      "additionalContracts": [],
      "isFixedGasLimit": false
    },
    {
      "hash": "0x65034861a89c165d3971a5a162c567f6efafe486c116a73ac2322725a48fcb08",
      "transactionType": "CALL",
      "contractName": "MaseerProxy",
      "contractAddress": "0x0188856f12f8f666adc055910e8129ac35cb2893",
      "function": "relyProxy(address)",
      "arguments": [
        "0x1804c8AB1F12E6bbf3894d4083f33e07309d1f38"
      ],
      "transaction": {
        "from": "0xdef12db2bd62f88c8d59807e0ce9868279fd7fef",
        "to": "0x0188856f12f8f666adc055910e8129ac35cb2893",
        "gas": "0x108da",
        "value": "0x0",
        "input": "0x266a164a0000000000000000000000001804c8ab1f12e6bbf3894d4083f33e07309d1f38",
        "nonce": "0x3f",
        "chainId": "0xaa36a7"
      },
      "additionalContracts": [],
      "isFixedGasLimit": false
    },
    {
      "hash": "0x0008aabe1494f3e46ae724e5dde3bdc39f4410abeb3187372c129fcbebe4c5a3",
      "transactionType": "CALL",
      "contractName": "MaseerProxy",
      "contractAddress": "0x0188856f12f8f666adc055910e8129ac35cb2893",
      "function": "denyProxy(address)",
      "arguments": [
        "0x1804c8AB1F12E6bbf3894d4083f33e07309d1f38"
      ],
      "transaction": {
        "from": "0xdef12db2bd62f88c8d59807e0ce9868279fd7fef",
        "to": "0x0188856f12f8f666adc055910e8129ac35cb2893",
        "gas": "0x8bdd",
        "value": "0x0",
        "input": "0x0715940e0000000000000000000000001804c8ab1f12e6bbf3894d4083f33e07309d1f38",
        "nonce": "0x40",
        "chainId": "0xaa36a7"
      },
      "additionalContracts": [],
      "isFixedGasLimit": false
    },
    {
      "hash": "0xabaa14dd3fedfffb2465f12650acb40648dd634a8fd2433c3a0dc00663db90b3",
      "transactionType": "CALL",
      "contractName": "MaseerProxy",
      "contractAddress": "0x2b115e940d0071217964d665b6311c95517c14c4",
      "function": null,
      "arguments": null,
      "transaction": {
        "from": "0xdef12db2bd62f88c8d59807e0ce9868279fd7fef",
        "to": "0x2b115e940d0071217964d665b6311c95517c14c4",
        "gas": "0x11453",
        "value": "0x0",
        "input": "0xa3b22fc40000000000000000000000001804c8ab1f12e6bbf3894d4083f33e07309d1f38",
        "nonce": "0x41",
        "chainId": "0xaa36a7"
      },
      "additionalContracts": [],
      "isFixedGasLimit": false
    },
    {
      "hash": "0xc7631bf1563f6cc7452affbbd7f8838818ffae7556bb2d043cc715d7860605e2",
      "transactionType": "CALL",
      "contractName": "MaseerProxy",
      "contractAddress": "0x2b115e940d0071217964d665b6311c95517c14c4",
      "function": null,
      "arguments": null,
      "transaction": {
        "from": "0xdef12db2bd62f88c8d59807e0ce9868279fd7fef",
        "to": "0x2b115e940d0071217964d665b6311c95517c14c4",
        "gas": "0x1148b",
        "value": "0x0",
        "input": "0xf29c29c40000000000000000000000001804c8ab1f12e6bbf3894d4083f33e07309d1f38",
        "nonce": "0x42",
        "chainId": "0xaa36a7"
      },
      "additionalContracts": [],
      "isFixedGasLimit": false
    },
    {
      "hash": "0xea904c661d2db6dc42f51fdcfa42f89b26429f7d4f4b785ba54e1bde54e5d627",
      "transactionType": "CALL",
      "contractName": "MaseerProxy",
      "contractAddress": "0x2b115e940d0071217964d665b6311c95517c14c4",
      "function": null,
      "arguments": null,
      "transaction": {
        "from": "0xdef12db2bd62f88c8d59807e0ce9868279fd7fef",
        "to": "0x2b115e940d0071217964d665b6311c95517c14c4",
        "gas": "0x1148b",
        "value": "0x0",
        "input": "0xf29c29c400000000000000000000000057c30327b56cce78ee270f72070f188253c05bb2",
        "nonce": "0x43",
        "chainId": "0xaa36a7"
      },
      "additionalContracts": [],
      "isFixedGasLimit": false
    },
    {
      "hash": "0xbc2339ba2a68422ed2e8dc9c42cf04b873dfd957fafa593497e335c7a32445b9",
      "transactionType": "CALL",
      "contractName": "MaseerProxy",
      "contractAddress": "0x2b115e940d0071217964d665b6311c95517c14c4",
      "function": null,
      "arguments": null,
      "transaction": {
        "from": "0xdef12db2bd62f88c8d59807e0ce9868279fd7fef",
        "to": "0x2b115e940d0071217964d665b6311c95517c14c4",
        "gas": "0x1258e",
        "value": "0x0",
        "input": "0x65fae35e0000000000000000000000001804c8ab1f12e6bbf3894d4083f33e07309d1f38",
        "nonce": "0x44",
        "chainId": "0xaa36a7"
      },
      "additionalContracts": [],
      "isFixedGasLimit": false
    },
    {
      "hash": "0xc6acdc9391d07cb8520163513926cf3f95ba955c873b8a11f130bce9ac6f75ce",
      "transactionType": "CALL",
      "contractName": "MaseerProxy",
      "contractAddress": "0x2b115e940d0071217964d665b6311c95517c14c4",
      "function": null,
      "arguments": null,
      "transaction": {
        "from": "0xdef12db2bd62f88c8d59807e0ce9868279fd7fef",
        "to": "0x2b115e940d0071217964d665b6311c95517c14c4",
        "gas": "0xa890",
        "value": "0x0",
        "input": "0x9c52a7f10000000000000000000000001804c8ab1f12e6bbf3894d4083f33e07309d1f38",
        "nonce": "0x45",
        "chainId": "0xaa36a7"
      },
      "additionalContracts": [],
      "isFixedGasLimit": false
    },
    {
      "hash": "0x1d406c457c76087c5c759f45d61f0892dc3a079e1700c93e5856a04c933ebdc8",
      "transactionType": "CALL",
      "contractName": "MaseerProxy",
      "contractAddress": "0x2b115e940d0071217964d665b6311c95517c14c4",
      "function": "relyProxy(address)",
      "arguments": [
        "0x1804c8AB1F12E6bbf3894d4083f33e07309d1f38"
      ],
      "transaction": {
        "from": "0xdef12db2bd62f88c8d59807e0ce9868279fd7fef",
        "to": "0x2b115e940d0071217964d665b6311c95517c14c4",
        "gas": "0x108da",
        "value": "0x0",
        "input": "0x266a164a0000000000000000000000001804c8ab1f12e6bbf3894d4083f33e07309d1f38",
        "nonce": "0x46",
        "chainId": "0xaa36a7"
      },
      "additionalContracts": [],
      "isFixedGasLimit": false
    },
    {
      "hash": "0x7acd64f5c107a2a64425016fd830b36d4423670aebbfe847c7598b0a557e82f1",
      "transactionType": "CALL",
      "contractName": "MaseerProxy",
      "contractAddress": "0x2b115e940d0071217964d665b6311c95517c14c4",
      "function": "denyProxy(address)",
      "arguments": [
        "0x1804c8AB1F12E6bbf3894d4083f33e07309d1f38"
      ],
      "transaction": {
        "from": "0xdef12db2bd62f88c8d59807e0ce9868279fd7fef",
        "to": "0x2b115e940d0071217964d665b6311c95517c14c4",
        "gas": "0x8bdd",
        "value": "0x0",
        "input": "0x0715940e0000000000000000000000001804c8ab1f12e6bbf3894d4083f33e07309d1f38",
        "nonce": "0x47",
        "chainId": "0xaa36a7"
      },
      "additionalContracts": [],
      "isFixedGasLimit": false
    }
  ],
  "receipts": [
    {
      "status": "0x1",
      "cumulativeGasUsed": "0x684013",
      "logs": [],
      "logsBloom": "0x00000000000000000000000000000000000000000000000000000000000000000000000000000000000000000000000000000000000000000000000000000000000000000000000000000000000000000000000000000000000000000000000000000000000000000000000000000000000000000000000000000000000000000000000000000000000000000000000000000000000000000000000000000000000000000000000000000000000000000000000000000000000000000000000000000000000000000000000000000000000000000000000000000000000000000000000000000000000000000000000000000000000000000000000000000000",
      "type": "0x2",
      "transactionHash": "0x0f69493194d2a617188e3ab901f59e6dde506fe0329bdee9f4c1fa4c29969134",
      "transactionIndex": "0x40",
      "blockHash": "0x0d62951de1a5b0a563f2feaddb8cdd2788f192845c6ec33ace7b1f56b39e6ee4",
      "blockNumber": "0x7551f7",
      "gasUsed": "0x8ea2e",
      "effectiveGasPrice": "0x73c1bc72",
      "from": "0xdef12db2bd62f88c8d59807e0ce9868279fd7fef",
      "to": null,
      "contractAddress": "0x72038c6bfb7ae7d91571029f43be2b41f74d941d"
    },
    {
      "status": "0x1",
      "cumulativeGasUsed": "0x726fe7",
      "logs": [],
      "logsBloom": "0x00000000000000000000000000000000000000000000000000000000000000000000000000000000000000000000000000000000000000000000000000000000000000000000000000000000000000000000000000000000000000000000000000000000000000000000000000000000000000000000000000000000000000000000000000000000000000000000000000000000000000000000000000000000000000000000000000000000000000000000000000000000000000000000000000000000000000000000000000000000000000000000000000000000000000000000000000000000000000000000000000000000000000000000000000000000",
      "type": "0x2",
      "transactionHash": "0x1f0d912119b571f715f16539a979d1aa1cc9ff3718685e61d9239f6926be4074",
      "transactionIndex": "0x41",
      "blockHash": "0x0d62951de1a5b0a563f2feaddb8cdd2788f192845c6ec33ace7b1f56b39e6ee4",
      "blockNumber": "0x7551f7",
      "gasUsed": "0xa2fd4",
      "effectiveGasPrice": "0x73c1bc72",
      "from": "0xdef12db2bd62f88c8d59807e0ce9868279fd7fef",
      "to": null,
      "contractAddress": "0x527a925f11dcb9ca72894e6a64f7a7dc6bc9fb21"
    },
    {
      "status": "0x1",
      "cumulativeGasUsed": "0x77f927",
      "logs": [],
      "logsBloom": "0x00000000000000000000000000000000000000000000000000000000000000000000000000000000000000000000000000000000000000000000000000000000000000000000000000000000000000000000000000000000000000000000000000000000000000000000000000000000000000000000000000000000000000000000000000000000000000000000000000000000000000000000000000000000000000000000000000000000000000000000000000000000000000000000000000000000000000000000000000000000000000000000000000000000000000000000000000000000000000000000000000000000000000000000000000000000",
      "type": "0x2",
      "transactionHash": "0xc66af653aa4fdf96bf8f973415d4d23c55db8b021ace4eaedc8c74358fb6315b",
      "transactionIndex": "0x42",
      "blockHash": "0x0d62951de1a5b0a563f2feaddb8cdd2788f192845c6ec33ace7b1f56b39e6ee4",
      "blockNumber": "0x7551f7",
      "gasUsed": "0x58940",
      "effectiveGasPrice": "0x73c1bc72",
      "from": "0xdef12db2bd62f88c8d59807e0ce9868279fd7fef",
      "to": null,
      "contractAddress": "0xf642166a50a99098a1a31eada5c5698c71baf8e5"
    },
    {
      "status": "0x1",
      "cumulativeGasUsed": "0x888991",
      "logs": [],
      "logsBloom": "0x00000000000000000000000000000000000000000000000000000000000000000000000000000000000000000000000000000000000000000000000000000000000000000000000000000000000000000000000000000000000000000000000000000000000000000000000000000000000000000000000000000000000000000000000000000000000000000000000000000000000000000000000000000000000000000000000000000000000000000000000000000000000000000000000000000000000000000000000000000000000000000000000000000000000000000000000000000000000000000000000000000000000000000000000000000000",
      "type": "0x2",
      "transactionHash": "0x00e104b903e3b2d2aeb00727e4e8eb2bb56bb216b3ccb2f2c35c33f0a352264c",
      "transactionIndex": "0x43",
      "blockHash": "0x0d62951de1a5b0a563f2feaddb8cdd2788f192845c6ec33ace7b1f56b39e6ee4",
      "blockNumber": "0x7551f7",
      "gasUsed": "0x10906a",
      "effectiveGasPrice": "0x73c1bc72",
      "from": "0xdef12db2bd62f88c8d59807e0ce9868279fd7fef",
      "to": null,
      "contractAddress": "0xae642cc210b3ab684189a303d33db9fe8dc392e5"
    },
    {
      "status": "0x1",
      "cumulativeGasUsed": "0x8e66ed",
      "logs": [],
      "logsBloom": "0x00000000000000000000000000000000000000000000000000000000000000000000000000000000000000000000000000000000000000000000000000000000000000000000000000000000000000000000000000000000000000000000000000000000000000000000000000000000000000000000000000000000000000000000000000000000000000000000000000000000000000000000000000000000000000000000000000000000000000000000000000000000000000000000000000000000000000000000000000000000000000000000000000000000000000000000000000000000000000000000000000000000000000000000000000000000",
      "type": "0x2",
      "transactionHash": "0x11492970688f14e28044d8bcbd93207fee0c50403037445ec68db4c87a891faa",
      "transactionIndex": "0x45",
      "blockHash": "0x0d62951de1a5b0a563f2feaddb8cdd2788f192845c6ec33ace7b1f56b39e6ee4",
      "blockNumber": "0x7551f7",
      "gasUsed": "0x58940",
      "effectiveGasPrice": "0x73c1bc72",
      "from": "0xdef12db2bd62f88c8d59807e0ce9868279fd7fef",
      "to": null,
      "contractAddress": "0xd500e4980296f62a5512b4e49d84bb2ec4e42725"
    },
    {
      "status": "0x1",
      "cumulativeGasUsed": "0x93498d",
      "logs": [],
      "logsBloom": "0x00000000000000000000000000000000000000000000000000000000000000000000000000000000000000000000000000000000000000000000000000000000000000000000000000000000000000000000000000000000000000000000000000000000000000000000000000000000000000000000000000000000000000000000000000000000000000000000000000000000000000000000000000000000000000000000000000000000000000000000000000000000000000000000000000000000000000000000000000000000000000000000000000000000000000000000000000000000000000000000000000000000000000000000000000000000",
      "type": "0x2",
      "transactionHash": "0x26db17b8db9b420a0897065d4b904779ce9884cf83f0048f5b227d958b0bed70",
      "transactionIndex": "0x46",
      "blockHash": "0x0d62951de1a5b0a563f2feaddb8cdd2788f192845c6ec33ace7b1f56b39e6ee4",
      "blockNumber": "0x7551f7",
      "gasUsed": "0x4e2a0",
      "effectiveGasPrice": "0x73c1bc72",
      "from": "0xdef12db2bd62f88c8d59807e0ce9868279fd7fef",
      "to": null,
      "contractAddress": "0x0d8a0a205a8ebd28fc043acf4fa5912da6bdee37"
    },
    {
      "status": "0x1",
      "cumulativeGasUsed": "0x98d2cd",
      "logs": [],
      "logsBloom": "0x00000000000000000000000000000000000000000000000000000000000000000000000000000000000000000000000000000000000000000000000000000000000000000000000000000000000000000000000000000000000000000000000000000000000000000000000000000000000000000000000000000000000000000000000000000000000000000000000000000000000000000000000000000000000000000000000000000000000000000000000000000000000000000000000000000000000000000000000000000000000000000000000000000000000000000000000000000000000000000000000000000000000000000000000000000000",
      "type": "0x2",
      "transactionHash": "0xe193dd6e4fbe2ae4096fd6c619bdb069fcf980787d7072a94e2b4b64b1b0ef05",
      "transactionIndex": "0x47",
      "blockHash": "0x0d62951de1a5b0a563f2feaddb8cdd2788f192845c6ec33ace7b1f56b39e6ee4",
      "blockNumber": "0x7551f7",
      "gasUsed": "0x58940",
      "effectiveGasPrice": "0x73c1bc72",
      "from": "0xdef12db2bd62f88c8d59807e0ce9868279fd7fef",
      "to": null,
      "contractAddress": "0x0188856f12f8f666adc055910e8129ac35cb2893"
    },
    {
      "status": "0x1",
      "cumulativeGasUsed": "0xa589ea",
      "logs": [],
      "logsBloom": "0x00000000000000000000000000000000000000000000000000000000000000000000000000000000000000000000000000000000000000000000000000000000000000000000000000000000000000000000000000000000000000000000000000000000000000000000000000000000000000000000000000000000000000000000000000000000000000000000000000000000000000000000000000000000000000000000000000000000000000000000000000000000000000000000000000000000000000000000000000000000000000000000000000000000000000000000000000000000000000000000000000000000000000000000000000000000",
      "type": "0x2",
      "transactionHash": "0x84f90918c12325a8764a4f5ed89e294a94933c8c204b27d784c9173ec339b005",
      "transactionIndex": "0x49",
      "blockHash": "0x0d62951de1a5b0a563f2feaddb8cdd2788f192845c6ec33ace7b1f56b39e6ee4",
      "blockNumber": "0x7551f7",
      "gasUsed": "0xb4b1e",
      "effectiveGasPrice": "0x73c1bc72",
      "from": "0xdef12db2bd62f88c8d59807e0ce9868279fd7fef",
      "to": null,
      "contractAddress": "0xa298211dc575eacb4fe30230d4c472d665aab218"
    },
    {
      "status": "0x1",
      "cumulativeGasUsed": "0xab132a",
      "logs": [],
      "logsBloom": "0x00000000000000000000000000000000000000000000000000000000000000000000000000000000000000000000000000000000000000000000000000000000000000000000000000000000000000000000000000000000000000000000000000000000000000000000000000000000000000000000000000000000000000000000000000000000000000000000000000000000000000000000000000000000000000000000000000000000000000000000000000000000000000000000000000000000000000000000000000000000000000000000000000000000000000000000000000000000000000000000000000000000000000000000000000000000",
      "type": "0x2",
      "transactionHash": "0x0f8ee1407af1c19fdb7b4dc241a971b0c78457ee4cf43a51a7aebfa3e753f8af",
      "transactionIndex": "0x4a",
      "blockHash": "0x0d62951de1a5b0a563f2feaddb8cdd2788f192845c6ec33ace7b1f56b39e6ee4",
      "blockNumber": "0x7551f7",
      "gasUsed": "0x58940",
      "effectiveGasPrice": "0x73c1bc72",
      "from": "0xdef12db2bd62f88c8d59807e0ce9868279fd7fef",
      "to": null,
      "contractAddress": "0x2b115e940d0071217964d665b6311c95517c14c4"
    },
    {
      "status": "0x1",
      "cumulativeGasUsed": "0xcb350f",
      "logs": [],
      "logsBloom": "0x00000000000000000000000000000000000000000000000000000000000000000000000000000000000000000000000000000000000000000000000000000000000000000000000000000000000000000000000000000000000000000000000000000000000000000000000000000000000000000000000000000000000000000000000000000000000000000000000000000000000000000000000000000000000000000000000000000000000000000000000000000000000000000000000000000000000000000000000000000000000000000000000000000000000000000000000000000000000000000000000000000000000000000000000000000000",
      "type": "0x2",
      "transactionHash": "0xb593e2bf8eb486379b62e51a9bdda5be0ddc08dbf10b260df384074c3273b44e",
      "transactionIndex": "0x4b",
      "blockHash": "0x0d62951de1a5b0a563f2feaddb8cdd2788f192845c6ec33ace7b1f56b39e6ee4",
      "blockNumber": "0x7551f7",
      "gasUsed": "0x2021e5",
      "effectiveGasPrice": "0x73c1bc72",
      "from": "0xdef12db2bd62f88c8d59807e0ce9868279fd7fef",
      "to": null,
      "contractAddress": "0x57c30327b56cce78ee270f72070f188253c05bb2"
    },
    {
      "status": "0x1",
      "cumulativeGasUsed": "0xcc6ae2",
      "logs": [
        {
          "address": "0xf642166a50a99098a1a31eada5c5698c71baf8e5",
          "topics": [
            "0x943a793c11a909d4409e7706d8c3d1467960e08f6141234950042994856812df",
            "0x6e616d6500000000000000000000000000000000000000000000000000000000"
          ],
          "data": "0x43414e4155534454000000000000000000000000000000000000000000000000",
          "blockHash": "0x0d62951de1a5b0a563f2feaddb8cdd2788f192845c6ec33ace7b1f56b39e6ee4",
          "blockNumber": "0x7551f7",
          "transactionHash": "0xc0414409267762a861059d4286fe525a2e75cba9a712046b36f0ead8d7aa3abe",
          "transactionIndex": "0x4d",
          "logIndex": "0x5f",
          "removed": false
        }
      ],
      "logsBloom": "0x00000000000000000000000000000000000000000000000000000000000000000000008000000000800000000000000000000000000000000000000000000000000000200000000000000000000000000000000000000000000000000000000000004000000000000000000000000000000000000000000000000000000000000000000000000000000000000000000000000000000000000000000000000010000000000000000000000000000000000020000000000000000000000000000000000000000000000000000000000002000400100000000000000000000000000000000000000000000000000000000000000000000000000000000000000000",
      "type": "0x2",
      "transactionHash": "0xc0414409267762a861059d4286fe525a2e75cba9a712046b36f0ead8d7aa3abe",
      "transactionIndex": "0x4d",
      "blockHash": "0x0d62951de1a5b0a563f2feaddb8cdd2788f192845c6ec33ace7b1f56b39e6ee4",
      "blockNumber": "0x7551f7",
      "gasUsed": "0xcdd7",
      "effectiveGasPrice": "0x73c1bc72",
      "from": "0xdef12db2bd62f88c8d59807e0ce9868279fd7fef",
      "to": "0xf642166a50a99098a1a31eada5c5698c71baf8e5",
      "contractAddress": null
    },
    {
      "status": "0x1",
      "cumulativeGasUsed": "0xcd38d1",
      "logs": [
        {
          "address": "0xf642166a50a99098a1a31eada5c5698c71baf8e5",
          "topics": [
            "0x943a793c11a909d4409e7706d8c3d1467960e08f6141234950042994856812df",
            "0x646563696d616c73000000000000000000000000000000000000000000000000"
          ],
          "data": "0x0000000000000000000000000000000000000000000000000000000000000006",
          "blockHash": "0x0d62951de1a5b0a563f2feaddb8cdd2788f192845c6ec33ace7b1f56b39e6ee4",
          "blockNumber": "0x7551f7",
          "transactionHash": "0xe62a151c8a43cff26262db4b47e6dbcc4a2343f1a9a36bba65a3817e00aaa674",
          "transactionIndex": "0x4e",
          "logIndex": "0x60",
          "removed": false
        }
      ],
      "logsBloom": "0x00000000000000000000000000000000000000000000000000000000000000000000008000000000000000000400000000000000000000000000000000000000000000200000000000000000000000000000000000000000000000000000000000004000000000000000000000000000000000000000000000000000000000000000000000000000000000000000000000000000000000000000000000000000000000000000000000000000000000000020000000000000000000000000000000000000000000000000000000000002001000100000000000000000000000000000000000000000000000000000000000004000000000000000000000000000",
      "type": "0x2",
      "transactionHash": "0xe62a151c8a43cff26262db4b47e6dbcc4a2343f1a9a36bba65a3817e00aaa674",
      "transactionIndex": "0x4e",
      "blockHash": "0x0d62951de1a5b0a563f2feaddb8cdd2788f192845c6ec33ace7b1f56b39e6ee4",
      "blockNumber": "0x7551f7",
      "gasUsed": "0xcdef",
      "effectiveGasPrice": "0x73c1bc72",
      "from": "0xdef12db2bd62f88c8d59807e0ce9868279fd7fef",
      "to": "0xf642166a50a99098a1a31eada5c5698c71baf8e5",
      "contractAddress": null
    },
    {
      "status": "0x1",
      "cumulativeGasUsed": "0xcf719c",
      "logs": [
        {
          "address": "0xf642166a50a99098a1a31eada5c5698c71baf8e5",
          "topics": [
            "0x92664190cca12aca9cd5309d87194bdda75bb51362d71c06e1a6f75c7c765711",
            "0x00000000000000000000000000000000000000000000000000000000000f4240",
            "0x0000000000000000000000000000000000000000000000000000000067abcfbc"
          ],
          "data": "0x",
          "blockHash": "0x0d62951de1a5b0a563f2feaddb8cdd2788f192845c6ec33ace7b1f56b39e6ee4",
          "blockNumber": "0x7551f7",
          "transactionHash": "0xa00b694bcf7766bce88aae4bc2e2da8873924c44d1d89ffba0fd6e99dbb4f9bc",
          "transactionIndex": "0x50",
          "logIndex": "0x62",
          "removed": false
        }
      ],
      "logsBloom": "0x00000000000000000000000000000000000000000000000000000000000000000000008000000000000000000000000000001000000000000000000000000000000000000000000000000000000000000000000000000000000000000000000000004000000010000000000000000000000200000000000000000000000000000000000000000000000000000010000000000000000000000000000000000000000000004000000000000000000002000000000000000000000000000000000000000000000000000000800000000002000000000004000000000000000000100000000000000000000000000000000000000000000000000000000000000000",
      "type": "0x2",
      "transactionHash": "0xa00b694bcf7766bce88aae4bc2e2da8873924c44d1d89ffba0fd6e99dbb4f9bc",
      "transactionIndex": "0x50",
      "blockHash": "0x0d62951de1a5b0a563f2feaddb8cdd2788f192845c6ec33ace7b1f56b39e6ee4",
      "blockNumber": "0x7551f7",
      "gasUsed": "0xcccc",
      "effectiveGasPrice": "0x73c1bc72",
      "from": "0xdef12db2bd62f88c8d59807e0ce9868279fd7fef",
      "to": "0xf642166a50a99098a1a31eada5c5698c71baf8e5",
      "contractAddress": null
    },
    {
      "status": "0x1",
      "cumulativeGasUsed": "0xd03a1c",
      "logs": [],
      "logsBloom": "0x00000000000000000000000000000000000000000000000000000000000000000000000000000000000000000000000000000000000000000000000000000000000000000000000000000000000000000000000000000000000000000000000000000000000000000000000000000000000000000000000000000000000000000000000000000000000000000000000000000000000000000000000000000000000000000000000000000000000000000000000000000000000000000000000000000000000000000000000000000000000000000000000000000000000000000000000000000000000000000000000000000000000000000000000000000000",
      "type": "0x2",
      "transactionHash": "0x11858409e7cf511bba2e54e364e90e6bca37884500cd9cf371f125c1abca8ffa",
      "transactionIndex": "0x51",
      "blockHash": "0x0d62951de1a5b0a563f2feaddb8cdd2788f192845c6ec33ace7b1f56b39e6ee4",
      "blockNumber": "0x7551f7",
      "gasUsed": "0xc880",
      "effectiveGasPrice": "0x73c1bc72",
      "from": "0xdef12db2bd62f88c8d59807e0ce9868279fd7fef",
      "to": "0xf642166a50a99098a1a31eada5c5698c71baf8e5",
      "contractAddress": null
    },
    {
      "status": "0x1",
      "cumulativeGasUsed": "0xd11019",
      "logs": [],
      "logsBloom": "0x00000000000000000000000000000000000000000000000000000000000000000000000000000000000000000000000000000000000000000000000000000000000000000000000000000000000000000000000000000000000000000000000000000000000000000000000000000000000000000000000000000000000000000000000000000000000000000000000000000000000000000000000000000000000000000000000000000000000000000000000000000000000000000000000000000000000000000000000000000000000000000000000000000000000000000000000000000000000000000000000000000000000000000000000000000000",
      "type": "0x2",
      "transactionHash": "0x77778d776268ae9cda81c04916946585553ab1e6bdc332a9d17fa96d34fd70f1",
      "transactionIndex": "0x53",
      "blockHash": "0x0d62951de1a5b0a563f2feaddb8cdd2788f192845c6ec33ace7b1f56b39e6ee4",
      "blockNumber": "0x7551f7",
      "gasUsed": "0x72f2",
      "effectiveGasPrice": "0x73c1bc72",
      "from": "0xdef12db2bd62f88c8d59807e0ce9868279fd7fef",
      "to": "0xf642166a50a99098a1a31eada5c5698c71baf8e5",
      "contractAddress": null
    },
    {
      "status": "0x1",
      "cumulativeGasUsed": "0xd1c532",
      "logs": [],
      "logsBloom": "0x00000000000000000000000000000000000000000000000000000000000000000000000000000000000000000000000000000000000000000000000000000000000000000000000000000000000000000000000000000000000000000000000000000000000000000000000000000000000000000000000000000000000000000000000000000000000000000000000000000000000000000000000000000000000000000000000000000000000000000000000000000000000000000000000000000000000000000000000000000000000000000000000000000000000000000000000000000000000000000000000000000000000000000000000000000000",
      "type": "0x2",
      "transactionHash": "0xcd55884eeea0c14f5fd04718400a4a19f396b10a5f49ef2af94765f615dcdd16",
      "transactionIndex": "0x54",
      "blockHash": "0x0d62951de1a5b0a563f2feaddb8cdd2788f192845c6ec33ace7b1f56b39e6ee4",
      "blockNumber": "0x7551f7",
      "gasUsed": "0xb519",
      "effectiveGasPrice": "0x73c1bc72",
      "from": "0xdef12db2bd62f88c8d59807e0ce9868279fd7fef",
      "to": "0xf642166a50a99098a1a31eada5c5698c71baf8e5",
      "contractAddress": null
    },
    {
      "status": "0x1",
      "cumulativeGasUsed": "0xd28a7d",
      "logs": [],
      "logsBloom": "0x00000000000000000000000000000000000000000000000000000000000000000000000000000000000000000000000000000000000000000000000000000000000000000000000000000000000000000000000000000000000000000000000000000000000000000000000000000000000000000000000000000000000000000000000000000000000000000000000000000000000000000000000000000000000000000000000000000000000000000000000000000000000000000000000000000000000000000000000000000000000000000000000000000000000000000000000000000000000000000000000000000000000000000000000000000000",
      "type": "0x2",
      "transactionHash": "0xca608d5bee4f82cc8a89db9d9243a5d0340772a707c3bdcb791eba16e13d4911",
      "transactionIndex": "0x56",
      "blockHash": "0x0d62951de1a5b0a563f2feaddb8cdd2788f192845c6ec33ace7b1f56b39e6ee4",
      "blockNumber": "0x7551f7",
      "gasUsed": "0x5fa3",
      "effectiveGasPrice": "0x73c1bc72",
      "from": "0xdef12db2bd62f88c8d59807e0ce9868279fd7fef",
      "to": "0xf642166a50a99098a1a31eada5c5698c71baf8e5",
      "contractAddress": null
    },
    {
      "status": "0x1",
      "cumulativeGasUsed": "0xd351b7",
      "logs": [],
      "logsBloom": "0x00000000000000000000000000000000000000000000000000000000000000000000000000000000000000000000000000000000000000000000000000000000000000000000000000000000000000000000000000000000000000000000000000000000000000000000000000000000000000000000000000000000000000000000000000000000000000000000000000000000000000000000000000000000000000000000000000000000000000000000000000000000000000000000000000000000000000000000000000000000000000000000000000000000000000000000000000000000000000000000000000000000000000000000000000000000",
      "type": "0x2",
      "transactionHash": "0xf67fbc40698cd1a49a9bab1335986c0dbbf966064a3089da971e56253aeb562c",
      "transactionIndex": "0x57",
      "blockHash": "0x0d62951de1a5b0a563f2feaddb8cdd2788f192845c6ec33ace7b1f56b39e6ee4",
      "blockNumber": "0x7551f7",
      "gasUsed": "0xc73a",
      "effectiveGasPrice": "0x73c1bc72",
      "from": "0xdef12db2bd62f88c8d59807e0ce9868279fd7fef",
      "to": "0xd500e4980296f62a5512b4e49d84bb2ec4e42725",
      "contractAddress": null
    },
    {
      "status": "0x1",
      "cumulativeGasUsed": "0xd418f3",
      "logs": [],
      "logsBloom": "0x00000000000000000000000000000000000000000000000000000000000000000000000000000000000000000000000000000000000000000000000000000000000000000000000000000000000000000000000000000000000000000000000000000000000000000000000000000000000000000000000000000000000000000000000000000000000000000000000000000000000000000000000000000000000000000000000000000000000000000000000000000000000000000000000000000000000000000000000000000000000000000000000000000000000000000000000000000000000000000000000000000000000000000000000000000000",
      "type": "0x2",
      "transactionHash": "0x222353955bf75834120d6ff4ff417ac500812fafa2c5533492480bdcda04ae5a",
      "transactionIndex": "0x58",
      "blockHash": "0x0d62951de1a5b0a563f2feaddb8cdd2788f192845c6ec33ace7b1f56b39e6ee4",
      "blockNumber": "0x7551f7",
      "gasUsed": "0xc73c",
      "effectiveGasPrice": "0x73c1bc72",
      "from": "0xdef12db2bd62f88c8d59807e0ce9868279fd7fef",
      "to": "0xd500e4980296f62a5512b4e49d84bb2ec4e42725",
      "contractAddress": null
    },
    {
      "status": "0x1",
      "cumulativeGasUsed": "0xd4dfea",
      "logs": [],
      "logsBloom": "0x00000000000000000000000000000000000000000000000000000000000000000000000000000000000000000000000000000000000000000000000000000000000000000000000000000000000000000000000000000000000000000000000000000000000000000000000000000000000000000000000000000000000000000000000000000000000000000000000000000000000000000000000000000000000000000000000000000000000000000000000000000000000000000000000000000000000000000000000000000000000000000000000000000000000000000000000000000000000000000000000000000000000000000000000000000000",
      "type": "0x2",
      "transactionHash": "0x069a1a726092f5d64595d195ad61eed2f623162258cc2ad316acb64df8056494",
      "transactionIndex": "0x59",
      "blockHash": "0x0d62951de1a5b0a563f2feaddb8cdd2788f192845c6ec33ace7b1f56b39e6ee4",
      "blockNumber": "0x7551f7",
      "gasUsed": "0xc6f7",
      "effectiveGasPrice": "0x73c1bc72",
      "from": "0xdef12db2bd62f88c8d59807e0ce9868279fd7fef",
      "to": "0xd500e4980296f62a5512b4e49d84bb2ec4e42725",
      "contractAddress": null
    },
    {
      "status": "0x1",
      "cumulativeGasUsed": "0xd5a6e2",
      "logs": [],
      "logsBloom": "0x00000000000000000000000000000000000000000000000000000000000000000000000000000000000000000000000000000000000000000000000000000000000000000000000000000000000000000000000000000000000000000000000000000000000000000000000000000000000000000000000000000000000000000000000000000000000000000000000000000000000000000000000000000000000000000000000000000000000000000000000000000000000000000000000000000000000000000000000000000000000000000000000000000000000000000000000000000000000000000000000000000000000000000000000000000000",
      "type": "0x2",
      "transactionHash": "0x6560dc95e0ac5ec91ef72e3051ae63c3034fcbffb60a7d9e22d283613a7fe495",
      "transactionIndex": "0x5a",
      "blockHash": "0x0d62951de1a5b0a563f2feaddb8cdd2788f192845c6ec33ace7b1f56b39e6ee4",
      "blockNumber": "0x7551f7",
      "gasUsed": "0xc6f8",
      "effectiveGasPrice": "0x73c1bc72",
      "from": "0xdef12db2bd62f88c8d59807e0ce9868279fd7fef",
      "to": "0xd500e4980296f62a5512b4e49d84bb2ec4e42725",
      "contractAddress": null
    },
    {
      "status": "0x1",
      "cumulativeGasUsed": "0xd66f8e",
      "logs": [],
      "logsBloom": "0x00000000000000000000000000000000000000000000000000000000000000000000000000000000000000000000000000000000000000000000000000000000000000000000000000000000000000000000000000000000000000000000000000000000000000000000000000000000000000000000000000000000000000000000000000000000000000000000000000000000000000000000000000000000000000000000000000000000000000000000000000000000000000000000000000000000000000000000000000000000000000000000000000000000000000000000000000000000000000000000000000000000000000000000000000000000",
      "type": "0x2",
      "transactionHash": "0xc1c5f39628d58957eddb78b098f3c2027e106126cc5032816722863abfbd6051",
      "transactionIndex": "0x5b",
      "blockHash": "0x0d62951de1a5b0a563f2feaddb8cdd2788f192845c6ec33ace7b1f56b39e6ee4",
      "blockNumber": "0x7551f7",
      "gasUsed": "0xc8ac",
      "effectiveGasPrice": "0x73c1bc72",
      "from": "0xdef12db2bd62f88c8d59807e0ce9868279fd7fef",
      "to": "0xd500e4980296f62a5512b4e49d84bb2ec4e42725",
      "contractAddress": null
    },
    {
      "status": "0x1",
      "cumulativeGasUsed": "0xd6e2ad",
      "logs": [],
      "logsBloom": "0x00000000000000000000000000000000000000000000000000000000000000000000000000000000000000000000000000000000000000000000000000000000000000000000000000000000000000000000000000000000000000000000000000000000000000000000000000000000000000000000000000000000000000000000000000000000000000000000000000000000000000000000000000000000000000000000000000000000000000000000000000000000000000000000000000000000000000000000000000000000000000000000000000000000000000000000000000000000000000000000000000000000000000000000000000000000",
      "type": "0x2",
      "transactionHash": "0x769e20e1dfea7c49fee4fc0a4db8b97441e23136d64f79f257ce35451f6de2c9",
      "transactionIndex": "0x5c",
      "blockHash": "0x0d62951de1a5b0a563f2feaddb8cdd2788f192845c6ec33ace7b1f56b39e6ee4",
      "blockNumber": "0x7551f7",
      "gasUsed": "0x731f",
      "effectiveGasPrice": "0x73c1bc72",
      "from": "0xdef12db2bd62f88c8d59807e0ce9868279fd7fef",
      "to": "0xd500e4980296f62a5512b4e49d84bb2ec4e42725",
      "contractAddress": null
    },
    {
      "status": "0x1",
      "cumulativeGasUsed": "0xd9006a",
      "logs": [],
      "logsBloom": "0x00000000000000000000000000000000000000000000000000000000000000000000000000000000000000000000000000000000000000000000000000000000000000000000000000000000000000000000000000000000000000000000000000000000000000000000000000000000000000000000000000000000000000000000000000000000000000000000000000000000000000000000000000000000000000000000000000000000000000000000000000000000000000000000000000000000000000000000000000000000000000000000000000000000000000000000000000000000000000000000000000000000000000000000000000000000",
      "type": "0x2",
      "transactionHash": "0xbd9864c60df735d5e343cc4dabda79021d0775b6be19dad71284addbebdc3400",
      "transactionIndex": "0x5f",
      "blockHash": "0x0d62951de1a5b0a563f2feaddb8cdd2788f192845c6ec33ace7b1f56b39e6ee4",
      "blockNumber": "0x7551f7",
      "gasUsed": "0xb519",
      "effectiveGasPrice": "0x73c1bc72",
      "from": "0xdef12db2bd62f88c8d59807e0ce9868279fd7fef",
      "to": "0xd500e4980296f62a5512b4e49d84bb2ec4e42725",
      "contractAddress": null
    },
    {
      "status": "0x1",
      "cumulativeGasUsed": "0xd9600d",
      "logs": [],
      "logsBloom": "0x00000000000000000000000000000000000000000000000000000000000000000000000000000000000000000000000000000000000000000000000000000000000000000000000000000000000000000000000000000000000000000000000000000000000000000000000000000000000000000000000000000000000000000000000000000000000000000000000000000000000000000000000000000000000000000000000000000000000000000000000000000000000000000000000000000000000000000000000000000000000000000000000000000000000000000000000000000000000000000000000000000000000000000000000000000000",
      "type": "0x2",
      "transactionHash": "0x0fe452fe471a1960e2f9808a5310b49109fe99c06cb580a6a3e8869a94dbe833",
      "transactionIndex": "0x60",
      "blockHash": "0x0d62951de1a5b0a563f2feaddb8cdd2788f192845c6ec33ace7b1f56b39e6ee4",
      "blockNumber": "0x7551f7",
      "gasUsed": "0x5fa3",
      "effectiveGasPrice": "0x73c1bc72",
      "from": "0xdef12db2bd62f88c8d59807e0ce9868279fd7fef",
      "to": "0xd500e4980296f62a5512b4e49d84bb2ec4e42725",
      "contractAddress": null
    },
    {
      "status": "0x1",
      "cumulativeGasUsed": "0xda286c",
      "logs": [],
      "logsBloom": "0x00000000000000000000000000000000000000000000000000000000000000000000000000000000000000000000000000000000000000000000000000000000000000000000000000000000000000000000000000000000000000000000000000000000000000000000000000000000000000000000000000000000000000000000000000000000000000000000000000000000000000000000000000000000000000000000000000000000000000000000000000000000000000000000000000000000000000000000000000000000000000000000000000000000000000000000000000000000000000000000000000000000000000000000000000000000",
      "type": "0x2",
      "transactionHash": "0xdbc6044bbdb87d1158e338384fff28112c5a670817176f30df9de0339a3318e3",
      "transactionIndex": "0x61",
      "blockHash": "0x0d62951de1a5b0a563f2feaddb8cdd2788f192845c6ec33ace7b1f56b39e6ee4",
      "blockNumber": "0x7551f7",
      "gasUsed": "0xc85f",
      "effectiveGasPrice": "0x73c1bc72",
      "from": "0xdef12db2bd62f88c8d59807e0ce9868279fd7fef",
      "to": "0x0188856f12f8f666adc055910e8129ac35cb2893",
      "contractAddress": null
    },
    {
      "status": "0x1",
      "cumulativeGasUsed": "0xda9b5e",
      "logs": [],
      "logsBloom": "0x00000000000000000000000000000000000000000000000000000000000000000000000000000000000000000000000000000000000000000000000000000000000000000000000000000000000000000000000000000000000000000000000000000000000000000000000000000000000000000000000000000000000000000000000000000000000000000000000000000000000000000000000000000000000000000000000000000000000000000000000000000000000000000000000000000000000000000000000000000000000000000000000000000000000000000000000000000000000000000000000000000000000000000000000000000000",
      "type": "0x2",
      "transactionHash": "0x3b81531fd7bb5c70fad0301f4718a548f88ced6af916dc7345899eb1b5327b10",
      "transactionIndex": "0x62",
      "blockHash": "0x0d62951de1a5b0a563f2feaddb8cdd2788f192845c6ec33ace7b1f56b39e6ee4",
      "blockNumber": "0x7551f7",
      "gasUsed": "0x72f2",
      "effectiveGasPrice": "0x73c1bc72",
      "from": "0xdef12db2bd62f88c8d59807e0ce9868279fd7fef",
      "to": "0x0188856f12f8f666adc055910e8129ac35cb2893",
      "contractAddress": null
    },
    {
      "status": "0x1",
      "cumulativeGasUsed": "0xdb5077",
      "logs": [],
      "logsBloom": "0x00000000000000000000000000000000000000000000000000000000000000000000000000000000000000000000000000000000000000000000000000000000000000000000000000000000000000000000000000000000000000000000000000000000000000000000000000000000000000000000000000000000000000000000000000000000000000000000000000000000000000000000000000000000000000000000000000000000000000000000000000000000000000000000000000000000000000000000000000000000000000000000000000000000000000000000000000000000000000000000000000000000000000000000000000000000",
      "type": "0x2",
      "transactionHash": "0x65034861a89c165d3971a5a162c567f6efafe486c116a73ac2322725a48fcb08",
      "transactionIndex": "0x63",
      "blockHash": "0x0d62951de1a5b0a563f2feaddb8cdd2788f192845c6ec33ace7b1f56b39e6ee4",
      "blockNumber": "0x7551f7",
      "gasUsed": "0xb519",
      "effectiveGasPrice": "0x73c1bc72",
      "from": "0xdef12db2bd62f88c8d59807e0ce9868279fd7fef",
      "to": "0x0188856f12f8f666adc055910e8129ac35cb2893",
      "contractAddress": null
    },
    {
      "status": "0x1",
      "cumulativeGasUsed": "0xdbb01a",
      "logs": [],
      "logsBloom": "0x00000000000000000000000000000000000000000000000000000000000000000000000000000000000000000000000000000000000000000000000000000000000000000000000000000000000000000000000000000000000000000000000000000000000000000000000000000000000000000000000000000000000000000000000000000000000000000000000000000000000000000000000000000000000000000000000000000000000000000000000000000000000000000000000000000000000000000000000000000000000000000000000000000000000000000000000000000000000000000000000000000000000000000000000000000000",
      "type": "0x2",
      "transactionHash": "0x0008aabe1494f3e46ae724e5dde3bdc39f4410abeb3187372c129fcbebe4c5a3",
      "transactionIndex": "0x64",
      "blockHash": "0x0d62951de1a5b0a563f2feaddb8cdd2788f192845c6ec33ace7b1f56b39e6ee4",
      "blockNumber": "0x7551f7",
      "gasUsed": "0x5fa3",
      "effectiveGasPrice": "0x73c1bc72",
      "from": "0xdef12db2bd62f88c8d59807e0ce9868279fd7fef",
      "to": "0x0188856f12f8f666adc055910e8129ac35cb2893",
      "contractAddress": null
    },
    {
      "status": "0x1",
      "cumulativeGasUsed": "0xdccc85",
      "logs": [],
      "logsBloom": "0x00000000000000000000000000000000000000000000000000000000000000000000000000000000000000000000000000000000000000000000000000000000000000000000000000000000000000000000000000000000000000000000000000000000000000000000000000000000000000000000000000000000000000000000000000000000000000000000000000000000000000000000000000000000000000000000000000000000000000000000000000000000000000000000000000000000000000000000000000000000000000000000000000000000000000000000000000000000000000000000000000000000000000000000000000000000",
      "type": "0x2",
      "transactionHash": "0xabaa14dd3fedfffb2465f12650acb40648dd634a8fd2433c3a0dc00663db90b3",
      "transactionIndex": "0x66",
      "blockHash": "0x0d62951de1a5b0a563f2feaddb8cdd2788f192845c6ec33ace7b1f56b39e6ee4",
      "blockNumber": "0x7551f7",
      "gasUsed": "0xc80f",
      "effectiveGasPrice": "0x73c1bc72",
      "from": "0xdef12db2bd62f88c8d59807e0ce9868279fd7fef",
      "to": "0x2b115e940d0071217964d665b6311c95517c14c4",
      "contractAddress": null
    },
    {
      "status": "0x1",
      "cumulativeGasUsed": "0xdd94bc",
      "logs": [],
      "logsBloom": "0x00000000000000000000000000000000000000000000000000000000000000000000000000000000000000000000000000000000000000000000000000000000000000000000000000000000000000000000000000000000000000000000000000000000000000000000000000000000000000000000000000000000000000000000000000000000000000000000000000000000000000000000000000000000000000000000000000000000000000000000000000000000000000000000000000000000000000000000000000000000000000000000000000000000000000000000000000000000000000000000000000000000000000000000000000000000",
      "type": "0x2",
      "transactionHash": "0xc7631bf1563f6cc7452affbbd7f8838818ffae7556bb2d043cc715d7860605e2",
      "transactionIndex": "0x67",
      "blockHash": "0x0d62951de1a5b0a563f2feaddb8cdd2788f192845c6ec33ace7b1f56b39e6ee4",
      "blockNumber": "0x7551f7",
      "gasUsed": "0xc837",
      "effectiveGasPrice": "0x73c1bc72",
      "from": "0xdef12db2bd62f88c8d59807e0ce9868279fd7fef",
      "to": "0x2b115e940d0071217964d665b6311c95517c14c4",
      "contractAddress": null
    },
    {
      "status": "0x1",
      "cumulativeGasUsed": "0xde5cf3",
      "logs": [],
      "logsBloom": "0x00000000000000000000000000000000000000000000000000000000000000000000000000000000000000000000000000000000000000000000000000000000000000000000000000000000000000000000000000000000000000000000000000000000000000000000000000000000000000000000000000000000000000000000000000000000000000000000000000000000000000000000000000000000000000000000000000000000000000000000000000000000000000000000000000000000000000000000000000000000000000000000000000000000000000000000000000000000000000000000000000000000000000000000000000000000",
      "type": "0x2",
      "transactionHash": "0xea904c661d2db6dc42f51fdcfa42f89b26429f7d4f4b785ba54e1bde54e5d627",
      "transactionIndex": "0x68",
      "blockHash": "0x0d62951de1a5b0a563f2feaddb8cdd2788f192845c6ec33ace7b1f56b39e6ee4",
      "blockNumber": "0x7551f7",
      "gasUsed": "0xc837",
      "effectiveGasPrice": "0x73c1bc72",
      "from": "0xdef12db2bd62f88c8d59807e0ce9868279fd7fef",
      "to": "0x2b115e940d0071217964d665b6311c95517c14c4",
      "contractAddress": null
    },
    {
      "status": "0x1",
      "cumulativeGasUsed": "0xdf25ac",
      "logs": [],
      "logsBloom": "0x00000000000000000000000000000000000000000000000000000000000000000000000000000000000000000000000000000000000000000000000000000000000000000000000000000000000000000000000000000000000000000000000000000000000000000000000000000000000000000000000000000000000000000000000000000000000000000000000000000000000000000000000000000000000000000000000000000000000000000000000000000000000000000000000000000000000000000000000000000000000000000000000000000000000000000000000000000000000000000000000000000000000000000000000000000000",
      "type": "0x2",
      "transactionHash": "0xbc2339ba2a68422ed2e8dc9c42cf04b873dfd957fafa593497e335c7a32445b9",
      "transactionIndex": "0x69",
      "blockHash": "0x0d62951de1a5b0a563f2feaddb8cdd2788f192845c6ec33ace7b1f56b39e6ee4",
      "blockNumber": "0x7551f7",
      "gasUsed": "0xc8b9",
      "effectiveGasPrice": "0x73c1bc72",
      "from": "0xdef12db2bd62f88c8d59807e0ce9868279fd7fef",
      "to": "0x2b115e940d0071217964d665b6311c95517c14c4",
      "contractAddress": null
    },
    {
      "status": "0x1",
      "cumulativeGasUsed": "0xdf98ee",
      "logs": [],
      "logsBloom": "0x00000000000000000000000000000000000000000000000000000000000000000000000000000000000000000000000000000000000000000000000000000000000000000000000000000000000000000000000000000000000000000000000000000000000000000000000000000000000000000000000000000000000000000000000000000000000000000000000000000000000000000000000000000000000000000000000000000000000000000000000000000000000000000000000000000000000000000000000000000000000000000000000000000000000000000000000000000000000000000000000000000000000000000000000000000000",
      "type": "0x2",
      "transactionHash": "0xc6acdc9391d07cb8520163513926cf3f95ba955c873b8a11f130bce9ac6f75ce",
      "transactionIndex": "0x6a",
      "blockHash": "0x0d62951de1a5b0a563f2feaddb8cdd2788f192845c6ec33ace7b1f56b39e6ee4",
      "blockNumber": "0x7551f7",
      "gasUsed": "0x7342",
      "effectiveGasPrice": "0x73c1bc72",
      "from": "0xdef12db2bd62f88c8d59807e0ce9868279fd7fef",
      "to": "0x2b115e940d0071217964d665b6311c95517c14c4",
      "contractAddress": null
    },
    {
      "status": "0x1",
      "cumulativeGasUsed": "0xe04e07",
      "logs": [],
      "logsBloom": "0x00000000000000000000000000000000000000000000000000000000000000000000000000000000000000000000000000000000000000000000000000000000000000000000000000000000000000000000000000000000000000000000000000000000000000000000000000000000000000000000000000000000000000000000000000000000000000000000000000000000000000000000000000000000000000000000000000000000000000000000000000000000000000000000000000000000000000000000000000000000000000000000000000000000000000000000000000000000000000000000000000000000000000000000000000000000",
      "type": "0x2",
      "transactionHash": "0x1d406c457c76087c5c759f45d61f0892dc3a079e1700c93e5856a04c933ebdc8",
      "transactionIndex": "0x6b",
      "blockHash": "0x0d62951de1a5b0a563f2feaddb8cdd2788f192845c6ec33ace7b1f56b39e6ee4",
      "blockNumber": "0x7551f7",
      "gasUsed": "0xb519",
      "effectiveGasPrice": "0x73c1bc72",
      "from": "0xdef12db2bd62f88c8d59807e0ce9868279fd7fef",
      "to": "0x2b115e940d0071217964d665b6311c95517c14c4",
      "contractAddress": null
    },
    {
      "status": "0x1",
      "cumulativeGasUsed": "0xe0adaa",
      "logs": [],
      "logsBloom": "0x00000000000000000000000000000000000000000000000000000000000000000000000000000000000000000000000000000000000000000000000000000000000000000000000000000000000000000000000000000000000000000000000000000000000000000000000000000000000000000000000000000000000000000000000000000000000000000000000000000000000000000000000000000000000000000000000000000000000000000000000000000000000000000000000000000000000000000000000000000000000000000000000000000000000000000000000000000000000000000000000000000000000000000000000000000000",
      "type": "0x2",
      "transactionHash": "0x7acd64f5c107a2a64425016fd830b36d4423670aebbfe847c7598b0a557e82f1",
      "transactionIndex": "0x6c",
      "blockHash": "0x0d62951de1a5b0a563f2feaddb8cdd2788f192845c6ec33ace7b1f56b39e6ee4",
      "blockNumber": "0x7551f7",
      "gasUsed": "0x5fa3",
      "effectiveGasPrice": "0x73c1bc72",
      "from": "0xdef12db2bd62f88c8d59807e0ce9868279fd7fef",
      "to": "0x2b115e940d0071217964d665b6311c95517c14c4",
      "contractAddress": null
    }
  ],
  "libraries": [],
  "pending": [],
  "returns": {},
  "timestamp": 1739313259,
  "chain": 11155111,
  "commit": "c423f15"
}