{
  "transactions": [
    {
      "hash": "0x2e4a7dc00094e4c188c4761f54f88597f6beb069292420a87d907acfd7bc10b9",
      "transactionType": "CREATE",
      "contractName": null,
      "contractAddress": "0xeccdbb4985a1fe96ed06a8a0000bbb233cbbaf8b",
      "function": null,
      "arguments": null,
      "transaction": {
        "from": "0xdef12db2bd62f88c8d59807e0ce9868279fd7fef",
        "gas": "0xb96d5",
        "value": "0x0",
        "input": "0x608060405234801561000f575f5ffd5b5060408051808201909152600a81526915195d1a195c881554d160b21b602082015260039061003e9082610116565b50604080518082019091526004808252631554d11560e21b6020830152906100669082610116565b50600580546001600160a01b031916331790556101d0565b634e487b7160e01b5f52604160045260245ffd5b600181811c908216806100a657607f821691505b6020821081036100c457634e487b7160e01b5f52602260045260245ffd5b50919050565b601f82111561011157805f5260205f20601f840160051c810160208510156100ef5750805b601f840160051c820191505b8181101561010e575f81556001016100fb565b50505b505050565b81516001600160401b0381111561012f5761012f61007e565b6101438161013d8454610092565b846100ca565b6020601f821160018114610175575f831561015e5750848201515b5f19600385901b1c1916600184901b17845561010e565b5f84815260208120601f198516915b828110156101a45787850151825560209485019460019092019101610184565b50848210156101c157868401515f19600387901b60f8161c191681555b50505050600190811b01905550565b610844806101dd5f395ff3fe608060405234801561000f575f5ffd5b50600436106100f0575f3560e01c806370a0823111610093578063daea85c511610063578063daea85c514610244578063dd62ed3e14610257578063f9f92be414610281578063fcf4b4aa146102a3575f5ffd5b806370a08231146101c55780638da5cb5b146101e457806395d89b4114610229578063a9059cbb14610231575f5ffd5b806323b872dd116100ce57806323b872dd1461014b578063313ce5671461016057806340c10f191461017a57806359bf1abe1461018d575f5ffd5b806306fdde03146100f4578063095ea7b31461011257806318160ddd14610135575b5f5ffd5b6100fc610306565b6040516101099190610603565b60405180910390f35b61012561012036600461067e565b610392565b6040519015158152602001610109565b61013d5f5481565b604051908152602001610109565b61015e6101593660046106a6565b6103cd565b005b610168600681565b60405160ff9091168152602001610109565b61015e61018836600461067e565b6104d7565b61012561019b3660046106e0565b73ffffffffffffffffffffffffffffffffffffffff165f9081526006602052604090205460ff1690565b61013d6101d33660046106e0565b60016020525f908152604090205481565b6005546102049073ffffffffffffffffffffffffffffffffffffffff1681565b60405173ffffffffffffffffffffffffffffffffffffffff9091168152602001610109565b6100fc61056a565b61015e61023f36600461067e565b610577565b6101256102523660046106e0565b6105c8565b61013d610265366004610700565b600260209081525f928352604080842090915290825290205481565b61012561028f3660046106e0565b60066020525f908152604090205460ff1681565b61015e6102b1366004610731565b73ffffffffffffffffffffffffffffffffffffffff919091165f90815260066020526040902080547fffffffffffffffffffffffffffffffffffffffffffffffffffffffffffffff0016911515919091179055565b600380546103139061076a565b80601f016020809104026020016040519081016040528092919081815260200182805461033f9061076a565b801561038a5780601f106103615761010080835404028352916020019161038a565b820191905f5260205f20905b81548152906001019060200180831161036d57829003601f168201915b505050505081565b335f90815260026020908152604080832073ffffffffffffffffffffffffffffffffffffffff86168452909152902081905560015b92915050565b73ffffffffffffffffffffffffffffffffffffffff83165f9081526002602090815260408083203384529091529020547fffffffffffffffffffffffffffffffffffffffffffffffffffffffffffffffff811461045f5761042e82826107e8565b73ffffffffffffffffffffffffffffffffffffffff85165f9081526002602090815260408083203384529091529020555b73ffffffffffffffffffffffffffffffffffffffff84165f90815260016020526040812080548492906104939084906107e8565b909155505073ffffffffffffffffffffffffffffffffffffffff83165f90815260016020526040812080548492906104cc9084906107fb565b909155505050505050565b60055473ffffffffffffffffffffffffffffffffffffffff16331461055c576040517f08c379a000000000000000000000000000000000000000000000000000000000815260206004820152601d60248201527f4d6f636b555344543a206f6e6c79206f776e65722063616e206d696e74000000604482015260640160405180910390fd5b61056682826105f3565b5050565b600480546103139061076a565b335f90815260016020526040812080548392906105959084906107e8565b909155505073ffffffffffffffffffffffffffffffffffffffff9091165f90815260016020526040902080549091019055565b5f6103c7827fffffffffffffffffffffffffffffffffffffffffffffffffffffffffffffffff610392565b805f5f82825461059591906107fb565b602081525f82518060208401528060208501604085015e5f6040828501015260407fffffffffffffffffffffffffffffffffffffffffffffffffffffffffffffffe0601f83011684010191505092915050565b803573ffffffffffffffffffffffffffffffffffffffff81168114610679575f5ffd5b919050565b5f5f6040838503121561068f575f5ffd5b61069883610656565b946020939093013593505050565b5f5f5f606084860312156106b8575f5ffd5b6106c184610656565b92506106cf60208501610656565b929592945050506040919091013590565b5f602082840312156106f0575f5ffd5b6106f982610656565b9392505050565b5f5f60408385031215610711575f5ffd5b61071a83610656565b915061072860208401610656565b90509250929050565b5f5f60408385031215610742575f5ffd5b61074b83610656565b91506020830135801515811461075f575f5ffd5b809150509250929050565b600181811c9082168061077e57607f821691505b6020821081036107b5577f4e487b71000000000000000000000000000000000000000000000000000000005f52602260045260245ffd5b50919050565b7f4e487b71000000000000000000000000000000000000000000000000000000005f52601160045260245ffd5b818103818111156103c7576103c76107bb565b808201808211156103c7576103c76107bb56fea2646970667358221220cea7288b57a7c2518893682aaeab4296b4a0c65116b292103633b4455bbffcb164736f6c634300081c0033",
        "nonce": "0x6d",
        "chainId": "0xaa36a7"
      },
      "additionalContracts": [],
      "isFixedGasLimit": false
    },
    {
      "hash": "0xbb9fe1558b0527a97d4c067508cdbdabe54c87efa79615cd7492de0b99357e43",
      "transactionType": "CALL",
      "contractName": null,
      "contractAddress": "0xeccdbb4985a1fe96ed06a8a0000bbb233cbbaf8b",
      "function": "mint(address,uint256)",
      "arguments": [
        "0xB05502bf20342331F42A7B80Aa4bAB3F8cA86C0F",
        "100000000000000"
      ],
      "transaction": {
        "from": "0xdef12db2bd62f88c8d59807e0ce9868279fd7fef",
        "to": "0xeccdbb4985a1fe96ed06a8a0000bbb233cbbaf8b",
        "gas": "0x171dc",
        "value": "0x0",
        "input": "0x40c10f19000000000000000000000000b05502bf20342331f42a7b80aa4bab3f8ca86c0f00000000000000000000000000000000000000000000000000005af3107a4000",
        "nonce": "0x6e",
        "chainId": "0xaa36a7"
      },
      "additionalContracts": [],
      "isFixedGasLimit": false
    },
    {
      "hash": "0x0f9d284f33613aef8f3bf452ab6774f1e04e1df8132465dccac0fa630dde136e",
      "transactionType": "CREATE",
      "contractName": null,
      "contractAddress": "0x3d81a117ae833f69bd9d3b091d19b4ee21df3075",
      "function": null,
      "arguments": null,
      "transaction": {
        "from": "0xdef12db2bd62f88c8d59807e0ce9868279fd7fef",
        "gas": "0xd3e2d",
        "value": "0x0",
        "input": "0x6080604052348015600e575f5ffd5b50601633601a565b6081565b607e7f27ad9db40d40315deb7c9733dae204372b3012815db31bb8e8e56d6c68d6ac248260405160200160609291909182526001600160a01b0316602082015260400190565b60408051601f19818403018152919052805160209091012060019055565b50565b610abd8061008e5f395ff3fe608060405234801561000f575f5ffd5b50600436106100b9575f3560e01c806365fae35e116100725780639c52a7f1116100585780639c52a7f114610153578063bf353dbb14610166578063e9b674b914610179575f5ffd5b806365fae35e146101385780638456cb591461014b575f5ffd5b806332145f90116100a257806332145f90146100f557806357de26a41461010a5780635c975abb14610120575f5ffd5b806306fdde03146100bd578063313ce567146100db575b5f5ffd5b6100c561018c565b6040516100d2919061090d565b60405180910390f35b6100e36101bc565b60405160ff90911681526020016100d2565b610108610103366004610960565b6101e6565b005b610112610286565b6040519081526020016100d2565b6101286102b0565b60405190151581526020016100d2565b610108610146366004610977565b6102ea565b61010861036c565b610108610161366004610977565b6103f0565b610112610174366004610977565b610472565b6101086101873660046109b1565b6104ce565b60606101b77f9bc13b9bea85446242b96c637f96a994030a999e4a37800a69c2f798a672860b61069d565b905090565b5f6101b77fa5c4b505b3328f1f7b143b7cbfe5c1d30e20856c207cab51443a27fedf5d63166106af565b604080517f27ad9db40d40315deb7c9733dae204372b3012815db31bb8e8e56d6c68d6ac246020820152339181019190915261023a906060015b604051602081830303815290604052805190602001205490565b60011461027a576040517f4a0bfec10000000000000000000000000000000000000000000000000000000081523360048201526024015b60405180910390fd5b610283816106b8565b50565b5f6101b77f0f6e463d71d43f924715baa2688119392f80a313b4437e6945310d50dba6177a6106af565b5f6102da7f0f6e463d71d43f924715baa2688119392f80a313b4437e6945310d50dba6177a6106af565b156102e457505f90565b50600190565b604080517f27ad9db40d40315deb7c9733dae204372b3012815db31bb8e8e56d6c68d6ac246020820152339181019190915261032890606001610220565b600114610363576040517f4a0bfec1000000000000000000000000000000000000000000000000000000008152336004820152602401610271565b61028381610710565b604080517f27ad9db40d40315deb7c9733dae204372b3012815db31bb8e8e56d6c68d6ac24602082015233918101919091526103aa90606001610220565b6001146103e5576040517f4a0bfec1000000000000000000000000000000000000000000000000000000008152336004820152602401610271565b6103ee5f6106b8565b565b604080517f27ad9db40d40315deb7c9733dae204372b3012815db31bb8e8e56d6c68d6ac246020820152339181019190915261042e90606001610220565b600114610469576040517f4a0bfec1000000000000000000000000000000000000000000000000000000008152336004820152602401610271565b61028381610783565b5f6104c87f27ad9db40d40315deb7c9733dae204372b3012815db31bb8e8e56d6c68d6ac248360405160200161022092919091825273ffffffffffffffffffffffffffffffffffffffff16602082015260400190565b92915050565b604080517f27ad9db40d40315deb7c9733dae204372b3012815db31bb8e8e56d6c68d6ac246020820152339181019190915261050c90606001610220565b600114610547576040517f4a0bfec1000000000000000000000000000000000000000000000000000000008152336004820152602401610271565b817f70726963650000000000000000000000000000000000000000000000000000000361057c57610577816106b8565b61065f565b817f6e616d6500000000000000000000000000000000000000000000000000000000036105cc576105777f9bc13b9bea85446242b96c637f96a994030a999e4a37800a69c2f798a672860b829055565b817f646563696d616c730000000000000000000000000000000000000000000000001480156105fc575060128111155b1561062a576105777fa5c4b505b3328f1f7b143b7cbfe5c1d30e20856c207cab51443a27fedf5d6316829055565b6040517f35802fa300000000000000000000000000000000000000000000000000000000815260048101829052602401610271565b817f943a793c11a909d4409e7706d8c3d1467960e08f6141234950042994856812df8260405161069191815260200190565b60405180910390a25050565b60606104c86106aa835490565b6107f5565b5f6104c8825490565b6106e17f0f6e463d71d43f924715baa2688119392f80a313b4437e6945310d50dba6177a829055565b604051429082907f92664190cca12aca9cd5309d87194bdda75bb51362d71c06e1a6f75c7c765711905f90a350565b6102837f27ad9db40d40315deb7c9733dae204372b3012815db31bb8e8e56d6c68d6ac248260405160200161076592919091825273ffffffffffffffffffffffffffffffffffffffff16602082015260400190565b6040516020818303038152906040528051906020012060015f1b9055565b6102837f27ad9db40d40315deb7c9733dae204372b3012815db31bb8e8e56d6c68d6ac24826040516020016107d892919091825273ffffffffffffffffffffffffffffffffffffffff16602082015260400190565b604051602081830303815290604052805190602001205f5f1b9055565b60605f5b60208110801561083f5750828160208110610816576108166109d1565b1a60f81b7fff000000000000000000000000000000000000000000000000000000000000001615155b15610856578061084e816109fe565b9150506107f9565b5f8167ffffffffffffffff81111561087057610870610a5a565b6040519080825280601f01601f19166020018201604052801561089a576020820181803683370190505b5090505f5b82811015610905578481602081106108b9576108b96109d1565b1a60f81b8282815181106108cf576108cf6109d1565b60200101907effffffffffffffffffffffffffffffffffffffffffffffffffffffffffffff191690815f1a90535060010161089f565b509392505050565b602081525f82518060208401528060208501604085015e5f6040828501015260407fffffffffffffffffffffffffffffffffffffffffffffffffffffffffffffffe0601f83011684010191505092915050565b5f60208284031215610970575f5ffd5b5035919050565b5f60208284031215610987575f5ffd5b813573ffffffffffffffffffffffffffffffffffffffff811681146109aa575f5ffd5b9392505050565b5f5f604083850312156109c2575f5ffd5b50508035926020909101359150565b7f4e487b71000000000000000000000000000000000000000000000000000000005f52603260045260245ffd5b5f7fffffffffffffffffffffffffffffffffffffffffffffffffffffffffffffffff8203610a53577f4e487b71000000000000000000000000000000000000000000000000000000005f52601160045260245ffd5b5060010190565b7f4e487b71000000000000000000000000000000000000000000000000000000005f52604160045260245ffdfea2646970667358221220f47e893fe014c9943d86093238d528dd304df0853d485fd0cd408e3f735de62564736f6c634300081c0033",
        "nonce": "0x6f",
        "chainId": "0xaa36a7"
      },
      "additionalContracts": [],
      "isFixedGasLimit": false
    },
    {
      "hash": "0x7ff7213bc821fcb862433367fddde5438821bace033949b2c149881bfd0972f9",
      "transactionType": "CREATE",
      "contractName": null,
      "contractAddress": "0xb890953c3d75eeaf6507985ccdf7addd595e86cd",
      "function": null,
      "arguments": null,
      "transaction": {
        "from": "0xdef12db2bd62f88c8d59807e0ce9868279fd7fef",
        "gas": "0x7326c",
        "value": "0x0",
        "input": "0x608060405234801561000f575f5ffd5b506040516105ec3803806105ec83398101604081905261002e91610168565b610039336001610051565b610042336100b7565b61004b8161011d565b50610195565b5f7f312ed9ac9b839e579b0572e42b6b61a1d0e768aa92df633e58ace1e6a3633e79836040516020016100979291909182526001600160a01b0316602082015260400190565b604051602081830303815290604052805190602001209050818155505050565b5f7f27ad9db40d40315deb7c9733dae204372b3012815db31bb8e8e56d6c68d6ac24826040516020016100fd9291909182526001600160a01b0316602082015260400190565b604051602081830303815290604052805190602001209050600181555050565b6001600160a01b038116610144576040516318ce8b9560e31b815260040160405180910390fd5b7f0e4c00c0fe9fb028e73dd325b95165d8884bc26853613a6b5131a12effdd8ddd55565b5f60208284031215610178575f5ffd5b81516001600160a01b038116811461018e575f5ffd5b9392505050565b61044a806101a25f395ff3fe608060405234801561000f575f5ffd5b5060043610610065575f3560e01c8063266a164a1161004e578063266a164a146100d957806360cd9853146100ec5780638abf60771461011257610065565b8063048046c1146100b35780630715940e146100c6575b5f61008e7f0e4c00c0fe9fb028e73dd325b95165d8884bc26853613a6b5131a12effdd8ddd5490565b9050604051365f82375f5f3683855af43d5f833e8080156100ad573d83f35b3d83fd5b005b6100b16100c13660046103da565b61013f565b6100b16100d43660046103da565b61018d565b6100b16100e73660046103da565b6101d9565b6100ff6100fa3660046103da565b610226565b6040519081526020015b60405180910390f35b61011a610236565b60405173ffffffffffffffffffffffffffffffffffffffff9091168152602001610109565b61014833610264565b600114610181576040517fea8e4eb500000000000000000000000000000000000000000000000000000000815260040160405180910390fd5b61018a816102f6565b50565b61019633610264565b6001146101cf576040517fea8e4eb500000000000000000000000000000000000000000000000000000000815260040160405180910390fd5b61018a815f610367565b6101e233610264565b60011461021b576040517fea8e4eb500000000000000000000000000000000000000000000000000000000815260040160405180910390fd5b61018a816001610367565b5f61023082610264565b92915050565b5f61025f7f0e4c00c0fe9fb028e73dd325b95165d8884bc26853613a6b5131a12effdd8ddd5490565b905090565b5f5f7f312ed9ac9b839e579b0572e42b6b61a1d0e768aa92df633e58ace1e6a3633e79836040516020016102b892919091825273ffffffffffffffffffffffffffffffffffffffff16602082015260400190565b604080517fffffffffffffffffffffffffffffffffffffffffffffffffffffffffffffffe08184030181529190528051602090910120549392505050565b73ffffffffffffffffffffffffffffffffffffffff8116610343576040517fc6745ca800000000000000000000000000000000000000000000000000000000815260040160405180910390fd5b7f0e4c00c0fe9fb028e73dd325b95165d8884bc26853613a6b5131a12effdd8ddd55565b5f7f312ed9ac9b839e579b0572e42b6b61a1d0e768aa92df633e58ace1e6a3633e79836040516020016103ba92919091825273ffffffffffffffffffffffffffffffffffffffff16602082015260400190565b604051602081830303815290604052805190602001209050818155505050565b5f602082840312156103ea575f5ffd5b813573ffffffffffffffffffffffffffffffffffffffff8116811461040d575f5ffd5b939250505056fea26469706673582212200785485ad77ba3aaa277c004e29063fe9db3f9943f75962800ad028f720ea9e564736f6c634300081c00330000000000000000000000003d81a117ae833f69bd9d3b091d19b4ee21df3075",
        "nonce": "0x70",
        "chainId": "0xaa36a7"
      },
      "additionalContracts": [],
      "isFixedGasLimit": false
    },
    {
      "hash": "0x1c1c9751d6686a7b78a92893a6238d97c3d4043af635cf9fd428021b3f348bd6",
      "transactionType": "CREATE",
      "contractName": null,
      "contractAddress": "0x50f102d01cad306d4b3d2b3863e47aaf94ac7fd7",
      "function": null,
      "arguments": null,
      "transaction": {
        "from": "0xdef12db2bd62f88c8d59807e0ce9868279fd7fef",
        "gas": "0x158889",
        "value": "0x0",
        "input": "0x6080604052348015600e575f5ffd5b50601633601a565b6081565b607e7f27ad9db40d40315deb7c9733dae204372b3012815db31bb8e8e56d6c68d6ac248260405160200160609291909182526001600160a01b0316602082015260400190565b60408051601f19818403018152919052805160209091012060019055565b50565b6112618061008e5f395ff3fe608060405234801561000f575f5ffd5b50600436106101b0575f3560e01c806371ebdf4e116100f3578063a943dc6c11610093578063bf353dbb1161006e578063bf353dbb146102f4578063cb16262514610307578063e177246e1461030f578063fbd2524614610322575f5ffd5b8063a943dc6c146102dc578063bbec93fa146102e4578063bce6d672146102ec575f5ffd5b806398b836da116100ce57806398b836da146102b15780639c52a7f1146102b9578063a03738dc146102cc578063a07c7ce4146102d4575f5ffd5b806371ebdf4e146102835780637486bf471461029657806396574580146102a9575f5ffd5b80633fb362b41161015e57806359361d8e1161013957806359361d8e1461024d57806365fae35e146102605780636a42b8f8146102735780636c88d9e11461027b575f5ffd5b80633fb362b41461021a57806347786d37146102225780634bf365df14610235575f5ffd5b806329cbec1a1161018e57806329cbec1a146101f75780632c040527146101ff578063355274ea14610212575f5ffd5b80631447cdf9146101b4578063168ff4f9146101c957806329ae8114146101e4575b5f5ffd5b6101c76101c2366004611182565b610335565b005b6101d161041f565b6040519081526020015b60405180910390f35b6101c76101f2366004611199565b610441565b6101d1610673565b6101c761020d366004611182565b6106a2565b6101d161076e565b6101d1610798565b6101c7610230366004611182565b6107c2565b61023d610844565b60405190151581526020016101db565b6101c761025b366004611182565b610867565b6101c761026e3660046111b9565b610928565b6101d16109aa565b6101d16109d4565b6101c7610291366004611182565b6109de565b6101c76102a4366004611182565b610a9f565b6101d1610b6b565b6101d1610b95565b6101c76102c73660046111b9565b610bbe565b6101c7610c40565b61023d610cdf565b6101d1610cfa565b6101d1610d04565b6101d1610d0e565b6101d16103023660046111b9565b610d38565b6101d1610d94565b6101c761031d366004611182565b610dbe565b6101c7610330366004611182565b610e81565b604080517f27ad9db40d40315deb7c9733dae204372b3012815db31bb8e8e56d6c68d6ac2460208201523391810191909152610389906060015b604051602081830303815290604052805190602001205490565b6001146103c9576040517f4a0bfec10000000000000000000000000000000000000000000000000000000081523360048201526024015b60405180910390fd5b6103d7426301e133806111f3565b811115610413576040517f35802fa3000000000000000000000000000000000000000000000000000000008152600481018290526024016103c0565b61041c81610f4d565b50565b5f5f610429610673565b905042811015610439575f61043b565b805b91505090565b604080517f27ad9db40d40315deb7c9733dae204372b3012815db31bb8e8e56d6c68d6ac246020820152339181019190915261047f9060600161036f565b6001146104ba576040517f4a0bfec10000000000000000000000000000000000000000000000000000000081523360048201526024016103c0565b817f6f70656e6d696e74000000000000000000000000000000000000000000000000036104ee576104ea81610f76565b5050565b817f68616c746d696e740000000000000000000000000000000000000000000000000361051e576104ea81610f9f565b817f6f70656e6275726e0000000000000000000000000000000000000000000000000361054e576104ea81610f4d565b817f68616c746275726e0000000000000000000000000000000000000000000000000361057e576104ea81610fc8565b817f627073696e000000000000000000000000000000000000000000000000000000036105ae576104ea81610ff1565b817f6270736f75740000000000000000000000000000000000000000000000000000036105de576104ea81611019565b817f64656c61790000000000000000000000000000000000000000000000000000000361060e576104ea81611042565b817f63617000000000000000000000000000000000000000000000000000000000000361063e576104ea8161106b565b6040517f35802fa3000000000000000000000000000000000000000000000000000000008152600481018390526024016103c0565b5f61069d7f9c2ad2c21e274c8b57052f9f0ef73dd8f6e1d917d156e1368bb7cc739cf1f4b1611094565b905090565b604080517f27ad9db40d40315deb7c9733dae204372b3012815db31bb8e8e56d6c68d6ac24602082015233918101919091526106e09060600161036f565b60011461071b576040517f4a0bfec10000000000000000000000000000000000000000000000000000000081523360048201526024016103c0565b610729426301e133806111f3565b811115610765576040517f35802fa3000000000000000000000000000000000000000000000000000000008152600481018290526024016103c0565b61041c81610f9f565b5f61069d7ffe815a1457537bf82e07ec3b5db1045d325eb3ef476772d6651718df9eedb949611094565b5f61069d7ffcb92606a933a3a2fc95ea37ffc5f3cf5a7a2f3776ccd27ff295f4bc9846f3e6611094565b604080517f27ad9db40d40315deb7c9733dae204372b3012815db31bb8e8e56d6c68d6ac24602082015233918101919091526108009060600161036f565b60011461083b576040517f4a0bfec10000000000000000000000000000000000000000000000000000000081523360048201526024016103c0565b61041c8161106b565b5f61084d610d0e565b421015801561069d575061085f610d94565b421115905090565b604080517f27ad9db40d40315deb7c9733dae204372b3012815db31bb8e8e56d6c68d6ac24602082015233918101919091526108a59060600161036f565b6001146108e0576040517f4a0bfec10000000000000000000000000000000000000000000000000000000081523360048201526024016103c0565b61271081111561091f576040517f35802fa3000000000000000000000000000000000000000000000000000000008152600481018290526024016103c0565b61041c81610ff1565b604080517f27ad9db40d40315deb7c9733dae204372b3012815db31bb8e8e56d6c68d6ac24602082015233918101919091526109669060600161036f565b6001146109a1576040517f4a0bfec10000000000000000000000000000000000000000000000000000000081523360048201526024016103c0565b61041c8161109d565b5f61069d7f2cc253a4d93223d9477710a34eba641f870f2b7747513d319cd0e45cad5b95b3611094565b5f5f610429610d0e565b604080517f27ad9db40d40315deb7c9733dae204372b3012815db31bb8e8e56d6c68d6ac2460208201523391810191909152610a1c9060600161036f565b600114610a57576040517f4a0bfec10000000000000000000000000000000000000000000000000000000081523360048201526024016103c0565b612710811115610a96576040517f35802fa3000000000000000000000000000000000000000000000000000000008152600481018290526024016103c0565b61041c81611019565b604080517f27ad9db40d40315deb7c9733dae204372b3012815db31bb8e8e56d6c68d6ac2460208201523391810191909152610add9060600161036f565b600114610b18576040517f4a0bfec10000000000000000000000000000000000000000000000000000000081523360048201526024016103c0565b610b26426301e133806111f3565b811115610b62576040517f35802fa3000000000000000000000000000000000000000000000000000000008152600481018290526024016103c0565b61041c81610fc8565b5f61069d7ff6f62fd4da7bc2b32a6e1e65b29fc84ac47127fe667e702bfad2a308be5e31f3611094565b5f61069d7e157179f0e328e9155f0e7f3bacad2e41db42b1e0800a411a594382df7a1e64611094565b604080517f27ad9db40d40315deb7c9733dae204372b3012815db31bb8e8e56d6c68d6ac2460208201523391810191909152610bfc9060600161036f565b600114610c37576040517f4a0bfec10000000000000000000000000000000000000000000000000000000081523360048201526024016103c0565b61041c81611110565b604080517f27ad9db40d40315deb7c9733dae204372b3012815db31bb8e8e56d6c68d6ac2460208201523391810191909152610c7e9060600161036f565b600114610cb9576040517f4a0bfec10000000000000000000000000000000000000000000000000000000081523360048201526024016103c0565b610cc25f610f76565b610ccb5f610f9f565b610cd45f610f4d565b610cdd5f610fc8565b565b5f610ce8610673565b421015801561069d575061085f610798565b5f5f610429610d94565b5f5f610429610798565b5f61069d7fbe1a4dea2a7bf3bca8caa6d30da3b6665e2e170da688038ad0b7269f2e0ebf91611094565b5f610d8e7f27ad9db40d40315deb7c9733dae204372b3012815db31bb8e8e56d6c68d6ac248360405160200161036f92919091825273ffffffffffffffffffffffffffffffffffffffff16602082015260400190565b92915050565b5f61069d7fc6806e07b5185a5f2a4a279b21328cdfc10302bba8d637663c0af6df2ce3b5da611094565b604080517f27ad9db40d40315deb7c9733dae204372b3012815db31bb8e8e56d6c68d6ac2460208201523391810191909152610dfc9060600161036f565b600114610e37576040517f4a0bfec10000000000000000000000000000000000000000000000000000000081523360048201526024016103c0565b6301e13380811115610e78576040517f35802fa3000000000000000000000000000000000000000000000000000000008152600481018290526024016103c0565b61041c81611042565b604080517f27ad9db40d40315deb7c9733dae204372b3012815db31bb8e8e56d6c68d6ac2460208201523391810191909152610ebf9060600161036f565b600114610efa576040517f4a0bfec10000000000000000000000000000000000000000000000000000000081523360048201526024016103c0565b610f08426301e133806111f3565b811115610f44576040517f35802fa3000000000000000000000000000000000000000000000000000000008152600481018290526024016103c0565b61041c81610f76565b61041c7f9c2ad2c21e274c8b57052f9f0ef73dd8f6e1d917d156e1368bb7cc739cf1f4b1829055565b61041c7fbe1a4dea2a7bf3bca8caa6d30da3b6665e2e170da688038ad0b7269f2e0ebf91829055565b61041c7fc6806e07b5185a5f2a4a279b21328cdfc10302bba8d637663c0af6df2ce3b5da829055565b61041c7ffcb92606a933a3a2fc95ea37ffc5f3cf5a7a2f3776ccd27ff295f4bc9846f3e6829055565b61041c7e157179f0e328e9155f0e7f3bacad2e41db42b1e0800a411a594382df7a1e64829055565b61041c7ff6f62fd4da7bc2b32a6e1e65b29fc84ac47127fe667e702bfad2a308be5e31f3829055565b61041c7f2cc253a4d93223d9477710a34eba641f870f2b7747513d319cd0e45cad5b95b3829055565b61041c7ffe815a1457537bf82e07ec3b5db1045d325eb3ef476772d6651718df9eedb949829055565b5f610d8e825490565b61041c7f27ad9db40d40315deb7c9733dae204372b3012815db31bb8e8e56d6c68d6ac24826040516020016110f292919091825273ffffffffffffffffffffffffffffffffffffffff16602082015260400190565b6040516020818303038152906040528051906020012060015f1b9055565b61041c7f27ad9db40d40315deb7c9733dae204372b3012815db31bb8e8e56d6c68d6ac248260405160200161116592919091825273ffffffffffffffffffffffffffffffffffffffff16602082015260400190565b604051602081830303815290604052805190602001205f5f1b9055565b5f60208284031215611192575f5ffd5b5035919050565b5f5f604083850312156111aa575f5ffd5b50508035926020909101359150565b5f602082840312156111c9575f5ffd5b813573ffffffffffffffffffffffffffffffffffffffff811681146111ec575f5ffd5b9392505050565b80820180821115610d8e577f4e487b71000000000000000000000000000000000000000000000000000000005f52601160045260245ffdfea2646970667358221220f23336837f42f138d1da411dde0ddb9db82a200a8ee2baee1394aa9451b328dc64736f6c634300081c0033",
        "nonce": "0x71",
        "chainId": "0xaa36a7"
      },
      "additionalContracts": [],
      "isFixedGasLimit": false
    },
    {
      "hash": "0xb0d4d00d71ca6f5adc32cecc0811a60be1bcc14c782cb641a15857acb2f7d71c",
      "transactionType": "CREATE",
      "contractName": null,
      "contractAddress": "0xef429e630f5c174b3cfcfdef13b4cfdb96472aec",
      "function": null,
      "arguments": null,
      "transaction": {
        "from": "0xdef12db2bd62f88c8d59807e0ce9868279fd7fef",
        "gas": "0x7326c",
        "value": "0x0",
        "input": "0x608060405234801561000f575f5ffd5b506040516105ec3803806105ec83398101604081905261002e91610168565b610039336001610051565b610042336100b7565b61004b8161011d565b50610195565b5f7f312ed9ac9b839e579b0572e42b6b61a1d0e768aa92df633e58ace1e6a3633e79836040516020016100979291909182526001600160a01b0316602082015260400190565b604051602081830303815290604052805190602001209050818155505050565b5f7f27ad9db40d40315deb7c9733dae204372b3012815db31bb8e8e56d6c68d6ac24826040516020016100fd9291909182526001600160a01b0316602082015260400190565b604051602081830303815290604052805190602001209050600181555050565b6001600160a01b038116610144576040516318ce8b9560e31b815260040160405180910390fd5b7f0e4c00c0fe9fb028e73dd325b95165d8884bc26853613a6b5131a12effdd8ddd55565b5f60208284031215610178575f5ffd5b81516001600160a01b038116811461018e575f5ffd5b9392505050565b61044a806101a25f395ff3fe608060405234801561000f575f5ffd5b5060043610610065575f3560e01c8063266a164a1161004e578063266a164a146100d957806360cd9853146100ec5780638abf60771461011257610065565b8063048046c1146100b35780630715940e146100c6575b5f61008e7f0e4c00c0fe9fb028e73dd325b95165d8884bc26853613a6b5131a12effdd8ddd5490565b9050604051365f82375f5f3683855af43d5f833e8080156100ad573d83f35b3d83fd5b005b6100b16100c13660046103da565b61013f565b6100b16100d43660046103da565b61018d565b6100b16100e73660046103da565b6101d9565b6100ff6100fa3660046103da565b610226565b6040519081526020015b60405180910390f35b61011a610236565b60405173ffffffffffffffffffffffffffffffffffffffff9091168152602001610109565b61014833610264565b600114610181576040517fea8e4eb500000000000000000000000000000000000000000000000000000000815260040160405180910390fd5b61018a816102f6565b50565b61019633610264565b6001146101cf576040517fea8e4eb500000000000000000000000000000000000000000000000000000000815260040160405180910390fd5b61018a815f610367565b6101e233610264565b60011461021b576040517fea8e4eb500000000000000000000000000000000000000000000000000000000815260040160405180910390fd5b61018a816001610367565b5f61023082610264565b92915050565b5f61025f7f0e4c00c0fe9fb028e73dd325b95165d8884bc26853613a6b5131a12effdd8ddd5490565b905090565b5f5f7f312ed9ac9b839e579b0572e42b6b61a1d0e768aa92df633e58ace1e6a3633e79836040516020016102b892919091825273ffffffffffffffffffffffffffffffffffffffff16602082015260400190565b604080517fffffffffffffffffffffffffffffffffffffffffffffffffffffffffffffffe08184030181529190528051602090910120549392505050565b73ffffffffffffffffffffffffffffffffffffffff8116610343576040517fc6745ca800000000000000000000000000000000000000000000000000000000815260040160405180910390fd5b7f0e4c00c0fe9fb028e73dd325b95165d8884bc26853613a6b5131a12effdd8ddd55565b5f7f312ed9ac9b839e579b0572e42b6b61a1d0e768aa92df633e58ace1e6a3633e79836040516020016103ba92919091825273ffffffffffffffffffffffffffffffffffffffff16602082015260400190565b604051602081830303815290604052805190602001209050818155505050565b5f602082840312156103ea575f5ffd5b813573ffffffffffffffffffffffffffffffffffffffff8116811461040d575f5ffd5b939250505056fea26469706673582212200785485ad77ba3aaa277c004e29063fe9db3f9943f75962800ad028f720ea9e564736f6c634300081c003300000000000000000000000050f102d01cad306d4b3d2b3863e47aaf94ac7fd7",
        "nonce": "0x72",
        "chainId": "0xaa36a7"
      },
      "additionalContracts": [],
      "isFixedGasLimit": false
    },
    {
      "hash": "0xc61c875db60e8a6dd995910f699deb9a7d0ab6463ebdaee4c02c0d0da85436db",
      "transactionType": "CREATE",
      "contractName": null,
      "contractAddress": "0x0e4c9670e67378f5b0a4ecbf6bb3a5a5922bc742",
      "function": null,
      "arguments": null,
      "transaction": {
        "from": "0xdef12db2bd62f88c8d59807e0ce9868279fd7fef",
        "gas": "0x659c0",
        "value": "0x0",
        "input": "0x60a0604052348015600e575f5ffd5b50604051610554380380610554833981016040819052602b91603b565b6001600160a01b03166080526066565b5f60208284031215604a575f5ffd5b81516001600160a01b0381168114605f575f5ffd5b9392505050565b6080516104d06100845f395f81816082015261020c01526104d05ff3fe608060405234801561000f575f5ffd5b5060043610610064575f3560e01c806382c4b3b21161004d57806382c4b3b2146100ce5780639c52a7f1146100f1578063bf353dbb14610104575f5ffd5b806365fae35e1461006857806367e828bf1461007d575b5f5ffd5b61007b610076366004610441565b610125565b005b6100a47f000000000000000000000000000000000000000000000000000000000000000081565b60405173ffffffffffffffffffffffffffffffffffffffff90911681526020015b60405180910390f35b6100e16100dc366004610441565b6101c5565b60405190151581526020016100c5565b61007b6100ff366004610441565b61027e565b610117610112366004610441565b610300565b6040519081526020016100c5565b604080517f27ad9db40d40315deb7c9733dae204372b3012815db31bb8e8e56d6c68d6ac2460208201523391810191909152610179906060015b604051602081830303815290604052805190602001205490565b6001146101b9576040517f4a0bfec10000000000000000000000000000000000000000000000000000000081523360048201526024015b60405180910390fd5b6101c28161035c565b50565b6040517f59bf1abe00000000000000000000000000000000000000000000000000000000815273ffffffffffffffffffffffffffffffffffffffff82811660048301525f917f0000000000000000000000000000000000000000000000000000000000000000909116906359bf1abe90602401602060405180830381865afa158015610253573d5f5f3e3d5ffd5b505050506040513d601f19601f82011682018060405250810190610277919061047b565b1592915050565b604080517f27ad9db40d40315deb7c9733dae204372b3012815db31bb8e8e56d6c68d6ac24602082015233918101919091526102bc9060600161015f565b6001146102f7576040517f4a0bfec10000000000000000000000000000000000000000000000000000000081523360048201526024016101b0565b6101c2816103cf565b5f6103567f27ad9db40d40315deb7c9733dae204372b3012815db31bb8e8e56d6c68d6ac248360405160200161015f92919091825273ffffffffffffffffffffffffffffffffffffffff16602082015260400190565b92915050565b6101c27f27ad9db40d40315deb7c9733dae204372b3012815db31bb8e8e56d6c68d6ac24826040516020016103b192919091825273ffffffffffffffffffffffffffffffffffffffff16602082015260400190565b6040516020818303038152906040528051906020012060015f1b9055565b6101c27f27ad9db40d40315deb7c9733dae204372b3012815db31bb8e8e56d6c68d6ac248260405160200161042492919091825273ffffffffffffffffffffffffffffffffffffffff16602082015260400190565b604051602081830303815290604052805190602001205f5f1b9055565b5f60208284031215610451575f5ffd5b813573ffffffffffffffffffffffffffffffffffffffff81168114610474575f5ffd5b9392505050565b5f6020828403121561048b575f5ffd5b81518015158114610474575f5ffdfea26469706673582212201a66cb64cd859deb029fd3bbaeb107293ef1a9edf688839c7700ba03a9377c8d64736f6c634300081c0033000000000000000000000000eccdbb4985a1fe96ed06a8a0000bbb233cbbaf8b",
        "nonce": "0x73",
        "chainId": "0xaa36a7"
      },
      "additionalContracts": [],
      "isFixedGasLimit": false
    },
    {
      "hash": "0xe76dbaa46d95caf48c30aca8aa2a153f3db7e7b40bd4f319ed96cf5149a4a54d",
      "transactionType": "CREATE",
      "contractName": null,
      "contractAddress": "0xa7021153af414c5024133e9d2a22dede5d74d6ce",
      "function": null,
      "arguments": null,
      "transaction": {
        "from": "0xdef12db2bd62f88c8d59807e0ce9868279fd7fef",
        "gas": "0x7326c",
        "value": "0x0",
        "input": "0x608060405234801561000f575f5ffd5b506040516105ec3803806105ec83398101604081905261002e91610168565b610039336001610051565b610042336100b7565b61004b8161011d565b50610195565b5f7f312ed9ac9b839e579b0572e42b6b61a1d0e768aa92df633e58ace1e6a3633e79836040516020016100979291909182526001600160a01b0316602082015260400190565b604051602081830303815290604052805190602001209050818155505050565b5f7f27ad9db40d40315deb7c9733dae204372b3012815db31bb8e8e56d6c68d6ac24826040516020016100fd9291909182526001600160a01b0316602082015260400190565b604051602081830303815290604052805190602001209050600181555050565b6001600160a01b038116610144576040516318ce8b9560e31b815260040160405180910390fd5b7f0e4c00c0fe9fb028e73dd325b95165d8884bc26853613a6b5131a12effdd8ddd55565b5f60208284031215610178575f5ffd5b81516001600160a01b038116811461018e575f5ffd5b9392505050565b61044a806101a25f395ff3fe608060405234801561000f575f5ffd5b5060043610610065575f3560e01c8063266a164a1161004e578063266a164a146100d957806360cd9853146100ec5780638abf60771461011257610065565b8063048046c1146100b35780630715940e146100c6575b5f61008e7f0e4c00c0fe9fb028e73dd325b95165d8884bc26853613a6b5131a12effdd8ddd5490565b9050604051365f82375f5f3683855af43d5f833e8080156100ad573d83f35b3d83fd5b005b6100b16100c13660046103da565b61013f565b6100b16100d43660046103da565b61018d565b6100b16100e73660046103da565b6101d9565b6100ff6100fa3660046103da565b610226565b6040519081526020015b60405180910390f35b61011a610236565b60405173ffffffffffffffffffffffffffffffffffffffff9091168152602001610109565b61014833610264565b600114610181576040517fea8e4eb500000000000000000000000000000000000000000000000000000000815260040160405180910390fd5b61018a816102f6565b50565b61019633610264565b6001146101cf576040517fea8e4eb500000000000000000000000000000000000000000000000000000000815260040160405180910390fd5b61018a815f610367565b6101e233610264565b60011461021b576040517fea8e4eb500000000000000000000000000000000000000000000000000000000815260040160405180910390fd5b61018a816001610367565b5f61023082610264565b92915050565b5f61025f7f0e4c00c0fe9fb028e73dd325b95165d8884bc26853613a6b5131a12effdd8ddd5490565b905090565b5f5f7f312ed9ac9b839e579b0572e42b6b61a1d0e768aa92df633e58ace1e6a3633e79836040516020016102b892919091825273ffffffffffffffffffffffffffffffffffffffff16602082015260400190565b604080517fffffffffffffffffffffffffffffffffffffffffffffffffffffffffffffffe08184030181529190528051602090910120549392505050565b73ffffffffffffffffffffffffffffffffffffffff8116610343576040517fc6745ca800000000000000000000000000000000000000000000000000000000815260040160405180910390fd5b7f0e4c00c0fe9fb028e73dd325b95165d8884bc26853613a6b5131a12effdd8ddd55565b5f7f312ed9ac9b839e579b0572e42b6b61a1d0e768aa92df633e58ace1e6a3633e79836040516020016103ba92919091825273ffffffffffffffffffffffffffffffffffffffff16602082015260400190565b604051602081830303815290604052805190602001209050818155505050565b5f602082840312156103ea575f5ffd5b813573ffffffffffffffffffffffffffffffffffffffff8116811461040d575f5ffd5b939250505056fea26469706673582212200785485ad77ba3aaa277c004e29063fe9db3f9943f75962800ad028f720ea9e564736f6c634300081c00330000000000000000000000000e4c9670e67378f5b0a4ecbf6bb3a5a5922bc742",
        "nonce": "0x74",
        "chainId": "0xaa36a7"
      },
      "additionalContracts": [],
      "isFixedGasLimit": false
    },
    {
      "hash": "0x2e15a4eae9caee3104f7caba673b79626313652bc3cec15675285f34e80ba944",
      "transactionType": "CREATE",
      "contractName": null,
      "contractAddress": "0xfe35288e7c6261cac4e39889845f5a97442017e3",
      "function": null,
      "arguments": null,
      "transaction": {
        "from": "0xdef12db2bd62f88c8d59807e0ce9868279fd7fef",
        "gas": "0xeae73",
        "value": "0x0",
        "input": "0x6080604052348015600e575f5ffd5b50601633601a565b6081565b607e7f27ad9db40d40315deb7c9733dae204372b3012815db31bb8e8e56d6c68d6ac248260405160200160609291909182526001600160a01b0316602082015260400190565b60408051601f19818403018152919052805160209091012060019055565b50565b610c0e8061008e5f395ff3fe608060405234801561000f575f5ffd5b50600436106100c4575f3560e01c8063a3b22fc41161007d578063bf353dbb11610058578063bf353dbb1461018c578063dc4d20fa1461019f578063f29c29c4146101b2575f5ffd5b8063a3b22fc414610147578063bb35783b1461015a578063bc206b0a1461016d575f5ffd5b806365c4ce7a116100ad57806365c4ce7a1461010c57806365fae35e146101215780639c52a7f114610134575f5ffd5b8063322265a8146100c85780634fce7a2a146100ed575b5f5ffd5b6100db6100d6366004610b02565b6101c5565b60405190815260200160405180910390f35b6100db6100fb366004610b33565b60026020525f908152604090205481565b61011f61011a366004610b33565b61032c565b005b61011f61012f366004610b33565b6103e1565b61011f610142366004610b33565b610466565b61011f610155366004610b33565b6104e8565b6100db610168366004610b53565b61058a565b6100db61017b366004610b33565b60016020525f908152604090205481565b6100db61019a366004610b33565b610660565b61011f6101ad366004610b33565b6106bc565b61011f6101c0366004610b33565b61075b565b335f90815260016020819052604082205414610214576040517f76c6c93a0000000000000000000000000000000000000000000000000000000081523360048201526024015b60405180910390fd5b73ffffffffffffffffffffffffffffffffffffffff82165f90815260026020526040902054829060011461028c576040517f8e4c8aa600000000000000000000000000000000000000000000000000000000815273ffffffffffffffffffffffffffffffffffffffff8216600482015260240161020b565b6040517f70a0823100000000000000000000000000000000000000000000000000000000815230600482015273ffffffffffffffffffffffffffffffffffffffff8516906370a0823190602401602060405180830381865afa1580156102f4573d5f5f3e3d5ffd5b505050506040513d601f19601f820116820180604052508101906103189190610b8c565b91506103258484846107fd565b5092915050565b604080517f27ad9db40d40315deb7c9733dae204372b3012815db31bb8e8e56d6c68d6ac2460208201523391810191909152610380906060015b604051602081830303815290604052805190602001205490565b6001146103bb576040517f4a0bfec100000000000000000000000000000000000000000000000000000000815233600482015260240161020b565b73ffffffffffffffffffffffffffffffffffffffff165f90815260026020526040812055565b604080517f27ad9db40d40315deb7c9733dae204372b3012815db31bb8e8e56d6c68d6ac246020820152339181019190915261041f90606001610366565b60011461045a576040517f4a0bfec100000000000000000000000000000000000000000000000000000000815233600482015260240161020b565b610463816108b5565b50565b604080517f27ad9db40d40315deb7c9733dae204372b3012815db31bb8e8e56d6c68d6ac24602082015233918101919091526104a490606001610366565b6001146104df576040517f4a0bfec100000000000000000000000000000000000000000000000000000000815233600482015260240161020b565b61046381610928565b604080517f27ad9db40d40315deb7c9733dae204372b3012815db31bb8e8e56d6c68d6ac246020820152339181019190915261052690606001610366565b600114610561576040517f4a0bfec100000000000000000000000000000000000000000000000000000000815233600482015260240161020b565b73ffffffffffffffffffffffffffffffffffffffff165f90815260016020819052604090912055565b335f908152600160208190526040822054146105d4576040517f76c6c93a00000000000000000000000000000000000000000000000000000000815233600482015260240161020b565b73ffffffffffffffffffffffffffffffffffffffff83165f90815260026020526040902054839060011461064c576040517f8e4c8aa600000000000000000000000000000000000000000000000000000000815273ffffffffffffffffffffffffffffffffffffffff8216600482015260240161020b565b6106578585856107fd565b50909392505050565b5f6106b67f27ad9db40d40315deb7c9733dae204372b3012815db31bb8e8e56d6c68d6ac248360405160200161036692919091825273ffffffffffffffffffffffffffffffffffffffff16602082015260400190565b92915050565b604080517f27ad9db40d40315deb7c9733dae204372b3012815db31bb8e8e56d6c68d6ac24602082015233918101919091526106fa90606001610366565b600114610735576040517f4a0bfec100000000000000000000000000000000000000000000000000000000815233600482015260240161020b565b73ffffffffffffffffffffffffffffffffffffffff165f90815260016020526040812055565b604080517f27ad9db40d40315deb7c9733dae204372b3012815db31bb8e8e56d6c68d6ac246020820152339181019190915261079990606001610366565b6001146107d4576040517f4a0bfec100000000000000000000000000000000000000000000000000000000815233600482015260240161020b565b73ffffffffffffffffffffffffffffffffffffffff165f90815260026020526040902060019055565b73ffffffffffffffffffffffffffffffffffffffff831661084a576040517fd92e233d00000000000000000000000000000000000000000000000000000000815260040160405180910390fd5b61085583838361099a565b808273ffffffffffffffffffffffffffffffffffffffff168473ffffffffffffffffffffffffffffffffffffffff167fdeb3a6837278f6e9914a507e4d73f08e841d8fca434fb97d4307b3b0d3d6b10560405160405180910390a4505050565b6104637f27ad9db40d40315deb7c9733dae204372b3012815db31bb8e8e56d6c68d6ac248260405160200161090a92919091825273ffffffffffffffffffffffffffffffffffffffff16602082015260400190565b6040516020818303038152906040528051906020012060015f1b9055565b6104637f27ad9db40d40315deb7c9733dae204372b3012815db31bb8e8e56d6c68d6ac248260405160200161097d92919091825273ffffffffffffffffffffffffffffffffffffffff16602082015260400190565b604051602081830303815290604052805190602001205f5f1b9055565b6040805173ffffffffffffffffffffffffffffffffffffffff8481166024830152604480830185905283518084039091018152606490920183526020820180517bffffffffffffffffffffffffffffffffffffffffffffffffffffffff167fa9059cbb0000000000000000000000000000000000000000000000000000000017905291515f92839290871691610a309190610ba3565b5f604051808303815f865af19150503d805f8114610a69576040519150601f19603f3d011682016040523d82523d5f602084013e610a6e565b606091505b5091509150811580610a9c57505f8151118015610a9c575080806020019051810190610a9a9190610bb9565b155b15610ad3576040517f90b8ec1800000000000000000000000000000000000000000000000000000000815260040160405180910390fd5b5050505050565b803573ffffffffffffffffffffffffffffffffffffffff81168114610afd575f5ffd5b919050565b5f5f60408385031215610b13575f5ffd5b610b1c83610ada565b9150610b2a60208401610ada565b90509250929050565b5f60208284031215610b43575f5ffd5b610b4c82610ada565b9392505050565b5f5f5f60608486031215610b65575f5ffd5b610b6e84610ada565b9250610b7c60208501610ada565b9150604084013590509250925092565b5f60208284031215610b9c575f5ffd5b5051919050565b5f82518060208501845e5f920191825250919050565b5f60208284031215610bc9575f5ffd5b81518015158114610b4c575f5ffdfea2646970667358221220c6ea8ad0d045ca2298669673597b39ab616c3834fbb1ad8e11c215e95b9b2c2064736f6c634300081c0033",
        "nonce": "0x75",
        "chainId": "0xaa36a7"
      },
      "additionalContracts": [],
      "isFixedGasLimit": false
    },
    {
      "hash": "0xec0ee3838ccd748c555386938c7d5c801b4eac1fd00f007b8e42e94c2ce4fba3",
      "transactionType": "CREATE",
      "contractName": null,
      "contractAddress": "0xb61ef222013c3473fa8ec859770f323b1233f656",
      "function": null,
      "arguments": null,
      "transaction": {
        "from": "0xdef12db2bd62f88c8d59807e0ce9868279fd7fef",
        "gas": "0x7326c",
        "value": "0x0",
        "input": "0x608060405234801561000f575f5ffd5b506040516105ec3803806105ec83398101604081905261002e91610168565b610039336001610051565b610042336100b7565b61004b8161011d565b50610195565b5f7f312ed9ac9b839e579b0572e42b6b61a1d0e768aa92df633e58ace1e6a3633e79836040516020016100979291909182526001600160a01b0316602082015260400190565b604051602081830303815290604052805190602001209050818155505050565b5f7f27ad9db40d40315deb7c9733dae204372b3012815db31bb8e8e56d6c68d6ac24826040516020016100fd9291909182526001600160a01b0316602082015260400190565b604051602081830303815290604052805190602001209050600181555050565b6001600160a01b038116610144576040516318ce8b9560e31b815260040160405180910390fd5b7f0e4c00c0fe9fb028e73dd325b95165d8884bc26853613a6b5131a12effdd8ddd55565b5f60208284031215610178575f5ffd5b81516001600160a01b038116811461018e575f5ffd5b9392505050565b61044a806101a25f395ff3fe608060405234801561000f575f5ffd5b5060043610610065575f3560e01c8063266a164a1161004e578063266a164a146100d957806360cd9853146100ec5780638abf60771461011257610065565b8063048046c1146100b35780630715940e146100c6575b5f61008e7f0e4c00c0fe9fb028e73dd325b95165d8884bc26853613a6b5131a12effdd8ddd5490565b9050604051365f82375f5f3683855af43d5f833e8080156100ad573d83f35b3d83fd5b005b6100b16100c13660046103da565b61013f565b6100b16100d43660046103da565b61018d565b6100b16100e73660046103da565b6101d9565b6100ff6100fa3660046103da565b610226565b6040519081526020015b60405180910390f35b61011a610236565b60405173ffffffffffffffffffffffffffffffffffffffff9091168152602001610109565b61014833610264565b600114610181576040517fea8e4eb500000000000000000000000000000000000000000000000000000000815260040160405180910390fd5b61018a816102f6565b50565b61019633610264565b6001146101cf576040517fea8e4eb500000000000000000000000000000000000000000000000000000000815260040160405180910390fd5b61018a815f610367565b6101e233610264565b60011461021b576040517fea8e4eb500000000000000000000000000000000000000000000000000000000815260040160405180910390fd5b61018a816001610367565b5f61023082610264565b92915050565b5f61025f7f0e4c00c0fe9fb028e73dd325b95165d8884bc26853613a6b5131a12effdd8ddd5490565b905090565b5f5f7f312ed9ac9b839e579b0572e42b6b61a1d0e768aa92df633e58ace1e6a3633e79836040516020016102b892919091825273ffffffffffffffffffffffffffffffffffffffff16602082015260400190565b604080517fffffffffffffffffffffffffffffffffffffffffffffffffffffffffffffffe08184030181529190528051602090910120549392505050565b73ffffffffffffffffffffffffffffffffffffffff8116610343576040517fc6745ca800000000000000000000000000000000000000000000000000000000815260040160405180910390fd5b7f0e4c00c0fe9fb028e73dd325b95165d8884bc26853613a6b5131a12effdd8ddd55565b5f7f312ed9ac9b839e579b0572e42b6b61a1d0e768aa92df633e58ace1e6a3633e79836040516020016103ba92919091825273ffffffffffffffffffffffffffffffffffffffff16602082015260400190565b604051602081830303815290604052805190602001209050818155505050565b5f602082840312156103ea575f5ffd5b813573ffffffffffffffffffffffffffffffffffffffff8116811461040d575f5ffd5b939250505056fea26469706673582212200785485ad77ba3aaa277c004e29063fe9db3f9943f75962800ad028f720ea9e564736f6c634300081c0033000000000000000000000000fe35288e7c6261cac4e39889845f5a97442017e3",
        "nonce": "0x76",
        "chainId": "0xaa36a7"
      },
      "additionalContracts": [],
      "isFixedGasLimit": false
    },
    {
      "hash": "0xe5c18f993f1ee7863d6a07412aa1c95565b948822b1c8c8d1bcf057e3d40ca32",
      "transactionType": "CREATE",
      "contractName": "MaseerOne",
      "contractAddress": "0xa50def40e38cb26aff71b0dbbaaa6912b558d21e",
      "function": null,
      "arguments": [
        "0xeCCDbB4985a1FE96eD06a8A0000bBb233CBbAf8B",
        "0xb890953c3d75Eeaf6507985CCdf7Addd595E86cD",
        "0xeF429E630F5C174B3CfcFdEf13b4cfDb96472AEc",
        "0xa7021153AF414C5024133e9d2A22dede5d74d6ce",
        "0xB61eF222013c3473fa8eC859770F323b1233f656",
        "Cana",
        "CANA"
      ],
      "transaction": {
        "from": "0xdef12db2bd62f88c8d59807e0ce9868279fd7fef",
        "gas": "0x2cccf5",
        "value": "0x0",
        "input": "0x610160604052348015610010575f5ffd5b50604051612c0e380380612c0e83398101604081905261002f916101f5565b8181600361003d838261032f565b50600461004a828261032f565b504660a052610057610089565b6080525050506001600160a01b0395861660c0525092841660e05290831661010052821661012052166101405261045a565b5f7f8b73c3c69bb8fe3d512ecc4cf759cc79239f7b179b0ffacaa9a75d522b39400f60036040516100ba91906103e9565b60408051918290038220828201825260018352603160f81b60209384015260a08051835194850195909552918301527fc89efdaa54c0f20c7adf612882df0950f5a951637e0307cdcb4c672f298b8bc660608301526080820192909252309181019190915260c00160405160208183030381529060405280519060200120905090565b80516001600160a01b0381168114610153575f5ffd5b919050565b634e487b7160e01b5f52604160045260245ffd5b5f82601f83011261017b575f5ffd5b81516001600160401b0381111561019457610194610158565b604051601f8201601f19908116603f011681016001600160401b03811182821017156101c2576101c2610158565b6040528181528382016020018510156101d9575f5ffd5b8160208501602083015e5f918101602001919091529392505050565b5f5f5f5f5f5f5f60e0888a03121561020b575f5ffd5b6102148861013d565b96506102226020890161013d565b95506102306040890161013d565b945061023e6060890161013d565b935061024c6080890161013d565b60a08901519093506001600160401b03811115610267575f5ffd5b6102738a828b0161016c565b60c08a015190935090506001600160401b03811115610290575f5ffd5b61029c8a828b0161016c565b91505092959891949750929550565b600181811c908216806102bf57607f821691505b6020821081036102dd57634e487b7160e01b5f52602260045260245ffd5b50919050565b601f82111561032a57805f5260205f20601f840160051c810160208510156103085750805b601f840160051c820191505b81811015610327575f8155600101610314565b50505b505050565b81516001600160401b0381111561034857610348610158565b61035c8161035684546102ab565b846102e3565b6020601f82116001811461038e575f83156103775750848201515b5f19600385901b1c1916600184901b178455610327565b5f84815260208120601f198516915b828110156103bd578785015182556020948501946001909201910161039d565b50848210156103da57868401515f19600387901b60f8161c191681555b50505050600190811b01905550565b5f5f83546103f6816102ab565b60018216801561040d57600181146104225761044f565b60ff198316865281151582028601935061044f565b865f5260205f205f5b838110156104475781548882015260019091019060200161042b565b505081860193505b509195945050505050565b60805160a05160c05160e0516101005161012051610140516126fa6105145f395f8181610314015281816108d9015261091a01525f8181610489015261160201525f81816106bf01528181610afe0152818161102c015281816118d601528181611ab801528181611b8c0152611f1301525f81816106380152611b2201525f81816104d7015281816108b801528181610d1301528181610fc3015261171501525f611faa01525f81816103c9015261215901526126fa5ff3fe608060405234801561000f575f5ffd5b506004361061029d575f3560e01c80636817c76c11610171578063bde6a5a9116100d2578063db006a7511610088578063e73faa2d1161006e578063e73faa2d146106aa578063ede75094146106b2578063ee42b10b146106ba575f5ffd5b8063db006a751461066d578063dd62ed3e14610680575f5ffd5b8063d505accf116100b8578063d505accf14610620578063d741e2f914610633578063daea85c51461065a575f5ffd5b8063bde6a5a914610576578063beb658931461057e575f5ffd5b806395d89b4111610127578063a0712d681161010d578063a0712d6814610548578063a07c7ce41461055b578063a9059cbb14610563575f5ffd5b806395d89b411461052b5780639d11877014610533575f5ffd5b80637bd2bea7116101575780637bd2bea7146104d25780637ecebe00146104f95780637f8661a114610518575f5ffd5b80636817c76c146104ab57806370a08231146104b3575f5ffd5b806326ea37991161021b57806342c4a1aa116101d15780634d773aa6116101b75780634d773aa61461044457806351f5d98d1461044c5780635f7efbea14610484575f5ffd5b806342c4a1aa146103f45780634bf365df1461043c575f5ffd5b8063355274ea11610201578063355274ea146103bc5780633644e515146103c45780633f90916a146103eb575f5ffd5b806326ea379914610399578063313ce567146103a2575f5ffd5b806311da60b4116102705780631c8ec299116102565780631c8ec2991461036b57806323b872dd14610373578063248c11f514610386575f5ffd5b806311da60b41461035b57806318160ddd14610363575f5ffd5b806306fdde03146102a157806306ff7a41146102bf578063095ea7b3146102ec5780630a77bd491461030f575b5f5ffd5b6102a96106e1565b6040516102b691906123a3565b60405180910390f35b6102de6102cd3660046123f6565b5f9081526008602052604090205490565b6040519081526020016102b6565b6102ff6102fa366004612435565b61076d565b60405190151581526020016102b6565b6103367f000000000000000000000000000000000000000000000000000000000000000081565b60405173ffffffffffffffffffffffffffffffffffffffff90911681526020016102b6565b6102de610836565b6102de5f5481565b6102de610966565b6102ff61038136600461245d565b610974565b6102ff610394366004612497565b610ae2565b6102de60075481565b6103aa601281565b60405160ff90911681526020016102b6565b6102de610af2565b6102de7f000000000000000000000000000000000000000000000000000000000000000081565b6102de60065481565b6102de6104023660046123f6565b5f908152600860205260409020600101547401000000000000000000000000000000000000000090046bffffffffffffffffffffffff1690565b6102ff610afb565b6102de610b89565b61033661045a3660046123f6565b5f9081526008602052604090206001015473ffffffffffffffffffffffffffffffffffffffff1690565b6103367f000000000000000000000000000000000000000000000000000000000000000081565b6102de610bb9565b6102de6104c1366004612497565b60016020525f908152604090205481565b6103367f000000000000000000000000000000000000000000000000000000000000000081565b6102de610507366004612497565b60056020525f908152604090205481565b6102de6105263660046123f6565b610bd2565b6102a9610da1565b6105466105413660046123f6565b610dae565b005b6102de6105563660046123f6565b610e40565b6102ff611029565b6102ff610571366004612435565b611093565b6102de61119d565b6105e261058c3660046123f6565b60086020525f90815260409020805460019091015473ffffffffffffffffffffffffffffffffffffffff8116907401000000000000000000000000000000000000000090046bffffffffffffffffffffffff1683565b6040805193845273ffffffffffffffffffffffffffffffffffffffff90921660208401526bffffffffffffffffffffffff16908201526060016102b6565b61054661062e3660046124b0565b6111b6565b6103367f000000000000000000000000000000000000000000000000000000000000000081565b6102ff610668366004612497565b6112d9565b6102de61067b3660046123f6565b61139b565b6102de61068e36600461251d565b600260209081525f928352604080842090915290825290205481565b6102de611590565b6102de611599565b6103367f000000000000000000000000000000000000000000000000000000000000000081565b600380546106ee9061254e565b80601f016020809104026020016040519081016040528092919081815260200182805461071a9061254e565b80156107655780601f1061073c57610100808354040283529160200191610765565b820191905f5260205f20905b81548152906001019060200180831161074857829003601f168201915b505050505081565b5f33610778816115bb565b6107cb576040517fea93ab6d00000000000000000000000000000000000000000000000000000000815273ffffffffffffffffffffffffffffffffffffffff821660048201526024015b60405180910390fd5b836107d5816115bb565b610823576040517fea93ab6d00000000000000000000000000000000000000000000000000000000815273ffffffffffffffffffffffffffffffffffffffff821660048201526024016107c2565b61082d858561166d565b95945050505050565b5f33610841816115bb565b61088f576040517fea93ab6d00000000000000000000000000000000000000000000000000000000815273ffffffffffffffffffffffffffffffffffffffff821660048201526024016107c2565b5f6108986116e5565b6006549091508082116108ae575f935050505090565b80820393506108fe7f00000000000000000000000000000000000000000000000000000000000000007f000000000000000000000000000000000000000000000000000000000000000086611793565b604051849073ffffffffffffffffffffffffffffffffffffffff7f000000000000000000000000000000000000000000000000000000000000000016907f7823e479a1a4ebe2418874847436f8a1680c5ee5b17f38bb59dbff28e1b45552905f90a350505090565b5f61096f6118d3565b905090565b5f3361097f816115bb565b6109cd576040517fea93ab6d00000000000000000000000000000000000000000000000000000000815273ffffffffffffffffffffffffffffffffffffffff821660048201526024016107c2565b846109d7816115bb565b610a25576040517fea93ab6d00000000000000000000000000000000000000000000000000000000815273ffffffffffffffffffffffffffffffffffffffff821660048201526024016107c2565b84610a2f816115bb565b610a7d576040517fea93ab6d00000000000000000000000000000000000000000000000000000000815273ffffffffffffffffffffffffffffffffffffffff821660048201526024016107c2565b3073ffffffffffffffffffffffffffffffffffffffff871603610acc576040517f3a49fd5c00000000000000000000000000000000000000000000000000000000815260040160405180910390fd5b610ad787878761193d565b979650505050505050565b5f610aec826115bb565b92915050565b5f61096f611ab5565b5f7f000000000000000000000000000000000000000000000000000000000000000073ffffffffffffffffffffffffffffffffffffffff16634bf365df6040518163ffffffff1660e01b8152600401602060405180830381865afa158015610b65573d5f5f3e3d5ffd5b505050506040513d601f19601f8201168201806040525081019061096f919061259f565b5f5f610b936116e5565b90506006548111610bb15780600654610bac91906125eb565b610bb3565b5f5b91505090565b5f61096f610bc5611b1f565b610bcd611b89565b611bf3565b5f33610bdd816115bb565b610c2b576040517fea93ab6d00000000000000000000000000000000000000000000000000000000815273ffffffffffffffffffffffffffffffffffffffff821660048201526024016107c2565b5f83815260086020526040902060018101547401000000000000000000000000000000000000000090046bffffffffffffffffffffffff1642811115610ca0576040517f774cceca000000000000000000000000000000000000000000000000000000008152600481018290526024016107c2565b805f03610cd9576040517f9b604d0b00000000000000000000000000000000000000000000000000000000815260040160405180910390fd5b81545f610ce46116e5565b9050808210610cf35780610cf5565b815b600680548290039055845481900385556001850154909650610d4f907f00000000000000000000000000000000000000000000000000000000000000009073ffffffffffffffffffffffffffffffffffffffff1688611793565b6001840154604051879173ffffffffffffffffffffffffffffffffffffffff169089907f786e090d783caced3baddcb29bd555ffb93faf484529ab87feab4ec4c48a81e1905f90a45050505050919050565b600480546106ee9061254e565b33610db8816115bb565b610e06576040517fea93ab6d00000000000000000000000000000000000000000000000000000000815273ffffffffffffffffffffffffffffffffffffffff821660048201526024016107c2565b610e103383611c1c565b604051829033907f789ec66f21698ed1b990c0a8a8be99cf6f5fb8eb3826ee4ee9384870e8db25b1905f90a35050565b5f610e49610afb565b610e7f576040517f0b5f6bf000000000000000000000000000000000000000000000000000000000815260040160405180910390fd5b33610e89816115bb565b610ed7576040517fea93ab6d00000000000000000000000000000000000000000000000000000000815273ffffffffffffffffffffffffffffffffffffffff821660048201526024016107c2565b5f610ee0611b1f565b9050805f03610f1a576040517ebfc92100000000000000000000000000000000000000000000000000000000815260040160405180910390fd5b610f2681610bcd611b89565b905080841015610f65576040517fa4a05025000000000000000000000000000000000000000000000000000000008152600481018290526024016107c2565b610f6f8482611cad565b9250610f79611ab5565b835f54610f8691906125fe565b1115610fbe576040517f2edaff4300000000000000000000000000000000000000000000000000000000815260040160405180910390fd5b610fea7f0000000000000000000000000000000000000000000000000000000000000000333087611cd6565b610ff43384611e1f565b6040518390829033907f58781ca443f8e3ecffad28c83044b16c6e549d8e9c677aebb3b8ee176f99f53f905f90a45050919050565b5f7f000000000000000000000000000000000000000000000000000000000000000073ffffffffffffffffffffffffffffffffffffffff1663a07c7ce46040518163ffffffff1660e01b8152600401602060405180830381865afa158015610b65573d5f5f3e3d5ffd5b5f3361109e816115bb565b6110ec576040517fea93ab6d00000000000000000000000000000000000000000000000000000000815273ffffffffffffffffffffffffffffffffffffffff821660048201526024016107c2565b836110f6816115bb565b611144576040517fea93ab6d00000000000000000000000000000000000000000000000000000000815273ffffffffffffffffffffffffffffffffffffffff821660048201526024016107c2565b3073ffffffffffffffffffffffffffffffffffffffff861603611193576040517f3a49fd5c00000000000000000000000000000000000000000000000000000000815260040160405180910390fd5b61082d8585611e8d565b5f61096f6111a9611b1f565b6111b1611f10565b611f7a565b336111c0816115bb565b61120e576040517fea93ab6d00000000000000000000000000000000000000000000000000000000815273ffffffffffffffffffffffffffffffffffffffff821660048201526024016107c2565b87611218816115bb565b611266576040517fea93ab6d00000000000000000000000000000000000000000000000000000000815273ffffffffffffffffffffffffffffffffffffffff821660048201526024016107c2565b87611270816115bb565b6112be576040517fea93ab6d00000000000000000000000000000000000000000000000000000000815273ffffffffffffffffffffffffffffffffffffffff821660048201526024016107c2565b6112cd8a8a8a8a8a8a8a611fa8565b50505050505050505050565b5f336112e4816115bb565b611332576040517fea93ab6d00000000000000000000000000000000000000000000000000000000815273ffffffffffffffffffffffffffffffffffffffff821660048201526024016107c2565b8261133c816115bb565b61138a576040517fea93ab6d00000000000000000000000000000000000000000000000000000000815273ffffffffffffffffffffffffffffffffffffffff821660048201526024016107c2565b61139384612359565b949350505050565b5f6113a4611029565b6113da576040517f0b5f6bf000000000000000000000000000000000000000000000000000000000815260040160405180910390fd5b336113e4816115bb565b611432576040517fea93ab6d00000000000000000000000000000000000000000000000000000000815273ffffffffffffffffffffffffffffffffffffffff821660048201526024016107c2565b5f61143b611b1f565b9050805f03611475576040517ebfc92100000000000000000000000000000000000000000000000000000000815260040160405180910390fd5b611481816111b1611f10565b90505f61148e8583612384565b90508060065f8282546114a191906125fe565b909155505060078054905f6114b583612611565b909155506040805160608101825283815233602082015291955081016114d96118d3565b6114e390426125fe565b6bffffffffffffffffffffffff9081169091525f8681526008602090815260409182902084518155908401519390910151909116740100000000000000000000000000000000000000000273ffffffffffffffffffffffffffffffffffffffff9092169190911760019091015561155a3386611c1c565b6040518190339086907f63c54001ca7debc648c4a36675b358dd417b4c13cebb04ecbae5beee0a6dfdfe905f90a4505050919050565b5f61096f611b1f565b5f5f6115a36116e5565b90506006548110610bb157600654610bac90826125eb565b6040517f82c4b3b200000000000000000000000000000000000000000000000000000000815273ffffffffffffffffffffffffffffffffffffffff82811660048301525f917f0000000000000000000000000000000000000000000000000000000000000000909116906382c4b3b290602401602060405180830381865afa158015611649573d5f5f3e3d5ffd5b505050506040513d601f19601f82011682018060405250810190610aec919061259f565b335f81815260026020908152604080832073ffffffffffffffffffffffffffffffffffffffff8716808552925280832085905551919290917f8c5be1e5ebec7d5bd14f71427d1e84f3dd0314c0f7b2291e5b200ac8c7c3b925906116d49086815260200190565b60405180910390a350600192915050565b6040517f70a082310000000000000000000000000000000000000000000000000000000081523060048201525f907f000000000000000000000000000000000000000000000000000000000000000073ffffffffffffffffffffffffffffffffffffffff16906370a0823190602401602060405180830381865afa15801561176f573d5f5f3e3d5ffd5b505050506040513d601f19601f8201168201806040525081019061096f9190612648565b6040805173ffffffffffffffffffffffffffffffffffffffff8481166024830152604480830185905283518084039091018152606490920183526020820180517bffffffffffffffffffffffffffffffffffffffffffffffffffffffff167fa9059cbb0000000000000000000000000000000000000000000000000000000017905291515f92839290871691611829919061265f565b5f604051808303815f865af19150503d805f8114611862576040519150601f19603f3d011682016040523d82523d5f602084013e611867565b606091505b509150915081158061189557505f8151118015611895575080806020019051810190611893919061259f565b155b156118cc576040517f90b8ec1800000000000000000000000000000000000000000000000000000000815260040160405180910390fd5b5050505050565b5f7f000000000000000000000000000000000000000000000000000000000000000073ffffffffffffffffffffffffffffffffffffffff16636a42b8f86040518163ffffffff1660e01b8152600401602060405180830381865afa15801561176f573d5f5f3e3d5ffd5b73ffffffffffffffffffffffffffffffffffffffff83165f9081526002602090815260408083203384529091528120547fffffffffffffffffffffffffffffffffffffffffffffffffffffffffffffffff81146119cf5761199e83826125eb565b73ffffffffffffffffffffffffffffffffffffffff86165f9081526002602090815260408083203384529091529020555b73ffffffffffffffffffffffffffffffffffffffff85165f9081526001602052604081208054859290611a039084906125eb565b909155505073ffffffffffffffffffffffffffffffffffffffff84165f9081526001602052604081208054859290611a3c9084906125fe565b925050819055508373ffffffffffffffffffffffffffffffffffffffff168573ffffffffffffffffffffffffffffffffffffffff167fddf252ad1be2c89b69c2b068fc378daa952ba7f163c4a11628f55a4df523b3ef85604051611aa291815260200190565b60405180910390a3506001949350505050565b5f7f000000000000000000000000000000000000000000000000000000000000000073ffffffffffffffffffffffffffffffffffffffff1663355274ea6040518163ffffffff1660e01b8152600401602060405180830381865afa15801561176f573d5f5f3e3d5ffd5b5f7f000000000000000000000000000000000000000000000000000000000000000073ffffffffffffffffffffffffffffffffffffffff166357de26a46040518163ffffffff1660e01b8152600401602060405180830381865afa15801561176f573d5f5f3e3d5ffd5b5f7f000000000000000000000000000000000000000000000000000000000000000073ffffffffffffffffffffffffffffffffffffffff166398b836da6040518163ffffffff1660e01b8152600401602060405180830381865afa15801561176f573d5f5f3e3d5ffd5b5f612710611c0183826125fe565b611c0b9085612675565b611c15919061268c565b9392505050565b73ffffffffffffffffffffffffffffffffffffffff82165f9081526001602052604081208054839290611c509084906125eb565b90915550505f8054829003815560405182815273ffffffffffffffffffffffffffffffffffffffff8416907fddf252ad1be2c89b69c2b068fc378daa952ba7f163c4a11628f55a4df523b3ef906020015b60405180910390a35050565b5f81611cba60028261268c565b611ccc670de0b6b3a764000086612675565b611c0b91906125fe565b6040805173ffffffffffffffffffffffffffffffffffffffff85811660248301528481166044830152606480830185905283518084039091018152608490920183526020820180517bffffffffffffffffffffffffffffffffffffffffffffffffffffffff167f23b872dd0000000000000000000000000000000000000000000000000000000017905291515f92839290881691611d74919061265f565b5f604051808303815f865af19150503d805f8114611dad576040519150601f19603f3d011682016040523d82523d5f602084013e611db2565b606091505b5091509150811580611de057505f8151118015611de0575080806020019051810190611dde919061259f565b155b15611e17576040517f90b8ec1800000000000000000000000000000000000000000000000000000000815260040160405180910390fd5b505050505050565b805f5f828254611e2f91906125fe565b909155505073ffffffffffffffffffffffffffffffffffffffff82165f818152600160209081526040808320805486019055518481527fddf252ad1be2c89b69c2b068fc378daa952ba7f163c4a11628f55a4df523b3ef9101611ca1565b335f90815260016020526040812080548391908390611ead9084906125eb565b909155505073ffffffffffffffffffffffffffffffffffffffff83165f81815260016020526040908190208054850190555133907fddf252ad1be2c89b69c2b068fc378daa952ba7f163c4a11628f55a4df523b3ef906116d49086815260200190565b5f7f000000000000000000000000000000000000000000000000000000000000000073ffffffffffffffffffffffffffffffffffffffff1663965745806040518163ffffffff1660e01b8152600401602060405180830381865afa15801561176f573d5f5f3e3d5ffd5b5f611f87826127106125fe565b611f9384612710612675565b611f9d919061268c565b611c159060016125fe565b7f00000000000000000000000000000000000000000000000000000000000000004614612031576040517f08c379a000000000000000000000000000000000000000000000000000000000815260206004820152600d60248201527f494e56414c49445f434841494e0000000000000000000000000000000000000060448201526064016107c2565b4284101561209b576040517f08c379a000000000000000000000000000000000000000000000000000000000815260206004820152601760248201527f5045524d49545f444541444c494e455f4558504952454400000000000000000060448201526064016107c2565b73ffffffffffffffffffffffffffffffffffffffff8781165f8181526005602090815260408083208054600180820190925582517f6e71edae12b1b97f4d1f60370fef10105fa2faae0126114a169c64845d6126c98186015280840196909652958c166060860152608085018b905260a085019590955260c08085018a90528151808603909101815260e0850190915280519101207f19010000000000000000000000000000000000000000000000000000000000006101008401527f0000000000000000000000000000000000000000000000000000000000000000610102840152610122830152919061014201604080517fffffffffffffffffffffffffffffffffffffffffffffffffffffffffffffffe081840301815282825280516020918201205f84529083018083525260ff871690820152606081018590526080810184905260a0016020604051602081039080840390855afa158015612203573d5f5f3e3d5ffd5b50506040517fffffffffffffffffffffffffffffffffffffffffffffffffffffffffffffffe0015191505073ffffffffffffffffffffffffffffffffffffffff81161580159061227e57508773ffffffffffffffffffffffffffffffffffffffff168173ffffffffffffffffffffffffffffffffffffffff16145b6122e4576040517f08c379a000000000000000000000000000000000000000000000000000000000815260206004820152600e60248201527f494e56414c49445f5349474e455200000000000000000000000000000000000060448201526064016107c2565b73ffffffffffffffffffffffffffffffffffffffff9081165f9081526002602090815260408083208a8516808552908352928190208990555188815291928a16917f8c5be1e5ebec7d5bd14f71427d1e84f3dd0314c0f7b2291e5b200ac8c7c3b925910160405180910390a350505050505050565b5f610aec827fffffffffffffffffffffffffffffffffffffffffffffffffffffffffffffffff61076d565b5f670de0b6b3a764000061239960028261268c565b611ccc8486612675565b602081525f82518060208401528060208501604085015e5f6040828501015260407fffffffffffffffffffffffffffffffffffffffffffffffffffffffffffffffe0601f83011684010191505092915050565b5f60208284031215612406575f5ffd5b5035919050565b803573ffffffffffffffffffffffffffffffffffffffff81168114612430575f5ffd5b919050565b5f5f60408385031215612446575f5ffd5b61244f8361240d565b946020939093013593505050565b5f5f5f6060848603121561246f575f5ffd5b6124788461240d565b92506124866020850161240d565b929592945050506040919091013590565b5f602082840312156124a7575f5ffd5b611c158261240d565b5f5f5f5f5f5f5f60e0888a0312156124c6575f5ffd5b6124cf8861240d565b96506124dd6020890161240d565b95506040880135945060608801359350608088013560ff81168114612500575f5ffd5b9699959850939692959460a0840135945060c09093013592915050565b5f5f6040838503121561252e575f5ffd5b6125378361240d565b91506125456020840161240d565b90509250929050565b600181811c9082168061256257607f821691505b602082108103612599577f4e487b71000000000000000000000000000000000000000000000000000000005f52602260045260245ffd5b50919050565b5f602082840312156125af575f5ffd5b81518015158114611c15575f5ffd5b7f4e487b71000000000000000000000000000000000000000000000000000000005f52601160045260245ffd5b81810381811115610aec57610aec6125be565b80820180821115610aec57610aec6125be565b5f7fffffffffffffffffffffffffffffffffffffffffffffffffffffffffffffffff8203612641576126416125be565b5060010190565b5f60208284031215612658575f5ffd5b5051919050565b5f82518060208501845e5f920191825250919050565b8082028115828204841417610aec57610aec6125be565b5f826126bf577f4e487b71000000000000000000000000000000000000000000000000000000005f52601260045260245ffd5b50049056fea26469706673582212209dac6c450de90476b494dee7324cf4af08f2d57fb797e8f7ccb52a44ebcc660e64736f6c634300081c0033000000000000000000000000eccdbb4985a1fe96ed06a8a0000bbb233cbbaf8b000000000000000000000000b890953c3d75eeaf6507985ccdf7addd595e86cd000000000000000000000000ef429e630f5c174b3cfcfdef13b4cfdb96472aec000000000000000000000000a7021153af414c5024133e9d2a22dede5d74d6ce000000000000000000000000b61ef222013c3473fa8ec859770f323b1233f65600000000000000000000000000000000000000000000000000000000000000e00000000000000000000000000000000000000000000000000000000000000120000000000000000000000000000000000000000000000000000000000000000443616e6100000000000000000000000000000000000000000000000000000000000000000000000000000000000000000000000000000000000000000000000443414e4100000000000000000000000000000000000000000000000000000000",
        "nonce": "0x77",
        "chainId": "0xaa36a7"
      },
      "additionalContracts": [],
      "isFixedGasLimit": false
    },
    {
      "hash": "0x7ece23bcfc84cd72b4ac23bcace989c610744de2463f92d5663a8097484d03bb",
      "transactionType": "CALL",
      "contractName": null,
      "contractAddress": "0xb890953c3d75eeaf6507985ccdf7addd595e86cd",
      "function": "file(bytes32,bytes32)",
      "arguments": [
        "0x6e616d6500000000000000000000000000000000000000000000000000000000",
        "0x43414e4155534454000000000000000000000000000000000000000000000000"
      ],
      "transaction": {
        "from": "0xdef12db2bd62f88c8d59807e0ce9868279fd7fef",
        "to": "0xb890953c3d75eeaf6507985ccdf7addd595e86cd",
        "gas": "0x11c50",
        "value": "0x0",
        "input": "0xe9b674b96e616d650000000000000000000000000000000000000000000000000000000043414e4155534454000000000000000000000000000000000000000000000000",
        "nonce": "0x78",
        "chainId": "0xaa36a7"
      },
      "additionalContracts": [],
      "isFixedGasLimit": false
    },
    {
      "hash": "0x9d3c946eb8b226c25f15db687858f9e8ff291d99a2dc6c458f72d9a08a3148d1",
      "transactionType": "CALL",
      "contractName": null,
      "contractAddress": "0xb890953c3d75eeaf6507985ccdf7addd595e86cd",
      "function": "file(bytes32,bytes32)",
      "arguments": [
        "0x646563696d616c73000000000000000000000000000000000000000000000000",
        "0x0000000000000000000000000000000000000000000000000000000000000006"
      ],
      "transaction": {
        "from": "0xdef12db2bd62f88c8d59807e0ce9868279fd7fef",
        "to": "0xb890953c3d75eeaf6507985ccdf7addd595e86cd",
        "gas": "0x11c70",
        "value": "0x0",
        "input": "0xe9b674b9646563696d616c730000000000000000000000000000000000000000000000000000000000000000000000000000000000000000000000000000000000000006",
        "nonce": "0x79",
        "chainId": "0xaa36a7"
      },
      "additionalContracts": [],
      "isFixedGasLimit": false
    },
    {
      "hash": "0x0034444a300ffa4e3b9d14fe97d60b0f98c2311479ea971132a88f2fb6a0984f",
      "transactionType": "CALL",
      "contractName": null,
      "contractAddress": "0xb890953c3d75eeaf6507985ccdf7addd595e86cd",
      "function": "poke(uint256)",
      "arguments": [
        "1000000"
      ],
      "transaction": {
        "from": "0xdef12db2bd62f88c8d59807e0ce9868279fd7fef",
        "to": "0xb890953c3d75eeaf6507985ccdf7addd595e86cd",
        "gas": "0x11adf",
        "value": "0x0",
        "input": "0x32145f9000000000000000000000000000000000000000000000000000000000000f4240",
        "nonce": "0x7a",
        "chainId": "0xaa36a7"
      },
      "additionalContracts": [],
      "isFixedGasLimit": false
    },
    {
      "hash": "0x403eacef7d6dc503f62cc437e0cdb49cacf9305b9a58e234c1a392da559a267d",
      "transactionType": "CALL",
      "contractName": null,
      "contractAddress": "0xb890953c3d75eeaf6507985ccdf7addd595e86cd",
      "function": "rely(address)",
      "arguments": [
        "0xB05502bf20342331F42A7B80Aa4bAB3F8cA86C0F"
      ],
      "transaction": {
        "from": "0xdef12db2bd62f88c8d59807e0ce9868279fd7fef",
        "to": "0xb890953c3d75eeaf6507985ccdf7addd595e86cd",
        "gas": "0x114f0",
        "value": "0x0",
        "input": "0x65fae35e000000000000000000000000b05502bf20342331f42a7b80aa4bab3f8ca86c0f",
        "nonce": "0x7b",
        "chainId": "0xaa36a7"
      },
      "additionalContracts": [],
      "isFixedGasLimit": false
    },
    {
      "hash": "0x24b14a55482228016ab9d2399ddd4f711190c816309a6ff57269a3a48b367d4f",
      "transactionType": "CALL",
      "contractName": null,
      "contractAddress": "0xb890953c3d75eeaf6507985ccdf7addd595e86cd",
      "function": "deny(address)",
      "arguments": [
        "0x1804c8AB1F12E6bbf3894d4083f33e07309d1f38"
      ],
      "transaction": {
        "from": "0xdef12db2bd62f88c8d59807e0ce9868279fd7fef",
        "to": "0xb890953c3d75eeaf6507985ccdf7addd595e86cd",
        "gas": "0xb388",
        "value": "0x0",
        "input": "0x9c52a7f10000000000000000000000001804c8ab1f12e6bbf3894d4083f33e07309d1f38",
        "nonce": "0x7c",
        "chainId": "0xaa36a7"
      },
      "additionalContracts": [],
      "isFixedGasLimit": false
    },
    {
      "hash": "0xd799892a749d5a379c36bab93958e026f0bdcde01224a90cb2cf220bc25e0df7",
      "transactionType": "CALL",
      "contractName": null,
      "contractAddress": "0xb890953c3d75eeaf6507985ccdf7addd595e86cd",
      "function": "relyProxy(address)",
      "arguments": [
        "0xB05502bf20342331F42A7B80Aa4bAB3F8cA86C0F"
      ],
      "transaction": {
        "from": "0xdef12db2bd62f88c8d59807e0ce9868279fd7fef",
        "to": "0xb890953c3d75eeaf6507985ccdf7addd595e86cd",
        "gas": "0x108da",
        "value": "0x0",
        "input": "0x266a164a000000000000000000000000b05502bf20342331f42a7b80aa4bab3f8ca86c0f",
        "nonce": "0x7d",
        "chainId": "0xaa36a7"
      },
      "additionalContracts": [],
      "isFixedGasLimit": false
    },
    {
      "hash": "0x346c9309ffb8c439f4f2f2644ae5c734e03094e3253e77850f56e94ed681515d",
      "transactionType": "CALL",
      "contractName": null,
      "contractAddress": "0xb890953c3d75eeaf6507985ccdf7addd595e86cd",
      "function": "denyProxy(address)",
      "arguments": [
        "0x1804c8AB1F12E6bbf3894d4083f33e07309d1f38"
      ],
      "transaction": {
        "from": "0xdef12db2bd62f88c8d59807e0ce9868279fd7fef",
        "to": "0xb890953c3d75eeaf6507985ccdf7addd595e86cd",
        "gas": "0x974a",
        "value": "0x0",
        "input": "0x0715940e0000000000000000000000001804c8ab1f12e6bbf3894d4083f33e07309d1f38",
        "nonce": "0x7e",
        "chainId": "0xaa36a7"
      },
      "additionalContracts": [],
      "isFixedGasLimit": false
    },
    {
      "hash": "0xef53ce17e008c2dd07500aeae160f14a6b795bf3945fb4ad165c7ce8b0905f75",
      "transactionType": "CALL",
      "contractName": null,
      "contractAddress": "0xef429e630f5c174b3cfcfdef13b4cfdb96472aec",
      "function": "setDelay(uint256)",
      "arguments": [
        "432000"
      ],
      "transaction": {
        "from": "0xdef12db2bd62f88c8d59807e0ce9868279fd7fef",
        "to": "0xef429e630f5c174b3cfcfdef13b4cfdb96472aec",
        "gas": "0x1235e",
        "value": "0x0",
        "input": "0xe177246e0000000000000000000000000000000000000000000000000000000000069780",
        "nonce": "0x7f",
        "chainId": "0xaa36a7"
      },
      "additionalContracts": [],
      "isFixedGasLimit": false
    },
    {
      "hash": "0x0aba05bd36ece155948fcd92b0595710aebd62ca06e584d520c96326cb5f5735",
      "transactionType": "CALL",
      "contractName": null,
      "contractAddress": "0xef429e630f5c174b3cfcfdef13b4cfdb96472aec",
      "function": "setCap(uint256)",
      "arguments": [
        "1000000000000000000000000"
      ],
      "transaction": {
        "from": "0xdef12db2bd62f88c8d59807e0ce9868279fd7fef",
        "to": "0xef429e630f5c174b3cfcfdef13b4cfdb96472aec",
        "gas": "0x11330",
        "value": "0x0",
        "input": "0x47786d3700000000000000000000000000000000000000000000d3c21bcecceda1000000",
        "nonce": "0x80",
        "chainId": "0xaa36a7"
      },
      "additionalContracts": [],
      "isFixedGasLimit": false
    },
    {
      "hash": "0x65f784c5afad6eb4d4939bab3cde1127206b1d8fb3a3f24d5bb2c211e5f45b7b",
      "transactionType": "CALL",
      "contractName": null,
      "contractAddress": "0xef429e630f5c174b3cfcfdef13b4cfdb96472aec",
      "function": "setBpsin(uint256)",
      "arguments": [
        "50"
      ],
      "transaction": {
        "from": "0xdef12db2bd62f88c8d59807e0ce9868279fd7fef",
        "to": "0xef429e630f5c174b3cfcfdef13b4cfdb96472aec",
        "gas": "0x112d1",
        "value": "0x0",
        "input": "0x59361d8e0000000000000000000000000000000000000000000000000000000000000032",
        "nonce": "0x81",
        "chainId": "0xaa36a7"
      },
      "additionalContracts": [],
      "isFixedGasLimit": false
    },
    {
      "hash": "0xb7f3e5d8554576fa79466bb5313d72406659e7a7a0dddf847b47913a6a911701",
      "transactionType": "CALL",
      "contractName": null,
      "contractAddress": "0xef429e630f5c174b3cfcfdef13b4cfdb96472aec",
      "function": "setBpsout(uint256)",
      "arguments": [
        "50"
      ],
      "transaction": {
        "from": "0xdef12db2bd62f88c8d59807e0ce9868279fd7fef",
        "to": "0xef429e630f5c174b3cfcfdef13b4cfdb96472aec",
        "gas": "0x112d2",
        "value": "0x0",
        "input": "0x71ebdf4e0000000000000000000000000000000000000000000000000000000000000032",
        "nonce": "0x82",
        "chainId": "0xaa36a7"
      },
      "additionalContracts": [],
      "isFixedGasLimit": false
    },
    {
      "hash": "0x74fa6a779698dd7807356bbcfc94c618c5b6d0958aded0fc9abaadbb4d44f32e",
      "transactionType": "CALL",
      "contractName": null,
      "contractAddress": "0xef429e630f5c174b3cfcfdef13b4cfdb96472aec",
      "function": "rely(address)",
      "arguments": [
        "0xB05502bf20342331F42A7B80Aa4bAB3F8cA86C0F"
      ],
      "transaction": {
        "from": "0xdef12db2bd62f88c8d59807e0ce9868279fd7fef",
        "to": "0xef429e630f5c174b3cfcfdef13b4cfdb96472aec",
        "gas": "0x1152c",
        "value": "0x0",
        "input": "0x65fae35e000000000000000000000000b05502bf20342331f42a7b80aa4bab3f8ca86c0f",
        "nonce": "0x83",
        "chainId": "0xaa36a7"
      },
      "additionalContracts": [],
      "isFixedGasLimit": false
    },
    {
      "hash": "0x50692f95bff79b8aeea623c6ff79af609fc4095684e66eaada3e12f4b88d00cb",
      "transactionType": "CALL",
      "contractName": null,
      "contractAddress": "0xef429e630f5c174b3cfcfdef13b4cfdb96472aec",
      "function": "deny(address)",
      "arguments": [
        "0x1804c8AB1F12E6bbf3894d4083f33e07309d1f38"
      ],
      "transaction": {
        "from": "0xdef12db2bd62f88c8d59807e0ce9868279fd7fef",
        "to": "0xef429e630f5c174b3cfcfdef13b4cfdb96472aec",
        "gas": "0xa9cc",
        "value": "0x0",
        "input": "0x9c52a7f10000000000000000000000001804c8ab1f12e6bbf3894d4083f33e07309d1f38",
        "nonce": "0x84",
        "chainId": "0xaa36a7"
      },
      "additionalContracts": [],
      "isFixedGasLimit": false
    },
    {
      "hash": "0xbbb64352617990bd11331ae8100eb192b749661b440d6c3c86276be30e314268",
      "transactionType": "CALL",
      "contractName": null,
      "contractAddress": "0xef429e630f5c174b3cfcfdef13b4cfdb96472aec",
      "function": "relyProxy(address)",
      "arguments": [
        "0xB05502bf20342331F42A7B80Aa4bAB3F8cA86C0F"
      ],
      "transaction": {
        "from": "0xdef12db2bd62f88c8d59807e0ce9868279fd7fef",
        "to": "0xef429e630f5c174b3cfcfdef13b4cfdb96472aec",
        "gas": "0x108da",
        "value": "0x0",
        "input": "0x266a164a000000000000000000000000b05502bf20342331f42a7b80aa4bab3f8ca86c0f",
        "nonce": "0x85",
        "chainId": "0xaa36a7"
      },
      "additionalContracts": [],
      "isFixedGasLimit": false
    },
    {
      "hash": "0x6b536967934e97d208667fba0b31a177d86589a4472535eb489aff6a5961e923",
      "transactionType": "CALL",
      "contractName": null,
      "contractAddress": "0xef429e630f5c174b3cfcfdef13b4cfdb96472aec",
      "function": "denyProxy(address)",
      "arguments": [
        "0x1804c8AB1F12E6bbf3894d4083f33e07309d1f38"
      ],
      "transaction": {
        "from": "0xdef12db2bd62f88c8d59807e0ce9868279fd7fef",
        "to": "0xef429e630f5c174b3cfcfdef13b4cfdb96472aec",
        "gas": "0x974a",
        "value": "0x0",
        "input": "0x0715940e0000000000000000000000001804c8ab1f12e6bbf3894d4083f33e07309d1f38",
        "nonce": "0x86",
        "chainId": "0xaa36a7"
      },
      "additionalContracts": [],
      "isFixedGasLimit": false
    },
    {
      "hash": "0x2fe78f586395635ae1c12215e6df964fefdc35b6e6685e1c4e49fedb799203ca",
      "transactionType": "CALL",
      "contractName": null,
      "contractAddress": "0xa7021153af414c5024133e9d2a22dede5d74d6ce",
      "function": "rely(address)",
      "arguments": [
        "0xB05502bf20342331F42A7B80Aa4bAB3F8cA86C0F"
      ],
      "transaction": {
        "from": "0xdef12db2bd62f88c8d59807e0ce9868279fd7fef",
        "to": "0xa7021153af414c5024133e9d2a22dede5d74d6ce",
        "gas": "0x114c2",
        "value": "0x0",
        "input": "0x65fae35e000000000000000000000000b05502bf20342331f42a7b80aa4bab3f8ca86c0f",
        "nonce": "0x87",
        "chainId": "0xaa36a7"
      },
      "additionalContracts": [],
      "isFixedGasLimit": false
    },
    {
      "hash": "0x4f5ef131f4ea5d34ac0fe9af097b263a4c3bc218120e8a11952a7e95e63eda96",
      "transactionType": "CALL",
      "contractName": null,
      "contractAddress": "0xa7021153af414c5024133e9d2a22dede5d74d6ce",
      "function": "deny(address)",
      "arguments": [
        "0x1804c8AB1F12E6bbf3894d4083f33e07309d1f38"
      ],
      "transaction": {
        "from": "0xdef12db2bd62f88c8d59807e0ce9868279fd7fef",
        "to": "0xa7021153af414c5024133e9d2a22dede5d74d6ce",
        "gas": "0xb388",
        "value": "0x0",
        "input": "0x9c52a7f10000000000000000000000001804c8ab1f12e6bbf3894d4083f33e07309d1f38",
        "nonce": "0x88",
        "chainId": "0xaa36a7"
      },
      "additionalContracts": [],
      "isFixedGasLimit": false
    },
    {
      "hash": "0xa56509babcbfd1e13236459ac0a7f03fd6bab0f8ef9949a6717de5397de57b21",
      "transactionType": "CALL",
      "contractName": null,
      "contractAddress": "0xa7021153af414c5024133e9d2a22dede5d74d6ce",
      "function": "relyProxy(address)",
      "arguments": [
        "0xB05502bf20342331F42A7B80Aa4bAB3F8cA86C0F"
      ],
      "transaction": {
        "from": "0xdef12db2bd62f88c8d59807e0ce9868279fd7fef",
        "to": "0xa7021153af414c5024133e9d2a22dede5d74d6ce",
        "gas": "0x108da",
        "value": "0x0",
        "input": "0x266a164a000000000000000000000000b05502bf20342331f42a7b80aa4bab3f8ca86c0f",
        "nonce": "0x89",
        "chainId": "0xaa36a7"
      },
      "additionalContracts": [],
      "isFixedGasLimit": false
    },
    {
      "hash": "0xa69adf5ffa37a14f984ddd5445a77cc40e4d4fb71c32657bb3ea92801c075c27",
      "transactionType": "CALL",
      "contractName": null,
      "contractAddress": "0xa7021153af414c5024133e9d2a22dede5d74d6ce",
      "function": "denyProxy(address)",
      "arguments": [
        "0x1804c8AB1F12E6bbf3894d4083f33e07309d1f38"
      ],
      "transaction": {
        "from": "0xdef12db2bd62f88c8d59807e0ce9868279fd7fef",
        "to": "0xa7021153af414c5024133e9d2a22dede5d74d6ce",
        "gas": "0x974a",
        "value": "0x0",
        "input": "0x0715940e0000000000000000000000001804c8ab1f12e6bbf3894d4083f33e07309d1f38",
        "nonce": "0x8a",
        "chainId": "0xaa36a7"
      },
      "additionalContracts": [],
      "isFixedGasLimit": false
    },
    {
      "hash": "0xc2b2972304426d755075c1e08c002a25d0389d8da649782c44ac41045e360fc6",
      "transactionType": "CALL",
      "contractName": null,
      "contractAddress": "0xb61ef222013c3473fa8ec859770f323b1233f656",
      "function": "hope(address)",
      "arguments": [
        "0xB05502bf20342331F42A7B80Aa4bAB3F8cA86C0F"
      ],
      "transaction": {
        "from": "0xdef12db2bd62f88c8d59807e0ce9868279fd7fef",
        "to": "0xb61ef222013c3473fa8ec859770f323b1233f656",
        "gas": "0x11453",
        "value": "0x0",
        "input": "0xa3b22fc4000000000000000000000000b05502bf20342331f42a7b80aa4bab3f8ca86c0f",
        "nonce": "0x8b",
        "chainId": "0xaa36a7"
      },
      "additionalContracts": [],
      "isFixedGasLimit": false
    },
    {
      "hash": "0xa8ab389fd2f99e5cb700368800a4dd29c1c05596c5a10121ac5cc5d8aadd138f",
      "transactionType": "CALL",
      "contractName": null,
      "contractAddress": "0xb61ef222013c3473fa8ec859770f323b1233f656",
      "function": "kiss(address)",
      "arguments": [
        "0xB05502bf20342331F42A7B80Aa4bAB3F8cA86C0F"
      ],
      "transaction": {
        "from": "0xdef12db2bd62f88c8d59807e0ce9868279fd7fef",
        "to": "0xb61ef222013c3473fa8ec859770f323b1233f656",
        "gas": "0x1148b",
        "value": "0x0",
        "input": "0xf29c29c4000000000000000000000000b05502bf20342331f42a7b80aa4bab3f8ca86c0f",
        "nonce": "0x8c",
        "chainId": "0xaa36a7"
      },
      "additionalContracts": [],
      "isFixedGasLimit": false
    },
    {
      "hash": "0xcd86b2d765044d0db0150aa38ccadee6c67d0082a9d3d53c96d57ff98aa902c8",
      "transactionType": "CALL",
      "contractName": null,
      "contractAddress": "0xb61ef222013c3473fa8ec859770f323b1233f656",
      "function": "kiss(address)",
      "arguments": [
        "0xa50DeF40e38cb26AfF71B0DBBAAa6912b558D21E"
      ],
      "transaction": {
        "from": "0xdef12db2bd62f88c8d59807e0ce9868279fd7fef",
        "to": "0xb61ef222013c3473fa8ec859770f323b1233f656",
        "gas": "0x1148b",
        "value": "0x0",
        "input": "0xf29c29c4000000000000000000000000a50def40e38cb26aff71b0dbbaaa6912b558d21e",
        "nonce": "0x8d",
        "chainId": "0xaa36a7"
      },
      "additionalContracts": [],
      "isFixedGasLimit": false
    },
    {
      "hash": "0x2c65de6f7abbfaf8ea6dfad8d0aac8f547ef0d6bac712eaac45d3ee9b85bf68c",
      "transactionType": "CALL",
      "contractName": null,
      "contractAddress": "0xb61ef222013c3473fa8ec859770f323b1233f656",
      "function": "rely(address)",
      "arguments": [
        "0xB05502bf20342331F42A7B80Aa4bAB3F8cA86C0F"
      ],
      "transaction": {
        "from": "0xdef12db2bd62f88c8d59807e0ce9868279fd7fef",
        "to": "0xb61ef222013c3473fa8ec859770f323b1233f656",
        "gas": "0x1258e",
        "value": "0x0",
        "input": "0x65fae35e000000000000000000000000b05502bf20342331f42a7b80aa4bab3f8ca86c0f",
        "nonce": "0x8e",
        "chainId": "0xaa36a7"
      },
      "additionalContracts": [],
      "isFixedGasLimit": false
    },
    {
      "hash": "0x44182b0d31d2f7e504b5f37f36cc187df8c230c84f01c4274747eb88f39a2f0a",
      "transactionType": "CALL",
      "contractName": null,
      "contractAddress": "0xb61ef222013c3473fa8ec859770f323b1233f656",
      "function": "deny(address)",
      "arguments": [
        "0x1804c8AB1F12E6bbf3894d4083f33e07309d1f38"
      ],
      "transaction": {
        "from": "0xdef12db2bd62f88c8d59807e0ce9868279fd7fef",
        "to": "0xb61ef222013c3473fa8ec859770f323b1233f656",
        "gas": "0xb3fd",
        "value": "0x0",
        "input": "0x9c52a7f10000000000000000000000001804c8ab1f12e6bbf3894d4083f33e07309d1f38",
        "nonce": "0x8f",
        "chainId": "0xaa36a7"
      },
      "additionalContracts": [],
      "isFixedGasLimit": false
    },
    {
      "hash": "0xb069da0f3c489857a72d614a81a622af4b2778c9e3252fe4cf44510885ad021a",
      "transactionType": "CALL",
      "contractName": null,
      "contractAddress": "0xb61ef222013c3473fa8ec859770f323b1233f656",
      "function": "relyProxy(address)",
      "arguments": [
        "0xB05502bf20342331F42A7B80Aa4bAB3F8cA86C0F"
      ],
      "transaction": {
        "from": "0xdef12db2bd62f88c8d59807e0ce9868279fd7fef",
        "to": "0xb61ef222013c3473fa8ec859770f323b1233f656",
        "gas": "0x108da",
        "value": "0x0",
        "input": "0x266a164a000000000000000000000000b05502bf20342331f42a7b80aa4bab3f8ca86c0f",
        "nonce": "0x90",
        "chainId": "0xaa36a7"
      },
      "additionalContracts": [],
      "isFixedGasLimit": false
    },
    {
      "hash": "0xebdb6834e211c4df02f7dbb6942a8d15a4ad59a28c920740c00f1a7e3c2cd197",
      "transactionType": "CALL",
      "contractName": null,
      "contractAddress": "0xb61ef222013c3473fa8ec859770f323b1233f656",
      "function": "denyProxy(address)",
      "arguments": [
        "0x1804c8AB1F12E6bbf3894d4083f33e07309d1f38"
      ],
      "transaction": {
        "from": "0xdef12db2bd62f88c8d59807e0ce9868279fd7fef",
        "to": "0xb61ef222013c3473fa8ec859770f323b1233f656",
        "gas": "0x974a",
        "value": "0x0",
        "input": "0x0715940e0000000000000000000000001804c8ab1f12e6bbf3894d4083f33e07309d1f38",
        "nonce": "0x91",
        "chainId": "0xaa36a7"
      },
      "additionalContracts": [],
      "isFixedGasLimit": false
    }
  ],
  "receipts": [
    {
      "status": "0x1",
      "cumulativeGasUsed": "0xa5203a",
      "logs": [],
      "logsBloom": "0x00000000000000000000000000000000000000000000000000000000000000000000000000000000000000000000000000000000000000000000000000000000000000000000000000000000000000000000000000000000000000000000000000000000000000000000000000000000000000000000000000000000000000000000000000000000000000000000000000000000000000000000000000000000000000000000000000000000000000000000000000000000000000000000000000000000000000000000000000000000000000000000000000000000000000000000000000000000000000000000000000000000000000000000000000000000",
      "type": "0x2",
      "transactionHash": "0x2e4a7dc00094e4c188c4761f54f88597f6beb069292420a87d907acfd7bc10b9",
      "transactionIndex": "0x50",
      "blockHash": "0x250519d4cd561ea077edd74d39deee4d0161c3a11c586b2bca3b959935e1cb56",
      "blockNumber": "0x75a26b",
      "gasUsed": "0x8ea2e",
      "effectiveGasPrice": "0x79f40e53",
      "from": "0xdef12db2bd62f88c8d59807e0ce9868279fd7fef",
      "to": null,
      "contractAddress": "0xeccdbb4985a1fe96ed06a8a0000bbb233cbbaf8b"
    },
    {
      "status": "0x1",
      "cumulativeGasUsed": "0x5b89b4",
      "logs": [],
      "logsBloom": "0x00000000000000000000000000000000000000000000000000000000000000000000000000000000000000000000000000000000000000000000000000000000000000000000000000000000000000000000000000000000000000000000000000000000000000000000000000000000000000000000000000000000000000000000000000000000000000000000000000000000000000000000000000000000000000000000000000000000000000000000000000000000000000000000000000000000000000000000000000000000000000000000000000000000000000000000000000000000000000000000000000000000000000000000000000000000",
      "type": "0x2",
      "transactionHash": "0xbb9fe1558b0527a97d4c067508cdbdabe54c87efa79615cd7492de0b99357e43",
      "transactionIndex": "0x39",
      "blockHash": "0x646aa05479ed87350fd304ce68a4a27df1170c757927e4f0ab35d69b5ee34e74",
      "blockNumber": "0x75a26c",
      "gasUsed": "0x10bc6",
      "effectiveGasPrice": "0x79f40e53",
      "from": "0xdef12db2bd62f88c8d59807e0ce9868279fd7fef",
      "to": "0xeccdbb4985a1fe96ed06a8a0000bbb233cbbaf8b",
      "contractAddress": null
    },
    {
      "status": "0x1",
      "cumulativeGasUsed": "0x65b988",
      "logs": [],
      "logsBloom": "0x00000000000000000000000000000000000000000000000000000000000000000000000000000000000000000000000000000000000000000000000000000000000000000000000000000000000000000000000000000000000000000000000000000000000000000000000000000000000000000000000000000000000000000000000000000000000000000000000000000000000000000000000000000000000000000000000000000000000000000000000000000000000000000000000000000000000000000000000000000000000000000000000000000000000000000000000000000000000000000000000000000000000000000000000000000000",
      "type": "0x2",
      "transactionHash": "0x0f9d284f33613aef8f3bf452ab6774f1e04e1df8132465dccac0fa630dde136e",
      "transactionIndex": "0x3a",
      "blockHash": "0x646aa05479ed87350fd304ce68a4a27df1170c757927e4f0ab35d69b5ee34e74",
      "blockNumber": "0x75a26c",
      "gasUsed": "0xa2fd4",
      "effectiveGasPrice": "0x79f40e53",
      "from": "0xdef12db2bd62f88c8d59807e0ce9868279fd7fef",
      "to": null,
      "contractAddress": "0x3d81a117ae833f69bd9d3b091d19b4ee21df3075"
    },
    {
      "status": "0x1",
      "cumulativeGasUsed": "0x6b42c8",
      "logs": [],
      "logsBloom": "0x00000000000000000000000000000000000000000000000000000000000000000000000000000000000000000000000000000000000000000000000000000000000000000000000000000000000000000000000000000000000000000000000000000000000000000000000000000000000000000000000000000000000000000000000000000000000000000000000000000000000000000000000000000000000000000000000000000000000000000000000000000000000000000000000000000000000000000000000000000000000000000000000000000000000000000000000000000000000000000000000000000000000000000000000000000000",
      "type": "0x2",
      "transactionHash": "0x7ff7213bc821fcb862433367fddde5438821bace033949b2c149881bfd0972f9",
      "transactionIndex": "0x3b",
      "blockHash": "0x646aa05479ed87350fd304ce68a4a27df1170c757927e4f0ab35d69b5ee34e74",
      "blockNumber": "0x75a26c",
      "gasUsed": "0x58940",
      "effectiveGasPrice": "0x79f40e53",
      "from": "0xdef12db2bd62f88c8d59807e0ce9868279fd7fef",
      "to": null,
      "contractAddress": "0xb890953c3d75eeaf6507985ccdf7addd595e86cd"
    },
    {
      "status": "0x1",
      "cumulativeGasUsed": "0x7bd332",
      "logs": [],
      "logsBloom": "0x00000000000000000000000000000000000000000000000000000000000000000000000000000000000000000000000000000000000000000000000000000000000000000000000000000000000000000000000000000000000000000000000000000000000000000000000000000000000000000000000000000000000000000000000000000000000000000000000000000000000000000000000000000000000000000000000000000000000000000000000000000000000000000000000000000000000000000000000000000000000000000000000000000000000000000000000000000000000000000000000000000000000000000000000000000000",
      "type": "0x2",
      "transactionHash": "0x1c1c9751d6686a7b78a92893a6238d97c3d4043af635cf9fd428021b3f348bd6",
      "transactionIndex": "0x3c",
      "blockHash": "0x646aa05479ed87350fd304ce68a4a27df1170c757927e4f0ab35d69b5ee34e74",
      "blockNumber": "0x75a26c",
      "gasUsed": "0x10906a",
      "effectiveGasPrice": "0x79f40e53",
      "from": "0xdef12db2bd62f88c8d59807e0ce9868279fd7fef",
      "to": null,
      "contractAddress": "0x50f102d01cad306d4b3d2b3863e47aaf94ac7fd7"
    },
    {
      "status": "0x1",
      "cumulativeGasUsed": "0x815c72",
      "logs": [],
      "logsBloom": "0x00000000000000000000000000000000000000000000000000000000000000000000000000000000000000000000000000000000000000000000000000000000000000000000000000000000000000000000000000000000000000000000000000000000000000000000000000000000000000000000000000000000000000000000000000000000000000000000000000000000000000000000000000000000000000000000000000000000000000000000000000000000000000000000000000000000000000000000000000000000000000000000000000000000000000000000000000000000000000000000000000000000000000000000000000000000",
      "type": "0x2",
      "transactionHash": "0xb0d4d00d71ca6f5adc32cecc0811a60be1bcc14c782cb641a15857acb2f7d71c",
      "transactionIndex": "0x3d",
      "blockHash": "0x646aa05479ed87350fd304ce68a4a27df1170c757927e4f0ab35d69b5ee34e74",
      "blockNumber": "0x75a26c",
      "gasUsed": "0x58940",
      "effectiveGasPrice": "0x79f40e53",
      "from": "0xdef12db2bd62f88c8d59807e0ce9868279fd7fef",
      "to": null,
      "contractAddress": "0xef429e630f5c174b3cfcfdef13b4cfdb96472aec"
    },
    {
      "status": "0x1",
      "cumulativeGasUsed": "0x863f06",
      "logs": [],
      "logsBloom": "0x00000000000000000000000000000000000000000000000000000000000000000000000000000000000000000000000000000000000000000000000000000000000000000000000000000000000000000000000000000000000000000000000000000000000000000000000000000000000000000000000000000000000000000000000000000000000000000000000000000000000000000000000000000000000000000000000000000000000000000000000000000000000000000000000000000000000000000000000000000000000000000000000000000000000000000000000000000000000000000000000000000000000000000000000000000000",
      "type": "0x2",
      "transactionHash": "0xc61c875db60e8a6dd995910f699deb9a7d0ab6463ebdaee4c02c0d0da85436db",
      "transactionIndex": "0x3e",
      "blockHash": "0x646aa05479ed87350fd304ce68a4a27df1170c757927e4f0ab35d69b5ee34e74",
      "blockNumber": "0x75a26c",
      "gasUsed": "0x4e294",
      "effectiveGasPrice": "0x79f40e53",
      "from": "0xdef12db2bd62f88c8d59807e0ce9868279fd7fef",
      "to": null,
      "contractAddress": "0x0e4c9670e67378f5b0a4ecbf6bb3a5a5922bc742"
    },
    {
      "status": "0x1",
      "cumulativeGasUsed": "0x8bc846",
      "logs": [],
      "logsBloom": "0x00000000000000000000000000000000000000000000000000000000000000000000000000000000000000000000000000000000000000000000000000000000000000000000000000000000000000000000000000000000000000000000000000000000000000000000000000000000000000000000000000000000000000000000000000000000000000000000000000000000000000000000000000000000000000000000000000000000000000000000000000000000000000000000000000000000000000000000000000000000000000000000000000000000000000000000000000000000000000000000000000000000000000000000000000000000",
      "type": "0x2",
      "transactionHash": "0xe76dbaa46d95caf48c30aca8aa2a153f3db7e7b40bd4f319ed96cf5149a4a54d",
      "transactionIndex": "0x3f",
      "blockHash": "0x646aa05479ed87350fd304ce68a4a27df1170c757927e4f0ab35d69b5ee34e74",
      "blockNumber": "0x75a26c",
      "gasUsed": "0x58940",
      "effectiveGasPrice": "0x79f40e53",
      "from": "0xdef12db2bd62f88c8d59807e0ce9868279fd7fef",
      "to": null,
      "contractAddress": "0xa7021153af414c5024133e9d2a22dede5d74d6ce"
    },
    {
      "status": "0x1",
      "cumulativeGasUsed": "0x971364",
      "logs": [],
      "logsBloom": "0x00000000000000000000000000000000000000000000000000000000000000000000000000000000000000000000000000000000000000000000000000000000000000000000000000000000000000000000000000000000000000000000000000000000000000000000000000000000000000000000000000000000000000000000000000000000000000000000000000000000000000000000000000000000000000000000000000000000000000000000000000000000000000000000000000000000000000000000000000000000000000000000000000000000000000000000000000000000000000000000000000000000000000000000000000000000",
      "type": "0x2",
      "transactionHash": "0x2e15a4eae9caee3104f7caba673b79626313652bc3cec15675285f34e80ba944",
      "transactionIndex": "0x40",
      "blockHash": "0x646aa05479ed87350fd304ce68a4a27df1170c757927e4f0ab35d69b5ee34e74",
      "blockNumber": "0x75a26c",
      "gasUsed": "0xb4b1e",
      "effectiveGasPrice": "0x79f40e53",
      "from": "0xdef12db2bd62f88c8d59807e0ce9868279fd7fef",
      "to": null,
      "contractAddress": "0xfe35288e7c6261cac4e39889845f5a97442017e3"
    },
    {
      "status": "0x1",
      "cumulativeGasUsed": "0x9c9ca4",
      "logs": [],
      "logsBloom": "0x00000000000000000000000000000000000000000000000000000000000000000000000000000000000000000000000000000000000000000000000000000000000000000000000000000000000000000000000000000000000000000000000000000000000000000000000000000000000000000000000000000000000000000000000000000000000000000000000000000000000000000000000000000000000000000000000000000000000000000000000000000000000000000000000000000000000000000000000000000000000000000000000000000000000000000000000000000000000000000000000000000000000000000000000000000000",
      "type": "0x2",
      "transactionHash": "0xec0ee3838ccd748c555386938c7d5c801b4eac1fd00f007b8e42e94c2ce4fba3",
      "transactionIndex": "0x41",
      "blockHash": "0x646aa05479ed87350fd304ce68a4a27df1170c757927e4f0ab35d69b5ee34e74",
      "blockNumber": "0x75a26c",
      "gasUsed": "0x58940",
      "effectiveGasPrice": "0x79f40e53",
      "from": "0xdef12db2bd62f88c8d59807e0ce9868279fd7fef",
      "to": null,
      "contractAddress": "0xb61ef222013c3473fa8ec859770f323b1233f656"
    },
    {
      "status": "0x1",
      "cumulativeGasUsed": "0xbf12eb",
      "logs": [],
      "logsBloom": "0x00000000000000000000000000000000000000000000000000000000000000000000000000000000000000000000000000000000000000000000000000000000000000000000000000000000000000000000000000000000000000000000000000000000000000000000000000000000000000000000000000000000000000000000000000000000000000000000000000000000000000000000000000000000000000000000000000000000000000000000000000000000000000000000000000000000000000000000000000000000000000000000000000000000000000000000000000000000000000000000000000000000000000000000000000000000",
      "type": "0x2",
      "transactionHash": "0xe5c18f993f1ee7863d6a07412aa1c95565b948822b1c8c8d1bcf057e3d40ca32",
      "transactionIndex": "0x42",
      "blockHash": "0x646aa05479ed87350fd304ce68a4a27df1170c757927e4f0ab35d69b5ee34e74",
      "blockNumber": "0x75a26c",
      "gasUsed": "0x227647",
      "effectiveGasPrice": "0x79f40e53",
      "from": "0xdef12db2bd62f88c8d59807e0ce9868279fd7fef",
      "to": null,
      "contractAddress": "0xa50def40e38cb26aff71b0dbbaaa6912b558d21e"
    },
    {
      "status": "0x1",
      "cumulativeGasUsed": "0xbfe0c2",
      "logs": [
        {
          "address": "0xb890953c3d75eeaf6507985ccdf7addd595e86cd",
          "topics": [
            "0x943a793c11a909d4409e7706d8c3d1467960e08f6141234950042994856812df",
            "0x6e616d6500000000000000000000000000000000000000000000000000000000"
          ],
          "data": "0x43414e4155534454000000000000000000000000000000000000000000000000",
          "blockHash": "0x646aa05479ed87350fd304ce68a4a27df1170c757927e4f0ab35d69b5ee34e74",
          "blockNumber": "0x75a26c",
          "transactionHash": "0x7ece23bcfc84cd72b4ac23bcace989c610744de2463f92d5663a8097484d03bb",
          "transactionIndex": "0x43",
          "logIndex": "0x50",
          "removed": false
        }
      ],
      "logsBloom": "0x00000000000000000000000000000000000000004000000000000000000000004000000000000000800000000000000000000000000000000000000000000000000000200000000000000000000000000000000000000000000000000000000000000000000000000000000000000000000000000000000000000000000000000000000000000000000000000000000000000000000000000000000000000010000000000000000000000000000000000020000000000000000000000000000000000000000000000000000000000000000400100000000000000000040000000000000000000000000000000000000000000000000000000000000000000000",
      "type": "0x2",
      "transactionHash": "0x7ece23bcfc84cd72b4ac23bcace989c610744de2463f92d5663a8097484d03bb",
      "transactionIndex": "0x43",
      "blockHash": "0x646aa05479ed87350fd304ce68a4a27df1170c757927e4f0ab35d69b5ee34e74",
      "blockNumber": "0x75a26c",
      "gasUsed": "0xcdd7",
      "effectiveGasPrice": "0x79f40e53",
      "from": "0xdef12db2bd62f88c8d59807e0ce9868279fd7fef",
      "to": "0xb890953c3d75eeaf6507985ccdf7addd595e86cd",
      "contractAddress": null
    },
    {
      "status": "0x1",
      "cumulativeGasUsed": "0xc0aeb1",
      "logs": [
        {
          "address": "0xb890953c3d75eeaf6507985ccdf7addd595e86cd",
          "topics": [
            "0x943a793c11a909d4409e7706d8c3d1467960e08f6141234950042994856812df",
            "0x646563696d616c73000000000000000000000000000000000000000000000000"
          ],
          "data": "0x0000000000000000000000000000000000000000000000000000000000000006",
          "blockHash": "0x646aa05479ed87350fd304ce68a4a27df1170c757927e4f0ab35d69b5ee34e74",
          "blockNumber": "0x75a26c",
          "transactionHash": "0x9d3c946eb8b226c25f15db687858f9e8ff291d99a2dc6c458f72d9a08a3148d1",
          "transactionIndex": "0x44",
          "logIndex": "0x51",
          "removed": false
        }
      ],
      "logsBloom": "0x00000000000000000000000000000000000000004000000000000000000000004000000000000000000000000400000000000000000000000000000000000000000000200000000000000000000000000000000000000000000000000000000000000000000000000000000000000000000000000000000000000000000000000000000000000000000000000000000000000000000000000000000000000000000000000000000000000000000000000020000000000000000000000000000000000000000000000000000000000000001000100000000000000000040000000000000000000000000000000000000000004000000000000000000000000000",
      "type": "0x2",
      "transactionHash": "0x9d3c946eb8b226c25f15db687858f9e8ff291d99a2dc6c458f72d9a08a3148d1",
      "transactionIndex": "0x44",
      "blockHash": "0x646aa05479ed87350fd304ce68a4a27df1170c757927e4f0ab35d69b5ee34e74",
      "blockNumber": "0x75a26c",
      "gasUsed": "0xcdef",
      "effectiveGasPrice": "0x79f40e53",
      "from": "0xdef12db2bd62f88c8d59807e0ce9868279fd7fef",
      "to": "0xb890953c3d75eeaf6507985ccdf7addd595e86cd",
      "contractAddress": null
    },
    {
      "status": "0x1",
      "cumulativeGasUsed": "0xc17b7d",
      "logs": [
        {
          "address": "0xb890953c3d75eeaf6507985ccdf7addd595e86cd",
          "topics": [
            "0x92664190cca12aca9cd5309d87194bdda75bb51362d71c06e1a6f75c7c765711",
            "0x00000000000000000000000000000000000000000000000000000000000f4240",
            "0x0000000000000000000000000000000000000000000000000000000067afdb04"
          ],
          "data": "0x",
          "blockHash": "0x646aa05479ed87350fd304ce68a4a27df1170c757927e4f0ab35d69b5ee34e74",
          "blockNumber": "0x75a26c",
          "transactionHash": "0x0034444a300ffa4e3b9d14fe97d60b0f98c2311479ea971132a88f2fb6a0984f",
          "transactionIndex": "0x45",
          "logIndex": "0x52",
          "removed": false
        }
      ],
      "logsBloom": "0x00000000000000000000000000000000000000004000000000000000000000004000000000000000000000000000000000001000000000000000000000000000000000000000000000000000000000000000000000000040000000000000000000000000000000000000000000000000000200000000000000000000000000000000000000000000000000000010000000000000000000000000200000000000000000000000000000000000000002000000000000000000000000000000000000000000000000000000800000000000000000000000000000000000042000100000000000000000000000000000000000000000000000000000000000000000",
      "type": "0x2",
      "transactionHash": "0x0034444a300ffa4e3b9d14fe97d60b0f98c2311479ea971132a88f2fb6a0984f",
      "transactionIndex": "0x45",
      "blockHash": "0x646aa05479ed87350fd304ce68a4a27df1170c757927e4f0ab35d69b5ee34e74",
      "blockNumber": "0x75a26c",
      "gasUsed": "0xcccc",
      "effectiveGasPrice": "0x79f40e53",
      "from": "0xdef12db2bd62f88c8d59807e0ce9868279fd7fef",
      "to": "0xb890953c3d75eeaf6507985ccdf7addd595e86cd",
      "contractAddress": null
    },
    {
      "status": "0x1",
      "cumulativeGasUsed": "0xc243fd",
      "logs": [],
      "logsBloom": "0x00000000000000000000000000000000000000000000000000000000000000000000000000000000000000000000000000000000000000000000000000000000000000000000000000000000000000000000000000000000000000000000000000000000000000000000000000000000000000000000000000000000000000000000000000000000000000000000000000000000000000000000000000000000000000000000000000000000000000000000000000000000000000000000000000000000000000000000000000000000000000000000000000000000000000000000000000000000000000000000000000000000000000000000000000000000",
      "type": "0x2",
      "transactionHash": "0x403eacef7d6dc503f62cc437e0cdb49cacf9305b9a58e234c1a392da559a267d",
      "transactionIndex": "0x46",
      "blockHash": "0x646aa05479ed87350fd304ce68a4a27df1170c757927e4f0ab35d69b5ee34e74",
      "blockNumber": "0x75a26c",
      "gasUsed": "0xc880",
      "effectiveGasPrice": "0x79f40e53",
      "from": "0xdef12db2bd62f88c8d59807e0ce9868279fd7fef",
      "to": "0xb890953c3d75eeaf6507985ccdf7addd595e86cd",
      "contractAddress": null
    },
    {
      "status": "0x1",
      "cumulativeGasUsed": "0xc2bebf",
      "logs": [],
      "logsBloom": "0x00000000000000000000000000000000000000000000000000000000000000000000000000000000000000000000000000000000000000000000000000000000000000000000000000000000000000000000000000000000000000000000000000000000000000000000000000000000000000000000000000000000000000000000000000000000000000000000000000000000000000000000000000000000000000000000000000000000000000000000000000000000000000000000000000000000000000000000000000000000000000000000000000000000000000000000000000000000000000000000000000000000000000000000000000000000",
      "type": "0x2",
      "transactionHash": "0x24b14a55482228016ab9d2399ddd4f711190c816309a6ff57269a3a48b367d4f",
      "transactionIndex": "0x47",
      "blockHash": "0x646aa05479ed87350fd304ce68a4a27df1170c757927e4f0ab35d69b5ee34e74",
      "blockNumber": "0x75a26c",
      "gasUsed": "0x7ac2",
      "effectiveGasPrice": "0x79f40e53",
      "from": "0xdef12db2bd62f88c8d59807e0ce9868279fd7fef",
      "to": "0xb890953c3d75eeaf6507985ccdf7addd595e86cd",
      "contractAddress": null
    },
    {
      "status": "0x1",
      "cumulativeGasUsed": "0xc373d8",
      "logs": [],
      "logsBloom": "0x00000000000000000000000000000000000000000000000000000000000000000000000000000000000000000000000000000000000000000000000000000000000000000000000000000000000000000000000000000000000000000000000000000000000000000000000000000000000000000000000000000000000000000000000000000000000000000000000000000000000000000000000000000000000000000000000000000000000000000000000000000000000000000000000000000000000000000000000000000000000000000000000000000000000000000000000000000000000000000000000000000000000000000000000000000000",
      "type": "0x2",
      "transactionHash": "0xd799892a749d5a379c36bab93958e026f0bdcde01224a90cb2cf220bc25e0df7",
      "transactionIndex": "0x48",
      "blockHash": "0x646aa05479ed87350fd304ce68a4a27df1170c757927e4f0ab35d69b5ee34e74",
      "blockNumber": "0x75a26c",
      "gasUsed": "0xb519",
      "effectiveGasPrice": "0x79f40e53",
      "from": "0xdef12db2bd62f88c8d59807e0ce9868279fd7fef",
      "to": "0xb890953c3d75eeaf6507985ccdf7addd595e86cd",
      "contractAddress": null
    },
    {
      "status": "0x1",
      "cumulativeGasUsed": "0xc3db4b",
      "logs": [],
      "logsBloom": "0x00000000000000000000000000000000000000000000000000000000000000000000000000000000000000000000000000000000000000000000000000000000000000000000000000000000000000000000000000000000000000000000000000000000000000000000000000000000000000000000000000000000000000000000000000000000000000000000000000000000000000000000000000000000000000000000000000000000000000000000000000000000000000000000000000000000000000000000000000000000000000000000000000000000000000000000000000000000000000000000000000000000000000000000000000000000",
      "type": "0x2",
      "transactionHash": "0x346c9309ffb8c439f4f2f2644ae5c734e03094e3253e77850f56e94ed681515d",
      "transactionIndex": "0x49",
      "blockHash": "0x646aa05479ed87350fd304ce68a4a27df1170c757927e4f0ab35d69b5ee34e74",
      "blockNumber": "0x75a26c",
      "gasUsed": "0x6773",
      "effectiveGasPrice": "0x79f40e53",
      "from": "0xdef12db2bd62f88c8d59807e0ce9868279fd7fef",
      "to": "0xb890953c3d75eeaf6507985ccdf7addd595e86cd",
      "contractAddress": null
    },
    {
      "status": "0x1",
      "cumulativeGasUsed": "0xc4a285",
      "logs": [],
      "logsBloom": "0x00000000000000000000000000000000000000000000000000000000000000000000000000000000000000000000000000000000000000000000000000000000000000000000000000000000000000000000000000000000000000000000000000000000000000000000000000000000000000000000000000000000000000000000000000000000000000000000000000000000000000000000000000000000000000000000000000000000000000000000000000000000000000000000000000000000000000000000000000000000000000000000000000000000000000000000000000000000000000000000000000000000000000000000000000000000",
      "type": "0x2",
      "transactionHash": "0xef53ce17e008c2dd07500aeae160f14a6b795bf3945fb4ad165c7ce8b0905f75",
      "transactionIndex": "0x4a",
      "blockHash": "0x646aa05479ed87350fd304ce68a4a27df1170c757927e4f0ab35d69b5ee34e74",
      "blockNumber": "0x75a26c",
      "gasUsed": "0xc73a",
      "effectiveGasPrice": "0x79f40e53",
      "from": "0xdef12db2bd62f88c8d59807e0ce9868279fd7fef",
      "to": "0xef429e630f5c174b3cfcfdef13b4cfdb96472aec",
      "contractAddress": null
    },
    {
      "status": "0x1",
      "cumulativeGasUsed": "0xc569c1",
      "logs": [],
      "logsBloom": "0x00000000000000000000000000000000000000000000000000000000000000000000000000000000000000000000000000000000000000000000000000000000000000000000000000000000000000000000000000000000000000000000000000000000000000000000000000000000000000000000000000000000000000000000000000000000000000000000000000000000000000000000000000000000000000000000000000000000000000000000000000000000000000000000000000000000000000000000000000000000000000000000000000000000000000000000000000000000000000000000000000000000000000000000000000000000",
      "type": "0x2",
      "transactionHash": "0x0aba05bd36ece155948fcd92b0595710aebd62ca06e584d520c96326cb5f5735",
      "transactionIndex": "0x4b",
      "blockHash": "0x646aa05479ed87350fd304ce68a4a27df1170c757927e4f0ab35d69b5ee34e74",
      "blockNumber": "0x75a26c",
      "gasUsed": "0xc73c",
      "effectiveGasPrice": "0x79f40e53",
      "from": "0xdef12db2bd62f88c8d59807e0ce9868279fd7fef",
      "to": "0xef429e630f5c174b3cfcfdef13b4cfdb96472aec",
      "contractAddress": null
    },
    {
      "status": "0x1",
      "cumulativeGasUsed": "0xc630b8",
      "logs": [],
      "logsBloom": "0x00000000000000000000000000000000000000000000000000000000000000000000000000000000000000000000000000000000000000000000000000000000000000000000000000000000000000000000000000000000000000000000000000000000000000000000000000000000000000000000000000000000000000000000000000000000000000000000000000000000000000000000000000000000000000000000000000000000000000000000000000000000000000000000000000000000000000000000000000000000000000000000000000000000000000000000000000000000000000000000000000000000000000000000000000000000",
      "type": "0x2",
      "transactionHash": "0x65f784c5afad6eb4d4939bab3cde1127206b1d8fb3a3f24d5bb2c211e5f45b7b",
      "transactionIndex": "0x4c",
      "blockHash": "0x646aa05479ed87350fd304ce68a4a27df1170c757927e4f0ab35d69b5ee34e74",
      "blockNumber": "0x75a26c",
      "gasUsed": "0xc6f7",
      "effectiveGasPrice": "0x79f40e53",
      "from": "0xdef12db2bd62f88c8d59807e0ce9868279fd7fef",
      "to": "0xef429e630f5c174b3cfcfdef13b4cfdb96472aec",
      "contractAddress": null
    },
    {
      "status": "0x1",
      "cumulativeGasUsed": "0xc6f7b0",
      "logs": [],
      "logsBloom": "0x00000000000000000000000000000000000000000000000000000000000000000000000000000000000000000000000000000000000000000000000000000000000000000000000000000000000000000000000000000000000000000000000000000000000000000000000000000000000000000000000000000000000000000000000000000000000000000000000000000000000000000000000000000000000000000000000000000000000000000000000000000000000000000000000000000000000000000000000000000000000000000000000000000000000000000000000000000000000000000000000000000000000000000000000000000000",
      "type": "0x2",
      "transactionHash": "0xb7f3e5d8554576fa79466bb5313d72406659e7a7a0dddf847b47913a6a911701",
      "transactionIndex": "0x4d",
      "blockHash": "0x646aa05479ed87350fd304ce68a4a27df1170c757927e4f0ab35d69b5ee34e74",
      "blockNumber": "0x75a26c",
      "gasUsed": "0xc6f8",
      "effectiveGasPrice": "0x79f40e53",
      "from": "0xdef12db2bd62f88c8d59807e0ce9868279fd7fef",
      "to": "0xef429e630f5c174b3cfcfdef13b4cfdb96472aec",
      "contractAddress": null
    },
    {
      "status": "0x1",
      "cumulativeGasUsed": "0xc7c05c",
      "logs": [],
      "logsBloom": "0x00000000000000000000000000000000000000000000000000000000000000000000000000000000000000000000000000000000000000000000000000000000000000000000000000000000000000000000000000000000000000000000000000000000000000000000000000000000000000000000000000000000000000000000000000000000000000000000000000000000000000000000000000000000000000000000000000000000000000000000000000000000000000000000000000000000000000000000000000000000000000000000000000000000000000000000000000000000000000000000000000000000000000000000000000000000",
      "type": "0x2",
      "transactionHash": "0x74fa6a779698dd7807356bbcfc94c618c5b6d0958aded0fc9abaadbb4d44f32e",
      "transactionIndex": "0x4e",
      "blockHash": "0x646aa05479ed87350fd304ce68a4a27df1170c757927e4f0ab35d69b5ee34e74",
      "blockNumber": "0x75a26c",
      "gasUsed": "0xc8ac",
      "effectiveGasPrice": "0x79f40e53",
      "from": "0xdef12db2bd62f88c8d59807e0ce9868279fd7fef",
      "to": "0xef429e630f5c174b3cfcfdef13b4cfdb96472aec",
      "contractAddress": null
    },
    {
      "status": "0x1",
      "cumulativeGasUsed": "0xc83b4b",
      "logs": [],
      "logsBloom": "0x00000000000000000000000000000000000000000000000000000000000000000000000000000000000000000000000000000000000000000000000000000000000000000000000000000000000000000000000000000000000000000000000000000000000000000000000000000000000000000000000000000000000000000000000000000000000000000000000000000000000000000000000000000000000000000000000000000000000000000000000000000000000000000000000000000000000000000000000000000000000000000000000000000000000000000000000000000000000000000000000000000000000000000000000000000000",
      "type": "0x2",
      "transactionHash": "0x50692f95bff79b8aeea623c6ff79af609fc4095684e66eaada3e12f4b88d00cb",
      "transactionIndex": "0x4f",
      "blockHash": "0x646aa05479ed87350fd304ce68a4a27df1170c757927e4f0ab35d69b5ee34e74",
      "blockNumber": "0x75a26c",
      "gasUsed": "0x7aef",
      "effectiveGasPrice": "0x79f40e53",
      "from": "0xdef12db2bd62f88c8d59807e0ce9868279fd7fef",
      "to": "0xef429e630f5c174b3cfcfdef13b4cfdb96472aec",
      "contractAddress": null
    },
    {
      "status": "0x1",
      "cumulativeGasUsed": "0xc8f064",
      "logs": [],
      "logsBloom": "0x00000000000000000000000000000000000000000000000000000000000000000000000000000000000000000000000000000000000000000000000000000000000000000000000000000000000000000000000000000000000000000000000000000000000000000000000000000000000000000000000000000000000000000000000000000000000000000000000000000000000000000000000000000000000000000000000000000000000000000000000000000000000000000000000000000000000000000000000000000000000000000000000000000000000000000000000000000000000000000000000000000000000000000000000000000000",
      "type": "0x2",
      "transactionHash": "0xbbb64352617990bd11331ae8100eb192b749661b440d6c3c86276be30e314268",
      "transactionIndex": "0x50",
      "blockHash": "0x646aa05479ed87350fd304ce68a4a27df1170c757927e4f0ab35d69b5ee34e74",
      "blockNumber": "0x75a26c",
      "gasUsed": "0xb519",
      "effectiveGasPrice": "0x79f40e53",
      "from": "0xdef12db2bd62f88c8d59807e0ce9868279fd7fef",
      "to": "0xef429e630f5c174b3cfcfdef13b4cfdb96472aec",
      "contractAddress": null
    },
    {
      "status": "0x1",
      "cumulativeGasUsed": "0xc957d7",
      "logs": [],
      "logsBloom": "0x00000000000000000000000000000000000000000000000000000000000000000000000000000000000000000000000000000000000000000000000000000000000000000000000000000000000000000000000000000000000000000000000000000000000000000000000000000000000000000000000000000000000000000000000000000000000000000000000000000000000000000000000000000000000000000000000000000000000000000000000000000000000000000000000000000000000000000000000000000000000000000000000000000000000000000000000000000000000000000000000000000000000000000000000000000000",
      "type": "0x2",
      "transactionHash": "0x6b536967934e97d208667fba0b31a177d86589a4472535eb489aff6a5961e923",
      "transactionIndex": "0x51",
      "blockHash": "0x646aa05479ed87350fd304ce68a4a27df1170c757927e4f0ab35d69b5ee34e74",
      "blockNumber": "0x75a26c",
      "gasUsed": "0x6773",
      "effectiveGasPrice": "0x79f40e53",
      "from": "0xdef12db2bd62f88c8d59807e0ce9868279fd7fef",
      "to": "0xef429e630f5c174b3cfcfdef13b4cfdb96472aec",
      "contractAddress": null
    },
    {
      "status": "0x1",
      "cumulativeGasUsed": "0xca2036",
      "logs": [],
      "logsBloom": "0x00000000000000000000000000000000000000000000000000000000000000000000000000000000000000000000000000000000000000000000000000000000000000000000000000000000000000000000000000000000000000000000000000000000000000000000000000000000000000000000000000000000000000000000000000000000000000000000000000000000000000000000000000000000000000000000000000000000000000000000000000000000000000000000000000000000000000000000000000000000000000000000000000000000000000000000000000000000000000000000000000000000000000000000000000000000",
      "type": "0x2",
      "transactionHash": "0x2fe78f586395635ae1c12215e6df964fefdc35b6e6685e1c4e49fedb799203ca",
      "transactionIndex": "0x52",
      "blockHash": "0x646aa05479ed87350fd304ce68a4a27df1170c757927e4f0ab35d69b5ee34e74",
      "blockNumber": "0x75a26c",
      "gasUsed": "0xc85f",
      "effectiveGasPrice": "0x79f40e53",
      "from": "0xdef12db2bd62f88c8d59807e0ce9868279fd7fef",
      "to": "0xa7021153af414c5024133e9d2a22dede5d74d6ce",
      "contractAddress": null
    },
    {
      "status": "0x1",
      "cumulativeGasUsed": "0xca9af8",
      "logs": [],
      "logsBloom": "0x00000000000000000000000000000000000000000000000000000000000000000000000000000000000000000000000000000000000000000000000000000000000000000000000000000000000000000000000000000000000000000000000000000000000000000000000000000000000000000000000000000000000000000000000000000000000000000000000000000000000000000000000000000000000000000000000000000000000000000000000000000000000000000000000000000000000000000000000000000000000000000000000000000000000000000000000000000000000000000000000000000000000000000000000000000000",
      "type": "0x2",
      "transactionHash": "0x4f5ef131f4ea5d34ac0fe9af097b263a4c3bc218120e8a11952a7e95e63eda96",
      "transactionIndex": "0x53",
      "blockHash": "0x646aa05479ed87350fd304ce68a4a27df1170c757927e4f0ab35d69b5ee34e74",
      "blockNumber": "0x75a26c",
      "gasUsed": "0x7ac2",
      "effectiveGasPrice": "0x79f40e53",
      "from": "0xdef12db2bd62f88c8d59807e0ce9868279fd7fef",
      "to": "0xa7021153af414c5024133e9d2a22dede5d74d6ce",
      "contractAddress": null
    },
    {
      "status": "0x1",
      "cumulativeGasUsed": "0xcb5011",
      "logs": [],
      "logsBloom": "0x00000000000000000000000000000000000000000000000000000000000000000000000000000000000000000000000000000000000000000000000000000000000000000000000000000000000000000000000000000000000000000000000000000000000000000000000000000000000000000000000000000000000000000000000000000000000000000000000000000000000000000000000000000000000000000000000000000000000000000000000000000000000000000000000000000000000000000000000000000000000000000000000000000000000000000000000000000000000000000000000000000000000000000000000000000000",
      "type": "0x2",
      "transactionHash": "0xa56509babcbfd1e13236459ac0a7f03fd6bab0f8ef9949a6717de5397de57b21",
      "transactionIndex": "0x54",
      "blockHash": "0x646aa05479ed87350fd304ce68a4a27df1170c757927e4f0ab35d69b5ee34e74",
      "blockNumber": "0x75a26c",
      "gasUsed": "0xb519",
      "effectiveGasPrice": "0x79f40e53",
      "from": "0xdef12db2bd62f88c8d59807e0ce9868279fd7fef",
      "to": "0xa7021153af414c5024133e9d2a22dede5d74d6ce",
      "contractAddress": null
    },
    {
      "status": "0x1",
      "cumulativeGasUsed": "0xcbb784",
      "logs": [],
      "logsBloom": "0x00000000000000000000000000000000000000000000000000000000000000000000000000000000000000000000000000000000000000000000000000000000000000000000000000000000000000000000000000000000000000000000000000000000000000000000000000000000000000000000000000000000000000000000000000000000000000000000000000000000000000000000000000000000000000000000000000000000000000000000000000000000000000000000000000000000000000000000000000000000000000000000000000000000000000000000000000000000000000000000000000000000000000000000000000000000",
      "type": "0x2",
      "transactionHash": "0xa69adf5ffa37a14f984ddd5445a77cc40e4d4fb71c32657bb3ea92801c075c27",
      "transactionIndex": "0x55",
      "blockHash": "0x646aa05479ed87350fd304ce68a4a27df1170c757927e4f0ab35d69b5ee34e74",
      "blockNumber": "0x75a26c",
      "gasUsed": "0x6773",
      "effectiveGasPrice": "0x79f40e53",
      "from": "0xdef12db2bd62f88c8d59807e0ce9868279fd7fef",
      "to": "0xa7021153af414c5024133e9d2a22dede5d74d6ce",
      "contractAddress": null
    },
    {
      "status": "0x1",
      "cumulativeGasUsed": "0xcc7f93",
      "logs": [],
      "logsBloom": "0x00000000000000000000000000000000000000000000000000000000000000000000000000000000000000000000000000000000000000000000000000000000000000000000000000000000000000000000000000000000000000000000000000000000000000000000000000000000000000000000000000000000000000000000000000000000000000000000000000000000000000000000000000000000000000000000000000000000000000000000000000000000000000000000000000000000000000000000000000000000000000000000000000000000000000000000000000000000000000000000000000000000000000000000000000000000",
      "type": "0x2",
      "transactionHash": "0xc2b2972304426d755075c1e08c002a25d0389d8da649782c44ac41045e360fc6",
      "transactionIndex": "0x56",
      "blockHash": "0x646aa05479ed87350fd304ce68a4a27df1170c757927e4f0ab35d69b5ee34e74",
      "blockNumber": "0x75a26c",
      "gasUsed": "0xc80f",
      "effectiveGasPrice": "0x79f40e53",
      "from": "0xdef12db2bd62f88c8d59807e0ce9868279fd7fef",
      "to": "0xb61ef222013c3473fa8ec859770f323b1233f656",
      "contractAddress": null
    },
    {
      "status": "0x1",
      "cumulativeGasUsed": "0xcd47ca",
      "logs": [],
      "logsBloom": "0x00000000000000000000000000000000000000000000000000000000000000000000000000000000000000000000000000000000000000000000000000000000000000000000000000000000000000000000000000000000000000000000000000000000000000000000000000000000000000000000000000000000000000000000000000000000000000000000000000000000000000000000000000000000000000000000000000000000000000000000000000000000000000000000000000000000000000000000000000000000000000000000000000000000000000000000000000000000000000000000000000000000000000000000000000000000",
      "type": "0x2",
      "transactionHash": "0xa8ab389fd2f99e5cb700368800a4dd29c1c05596c5a10121ac5cc5d8aadd138f",
      "transactionIndex": "0x57",
      "blockHash": "0x646aa05479ed87350fd304ce68a4a27df1170c757927e4f0ab35d69b5ee34e74",
      "blockNumber": "0x75a26c",
      "gasUsed": "0xc837",
      "effectiveGasPrice": "0x79f40e53",
      "from": "0xdef12db2bd62f88c8d59807e0ce9868279fd7fef",
      "to": "0xb61ef222013c3473fa8ec859770f323b1233f656",
      "contractAddress": null
    },
    {
      "status": "0x1",
      "cumulativeGasUsed": "0xce1001",
      "logs": [],
      "logsBloom": "0x00000000000000000000000000000000000000000000000000000000000000000000000000000000000000000000000000000000000000000000000000000000000000000000000000000000000000000000000000000000000000000000000000000000000000000000000000000000000000000000000000000000000000000000000000000000000000000000000000000000000000000000000000000000000000000000000000000000000000000000000000000000000000000000000000000000000000000000000000000000000000000000000000000000000000000000000000000000000000000000000000000000000000000000000000000000",
      "type": "0x2",
      "transactionHash": "0xcd86b2d765044d0db0150aa38ccadee6c67d0082a9d3d53c96d57ff98aa902c8",
      "transactionIndex": "0x58",
      "blockHash": "0x646aa05479ed87350fd304ce68a4a27df1170c757927e4f0ab35d69b5ee34e74",
      "blockNumber": "0x75a26c",
      "gasUsed": "0xc837",
      "effectiveGasPrice": "0x79f40e53",
      "from": "0xdef12db2bd62f88c8d59807e0ce9868279fd7fef",
      "to": "0xb61ef222013c3473fa8ec859770f323b1233f656",
      "contractAddress": null
    },
    {
      "status": "0x1",
      "cumulativeGasUsed": "0xced8ba",
      "logs": [],
      "logsBloom": "0x00000000000000000000000000000000000000000000000000000000000000000000000000000000000000000000000000000000000000000000000000000000000000000000000000000000000000000000000000000000000000000000000000000000000000000000000000000000000000000000000000000000000000000000000000000000000000000000000000000000000000000000000000000000000000000000000000000000000000000000000000000000000000000000000000000000000000000000000000000000000000000000000000000000000000000000000000000000000000000000000000000000000000000000000000000000",
      "type": "0x2",
      "transactionHash": "0x2c65de6f7abbfaf8ea6dfad8d0aac8f547ef0d6bac712eaac45d3ee9b85bf68c",
      "transactionIndex": "0x59",
      "blockHash": "0x646aa05479ed87350fd304ce68a4a27df1170c757927e4f0ab35d69b5ee34e74",
      "blockNumber": "0x75a26c",
      "gasUsed": "0xc8b9",
      "effectiveGasPrice": "0x79f40e53",
      "from": "0xdef12db2bd62f88c8d59807e0ce9868279fd7fef",
      "to": "0xb61ef222013c3473fa8ec859770f323b1233f656",
      "contractAddress": null
    },
    {
      "status": "0x1",
      "cumulativeGasUsed": "0xcf53cc",
      "logs": [],
      "logsBloom": "0x00000000000000000000000000000000000000000000000000000000000000000000000000000000000000000000000000000000000000000000000000000000000000000000000000000000000000000000000000000000000000000000000000000000000000000000000000000000000000000000000000000000000000000000000000000000000000000000000000000000000000000000000000000000000000000000000000000000000000000000000000000000000000000000000000000000000000000000000000000000000000000000000000000000000000000000000000000000000000000000000000000000000000000000000000000000",
      "type": "0x2",
      "transactionHash": "0x44182b0d31d2f7e504b5f37f36cc187df8c230c84f01c4274747eb88f39a2f0a",
      "transactionIndex": "0x5a",
      "blockHash": "0x646aa05479ed87350fd304ce68a4a27df1170c757927e4f0ab35d69b5ee34e74",
      "blockNumber": "0x75a26c",
      "gasUsed": "0x7b12",
      "effectiveGasPrice": "0x79f40e53",
      "from": "0xdef12db2bd62f88c8d59807e0ce9868279fd7fef",
      "to": "0xb61ef222013c3473fa8ec859770f323b1233f656",
      "contractAddress": null
    },
    {
      "status": "0x1",
      "cumulativeGasUsed": "0xd008e5",
      "logs": [],
      "logsBloom": "0x00000000000000000000000000000000000000000000000000000000000000000000000000000000000000000000000000000000000000000000000000000000000000000000000000000000000000000000000000000000000000000000000000000000000000000000000000000000000000000000000000000000000000000000000000000000000000000000000000000000000000000000000000000000000000000000000000000000000000000000000000000000000000000000000000000000000000000000000000000000000000000000000000000000000000000000000000000000000000000000000000000000000000000000000000000000",
      "type": "0x2",
      "transactionHash": "0xb069da0f3c489857a72d614a81a622af4b2778c9e3252fe4cf44510885ad021a",
      "transactionIndex": "0x5b",
      "blockHash": "0x646aa05479ed87350fd304ce68a4a27df1170c757927e4f0ab35d69b5ee34e74",
      "blockNumber": "0x75a26c",
      "gasUsed": "0xb519",
      "effectiveGasPrice": "0x79f40e53",
      "from": "0xdef12db2bd62f88c8d59807e0ce9868279fd7fef",
      "to": "0xb61ef222013c3473fa8ec859770f323b1233f656",
      "contractAddress": null
    },
    {
      "status": "0x1",
      "cumulativeGasUsed": "0xd07058",
      "logs": [],
      "logsBloom": "0x00000000000000000000000000000000000000000000000000000000000000000000000000000000000000000000000000000000000000000000000000000000000000000000000000000000000000000000000000000000000000000000000000000000000000000000000000000000000000000000000000000000000000000000000000000000000000000000000000000000000000000000000000000000000000000000000000000000000000000000000000000000000000000000000000000000000000000000000000000000000000000000000000000000000000000000000000000000000000000000000000000000000000000000000000000000",
      "type": "0x2",
      "transactionHash": "0xebdb6834e211c4df02f7dbb6942a8d15a4ad59a28c920740c00f1a7e3c2cd197",
      "transactionIndex": "0x5c",
      "blockHash": "0x646aa05479ed87350fd304ce68a4a27df1170c757927e4f0ab35d69b5ee34e74",
      "blockNumber": "0x75a26c",
      "gasUsed": "0x6773",
      "effectiveGasPrice": "0x79f40e53",
      "from": "0xdef12db2bd62f88c8d59807e0ce9868279fd7fef",
      "to": "0xb61ef222013c3473fa8ec859770f323b1233f656",
      "contractAddress": null
    }
  ],
  "libraries": [],
  "pending": [],
  "returns": {},
  "timestamp": 1739825886,
  "chain": 11155111,
  "commit": "0c487a9"
}