{
  "transactions": [
    {
      "hash": "0x7fd290115f4fd53b4454586d060932e2e831320f6e73daed94e72376142a39b0",
      "transactionType": "CALL",
      "contractName": "MockUSDT",
      "contractAddress": "0xcaddb146b3f1a6a558ecd01380b81c2faf9c8a10",
      "function": "mint(address,uint256)",
      "arguments": [
        "0x1804c8AB1F12E6bbf3894d4083f33e07309d1f38",
        "100000000000000000"
      ],
      "transaction": {
        "from": "0xdef12db2bd62f88c8d59807e0ce9868279fd7fef",
        "to": "0xcaddb146b3f1a6a558ecd01380b81c2faf9c8a10",
        "gas": "0xc44e",
        "value": "0x0",
        "input": "0x40c10f190000000000000000000000001804c8ab1f12e6bbf3894d4083f33e07309d1f38000000000000000000000000000000000000000000000000016345785d8a0000",
        "nonce": "0x16b",
        "chainId": "0xaa36a7"
      },
      "additionalContracts": [],
      "isFixedGasLimit": false
    },
    {
      "hash": "0xa856f596a934e78e2ea1ac72fcd3fcd7a3d026d4358a62e8186026a4789ddddc",
      "transactionType": "CALL",
      "contractName": "MockUSDT",
      "contractAddress": "0xcaddb146b3f1a6a558ecd01380b81c2faf9c8a10",
      "function": "mint(address,uint256)",
      "arguments": [
        "0xB05502bf20342331F42A7B80Aa4bAB3F8cA86C0F",
        "100000000000000000"
      ],
      "transaction": {
        "from": "0xdef12db2bd62f88c8d59807e0ce9868279fd7fef",
        "to": "0xcaddb146b3f1a6a558ecd01380b81c2faf9c8a10",
        "gas": "0xc44e",
        "value": "0x0",
        "input": "0x40c10f19000000000000000000000000b05502bf20342331f42a7b80aa4bab3f8ca86c0f000000000000000000000000000000000000000000000000016345785d8a0000",
        "nonce": "0x16c",
        "chainId": "0xaa36a7"
      },
      "additionalContracts": [],
      "isFixedGasLimit": false
    },
    {
      "hash": "0x00b42e1aa601d1124faddc449e8986b56ba1418584cfeae7ce22364fcbd4e12a",
      "transactionType": "CALL",
      "contractName": "MockUSDT",
      "contractAddress": "0xcaddb146b3f1a6a558ecd01380b81c2faf9c8a10",
      "function": "mint(address,uint256)",
      "arguments": [
        "0xE1114C2316f34aaCe2f827671CD35B044CF4e74c",
        "100000000000000000"
      ],
      "transaction": {
        "from": "0xdef12db2bd62f88c8d59807e0ce9868279fd7fef",
        "to": "0xcaddb146b3f1a6a558ecd01380b81c2faf9c8a10",
        "gas": "0xc44e",
        "value": "0x0",
        "input": "0x40c10f19000000000000000000000000e1114c2316f34aace2f827671cd35b044cf4e74c000000000000000000000000000000000000000000000000016345785d8a0000",
        "nonce": "0x16d",
        "chainId": "0xaa36a7"
      },
      "additionalContracts": [],
      "isFixedGasLimit": false
    },
    {
      "hash": "0xe038565ae669ffb081c6d89faab5ef1705ce743e659d148351005e8da8a26694",
      "transactionType": "CREATE",
      "contractName": "MaseerPrice",
      "contractAddress": "0xbe6d9849c0e288245ff673ca4d65e649a79f7615",
      "function": null,
      "arguments": null,
      "transaction": {
        "from": "0xdef12db2bd62f88c8d59807e0ce9868279fd7fef",
        "gas": "0xed8da",
        "value": "0x0",
        "input": "0x6080604052348015600e575f5ffd5b50601633601a565b6081565b607e7f27ad9db40d40315deb7c9733dae204372b3012815db31bb8e8e56d6c68d6ac248260405160200160609291909182526001600160a01b0316602082015260400190565b60408051601f19818403018152919052805160209091012060019055565b50565b610c368061008e5f395ff3fe608060405234801561000f575f5ffd5b50600436106100da575f3560e01c806365c4ce7a116100885780639c52a7f1116100635780639c52a7f1146101a6578063bf353dbb146101b9578063e9b674b9146101cc578063f29c29c4146101df575f5ffd5b806365c4ce7a1461017857806365fae35e1461018b5780638456cb591461019e575f5ffd5b80634fce7a2a116100b85780634fce7a2a1461012b57806357de26a4146101585780635c975abb14610160575f5ffd5b806306fdde03146100de578063313ce567146100fc57806332145f9014610116575b5f5ffd5b6100e66101f2565b6040516100f39190610a86565b60405180910390f35b610104610222565b60405160ff90911681526020016100f3565b610129610124366004610ad9565b61024c565b005b61014a610139366004610af0565b60016020525f908152604090205481565b6040519081526020016100f3565b61014a6102a8565b6101686102d2565b60405190151581526020016100f3565b610129610186366004610af0565b61030c565b610129610199366004610af0565b6103c1565b610129610443565b6101296101b4366004610af0565b6104c7565b61014a6101c7366004610af0565b610549565b6101296101da366004610b2a565b6105a5565b6101296101ed366004610af0565b610774565b606061021d7f9bc13b9bea85446242b96c637f96a994030a999e4a37800a69c2f798a672860b610816565b905090565b5f61021d7fa5c4b505b3328f1f7b143b7cbfe5c1d30e20856c207cab51443a27fedf5d6316610828565b335f908152600160208190526040909120541461029c576040517f4a0bfec10000000000000000000000000000000000000000000000000000000081523360048201526024015b60405180910390fd5b6102a581610831565b50565b5f61021d7f0f6e463d71d43f924715baa2688119392f80a313b4437e6945310d50dba6177a610828565b5f6102fc7f0f6e463d71d43f924715baa2688119392f80a313b4437e6945310d50dba6177a610828565b1561030657505f90565b50600190565b604080517f27ad9db40d40315deb7c9733dae204372b3012815db31bb8e8e56d6c68d6ac2460208201523391810191909152610360906060015b604051602081830303815290604052805190602001205490565b60011461039b576040517f4a0bfec1000000000000000000000000000000000000000000000000000000008152336004820152602401610293565b73ffffffffffffffffffffffffffffffffffffffff165f90815260016020526040812055565b604080517f27ad9db40d40315deb7c9733dae204372b3012815db31bb8e8e56d6c68d6ac24602082015233918101919091526103ff90606001610346565b60011461043a576040517f4a0bfec1000000000000000000000000000000000000000000000000000000008152336004820152602401610293565b6102a581610889565b604080517f27ad9db40d40315deb7c9733dae204372b3012815db31bb8e8e56d6c68d6ac246020820152339181019190915261048190606001610346565b6001146104bc576040517f4a0bfec1000000000000000000000000000000000000000000000000000000008152336004820152602401610293565b6104c55f610831565b565b604080517f27ad9db40d40315deb7c9733dae204372b3012815db31bb8e8e56d6c68d6ac246020820152339181019190915261050590606001610346565b600114610540576040517f4a0bfec1000000000000000000000000000000000000000000000000000000008152336004820152602401610293565b6102a5816108fc565b5f61059f7f27ad9db40d40315deb7c9733dae204372b3012815db31bb8e8e56d6c68d6ac248360405160200161034692919091825273ffffffffffffffffffffffffffffffffffffffff16602082015260400190565b92915050565b604080517f27ad9db40d40315deb7c9733dae204372b3012815db31bb8e8e56d6c68d6ac24602082015233918101919091526105e390606001610346565b60011461061e576040517f4a0bfec1000000000000000000000000000000000000000000000000000000008152336004820152602401610293565b817f7072696365000000000000000000000000000000000000000000000000000000036106535761064e81610831565b610736565b817f6e616d6500000000000000000000000000000000000000000000000000000000036106a35761064e7f9bc13b9bea85446242b96c637f96a994030a999e4a37800a69c2f798a672860b829055565b817f646563696d616c730000000000000000000000000000000000000000000000001480156106d3575060128111155b156107015761064e7fa5c4b505b3328f1f7b143b7cbfe5c1d30e20856c207cab51443a27fedf5d6316829055565b6040517f35802fa300000000000000000000000000000000000000000000000000000000815260048101829052602401610293565b817f943a793c11a909d4409e7706d8c3d1467960e08f6141234950042994856812df8260405161076891815260200190565b60405180910390a25050565b604080517f27ad9db40d40315deb7c9733dae204372b3012815db31bb8e8e56d6c68d6ac24602082015233918101919091526107b290606001610346565b6001146107ed576040517f4a0bfec1000000000000000000000000000000000000000000000000000000008152336004820152602401610293565b73ffffffffffffffffffffffffffffffffffffffff165f90815260016020819052604090912055565b606061059f610823835490565b61096e565b5f61059f825490565b61085a7f0f6e463d71d43f924715baa2688119392f80a313b4437e6945310d50dba6177a829055565b604051429082907f9205f54491e32927259b3f6e67e823b85407d3a915972fe9973e58788507b254905f90a350565b6102a57f27ad9db40d40315deb7c9733dae204372b3012815db31bb8e8e56d6c68d6ac24826040516020016108de92919091825273ffffffffffffffffffffffffffffffffffffffff16602082015260400190565b6040516020818303038152906040528051906020012060015f1b9055565b6102a57f27ad9db40d40315deb7c9733dae204372b3012815db31bb8e8e56d6c68d6ac248260405160200161095192919091825273ffffffffffffffffffffffffffffffffffffffff16602082015260400190565b604051602081830303815290604052805190602001205f5f1b9055565b60605f5b6020811080156109b8575082816020811061098f5761098f610b4a565b1a60f81b7fff000000000000000000000000000000000000000000000000000000000000001615155b156109cf57806109c781610b77565b915050610972565b5f8167ffffffffffffffff8111156109e9576109e9610bd3565b6040519080825280601f01601f191660200182016040528015610a13576020820181803683370190505b5090505f5b82811015610a7e57848160208110610a3257610a32610b4a565b1a60f81b828281518110610a4857610a48610b4a565b60200101907effffffffffffffffffffffffffffffffffffffffffffffffffffffffffffff191690815f1a905350600101610a18565b509392505050565b602081525f82518060208401528060208501604085015e5f6040828501015260407fffffffffffffffffffffffffffffffffffffffffffffffffffffffffffffffe0601f83011684010191505092915050565b5f60208284031215610ae9575f5ffd5b5035919050565b5f60208284031215610b00575f5ffd5b813573ffffffffffffffffffffffffffffffffffffffff81168114610b23575f5ffd5b9392505050565b5f5f60408385031215610b3b575f5ffd5b50508035926020909101359150565b7f4e487b71000000000000000000000000000000000000000000000000000000005f52603260045260245ffd5b5f7fffffffffffffffffffffffffffffffffffffffffffffffffffffffffffffffff8203610bcc577f4e487b71000000000000000000000000000000000000000000000000000000005f52601160045260245ffd5b5060010190565b7f4e487b71000000000000000000000000000000000000000000000000000000005f52604160045260245ffdfea26469706673582212205fceb7030a9e2f0f21a4b4ddaef39440bcbbcce5b4fd3b521e8d4a09afedae8564736f6c634300081c0033",
        "nonce": "0x16e",
        "chainId": "0xaa36a7"
      },
      "additionalContracts": [],
      "isFixedGasLimit": false
    },
    {
      "hash": "0xef7828ad1dff80ffe171574063637a700ef1d69564818fd8e2cbbb97c1eb8c6e",
      "transactionType": "CREATE",
      "contractName": "MaseerProxy",
      "contractAddress": "0x5d1cde969ad2eeb2d64f9b7212077d2382479c0c",
      "function": null,
      "arguments": [
        "0xbe6d9849C0E288245fF673CA4D65E649a79f7615"
      ],
      "transaction": {
        "from": "0xdef12db2bd62f88c8d59807e0ce9868279fd7fef",
        "gas": "0x7327c",
        "value": "0x0",
        "input": "0x608060405234801561000f575f5ffd5b506040516105ec3803806105ec83398101604081905261002e91610168565b610039336001610051565b610042336100b7565b61004b8161011d565b50610195565b5f7f312ed9ac9b839e579b0572e42b6b61a1d0e768aa92df633e58ace1e6a3633e79836040516020016100979291909182526001600160a01b0316602082015260400190565b604051602081830303815290604052805190602001209050818155505050565b5f7f27ad9db40d40315deb7c9733dae204372b3012815db31bb8e8e56d6c68d6ac24826040516020016100fd9291909182526001600160a01b0316602082015260400190565b604051602081830303815290604052805190602001209050600181555050565b6001600160a01b038116610144576040516318ce8b9560e31b815260040160405180910390fd5b7f0e4c00c0fe9fb028e73dd325b95165d8884bc26853613a6b5131a12effdd8ddd55565b5f60208284031215610178575f5ffd5b81516001600160a01b038116811461018e575f5ffd5b9392505050565b61044a806101a25f395ff3fe608060405234801561000f575f5ffd5b5060043610610065575f3560e01c8063266a164a1161004e578063266a164a146100d957806360cd9853146100ec5780638abf60771461011257610065565b8063048046c1146100b35780630715940e146100c6575b5f61008e7f0e4c00c0fe9fb028e73dd325b95165d8884bc26853613a6b5131a12effdd8ddd5490565b9050604051365f82375f5f3683855af43d5f833e8080156100ad573d83f35b3d83fd5b005b6100b16100c13660046103da565b61013f565b6100b16100d43660046103da565b61018d565b6100b16100e73660046103da565b6101d9565b6100ff6100fa3660046103da565b610226565b6040519081526020015b60405180910390f35b61011a610236565b60405173ffffffffffffffffffffffffffffffffffffffff9091168152602001610109565b61014833610264565b600114610181576040517fea8e4eb500000000000000000000000000000000000000000000000000000000815260040160405180910390fd5b61018a816102f6565b50565b61019633610264565b6001146101cf576040517fea8e4eb500000000000000000000000000000000000000000000000000000000815260040160405180910390fd5b61018a815f610367565b6101e233610264565b60011461021b576040517fea8e4eb500000000000000000000000000000000000000000000000000000000815260040160405180910390fd5b61018a816001610367565b5f61023082610264565b92915050565b5f61025f7f0e4c00c0fe9fb028e73dd325b95165d8884bc26853613a6b5131a12effdd8ddd5490565b905090565b5f5f7f312ed9ac9b839e579b0572e42b6b61a1d0e768aa92df633e58ace1e6a3633e79836040516020016102b892919091825273ffffffffffffffffffffffffffffffffffffffff16602082015260400190565b604080517fffffffffffffffffffffffffffffffffffffffffffffffffffffffffffffffe08184030181529190528051602090910120549392505050565b73ffffffffffffffffffffffffffffffffffffffff8116610343576040517fc6745ca800000000000000000000000000000000000000000000000000000000815260040160405180910390fd5b7f0e4c00c0fe9fb028e73dd325b95165d8884bc26853613a6b5131a12effdd8ddd55565b5f7f312ed9ac9b839e579b0572e42b6b61a1d0e768aa92df633e58ace1e6a3633e79836040516020016103ba92919091825273ffffffffffffffffffffffffffffffffffffffff16602082015260400190565b604051602081830303815290604052805190602001209050818155505050565b5f602082840312156103ea575f5ffd5b813573ffffffffffffffffffffffffffffffffffffffff8116811461040d575f5ffd5b939250505056fea26469706673582212200e02ed2a5a999bf32c9060d8defc2858cab87c90f11d27765a8ad960509fd8a864736f6c634300081c0033000000000000000000000000be6d9849c0e288245ff673ca4d65e649a79f7615",
        "nonce": "0x16f",
        "chainId": "0xaa36a7"
      },
      "additionalContracts": [],
      "isFixedGasLimit": false
    },
    {
      "hash": "0x161feca1ca7a89b7574a42a61be6ed209b0af2ec88d18b4e81d7f1132b961587",
      "transactionType": "CREATE",
      "contractName": "MaseerGate",
      "contractAddress": "0xf57d7dff4b22baa39d1c05786274050f8c686806",
      "function": null,
      "arguments": null,
      "transaction": {
        "from": "0xdef12db2bd62f88c8d59807e0ce9868279fd7fef",
        "gas": "0x16ce86",
        "value": "0x0",
        "input": "0x6080604052348015600e575f5ffd5b50601633601a565b6081565b607e7f27ad9db40d40315deb7c9733dae204372b3012815db31bb8e8e56d6c68d6ac248260405160200160609291909182526001600160a01b0316602082015260400190565b60408051601f19818403018152919052805160209091012060019055565b50565b61138b8061008e5f395ff3fe608060405234801561000f575f5ffd5b50600436106101c6575f3560e01c80637486bf47116100fe578063a07c7ce41161009e578063bf353dbb1161006e578063bf353dbb14610330578063cb16262514610343578063ef86cf561461034b578063fbd252461461035e575f5ffd5b8063a07c7ce414610310578063a943dc6c14610318578063bbec93fa14610320578063bce6d67214610328575f5ffd5b806396574580116100d957806396574580146102e557806398b836da146102ed5780639c52a7f1146102f5578063a03738dc14610308575f5ffd5b80637486bf47146102b7578063787a08a6146102ca57806391915ef8146102d2575f5ffd5b80634fc3f41a116101695780635cfc1a51116101445780635cfc1a511461028157806365fae35e146102895780636c88d9e11461029c57806371ebdf4e146102a4575f5ffd5b80634fc3f41a1461024857806359361d8e1461025b5780635c4f46ed1461026e575f5ffd5b806329cbec1a116101a457806329cbec1a1461020d5780632c040527146102155780633fb362b4146102285780634bf365df14610230575f5ffd5b80631447cdf9146101ca578063168ff4f9146101df57806329ae8114146101fa575b5f5ffd5b6101dd6101d8366004611249565b610371565b005b6101e761045b565b6040519081526020015b60405180910390f35b6101dd610208366004611260565b61047d565b6101e76106af565b6101dd610223366004611249565b6106de565b6101e76107aa565b6102386107d4565b60405190151581526020016101f1565b6101dd610256366004611249565b6107f7565b6101dd610269366004611249565b6108ba565b6101e761027c366004611249565b61097b565b6101e7610993565b6101dd610297366004611280565b6109bd565b6101e7610a3f565b6101dd6102b2366004611249565b610a49565b6101dd6102c5366004611249565b610b0a565b6101e7610bd6565b6101dd6102e0366004611249565b610c00565b6101e7610c82565b6101e7610cac565b6101dd610303366004611280565b610cd5565b6101dd610d57565b610238610df6565b6101e7610e11565b6101e7610e1b565b6101e7610e25565b6101e761033e366004611280565b610e4f565b6101e7610ea5565b6101e7610359366004611249565b610ecf565b6101dd61036c366004611249565b610ee1565b604080517f27ad9db40d40315deb7c9733dae204372b3012815db31bb8e8e56d6c68d6ac24602082015233918101919091526103c5906060015b604051602081830303815290604052805190602001205490565b600114610405576040517f4a0bfec10000000000000000000000000000000000000000000000000000000081523360048201526024015b60405180910390fd5b610413426301e133806112e0565b81111561044f576040517f35802fa3000000000000000000000000000000000000000000000000000000008152600481018290526024016103fc565b61045881610fad565b50565b5f5f6104656106af565b905042811015610475575f610477565b805b91505090565b604080517f27ad9db40d40315deb7c9733dae204372b3012815db31bb8e8e56d6c68d6ac24602082015233918101919091526104bb906060016103ab565b6001146104f6576040517f4a0bfec10000000000000000000000000000000000000000000000000000000081523360048201526024016103fc565b817f6f70656e6d696e740000000000000000000000000000000000000000000000000361052a5761052681610fd6565b5050565b817f68616c746d696e740000000000000000000000000000000000000000000000000361055a5761052681610fff565b817f6f70656e6275726e0000000000000000000000000000000000000000000000000361058a5761052681610fad565b817f68616c746275726e000000000000000000000000000000000000000000000000036105ba5761052681611028565b817f627073696e000000000000000000000000000000000000000000000000000000036105ea5761052681611051565b817f6270736f757400000000000000000000000000000000000000000000000000000361061a5761052681611079565b817f636f6f6c646f776e0000000000000000000000000000000000000000000000000361064a57610526816110a2565b817f63617061636974790000000000000000000000000000000000000000000000000361067a57610526816110cb565b6040517f35802fa3000000000000000000000000000000000000000000000000000000008152600481018390526024016103fc565b5f6106d97f9c2ad2c21e274c8b57052f9f0ef73dd8f6e1d917d156e1368bb7cc739cf1f4b16110f4565b905090565b604080517f27ad9db40d40315deb7c9733dae204372b3012815db31bb8e8e56d6c68d6ac246020820152339181019190915261071c906060016103ab565b600114610757576040517f4a0bfec10000000000000000000000000000000000000000000000000000000081523360048201526024016103fc565b610765426301e133806112e0565b8111156107a1576040517f35802fa3000000000000000000000000000000000000000000000000000000008152600481018290526024016103fc565b61045881610fff565b5f6106d97ffcb92606a933a3a2fc95ea37ffc5f3cf5a7a2f3776ccd27ff295f4bc9846f3e66110f4565b5f6107dd610e25565b42101580156106d957506107ef610ea5565b421115905090565b604080517f27ad9db40d40315deb7c9733dae204372b3012815db31bb8e8e56d6c68d6ac2460208201523391810191909152610835906060016103ab565b600114610870576040517f4a0bfec10000000000000000000000000000000000000000000000000000000081523360048201526024016103fc565b6301e133808111156108b1576040517f35802fa3000000000000000000000000000000000000000000000000000000008152600481018290526024016103fc565b610458816110a2565b604080517f27ad9db40d40315deb7c9733dae204372b3012815db31bb8e8e56d6c68d6ac24602082015233918101919091526108f8906060016103ab565b600114610933576040517f4a0bfec10000000000000000000000000000000000000000000000000000000081523360048201526024016103fc565b612710811115610972576040517f35802fa3000000000000000000000000000000000000000000000000000000008152600481018290526024016103fc565b61045881611051565b5f61098d82610988610cac565b6110fd565b92915050565b5f6106d97f223eebe857eb33ee31fe46155467a9e23b253715020bbb26850d321fdc3146ab6110f4565b604080517f27ad9db40d40315deb7c9733dae204372b3012815db31bb8e8e56d6c68d6ac24602082015233918101919091526109fb906060016103ab565b600114610a36576040517f4a0bfec10000000000000000000000000000000000000000000000000000000081523360048201526024016103fc565b61045881611126565b5f5f610465610e25565b604080517f27ad9db40d40315deb7c9733dae204372b3012815db31bb8e8e56d6c68d6ac2460208201523391810191909152610a87906060016103ab565b600114610ac2576040517f4a0bfec10000000000000000000000000000000000000000000000000000000081523360048201526024016103fc565b612710811115610b01576040517f35802fa3000000000000000000000000000000000000000000000000000000008152600481018290526024016103fc565b61045881611079565b604080517f27ad9db40d40315deb7c9733dae204372b3012815db31bb8e8e56d6c68d6ac2460208201523391810191909152610b48906060016103ab565b600114610b83576040517f4a0bfec10000000000000000000000000000000000000000000000000000000081523360048201526024016103fc565b610b91426301e133806112e0565b811115610bcd576040517f35802fa3000000000000000000000000000000000000000000000000000000008152600481018290526024016103fc565b61045881611028565b5f6106d97f09e5415ecbe88722a362e8ef1260b911b06c7c85eb60dd940ec2508f025009c76110f4565b604080517f27ad9db40d40315deb7c9733dae204372b3012815db31bb8e8e56d6c68d6ac2460208201523391810191909152610c3e906060016103ab565b600114610c79576040517f4a0bfec10000000000000000000000000000000000000000000000000000000081523360048201526024016103fc565b610458816110cb565b5f6106d97ff6f62fd4da7bc2b32a6e1e65b29fc84ac47127fe667e702bfad2a308be5e31f36110f4565b5f6106d97e157179f0e328e9155f0e7f3bacad2e41db42b1e0800a411a594382df7a1e646110f4565b604080517f27ad9db40d40315deb7c9733dae204372b3012815db31bb8e8e56d6c68d6ac2460208201523391810191909152610d13906060016103ab565b600114610d4e576040517f4a0bfec10000000000000000000000000000000000000000000000000000000081523360048201526024016103fc565b61045881611199565b604080517f27ad9db40d40315deb7c9733dae204372b3012815db31bb8e8e56d6c68d6ac2460208201523391810191909152610d95906060016103ab565b600114610dd0576040517f4a0bfec10000000000000000000000000000000000000000000000000000000081523360048201526024016103fc565b610dd95f610fd6565b610de25f610fff565b610deb5f610fad565b610df45f611028565b565b5f610dff6106af565b42101580156106d957506107ef6107aa565b5f5f610465610ea5565b5f5f6104656107aa565b5f6106d97fbe1a4dea2a7bf3bca8caa6d30da3b6665e2e170da688038ad0b7269f2e0ebf916110f4565b5f61098d7f27ad9db40d40315deb7c9733dae204372b3012815db31bb8e8e56d6c68d6ac24836040516020016103ab92919091825273ffffffffffffffffffffffffffffffffffffffff16602082015260400190565b5f6106d97fc6806e07b5185a5f2a4a279b21328cdfc10302bba8d637663c0af6df2ce3b5da6110f4565b5f61098d82610edc610c82565b61120b565b604080517f27ad9db40d40315deb7c9733dae204372b3012815db31bb8e8e56d6c68d6ac2460208201523391810191909152610f1f906060016103ab565b600114610f5a576040517f4a0bfec10000000000000000000000000000000000000000000000000000000081523360048201526024016103fc565b610f68426301e133806112e0565b811115610fa4576040517f35802fa3000000000000000000000000000000000000000000000000000000008152600481018290526024016103fc565b61045881610fd6565b6104587f9c2ad2c21e274c8b57052f9f0ef73dd8f6e1d917d156e1368bb7cc739cf1f4b1829055565b6104587fbe1a4dea2a7bf3bca8caa6d30da3b6665e2e170da688038ad0b7269f2e0ebf91829055565b6104587fc6806e07b5185a5f2a4a279b21328cdfc10302bba8d637663c0af6df2ce3b5da829055565b6104587ffcb92606a933a3a2fc95ea37ffc5f3cf5a7a2f3776ccd27ff295f4bc9846f3e6829055565b6104587e157179f0e328e9155f0e7f3bacad2e41db42b1e0800a411a594382df7a1e64829055565b6104587ff6f62fd4da7bc2b32a6e1e65b29fc84ac47127fe667e702bfad2a308be5e31f3829055565b6104587f09e5415ecbe88722a362e8ef1260b911b06c7c85eb60dd940ec2508f025009c7829055565b6104587f223eebe857eb33ee31fe46155467a9e23b253715020bbb26850d321fdc3146ab829055565b5f61098d825490565b5f61111f61110d836127106112e0565b61111790856112f3565b612710611227565b9392505050565b6104587f27ad9db40d40315deb7c9733dae204372b3012815db31bb8e8e56d6c68d6ac248260405160200161117b92919091825273ffffffffffffffffffffffffffffffffffffffff16602082015260400190565b6040516020818303038152906040528051906020012060015f1b9055565b6104587f27ad9db40d40315deb7c9733dae204372b3012815db31bb8e8e56d6c68d6ac24826040516020016111ee92919091825273ffffffffffffffffffffffffffffffffffffffff16602082015260400190565b604051602081830303815290604052805190602001205f5f1b9055565b5f61111f61121b846127106112f3565b611227846127106112e0565b5f81600161123582866112e0565b61123f919061130a565b61111f919061131d565b5f60208284031215611259575f5ffd5b5035919050565b5f5f60408385031215611271575f5ffd5b50508035926020909101359150565b5f60208284031215611290575f5ffd5b813573ffffffffffffffffffffffffffffffffffffffff8116811461111f575f5ffd5b7f4e487b71000000000000000000000000000000000000000000000000000000005f52601160045260245ffd5b8082018082111561098d5761098d6112b3565b808202811582820484141761098d5761098d6112b3565b8181038181111561098d5761098d6112b3565b5f82611350577f4e487b71000000000000000000000000000000000000000000000000000000005f52601260045260245ffd5b50049056fea2646970667358221220ea59458f665c3c27fd8fb471f0979de491bce1d1ee29ee2849e5002335e5189864736f6c634300081c0033",
        "nonce": "0x170",
        "chainId": "0xaa36a7"
      },
      "additionalContracts": [],
      "isFixedGasLimit": false
    },
    {
      "hash": "0x852023e53345a0bcdfd8af554c21b969c723467092dd1fca00df7a195d8f7717",
      "transactionType": "CREATE",
      "contractName": "MaseerProxy",
      "contractAddress": "0x6be29907638656308b091e49054ec174058915a4",
      "function": null,
      "arguments": [
        "0xf57d7dfF4B22bAa39D1c05786274050f8C686806"
      ],
      "transaction": {
        "from": "0xdef12db2bd62f88c8d59807e0ce9868279fd7fef",
        "gas": "0x7327c",
        "value": "0x0",
        "input": "0x608060405234801561000f575f5ffd5b506040516105ec3803806105ec83398101604081905261002e91610168565b610039336001610051565b610042336100b7565b61004b8161011d565b50610195565b5f7f312ed9ac9b839e579b0572e42b6b61a1d0e768aa92df633e58ace1e6a3633e79836040516020016100979291909182526001600160a01b0316602082015260400190565b604051602081830303815290604052805190602001209050818155505050565b5f7f27ad9db40d40315deb7c9733dae204372b3012815db31bb8e8e56d6c68d6ac24826040516020016100fd9291909182526001600160a01b0316602082015260400190565b604051602081830303815290604052805190602001209050600181555050565b6001600160a01b038116610144576040516318ce8b9560e31b815260040160405180910390fd5b7f0e4c00c0fe9fb028e73dd325b95165d8884bc26853613a6b5131a12effdd8ddd55565b5f60208284031215610178575f5ffd5b81516001600160a01b038116811461018e575f5ffd5b9392505050565b61044a806101a25f395ff3fe608060405234801561000f575f5ffd5b5060043610610065575f3560e01c8063266a164a1161004e578063266a164a146100d957806360cd9853146100ec5780638abf60771461011257610065565b8063048046c1146100b35780630715940e146100c6575b5f61008e7f0e4c00c0fe9fb028e73dd325b95165d8884bc26853613a6b5131a12effdd8ddd5490565b9050604051365f82375f5f3683855af43d5f833e8080156100ad573d83f35b3d83fd5b005b6100b16100c13660046103da565b61013f565b6100b16100d43660046103da565b61018d565b6100b16100e73660046103da565b6101d9565b6100ff6100fa3660046103da565b610226565b6040519081526020015b60405180910390f35b61011a610236565b60405173ffffffffffffffffffffffffffffffffffffffff9091168152602001610109565b61014833610264565b600114610181576040517fea8e4eb500000000000000000000000000000000000000000000000000000000815260040160405180910390fd5b61018a816102f6565b50565b61019633610264565b6001146101cf576040517fea8e4eb500000000000000000000000000000000000000000000000000000000815260040160405180910390fd5b61018a815f610367565b6101e233610264565b60011461021b576040517fea8e4eb500000000000000000000000000000000000000000000000000000000815260040160405180910390fd5b61018a816001610367565b5f61023082610264565b92915050565b5f61025f7f0e4c00c0fe9fb028e73dd325b95165d8884bc26853613a6b5131a12effdd8ddd5490565b905090565b5f5f7f312ed9ac9b839e579b0572e42b6b61a1d0e768aa92df633e58ace1e6a3633e79836040516020016102b892919091825273ffffffffffffffffffffffffffffffffffffffff16602082015260400190565b604080517fffffffffffffffffffffffffffffffffffffffffffffffffffffffffffffffe08184030181529190528051602090910120549392505050565b73ffffffffffffffffffffffffffffffffffffffff8116610343576040517fc6745ca800000000000000000000000000000000000000000000000000000000815260040160405180910390fd5b7f0e4c00c0fe9fb028e73dd325b95165d8884bc26853613a6b5131a12effdd8ddd55565b5f7f312ed9ac9b839e579b0572e42b6b61a1d0e768aa92df633e58ace1e6a3633e79836040516020016103ba92919091825273ffffffffffffffffffffffffffffffffffffffff16602082015260400190565b604051602081830303815290604052805190602001209050818155505050565b5f602082840312156103ea575f5ffd5b813573ffffffffffffffffffffffffffffffffffffffff8116811461040d575f5ffd5b939250505056fea26469706673582212200e02ed2a5a999bf32c9060d8defc2858cab87c90f11d27765a8ad960509fd8a864736f6c634300081c0033000000000000000000000000f57d7dff4b22baa39d1c05786274050f8c686806",
        "nonce": "0x171",
        "chainId": "0xaa36a7"
      },
      "additionalContracts": [],
      "isFixedGasLimit": false
    },
    {
      "hash": "0x038311e05c1fadfe92d5fe87f7292d6c410624688a85dd7c04db8f1103ec731e",
      "transactionType": "CREATE",
      "contractName": "MaseerTreasury",
      "contractAddress": "0x8426e3672636a0216f7a67c00a55d72fe3084f05",
      "function": null,
      "arguments": null,
      "transaction": {
        "from": "0xdef12db2bd62f88c8d59807e0ce9868279fd7fef",
        "gas": "0x78a3b",
        "value": "0x0",
        "input": "0x6080604052348015600e575f5ffd5b506105ee8061001c5f395ff3fe608060405234801561000f575f5ffd5b506004361061006f575f3560e01c80639c52a7f11161004d5780639c52a7f1146100c3578063bc0505f0146100d6578063bf353dbb146100e9575f5ffd5b80635711caaf1461007357806365fae35e1461009b57806375aa3cd1146100b0575b5f5ffd5b610086610081366004610585565b61010a565b60405190151581526020015b60405180910390f35b6100ae6100a9366004610585565b61011d565b005b6100ae6100be366004610585565b6101bd565b6100ae6100d1366004610585565b610240565b6100ae6100e4366004610585565b6102c2565b6100fc6100f7366004610585565b610346565b604051908152602001610092565b5f610114826103a2565b60011492915050565b604080517f27ad9db40d40315deb7c9733dae204372b3012815db31bb8e8e56d6c68d6ac2460208201523391810191909152610171906060015b604051602081830303815290604052805190602001205490565b6001146101b1576040517f4a0bfec10000000000000000000000000000000000000000000000000000000081523360048201526024015b60405180910390fd5b6101ba8161041e565b50565b604080517f27ad9db40d40315deb7c9733dae204372b3012815db31bb8e8e56d6c68d6ac24602082015233918101919091526101fb90606001610157565b600114610236576040517f4a0bfec10000000000000000000000000000000000000000000000000000000081523360048201526024016101a8565b6101ba815f610491565b604080517f27ad9db40d40315deb7c9733dae204372b3012815db31bb8e8e56d6c68d6ac246020820152339181019190915261027e90606001610157565b6001146102b9576040517f4a0bfec10000000000000000000000000000000000000000000000000000000081523360048201526024016101a8565b6101ba8161050a565b604080517f27ad9db40d40315deb7c9733dae204372b3012815db31bb8e8e56d6c68d6ac246020820152339181019190915261030090606001610157565b60011461033b576040517f4a0bfec10000000000000000000000000000000000000000000000000000000081523360048201526024016101a8565b6101ba816001610491565b5f61039c7f27ad9db40d40315deb7c9733dae204372b3012815db31bb8e8e56d6c68d6ac248360405160200161015792919091825273ffffffffffffffffffffffffffffffffffffffff16602082015260400190565b92915050565b5f5f7f2c21f3d83b4a8aed4587d3e87ae205de8e022583c725dabdf3d39d5b8645c1b6836040516020016103f692919091825273ffffffffffffffffffffffffffffffffffffffff16602082015260400190565b6040516020818303038152906040528051906020012090506104178161057c565b9392505050565b6101ba7f27ad9db40d40315deb7c9733dae204372b3012815db31bb8e8e56d6c68d6ac248260405160200161047392919091825273ffffffffffffffffffffffffffffffffffffffff16602082015260400190565b6040516020818303038152906040528051906020012060015f1b9055565b5f7f2c21f3d83b4a8aed4587d3e87ae205de8e022583c725dabdf3d39d5b8645c1b6836040516020016104e492919091825273ffffffffffffffffffffffffffffffffffffffff16602082015260400190565b60405160208183030381529060405280519060200120905061050581839055565b505050565b6101ba7f27ad9db40d40315deb7c9733dae204372b3012815db31bb8e8e56d6c68d6ac248260405160200161055f92919091825273ffffffffffffffffffffffffffffffffffffffff16602082015260400190565b604051602081830303815290604052805190602001205f5f1b9055565b5f61039c825490565b5f60208284031215610595575f5ffd5b813573ffffffffffffffffffffffffffffffffffffffff81168114610417575f5ffdfea2646970667358221220921d0a20f80fc4522ec626cc525b75ce2c05f4ed86a436189c4574e3e4e034c164736f6c634300081c0033",
        "nonce": "0x172",
        "chainId": "0xaa36a7"
      },
      "additionalContracts": [],
      "isFixedGasLimit": false
    },
    {
      "hash": "0x468fd5b52afc55b73c94eb67f2bc10e81939c34f69a556ef6d915b5436e0dc6b",
      "transactionType": "CREATE",
      "contractName": "MaseerProxy",
      "contractAddress": "0x0731899ee6cd13b24ca56d839228484e8f15a47e",
      "function": null,
      "arguments": [
        "0x8426E3672636A0216f7A67c00A55d72FE3084F05"
      ],
      "transaction": {
        "from": "0xdef12db2bd62f88c8d59807e0ce9868279fd7fef",
        "gas": "0x7327c",
        "value": "0x0",
        "input": "0x608060405234801561000f575f5ffd5b506040516105ec3803806105ec83398101604081905261002e91610168565b610039336001610051565b610042336100b7565b61004b8161011d565b50610195565b5f7f312ed9ac9b839e579b0572e42b6b61a1d0e768aa92df633e58ace1e6a3633e79836040516020016100979291909182526001600160a01b0316602082015260400190565b604051602081830303815290604052805190602001209050818155505050565b5f7f27ad9db40d40315deb7c9733dae204372b3012815db31bb8e8e56d6c68d6ac24826040516020016100fd9291909182526001600160a01b0316602082015260400190565b604051602081830303815290604052805190602001209050600181555050565b6001600160a01b038116610144576040516318ce8b9560e31b815260040160405180910390fd5b7f0e4c00c0fe9fb028e73dd325b95165d8884bc26853613a6b5131a12effdd8ddd55565b5f60208284031215610178575f5ffd5b81516001600160a01b038116811461018e575f5ffd5b9392505050565b61044a806101a25f395ff3fe608060405234801561000f575f5ffd5b5060043610610065575f3560e01c8063266a164a1161004e578063266a164a146100d957806360cd9853146100ec5780638abf60771461011257610065565b8063048046c1146100b35780630715940e146100c6575b5f61008e7f0e4c00c0fe9fb028e73dd325b95165d8884bc26853613a6b5131a12effdd8ddd5490565b9050604051365f82375f5f3683855af43d5f833e8080156100ad573d83f35b3d83fd5b005b6100b16100c13660046103da565b61013f565b6100b16100d43660046103da565b61018d565b6100b16100e73660046103da565b6101d9565b6100ff6100fa3660046103da565b610226565b6040519081526020015b60405180910390f35b61011a610236565b60405173ffffffffffffffffffffffffffffffffffffffff9091168152602001610109565b61014833610264565b600114610181576040517fea8e4eb500000000000000000000000000000000000000000000000000000000815260040160405180910390fd5b61018a816102f6565b50565b61019633610264565b6001146101cf576040517fea8e4eb500000000000000000000000000000000000000000000000000000000815260040160405180910390fd5b61018a815f610367565b6101e233610264565b60011461021b576040517fea8e4eb500000000000000000000000000000000000000000000000000000000815260040160405180910390fd5b61018a816001610367565b5f61023082610264565b92915050565b5f61025f7f0e4c00c0fe9fb028e73dd325b95165d8884bc26853613a6b5131a12effdd8ddd5490565b905090565b5f5f7f312ed9ac9b839e579b0572e42b6b61a1d0e768aa92df633e58ace1e6a3633e79836040516020016102b892919091825273ffffffffffffffffffffffffffffffffffffffff16602082015260400190565b604080517fffffffffffffffffffffffffffffffffffffffffffffffffffffffffffffffe08184030181529190528051602090910120549392505050565b73ffffffffffffffffffffffffffffffffffffffff8116610343576040517fc6745ca800000000000000000000000000000000000000000000000000000000815260040160405180910390fd5b7f0e4c00c0fe9fb028e73dd325b95165d8884bc26853613a6b5131a12effdd8ddd55565b5f7f312ed9ac9b839e579b0572e42b6b61a1d0e768aa92df633e58ace1e6a3633e79836040516020016103ba92919091825273ffffffffffffffffffffffffffffffffffffffff16602082015260400190565b604051602081830303815290604052805190602001209050818155505050565b5f602082840312156103ea575f5ffd5b813573ffffffffffffffffffffffffffffffffffffffff8116811461040d575f5ffd5b939250505056fea26469706673582212200e02ed2a5a999bf32c9060d8defc2858cab87c90f11d27765a8ad960509fd8a864736f6c634300081c00330000000000000000000000008426e3672636a0216f7a67c00a55d72fe3084f05",
        "nonce": "0x173",
        "chainId": "0xaa36a7"
      },
      "additionalContracts": [],
      "isFixedGasLimit": false
    },
    {
      "hash": "0x8f7175e8964a455abf93bc9c335471770529961b84afa790ebde2ce22c6f1d5e",
      "transactionType": "CREATE",
      "contractName": "MaseerGuard",
      "contractAddress": "0x48ec0c8acaf14f0f9633bab0acf1a93855e99444",
      "function": null,
      "arguments": [
        "0xcAddB146B3f1A6A558eCD01380b81c2Faf9C8a10"
      ],
      "transaction": {
        "from": "0xdef12db2bd62f88c8d59807e0ce9868279fd7fef",
        "gas": "0x659df",
        "value": "0x0",
        "input": "0x60a0604052348015600e575f5ffd5b50604051610554380380610554833981016040819052602b91603b565b6001600160a01b03166080526066565b5f60208284031215604a575f5ffd5b81516001600160a01b0381168114605f575f5ffd5b9392505050565b6080516104d06100845f395f81816082015261020c01526104d05ff3fe608060405234801561000f575f5ffd5b5060043610610064575f3560e01c806382c4b3b21161004d57806382c4b3b2146100ce5780639c52a7f1146100f1578063bf353dbb14610104575f5ffd5b806365fae35e1461006857806367e828bf1461007d575b5f5ffd5b61007b610076366004610441565b610125565b005b6100a47f000000000000000000000000000000000000000000000000000000000000000081565b60405173ffffffffffffffffffffffffffffffffffffffff90911681526020015b60405180910390f35b6100e16100dc366004610441565b6101c5565b60405190151581526020016100c5565b61007b6100ff366004610441565b61027e565b610117610112366004610441565b610300565b6040519081526020016100c5565b604080517f27ad9db40d40315deb7c9733dae204372b3012815db31bb8e8e56d6c68d6ac2460208201523391810191909152610179906060015b604051602081830303815290604052805190602001205490565b6001146101b9576040517f4a0bfec10000000000000000000000000000000000000000000000000000000081523360048201526024015b60405180910390fd5b6101c28161035c565b50565b6040517f59bf1abe00000000000000000000000000000000000000000000000000000000815273ffffffffffffffffffffffffffffffffffffffff82811660048301525f917f0000000000000000000000000000000000000000000000000000000000000000909116906359bf1abe90602401602060405180830381865afa158015610253573d5f5f3e3d5ffd5b505050506040513d601f19601f82011682018060405250810190610277919061047b565b1592915050565b604080517f27ad9db40d40315deb7c9733dae204372b3012815db31bb8e8e56d6c68d6ac24602082015233918101919091526102bc9060600161015f565b6001146102f7576040517f4a0bfec10000000000000000000000000000000000000000000000000000000081523360048201526024016101b0565b6101c2816103cf565b5f6103567f27ad9db40d40315deb7c9733dae204372b3012815db31bb8e8e56d6c68d6ac248360405160200161015f92919091825273ffffffffffffffffffffffffffffffffffffffff16602082015260400190565b92915050565b6101c27f27ad9db40d40315deb7c9733dae204372b3012815db31bb8e8e56d6c68d6ac24826040516020016103b192919091825273ffffffffffffffffffffffffffffffffffffffff16602082015260400190565b6040516020818303038152906040528051906020012060015f1b9055565b6101c27f27ad9db40d40315deb7c9733dae204372b3012815db31bb8e8e56d6c68d6ac248260405160200161042492919091825273ffffffffffffffffffffffffffffffffffffffff16602082015260400190565b604051602081830303815290604052805190602001205f5f1b9055565b5f60208284031215610451575f5ffd5b813573ffffffffffffffffffffffffffffffffffffffff81168114610474575f5ffd5b9392505050565b5f6020828403121561048b575f5ffd5b81518015158114610474575f5ffdfea2646970667358221220843bdcdbb40f65fec73a44ca7bd5768a2eb297ca16bf561b04a0c7a603c76aba64736f6c634300081c0033000000000000000000000000caddb146b3f1a6a558ecd01380b81c2faf9c8a10",
        "nonce": "0x174",
        "chainId": "0xaa36a7"
      },
      "additionalContracts": [],
      "isFixedGasLimit": false
    },
    {
      "hash": "0x754b551a45a4e69f097b7f1ba0ca13f7c18ea22b3c640f6c0b5eafbd626a218e",
      "transactionType": "CREATE",
      "contractName": "MaseerProxy",
      "contractAddress": "0x6a730ff57bb6192f39b37a11c905f1e209b18f6c",
      "function": null,
      "arguments": [
        "0x48Ec0C8AcAf14f0F9633baB0aCF1a93855e99444"
      ],
      "transaction": {
        "from": "0xdef12db2bd62f88c8d59807e0ce9868279fd7fef",
        "gas": "0x7327c",
        "value": "0x0",
        "input": "0x608060405234801561000f575f5ffd5b506040516105ec3803806105ec83398101604081905261002e91610168565b610039336001610051565b610042336100b7565b61004b8161011d565b50610195565b5f7f312ed9ac9b839e579b0572e42b6b61a1d0e768aa92df633e58ace1e6a3633e79836040516020016100979291909182526001600160a01b0316602082015260400190565b604051602081830303815290604052805190602001209050818155505050565b5f7f27ad9db40d40315deb7c9733dae204372b3012815db31bb8e8e56d6c68d6ac24826040516020016100fd9291909182526001600160a01b0316602082015260400190565b604051602081830303815290604052805190602001209050600181555050565b6001600160a01b038116610144576040516318ce8b9560e31b815260040160405180910390fd5b7f0e4c00c0fe9fb028e73dd325b95165d8884bc26853613a6b5131a12effdd8ddd55565b5f60208284031215610178575f5ffd5b81516001600160a01b038116811461018e575f5ffd5b9392505050565b61044a806101a25f395ff3fe608060405234801561000f575f5ffd5b5060043610610065575f3560e01c8063266a164a1161004e578063266a164a146100d957806360cd9853146100ec5780638abf60771461011257610065565b8063048046c1146100b35780630715940e146100c6575b5f61008e7f0e4c00c0fe9fb028e73dd325b95165d8884bc26853613a6b5131a12effdd8ddd5490565b9050604051365f82375f5f3683855af43d5f833e8080156100ad573d83f35b3d83fd5b005b6100b16100c13660046103da565b61013f565b6100b16100d43660046103da565b61018d565b6100b16100e73660046103da565b6101d9565b6100ff6100fa3660046103da565b610226565b6040519081526020015b60405180910390f35b61011a610236565b60405173ffffffffffffffffffffffffffffffffffffffff9091168152602001610109565b61014833610264565b600114610181576040517fea8e4eb500000000000000000000000000000000000000000000000000000000815260040160405180910390fd5b61018a816102f6565b50565b61019633610264565b6001146101cf576040517fea8e4eb500000000000000000000000000000000000000000000000000000000815260040160405180910390fd5b61018a815f610367565b6101e233610264565b60011461021b576040517fea8e4eb500000000000000000000000000000000000000000000000000000000815260040160405180910390fd5b61018a816001610367565b5f61023082610264565b92915050565b5f61025f7f0e4c00c0fe9fb028e73dd325b95165d8884bc26853613a6b5131a12effdd8ddd5490565b905090565b5f5f7f312ed9ac9b839e579b0572e42b6b61a1d0e768aa92df633e58ace1e6a3633e79836040516020016102b892919091825273ffffffffffffffffffffffffffffffffffffffff16602082015260400190565b604080517fffffffffffffffffffffffffffffffffffffffffffffffffffffffffffffffe08184030181529190528051602090910120549392505050565b73ffffffffffffffffffffffffffffffffffffffff8116610343576040517fc6745ca800000000000000000000000000000000000000000000000000000000815260040160405180910390fd5b7f0e4c00c0fe9fb028e73dd325b95165d8884bc26853613a6b5131a12effdd8ddd55565b5f7f312ed9ac9b839e579b0572e42b6b61a1d0e768aa92df633e58ace1e6a3633e79836040516020016103ba92919091825273ffffffffffffffffffffffffffffffffffffffff16602082015260400190565b604051602081830303815290604052805190602001209050818155505050565b5f602082840312156103ea575f5ffd5b813573ffffffffffffffffffffffffffffffffffffffff8116811461040d575f5ffd5b939250505056fea26469706673582212200e02ed2a5a999bf32c9060d8defc2858cab87c90f11d27765a8ad960509fd8a864736f6c634300081c003300000000000000000000000048ec0c8acaf14f0f9633bab0acf1a93855e99444",
        "nonce": "0x175",
        "chainId": "0xaa36a7"
      },
      "additionalContracts": [],
      "isFixedGasLimit": false
    },
    {
      "hash": "0x58ba29af077f0c0ede5cfeeab75f2a66f1d880df9e8966dedf35d0ca2d661323",
      "transactionType": "CREATE",
      "contractName": "MaseerConduit",
      "contractAddress": "0xba18f6fafacedd3f2a196c8c3b25e8765336dafc",
      "function": null,
      "arguments": null,
      "transaction": {
        "from": "0xdef12db2bd62f88c8d59807e0ce9868279fd7fef",
        "gas": "0xf014d",
        "value": "0x0",
        "input": "0x6080604052348015600e575f5ffd5b50601633601a565b6081565b607e7f27ad9db40d40315deb7c9733dae204372b3012815db31bb8e8e56d6c68d6ac248260405160200160609291909182526001600160a01b0316602082015260400190565b60408051601f19818403018152919052805160209091012060019055565b50565b610c5b8061008e5f395ff3fe608060405234801561000f575f5ffd5b50600436106100c4575f3560e01c8063a3b22fc41161007d578063bf353dbb11610058578063bf353dbb1461018c578063dc4d20fa1461019f578063f29c29c4146101b2575f5ffd5b8063a3b22fc414610147578063bb35783b1461015a578063bc206b0a1461016d575f5ffd5b806365c4ce7a116100ad57806365c4ce7a1461010c57806365fae35e146101215780639c52a7f114610134575f5ffd5b8063322265a8146100c85780634fce7a2a146100ed575b5f5ffd5b6100db6100d6366004610b4f565b6101c5565b60405190815260200160405180910390f35b6100db6100fb366004610b80565b60026020525f908152604090205481565b61011f61011a366004610b80565b610379565b005b61011f61012f366004610b80565b61042e565b61011f610142366004610b80565b6104b3565b61011f610155366004610b80565b610535565b6100db610168366004610ba0565b6105d7565b6100db61017b366004610b80565b60016020525f908152604090205481565b6100db61019a366004610b80565b6106fa565b61011f6101ad366004610b80565b610756565b61011f6101c0366004610b80565b6107f5565b335f90815260016020819052604082205414610214576040517f4a0bfec10000000000000000000000000000000000000000000000000000000081523360048201526024015b60405180910390fd5b73ffffffffffffffffffffffffffffffffffffffff82165f90815260026020526040902054829060011461028c576040517f4a0bfec100000000000000000000000000000000000000000000000000000000815273ffffffffffffffffffffffffffffffffffffffff8216600482015260240161020b565b73ffffffffffffffffffffffffffffffffffffffff84166102d9576040517fd92e233d00000000000000000000000000000000000000000000000000000000815260040160405180910390fd5b6040517f70a0823100000000000000000000000000000000000000000000000000000000815230600482015273ffffffffffffffffffffffffffffffffffffffff8516906370a0823190602401602060405180830381865afa158015610341573d5f5f3e3d5ffd5b505050506040513d601f19601f820116820180604052508101906103659190610bd9565b9150610372848484610897565b5092915050565b604080517f27ad9db40d40315deb7c9733dae204372b3012815db31bb8e8e56d6c68d6ac24602082015233918101919091526103cd906060015b604051602081830303815290604052805190602001205490565b600114610408576040517f4a0bfec100000000000000000000000000000000000000000000000000000000815233600482015260240161020b565b73ffffffffffffffffffffffffffffffffffffffff165f90815260026020526040812055565b604080517f27ad9db40d40315deb7c9733dae204372b3012815db31bb8e8e56d6c68d6ac246020820152339181019190915261046c906060016103b3565b6001146104a7576040517f4a0bfec100000000000000000000000000000000000000000000000000000000815233600482015260240161020b565b6104b081610902565b50565b604080517f27ad9db40d40315deb7c9733dae204372b3012815db31bb8e8e56d6c68d6ac24602082015233918101919091526104f1906060016103b3565b60011461052c576040517f4a0bfec100000000000000000000000000000000000000000000000000000000815233600482015260240161020b565b6104b081610975565b604080517f27ad9db40d40315deb7c9733dae204372b3012815db31bb8e8e56d6c68d6ac2460208201523391810191909152610573906060016103b3565b6001146105ae576040517f4a0bfec100000000000000000000000000000000000000000000000000000000815233600482015260240161020b565b73ffffffffffffffffffffffffffffffffffffffff165f90815260016020819052604090912055565b335f90815260016020819052604082205414610621576040517f4a0bfec100000000000000000000000000000000000000000000000000000000815233600482015260240161020b565b73ffffffffffffffffffffffffffffffffffffffff83165f908152600260205260409020548390600114610699576040517f4a0bfec100000000000000000000000000000000000000000000000000000000815273ffffffffffffffffffffffffffffffffffffffff8216600482015260240161020b565b73ffffffffffffffffffffffffffffffffffffffff85166106e6576040517fd92e233d00000000000000000000000000000000000000000000000000000000815260040160405180910390fd5b6106f1858585610897565b50909392505050565b5f6107507f27ad9db40d40315deb7c9733dae204372b3012815db31bb8e8e56d6c68d6ac24836040516020016103b392919091825273ffffffffffffffffffffffffffffffffffffffff16602082015260400190565b92915050565b604080517f27ad9db40d40315deb7c9733dae204372b3012815db31bb8e8e56d6c68d6ac2460208201523391810191909152610794906060016103b3565b6001146107cf576040517f4a0bfec100000000000000000000000000000000000000000000000000000000815233600482015260240161020b565b73ffffffffffffffffffffffffffffffffffffffff165f90815260016020526040812055565b604080517f27ad9db40d40315deb7c9733dae204372b3012815db31bb8e8e56d6c68d6ac2460208201523391810191909152610833906060016103b3565b60011461086e576040517f4a0bfec100000000000000000000000000000000000000000000000000000000815233600482015260240161020b565b73ffffffffffffffffffffffffffffffffffffffff165f90815260026020526040902060019055565b6108a28383836109e7565b808273ffffffffffffffffffffffffffffffffffffffff168473ffffffffffffffffffffffffffffffffffffffff167fdeb3a6837278f6e9914a507e4d73f08e841d8fca434fb97d4307b3b0d3d6b10560405160405180910390a4505050565b6104b07f27ad9db40d40315deb7c9733dae204372b3012815db31bb8e8e56d6c68d6ac248260405160200161095792919091825273ffffffffffffffffffffffffffffffffffffffff16602082015260400190565b6040516020818303038152906040528051906020012060015f1b9055565b6104b07f27ad9db40d40315deb7c9733dae204372b3012815db31bb8e8e56d6c68d6ac24826040516020016109ca92919091825273ffffffffffffffffffffffffffffffffffffffff16602082015260400190565b604051602081830303815290604052805190602001205f5f1b9055565b6040805173ffffffffffffffffffffffffffffffffffffffff8481166024830152604480830185905283518084039091018152606490920183526020820180517bffffffffffffffffffffffffffffffffffffffffffffffffffffffff167fa9059cbb0000000000000000000000000000000000000000000000000000000017905291515f92839290871691610a7d9190610bf0565b5f604051808303815f865af19150503d805f8114610ab6576040519150601f19603f3d011682016040523d82523d5f602084013e610abb565b606091505b5091509150811580610ae957505f8151118015610ae9575080806020019051810190610ae79190610c06565b155b15610b20576040517f90b8ec1800000000000000000000000000000000000000000000000000000000815260040160405180910390fd5b5050505050565b803573ffffffffffffffffffffffffffffffffffffffff81168114610b4a575f5ffd5b919050565b5f5f60408385031215610b60575f5ffd5b610b6983610b27565b9150610b7760208401610b27565b90509250929050565b5f60208284031215610b90575f5ffd5b610b9982610b27565b9392505050565b5f5f5f60608486031215610bb2575f5ffd5b610bbb84610b27565b9250610bc960208501610b27565b9150604084013590509250925092565b5f60208284031215610be9575f5ffd5b5051919050565b5f82518060208501845e5f920191825250919050565b5f60208284031215610c16575f5ffd5b81518015158114610b99575f5ffdfea2646970667358221220fdbd1f5b0163ecfea035b0a7cb04e0290c55f3b43b13e7678fad3a69ebc3dd4064736f6c634300081c0033",
        "nonce": "0x176",
        "chainId": "0xaa36a7"
      },
      "additionalContracts": [],
      "isFixedGasLimit": false
    },
    {
      "hash": "0xfa52a5b2662d7dc2b6f06f81d219f767736e5d5f84032732b4aa015127a1427d",
      "transactionType": "CREATE",
      "contractName": "MaseerProxy",
      "contractAddress": "0x85a3a41072ca4bb7044eb104f9397d8718fe1b38",
      "function": null,
      "arguments": [
        "0xBA18f6fafAceDD3f2a196c8C3B25E8765336DafC"
      ],
      "transaction": {
        "from": "0xdef12db2bd62f88c8d59807e0ce9868279fd7fef",
        "gas": "0x7327c",
        "value": "0x0",
        "input": "0x608060405234801561000f575f5ffd5b506040516105ec3803806105ec83398101604081905261002e91610168565b610039336001610051565b610042336100b7565b61004b8161011d565b50610195565b5f7f312ed9ac9b839e579b0572e42b6b61a1d0e768aa92df633e58ace1e6a3633e79836040516020016100979291909182526001600160a01b0316602082015260400190565b604051602081830303815290604052805190602001209050818155505050565b5f7f27ad9db40d40315deb7c9733dae204372b3012815db31bb8e8e56d6c68d6ac24826040516020016100fd9291909182526001600160a01b0316602082015260400190565b604051602081830303815290604052805190602001209050600181555050565b6001600160a01b038116610144576040516318ce8b9560e31b815260040160405180910390fd5b7f0e4c00c0fe9fb028e73dd325b95165d8884bc26853613a6b5131a12effdd8ddd55565b5f60208284031215610178575f5ffd5b81516001600160a01b038116811461018e575f5ffd5b9392505050565b61044a806101a25f395ff3fe608060405234801561000f575f5ffd5b5060043610610065575f3560e01c8063266a164a1161004e578063266a164a146100d957806360cd9853146100ec5780638abf60771461011257610065565b8063048046c1146100b35780630715940e146100c6575b5f61008e7f0e4c00c0fe9fb028e73dd325b95165d8884bc26853613a6b5131a12effdd8ddd5490565b9050604051365f82375f5f3683855af43d5f833e8080156100ad573d83f35b3d83fd5b005b6100b16100c13660046103da565b61013f565b6100b16100d43660046103da565b61018d565b6100b16100e73660046103da565b6101d9565b6100ff6100fa3660046103da565b610226565b6040519081526020015b60405180910390f35b61011a610236565b60405173ffffffffffffffffffffffffffffffffffffffff9091168152602001610109565b61014833610264565b600114610181576040517fea8e4eb500000000000000000000000000000000000000000000000000000000815260040160405180910390fd5b61018a816102f6565b50565b61019633610264565b6001146101cf576040517fea8e4eb500000000000000000000000000000000000000000000000000000000815260040160405180910390fd5b61018a815f610367565b6101e233610264565b60011461021b576040517fea8e4eb500000000000000000000000000000000000000000000000000000000815260040160405180910390fd5b61018a816001610367565b5f61023082610264565b92915050565b5f61025f7f0e4c00c0fe9fb028e73dd325b95165d8884bc26853613a6b5131a12effdd8ddd5490565b905090565b5f5f7f312ed9ac9b839e579b0572e42b6b61a1d0e768aa92df633e58ace1e6a3633e79836040516020016102b892919091825273ffffffffffffffffffffffffffffffffffffffff16602082015260400190565b604080517fffffffffffffffffffffffffffffffffffffffffffffffffffffffffffffffe08184030181529190528051602090910120549392505050565b73ffffffffffffffffffffffffffffffffffffffff8116610343576040517fc6745ca800000000000000000000000000000000000000000000000000000000815260040160405180910390fd5b7f0e4c00c0fe9fb028e73dd325b95165d8884bc26853613a6b5131a12effdd8ddd55565b5f7f312ed9ac9b839e579b0572e42b6b61a1d0e768aa92df633e58ace1e6a3633e79836040516020016103ba92919091825273ffffffffffffffffffffffffffffffffffffffff16602082015260400190565b604051602081830303815290604052805190602001209050818155505050565b5f602082840312156103ea575f5ffd5b813573ffffffffffffffffffffffffffffffffffffffff8116811461040d575f5ffd5b939250505056fea26469706673582212200e02ed2a5a999bf32c9060d8defc2858cab87c90f11d27765a8ad960509fd8a864736f6c634300081c0033000000000000000000000000ba18f6fafacedd3f2a196c8c3b25e8765336dafc",
        "nonce": "0x177",
        "chainId": "0xaa36a7"
      },
      "additionalContracts": [],
      "isFixedGasLimit": false
    },
    {
      "hash": "0xb7e7d7c44f77a51b4a9b487f1c5716986fe6b678b8a6b22d86fb63ee6e5dd3be",
      "transactionType": "CREATE",
      "contractName": "MaseerOne",
      "contractAddress": "0x810157ac84018be29b5b382c15a4bb4a55672ec6",
      "function": null,
      "arguments": [
        "0xcAddB146B3f1A6A558eCD01380b81c2Faf9C8a10",
        "0x5d1cde969ad2Eeb2D64F9B7212077D2382479c0c",
        "0x6Be29907638656308B091e49054Ec174058915A4",
        "0x0731899eE6CD13B24CA56D839228484e8f15A47E",
        "0x6a730Ff57Bb6192F39B37a11C905F1E209B18f6C",
        "0x85a3A41072cA4Bb7044Eb104F9397D8718Fe1b38",
        "CANA Holdings California Carbon Credits",
        "CANA"
      ],
      "transaction": {
        "from": "0xdef12db2bd62f88c8d59807e0ce9868279fd7fef",
        "gas": "0x32ee74",
        "value": "0x0",
        "input": "0x610180604052348015610010575f5ffd5b5060405161310038038061310083398101604081905261002f916101f5565b8181600361003d8382610340565b50600461004a8282610340565b504660a05261005761008f565b6080525050506001600160a01b0396871660c0525093851660e05291841661010052831661012052821661014052166101605261046b565b5f7f8b73c3c69bb8fe3d512ecc4cf759cc79239f7b179b0ffacaa9a75d522b39400f60036040516100c091906103fa565b60408051918290038220828201825260018352603160f81b6020938401528151928301939093528101919091527fc89efdaa54c0f20c7adf612882df0950f5a951637e0307cdcb4c672f298b8bc660608201524660808201523060a082015260c00160405160208183030381529060405280519060200120905090565b80516001600160a01b0381168114610153575f5ffd5b919050565b634e487b7160e01b5f52604160045260245ffd5b5f82601f83011261017b575f5ffd5b81516001600160401b0381111561019457610194610158565b604051601f8201601f19908116603f011681016001600160401b03811182821017156101c2576101c2610158565b6040528181528382016020018510156101d9575f5ffd5b8160208501602083015e5f918101602001919091529392505050565b5f5f5f5f5f5f5f5f610100898b03121561020d575f5ffd5b6102168961013d565b975061022460208a0161013d565b965061023260408a0161013d565b955061024060608a0161013d565b945061024e60808a0161013d565b935061025c60a08a0161013d565b60c08a01519093506001600160401b03811115610277575f5ffd5b6102838b828c0161016c565b60e08b015190935090506001600160401b038111156102a0575f5ffd5b6102ac8b828c0161016c565b9150509295985092959890939650565b600181811c908216806102d057607f821691505b6020821081036102ee57634e487b7160e01b5f52602260045260245ffd5b50919050565b601f82111561033b57805f5260205f20601f840160051c810160208510156103195750805b601f840160051c820191505b81811015610338575f8155600101610325565b50505b505050565b81516001600160401b0381111561035957610359610158565b61036d8161036784546102bc565b846102f4565b6020601f82116001811461039f575f83156103885750848201515b5f19600385901b1c1916600184901b178455610338565b5f84815260208120601f198516915b828110156103ce57878501518255602094850194600190920191016103ae565b50848210156103eb57868401515f19600387901b60f8161c191681555b50505050600190811b01905550565b5f5f8354610407816102bc565b60018216801561041e576001811461043357610460565b60ff1983168652811515820286019350610460565b865f5260205f205f5b838110156104585781548882015260019091019060200161043c565b505081860193505b509195945050505050565b60805160a05160c05160e05161010051610120516101405161016051612bca6105365f395f818161038c01528181610933015261097401525f81816104ca0152611a1901525f81816102d601528181611289015261141601525f818161071901528181610c2d015281816110ea01528181611fc0015281816120c20152818161214401526121dc01525f818161069a015261202a01525f81816105200152818161091201528181610e4c015281816110810152611b2c01525f610bd301525f610c080152612bca5ff3fe608060405234801561000f575f5ffd5b50600436106102cd575f3560e01c806370a082311161017c578063a9059cbb116100dd578063d741e2f911610093578063dd62ed3e1161006e578063dd62ed3e146106e2578063ede750941461070c578063ee42b10b14610714575f5ffd5b8063d741e2f914610695578063daea85c5146106bc578063db006a75146106cf575f5ffd5b8063beb65893116100c3578063beb65893146105cd578063cc872b661461066f578063d505accf14610682575f5ffd5b8063a9059cbb146105a7578063ad1a2396146105ba575f5ffd5b806394c3cbf411610132578063973efb5c11610118578063973efb5c14610584578063a0712d681461058c578063a07c7ce41461059f575f5ffd5b806394c3cbf41461057457806395d89b411461057c575f5ffd5b80637bd2bea7116101625780637bd2bea71461051b5780637ecebe00146105425780637f8661a114610561575f5ffd5b806370a08231146104f4578063787a08a614610513575f5ffd5b806326ea3799116102315780634bf365df116101e75780635cfc1a51116101c25780635cfc1a51146104bd5780635f7efbea146104c55780636c96474f146104ec575f5ffd5b80634bf365df146104755780634d773aa61461047d57806351f5d98d14610485575f5ffd5b80633644e515116102175780633644e5151461041c5780633f90916a1461042457806342c4a1aa1461042d575f5ffd5b806326ea3799146103f9578063313ce56714610402575f5ffd5b806311da60b411610286578063219df1cc1161026c578063219df1cc146103be57806323b872dd146103d3578063248c11f5146103e6575f5ffd5b806311da60b4146103ae57806318160ddd146103b6575f5ffd5b806306ff7a41116102b657806306ff7a4114610337578063095ea7b3146103645780630a77bd4914610387575f5ffd5b806304d7aef2146102d157806306fdde0314610322575b5f5ffd5b6102f87f000000000000000000000000000000000000000000000000000000000000000081565b60405173ffffffffffffffffffffffffffffffffffffffff90911681526020015b60405180910390f35b61032a61073b565b60405161031991906127a0565b6103566103453660046127f3565b5f9081526008602052604090205490565b604051908152602001610319565b610377610372366004612832565b6107c7565b6040519015158152602001610319565b6102f87f000000000000000000000000000000000000000000000000000000000000000081565b610356610890565b6103565f5481565b6103d16103cc3660046127f3565b6109c0565b005b6103776103e136600461285a565b610a52565b6103776103f4366004612894565b610bc0565b61035660075481565b61040a601281565b60405160ff9091168152602001610319565b610356610bd0565b61035660065481565b61035661043b3660046127f3565b5f908152600860205260409020600101547401000000000000000000000000000000000000000090046bffffffffffffffffffffffff1690565b610377610c2a565b610356610cb8565b6102f86104933660046127f3565b5f9081526008602052604090206001015473ffffffffffffffffffffffffffffffffffffffff1690565b610356610ce8565b6102f87f000000000000000000000000000000000000000000000000000000000000000081565b610356610cf1565b610356610502366004612894565b60016020525f908152604090205481565b610356610d02565b6102f87f000000000000000000000000000000000000000000000000000000000000000081565b610356610550366004612894565b60056020525f908152604090205481565b61035661056f3660046127f3565b610d0b565b610356610eda565b61032a610eeb565b610356610ef8565b61035661059a3660046127f3565b610f01565b6103776110e7565b6103776105b5366004612832565b611151565b6103d16105c8366004612832565b61125b565b6106316105db3660046127f3565b60086020525f90815260409020805460019091015473ffffffffffffffffffffffffffffffffffffffff8116907401000000000000000000000000000000000000000090046bffffffffffffffffffffffff1683565b6040805193845273ffffffffffffffffffffffffffffffffffffffff90921660208401526bffffffffffffffffffffffff1690820152606001610319565b6103d161067d3660046127f3565b6113e8565b6103d16106903660046128ad565b61155e565b6102f87f000000000000000000000000000000000000000000000000000000000000000081565b6103776106ca366004612894565b611681565b6103566106dd3660046127f3565b611743565b6103566106f036600461291a565b600260209081525f928352604080842090915290825290205481565b6103566119b0565b6102f87f000000000000000000000000000000000000000000000000000000000000000081565b600380546107489061294b565b80601f01602080910402602001604051908101604052809291908181526020018280546107749061294b565b80156107bf5780601f10610796576101008083540402835291602001916107bf565b820191905f5260205f20905b8154815290600101906020018083116107a257829003601f168201915b505050505081565b5f336107d2816119d2565b610825576040517fea93ab6d00000000000000000000000000000000000000000000000000000000815273ffffffffffffffffffffffffffffffffffffffff821660048201526024015b60405180910390fd5b8361082f816119d2565b61087d576040517fea93ab6d00000000000000000000000000000000000000000000000000000000815273ffffffffffffffffffffffffffffffffffffffff8216600482015260240161081c565b6108878585611a84565b95945050505050565b5f3361089b816119d2565b6108e9576040517fea93ab6d00000000000000000000000000000000000000000000000000000000815273ffffffffffffffffffffffffffffffffffffffff8216600482015260240161081c565b5f6108f2611afc565b600654909150808211610908575f935050505090565b80820393506109587f00000000000000000000000000000000000000000000000000000000000000007f000000000000000000000000000000000000000000000000000000000000000086611baa565b604051849073ffffffffffffffffffffffffffffffffffffffff7f000000000000000000000000000000000000000000000000000000000000000016907f7823e479a1a4ebe2418874847436f8a1680c5ee5b17f38bb59dbff28e1b45552905f90a350505090565b336109ca816119d2565b610a18576040517fea93ab6d00000000000000000000000000000000000000000000000000000000815273ffffffffffffffffffffffffffffffffffffffff8216600482015260240161081c565b610a223383611cea565b604051829033907f266ba2fe22d2b352fe1eb8c45b5d486ff3c0b83ef953959b6d34397d53fb088d905f90a35050565b5f33610a5d816119d2565b610aab576040517fea93ab6d00000000000000000000000000000000000000000000000000000000815273ffffffffffffffffffffffffffffffffffffffff8216600482015260240161081c565b84610ab5816119d2565b610b03576040517fea93ab6d00000000000000000000000000000000000000000000000000000000815273ffffffffffffffffffffffffffffffffffffffff8216600482015260240161081c565b84610b0d816119d2565b610b5b576040517fea93ab6d00000000000000000000000000000000000000000000000000000000815273ffffffffffffffffffffffffffffffffffffffff8216600482015260240161081c565b3073ffffffffffffffffffffffffffffffffffffffff871603610baa576040517f3a49fd5c00000000000000000000000000000000000000000000000000000000815260040160405180910390fd5b610bb5878787611d7b565b979650505050505050565b5f610bca826119d2565b92915050565b5f7f00000000000000000000000000000000000000000000000000000000000000004614610c0557610c00611ef3565b905090565b507f000000000000000000000000000000000000000000000000000000000000000090565b5f7f000000000000000000000000000000000000000000000000000000000000000073ffffffffffffffffffffffffffffffffffffffff16634bf365df6040518163ffffffff1660e01b8152600401602060405180830381865afa158015610c94573d5f5f3e3d5ffd5b505050506040513d601f19601f82011682018060405250810190610c00919061299c565b5f5f610cc2611afc565b90506006548111610ce05780600654610cdb91906129e8565b610ce2565b5f5b91505090565b5f610c00611fbd565b5f610c00610cfd612027565b612091565b5f610c00612141565b5f33610d16816119d2565b610d64576040517fea93ab6d00000000000000000000000000000000000000000000000000000000815273ffffffffffffffffffffffffffffffffffffffff8216600482015260240161081c565b5f83815260086020526040902060018101547401000000000000000000000000000000000000000090046bffffffffffffffffffffffff1642811115610dd9576040517f774cceca0000000000000000000000000000000000000000000000000000000081526004810182905260240161081c565b805f03610e12576040517f9b604d0b00000000000000000000000000000000000000000000000000000000815260040160405180910390fd5b81545f610e1d611afc565b9050808210610e2c5780610e2e565b815b600680548290039055845481900385556001850154909650610e88907f00000000000000000000000000000000000000000000000000000000000000009073ffffffffffffffffffffffffffffffffffffffff1688611baa565b6001840154604051879173ffffffffffffffffffffffffffffffffffffffff169089907f786e090d783caced3baddcb29bd555ffb93faf484529ab87feab4ec4c48a81e1905f90a45050505050919050565b5f610c00610ee6612027565b6121ab565b600480546107489061294b565b5f610c00612027565b5f610f0a610c2a565b610f40576040517f0b5f6bf000000000000000000000000000000000000000000000000000000000815260040160405180910390fd5b33610f4a816119d2565b610f98576040517fea93ab6d00000000000000000000000000000000000000000000000000000000815273ffffffffffffffffffffffffffffffffffffffff8216600482015260240161081c565b5f610fa1612027565b9050805f03610fdb576040517ebfc92100000000000000000000000000000000000000000000000000000000815260040160405180910390fd5b610fe4816121ab565b905080841015611023576040517fa4a050250000000000000000000000000000000000000000000000000000000081526004810182905260240161081c565b61102d8482612220565b9250611037611fbd565b835f5461104491906129fb565b111561107c576040517f2edaff4300000000000000000000000000000000000000000000000000000000815260040160405180910390fd5b6110a87f0000000000000000000000000000000000000000000000000000000000000000333087612245565b6110b2338461238e565b6040518390829033907f58781ca443f8e3ecffad28c83044b16c6e549d8e9c677aebb3b8ee176f99f53f905f90a45050919050565b5f7f000000000000000000000000000000000000000000000000000000000000000073ffffffffffffffffffffffffffffffffffffffff1663a07c7ce46040518163ffffffff1660e01b8152600401602060405180830381865afa158015610c94573d5f5f3e3d5ffd5b5f3361115c816119d2565b6111aa576040517fea93ab6d00000000000000000000000000000000000000000000000000000000815273ffffffffffffffffffffffffffffffffffffffff8216600482015260240161081c565b836111b4816119d2565b611202576040517fea93ab6d00000000000000000000000000000000000000000000000000000000815273ffffffffffffffffffffffffffffffffffffffff8216600482015260240161081c565b3073ffffffffffffffffffffffffffffffffffffffff861603611251576040517f3a49fd5c00000000000000000000000000000000000000000000000000000000815260040160405180910390fd5b61088785856123fc565b6040517f5711caaf0000000000000000000000000000000000000000000000000000000081523360048201527f000000000000000000000000000000000000000000000000000000000000000073ffffffffffffffffffffffffffffffffffffffff1690635711caaf90602401602060405180830381865afa1580156112e3573d5f5f3e3d5ffd5b505050506040513d601f19601f82011682018060405250810190611307919061299c565b61133f576040517fea93ab6d00000000000000000000000000000000000000000000000000000000815233600482015260240161081c565b33611349816119d2565b611397576040517fea93ab6d00000000000000000000000000000000000000000000000000000000815273ffffffffffffffffffffffffffffffffffffffff8216600482015260240161081c565b6113a18383611cea565b604051829073ffffffffffffffffffffffffffffffffffffffff8516907f266ba2fe22d2b352fe1eb8c45b5d486ff3c0b83ef953959b6d34397d53fb088d905f90a3505050565b6040517f5711caaf0000000000000000000000000000000000000000000000000000000081523360048201527f000000000000000000000000000000000000000000000000000000000000000073ffffffffffffffffffffffffffffffffffffffff1690635711caaf90602401602060405180830381865afa158015611470573d5f5f3e3d5ffd5b505050506040513d601f19601f82011682018060405250810190611494919061299c565b6114cc576040517fea93ab6d00000000000000000000000000000000000000000000000000000000815233600482015260240161081c565b336114d6816119d2565b611524576040517fea93ab6d00000000000000000000000000000000000000000000000000000000815273ffffffffffffffffffffffffffffffffffffffff8216600482015260240161081c565b61152e338361238e565b604051829033907fa59f12e354e8cd10bb74c559844c2dd69a5458e31fe56c7594c62ca57480509a905f90a35050565b33611568816119d2565b6115b6576040517fea93ab6d00000000000000000000000000000000000000000000000000000000815273ffffffffffffffffffffffffffffffffffffffff8216600482015260240161081c565b876115c0816119d2565b61160e576040517fea93ab6d00000000000000000000000000000000000000000000000000000000815273ffffffffffffffffffffffffffffffffffffffff8216600482015260240161081c565b87611618816119d2565b611666576040517fea93ab6d00000000000000000000000000000000000000000000000000000000815273ffffffffffffffffffffffffffffffffffffffff8216600482015260240161081c565b6116758a8a8a8a8a8a8a61247f565b50505050505050505050565b5f3361168c816119d2565b6116da576040517fea93ab6d00000000000000000000000000000000000000000000000000000000815273ffffffffffffffffffffffffffffffffffffffff8216600482015260240161081c565b826116e4816119d2565b611732576040517fea93ab6d00000000000000000000000000000000000000000000000000000000815273ffffffffffffffffffffffffffffffffffffffff8216600482015260240161081c565b61173b84612761565b949350505050565b5f61174c6110e7565b611782576040517f0b5f6bf000000000000000000000000000000000000000000000000000000000815260040160405180910390fd5b3361178c816119d2565b6117da576040517fea93ab6d00000000000000000000000000000000000000000000000000000000815273ffffffffffffffffffffffffffffffffffffffff8216600482015260240161081c565b670de0b6b3a7640000831015611826576040517fa4a05025000000000000000000000000000000000000000000000000000000008152670de0b6b3a7640000600482015260240161081c565b5f61182f612027565b9050805f03611869576040517ebfc92100000000000000000000000000000000000000000000000000000000815260040160405180910390fd5b61187281612091565b90505f61187f858361278c565b90508060065f82825461189291906129fb565b909155505060078054905f6118a683612a0e565b9190505593505f6118b5612141565b6118bf90426129fb565b604080516060810182528481523360208083018281526bffffffffffffffffffffffff8087168587019081525f8d81526008909452959092209351845551935116740100000000000000000000000000000000000000000273ffffffffffffffffffffffffffffffffffffffff93909316929092176001909101559091506119479087611cea565b3373ffffffffffffffffffffffffffffffffffffffff16816bffffffffffffffffffffffff16867f5a084092180e1b482afdddc2a20027f4d3619225151fb1a9934c119cd7307f328560405161199f91815260200190565b60405180910390a450505050919050565b5f5f6119ba611afc565b90506006548110610ce057600654610cdb90826129e8565b6040517f82c4b3b200000000000000000000000000000000000000000000000000000000815273ffffffffffffffffffffffffffffffffffffffff82811660048301525f917f0000000000000000000000000000000000000000000000000000000000000000909116906382c4b3b290602401602060405180830381865afa158015611a60573d5f5f3e3d5ffd5b505050506040513d601f19601f82011682018060405250810190610bca919061299c565b335f81815260026020908152604080832073ffffffffffffffffffffffffffffffffffffffff8716808552925280832085905551919290917f8c5be1e5ebec7d5bd14f71427d1e84f3dd0314c0f7b2291e5b200ac8c7c3b92590611aeb9086815260200190565b60405180910390a350600192915050565b6040517f70a082310000000000000000000000000000000000000000000000000000000081523060048201525f907f000000000000000000000000000000000000000000000000000000000000000073ffffffffffffffffffffffffffffffffffffffff16906370a0823190602401602060405180830381865afa158015611b86573d5f5f3e3d5ffd5b505050506040513d601f19601f82011682018060405250810190610c009190612a45565b6040805173ffffffffffffffffffffffffffffffffffffffff8481166024830152604480830185905283518084039091018152606490920183526020820180517bffffffffffffffffffffffffffffffffffffffffffffffffffffffff167fa9059cbb0000000000000000000000000000000000000000000000000000000017905291515f92839290871691611c409190612a5c565b5f604051808303815f865af19150503d805f8114611c79576040519150601f19603f3d011682016040523d82523d5f602084013e611c7e565b606091505b5091509150811580611cac57505f8151118015611cac575080806020019051810190611caa919061299c565b155b15611ce3576040517f90b8ec1800000000000000000000000000000000000000000000000000000000815260040160405180910390fd5b5050505050565b73ffffffffffffffffffffffffffffffffffffffff82165f9081526001602052604081208054839290611d1e9084906129e8565b90915550505f8054829003815560405182815273ffffffffffffffffffffffffffffffffffffffff8416907fddf252ad1be2c89b69c2b068fc378daa952ba7f163c4a11628f55a4df523b3ef906020015b60405180910390a35050565b73ffffffffffffffffffffffffffffffffffffffff83165f9081526002602090815260408083203384529091528120547fffffffffffffffffffffffffffffffffffffffffffffffffffffffffffffffff8114611e0d57611ddc83826129e8565b73ffffffffffffffffffffffffffffffffffffffff86165f9081526002602090815260408083203384529091529020555b73ffffffffffffffffffffffffffffffffffffffff85165f9081526001602052604081208054859290611e419084906129e8565b909155505073ffffffffffffffffffffffffffffffffffffffff84165f9081526001602052604081208054859290611e7a9084906129fb565b925050819055508373ffffffffffffffffffffffffffffffffffffffff168573ffffffffffffffffffffffffffffffffffffffff167fddf252ad1be2c89b69c2b068fc378daa952ba7f163c4a11628f55a4df523b3ef85604051611ee091815260200190565b60405180910390a3506001949350505050565b5f7f8b73c3c69bb8fe3d512ecc4cf759cc79239f7b179b0ffacaa9a75d522b39400f6003604051611f249190612a72565b604080519182900382208282018252600183527f31000000000000000000000000000000000000000000000000000000000000006020938401528151928301939093528101919091527fc89efdaa54c0f20c7adf612882df0950f5a951637e0307cdcb4c672f298b8bc660608201524660808201523060a082015260c00160405160208183030381529060405280519060200120905090565b5f7f000000000000000000000000000000000000000000000000000000000000000073ffffffffffffffffffffffffffffffffffffffff16635cfc1a516040518163ffffffff1660e01b8152600401602060405180830381865afa158015611b86573d5f5f3e3d5ffd5b5f7f000000000000000000000000000000000000000000000000000000000000000073ffffffffffffffffffffffffffffffffffffffff166357de26a46040518163ffffffff1660e01b8152600401602060405180830381865afa158015611b86573d5f5f3e3d5ffd5b6040517fef86cf56000000000000000000000000000000000000000000000000000000008152600481018290525f907f000000000000000000000000000000000000000000000000000000000000000073ffffffffffffffffffffffffffffffffffffffff169063ef86cf56906024015b602060405180830381865afa15801561211d573d5f5f3e3d5ffd5b505050506040513d601f19601f82011682018060405250810190610bca9190612a45565b5f7f000000000000000000000000000000000000000000000000000000000000000073ffffffffffffffffffffffffffffffffffffffff1663787a08a66040518163ffffffff1660e01b8152600401602060405180830381865afa158015611b86573d5f5f3e3d5ffd5b6040517f5c4f46ed000000000000000000000000000000000000000000000000000000008152600481018290525f907f000000000000000000000000000000000000000000000000000000000000000073ffffffffffffffffffffffffffffffffffffffff1690635c4f46ed90602401612102565b5f81612234670de0b6b3a764000085612b45565b61223e9190612b5c565b9392505050565b6040805173ffffffffffffffffffffffffffffffffffffffff85811660248301528481166044830152606480830185905283518084039091018152608490920183526020820180517bffffffffffffffffffffffffffffffffffffffffffffffffffffffff167f23b872dd0000000000000000000000000000000000000000000000000000000017905291515f928392908816916122e39190612a5c565b5f604051808303815f865af19150503d805f811461231c576040519150601f19603f3d011682016040523d82523d5f602084013e612321565b606091505b509150915081158061234f57505f815111801561234f57508080602001905181019061234d919061299c565b155b15612386576040517f90b8ec1800000000000000000000000000000000000000000000000000000000815260040160405180910390fd5b505050505050565b805f5f82825461239e91906129fb565b909155505073ffffffffffffffffffffffffffffffffffffffff82165f818152600160209081526040808320805486019055518481527fddf252ad1be2c89b69c2b068fc378daa952ba7f163c4a11628f55a4df523b3ef9101611d6f565b335f9081526001602052604081208054839190839061241c9084906129e8565b909155505073ffffffffffffffffffffffffffffffffffffffff83165f81815260016020526040908190208054850190555133907fddf252ad1be2c89b69c2b068fc378daa952ba7f163c4a11628f55a4df523b3ef90611aeb9086815260200190565b428410156124c2576040517fc4773cba0000000000000000000000000000000000000000000000000000000081526004810185905242602482015260440161081c565b5f60016124cd610bd0565b73ffffffffffffffffffffffffffffffffffffffff8a81165f8181526005602090815260409182902080546001810190915582517f6e71edae12b1b97f4d1f60370fef10105fa2faae0126114a169c64845d6126c98184015280840194909452938d166060840152608083018c905260a083019390935260c08083018b90528151808403909101815260e0830190915280519201919091207f190100000000000000000000000000000000000000000000000000000000000061010083015261010282019290925261012281019190915261014201604080517fffffffffffffffffffffffffffffffffffffffffffffffffffffffffffffffe081840301815282825280516020918201205f84529083018083525260ff871690820152606081018590526080810184905260a0016020604051602081039080840390855afa15801561261b573d5f5f3e3d5ffd5b50506040517fffffffffffffffffffffffffffffffffffffffffffffffffffffffffffffffe0015191505073ffffffffffffffffffffffffffffffffffffffff8116158061269557508773ffffffffffffffffffffffffffffffffffffffff168173ffffffffffffffffffffffffffffffffffffffff1614155b156126ec576040517f7ba5ffb500000000000000000000000000000000000000000000000000000000815273ffffffffffffffffffffffffffffffffffffffff80831660048301528916602482015260440161081c565b73ffffffffffffffffffffffffffffffffffffffff9081165f9081526002602090815260408083208a8516808552908352928190208990555188815291928a16917f8c5be1e5ebec7d5bd14f71427d1e84f3dd0314c0f7b2291e5b200ac8c7c3b925910160405180910390a350505050505050565b5f610bca827fffffffffffffffffffffffffffffffffffffffffffffffffffffffffffffffff6107c7565b5f670de0b6b3a76400006122348385612b45565b602081525f82518060208401528060208501604085015e5f6040828501015260407fffffffffffffffffffffffffffffffffffffffffffffffffffffffffffffffe0601f83011684010191505092915050565b5f60208284031215612803575f5ffd5b5035919050565b803573ffffffffffffffffffffffffffffffffffffffff8116811461282d575f5ffd5b919050565b5f5f60408385031215612843575f5ffd5b61284c8361280a565b946020939093013593505050565b5f5f5f6060848603121561286c575f5ffd5b6128758461280a565b92506128836020850161280a565b929592945050506040919091013590565b5f602082840312156128a4575f5ffd5b61223e8261280a565b5f5f5f5f5f5f5f60e0888a0312156128c3575f5ffd5b6128cc8861280a565b96506128da6020890161280a565b95506040880135945060608801359350608088013560ff811681146128fd575f5ffd5b9699959850939692959460a0840135945060c09093013592915050565b5f5f6040838503121561292b575f5ffd5b6129348361280a565b91506129426020840161280a565b90509250929050565b600181811c9082168061295f57607f821691505b602082108103612996577f4e487b71000000000000000000000000000000000000000000000000000000005f52602260045260245ffd5b50919050565b5f602082840312156129ac575f5ffd5b8151801515811461223e575f5ffd5b7f4e487b71000000000000000000000000000000000000000000000000000000005f52601160045260245ffd5b81810381811115610bca57610bca6129bb565b80820180821115610bca57610bca6129bb565b5f7fffffffffffffffffffffffffffffffffffffffffffffffffffffffffffffffff8203612a3e57612a3e6129bb565b5060010190565b5f60208284031215612a55575f5ffd5b5051919050565b5f82518060208501845e5f920191825250919050565b5f5f83545f8160011c90506001821680612a8d57607f821691505b602082108103612ac4577f4e487b71000000000000000000000000000000000000000000000000000000005f52602260045260245ffd5b808015612ad85760018114612b0b57612b39565b7fffffffffffffffffffffffffffffffffffffffffffffffffffffffffffffff0084168752821515830287019450612b39565b5f888152602090205f5b84811015612b3157815489820152600190910190602001612b15565b505082870194505b50929695505050505050565b8082028115828204841417610bca57610bca6129bb565b5f82612b8f577f4e487b71000000000000000000000000000000000000000000000000000000005f52601260045260245ffd5b50049056fea2646970667358221220778e7ff4f0424767ca6f6414b2f916286865d6325c1af02bc00987e1964c019964736f6c634300081c0033000000000000000000000000caddb146b3f1a6a558ecd01380b81c2faf9c8a100000000000000000000000005d1cde969ad2eeb2d64f9b7212077d2382479c0c0000000000000000000000006be29907638656308b091e49054ec174058915a40000000000000000000000000731899ee6cd13b24ca56d839228484e8f15a47e0000000000000000000000006a730ff57bb6192f39b37a11c905f1e209b18f6c00000000000000000000000085a3a41072ca4bb7044eb104f9397d8718fe1b3800000000000000000000000000000000000000000000000000000000000001000000000000000000000000000000000000000000000000000000000000000160000000000000000000000000000000000000000000000000000000000000002743414e4120486f6c64696e67732043616c69666f726e696120436172626f6e204372656469747300000000000000000000000000000000000000000000000000000000000000000000000000000000000000000000000000000000000000000443414e4100000000000000000000000000000000000000000000000000000000",
        "nonce": "0x178",
        "chainId": "0xaa36a7"
      },
      "additionalContracts": [],
      "isFixedGasLimit": false
    },
    {
      "hash": "0x9289b94a4310742f8f2c747c08642c028503bab1aaab9b3b6d10723b7d000805",
      "transactionType": "CREATE",
      "contractName": "MaseerPrecommit",
      "contractAddress": "0x2b406cda4af08f1d871ffbea54480c348c1033b5",
      "function": null,
      "arguments": [
        "0x810157ac84018bE29B5B382C15a4bb4a55672eC6"
      ],
      "transaction": {
        "from": "0xdef12db2bd62f88c8d59807e0ce9868279fd7fef",
        "gas": "0x10abd2",
        "value": "0x0",
        "input": "0x60e060405234801561000f575f5ffd5b5060405161110438038061110483398101604081905261002e91610185565b806001600160a01b0316637bd2bea76040518163ffffffff1660e01b8152600401602060405180830381865afa15801561006a573d5f5f3e3d5ffd5b505050506040513d601f19601f8201168201806040525081019061008e9190610185565b6001600160a01b031660808190526040805163313ce56760e01b8152905163313ce567916004808201926020929091908290030181865afa1580156100d5573d5f5f3e3d5ffd5b505050506040513d601f19601f820116820180604052508101906100f991906101b2565b6101079060ff16600a6102cb565b610113906103e86102d6565b60c0526001600160a01b0381811660a081905260805160405163095ea7b360e01b815260048101929092525f1960248301529091169063095ea7b3906044015f604051808303815f87803b158015610169575f5ffd5b505af115801561017b573d5f5f3e3d5ffd5b50505050506102ed565b5f60208284031215610195575f5ffd5b81516001600160a01b03811681146101ab575f5ffd5b9392505050565b5f602082840312156101c2575f5ffd5b815160ff811681146101ab575f5ffd5b634e487b7160e01b5f52601160045260245ffd5b6001815b600184111561022157808504811115610205576102056101d2565b600184161561021357908102905b60019390931c9280026101ea565b935093915050565b5f82610237575060016102c5565b8161024357505f6102c5565b816001811461025957600281146102635761027f565b60019150506102c5565b60ff841115610274576102746101d2565b50506001821b6102c5565b5060208310610133831016604e8410600b84101617156102a2575081810a6102c5565b6102ae5f1984846101e6565b805f19048211156102c1576102c16101d2565b0290505b92915050565b5f6101ab8383610229565b80820281158282048414176102c5576102c56101d2565b60805160a05160c051610da16103635f395f818161021d015261034801525f818161013e01528181610292015281816105410152818161061b015281816107870152818161093d01526109bb01525f818160dd015281816103d6015281816105fa015281816106d401526108d20152610da15ff3fe608060405234801561000f575f5ffd5b50600436106100b9575f3560e01c8063c959c42b11610072578063f873cb9111610058578063f873cb9114610208578063f88979451461021b578063fde788f614610241575f5ffd5b8063c959c42b14610195578063e9fad8ee14610200575f5ffd5b806389506000116100a25780638950600014610124578063901717d114610139578063c659cd4514610160575f5ffd5b80630f752fe8146100bd5780637bd2bea7146100d8575b5f5ffd5b6100c55f5481565b6040519081526020015b60405180910390f35b6100ff7f000000000000000000000000000000000000000000000000000000000000000081565b60405173ffffffffffffffffffffffffffffffffffffffff90911681526020016100cf565b610137610132366004610c72565b610264565b005b6100ff7f000000000000000000000000000000000000000000000000000000000000000081565b6100ff61016e366004610c72565b5f9081526001602052604090205473ffffffffffffffffffffffffffffffffffffffff1690565b6101d46101a3366004610c72565b600160208190525f9182526040909120805491015473ffffffffffffffffffffffffffffffffffffffff9091169082565b6040805173ffffffffffffffffffffffffffffffffffffffff90931683526020830191909152016100cf565b610137610513565b610137610216366004610c72565b610759565b7f00000000000000000000000000000000000000000000000000000000000000006100c5565b6100c561024f366004610c72565b5f908152600160208190526040909120015490565b6040517f248c11f50000000000000000000000000000000000000000000000000000000081523360048201527f000000000000000000000000000000000000000000000000000000000000000073ffffffffffffffffffffffffffffffffffffffff169063248c11f590602401602060405180830381865afa1580156102ec573d5f5f3e3d5ffd5b505050506040513d601f19601f820116820180604052508101906103109190610c89565b610346576040517fea8e4eb500000000000000000000000000000000000000000000000000000000815260040160405180910390fd5b7f00000000000000000000000000000000000000000000000000000000000000008110156103a0576040517f5945ea5600000000000000000000000000000000000000000000000000000000815260040160405180910390fd5b6040517fdd62ed3e00000000000000000000000000000000000000000000000000000000815233600482015230602482015281907f000000000000000000000000000000000000000000000000000000000000000073ffffffffffffffffffffffffffffffffffffffff169063dd62ed3e90604401602060405180830381865afa158015610430573d5f5f3e3d5ffd5b505050506040513d601f19601f820116820180604052508101906104549190610caf565b101561048c576040517f13be252b00000000000000000000000000000000000000000000000000000000815260040160405180910390fd5b60408051808201909152338152602081018290525f80546001919081806104b283610cc6565b9091555081526020808201929092526040015f20825181547fffffffffffffffffffffffff00000000000000000000000000000000000000001673ffffffffffffffffffffffffffffffffffffffff90911617815591015160019091015550565b6040517f248c11f50000000000000000000000000000000000000000000000000000000081523360048201527f000000000000000000000000000000000000000000000000000000000000000073ffffffffffffffffffffffffffffffffffffffff169063248c11f590602401602060405180830381865afa15801561059b573d5f5f3e3d5ffd5b505050506040513d601f19601f820116820180604052508101906105bf9190610c89565b6105f5576040517fea8e4eb500000000000000000000000000000000000000000000000000000000815260040160405180910390fd5b6107577f00000000000000000000000000000000000000000000000000000000000000007f000000000000000000000000000000000000000000000000000000000000000073ffffffffffffffffffffffffffffffffffffffff16630a77bd496040518163ffffffff1660e01b8152600401602060405180830381865afa158015610682573d5f5f3e3d5ffd5b505050506040513d601f19601f820116820180604052508101906106a69190610d22565b6040517f70a082310000000000000000000000000000000000000000000000000000000081523060048201527f000000000000000000000000000000000000000000000000000000000000000073ffffffffffffffffffffffffffffffffffffffff16906370a0823190602401602060405180830381865afa15801561072e573d5f5f3e3d5ffd5b505050506040513d601f19601f820116820180604052508101906107529190610caf565b6109e9565b565b6040517f248c11f50000000000000000000000000000000000000000000000000000000081523360048201527f000000000000000000000000000000000000000000000000000000000000000073ffffffffffffffffffffffffffffffffffffffff169063248c11f590602401602060405180830381865afa1580156107e1573d5f5f3e3d5ffd5b505050506040513d601f19601f820116820180604052508101906108059190610c89565b61083b576040517fea8e4eb500000000000000000000000000000000000000000000000000000000815260040160405180910390fd5b5f8181526001602081815260408084208151808301909252805473ffffffffffffffffffffffffffffffffffffffff168252909201549082018190529091036108b0576040517f5945ea5600000000000000000000000000000000000000000000000000000000815260040160405180910390fd5b5f8281526001602081815260408320909101919091558151908201516108f9917f0000000000000000000000000000000000000000000000000000000000000000913090610b29565b60208101516040517fa0712d680000000000000000000000000000000000000000000000000000000081525f9173ffffffffffffffffffffffffffffffffffffffff7f0000000000000000000000000000000000000000000000000000000000000000169163a0712d68916109749160040190815260200190565b6020604051808303815f875af1158015610990573d5f5f3e3d5ffd5b505050506040513d601f19601f820116820180604052508101906109b49190610caf565b90506109e47f0000000000000000000000000000000000000000000000000000000000000000835f0151836109e9565b505050565b6040805173ffffffffffffffffffffffffffffffffffffffff8481166024830152604480830185905283518084039091018152606490920183526020820180517bffffffffffffffffffffffffffffffffffffffffffffffffffffffff167fa9059cbb0000000000000000000000000000000000000000000000000000000017905291515f92839290871691610a7f9190610d55565b5f604051808303815f865af19150503d805f8114610ab8576040519150601f19603f3d011682016040523d82523d5f602084013e610abd565b606091505b5091509150811580610aeb57505f8151118015610aeb575080806020019051810190610ae99190610c89565b155b15610b22576040517f90b8ec1800000000000000000000000000000000000000000000000000000000815260040160405180910390fd5b5050505050565b6040805173ffffffffffffffffffffffffffffffffffffffff85811660248301528481166044830152606480830185905283518084039091018152608490920183526020820180517bffffffffffffffffffffffffffffffffffffffffffffffffffffffff167f23b872dd0000000000000000000000000000000000000000000000000000000017905291515f92839290881691610bc79190610d55565b5f604051808303815f865af19150503d805f8114610c00576040519150601f19603f3d011682016040523d82523d5f602084013e610c05565b606091505b5091509150811580610c3357505f8151118015610c33575080806020019051810190610c319190610c89565b155b15610c6a576040517f90b8ec1800000000000000000000000000000000000000000000000000000000815260040160405180910390fd5b505050505050565b5f60208284031215610c82575f5ffd5b5035919050565b5f60208284031215610c99575f5ffd5b81518015158114610ca8575f5ffd5b9392505050565b5f60208284031215610cbf575f5ffd5b5051919050565b5f7fffffffffffffffffffffffffffffffffffffffffffffffffffffffffffffffff8203610d1b577f4e487b71000000000000000000000000000000000000000000000000000000005f52601160045260245ffd5b5060010190565b5f60208284031215610d32575f5ffd5b815173ffffffffffffffffffffffffffffffffffffffff81168114610ca8575f5ffd5b5f82518060208501845e5f92019182525091905056fea2646970667358221220396575ed05527c8209b5e50b4033bca292526590c7619628b1fdbd7b64e2e27064736f6c634300081c0033000000000000000000000000810157ac84018be29b5b382c15a4bb4a55672ec6",
        "nonce": "0x179",
        "chainId": "0xaa36a7"
      },
      "additionalContracts": [],
      "isFixedGasLimit": false
    },
    {
      "hash": "0xfc1dddcf9b198931f28f30fc453732d00804367af706c6af9dd62e92222e70a6",
      "transactionType": "CALL",
      "contractName": "MaseerProxy",
      "contractAddress": "0x5d1cde969ad2eeb2d64f9b7212077d2382479c0c",
      "function": null,
      "arguments": null,
      "transaction": {
        "from": "0xdef12db2bd62f88c8d59807e0ce9868279fd7fef",
        "to": "0x5d1cde969ad2eeb2d64f9b7212077d2382479c0c",
        "gas": "0x11c50",
        "value": "0x0",
        "input": "0xe9b674b96e616d650000000000000000000000000000000000000000000000000000000043414e4155534454000000000000000000000000000000000000000000000000",
        "nonce": "0x17a",
        "chainId": "0xaa36a7"
      },
      "additionalContracts": [],
      "isFixedGasLimit": false
    },
    {
      "hash": "0xff2f1e2dda76d2bb46f78829d0a77d6c82635526d92ed3b270bbc0647158baa7",
      "transactionType": "CALL",
      "contractName": "MaseerProxy",
      "contractAddress": "0x5d1cde969ad2eeb2d64f9b7212077d2382479c0c",
      "function": null,
      "arguments": null,
      "transaction": {
        "from": "0xdef12db2bd62f88c8d59807e0ce9868279fd7fef",
        "to": "0x5d1cde969ad2eeb2d64f9b7212077d2382479c0c",
        "gas": "0x11c70",
        "value": "0x0",
        "input": "0xe9b674b9646563696d616c730000000000000000000000000000000000000000000000000000000000000000000000000000000000000000000000000000000000000006",
        "nonce": "0x17b",
        "chainId": "0xaa36a7"
      },
      "additionalContracts": [],
      "isFixedGasLimit": false
    },
    {
      "hash": "0x2904e4c730bd03a16250193a1db07b1061ee1e062dd2bc3f79f9cf27d7bfc856",
      "transactionType": "CALL",
      "contractName": "MaseerProxy",
      "contractAddress": "0x5d1cde969ad2eeb2d64f9b7212077d2382479c0c",
      "function": null,
      "arguments": null,
      "transaction": {
        "from": "0xdef12db2bd62f88c8d59807e0ce9868279fd7fef",
        "to": "0x5d1cde969ad2eeb2d64f9b7212077d2382479c0c",
        "gas": "0x12455",
        "value": "0x0",
        "input": "0xe9b674b9707269636500000000000000000000000000000000000000000000000000000000000000000000000000000000000000000000000000000000000000000f4240",
        "nonce": "0x17c",
        "chainId": "0xaa36a7"
      },
      "additionalContracts": [],
      "isFixedGasLimit": false
    },
    {
      "hash": "0x57405a84a7e9d04e4d877a67e992f6e63eb4632177260bca54df69b5236c9f4a",
      "transactionType": "CALL",
      "contractName": "MaseerProxy",
      "contractAddress": "0x5d1cde969ad2eeb2d64f9b7212077d2382479c0c",
      "function": null,
      "arguments": null,
      "transaction": {
        "from": "0xdef12db2bd62f88c8d59807e0ce9868279fd7fef",
        "to": "0x5d1cde969ad2eeb2d64f9b7212077d2382479c0c",
        "gas": "0x1147d",
        "value": "0x0",
        "input": "0xf29c29c400000000000000000000000099698a1538089f03e798fa265254d9d90f13824d",
        "nonce": "0x17d",
        "chainId": "0xaa36a7"
      },
      "additionalContracts": [],
      "isFixedGasLimit": false
    },
    {
      "hash": "0x54b7a498e2cc49a99238c5e3d204e46068e4b11ef378d48b06a342f7fa0095b3",
      "transactionType": "CALL",
      "contractName": "MaseerProxy",
      "contractAddress": "0x5d1cde969ad2eeb2d64f9b7212077d2382479c0c",
      "function": null,
      "arguments": null,
      "transaction": {
        "from": "0xdef12db2bd62f88c8d59807e0ce9868279fd7fef",
        "to": "0x5d1cde969ad2eeb2d64f9b7212077d2382479c0c",
        "gas": "0x1150e",
        "value": "0x0",
        "input": "0x65fae35e0000000000000000000000006cfd1dc9df04a7f9162ef6c9b381d42135e8b896",
        "nonce": "0x17e",
        "chainId": "0xaa36a7"
      },
      "additionalContracts": [],
      "isFixedGasLimit": false
    },
    {
      "hash": "0x088052f0d5b563ba10920adf360c0f0e16dd51e0d69063297b4d07e07d908d6a",
      "transactionType": "CALL",
      "contractName": "MaseerProxy",
      "contractAddress": "0x5d1cde969ad2eeb2d64f9b7212077d2382479c0c",
      "function": "relyProxy(address)",
      "arguments": [
        "0x6CFd1DC9DF04a7F9162eF6c9b381D42135E8B896"
      ],
      "transaction": {
        "from": "0xdef12db2bd62f88c8d59807e0ce9868279fd7fef",
        "to": "0x5d1cde969ad2eeb2d64f9b7212077d2382479c0c",
        "gas": "0x108da",
        "value": "0x0",
        "input": "0x266a164a0000000000000000000000006cfd1dc9df04a7f9162ef6c9b381d42135e8b896",
        "nonce": "0x17f",
        "chainId": "0xaa36a7"
      },
      "additionalContracts": [],
      "isFixedGasLimit": false
    },
    {
      "hash": "0xf216dcd82404c7f476e27129a5ac5678a60189394a2bc623376c7066b59b6a23",
      "transactionType": "CALL",
      "contractName": "MaseerProxy",
      "contractAddress": "0x6be29907638656308b091e49054ec174058915a4",
      "function": null,
      "arguments": null,
      "transaction": {
        "from": "0xdef12db2bd62f88c8d59807e0ce9868279fd7fef",
        "to": "0x6be29907638656308b091e49054ec174058915a4",
        "gas": "0x112f4",
        "value": "0x0",
        "input": "0x4fc3f41a0000000000000000000000000000000000000000000000000000000000069780",
        "nonce": "0x180",
        "chainId": "0xaa36a7"
      },
      "additionalContracts": [],
      "isFixedGasLimit": false
    },
    {
      "hash": "0xe25e50940678b157df8d3d8f039d6adbb603a6c1810ace404e69c52b8091cb7c",
      "transactionType": "CALL",
      "contractName": "MaseerProxy",
      "contractAddress": "0x6be29907638656308b091e49054ec174058915a4",
      "function": null,
      "arguments": null,
      "transaction": {
        "from": "0xdef12db2bd62f88c8d59807e0ce9868279fd7fef",
        "to": "0x6be29907638656308b091e49054ec174058915a4",
        "gas": "0x12381",
        "value": "0x0",
        "input": "0x91915ef800000000000000000000000000000000000000000000d3c21bcecceda1000000",
        "nonce": "0x181",
        "chainId": "0xaa36a7"
      },
      "additionalContracts": [],
      "isFixedGasLimit": false
    },
    {
      "hash": "0x79e44951e23551cff2d7bdc46e5cac2b2feb0d27de0d4c1e6136b9ed18fba7d8",
      "transactionType": "CALL",
      "contractName": "MaseerProxy",
      "contractAddress": "0x6be29907638656308b091e49054ec174058915a4",
      "function": null,
      "arguments": null,
      "transaction": {
        "from": "0xdef12db2bd62f88c8d59807e0ce9868279fd7fef",
        "to": "0x6be29907638656308b091e49054ec174058915a4",
        "gas": "0x112f0",
        "value": "0x0",
        "input": "0x59361d8e00000000000000000000000000000000000000000000000000000000000000c8",
        "nonce": "0x182",
        "chainId": "0xaa36a7"
      },
      "additionalContracts": [],
      "isFixedGasLimit": false
    },
    {
      "hash": "0xe1d9d5a881fd70e2790558a2a889da757e804e5ed362c63668800a507a6cf52b",
      "transactionType": "CALL",
      "contractName": "MaseerProxy",
      "contractAddress": "0x6be29907638656308b091e49054ec174058915a4",
      "function": null,
      "arguments": null,
      "transaction": {
        "from": "0xdef12db2bd62f88c8d59807e0ce9868279fd7fef",
        "to": "0x6be29907638656308b091e49054ec174058915a4",
        "gas": "0x1235c",
        "value": "0x0",
        "input": "0x71ebdf4e00000000000000000000000000000000000000000000000000000000000000c8",
        "nonce": "0x183",
        "chainId": "0xaa36a7"
      },
      "additionalContracts": [],
      "isFixedGasLimit": false
    },
    {
      "hash": "0xe0d7609d455b778c683ec00a2cc2e7c2d355a1c832808cbf6d47b62834d11c65",
      "transactionType": "CALL",
      "contractName": "MaseerProxy",
      "contractAddress": "0x6be29907638656308b091e49054ec174058915a4",
      "function": null,
      "arguments": null,
      "transaction": {
        "from": "0xdef12db2bd62f88c8d59807e0ce9868279fd7fef",
        "to": "0x6be29907638656308b091e49054ec174058915a4",
        "gas": "0x1152c",
        "value": "0x0",
        "input": "0x65fae35e0000000000000000000000006cfd1dc9df04a7f9162ef6c9b381d42135e8b896",
        "nonce": "0x184",
        "chainId": "0xaa36a7"
      },
      "additionalContracts": [],
      "isFixedGasLimit": false
    },
    {
      "hash": "0x7c1c5fafc4f4c340b7405a31ea55173a8dd005f8bbffbb40c406401fd93cbe8b",
      "transactionType": "CALL",
      "contractName": "MaseerProxy",
      "contractAddress": "0x6be29907638656308b091e49054ec174058915a4",
      "function": "relyProxy(address)",
      "arguments": [
        "0x6CFd1DC9DF04a7F9162eF6c9b381D42135E8B896"
      ],
      "transaction": {
        "from": "0xdef12db2bd62f88c8d59807e0ce9868279fd7fef",
        "to": "0x6be29907638656308b091e49054ec174058915a4",
        "gas": "0x108da",
        "value": "0x0",
        "input": "0x266a164a0000000000000000000000006cfd1dc9df04a7f9162ef6c9b381d42135e8b896",
        "nonce": "0x185",
        "chainId": "0xaa36a7"
      },
      "additionalContracts": [],
      "isFixedGasLimit": false
    },
    {
      "hash": "0xbc259cef10409efc049b2c79bb603a8249392400d966571826bb70db14ad0f05",
      "transactionType": "CALL",
      "contractName": "MaseerProxy",
      "contractAddress": "0x0731899ee6cd13b24ca56d839228484e8f15a47e",
      "function": null,
      "arguments": null,
      "transaction": {
        "from": "0xdef12db2bd62f88c8d59807e0ce9868279fd7fef",
        "to": "0x0731899ee6cd13b24ca56d839228484e8f15a47e",
        "gas": "0x114e1",
        "value": "0x0",
        "input": "0x65fae35e0000000000000000000000006cfd1dc9df04a7f9162ef6c9b381d42135e8b896",
        "nonce": "0x186",
        "chainId": "0xaa36a7"
      },
      "additionalContracts": [],
      "isFixedGasLimit": false
    },
    {
      "hash": "0x0945041b7b20b2ceae59b751619b22fc3c3a8c78ef67951e743454cc7024e512",
      "transactionType": "CALL",
      "contractName": "MaseerProxy",
      "contractAddress": "0x0731899ee6cd13b24ca56d839228484e8f15a47e",
      "function": null,
      "arguments": null,
      "transaction": {
        "from": "0xdef12db2bd62f88c8d59807e0ce9868279fd7fef",
        "to": "0x0731899ee6cd13b24ca56d839228484e8f15a47e",
        "gas": "0x1254a",
        "value": "0x0",
        "input": "0xbc0505f00000000000000000000000006cfd1dc9df04a7f9162ef6c9b381d42135e8b896",
        "nonce": "0x187",
        "chainId": "0xaa36a7"
      },
      "additionalContracts": [],
      "isFixedGasLimit": false
    },
    {
      "hash": "0xe12e9480969f46edd67f75d8d86e9fd0f5d1e12404668d258e320ef0c0b5c404",
      "transactionType": "CALL",
      "contractName": "MaseerProxy",
      "contractAddress": "0x0731899ee6cd13b24ca56d839228484e8f15a47e",
      "function": "relyProxy(address)",
      "arguments": [
        "0x6CFd1DC9DF04a7F9162eF6c9b381D42135E8B896"
      ],
      "transaction": {
        "from": "0xdef12db2bd62f88c8d59807e0ce9868279fd7fef",
        "to": "0x0731899ee6cd13b24ca56d839228484e8f15a47e",
        "gas": "0x108da",
        "value": "0x0",
        "input": "0x266a164a0000000000000000000000006cfd1dc9df04a7f9162ef6c9b381d42135e8b896",
        "nonce": "0x188",
        "chainId": "0xaa36a7"
      },
      "additionalContracts": [],
      "isFixedGasLimit": false
    },
    {
      "hash": "0x8062fd8ec7fd2cc8124d636282b51e189a602823306e64f4180c4ac9c8c6c502",
      "transactionType": "CALL",
      "contractName": "MaseerProxy",
      "contractAddress": "0x6a730ff57bb6192f39b37a11c905f1e209b18f6c",
      "function": null,
      "arguments": null,
      "transaction": {
        "from": "0xdef12db2bd62f88c8d59807e0ce9868279fd7fef",
        "to": "0x6a730ff57bb6192f39b37a11c905f1e209b18f6c",
        "gas": "0x114c2",
        "value": "0x0",
        "input": "0x65fae35e0000000000000000000000006cfd1dc9df04a7f9162ef6c9b381d42135e8b896",
        "nonce": "0x189",
        "chainId": "0xaa36a7"
      },
      "additionalContracts": [],
      "isFixedGasLimit": false
    },
    {
      "hash": "0xf5850af9f47245bddc9904486a5b1f23f5f75348bd97a94ba49e331bfa8f2640",
      "transactionType": "CALL",
      "contractName": "MaseerProxy",
      "contractAddress": "0x6a730ff57bb6192f39b37a11c905f1e209b18f6c",
      "function": "relyProxy(address)",
      "arguments": [
        "0x6CFd1DC9DF04a7F9162eF6c9b381D42135E8B896"
      ],
      "transaction": {
        "from": "0xdef12db2bd62f88c8d59807e0ce9868279fd7fef",
        "to": "0x6a730ff57bb6192f39b37a11c905f1e209b18f6c",
        "gas": "0x108da",
        "value": "0x0",
        "input": "0x266a164a0000000000000000000000006cfd1dc9df04a7f9162ef6c9b381d42135e8b896",
        "nonce": "0x18a",
        "chainId": "0xaa36a7"
      },
      "additionalContracts": [],
      "isFixedGasLimit": false
    },
    {
      "hash": "0x5b5915c7925b110ba5ef96479255f3b4c4c2890b9511babf1b83683a539b26e8",
      "transactionType": "CALL",
      "contractName": "MaseerProxy",
      "contractAddress": "0x85a3a41072ca4bb7044eb104f9397d8718fe1b38",
      "function": null,
      "arguments": null,
      "transaction": {
        "from": "0xdef12db2bd62f88c8d59807e0ce9868279fd7fef",
        "to": "0x85a3a41072ca4bb7044eb104f9397d8718fe1b38",
        "gas": "0x11453",
        "value": "0x0",
        "input": "0xa3b22fc40000000000000000000000006cfd1dc9df04a7f9162ef6c9b381d42135e8b896",
        "nonce": "0x18b",
        "chainId": "0xaa36a7"
      },
      "additionalContracts": [],
      "isFixedGasLimit": false
    },
    {
      "hash": "0xb92aaaccdba28b2740e2869a66faa64f8b2d7cd372c963901545327a5d0c4490",
      "transactionType": "CALL",
      "contractName": "MaseerProxy",
      "contractAddress": "0x85a3a41072ca4bb7044eb104f9397d8718fe1b38",
      "function": null,
      "arguments": null,
      "transaction": {
        "from": "0xdef12db2bd62f88c8d59807e0ce9868279fd7fef",
        "to": "0x85a3a41072ca4bb7044eb104f9397d8718fe1b38",
        "gas": "0x11453",
        "value": "0x0",
        "input": "0xa3b22fc4000000000000000000000000e1114c2316f34aace2f827671cd35b044cf4e74c",
        "nonce": "0x18c",
        "chainId": "0xaa36a7"
      },
      "additionalContracts": [],
      "isFixedGasLimit": false
    },
    {
      "hash": "0xbc75353f723bd7206458c5dbe32e829b98840bab900ad697d3549261367dcbf5",
      "transactionType": "CALL",
      "contractName": "MaseerProxy",
      "contractAddress": "0x85a3a41072ca4bb7044eb104f9397d8718fe1b38",
      "function": null,
      "arguments": null,
      "transaction": {
        "from": "0xdef12db2bd62f88c8d59807e0ce9868279fd7fef",
        "to": "0x85a3a41072ca4bb7044eb104f9397d8718fe1b38",
        "gas": "0x1148b",
        "value": "0x0",
        "input": "0xf29c29c40000000000000000000000006cfd1dc9df04a7f9162ef6c9b381d42135e8b896",
        "nonce": "0x18d",
        "chainId": "0xaa36a7"
      },
      "additionalContracts": [],
      "isFixedGasLimit": false
    },
    {
      "hash": "0x1493f26500bcd2491fb750f1850b0bfb8f96ffcd7fb5749cb0235e5735f1a2eb",
      "transactionType": "CALL",
      "contractName": "MaseerProxy",
      "contractAddress": "0x85a3a41072ca4bb7044eb104f9397d8718fe1b38",
      "function": null,
      "arguments": null,
      "transaction": {
        "from": "0xdef12db2bd62f88c8d59807e0ce9868279fd7fef",
        "to": "0x85a3a41072ca4bb7044eb104f9397d8718fe1b38",
        "gas": "0x1148b",
        "value": "0x0",
        "input": "0xf29c29c4000000000000000000000000e1114c2316f34aace2f827671cd35b044cf4e74c",
        "nonce": "0x18e",
        "chainId": "0xaa36a7"
      },
      "additionalContracts": [],
      "isFixedGasLimit": false
    },
    {
      "hash": "0xc932424ebc00d60cda8cb7cd39de2a1e228814f32983151ed268890a6145d65a",
      "transactionType": "CALL",
      "contractName": "MaseerProxy",
      "contractAddress": "0x85a3a41072ca4bb7044eb104f9397d8718fe1b38",
      "function": null,
      "arguments": null,
      "transaction": {
        "from": "0xdef12db2bd62f88c8d59807e0ce9868279fd7fef",
        "to": "0x85a3a41072ca4bb7044eb104f9397d8718fe1b38",
        "gas": "0x1148b",
        "value": "0x0",
        "input": "0xf29c29c4000000000000000000000000810157ac84018be29b5b382c15a4bb4a55672ec6",
        "nonce": "0x18f",
        "chainId": "0xaa36a7"
      },
      "additionalContracts": [],
      "isFixedGasLimit": false
    },
    {
      "hash": "0xd230b7a9b14e2fc56350bfb178266483a54a8dbd9d0369a6927a226f74306b6f",
      "transactionType": "CALL",
      "contractName": "MaseerProxy",
      "contractAddress": "0x85a3a41072ca4bb7044eb104f9397d8718fe1b38",
      "function": null,
      "arguments": null,
      "transaction": {
        "from": "0xdef12db2bd62f88c8d59807e0ce9868279fd7fef",
        "to": "0x85a3a41072ca4bb7044eb104f9397d8718fe1b38",
        "gas": "0x1258e",
        "value": "0x0",
        "input": "0x65fae35e0000000000000000000000006cfd1dc9df04a7f9162ef6c9b381d42135e8b896",
        "nonce": "0x190",
        "chainId": "0xaa36a7"
      },
      "additionalContracts": [],
      "isFixedGasLimit": false
    },
    {
      "hash": "0xdaf1b5e0cb4ba54c9db2e7ebc9010efb692e11f0e2d5a4e07454484927439ccb",
      "transactionType": "CALL",
      "contractName": "MaseerProxy",
      "contractAddress": "0x85a3a41072ca4bb7044eb104f9397d8718fe1b38",
      "function": "relyProxy(address)",
      "arguments": [
        "0x6CFd1DC9DF04a7F9162eF6c9b381D42135E8B896"
      ],
      "transaction": {
        "from": "0xdef12db2bd62f88c8d59807e0ce9868279fd7fef",
        "to": "0x85a3a41072ca4bb7044eb104f9397d8718fe1b38",
        "gas": "0x108da",
        "value": "0x0",
        "input": "0x266a164a0000000000000000000000006cfd1dc9df04a7f9162ef6c9b381d42135e8b896",
        "nonce": "0x191",
        "chainId": "0xaa36a7"
      },
      "additionalContracts": [],
      "isFixedGasLimit": false
    },
    {
      "hash": "0xbb89a395fe8d7e1766d83d7a4518b8404c66d7e12fd5a24aa9d85a28785481f1",
      "transactionType": "CALL",
      "contractName": "MaseerProxy",
      "contractAddress": "0x6be29907638656308b091e49054ec174058915a4",
      "function": null,
      "arguments": null,
      "transaction": {
        "from": "0xdef12db2bd62f88c8d59807e0ce9868279fd7fef",
        "to": "0x6be29907638656308b091e49054ec174058915a4",
        "gas": "0xa81d",
        "value": "0x0",
        "input": "0xfbd252460000000000000000000000000000000000000000000000000000000000000000",
        "nonce": "0x192",
        "chainId": "0xaa36a7"
      },
      "additionalContracts": [],
      "isFixedGasLimit": false
    },
    {
      "hash": "0x9ee8e1799e25042e13b4d05e962faffe5567d3bf32c5c5e99e3f394292a7cace",
      "transactionType": "CALL",
      "contractName": "MaseerProxy",
      "contractAddress": "0x6be29907638656308b091e49054ec174058915a4",
      "function": null,
      "arguments": null,
      "transaction": {
        "from": "0xdef12db2bd62f88c8d59807e0ce9868279fd7fef",
        "to": "0x6be29907638656308b091e49054ec174058915a4",
        "gas": "0x126ee",
        "value": "0x0",
        "input": "0x29ae811468616c746d696e74000000000000000000000000000000000000000000000000ffffffffffffffffffffffffffffffffffffffffffffffffffffffffffffffff",
        "nonce": "0x193",
        "chainId": "0xaa36a7"
      },
      "additionalContracts": [],
      "isFixedGasLimit": false
    },
    {
      "hash": "0x0a457c101590b53674c8f9e19b2ee5a284657bc01b515eea8d0f1e9bdf94abe4",
      "transactionType": "CALL",
      "contractName": "MaseerProxy",
      "contractAddress": "0x6be29907638656308b091e49054ec174058915a4",
      "function": null,
      "arguments": null,
      "transaction": {
        "from": "0xdef12db2bd62f88c8d59807e0ce9868279fd7fef",
        "to": "0x6be29907638656308b091e49054ec174058915a4",
        "gas": "0xa78a",
        "value": "0x0",
        "input": "0x1447cdf90000000000000000000000000000000000000000000000000000000000000000",
        "nonce": "0x194",
        "chainId": "0xaa36a7"
      },
      "additionalContracts": [],
      "isFixedGasLimit": false
    },
    {
      "hash": "0x6ab0a155c9fe3512da5d93f95836af41413a704cd786d38db66dfe5adb00e9ab",
      "transactionType": "CALL",
      "contractName": "MaseerProxy",
      "contractAddress": "0x6be29907638656308b091e49054ec174058915a4",
      "function": null,
      "arguments": null,
      "transaction": {
        "from": "0xdef12db2bd62f88c8d59807e0ce9868279fd7fef",
        "to": "0x6be29907638656308b091e49054ec174058915a4",
        "gas": "0x116cb",
        "value": "0x0",
        "input": "0x29ae811468616c746275726e000000000000000000000000000000000000000000000000ffffffffffffffffffffffffffffffffffffffffffffffffffffffffffffffff",
        "nonce": "0x195",
        "chainId": "0xaa36a7"
      },
      "additionalContracts": [],
      "isFixedGasLimit": false
    },
    {
      "hash": "0x3ded6f11d422ba57a10e36f398783ae40a3e3f3492e75c38f2b203488e11504b",
      "transactionType": "CALL",
      "contractName": "MaseerProxy",
      "contractAddress": "0x6be29907638656308b091e49054ec174058915a4",
      "function": null,
      "arguments": null,
      "transaction": {
        "from": "0xdef12db2bd62f88c8d59807e0ce9868279fd7fef",
        "to": "0x6be29907638656308b091e49054ec174058915a4",
        "gas": "0xb72c",
        "value": "0x0",
        "input": "0x91915ef80000000000000000000000000000000000000000033b2e3c9fd0803ce8000000",
        "nonce": "0x196",
        "chainId": "0xaa36a7"
      },
      "additionalContracts": [],
      "isFixedGasLimit": false
    },
    {
      "hash": "0x1c8fb25f9819373418ee46c3af7abc283a9c514f082d39938cb868de1f9608d3",
      "transactionType": "CALL",
      "contractName": "MaseerProxy",
      "contractAddress": "0x6be29907638656308b091e49054ec174058915a4",
      "function": null,
      "arguments": null,
      "transaction": {
        "from": "0xdef12db2bd62f88c8d59807e0ce9868279fd7fef",
        "to": "0x6be29907638656308b091e49054ec174058915a4",
        "gas": "0xb69f",
        "value": "0x0",
        "input": "0x4fc3f41a0000000000000000000000000000000000000000000000000000000000000258",
        "nonce": "0x197",
        "chainId": "0xaa36a7"
      },
      "additionalContracts": [],
      "isFixedGasLimit": false
    },
    {
      "hash": "0xbfd4b18fb160a7747e3f17aacccca6344707159071eda60b68986e7b88fa05f5",
      "transactionType": "CALL",
      "contractName": "MaseerProxy",
      "contractAddress": "0x5d1cde969ad2eeb2d64f9b7212077d2382479c0c",
      "function": null,
      "arguments": null,
      "transaction": {
        "from": "0xdef12db2bd62f88c8d59807e0ce9868279fd7fef",
        "to": "0x5d1cde969ad2eeb2d64f9b7212077d2382479c0c",
        "gas": "0xb388",
        "value": "0x0",
        "input": "0x9c52a7f10000000000000000000000001804c8ab1f12e6bbf3894d4083f33e07309d1f38",
        "nonce": "0x198",
        "chainId": "0xaa36a7"
      },
      "additionalContracts": [],
      "isFixedGasLimit": false
    },
    {
      "hash": "0x2ff643cc2a3780c885b00aecc143e3dfb71556904ac8982d852d24361d9c6cad",
      "transactionType": "CALL",
      "contractName": "MaseerProxy",
      "contractAddress": "0x5d1cde969ad2eeb2d64f9b7212077d2382479c0c",
      "function": "denyProxy(address)",
      "arguments": [
        "0x1804c8AB1F12E6bbf3894d4083f33e07309d1f38"
      ],
      "transaction": {
        "from": "0xdef12db2bd62f88c8d59807e0ce9868279fd7fef",
        "to": "0x5d1cde969ad2eeb2d64f9b7212077d2382479c0c",
        "gas": "0x974a",
        "value": "0x0",
        "input": "0x0715940e0000000000000000000000001804c8ab1f12e6bbf3894d4083f33e07309d1f38",
        "nonce": "0x199",
        "chainId": "0xaa36a7"
      },
      "additionalContracts": [],
      "isFixedGasLimit": false
    },
    {
      "hash": "0x06794b7b143737cfd28f1775d52fbe82c9d8306bd98c0ff28abd8528f26e42bb",
      "transactionType": "CALL",
      "contractName": "MaseerProxy",
      "contractAddress": "0x6be29907638656308b091e49054ec174058915a4",
      "function": null,
      "arguments": null,
      "transaction": {
        "from": "0xdef12db2bd62f88c8d59807e0ce9868279fd7fef",
        "to": "0x6be29907638656308b091e49054ec174058915a4",
        "gas": "0xa9eb",
        "value": "0x0",
        "input": "0x9c52a7f10000000000000000000000001804c8ab1f12e6bbf3894d4083f33e07309d1f38",
        "nonce": "0x19a",
        "chainId": "0xaa36a7"
      },
      "additionalContracts": [],
      "isFixedGasLimit": false
    },
    {
      "hash": "0x2a62e7772f451a01f75c86d1466e4f93efb323bea5e9a52270e8f8c332d2241c",
      "transactionType": "CALL",
      "contractName": "MaseerProxy",
      "contractAddress": "0x6be29907638656308b091e49054ec174058915a4",
      "function": "denyProxy(address)",
      "arguments": [
        "0x1804c8AB1F12E6bbf3894d4083f33e07309d1f38"
      ],
      "transaction": {
        "from": "0xdef12db2bd62f88c8d59807e0ce9868279fd7fef",
        "to": "0x6be29907638656308b091e49054ec174058915a4",
        "gas": "0x974a",
        "value": "0x0",
        "input": "0x0715940e0000000000000000000000001804c8ab1f12e6bbf3894d4083f33e07309d1f38",
        "nonce": "0x19b",
        "chainId": "0xaa36a7"
      },
      "additionalContracts": [],
      "isFixedGasLimit": false
    },
    {
      "hash": "0x611342f7b61dd0e146f344e2a5c320668164c37b7062bcc440931b1764527397",
      "transactionType": "CALL",
      "contractName": "MaseerProxy",
      "contractAddress": "0x0731899ee6cd13b24ca56d839228484e8f15a47e",
      "function": null,
      "arguments": null,
      "transaction": {
        "from": "0xdef12db2bd62f88c8d59807e0ce9868279fd7fef",
        "to": "0x0731899ee6cd13b24ca56d839228484e8f15a47e",
        "gas": "0xa96f",
        "value": "0x0",
        "input": "0x9c52a7f10000000000000000000000001804c8ab1f12e6bbf3894d4083f33e07309d1f38",
        "nonce": "0x19c",
        "chainId": "0xaa36a7"
      },
      "additionalContracts": [],
      "isFixedGasLimit": false
    },
    {
      "hash": "0x407615f490639dc3dcf7029a7bf51f8ddd9f307fbed5e30454892ef76ad82f5f",
      "transactionType": "CALL",
      "contractName": "MaseerProxy",
      "contractAddress": "0x0731899ee6cd13b24ca56d839228484e8f15a47e",
      "function": "denyProxy(address)",
      "arguments": [
        "0x1804c8AB1F12E6bbf3894d4083f33e07309d1f38"
      ],
      "transaction": {
        "from": "0xdef12db2bd62f88c8d59807e0ce9868279fd7fef",
        "to": "0x0731899ee6cd13b24ca56d839228484e8f15a47e",
        "gas": "0x974a",
        "value": "0x0",
        "input": "0x0715940e0000000000000000000000001804c8ab1f12e6bbf3894d4083f33e07309d1f38",
        "nonce": "0x19d",
        "chainId": "0xaa36a7"
      },
      "additionalContracts": [],
      "isFixedGasLimit": false
    },
    {
      "hash": "0x424b143d8f4c5154017609aa83e40db3c825285115e585811a5ed3a839d982d1",
      "transactionType": "CALL",
      "contractName": "MaseerProxy",
      "contractAddress": "0x6a730ff57bb6192f39b37a11c905f1e209b18f6c",
      "function": null,
      "arguments": null,
      "transaction": {
        "from": "0xdef12db2bd62f88c8d59807e0ce9868279fd7fef",
        "to": "0x6a730ff57bb6192f39b37a11c905f1e209b18f6c",
        "gas": "0xb388",
        "value": "0x0",
        "input": "0x9c52a7f10000000000000000000000001804c8ab1f12e6bbf3894d4083f33e07309d1f38",
        "nonce": "0x19e",
        "chainId": "0xaa36a7"
      },
      "additionalContracts": [],
      "isFixedGasLimit": false
    },
    {
      "hash": "0xa997aebdf298988415d53a53185927b97901d95f81e2b45507df498def37b702",
      "transactionType": "CALL",
      "contractName": "MaseerProxy",
      "contractAddress": "0x6a730ff57bb6192f39b37a11c905f1e209b18f6c",
      "function": "denyProxy(address)",
      "arguments": [
        "0x1804c8AB1F12E6bbf3894d4083f33e07309d1f38"
      ],
      "transaction": {
        "from": "0xdef12db2bd62f88c8d59807e0ce9868279fd7fef",
        "to": "0x6a730ff57bb6192f39b37a11c905f1e209b18f6c",
        "gas": "0x974a",
        "value": "0x0",
        "input": "0x0715940e0000000000000000000000001804c8ab1f12e6bbf3894d4083f33e07309d1f38",
        "nonce": "0x19f",
        "chainId": "0xaa36a7"
      },
      "additionalContracts": [],
      "isFixedGasLimit": false
    },
    {
      "hash": "0x8b5b2f15f7d288ef28e69a2c8db6dcd391b20dc9b28a312bcf2e3f74fc8b1310",
      "transactionType": "CALL",
      "contractName": "MaseerProxy",
      "contractAddress": "0x85a3a41072ca4bb7044eb104f9397d8718fe1b38",
      "function": null,
      "arguments": null,
      "transaction": {
        "from": "0xdef12db2bd62f88c8d59807e0ce9868279fd7fef",
        "to": "0x85a3a41072ca4bb7044eb104f9397d8718fe1b38",
        "gas": "0xb3fd",
        "value": "0x0",
        "input": "0x9c52a7f10000000000000000000000001804c8ab1f12e6bbf3894d4083f33e07309d1f38",
        "nonce": "0x1a0",
        "chainId": "0xaa36a7"
      },
      "additionalContracts": [],
      "isFixedGasLimit": false
    },
    {
      "hash": "0xfae31aced7a56478f4cd091e3fedb32156f5d38d70ff182704ac8d22287cbaf0",
      "transactionType": "CALL",
      "contractName": "MaseerProxy",
      "contractAddress": "0x85a3a41072ca4bb7044eb104f9397d8718fe1b38",
      "function": "denyProxy(address)",
      "arguments": [
        "0x1804c8AB1F12E6bbf3894d4083f33e07309d1f38"
      ],
      "transaction": {
        "from": "0xdef12db2bd62f88c8d59807e0ce9868279fd7fef",
        "to": "0x85a3a41072ca4bb7044eb104f9397d8718fe1b38",
        "gas": "0x974a",
        "value": "0x0",
        "input": "0x0715940e0000000000000000000000001804c8ab1f12e6bbf3894d4083f33e07309d1f38",
        "nonce": "0x1a1",
        "chainId": "0xaa36a7"
      },
      "additionalContracts": [],
      "isFixedGasLimit": false
    }
  ],
  "receipts": [
    {
      "status": "0x1",
      "cumulativeGasUsed": "0x3c7374",
      "logs": [],
      "logsBloom": "0x00000000000000000000000000000000000000000000000000000000000000000000000000000000000000000000000000000000000000000000000000000000000000000000000000000000000000000000000000000000000000000000000000000000000000000000000000000000000000000000000000000000000000000000000000000000000000000000000000000000000000000000000000000000000000000000000000000000000000000000000000000000000000000000000000000000000000000000000000000000000000000000000000000000000000000000000000000000000000000000000000000000000000000000000000000000",
      "type": "0x2",
      "transactionHash": "0x7fd290115f4fd53b4454586d060932e2e831320f6e73daed94e72376142a39b0",
      "transactionIndex": "0x28",
      "blockHash": "0x7985547ab5a6d368a82675ed6cc90e73f591c348e758c57e19ec77b0490e73bc",
      "blockNumber": "0x7b4934",
      "gasUsed": "0x863a",
      "effectiveGasPrice": "0x1b358f",
      "from": "0xdef12db2bd62f88c8d59807e0ce9868279fd7fef",
      "to": "0xcaddb146b3f1a6a558ecd01380b81c2faf9c8a10",
      "contractAddress": null
    },
    {
      "status": "0x1",
      "cumulativeGasUsed": "0x3cf9ae",
      "logs": [],
      "logsBloom": "0x00000000000000000000000000000000000000000000000000000000000000000000000000000000000000000000000000000000000000000000000000000000000000000000000000000000000000000000000000000000000000000000000000000000000000000000000000000000000000000000000000000000000000000000000000000000000000000000000000000000000000000000000000000000000000000000000000000000000000000000000000000000000000000000000000000000000000000000000000000000000000000000000000000000000000000000000000000000000000000000000000000000000000000000000000000000",
      "type": "0x2",
      "transactionHash": "0xa856f596a934e78e2ea1ac72fcd3fcd7a3d026d4358a62e8186026a4789ddddc",
      "transactionIndex": "0x29",
      "blockHash": "0x7985547ab5a6d368a82675ed6cc90e73f591c348e758c57e19ec77b0490e73bc",
      "blockNumber": "0x7b4934",
      "gasUsed": "0x863a",
      "effectiveGasPrice": "0x1b358f",
      "from": "0xdef12db2bd62f88c8d59807e0ce9868279fd7fef",
      "to": "0xcaddb146b3f1a6a558ecd01380b81c2faf9c8a10",
      "contractAddress": null
    },
    {
      "status": "0x1",
      "cumulativeGasUsed": "0x3d7fe8",
      "logs": [],
      "logsBloom": "0x00000000000000000000000000000000000000000000000000000000000000000000000000000000000000000000000000000000000000000000000000000000000000000000000000000000000000000000000000000000000000000000000000000000000000000000000000000000000000000000000000000000000000000000000000000000000000000000000000000000000000000000000000000000000000000000000000000000000000000000000000000000000000000000000000000000000000000000000000000000000000000000000000000000000000000000000000000000000000000000000000000000000000000000000000000000",
      "type": "0x2",
      "transactionHash": "0x00b42e1aa601d1124faddc449e8986b56ba1418584cfeae7ce22364fcbd4e12a",
      "transactionIndex": "0x2a",
      "blockHash": "0x7985547ab5a6d368a82675ed6cc90e73f591c348e758c57e19ec77b0490e73bc",
      "blockNumber": "0x7b4934",
      "gasUsed": "0x863a",
      "effectiveGasPrice": "0x1b358f",
      "from": "0xdef12db2bd62f88c8d59807e0ce9868279fd7fef",
      "to": "0xcaddb146b3f1a6a558ecd01380b81c2faf9c8a10",
      "contractAddress": null
    },
    {
      "status": "0x1",
      "cumulativeGasUsed": "0x48eba4",
      "logs": [],
      "logsBloom": "0x00000000000000000000000000000000000000000000000000000000000000000000000000000000000000000000000000000000000000000000000000000000000000000000000000000000000000000000000000000000000000000000000000000000000000000000000000000000000000000000000000000000000000000000000000000000000000000000000000000000000000000000000000000000000000000000000000000000000000000000000000000000000000000000000000000000000000000000000000000000000000000000000000000000000000000000000000000000000000000000000000000000000000000000000000000000",
      "type": "0x2",
      "transactionHash": "0xe038565ae669ffb081c6d89faab5ef1705ce743e659d148351005e8da8a26694",
      "transactionIndex": "0x2b",
      "blockHash": "0x7985547ab5a6d368a82675ed6cc90e73f591c348e758c57e19ec77b0490e73bc",
      "blockNumber": "0x7b4934",
      "gasUsed": "0xb6bbc",
      "effectiveGasPrice": "0x1b358f",
      "from": "0xdef12db2bd62f88c8d59807e0ce9868279fd7fef",
      "to": null,
      "contractAddress": "0xbe6d9849c0e288245ff673ca4d65e649a79f7615"
    },
    {
      "status": "0x1",
      "cumulativeGasUsed": "0x4e74f0",
      "logs": [],
      "logsBloom": "0x00000000000000000000000000000000000000000000000000000000000000000000000000000000000000000000000000000000000000000000000000000000000000000000000000000000000000000000000000000000000000000000000000000000000000000000000000000000000000000000000000000000000000000000000000000000000000000000000000000000000000000000000000000000000000000000000000000000000000000000000000000000000000000000000000000000000000000000000000000000000000000000000000000000000000000000000000000000000000000000000000000000000000000000000000000000",
      "type": "0x2",
      "transactionHash": "0xef7828ad1dff80ffe171574063637a700ef1d69564818fd8e2cbbb97c1eb8c6e",
      "transactionIndex": "0x2c",
      "blockHash": "0x7985547ab5a6d368a82675ed6cc90e73f591c348e758c57e19ec77b0490e73bc",
      "blockNumber": "0x7b4934",
      "gasUsed": "0x5894c",
      "effectiveGasPrice": "0x1b358f",
      "from": "0xdef12db2bd62f88c8d59807e0ce9868279fd7fef",
      "to": null,
      "contractAddress": "0x5d1cde969ad2eeb2d64f9b7212077d2382479c0c"
    },
    {
      "status": "0x1",
      "cumulativeGasUsed": "0x7442a9",
      "logs": [],
      "logsBloom": "0x00000000000000000000000000000000000000000000000000000000000000000000000000000000000000000000000000000000000000000000000000000000000000000000000000000000000000000000000000000000000000000000000000000000000000000000000000000000000000000000000000000000000000000000000000000000000000000000000000000000000000000000000000000000000000000000000000000000000000000000000000000000000000000000000000000000000000000000000000000000000000000000000000000000000000000000000000000000000000000000000000000000000000000000000000000000",
      "type": "0x2",
      "transactionHash": "0x161feca1ca7a89b7574a42a61be6ed209b0af2ec88d18b4e81d7f1132b961587",
      "transactionIndex": "0x46",
      "blockHash": "0x4cdbdd37bee1020bdad304d2fc3f441dd94e688d780bdb7e18a9705c129d276a",
      "blockNumber": "0x7b4935",
      "gasUsed": "0x118b2c",
      "effectiveGasPrice": "0x1af3f4",
      "from": "0xdef12db2bd62f88c8d59807e0ce9868279fd7fef",
      "to": null,
      "contractAddress": "0xf57d7dff4b22baa39d1c05786274050f8c686806"
    },
    {
      "status": "0x1",
      "cumulativeGasUsed": "0x79cbf5",
      "logs": [],
      "logsBloom": "0x00000000000000000000000000000000000000000000000000000000000000000000000000000000000000000000000000000000000000000000000000000000000000000000000000000000000000000000000000000000000000000000000000000000000000000000000000000000000000000000000000000000000000000000000000000000000000000000000000000000000000000000000000000000000000000000000000000000000000000000000000000000000000000000000000000000000000000000000000000000000000000000000000000000000000000000000000000000000000000000000000000000000000000000000000000000",
      "type": "0x2",
      "transactionHash": "0x852023e53345a0bcdfd8af554c21b969c723467092dd1fca00df7a195d8f7717",
      "transactionIndex": "0x47",
      "blockHash": "0x4cdbdd37bee1020bdad304d2fc3f441dd94e688d780bdb7e18a9705c129d276a",
      "blockNumber": "0x7b4935",
      "gasUsed": "0x5894c",
      "effectiveGasPrice": "0x1af3f4",
      "from": "0xdef12db2bd62f88c8d59807e0ce9868279fd7fef",
      "to": null,
      "contractAddress": "0x6be29907638656308b091e49054ec174058915a4"
    },
    {
      "status": "0x1",
      "cumulativeGasUsed": "0x7f98c0",
      "logs": [],
      "logsBloom": "0x00000000000000000000000000000000000000000000000000000000000000000000000000000000000000000000000000000000000000000000000000000000000000000000000000000000000000000000000000000000000000000000000000000000000000000000000000000000000000000000000000000000000000000000000000000000000000000000000000000000000000000000000000000000000000000000000000000000000000000000000000000000000000000000000000000000000000000000000000000000000000000000000000000000000000000000000000000000000000000000000000000000000000000000000000000000",
      "type": "0x2",
      "transactionHash": "0x038311e05c1fadfe92d5fe87f7292d6c410624688a85dd7c04db8f1103ec731e",
      "transactionIndex": "0x48",
      "blockHash": "0x4cdbdd37bee1020bdad304d2fc3f441dd94e688d780bdb7e18a9705c129d276a",
      "blockNumber": "0x7b4935",
      "gasUsed": "0x5cccb",
      "effectiveGasPrice": "0x1af3f4",
      "from": "0xdef12db2bd62f88c8d59807e0ce9868279fd7fef",
      "to": null,
      "contractAddress": "0x8426e3672636a0216f7a67c00a55d72fe3084f05"
    },
    {
      "status": "0x1",
      "cumulativeGasUsed": "0x85220c",
      "logs": [],
      "logsBloom": "0x00000000000000000000000000000000000000000000000000000000000000000000000000000000000000000000000000000000000000000000000000000000000000000000000000000000000000000000000000000000000000000000000000000000000000000000000000000000000000000000000000000000000000000000000000000000000000000000000000000000000000000000000000000000000000000000000000000000000000000000000000000000000000000000000000000000000000000000000000000000000000000000000000000000000000000000000000000000000000000000000000000000000000000000000000000000",
      "type": "0x2",
      "transactionHash": "0x468fd5b52afc55b73c94eb67f2bc10e81939c34f69a556ef6d915b5436e0dc6b",
      "transactionIndex": "0x49",
      "blockHash": "0x4cdbdd37bee1020bdad304d2fc3f441dd94e688d780bdb7e18a9705c129d276a",
      "blockNumber": "0x7b4935",
      "gasUsed": "0x5894c",
      "effectiveGasPrice": "0x1af3f4",
      "from": "0xdef12db2bd62f88c8d59807e0ce9868279fd7fef",
      "to": null,
      "contractAddress": "0x0731899ee6cd13b24ca56d839228484e8f15a47e"
    },
    {
      "status": "0x1",
      "cumulativeGasUsed": "0x8a04b8",
      "logs": [],
      "logsBloom": "0x00000000000000000000000000000000000000000000000000000000000000000000000000000000000000000000000000000000000000000000000000000000000000000000000000000000000000000000000000000000000000000000000000000000000000000000000000000000000000000000000000000000000000000000000000000000000000000000000000000000000000000000000000000000000000000000000000000000000000000000000000000000000000000000000000000000000000000000000000000000000000000000000000000000000000000000000000000000000000000000000000000000000000000000000000000000",
      "type": "0x2",
      "transactionHash": "0x8f7175e8964a455abf93bc9c335471770529961b84afa790ebde2ce22c6f1d5e",
      "transactionIndex": "0x4a",
      "blockHash": "0x4cdbdd37bee1020bdad304d2fc3f441dd94e688d780bdb7e18a9705c129d276a",
      "blockNumber": "0x7b4935",
      "gasUsed": "0x4e2ac",
      "effectiveGasPrice": "0x1af3f4",
      "from": "0xdef12db2bd62f88c8d59807e0ce9868279fd7fef",
      "to": null,
      "contractAddress": "0x48ec0c8acaf14f0f9633bab0acf1a93855e99444"
    },
    {
      "status": "0x1",
      "cumulativeGasUsed": "0x8f8e04",
      "logs": [],
      "logsBloom": "0x00000000000000000000000000000000000000000000000000000000000000000000000000000000000000000000000000000000000000000000000000000000000000000000000000000000000000000000000000000000000000000000000000000000000000000000000000000000000000000000000000000000000000000000000000000000000000000000000000000000000000000000000000000000000000000000000000000000000000000000000000000000000000000000000000000000000000000000000000000000000000000000000000000000000000000000000000000000000000000000000000000000000000000000000000000000",
      "type": "0x2",
      "transactionHash": "0x754b551a45a4e69f097b7f1ba0ca13f7c18ea22b3c640f6c0b5eafbd626a218e",
      "transactionIndex": "0x4b",
      "blockHash": "0x4cdbdd37bee1020bdad304d2fc3f441dd94e688d780bdb7e18a9705c129d276a",
      "blockNumber": "0x7b4935",
      "gasUsed": "0x5894c",
      "effectiveGasPrice": "0x1af3f4",
      "from": "0xdef12db2bd62f88c8d59807e0ce9868279fd7fef",
      "to": null,
      "contractAddress": "0x6a730ff57bb6192f39b37a11c905f1e209b18f6c"
    },
    {
      "status": "0x1",
      "cumulativeGasUsed": "0x9b18dd",
      "logs": [],
      "logsBloom": "0x00000000000000000000000000000000000000000000000000000000000000000000000000000000000000000000000000000000000000000000000000000000000000000000000000000000000000000000000000000000000000000000000000000000000000000000000000000000000000000000000000000000000000000000000000000000000000000000000000000000000000000000000000000000000000000000000000000000000000000000000000000000000000000000000000000000000000000000000000000000000000000000000000000000000000000000000000000000000000000000000000000000000000000000000000000000",
      "type": "0x2",
      "transactionHash": "0x58ba29af077f0c0ede5cfeeab75f2a66f1d880df9e8966dedf35d0ca2d661323",
      "transactionIndex": "0x4c",
      "blockHash": "0x4cdbdd37bee1020bdad304d2fc3f441dd94e688d780bdb7e18a9705c129d276a",
      "blockNumber": "0x7b4935",
      "gasUsed": "0xb8ad9",
      "effectiveGasPrice": "0x1af3f4",
      "from": "0xdef12db2bd62f88c8d59807e0ce9868279fd7fef",
      "to": null,
      "contractAddress": "0xba18f6fafacedd3f2a196c8c3b25e8765336dafc"
    },
    {
      "status": "0x1",
      "cumulativeGasUsed": "0xa0a229",
      "logs": [],
      "logsBloom": "0x00000000000000000000000000000000000000000000000000000000000000000000000000000000000000000000000000000000000000000000000000000000000000000000000000000000000000000000000000000000000000000000000000000000000000000000000000000000000000000000000000000000000000000000000000000000000000000000000000000000000000000000000000000000000000000000000000000000000000000000000000000000000000000000000000000000000000000000000000000000000000000000000000000000000000000000000000000000000000000000000000000000000000000000000000000000",
      "type": "0x2",
      "transactionHash": "0xfa52a5b2662d7dc2b6f06f81d219f767736e5d5f84032732b4aa015127a1427d",
      "transactionIndex": "0x4d",
      "blockHash": "0x4cdbdd37bee1020bdad304d2fc3f441dd94e688d780bdb7e18a9705c129d276a",
      "blockNumber": "0x7b4935",
      "gasUsed": "0x5894c",
      "effectiveGasPrice": "0x1af3f4",
      "from": "0xdef12db2bd62f88c8d59807e0ce9868279fd7fef",
      "to": null,
      "contractAddress": "0x85a3a41072ca4bb7044eb104f9397d8718fe1b38"
    },
    {
      "status": "0x1",
      "cumulativeGasUsed": "0xc7cfbe",
      "logs": [],
      "logsBloom": "0x00000000000000000000000000000000000000000000000000000000000000000000000000000000000000000000000000000000000000000000000000000000000000000000000000000000000000000000000000000000000000000000000000000000000000000000000000000000000000000000000000000000000000000000000000000000000000000000000000000000000000000000000000000000000000000000000000000000000000000000000000000000000000000000000000000000000000000000000000000000000000000000000000000000000000000000000000000000000000000000000000000000000000000000000000000000",
      "type": "0x2",
      "transactionHash": "0xb7e7d7c44f77a51b4a9b487f1c5716986fe6b678b8a6b22d86fb63ee6e5dd3be",
      "transactionIndex": "0x4e",
      "blockHash": "0x4cdbdd37bee1020bdad304d2fc3f441dd94e688d780bdb7e18a9705c129d276a",
      "blockNumber": "0x7b4935",
      "gasUsed": "0x272d95",
      "effectiveGasPrice": "0x1af3f4",
      "from": "0xdef12db2bd62f88c8d59807e0ce9868279fd7fef",
      "to": null,
      "contractAddress": "0x810157ac84018be29b5b382c15a4bb4a55672ec6"
    },
    {
      "status": "0x1",
      "cumulativeGasUsed": "0xd4a2af",
      "logs": [],
      "logsBloom": "0x00000000000000000000000000000000000000000000000000000000000000000000000000000000000000000000000000000000000000000000000000000000000000000000000000000000000000000000000000000000000000000000000000000000000000000000000000000000000000000000000000000000000000000000000000000000000000000000000000000000000000000000000000000000000000000000000000000000000000000000000000000000000000000000000000000000000000000000000000000000000000000000000000000000000000000000000000000000000000000000000000000000000000000000000000000000",
      "type": "0x2",
      "transactionHash": "0x9289b94a4310742f8f2c747c08642c028503bab1aaab9b3b6d10723b7d000805",
      "transactionIndex": "0x4f",
      "blockHash": "0x4cdbdd37bee1020bdad304d2fc3f441dd94e688d780bdb7e18a9705c129d276a",
      "blockNumber": "0x7b4935",
      "gasUsed": "0xcd2f1",
      "effectiveGasPrice": "0x1af3f4",
      "from": "0xdef12db2bd62f88c8d59807e0ce9868279fd7fef",
      "to": null,
      "contractAddress": "0x2b406cda4af08f1d871ffbea54480c348c1033b5"
    },
    {
      "status": "0x1",
      "cumulativeGasUsed": "0xd57086",
      "logs": [
        {
          "address": "0x5d1cde969ad2eeb2d64f9b7212077d2382479c0c",
          "topics": [
            "0x943a793c11a909d4409e7706d8c3d1467960e08f6141234950042994856812df",
            "0x6e616d6500000000000000000000000000000000000000000000000000000000"
          ],
          "data": "0x43414e4155534454000000000000000000000000000000000000000000000000",
          "blockHash": "0x4cdbdd37bee1020bdad304d2fc3f441dd94e688d780bdb7e18a9705c129d276a",
          "blockNumber": "0x7b4935",
          "transactionHash": "0xfc1dddcf9b198931f28f30fc453732d00804367af706c6af9dd62e92222e70a6",
          "transactionIndex": "0x50",
          "logIndex": "0x5a",
          "removed": false
        }
      ],
      "logsBloom": "0x00000000000000000000000000000000000000000000000000000000000000000000000000000000800000000000000000000000000000000000000000000000000000200000000000000000000000000000000000000000000000000000000000000000000000000000000000000000000000000000000000000000000000000000000200000000000000000000000000000000000000000000000000000010000000000000000000000000000000000020000000000000000000000000000000000000000000000000000000040000800400100000000000000000000000000000000000000000000000000000000000000000000000000000000000000000",
      "type": "0x2",
      "transactionHash": "0xfc1dddcf9b198931f28f30fc453732d00804367af706c6af9dd62e92222e70a6",
      "transactionIndex": "0x50",
      "blockHash": "0x4cdbdd37bee1020bdad304d2fc3f441dd94e688d780bdb7e18a9705c129d276a",
      "blockNumber": "0x7b4935",
      "gasUsed": "0xcdd7",
      "effectiveGasPrice": "0x1af3f4",
      "from": "0xdef12db2bd62f88c8d59807e0ce9868279fd7fef",
      "to": "0x5d1cde969ad2eeb2d64f9b7212077d2382479c0c",
      "contractAddress": null
    },
    {
      "status": "0x1",
      "cumulativeGasUsed": "0xd63e75",
      "logs": [
        {
          "address": "0x5d1cde969ad2eeb2d64f9b7212077d2382479c0c",
          "topics": [
            "0x943a793c11a909d4409e7706d8c3d1467960e08f6141234950042994856812df",
            "0x646563696d616c73000000000000000000000000000000000000000000000000"
          ],
          "data": "0x0000000000000000000000000000000000000000000000000000000000000006",
          "blockHash": "0x4cdbdd37bee1020bdad304d2fc3f441dd94e688d780bdb7e18a9705c129d276a",
          "blockNumber": "0x7b4935",
          "transactionHash": "0xff2f1e2dda76d2bb46f78829d0a77d6c82635526d92ed3b270bbc0647158baa7",
          "transactionIndex": "0x51",
          "logIndex": "0x5b",
          "removed": false
        }
      ],
      "logsBloom": "0x00000000000000000000000000000000000000000000000000000000000000000000000000000000000000000400000000000000000000000000000000000000000000200000000000000000000000000000000000000000000000000000000000000000000000000000000000000000000000000000000000000000000000000000000200000000000000000000000000000000000000000000000000000000000000000000000000000000000000000020000000000000000000000000000000000000000000000000000000040000801000100000000000000000000000000000000000000000000000000000000000004000000000000000000000000000",
      "type": "0x2",
      "transactionHash": "0xff2f1e2dda76d2bb46f78829d0a77d6c82635526d92ed3b270bbc0647158baa7",
      "transactionIndex": "0x51",
      "blockHash": "0x4cdbdd37bee1020bdad304d2fc3f441dd94e688d780bdb7e18a9705c129d276a",
      "blockNumber": "0x7b4935",
      "gasUsed": "0xcdef",
      "effectiveGasPrice": "0x1af3f4",
      "from": "0xdef12db2bd62f88c8d59807e0ce9868279fd7fef",
      "to": "0x5d1cde969ad2eeb2d64f9b7212077d2382479c0c",
      "contractAddress": null
    },
    {
      "status": "0x1",
      "cumulativeGasUsed": "0xd7121a",
      "logs": [
        {
          "address": "0x5d1cde969ad2eeb2d64f9b7212077d2382479c0c",
          "topics": [
            "0x9205f54491e32927259b3f6e67e823b85407d3a915972fe9973e58788507b254",
            "0x00000000000000000000000000000000000000000000000000000000000f4240",
            "0x0000000000000000000000000000000000000000000000000000000067f5903c"
          ],
          "data": "0x",
          "blockHash": "0x4cdbdd37bee1020bdad304d2fc3f441dd94e688d780bdb7e18a9705c129d276a",
          "blockNumber": "0x7b4935",
          "transactionHash": "0x2904e4c730bd03a16250193a1db07b1061ee1e062dd2bc3f79f9cf27d7bfc856",
          "transactionIndex": "0x52",
          "logIndex": "0x5c",
          "removed": false
        },
        {
          "address": "0x5d1cde969ad2eeb2d64f9b7212077d2382479c0c",
          "topics": [
            "0x943a793c11a909d4409e7706d8c3d1467960e08f6141234950042994856812df",
            "0x7072696365000000000000000000000000000000000000000000000000000000"
          ],
          "data": "0x00000000000000000000000000000000000000000000000000000000000f4240",
          "blockHash": "0x4cdbdd37bee1020bdad304d2fc3f441dd94e688d780bdb7e18a9705c129d276a",
          "blockNumber": "0x7b4935",
          "transactionHash": "0x2904e4c730bd03a16250193a1db07b1061ee1e062dd2bc3f79f9cf27d7bfc856",
          "transactionIndex": "0x52",
          "logIndex": "0x5d",
          "removed": false
        }
      ],
      "logsBloom": "0x00000000000000000000000000000000000000000000000200000000000000000000000000000000000000200000001000001000000000000000000000000000000000200000000000020000000000000000000000000000000000000040000000000000000000000000000000000000000000000000000000000000000000000000000200000000000000000010000000000000000000000000000000000000000000000000000000000000000000000020000000000000000000000000000000000000000000000000800000040000800000100000010000000040000000000000000000000000000000000000000001000000800000000000000000000000",
      "type": "0x2",
      "transactionHash": "0x2904e4c730bd03a16250193a1db07b1061ee1e062dd2bc3f79f9cf27d7bfc856",
      "transactionIndex": "0x52",
      "blockHash": "0x4cdbdd37bee1020bdad304d2fc3f441dd94e688d780bdb7e18a9705c129d276a",
      "blockNumber": "0x7b4935",
      "gasUsed": "0xd3a5",
      "effectiveGasPrice": "0x1af3f4",
      "from": "0xdef12db2bd62f88c8d59807e0ce9868279fd7fef",
      "to": "0x5d1cde969ad2eeb2d64f9b7212077d2382479c0c",
      "contractAddress": null
    },
    {
      "status": "0x1",
      "cumulativeGasUsed": "0xd7da47",
      "logs": [],
      "logsBloom": "0x00000000000000000000000000000000000000000000000000000000000000000000000000000000000000000000000000000000000000000000000000000000000000000000000000000000000000000000000000000000000000000000000000000000000000000000000000000000000000000000000000000000000000000000000000000000000000000000000000000000000000000000000000000000000000000000000000000000000000000000000000000000000000000000000000000000000000000000000000000000000000000000000000000000000000000000000000000000000000000000000000000000000000000000000000000000",
      "type": "0x2",
      "transactionHash": "0x57405a84a7e9d04e4d877a67e992f6e63eb4632177260bca54df69b5236c9f4a",
      "transactionIndex": "0x53",
      "blockHash": "0x4cdbdd37bee1020bdad304d2fc3f441dd94e688d780bdb7e18a9705c129d276a",
      "blockNumber": "0x7b4935",
      "gasUsed": "0xc82d",
      "effectiveGasPrice": "0x1af3f4",
      "from": "0xdef12db2bd62f88c8d59807e0ce9868279fd7fef",
      "to": "0x5d1cde969ad2eeb2d64f9b7212077d2382479c0c",
      "contractAddress": null
    },
    {
      "status": "0x1",
      "cumulativeGasUsed": "0xd8a2dd",
      "logs": [],
      "logsBloom": "0x00000000000000000000000000000000000000000000000000000000000000000000000000000000000000000000000000000000000000000000000000000000000000000000000000000000000000000000000000000000000000000000000000000000000000000000000000000000000000000000000000000000000000000000000000000000000000000000000000000000000000000000000000000000000000000000000000000000000000000000000000000000000000000000000000000000000000000000000000000000000000000000000000000000000000000000000000000000000000000000000000000000000000000000000000000000",
      "type": "0x2",
      "transactionHash": "0x54b7a498e2cc49a99238c5e3d204e46068e4b11ef378d48b06a342f7fa0095b3",
      "transactionIndex": "0x54",
      "blockHash": "0x4cdbdd37bee1020bdad304d2fc3f441dd94e688d780bdb7e18a9705c129d276a",
      "blockNumber": "0x7b4935",
      "gasUsed": "0xc896",
      "effectiveGasPrice": "0x1af3f4",
      "from": "0xdef12db2bd62f88c8d59807e0ce9868279fd7fef",
      "to": "0x5d1cde969ad2eeb2d64f9b7212077d2382479c0c",
      "contractAddress": null
    },
    {
      "status": "0x1",
      "cumulativeGasUsed": "0xd957f6",
      "logs": [],
      "logsBloom": "0x00000000000000000000000000000000000000000000000000000000000000000000000000000000000000000000000000000000000000000000000000000000000000000000000000000000000000000000000000000000000000000000000000000000000000000000000000000000000000000000000000000000000000000000000000000000000000000000000000000000000000000000000000000000000000000000000000000000000000000000000000000000000000000000000000000000000000000000000000000000000000000000000000000000000000000000000000000000000000000000000000000000000000000000000000000000",
      "type": "0x2",
      "transactionHash": "0x088052f0d5b563ba10920adf360c0f0e16dd51e0d69063297b4d07e07d908d6a",
      "transactionIndex": "0x55",
      "blockHash": "0x4cdbdd37bee1020bdad304d2fc3f441dd94e688d780bdb7e18a9705c129d276a",
      "blockNumber": "0x7b4935",
      "gasUsed": "0xb519",
      "effectiveGasPrice": "0x1af3f4",
      "from": "0xdef12db2bd62f88c8d59807e0ce9868279fd7fef",
      "to": "0x5d1cde969ad2eeb2d64f9b7212077d2382479c0c",
      "contractAddress": null
    },
    {
      "status": "0x1",
      "cumulativeGasUsed": "0xda1f06",
      "logs": [],
      "logsBloom": "0x00000000000000000000000000000000000000000000000000000000000000000000000000000000000000000000000000000000000000000000000000000000000000000000000000000000000000000000000000000000000000000000000000000000000000000000000000000000000000000000000000000000000000000000000000000000000000000000000000000000000000000000000000000000000000000000000000000000000000000000000000000000000000000000000000000000000000000000000000000000000000000000000000000000000000000000000000000000000000000000000000000000000000000000000000000000",
      "type": "0x2",
      "transactionHash": "0xf216dcd82404c7f476e27129a5ac5678a60189394a2bc623376c7066b59b6a23",
      "transactionIndex": "0x56",
      "blockHash": "0x4cdbdd37bee1020bdad304d2fc3f441dd94e688d780bdb7e18a9705c129d276a",
      "blockNumber": "0x7b4935",
      "gasUsed": "0xc710",
      "effectiveGasPrice": "0x1af3f4",
      "from": "0xdef12db2bd62f88c8d59807e0ce9868279fd7fef",
      "to": "0x6be29907638656308b091e49054ec174058915a4",
      "contractAddress": null
    },
    {
      "status": "0x1",
      "cumulativeGasUsed": "0xdae658",
      "logs": [],
      "logsBloom": "0x00000000000000000000000000000000000000000000000000000000000000000000000000000000000000000000000000000000000000000000000000000000000000000000000000000000000000000000000000000000000000000000000000000000000000000000000000000000000000000000000000000000000000000000000000000000000000000000000000000000000000000000000000000000000000000000000000000000000000000000000000000000000000000000000000000000000000000000000000000000000000000000000000000000000000000000000000000000000000000000000000000000000000000000000000000000",
      "type": "0x2",
      "transactionHash": "0xe25e50940678b157df8d3d8f039d6adbb603a6c1810ace404e69c52b8091cb7c",
      "transactionIndex": "0x57",
      "blockHash": "0x4cdbdd37bee1020bdad304d2fc3f441dd94e688d780bdb7e18a9705c129d276a",
      "blockNumber": "0x7b4935",
      "gasUsed": "0xc752",
      "effectiveGasPrice": "0x1af3f4",
      "from": "0xdef12db2bd62f88c8d59807e0ce9868279fd7fef",
      "to": "0x6be29907638656308b091e49054ec174058915a4",
      "contractAddress": null
    },
    {
      "status": "0x1",
      "cumulativeGasUsed": "0xdbad66",
      "logs": [],
      "logsBloom": "0x00000000000000000000000000000000000000000000000000000000000000000000000000000000000000000000000000000000000000000000000000000000000000000000000000000000000000000000000000000000000000000000000000000000000000000000000000000000000000000000000000000000000000000000000000000000000000000000000000000000000000000000000000000000000000000000000000000000000000000000000000000000000000000000000000000000000000000000000000000000000000000000000000000000000000000000000000000000000000000000000000000000000000000000000000000000",
      "type": "0x2",
      "transactionHash": "0x79e44951e23551cff2d7bdc46e5cac2b2feb0d27de0d4c1e6136b9ed18fba7d8",
      "transactionIndex": "0x58",
      "blockHash": "0x4cdbdd37bee1020bdad304d2fc3f441dd94e688d780bdb7e18a9705c129d276a",
      "blockNumber": "0x7b4935",
      "gasUsed": "0xc70e",
      "effectiveGasPrice": "0x1af3f4",
      "from": "0xdef12db2bd62f88c8d59807e0ce9868279fd7fef",
      "to": "0x6be29907638656308b091e49054ec174058915a4",
      "contractAddress": null
    },
    {
      "status": "0x1",
      "cumulativeGasUsed": "0xdc749f",
      "logs": [],
      "logsBloom": "0x00000000000000000000000000000000000000000000000000000000000000000000000000000000000000000000000000000000000000000000000000000000000000000000000000000000000000000000000000000000000000000000000000000000000000000000000000000000000000000000000000000000000000000000000000000000000000000000000000000000000000000000000000000000000000000000000000000000000000000000000000000000000000000000000000000000000000000000000000000000000000000000000000000000000000000000000000000000000000000000000000000000000000000000000000000000",
      "type": "0x2",
      "transactionHash": "0xe1d9d5a881fd70e2790558a2a889da757e804e5ed362c63668800a507a6cf52b",
      "transactionIndex": "0x59",
      "blockHash": "0x4cdbdd37bee1020bdad304d2fc3f441dd94e688d780bdb7e18a9705c129d276a",
      "blockNumber": "0x7b4935",
      "gasUsed": "0xc739",
      "effectiveGasPrice": "0x1af3f4",
      "from": "0xdef12db2bd62f88c8d59807e0ce9868279fd7fef",
      "to": "0x6be29907638656308b091e49054ec174058915a4",
      "contractAddress": null
    },
    {
      "status": "0x1",
      "cumulativeGasUsed": "0xdd3d4b",
      "logs": [],
      "logsBloom": "0x00000000000000000000000000000000000000000000000000000000000000000000000000000000000000000000000000000000000000000000000000000000000000000000000000000000000000000000000000000000000000000000000000000000000000000000000000000000000000000000000000000000000000000000000000000000000000000000000000000000000000000000000000000000000000000000000000000000000000000000000000000000000000000000000000000000000000000000000000000000000000000000000000000000000000000000000000000000000000000000000000000000000000000000000000000000",
      "type": "0x2",
      "transactionHash": "0xe0d7609d455b778c683ec00a2cc2e7c2d355a1c832808cbf6d47b62834d11c65",
      "transactionIndex": "0x5a",
      "blockHash": "0x4cdbdd37bee1020bdad304d2fc3f441dd94e688d780bdb7e18a9705c129d276a",
      "blockNumber": "0x7b4935",
      "gasUsed": "0xc8ac",
      "effectiveGasPrice": "0x1af3f4",
      "from": "0xdef12db2bd62f88c8d59807e0ce9868279fd7fef",
      "to": "0x6be29907638656308b091e49054ec174058915a4",
      "contractAddress": null
    },
    {
      "status": "0x1",
      "cumulativeGasUsed": "0xddf264",
      "logs": [],
      "logsBloom": "0x00000000000000000000000000000000000000000000000000000000000000000000000000000000000000000000000000000000000000000000000000000000000000000000000000000000000000000000000000000000000000000000000000000000000000000000000000000000000000000000000000000000000000000000000000000000000000000000000000000000000000000000000000000000000000000000000000000000000000000000000000000000000000000000000000000000000000000000000000000000000000000000000000000000000000000000000000000000000000000000000000000000000000000000000000000000",
      "type": "0x2",
      "transactionHash": "0x7c1c5fafc4f4c340b7405a31ea55173a8dd005f8bbffbb40c406401fd93cbe8b",
      "transactionIndex": "0x5b",
      "blockHash": "0x4cdbdd37bee1020bdad304d2fc3f441dd94e688d780bdb7e18a9705c129d276a",
      "blockNumber": "0x7b4935",
      "gasUsed": "0xb519",
      "effectiveGasPrice": "0x1af3f4",
      "from": "0xdef12db2bd62f88c8d59807e0ce9868279fd7fef",
      "to": "0x6be29907638656308b091e49054ec174058915a4",
      "contractAddress": null
    },
    {
      "status": "0x1",
      "cumulativeGasUsed": "0xdebad9",
      "logs": [],
      "logsBloom": "0x00000000000000000000000000000000000000000000000000000000000000000000000000000000000000000000000000000000000000000000000000000000000000000000000000000000000000000000000000000000000000000000000000000000000000000000000000000000000000000000000000000000000000000000000000000000000000000000000000000000000000000000000000000000000000000000000000000000000000000000000000000000000000000000000000000000000000000000000000000000000000000000000000000000000000000000000000000000000000000000000000000000000000000000000000000000",
      "type": "0x2",
      "transactionHash": "0xbc259cef10409efc049b2c79bb603a8249392400d966571826bb70db14ad0f05",
      "transactionIndex": "0x5c",
      "blockHash": "0x4cdbdd37bee1020bdad304d2fc3f441dd94e688d780bdb7e18a9705c129d276a",
      "blockNumber": "0x7b4935",
      "gasUsed": "0xc875",
      "effectiveGasPrice": "0x1af3f4",
      "from": "0xdef12db2bd62f88c8d59807e0ce9868279fd7fef",
      "to": "0x0731899ee6cd13b24ca56d839228484e8f15a47e",
      "contractAddress": null
    },
    {
      "status": "0x1",
      "cumulativeGasUsed": "0xdf8364",
      "logs": [],
      "logsBloom": "0x00000000000000000000000000000000000000000000000000000000000000000000000000000000000000000000000000000000000000000000000000000000000000000000000000000000000000000000000000000000000000000000000000000000000000000000000000000000000000000000000000000000000000000000000000000000000000000000000000000000000000000000000000000000000000000000000000000000000000000000000000000000000000000000000000000000000000000000000000000000000000000000000000000000000000000000000000000000000000000000000000000000000000000000000000000000",
      "type": "0x2",
      "transactionHash": "0x0945041b7b20b2ceae59b751619b22fc3c3a8c78ef67951e743454cc7024e512",
      "transactionIndex": "0x5d",
      "blockHash": "0x4cdbdd37bee1020bdad304d2fc3f441dd94e688d780bdb7e18a9705c129d276a",
      "blockNumber": "0x7b4935",
      "gasUsed": "0xc88b",
      "effectiveGasPrice": "0x1af3f4",
      "from": "0xdef12db2bd62f88c8d59807e0ce9868279fd7fef",
      "to": "0x0731899ee6cd13b24ca56d839228484e8f15a47e",
      "contractAddress": null
    },
    {
      "status": "0x1",
      "cumulativeGasUsed": "0xe0387d",
      "logs": [],
      "logsBloom": "0x00000000000000000000000000000000000000000000000000000000000000000000000000000000000000000000000000000000000000000000000000000000000000000000000000000000000000000000000000000000000000000000000000000000000000000000000000000000000000000000000000000000000000000000000000000000000000000000000000000000000000000000000000000000000000000000000000000000000000000000000000000000000000000000000000000000000000000000000000000000000000000000000000000000000000000000000000000000000000000000000000000000000000000000000000000000",
      "type": "0x2",
      "transactionHash": "0xe12e9480969f46edd67f75d8d86e9fd0f5d1e12404668d258e320ef0c0b5c404",
      "transactionIndex": "0x5e",
      "blockHash": "0x4cdbdd37bee1020bdad304d2fc3f441dd94e688d780bdb7e18a9705c129d276a",
      "blockNumber": "0x7b4935",
      "gasUsed": "0xb519",
      "effectiveGasPrice": "0x1af3f4",
      "from": "0xdef12db2bd62f88c8d59807e0ce9868279fd7fef",
      "to": "0x0731899ee6cd13b24ca56d839228484e8f15a47e",
      "contractAddress": null
    },
    {
      "status": "0x1",
      "cumulativeGasUsed": "0x33267c",
      "logs": [],
      "logsBloom": "0x00000000000000000000000000000000000000000000000000000000000000000000000000000000000000000000000000000000000000000000000000000000000000000000000000000000000000000000000000000000000000000000000000000000000000000000000000000000000000000000000000000000000000000000000000000000000000000000000000000000000000000000000000000000000000000000000000000000000000000000000000000000000000000000000000000000000000000000000000000000000000000000000000000000000000000000000000000000000000000000000000000000000000000000000000000000",
      "type": "0x2",
      "transactionHash": "0x8062fd8ec7fd2cc8124d636282b51e189a602823306e64f4180c4ac9c8c6c502",
      "transactionIndex": "0x21",
      "blockHash": "0x8fc48be06fdc3f1537cab8abf1e02794b5c8b4d456625b529f8ed2b4306b1227",
      "blockNumber": "0x7b4936",
      "gasUsed": "0xc85f",
      "effectiveGasPrice": "0x1b6827",
      "from": "0xdef12db2bd62f88c8d59807e0ce9868279fd7fef",
      "to": "0x6a730ff57bb6192f39b37a11c905f1e209b18f6c",
      "contractAddress": null
    },
    {
      "status": "0x1",
      "cumulativeGasUsed": "0x33db95",
      "logs": [],
      "logsBloom": "0x00000000000000000000000000000000000000000000000000000000000000000000000000000000000000000000000000000000000000000000000000000000000000000000000000000000000000000000000000000000000000000000000000000000000000000000000000000000000000000000000000000000000000000000000000000000000000000000000000000000000000000000000000000000000000000000000000000000000000000000000000000000000000000000000000000000000000000000000000000000000000000000000000000000000000000000000000000000000000000000000000000000000000000000000000000000",
      "type": "0x2",
      "transactionHash": "0xf5850af9f47245bddc9904486a5b1f23f5f75348bd97a94ba49e331bfa8f2640",
      "transactionIndex": "0x22",
      "blockHash": "0x8fc48be06fdc3f1537cab8abf1e02794b5c8b4d456625b529f8ed2b4306b1227",
      "blockNumber": "0x7b4936",
      "gasUsed": "0xb519",
      "effectiveGasPrice": "0x1b6827",
      "from": "0xdef12db2bd62f88c8d59807e0ce9868279fd7fef",
      "to": "0x6a730ff57bb6192f39b37a11c905f1e209b18f6c",
      "contractAddress": null
    },
    {
      "status": "0x1",
      "cumulativeGasUsed": "0x372c8c",
      "logs": [],
      "logsBloom": "0x00000000000000000000000000000000000000000000000000000000000000000000000000000000000000000000000000000000000000000000000000000000000000000000000000000000000000000000000000000000000000000000000000000000000000000000000000000000000000000000000000000000000000000000000000000000000000000000000000000000000000000000000000000000000000000000000000000000000000000000000000000000000000000000000000000000000000000000000000000000000000000000000000000000000000000000000000000000000000000000000000000000000000000000000000000000",
      "type": "0x2",
      "transactionHash": "0x5b5915c7925b110ba5ef96479255f3b4c4c2890b9511babf1b83683a539b26e8",
      "transactionIndex": "0x22",
      "blockHash": "0xfd7a0902cfede58b43dedeb97811c3a9d43bf73c58d2e27a739a12a2f024206e",
      "blockNumber": "0x7b4937",
      "gasUsed": "0xc80f",
      "effectiveGasPrice": "0x1b2034",
      "from": "0xdef12db2bd62f88c8d59807e0ce9868279fd7fef",
      "to": "0x85a3a41072ca4bb7044eb104f9397d8718fe1b38",
      "contractAddress": null
    },
    {
      "status": "0x1",
      "cumulativeGasUsed": "0x37f49b",
      "logs": [],
      "logsBloom": "0x00000000000000000000000000000000000000000000000000000000000000000000000000000000000000000000000000000000000000000000000000000000000000000000000000000000000000000000000000000000000000000000000000000000000000000000000000000000000000000000000000000000000000000000000000000000000000000000000000000000000000000000000000000000000000000000000000000000000000000000000000000000000000000000000000000000000000000000000000000000000000000000000000000000000000000000000000000000000000000000000000000000000000000000000000000000",
      "type": "0x2",
      "transactionHash": "0xb92aaaccdba28b2740e2869a66faa64f8b2d7cd372c963901545327a5d0c4490",
      "transactionIndex": "0x23",
      "blockHash": "0xfd7a0902cfede58b43dedeb97811c3a9d43bf73c58d2e27a739a12a2f024206e",
      "blockNumber": "0x7b4937",
      "gasUsed": "0xc80f",
      "effectiveGasPrice": "0x1b2034",
      "from": "0xdef12db2bd62f88c8d59807e0ce9868279fd7fef",
      "to": "0x85a3a41072ca4bb7044eb104f9397d8718fe1b38",
      "contractAddress": null
    },
    {
      "status": "0x1",
      "cumulativeGasUsed": "0x38bcd2",
      "logs": [],
      "logsBloom": "0x00000000000000000000000000000000000000000000000000000000000000000000000000000000000000000000000000000000000000000000000000000000000000000000000000000000000000000000000000000000000000000000000000000000000000000000000000000000000000000000000000000000000000000000000000000000000000000000000000000000000000000000000000000000000000000000000000000000000000000000000000000000000000000000000000000000000000000000000000000000000000000000000000000000000000000000000000000000000000000000000000000000000000000000000000000000",
      "type": "0x2",
      "transactionHash": "0xbc75353f723bd7206458c5dbe32e829b98840bab900ad697d3549261367dcbf5",
      "transactionIndex": "0x24",
      "blockHash": "0xfd7a0902cfede58b43dedeb97811c3a9d43bf73c58d2e27a739a12a2f024206e",
      "blockNumber": "0x7b4937",
      "gasUsed": "0xc837",
      "effectiveGasPrice": "0x1b2034",
      "from": "0xdef12db2bd62f88c8d59807e0ce9868279fd7fef",
      "to": "0x85a3a41072ca4bb7044eb104f9397d8718fe1b38",
      "contractAddress": null
    },
    {
      "status": "0x1",
      "cumulativeGasUsed": "0x398509",
      "logs": [],
      "logsBloom": "0x00000000000000000000000000000000000000000000000000000000000000000000000000000000000000000000000000000000000000000000000000000000000000000000000000000000000000000000000000000000000000000000000000000000000000000000000000000000000000000000000000000000000000000000000000000000000000000000000000000000000000000000000000000000000000000000000000000000000000000000000000000000000000000000000000000000000000000000000000000000000000000000000000000000000000000000000000000000000000000000000000000000000000000000000000000000",
      "type": "0x2",
      "transactionHash": "0x1493f26500bcd2491fb750f1850b0bfb8f96ffcd7fb5749cb0235e5735f1a2eb",
      "transactionIndex": "0x25",
      "blockHash": "0xfd7a0902cfede58b43dedeb97811c3a9d43bf73c58d2e27a739a12a2f024206e",
      "blockNumber": "0x7b4937",
      "gasUsed": "0xc837",
      "effectiveGasPrice": "0x1b2034",
      "from": "0xdef12db2bd62f88c8d59807e0ce9868279fd7fef",
      "to": "0x85a3a41072ca4bb7044eb104f9397d8718fe1b38",
      "contractAddress": null
    },
    {
      "status": "0x1",
      "cumulativeGasUsed": "0x3a4d40",
      "logs": [],
      "logsBloom": "0x00000000000000000000000000000000000000000000000000000000000000000000000000000000000000000000000000000000000000000000000000000000000000000000000000000000000000000000000000000000000000000000000000000000000000000000000000000000000000000000000000000000000000000000000000000000000000000000000000000000000000000000000000000000000000000000000000000000000000000000000000000000000000000000000000000000000000000000000000000000000000000000000000000000000000000000000000000000000000000000000000000000000000000000000000000000",
      "type": "0x2",
      "transactionHash": "0xc932424ebc00d60cda8cb7cd39de2a1e228814f32983151ed268890a6145d65a",
      "transactionIndex": "0x26",
      "blockHash": "0xfd7a0902cfede58b43dedeb97811c3a9d43bf73c58d2e27a739a12a2f024206e",
      "blockNumber": "0x7b4937",
      "gasUsed": "0xc837",
      "effectiveGasPrice": "0x1b2034",
      "from": "0xdef12db2bd62f88c8d59807e0ce9868279fd7fef",
      "to": "0x85a3a41072ca4bb7044eb104f9397d8718fe1b38",
      "contractAddress": null
    },
    {
      "status": "0x1",
      "cumulativeGasUsed": "0x3b15f9",
      "logs": [],
      "logsBloom": "0x00000000000000000000000000000000000000000000000000000000000000000000000000000000000000000000000000000000000000000000000000000000000000000000000000000000000000000000000000000000000000000000000000000000000000000000000000000000000000000000000000000000000000000000000000000000000000000000000000000000000000000000000000000000000000000000000000000000000000000000000000000000000000000000000000000000000000000000000000000000000000000000000000000000000000000000000000000000000000000000000000000000000000000000000000000000",
      "type": "0x2",
      "transactionHash": "0xd230b7a9b14e2fc56350bfb178266483a54a8dbd9d0369a6927a226f74306b6f",
      "transactionIndex": "0x27",
      "blockHash": "0xfd7a0902cfede58b43dedeb97811c3a9d43bf73c58d2e27a739a12a2f024206e",
      "blockNumber": "0x7b4937",
      "gasUsed": "0xc8b9",
      "effectiveGasPrice": "0x1b2034",
      "from": "0xdef12db2bd62f88c8d59807e0ce9868279fd7fef",
      "to": "0x85a3a41072ca4bb7044eb104f9397d8718fe1b38",
      "contractAddress": null
    },
    {
      "status": "0x1",
      "cumulativeGasUsed": "0x3bcb12",
      "logs": [],
      "logsBloom": "0x00000000000000000000000000000000000000000000000000000000000000000000000000000000000000000000000000000000000000000000000000000000000000000000000000000000000000000000000000000000000000000000000000000000000000000000000000000000000000000000000000000000000000000000000000000000000000000000000000000000000000000000000000000000000000000000000000000000000000000000000000000000000000000000000000000000000000000000000000000000000000000000000000000000000000000000000000000000000000000000000000000000000000000000000000000000",
      "type": "0x2",
      "transactionHash": "0xdaf1b5e0cb4ba54c9db2e7ebc9010efb692e11f0e2d5a4e07454484927439ccb",
      "transactionIndex": "0x28",
      "blockHash": "0xfd7a0902cfede58b43dedeb97811c3a9d43bf73c58d2e27a739a12a2f024206e",
      "blockNumber": "0x7b4937",
      "gasUsed": "0xb519",
      "effectiveGasPrice": "0x1b2034",
      "from": "0xdef12db2bd62f88c8d59807e0ce9868279fd7fef",
      "to": "0x85a3a41072ca4bb7044eb104f9397d8718fe1b38",
      "contractAddress": null
    },
    {
      "status": "0x1",
      "cumulativeGasUsed": "0x3c44c9",
      "logs": [],
      "logsBloom": "0x00000000000000000000000000000000000000000000000000000000000000000000000000000000000000000000000000000000000000000000000000000000000000000000000000000000000000000000000000000000000000000000000000000000000000000000000000000000000000000000000000000000000000000000000000000000000000000000000000000000000000000000000000000000000000000000000000000000000000000000000000000000000000000000000000000000000000000000000000000000000000000000000000000000000000000000000000000000000000000000000000000000000000000000000000000000",
      "type": "0x2",
      "transactionHash": "0xbb89a395fe8d7e1766d83d7a4518b8404c66d7e12fd5a24aa9d85a28785481f1",
      "transactionIndex": "0x29",
      "blockHash": "0xfd7a0902cfede58b43dedeb97811c3a9d43bf73c58d2e27a739a12a2f024206e",
      "blockNumber": "0x7b4937",
      "gasUsed": "0x79b7",
      "effectiveGasPrice": "0x1b2034",
      "from": "0xdef12db2bd62f88c8d59807e0ce9868279fd7fef",
      "to": "0x6be29907638656308b091e49054ec174058915a4",
      "contractAddress": null
    },
    {
      "status": "0x1",
      "cumulativeGasUsed": "0x3d0e73",
      "logs": [],
      "logsBloom": "0x00000000000000000000000000000000000000000000000000000000000000000000000000000000000000000000000000000000000000000000000000000000000000000000000000000000000000000000000000000000000000000000000000000000000000000000000000000000000000000000000000000000000000000000000000000000000000000000000000000000000000000000000000000000000000000000000000000000000000000000000000000000000000000000000000000000000000000000000000000000000000000000000000000000000000000000000000000000000000000000000000000000000000000000000000000000",
      "type": "0x2",
      "transactionHash": "0x9ee8e1799e25042e13b4d05e962faffe5567d3bf32c5c5e99e3f394292a7cace",
      "transactionIndex": "0x2a",
      "blockHash": "0xfd7a0902cfede58b43dedeb97811c3a9d43bf73c58d2e27a739a12a2f024206e",
      "blockNumber": "0x7b4937",
      "gasUsed": "0xc9aa",
      "effectiveGasPrice": "0x1b2034",
      "from": "0xdef12db2bd62f88c8d59807e0ce9868279fd7fef",
      "to": "0x6be29907638656308b091e49054ec174058915a4",
      "contractAddress": null
    },
    {
      "status": "0x1",
      "cumulativeGasUsed": "0x3d87c0",
      "logs": [],
      "logsBloom": "0x00000000000000000000000000000000000000000000000000000000000000000000000000000000000000000000000000000000000000000000000000000000000000000000000000000000000000000000000000000000000000000000000000000000000000000000000000000000000000000000000000000000000000000000000000000000000000000000000000000000000000000000000000000000000000000000000000000000000000000000000000000000000000000000000000000000000000000000000000000000000000000000000000000000000000000000000000000000000000000000000000000000000000000000000000000000",
      "type": "0x2",
      "transactionHash": "0x0a457c101590b53674c8f9e19b2ee5a284657bc01b515eea8d0f1e9bdf94abe4",
      "transactionIndex": "0x2b",
      "blockHash": "0xfd7a0902cfede58b43dedeb97811c3a9d43bf73c58d2e27a739a12a2f024206e",
      "blockNumber": "0x7b4937",
      "gasUsed": "0x794d",
      "effectiveGasPrice": "0x1b2034",
      "from": "0xdef12db2bd62f88c8d59807e0ce9868279fd7fef",
      "to": "0x6be29907638656308b091e49054ec174058915a4",
      "contractAddress": null
    },
    {
      "status": "0x1",
      "cumulativeGasUsed": "0x3e5198",
      "logs": [],
      "logsBloom": "0x00000000000000000000000000000000000000000000000000000000000000000000000000000000000000000000000000000000000000000000000000000000000000000000000000000000000000000000000000000000000000000000000000000000000000000000000000000000000000000000000000000000000000000000000000000000000000000000000000000000000000000000000000000000000000000000000000000000000000000000000000000000000000000000000000000000000000000000000000000000000000000000000000000000000000000000000000000000000000000000000000000000000000000000000000000000",
      "type": "0x2",
      "transactionHash": "0x6ab0a155c9fe3512da5d93f95836af41413a704cd786d38db66dfe5adb00e9ab",
      "transactionIndex": "0x2c",
      "blockHash": "0xfd7a0902cfede58b43dedeb97811c3a9d43bf73c58d2e27a739a12a2f024206e",
      "blockNumber": "0x7b4937",
      "gasUsed": "0xc9d8",
      "effectiveGasPrice": "0x1b2034",
      "from": "0xdef12db2bd62f88c8d59807e0ce9868279fd7fef",
      "to": "0x6be29907638656308b091e49054ec174058915a4",
      "contractAddress": null
    },
    {
      "status": "0x1",
      "cumulativeGasUsed": "0x3ed636",
      "logs": [],
      "logsBloom": "0x00000000000000000000000000000000000000000000000000000000000000000000000000000000000000000000000000000000000000000000000000000000000000000000000000000000000000000000000000000000000000000000000000000000000000000000000000000000000000000000000000000000000000000000000000000000000000000000000000000000000000000000000000000000000000000000000000000000000000000000000000000000000000000000000000000000000000000000000000000000000000000000000000000000000000000000000000000000000000000000000000000000000000000000000000000000",
      "type": "0x2",
      "transactionHash": "0x3ded6f11d422ba57a10e36f398783ae40a3e3f3492e75c38f2b203488e11504b",
      "transactionIndex": "0x2d",
      "blockHash": "0xfd7a0902cfede58b43dedeb97811c3a9d43bf73c58d2e27a739a12a2f024206e",
      "blockNumber": "0x7b4937",
      "gasUsed": "0x849e",
      "effectiveGasPrice": "0x1b2034",
      "from": "0xdef12db2bd62f88c8d59807e0ce9868279fd7fef",
      "to": "0x6be29907638656308b091e49054ec174058915a4",
      "contractAddress": null
    },
    {
      "status": "0x1",
      "cumulativeGasUsed": "0x3f5a6e",
      "logs": [],
      "logsBloom": "0x00000000000000000000000000000000000000000000000000000000000000000000000000000000000000000000000000000000000000000000000000000000000000000000000000000000000000000000000000000000000000000000000000000000000000000000000000000000000000000000000000000000000000000000000000000000000000000000000000000000000000000000000000000000000000000000000000000000000000000000000000000000000000000000000000000000000000000000000000000000000000000000000000000000000000000000000000000000000000000000000000000000000000000000000000000000",
      "type": "0x2",
      "transactionHash": "0x1c8fb25f9819373418ee46c3af7abc283a9c514f082d39938cb868de1f9608d3",
      "transactionIndex": "0x2e",
      "blockHash": "0xfd7a0902cfede58b43dedeb97811c3a9d43bf73c58d2e27a739a12a2f024206e",
      "blockNumber": "0x7b4937",
      "gasUsed": "0x8438",
      "effectiveGasPrice": "0x1b2034",
      "from": "0xdef12db2bd62f88c8d59807e0ce9868279fd7fef",
      "to": "0x6be29907638656308b091e49054ec174058915a4",
      "contractAddress": null
    },
    {
      "status": "0x1",
      "cumulativeGasUsed": "0x3fd530",
      "logs": [],
      "logsBloom": "0x00000000000000000000000000000000000000000000000000000000000000000000000000000000000000000000000000000000000000000000000000000000000000000000000000000000000000000000000000000000000000000000000000000000000000000000000000000000000000000000000000000000000000000000000000000000000000000000000000000000000000000000000000000000000000000000000000000000000000000000000000000000000000000000000000000000000000000000000000000000000000000000000000000000000000000000000000000000000000000000000000000000000000000000000000000000",
      "type": "0x2",
      "transactionHash": "0xbfd4b18fb160a7747e3f17aacccca6344707159071eda60b68986e7b88fa05f5",
      "transactionIndex": "0x2f",
      "blockHash": "0xfd7a0902cfede58b43dedeb97811c3a9d43bf73c58d2e27a739a12a2f024206e",
      "blockNumber": "0x7b4937",
      "gasUsed": "0x7ac2",
      "effectiveGasPrice": "0x1b2034",
      "from": "0xdef12db2bd62f88c8d59807e0ce9868279fd7fef",
      "to": "0x5d1cde969ad2eeb2d64f9b7212077d2382479c0c",
      "contractAddress": null
    },
    {
      "status": "0x1",
      "cumulativeGasUsed": "0x403ca3",
      "logs": [],
      "logsBloom": "0x00000000000000000000000000000000000000000000000000000000000000000000000000000000000000000000000000000000000000000000000000000000000000000000000000000000000000000000000000000000000000000000000000000000000000000000000000000000000000000000000000000000000000000000000000000000000000000000000000000000000000000000000000000000000000000000000000000000000000000000000000000000000000000000000000000000000000000000000000000000000000000000000000000000000000000000000000000000000000000000000000000000000000000000000000000000",
      "type": "0x2",
      "transactionHash": "0x2ff643cc2a3780c885b00aecc143e3dfb71556904ac8982d852d24361d9c6cad",
      "transactionIndex": "0x30",
      "blockHash": "0xfd7a0902cfede58b43dedeb97811c3a9d43bf73c58d2e27a739a12a2f024206e",
      "blockNumber": "0x7b4937",
      "gasUsed": "0x6773",
      "effectiveGasPrice": "0x1b2034",
      "from": "0xdef12db2bd62f88c8d59807e0ce9868279fd7fef",
      "to": "0x5d1cde969ad2eeb2d64f9b7212077d2382479c0c",
      "contractAddress": null
    },
    {
      "status": "0x1",
      "cumulativeGasUsed": "0x40b7a8",
      "logs": [],
      "logsBloom": "0x00000000000000000000000000000000000000000000000000000000000000000000000000000000000000000000000000000000000000000000000000000000000000000000000000000000000000000000000000000000000000000000000000000000000000000000000000000000000000000000000000000000000000000000000000000000000000000000000000000000000000000000000000000000000000000000000000000000000000000000000000000000000000000000000000000000000000000000000000000000000000000000000000000000000000000000000000000000000000000000000000000000000000000000000000000000",
      "type": "0x2",
      "transactionHash": "0x06794b7b143737cfd28f1775d52fbe82c9d8306bd98c0ff28abd8528f26e42bb",
      "transactionIndex": "0x31",
      "blockHash": "0xfd7a0902cfede58b43dedeb97811c3a9d43bf73c58d2e27a739a12a2f024206e",
      "blockNumber": "0x7b4937",
      "gasUsed": "0x7b05",
      "effectiveGasPrice": "0x1b2034",
      "from": "0xdef12db2bd62f88c8d59807e0ce9868279fd7fef",
      "to": "0x6be29907638656308b091e49054ec174058915a4",
      "contractAddress": null
    },
    {
      "status": "0x1",
      "cumulativeGasUsed": "0x411f1b",
      "logs": [],
      "logsBloom": "0x00000000000000000000000000000000000000000000000000000000000000000000000000000000000000000000000000000000000000000000000000000000000000000000000000000000000000000000000000000000000000000000000000000000000000000000000000000000000000000000000000000000000000000000000000000000000000000000000000000000000000000000000000000000000000000000000000000000000000000000000000000000000000000000000000000000000000000000000000000000000000000000000000000000000000000000000000000000000000000000000000000000000000000000000000000000",
      "type": "0x2",
      "transactionHash": "0x2a62e7772f451a01f75c86d1466e4f93efb323bea5e9a52270e8f8c332d2241c",
      "transactionIndex": "0x32",
      "blockHash": "0xfd7a0902cfede58b43dedeb97811c3a9d43bf73c58d2e27a739a12a2f024206e",
      "blockNumber": "0x7b4937",
      "gasUsed": "0x6773",
      "effectiveGasPrice": "0x1b2034",
      "from": "0xdef12db2bd62f88c8d59807e0ce9868279fd7fef",
      "to": "0x6be29907638656308b091e49054ec174058915a4",
      "contractAddress": null
    },
    {
      "status": "0x1",
      "cumulativeGasUsed": "0x4199c7",
      "logs": [],
      "logsBloom": "0x00000000000000000000000000000000000000000000000000000000000000000000000000000000000000000000000000000000000000000000000000000000000000000000000000000000000000000000000000000000000000000000000000000000000000000000000000000000000000000000000000000000000000000000000000000000000000000000000000000000000000000000000000000000000000000000000000000000000000000000000000000000000000000000000000000000000000000000000000000000000000000000000000000000000000000000000000000000000000000000000000000000000000000000000000000000",
      "type": "0x2",
      "transactionHash": "0x611342f7b61dd0e146f344e2a5c320668164c37b7062bcc440931b1764527397",
      "transactionIndex": "0x33",
      "blockHash": "0xfd7a0902cfede58b43dedeb97811c3a9d43bf73c58d2e27a739a12a2f024206e",
      "blockNumber": "0x7b4937",
      "gasUsed": "0x7aac",
      "effectiveGasPrice": "0x1b2034",
      "from": "0xdef12db2bd62f88c8d59807e0ce9868279fd7fef",
      "to": "0x0731899ee6cd13b24ca56d839228484e8f15a47e",
      "contractAddress": null
    },
    {
      "status": "0x1",
      "cumulativeGasUsed": "0x42013a",
      "logs": [],
      "logsBloom": "0x00000000000000000000000000000000000000000000000000000000000000000000000000000000000000000000000000000000000000000000000000000000000000000000000000000000000000000000000000000000000000000000000000000000000000000000000000000000000000000000000000000000000000000000000000000000000000000000000000000000000000000000000000000000000000000000000000000000000000000000000000000000000000000000000000000000000000000000000000000000000000000000000000000000000000000000000000000000000000000000000000000000000000000000000000000000",
      "type": "0x2",
      "transactionHash": "0x407615f490639dc3dcf7029a7bf51f8ddd9f307fbed5e30454892ef76ad82f5f",
      "transactionIndex": "0x34",
      "blockHash": "0xfd7a0902cfede58b43dedeb97811c3a9d43bf73c58d2e27a739a12a2f024206e",
      "blockNumber": "0x7b4937",
      "gasUsed": "0x6773",
      "effectiveGasPrice": "0x1b2034",
      "from": "0xdef12db2bd62f88c8d59807e0ce9868279fd7fef",
      "to": "0x0731899ee6cd13b24ca56d839228484e8f15a47e",
      "contractAddress": null
    },
    {
      "status": "0x1",
      "cumulativeGasUsed": "0x427bfc",
      "logs": [],
      "logsBloom": "0x00000000000000000000000000000000000000000000000000000000000000000000000000000000000000000000000000000000000000000000000000000000000000000000000000000000000000000000000000000000000000000000000000000000000000000000000000000000000000000000000000000000000000000000000000000000000000000000000000000000000000000000000000000000000000000000000000000000000000000000000000000000000000000000000000000000000000000000000000000000000000000000000000000000000000000000000000000000000000000000000000000000000000000000000000000000",
      "type": "0x2",
      "transactionHash": "0x424b143d8f4c5154017609aa83e40db3c825285115e585811a5ed3a839d982d1",
      "transactionIndex": "0x35",
      "blockHash": "0xfd7a0902cfede58b43dedeb97811c3a9d43bf73c58d2e27a739a12a2f024206e",
      "blockNumber": "0x7b4937",
      "gasUsed": "0x7ac2",
      "effectiveGasPrice": "0x1b2034",
      "from": "0xdef12db2bd62f88c8d59807e0ce9868279fd7fef",
      "to": "0x6a730ff57bb6192f39b37a11c905f1e209b18f6c",
      "contractAddress": null
    },
    {
      "status": "0x1",
      "cumulativeGasUsed": "0x42e36f",
      "logs": [],
      "logsBloom": "0x00000000000000000000000000000000000000000000000000000000000000000000000000000000000000000000000000000000000000000000000000000000000000000000000000000000000000000000000000000000000000000000000000000000000000000000000000000000000000000000000000000000000000000000000000000000000000000000000000000000000000000000000000000000000000000000000000000000000000000000000000000000000000000000000000000000000000000000000000000000000000000000000000000000000000000000000000000000000000000000000000000000000000000000000000000000",
      "type": "0x2",
      "transactionHash": "0xa997aebdf298988415d53a53185927b97901d95f81e2b45507df498def37b702",
      "transactionIndex": "0x36",
      "blockHash": "0xfd7a0902cfede58b43dedeb97811c3a9d43bf73c58d2e27a739a12a2f024206e",
      "blockNumber": "0x7b4937",
      "gasUsed": "0x6773",
      "effectiveGasPrice": "0x1b2034",
      "from": "0xdef12db2bd62f88c8d59807e0ce9868279fd7fef",
      "to": "0x6a730ff57bb6192f39b37a11c905f1e209b18f6c",
      "contractAddress": null
    },
    {
      "status": "0x1",
      "cumulativeGasUsed": "0x435e81",
      "logs": [],
      "logsBloom": "0x00000000000000000000000000000000000000000000000000000000000000000000000000000000000000000000000000000000000000000000000000000000000000000000000000000000000000000000000000000000000000000000000000000000000000000000000000000000000000000000000000000000000000000000000000000000000000000000000000000000000000000000000000000000000000000000000000000000000000000000000000000000000000000000000000000000000000000000000000000000000000000000000000000000000000000000000000000000000000000000000000000000000000000000000000000000",
      "type": "0x2",
      "transactionHash": "0x8b5b2f15f7d288ef28e69a2c8db6dcd391b20dc9b28a312bcf2e3f74fc8b1310",
      "transactionIndex": "0x37",
      "blockHash": "0xfd7a0902cfede58b43dedeb97811c3a9d43bf73c58d2e27a739a12a2f024206e",
      "blockNumber": "0x7b4937",
      "gasUsed": "0x7b12",
      "effectiveGasPrice": "0x1b2034",
      "from": "0xdef12db2bd62f88c8d59807e0ce9868279fd7fef",
      "to": "0x85a3a41072ca4bb7044eb104f9397d8718fe1b38",
      "contractAddress": null
    },
    {
      "status": "0x1",
      "cumulativeGasUsed": "0x43c5f4",
      "logs": [],
      "logsBloom": "0x00000000000000000000000000000000000000000000000000000000000000000000000000000000000000000000000000000000000000000000000000000000000000000000000000000000000000000000000000000000000000000000000000000000000000000000000000000000000000000000000000000000000000000000000000000000000000000000000000000000000000000000000000000000000000000000000000000000000000000000000000000000000000000000000000000000000000000000000000000000000000000000000000000000000000000000000000000000000000000000000000000000000000000000000000000000",
      "type": "0x2",
      "transactionHash": "0xfae31aced7a56478f4cd091e3fedb32156f5d38d70ff182704ac8d22287cbaf0",
      "transactionIndex": "0x38",
      "blockHash": "0xfd7a0902cfede58b43dedeb97811c3a9d43bf73c58d2e27a739a12a2f024206e",
      "blockNumber": "0x7b4937",
      "gasUsed": "0x6773",
      "effectiveGasPrice": "0x1b2034",
      "from": "0xdef12db2bd62f88c8d59807e0ce9868279fd7fef",
      "to": "0x85a3a41072ca4bb7044eb104f9397d8718fe1b38",
      "contractAddress": null
    }
  ],
  "libraries": [],
  "pending": [],
  "returns": {},
  "timestamp": 1744317014,
  "chain": 11155111,
  "commit": "338d285"
}