{
  "transactions": [
    {
      "hash": "0xcc46b672cce9c65425feb484abe8b21a96a2a9001d51f112ccbd89929b7d0b3f",
      "transactionType": "CREATE",
      "contractName": "MaseerPrice",
      "contractAddress": "0x8d259b827728f126920b60745f2c3fd4e220782d",
      "function": null,
      "arguments": null,
      "transaction": {
        "from": "0xccadea5cc24204995a98daa056c37bd5207fd0c5",
        "gas": "0x116497",
        "value": "0x0",
        "input": "0x6080604052348015600e575f5ffd5b50601633601a565b6081565b607e7f27ad9db40d40315deb7c9733dae204372b3012815db31bb8e8e56d6c68d6ac248260405160200160609291909182526001600160a01b0316602082015260400190565b60408051601f19818403018152919052805160209091012060019055565b50565b610e898061008e5f395ff3fe608060405234801561000f575f5ffd5b50600436106100da575f3560e01c806365c4ce7a116100885780639c52a7f1116100635780639c52a7f1146101a6578063bf353dbb146101b9578063e9b674b9146101cc578063f29c29c4146101df575f5ffd5b806365c4ce7a1461017857806365fae35e1461018b5780638456cb591461019e575f5ffd5b80634fce7a2a116100b85780634fce7a2a1461012b57806357de26a4146101585780635c975abb14610160575f5ffd5b806306fdde03146100de578063313ce567146100fc57806332145f9014610116575b5f5ffd5b6100e66101f2565b6040516100f39190610b25565b60405180910390f35b610104610222565b60405160ff90911681526020016100f3565b610129610124366004610b78565b61024c565b005b61014a610139366004610b8f565b60016020525f908152604090205481565b6040519081526020016100f3565b61014a6102a8565b6101686102d2565b60405190151581526020016100f3565b610129610186366004610b8f565b61030c565b610129610199366004610b8f565b6103c1565b610129610443565b6101296101b4366004610b8f565b6104c7565b61014a6101c7366004610b8f565b610549565b6101296101da366004610bc9565b6105a5565b6101296101ed366004610b8f565b61077d565b606061021d7f9bc13b9bea85446242b96c637f96a994030a999e4a37800a69c2f798a672860b61081f565b905090565b5f61021d7fa5c4b505b3328f1f7b143b7cbfe5c1d30e20856c207cab51443a27fedf5d63166108b5565b335f908152600160208190526040909120541461029c576040517f4a0bfec10000000000000000000000000000000000000000000000000000000081523360048201526024015b60405180910390fd5b6102a5816108be565b50565b5f61021d7f0f6e463d71d43f924715baa2688119392f80a313b4437e6945310d50dba6177a6108b5565b5f6102fc7f0f6e463d71d43f924715baa2688119392f80a313b4437e6945310d50dba6177a6108b5565b1561030657505f90565b50600190565b604080517f27ad9db40d40315deb7c9733dae204372b3012815db31bb8e8e56d6c68d6ac2460208201523391810191909152610360906060015b604051602081830303815290604052805190602001205490565b60011461039b576040517f4a0bfec1000000000000000000000000000000000000000000000000000000008152336004820152602401610293565b73ffffffffffffffffffffffffffffffffffffffff165f90815260016020526040812055565b604080517f27ad9db40d40315deb7c9733dae204372b3012815db31bb8e8e56d6c68d6ac24602082015233918101919091526103ff90606001610346565b60011461043a576040517f4a0bfec1000000000000000000000000000000000000000000000000000000008152336004820152602401610293565b6102a581610916565b604080517f27ad9db40d40315deb7c9733dae204372b3012815db31bb8e8e56d6c68d6ac246020820152339181019190915261048190606001610346565b6001146104bc576040517f4a0bfec1000000000000000000000000000000000000000000000000000000008152336004820152602401610293565b6104c55f6108be565b565b604080517f27ad9db40d40315deb7c9733dae204372b3012815db31bb8e8e56d6c68d6ac246020820152339181019190915261050590606001610346565b600114610540576040517f4a0bfec1000000000000000000000000000000000000000000000000000000008152336004820152602401610293565b6102a581610989565b5f61059f7f27ad9db40d40315deb7c9733dae204372b3012815db31bb8e8e56d6c68d6ac248360405160200161034692919091825273ffffffffffffffffffffffffffffffffffffffff16602082015260400190565b92915050565b604080517f27ad9db40d40315deb7c9733dae204372b3012815db31bb8e8e56d6c68d6ac24602082015233918101919091526105e390606001610346565b60011461061e576040517f4a0bfec1000000000000000000000000000000000000000000000000000000008152336004820152602401610293565b817f7072696365000000000000000000000000000000000000000000000000000000036106535761064e816108be565b61073f565b817f6e616d6500000000000000000000000000000000000000000000000000000000036106ac5761064e7f9bc13b9bea85446242b96c637f96a994030a999e4a37800a69c2f798a672860b6106a7836109fb565b610b13565b817f646563696d616c730000000000000000000000000000000000000000000000001480156106dc575060128111155b1561070a5761064e7fa5c4b505b3328f1f7b143b7cbfe5c1d30e20856c207cab51443a27fedf5d6316829055565b6040517f35802fa300000000000000000000000000000000000000000000000000000000815260048101829052602401610293565b817f943a793c11a909d4409e7706d8c3d1467960e08f6141234950042994856812df8260405161077191815260200190565b60405180910390a25050565b604080517f27ad9db40d40315deb7c9733dae204372b3012815db31bb8e8e56d6c68d6ac24602082015233918101919091526107bb90606001610346565b6001146107f6576040517f4a0bfec1000000000000000000000000000000000000000000000000000000008152336004820152602401610293565b73ffffffffffffffffffffffffffffffffffffffff165f90815260016020819052604090912055565b80546060908290819061083190610be9565b80601f016020809104026020016040519081016040528092919081815260200182805461085d90610be9565b80156108a85780601f1061087f576101008083540402835291602001916108a8565b820191905f5260205f20905b81548152906001019060200180831161088b57829003601f168201915b5050505050915050919050565b5f61059f825490565b6108e77f0f6e463d71d43f924715baa2688119392f80a313b4437e6945310d50dba6177a829055565b604051429082907f9205f54491e32927259b3f6e67e823b85407d3a915972fe9973e58788507b254905f90a350565b6102a57f27ad9db40d40315deb7c9733dae204372b3012815db31bb8e8e56d6c68d6ac248260405160200161096b92919091825273ffffffffffffffffffffffffffffffffffffffff16602082015260400190565b6040516020818303038152906040528051906020012060015f1b9055565b6102a57f27ad9db40d40315deb7c9733dae204372b3012815db31bb8e8e56d6c68d6ac24826040516020016109de92919091825273ffffffffffffffffffffffffffffffffffffffff16602082015260400190565b604051602081830303815290604052805190602001205f5f1b9055565b60605f5b602081108015610a455750828160208110610a1c57610a1c610c3a565b1a60f81b7fff000000000000000000000000000000000000000000000000000000000000001615155b15610a5c5780610a5481610c67565b9150506109ff565b5f8167ffffffffffffffff811115610a7657610a76610cc3565b6040519080825280601f01601f191660200182016040528015610aa0576020820181803683370190505b5090505f5b82811015610b0b57848160208110610abf57610abf610c3a565b1a60f81b828281518110610ad557610ad5610c3a565b60200101907effffffffffffffffffffffffffffffffffffffffffffffffffffffffffffff191690815f1a905350600101610aa5565b509392505050565b8180610b1f8382610d3c565b50505050565b602081525f82518060208401528060208501604085015e5f6040828501015260407fffffffffffffffffffffffffffffffffffffffffffffffffffffffffffffffe0601f83011684010191505092915050565b5f60208284031215610b88575f5ffd5b5035919050565b5f60208284031215610b9f575f5ffd5b813573ffffffffffffffffffffffffffffffffffffffff81168114610bc2575f5ffd5b9392505050565b5f5f60408385031215610bda575f5ffd5b50508035926020909101359150565b600181811c90821680610bfd57607f821691505b602082108103610c34577f4e487b71000000000000000000000000000000000000000000000000000000005f52602260045260245ffd5b50919050565b7f4e487b71000000000000000000000000000000000000000000000000000000005f52603260045260245ffd5b5f7fffffffffffffffffffffffffffffffffffffffffffffffffffffffffffffffff8203610cbc577f4e487b71000000000000000000000000000000000000000000000000000000005f52601160045260245ffd5b5060010190565b7f4e487b71000000000000000000000000000000000000000000000000000000005f52604160045260245ffd5b601f821115610d3757805f5260205f20601f840160051c81016020851015610d155750805b601f840160051c820191505b81811015610d34575f8155600101610d21565b50505b505050565b815167ffffffffffffffff811115610d5657610d56610cc3565b610d6a81610d648454610be9565b84610cf0565b6020601f821160018114610dbb575f8315610d855750848201515b7fffffffffffffffffffffffffffffffffffffffffffffffffffffffffffffffff600385901b1c1916600184901b178455610d34565b5f848152602081207fffffffffffffffffffffffffffffffffffffffffffffffffffffffffffffffe08516915b82811015610e085787850151825560209485019460019092019101610de8565b5084821015610e4457868401517fffffffffffffffffffffffffffffffffffffffffffffffffffffffffffffffff600387901b60f8161c191681555b50505050600190811b0190555056fea26469706673582212201dc3c38a4b926e3311d0c5d85274e336b8bc4683dc3032e7b00bf1a5f3dcf43964736f6c634300081d0033",
        "nonce": "0x46",
        "chainId": "0x1"
      },
      "additionalContracts": [],
      "isFixedGasLimit": false
    },
    {
      "hash": "0x7b9e565ba376375a92037a6730732efe523ef75d4f0f70e730cf822ffc5ad787",
      "transactionType": "CREATE",
      "contractName": "MaseerProxy",
      "contractAddress": "0x7267dc183d5259ac33fd80322e62fc052efdad66",
      "function": null,
      "arguments": [
        "0x8D259B827728F126920b60745F2c3Fd4e220782d"
      ],
      "transaction": {
        "from": "0xccadea5cc24204995a98daa056c37bd5207fd0c5",
        "gas": "0x7327c",
        "value": "0x0",
        "input": "0x608060405234801561000f575f5ffd5b506040516105ec3803806105ec83398101604081905261002e91610168565b610039336001610051565b610042336100b7565b61004b8161011d565b50610195565b5f7f312ed9ac9b839e579b0572e42b6b61a1d0e768aa92df633e58ace1e6a3633e79836040516020016100979291909182526001600160a01b0316602082015260400190565b604051602081830303815290604052805190602001209050818155505050565b5f7f27ad9db40d40315deb7c9733dae204372b3012815db31bb8e8e56d6c68d6ac24826040516020016100fd9291909182526001600160a01b0316602082015260400190565b604051602081830303815290604052805190602001209050600181555050565b6001600160a01b038116610144576040516318ce8b9560e31b815260040160405180910390fd5b7f0e4c00c0fe9fb028e73dd325b95165d8884bc26853613a6b5131a12effdd8ddd55565b5f60208284031215610178575f5ffd5b81516001600160a01b038116811461018e575f5ffd5b9392505050565b61044a806101a25f395ff3fe608060405234801561000f575f5ffd5b5060043610610065575f3560e01c8063266a164a1161004e578063266a164a146100d957806360cd9853146100ec5780638abf60771461011257610065565b8063048046c1146100b35780630715940e146100c6575b5f61008e7f0e4c00c0fe9fb028e73dd325b95165d8884bc26853613a6b5131a12effdd8ddd5490565b9050604051365f82375f5f3683855af43d5f833e8080156100ad573d83f35b3d83fd5b005b6100b16100c13660046103da565b61013f565b6100b16100d43660046103da565b61018d565b6100b16100e73660046103da565b6101d9565b6100ff6100fa3660046103da565b610226565b6040519081526020015b60405180910390f35b61011a610236565b60405173ffffffffffffffffffffffffffffffffffffffff9091168152602001610109565b61014833610264565b600114610181576040517fea8e4eb500000000000000000000000000000000000000000000000000000000815260040160405180910390fd5b61018a816102f6565b50565b61019633610264565b6001146101cf576040517fea8e4eb500000000000000000000000000000000000000000000000000000000815260040160405180910390fd5b61018a815f610367565b6101e233610264565b60011461021b576040517fea8e4eb500000000000000000000000000000000000000000000000000000000815260040160405180910390fd5b61018a816001610367565b5f61023082610264565b92915050565b5f61025f7f0e4c00c0fe9fb028e73dd325b95165d8884bc26853613a6b5131a12effdd8ddd5490565b905090565b5f5f7f312ed9ac9b839e579b0572e42b6b61a1d0e768aa92df633e58ace1e6a3633e79836040516020016102b892919091825273ffffffffffffffffffffffffffffffffffffffff16602082015260400190565b604080517fffffffffffffffffffffffffffffffffffffffffffffffffffffffffffffffe08184030181529190528051602090910120549392505050565b73ffffffffffffffffffffffffffffffffffffffff8116610343576040517fc6745ca800000000000000000000000000000000000000000000000000000000815260040160405180910390fd5b7f0e4c00c0fe9fb028e73dd325b95165d8884bc26853613a6b5131a12effdd8ddd55565b5f7f312ed9ac9b839e579b0572e42b6b61a1d0e768aa92df633e58ace1e6a3633e79836040516020016103ba92919091825273ffffffffffffffffffffffffffffffffffffffff16602082015260400190565b604051602081830303815290604052805190602001209050818155505050565b5f602082840312156103ea575f5ffd5b813573ffffffffffffffffffffffffffffffffffffffff8116811461040d575f5ffd5b939250505056fea264697066735822122066097d3f930be8a5c492d5dbcdcab6d022aaca32a5e785d3ee4941a031ea110f64736f6c634300081d00330000000000000000000000008d259b827728f126920b60745f2c3fd4e220782d",
        "nonce": "0x47",
        "chainId": "0x1"
      },
      "additionalContracts": [],
      "isFixedGasLimit": false
    },
    {
      "hash": "0x7ac337f0f10fdf8609b2ab62e9144c2321bd1a96fe51e8c1c403135bc6ea18e5",
      "transactionType": "CREATE",
      "contractName": "MaseerGate",
      "contractAddress": "0xa5cb218db3c128adfb326b262232ce58396ee63a",
      "function": null,
      "arguments": null,
      "transaction": {
        "from": "0xccadea5cc24204995a98daa056c37bd5207fd0c5",
        "gas": "0x1bb98d",
        "value": "0x0",
        "input": "0x6080604052348015600e575f5ffd5b50601633601a565b6081565b607e7f27ad9db40d40315deb7c9733dae204372b3012815db31bb8e8e56d6c68d6ac248260405160200160609291909182526001600160a01b0316602082015260400190565b60408051601f19818403018152919052805160209091012060019055565b50565b61180a8061008e5f395ff3fe608060405234801561000f575f5ffd5b50600436106101dc575f3560e01c8063787a08a611610109578063a943dc6c1161009e578063cb1626251161006e578063cb1626251461036c578063d502562514610374578063ef86cf5614610389578063fbd252461461039c575f5ffd5b8063a943dc6c14610341578063bbec93fa14610349578063bce6d67214610351578063bf353dbb14610359575f5ffd5b806398b836da116100d957806398b836da146103165780639c52a7f11461031e578063a03738dc14610331578063a07c7ce414610339575f5ffd5b8063787a08a6146102e057806378f86afc146102e857806391915ef8146102fb578063965745801461030e575f5ffd5b80634fc3f41a1161017f57806365fae35e1161014f57806365fae35e1461029f5780636c88d9e1146102b257806371ebdf4e146102ba5780637486bf47146102cd575f5ffd5b80634fc3f41a1461025e57806359361d8e146102715780635c4f46ed146102845780635cfc1a5114610297575f5ffd5b806329cbec1a116101ba57806329cbec1a146102235780632c0405271461022b5780633fb362b41461023e5780634bf365df14610246575f5ffd5b80631447cdf9146101e0578063168ff4f9146101f557806329ae811414610210575b5f5ffd5b6101f36101ee366004611426565b6103af565b005b6101fd610499565b6040519081526020015b60405180910390f35b6101f361021e36600461143d565b6104bb565b6101fd6106ed565b6101f3610239366004611426565b61071c565b6101fd6107e8565b61024e610812565b6040519015158152602001610207565b6101f361026c366004611426565b610835565b6101f361027f366004611426565b6108f8565b6101fd610292366004611426565b6109b9565b6101fd6109d1565b6101f36102ad36600461145d565b6109fb565b6101fd610a7d565b6101f36102c8366004611426565b610a87565b6101f36102db366004611426565b610b48565b6101fd610c14565b6101f36102f6366004611490565b610c3e565b6101f3610309366004611426565b610d16565b6101fd610d98565b6101fd610dc2565b6101f361032c36600461145d565b610deb565b6101f3610e6d565b61024e610f0c565b6101fd610f27565b6101fd610f31565b6101fd610f3b565b6101fd61036736600461145d565b610f65565b6101fd610fbb565b61037c610fe5565b60405161020791906114fe565b6101fd610397366004611426565b611010565b6101f36103aa366004611426565b611022565b604080517f27ad9db40d40315deb7c9733dae204372b3012815db31bb8e8e56d6c68d6ac2460208201523391810191909152610403906060015b604051602081830303815290604052805190602001205490565b600114610443576040517f4a0bfec10000000000000000000000000000000000000000000000000000000081523360048201526024015b60405180910390fd5b610451426301e1338061157e565b81111561048d576040517f35802fa30000000000000000000000000000000000000000000000000000000081526004810182905260240161043a565b610496816110ee565b50565b5f5f6104a36106ed565b9050428110156104b3575f6104b5565b805b91505090565b604080517f27ad9db40d40315deb7c9733dae204372b3012815db31bb8e8e56d6c68d6ac24602082015233918101919091526104f9906060016103e9565b600114610534576040517f4a0bfec100000000000000000000000000000000000000000000000000000000815233600482015260240161043a565b817f6f70656e6d696e74000000000000000000000000000000000000000000000000036105685761056481611117565b5050565b817f68616c746d696e74000000000000000000000000000000000000000000000000036105985761056481611140565b817f6f70656e6275726e000000000000000000000000000000000000000000000000036105c857610564816110ee565b817f68616c746275726e000000000000000000000000000000000000000000000000036105f85761056481611169565b817f627073696e000000000000000000000000000000000000000000000000000000036106285761056481611192565b817f6270736f757400000000000000000000000000000000000000000000000000000361065857610564816111ba565b817f636f6f6c646f776e0000000000000000000000000000000000000000000000000361068857610564816111e3565b817f6361706163697479000000000000000000000000000000000000000000000000036106b8576105648161120c565b6040517f35802fa30000000000000000000000000000000000000000000000000000000081526004810183905260240161043a565b5f6107177f9c2ad2c21e274c8b57052f9f0ef73dd8f6e1d917d156e1368bb7cc739cf1f4b1611235565b905090565b604080517f27ad9db40d40315deb7c9733dae204372b3012815db31bb8e8e56d6c68d6ac246020820152339181019190915261075a906060016103e9565b600114610795576040517f4a0bfec100000000000000000000000000000000000000000000000000000000815233600482015260240161043a565b6107a3426301e1338061157e565b8111156107df576040517f35802fa30000000000000000000000000000000000000000000000000000000081526004810182905260240161043a565b61049681611140565b5f6107177ffcb92606a933a3a2fc95ea37ffc5f3cf5a7a2f3776ccd27ff295f4bc9846f3e6611235565b5f61081b610f3b565b4210158015610717575061082d610fbb565b421115905090565b604080517f27ad9db40d40315deb7c9733dae204372b3012815db31bb8e8e56d6c68d6ac2460208201523391810191909152610873906060016103e9565b6001146108ae576040517f4a0bfec100000000000000000000000000000000000000000000000000000000815233600482015260240161043a565b6301e133808111156108ef576040517f35802fa30000000000000000000000000000000000000000000000000000000081526004810182905260240161043a565b610496816111e3565b604080517f27ad9db40d40315deb7c9733dae204372b3012815db31bb8e8e56d6c68d6ac2460208201523391810191909152610936906060016103e9565b600114610971576040517f4a0bfec100000000000000000000000000000000000000000000000000000000815233600482015260240161043a565b6127108111156109b0576040517f35802fa30000000000000000000000000000000000000000000000000000000081526004810182905260240161043a565b61049681611192565b5f6109cb826109c6610dc2565b61123e565b92915050565b5f6107177f223eebe857eb33ee31fe46155467a9e23b253715020bbb26850d321fdc3146ab611235565b604080517f27ad9db40d40315deb7c9733dae204372b3012815db31bb8e8e56d6c68d6ac2460208201523391810191909152610a39906060016103e9565b600114610a74576040517f4a0bfec100000000000000000000000000000000000000000000000000000000815233600482015260240161043a565b61049681611267565b5f5f6104a3610f3b565b604080517f27ad9db40d40315deb7c9733dae204372b3012815db31bb8e8e56d6c68d6ac2460208201523391810191909152610ac5906060016103e9565b600114610b00576040517f4a0bfec100000000000000000000000000000000000000000000000000000000815233600482015260240161043a565b612710811115610b3f576040517f35802fa30000000000000000000000000000000000000000000000000000000081526004810182905260240161043a565b610496816111ba565b604080517f27ad9db40d40315deb7c9733dae204372b3012815db31bb8e8e56d6c68d6ac2460208201523391810191909152610b86906060016103e9565b600114610bc1576040517f4a0bfec100000000000000000000000000000000000000000000000000000000815233600482015260240161043a565b610bcf426301e1338061157e565b811115610c0b576040517f35802fa30000000000000000000000000000000000000000000000000000000081526004810182905260240161043a565b61049681611169565b5f6107177f09e5415ecbe88722a362e8ef1260b911b06c7c85eb60dd940ec2508f025009c7611235565b604080517f27ad9db40d40315deb7c9733dae204372b3012815db31bb8e8e56d6c68d6ac2460208201523391810191909152610c7c906060016103e9565b600114610cb7576040517f4a0bfec100000000000000000000000000000000000000000000000000000000815233600482015260240161043a565b6105647f22e8a156959d742c5752b74b16cb9f8ea7f952f101df0ae0892c22c2d7b19d2a83838080601f0160208091040260200160405190810160405280939291908181526020018383808284375f920191909152506112da92505050565b604080517f27ad9db40d40315deb7c9733dae204372b3012815db31bb8e8e56d6c68d6ac2460208201523391810191909152610d54906060016103e9565b600114610d8f576040517f4a0bfec100000000000000000000000000000000000000000000000000000000815233600482015260240161043a565b6104968161120c565b5f6107177ff6f62fd4da7bc2b32a6e1e65b29fc84ac47127fe667e702bfad2a308be5e31f3611235565b5f6107177e157179f0e328e9155f0e7f3bacad2e41db42b1e0800a411a594382df7a1e64611235565b604080517f27ad9db40d40315deb7c9733dae204372b3012815db31bb8e8e56d6c68d6ac2460208201523391810191909152610e29906060016103e9565b600114610e64576040517f4a0bfec100000000000000000000000000000000000000000000000000000000815233600482015260240161043a565b610496816112ec565b604080517f27ad9db40d40315deb7c9733dae204372b3012815db31bb8e8e56d6c68d6ac2460208201523391810191909152610eab906060016103e9565b600114610ee6576040517f4a0bfec100000000000000000000000000000000000000000000000000000000815233600482015260240161043a565b610eef5f611117565b610ef85f611140565b610f015f6110ee565b610f0a5f611169565b565b5f610f156106ed565b4210158015610717575061082d6107e8565b5f5f6104a3610fbb565b5f5f6104a36107e8565b5f6107177fbe1a4dea2a7bf3bca8caa6d30da3b6665e2e170da688038ad0b7269f2e0ebf91611235565b5f6109cb7f27ad9db40d40315deb7c9733dae204372b3012815db31bb8e8e56d6c68d6ac24836040516020016103e992919091825273ffffffffffffffffffffffffffffffffffffffff16602082015260400190565b5f6107177fc6806e07b5185a5f2a4a279b21328cdfc10302bba8d637663c0af6df2ce3b5da611235565b60606107177f22e8a156959d742c5752b74b16cb9f8ea7f952f101df0ae0892c22c2d7b19d2a61135e565b5f6109cb8261101d610d98565b6113f4565b604080517f27ad9db40d40315deb7c9733dae204372b3012815db31bb8e8e56d6c68d6ac2460208201523391810191909152611060906060016103e9565b60011461109b576040517f4a0bfec100000000000000000000000000000000000000000000000000000000815233600482015260240161043a565b6110a9426301e1338061157e565b8111156110e5576040517f35802fa30000000000000000000000000000000000000000000000000000000081526004810182905260240161043a565b61049681611117565b6104967f9c2ad2c21e274c8b57052f9f0ef73dd8f6e1d917d156e1368bb7cc739cf1f4b1829055565b6104967fbe1a4dea2a7bf3bca8caa6d30da3b6665e2e170da688038ad0b7269f2e0ebf91829055565b6104967fc6806e07b5185a5f2a4a279b21328cdfc10302bba8d637663c0af6df2ce3b5da829055565b6104967ffcb92606a933a3a2fc95ea37ffc5f3cf5a7a2f3776ccd27ff295f4bc9846f3e6829055565b6104967e157179f0e328e9155f0e7f3bacad2e41db42b1e0800a411a594382df7a1e64829055565b6104967ff6f62fd4da7bc2b32a6e1e65b29fc84ac47127fe667e702bfad2a308be5e31f3829055565b6104967f09e5415ecbe88722a362e8ef1260b911b06c7c85eb60dd940ec2508f025009c7829055565b6104967f223eebe857eb33ee31fe46155467a9e23b253715020bbb26850d321fdc3146ab829055565b5f6109cb825490565b5f61126061124e8361271061157e565b6112589085611591565b612710611404565b9392505050565b6104967f27ad9db40d40315deb7c9733dae204372b3012815db31bb8e8e56d6c68d6ac24826040516020016112bc92919091825273ffffffffffffffffffffffffffffffffffffffff16602082015260400190565b6040516020818303038152906040528051906020012060015f1b9055565b81806112e68382611672565b50505050565b6104967f27ad9db40d40315deb7c9733dae204372b3012815db31bb8e8e56d6c68d6ac248260405160200161134192919091825273ffffffffffffffffffffffffffffffffffffffff16602082015260400190565b604051602081830303815290604052805190602001205f5f1b9055565b805460609082908190611370906115d5565b80601f016020809104026020016040519081016040528092919081815260200182805461139c906115d5565b80156113e75780601f106113be576101008083540402835291602001916113e7565b820191905f5260205f20905b8154815290600101906020018083116113ca57829003601f168201915b5050505050915050919050565b5f61126061124e83612710611789565b5f816001611412828661157e565b61141c9190611789565b611260919061179c565b5f60208284031215611436575f5ffd5b5035919050565b5f5f6040838503121561144e575f5ffd5b50508035926020909101359150565b5f6020828403121561146d575f5ffd5b813573ffffffffffffffffffffffffffffffffffffffff81168114611260575f5ffd5b5f5f602083850312156114a1575f5ffd5b823567ffffffffffffffff8111156114b7575f5ffd5b8301601f810185136114c7575f5ffd5b803567ffffffffffffffff8111156114dd575f5ffd5b8560208284010111156114ee575f5ffd5b6020919091019590945092505050565b602081525f82518060208401528060208501604085015e5f6040828501015260407fffffffffffffffffffffffffffffffffffffffffffffffffffffffffffffffe0601f83011684010191505092915050565b7f4e487b71000000000000000000000000000000000000000000000000000000005f52601160045260245ffd5b808201808211156109cb576109cb611551565b80820281158282048414176109cb576109cb611551565b7f4e487b71000000000000000000000000000000000000000000000000000000005f52604160045260245ffd5b600181811c908216806115e957607f821691505b602082108103611620577f4e487b71000000000000000000000000000000000000000000000000000000005f52602260045260245ffd5b50919050565b601f82111561166d57805f5260205f20601f840160051c8101602085101561164b5750805b601f840160051c820191505b8181101561166a575f8155600101611657565b50505b505050565b815167ffffffffffffffff81111561168c5761168c6115a8565b6116a08161169a84546115d5565b84611626565b6020601f8211600181146116f1575f83156116bb5750848201515b7fffffffffffffffffffffffffffffffffffffffffffffffffffffffffffffffff600385901b1c1916600184901b17845561166a565b5f848152602081207fffffffffffffffffffffffffffffffffffffffffffffffffffffffffffffffe08516915b8281101561173e578785015182556020948501946001909201910161171e565b508482101561177a57868401517fffffffffffffffffffffffffffffffffffffffffffffffffffffffffffffffff600387901b60f8161c191681555b50505050600190811b01905550565b818103818111156109cb576109cb611551565b5f826117cf577f4e487b71000000000000000000000000000000000000000000000000000000005f52601260045260245ffd5b50049056fea2646970667358221220bb4745b2e4350f54d6746da3b146866c1dc30aff5ef8759201039ba7c717b8b364736f6c634300081d0033",
        "nonce": "0x48",
        "chainId": "0x1"
      },
      "additionalContracts": [],
      "isFixedGasLimit": false
    },
    {
      "hash": "0x781f178cdc97a8b6122ff38b8defee4232685b59d15616356d8717dbf4b032e0",
      "transactionType": "CREATE",
      "contractName": "MaseerProxy",
      "contractAddress": "0xd5b61ee60e89c4c068bc8f9628d0a36d8ed1e08c",
      "function": null,
      "arguments": [
        "0xa5cB218dB3C128ADfb326b262232Ce58396eE63a"
      ],
      "transaction": {
        "from": "0xccadea5cc24204995a98daa056c37bd5207fd0c5",
        "gas": "0x7327c",
        "value": "0x0",
        "input": "0x608060405234801561000f575f5ffd5b506040516105ec3803806105ec83398101604081905261002e91610168565b610039336001610051565b610042336100b7565b61004b8161011d565b50610195565b5f7f312ed9ac9b839e579b0572e42b6b61a1d0e768aa92df633e58ace1e6a3633e79836040516020016100979291909182526001600160a01b0316602082015260400190565b604051602081830303815290604052805190602001209050818155505050565b5f7f27ad9db40d40315deb7c9733dae204372b3012815db31bb8e8e56d6c68d6ac24826040516020016100fd9291909182526001600160a01b0316602082015260400190565b604051602081830303815290604052805190602001209050600181555050565b6001600160a01b038116610144576040516318ce8b9560e31b815260040160405180910390fd5b7f0e4c00c0fe9fb028e73dd325b95165d8884bc26853613a6b5131a12effdd8ddd55565b5f60208284031215610178575f5ffd5b81516001600160a01b038116811461018e575f5ffd5b9392505050565b61044a806101a25f395ff3fe608060405234801561000f575f5ffd5b5060043610610065575f3560e01c8063266a164a1161004e578063266a164a146100d957806360cd9853146100ec5780638abf60771461011257610065565b8063048046c1146100b35780630715940e146100c6575b5f61008e7f0e4c00c0fe9fb028e73dd325b95165d8884bc26853613a6b5131a12effdd8ddd5490565b9050604051365f82375f5f3683855af43d5f833e8080156100ad573d83f35b3d83fd5b005b6100b16100c13660046103da565b61013f565b6100b16100d43660046103da565b61018d565b6100b16100e73660046103da565b6101d9565b6100ff6100fa3660046103da565b610226565b6040519081526020015b60405180910390f35b61011a610236565b60405173ffffffffffffffffffffffffffffffffffffffff9091168152602001610109565b61014833610264565b600114610181576040517fea8e4eb500000000000000000000000000000000000000000000000000000000815260040160405180910390fd5b61018a816102f6565b50565b61019633610264565b6001146101cf576040517fea8e4eb500000000000000000000000000000000000000000000000000000000815260040160405180910390fd5b61018a815f610367565b6101e233610264565b60011461021b576040517fea8e4eb500000000000000000000000000000000000000000000000000000000815260040160405180910390fd5b61018a816001610367565b5f61023082610264565b92915050565b5f61025f7f0e4c00c0fe9fb028e73dd325b95165d8884bc26853613a6b5131a12effdd8ddd5490565b905090565b5f5f7f312ed9ac9b839e579b0572e42b6b61a1d0e768aa92df633e58ace1e6a3633e79836040516020016102b892919091825273ffffffffffffffffffffffffffffffffffffffff16602082015260400190565b604080517fffffffffffffffffffffffffffffffffffffffffffffffffffffffffffffffe08184030181529190528051602090910120549392505050565b73ffffffffffffffffffffffffffffffffffffffff8116610343576040517fc6745ca800000000000000000000000000000000000000000000000000000000815260040160405180910390fd5b7f0e4c00c0fe9fb028e73dd325b95165d8884bc26853613a6b5131a12effdd8ddd55565b5f7f312ed9ac9b839e579b0572e42b6b61a1d0e768aa92df633e58ace1e6a3633e79836040516020016103ba92919091825273ffffffffffffffffffffffffffffffffffffffff16602082015260400190565b604051602081830303815290604052805190602001209050818155505050565b5f602082840312156103ea575f5ffd5b813573ffffffffffffffffffffffffffffffffffffffff8116811461040d575f5ffd5b939250505056fea264697066735822122066097d3f930be8a5c492d5dbcdcab6d022aaca32a5e785d3ee4941a031ea110f64736f6c634300081d0033000000000000000000000000a5cb218db3c128adfb326b262232ce58396ee63a",
        "nonce": "0x49",
        "chainId": "0x1"
      },
      "additionalContracts": [],
      "isFixedGasLimit": false
    },
    {
      "hash": "0xa5fa95edb2a1fee1eb50373742f936179350b4c3d163a36095793fbc1750f295",
      "transactionType": "CREATE",
      "contractName": "MaseerTreasury",
      "contractAddress": "0x5ac573bd64022e88452421786f536b7084286faa",
      "function": null,
      "arguments": null,
      "transaction": {
        "from": "0xccadea5cc24204995a98daa056c37bd5207fd0c5",
        "gas": "0x78a3b",
        "value": "0x0",
        "input": "0x6080604052348015600e575f5ffd5b506105ee8061001c5f395ff3fe608060405234801561000f575f5ffd5b506004361061006f575f3560e01c80639c52a7f11161004d5780639c52a7f1146100c3578063bc0505f0146100d6578063bf353dbb146100e9575f5ffd5b80635711caaf1461007357806365fae35e1461009b57806375aa3cd1146100b0575b5f5ffd5b610086610081366004610585565b61010a565b60405190151581526020015b60405180910390f35b6100ae6100a9366004610585565b61011d565b005b6100ae6100be366004610585565b6101bd565b6100ae6100d1366004610585565b610240565b6100ae6100e4366004610585565b6102c2565b6100fc6100f7366004610585565b610346565b604051908152602001610092565b5f610114826103a2565b60011492915050565b604080517f27ad9db40d40315deb7c9733dae204372b3012815db31bb8e8e56d6c68d6ac2460208201523391810191909152610171906060015b604051602081830303815290604052805190602001205490565b6001146101b1576040517f4a0bfec10000000000000000000000000000000000000000000000000000000081523360048201526024015b60405180910390fd5b6101ba8161041e565b50565b604080517f27ad9db40d40315deb7c9733dae204372b3012815db31bb8e8e56d6c68d6ac24602082015233918101919091526101fb90606001610157565b600114610236576040517f4a0bfec10000000000000000000000000000000000000000000000000000000081523360048201526024016101a8565b6101ba815f610491565b604080517f27ad9db40d40315deb7c9733dae204372b3012815db31bb8e8e56d6c68d6ac246020820152339181019190915261027e90606001610157565b6001146102b9576040517f4a0bfec10000000000000000000000000000000000000000000000000000000081523360048201526024016101a8565b6101ba8161050a565b604080517f27ad9db40d40315deb7c9733dae204372b3012815db31bb8e8e56d6c68d6ac246020820152339181019190915261030090606001610157565b60011461033b576040517f4a0bfec10000000000000000000000000000000000000000000000000000000081523360048201526024016101a8565b6101ba816001610491565b5f61039c7f27ad9db40d40315deb7c9733dae204372b3012815db31bb8e8e56d6c68d6ac248360405160200161015792919091825273ffffffffffffffffffffffffffffffffffffffff16602082015260400190565b92915050565b5f5f7f2c21f3d83b4a8aed4587d3e87ae205de8e022583c725dabdf3d39d5b8645c1b6836040516020016103f692919091825273ffffffffffffffffffffffffffffffffffffffff16602082015260400190565b6040516020818303038152906040528051906020012090506104178161057c565b9392505050565b6101ba7f27ad9db40d40315deb7c9733dae204372b3012815db31bb8e8e56d6c68d6ac248260405160200161047392919091825273ffffffffffffffffffffffffffffffffffffffff16602082015260400190565b6040516020818303038152906040528051906020012060015f1b9055565b5f7f2c21f3d83b4a8aed4587d3e87ae205de8e022583c725dabdf3d39d5b8645c1b6836040516020016104e492919091825273ffffffffffffffffffffffffffffffffffffffff16602082015260400190565b60405160208183030381529060405280519060200120905061050581839055565b505050565b6101ba7f27ad9db40d40315deb7c9733dae204372b3012815db31bb8e8e56d6c68d6ac248260405160200161055f92919091825273ffffffffffffffffffffffffffffffffffffffff16602082015260400190565b604051602081830303815290604052805190602001205f5f1b9055565b5f61039c825490565b5f60208284031215610595575f5ffd5b813573ffffffffffffffffffffffffffffffffffffffff81168114610417575f5ffdfea264697066735822122013c95404d7f2c67c55d9c15eaeadaa156274807337b941759eae6de10142931a64736f6c634300081d0033",
        "nonce": "0x4a",
        "chainId": "0x1"
      },
      "additionalContracts": [],
      "isFixedGasLimit": false
    },
    {
      "hash": "0x362f4dfcbad007eae64010e6271ee6aa9c89ac3a3a61f4e2e37fb837fef98794",
      "transactionType": "CREATE",
      "contractName": "MaseerProxy",
      "contractAddress": "0xb9a83116abd6bf3476fc5819deeb91f63cafdca2",
      "function": null,
      "arguments": [
        "0x5AC573Bd64022E88452421786f536B7084286Faa"
      ],
      "transaction": {
        "from": "0xccadea5cc24204995a98daa056c37bd5207fd0c5",
        "gas": "0x7327c",
        "value": "0x0",
        "input": "0x608060405234801561000f575f5ffd5b506040516105ec3803806105ec83398101604081905261002e91610168565b610039336001610051565b610042336100b7565b61004b8161011d565b50610195565b5f7f312ed9ac9b839e579b0572e42b6b61a1d0e768aa92df633e58ace1e6a3633e79836040516020016100979291909182526001600160a01b0316602082015260400190565b604051602081830303815290604052805190602001209050818155505050565b5f7f27ad9db40d40315deb7c9733dae204372b3012815db31bb8e8e56d6c68d6ac24826040516020016100fd9291909182526001600160a01b0316602082015260400190565b604051602081830303815290604052805190602001209050600181555050565b6001600160a01b038116610144576040516318ce8b9560e31b815260040160405180910390fd5b7f0e4c00c0fe9fb028e73dd325b95165d8884bc26853613a6b5131a12effdd8ddd55565b5f60208284031215610178575f5ffd5b81516001600160a01b038116811461018e575f5ffd5b9392505050565b61044a806101a25f395ff3fe608060405234801561000f575f5ffd5b5060043610610065575f3560e01c8063266a164a1161004e578063266a164a146100d957806360cd9853146100ec5780638abf60771461011257610065565b8063048046c1146100b35780630715940e146100c6575b5f61008e7f0e4c00c0fe9fb028e73dd325b95165d8884bc26853613a6b5131a12effdd8ddd5490565b9050604051365f82375f5f3683855af43d5f833e8080156100ad573d83f35b3d83fd5b005b6100b16100c13660046103da565b61013f565b6100b16100d43660046103da565b61018d565b6100b16100e73660046103da565b6101d9565b6100ff6100fa3660046103da565b610226565b6040519081526020015b60405180910390f35b61011a610236565b60405173ffffffffffffffffffffffffffffffffffffffff9091168152602001610109565b61014833610264565b600114610181576040517fea8e4eb500000000000000000000000000000000000000000000000000000000815260040160405180910390fd5b61018a816102f6565b50565b61019633610264565b6001146101cf576040517fea8e4eb500000000000000000000000000000000000000000000000000000000815260040160405180910390fd5b61018a815f610367565b6101e233610264565b60011461021b576040517fea8e4eb500000000000000000000000000000000000000000000000000000000815260040160405180910390fd5b61018a816001610367565b5f61023082610264565b92915050565b5f61025f7f0e4c00c0fe9fb028e73dd325b95165d8884bc26853613a6b5131a12effdd8ddd5490565b905090565b5f5f7f312ed9ac9b839e579b0572e42b6b61a1d0e768aa92df633e58ace1e6a3633e79836040516020016102b892919091825273ffffffffffffffffffffffffffffffffffffffff16602082015260400190565b604080517fffffffffffffffffffffffffffffffffffffffffffffffffffffffffffffffe08184030181529190528051602090910120549392505050565b73ffffffffffffffffffffffffffffffffffffffff8116610343576040517fc6745ca800000000000000000000000000000000000000000000000000000000815260040160405180910390fd5b7f0e4c00c0fe9fb028e73dd325b95165d8884bc26853613a6b5131a12effdd8ddd55565b5f7f312ed9ac9b839e579b0572e42b6b61a1d0e768aa92df633e58ace1e6a3633e79836040516020016103ba92919091825273ffffffffffffffffffffffffffffffffffffffff16602082015260400190565b604051602081830303815290604052805190602001209050818155505050565b5f602082840312156103ea575f5ffd5b813573ffffffffffffffffffffffffffffffffffffffff8116811461040d575f5ffd5b939250505056fea264697066735822122066097d3f930be8a5c492d5dbcdcab6d022aaca32a5e785d3ee4941a031ea110f64736f6c634300081d00330000000000000000000000005ac573bd64022e88452421786f536b7084286faa",
        "nonce": "0x4b",
        "chainId": "0x1"
      },
      "additionalContracts": [],
      "isFixedGasLimit": false
    },
    {
      "hash": "0xf50a0c65161c5fa5ca463c469aa469dad237d28085fc6c74b882c6febc271717",
      "transactionType": "CREATE",
      "contractName": "MaseerGuard",
      "contractAddress": "0x0853b0570df010b8da89915782533fba0a1185a0",
      "function": null,
      "arguments": [
        "0xdAC17F958D2ee523a2206206994597C13D831ec7"
      ],
      "transaction": {
        "from": "0xccadea5cc24204995a98daa056c37bd5207fd0c5",
        "gas": "0x659d0",
        "value": "0x0",
        "input": "0x60a0604052348015600e575f5ffd5b50604051610554380380610554833981016040819052602b91603b565b6001600160a01b03166080526066565b5f60208284031215604a575f5ffd5b81516001600160a01b0381168114605f575f5ffd5b9392505050565b6080516104d06100845f395f81816082015261020c01526104d05ff3fe608060405234801561000f575f5ffd5b5060043610610064575f3560e01c806382c4b3b21161004d57806382c4b3b2146100ce5780639c52a7f1146100f1578063bf353dbb14610104575f5ffd5b806365fae35e1461006857806367e828bf1461007d575b5f5ffd5b61007b610076366004610441565b610125565b005b6100a47f000000000000000000000000000000000000000000000000000000000000000081565b60405173ffffffffffffffffffffffffffffffffffffffff90911681526020015b60405180910390f35b6100e16100dc366004610441565b6101c5565b60405190151581526020016100c5565b61007b6100ff366004610441565b61027e565b610117610112366004610441565b610300565b6040519081526020016100c5565b604080517f27ad9db40d40315deb7c9733dae204372b3012815db31bb8e8e56d6c68d6ac2460208201523391810191909152610179906060015b604051602081830303815290604052805190602001205490565b6001146101b9576040517f4a0bfec10000000000000000000000000000000000000000000000000000000081523360048201526024015b60405180910390fd5b6101c28161035c565b50565b6040517f59bf1abe00000000000000000000000000000000000000000000000000000000815273ffffffffffffffffffffffffffffffffffffffff82811660048301525f917f0000000000000000000000000000000000000000000000000000000000000000909116906359bf1abe90602401602060405180830381865afa158015610253573d5f5f3e3d5ffd5b505050506040513d601f19601f82011682018060405250810190610277919061047b565b1592915050565b604080517f27ad9db40d40315deb7c9733dae204372b3012815db31bb8e8e56d6c68d6ac24602082015233918101919091526102bc9060600161015f565b6001146102f7576040517f4a0bfec10000000000000000000000000000000000000000000000000000000081523360048201526024016101b0565b6101c2816103cf565b5f6103567f27ad9db40d40315deb7c9733dae204372b3012815db31bb8e8e56d6c68d6ac248360405160200161015f92919091825273ffffffffffffffffffffffffffffffffffffffff16602082015260400190565b92915050565b6101c27f27ad9db40d40315deb7c9733dae204372b3012815db31bb8e8e56d6c68d6ac24826040516020016103b192919091825273ffffffffffffffffffffffffffffffffffffffff16602082015260400190565b6040516020818303038152906040528051906020012060015f1b9055565b6101c27f27ad9db40d40315deb7c9733dae204372b3012815db31bb8e8e56d6c68d6ac248260405160200161042492919091825273ffffffffffffffffffffffffffffffffffffffff16602082015260400190565b604051602081830303815290604052805190602001205f5f1b9055565b5f60208284031215610451575f5ffd5b813573ffffffffffffffffffffffffffffffffffffffff81168114610474575f5ffd5b9392505050565b5f6020828403121561048b575f5ffd5b81518015158114610474575f5ffdfea264697066735822122004e27abec2d140aae3c800b3906366e93a11cac1283ee60e961b96c8dc200c5b64736f6c634300081d0033000000000000000000000000dac17f958d2ee523a2206206994597c13d831ec7",
        "nonce": "0x4c",
        "chainId": "0x1"
      },
      "additionalContracts": [],
      "isFixedGasLimit": false
    },
    {
      "hash": "0x1b53475ae861e4ac34e6e09ae4be923317f8ad1caca2517d54ce250bdde63a55",
      "transactionType": "CREATE",
      "contractName": "MaseerProxy",
      "contractAddress": "0xb946b4c20522d23cccae926aceef6fc302f56609",
      "function": null,
      "arguments": [
        "0x0853B0570DF010B8Da89915782533fbA0a1185A0"
      ],
      "transaction": {
        "from": "0xccadea5cc24204995a98daa056c37bd5207fd0c5",
        "gas": "0x7327c",
        "value": "0x0",
        "input": "0x608060405234801561000f575f5ffd5b506040516105ec3803806105ec83398101604081905261002e91610168565b610039336001610051565b610042336100b7565b61004b8161011d565b50610195565b5f7f312ed9ac9b839e579b0572e42b6b61a1d0e768aa92df633e58ace1e6a3633e79836040516020016100979291909182526001600160a01b0316602082015260400190565b604051602081830303815290604052805190602001209050818155505050565b5f7f27ad9db40d40315deb7c9733dae204372b3012815db31bb8e8e56d6c68d6ac24826040516020016100fd9291909182526001600160a01b0316602082015260400190565b604051602081830303815290604052805190602001209050600181555050565b6001600160a01b038116610144576040516318ce8b9560e31b815260040160405180910390fd5b7f0e4c00c0fe9fb028e73dd325b95165d8884bc26853613a6b5131a12effdd8ddd55565b5f60208284031215610178575f5ffd5b81516001600160a01b038116811461018e575f5ffd5b9392505050565b61044a806101a25f395ff3fe608060405234801561000f575f5ffd5b5060043610610065575f3560e01c8063266a164a1161004e578063266a164a146100d957806360cd9853146100ec5780638abf60771461011257610065565b8063048046c1146100b35780630715940e146100c6575b5f61008e7f0e4c00c0fe9fb028e73dd325b95165d8884bc26853613a6b5131a12effdd8ddd5490565b9050604051365f82375f5f3683855af43d5f833e8080156100ad573d83f35b3d83fd5b005b6100b16100c13660046103da565b61013f565b6100b16100d43660046103da565b61018d565b6100b16100e73660046103da565b6101d9565b6100ff6100fa3660046103da565b610226565b6040519081526020015b60405180910390f35b61011a610236565b60405173ffffffffffffffffffffffffffffffffffffffff9091168152602001610109565b61014833610264565b600114610181576040517fea8e4eb500000000000000000000000000000000000000000000000000000000815260040160405180910390fd5b61018a816102f6565b50565b61019633610264565b6001146101cf576040517fea8e4eb500000000000000000000000000000000000000000000000000000000815260040160405180910390fd5b61018a815f610367565b6101e233610264565b60011461021b576040517fea8e4eb500000000000000000000000000000000000000000000000000000000815260040160405180910390fd5b61018a816001610367565b5f61023082610264565b92915050565b5f61025f7f0e4c00c0fe9fb028e73dd325b95165d8884bc26853613a6b5131a12effdd8ddd5490565b905090565b5f5f7f312ed9ac9b839e579b0572e42b6b61a1d0e768aa92df633e58ace1e6a3633e79836040516020016102b892919091825273ffffffffffffffffffffffffffffffffffffffff16602082015260400190565b604080517fffffffffffffffffffffffffffffffffffffffffffffffffffffffffffffffe08184030181529190528051602090910120549392505050565b73ffffffffffffffffffffffffffffffffffffffff8116610343576040517fc6745ca800000000000000000000000000000000000000000000000000000000815260040160405180910390fd5b7f0e4c00c0fe9fb028e73dd325b95165d8884bc26853613a6b5131a12effdd8ddd55565b5f7f312ed9ac9b839e579b0572e42b6b61a1d0e768aa92df633e58ace1e6a3633e79836040516020016103ba92919091825273ffffffffffffffffffffffffffffffffffffffff16602082015260400190565b604051602081830303815290604052805190602001209050818155505050565b5f602082840312156103ea575f5ffd5b813573ffffffffffffffffffffffffffffffffffffffff8116811461040d575f5ffd5b939250505056fea264697066735822122066097d3f930be8a5c492d5dbcdcab6d022aaca32a5e785d3ee4941a031ea110f64736f6c634300081d00330000000000000000000000000853b0570df010b8da89915782533fba0a1185a0",
        "nonce": "0x4d",
        "chainId": "0x1"
      },
      "additionalContracts": [],
      "isFixedGasLimit": false
    },
    {
      "hash": "0x5e5e8760dfa7ae8dd0d28b70f8eb1755cf256a9764dd8541379aea3cb143467e",
      "transactionType": "CREATE",
      "contractName": "MaseerConduit",
      "contractAddress": "0xb10d74543e0eb81dcc1d8e76da6c524b68dd4c80",
      "function": null,
      "arguments": null,
      "transaction": {
        "from": "0xccadea5cc24204995a98daa056c37bd5207fd0c5",
        "gas": "0xf014d",
        "value": "0x0",
        "input": "0x6080604052348015600e575f5ffd5b50601633601a565b6081565b607e7f27ad9db40d40315deb7c9733dae204372b3012815db31bb8e8e56d6c68d6ac248260405160200160609291909182526001600160a01b0316602082015260400190565b60408051601f19818403018152919052805160209091012060019055565b50565b610c5b8061008e5f395ff3fe608060405234801561000f575f5ffd5b50600436106100c4575f3560e01c8063a3b22fc41161007d578063bf353dbb11610058578063bf353dbb1461018c578063dc4d20fa1461019f578063f29c29c4146101b2575f5ffd5b8063a3b22fc414610147578063bb35783b1461015a578063bc206b0a1461016d575f5ffd5b806365c4ce7a116100ad57806365c4ce7a1461010c57806365fae35e146101215780639c52a7f114610134575f5ffd5b8063322265a8146100c85780634fce7a2a146100ed575b5f5ffd5b6100db6100d6366004610b4f565b6101c5565b60405190815260200160405180910390f35b6100db6100fb366004610b80565b60026020525f908152604090205481565b61011f61011a366004610b80565b610379565b005b61011f61012f366004610b80565b61042e565b61011f610142366004610b80565b6104b3565b61011f610155366004610b80565b610535565b6100db610168366004610ba0565b6105d7565b6100db61017b366004610b80565b60016020525f908152604090205481565b6100db61019a366004610b80565b6106fa565b61011f6101ad366004610b80565b610756565b61011f6101c0366004610b80565b6107f5565b335f90815260016020819052604082205414610214576040517f4a0bfec10000000000000000000000000000000000000000000000000000000081523360048201526024015b60405180910390fd5b73ffffffffffffffffffffffffffffffffffffffff82165f90815260026020526040902054829060011461028c576040517f4a0bfec100000000000000000000000000000000000000000000000000000000815273ffffffffffffffffffffffffffffffffffffffff8216600482015260240161020b565b73ffffffffffffffffffffffffffffffffffffffff84166102d9576040517fd92e233d00000000000000000000000000000000000000000000000000000000815260040160405180910390fd5b6040517f70a0823100000000000000000000000000000000000000000000000000000000815230600482015273ffffffffffffffffffffffffffffffffffffffff8516906370a0823190602401602060405180830381865afa158015610341573d5f5f3e3d5ffd5b505050506040513d601f19601f820116820180604052508101906103659190610bd9565b9150610372848484610897565b5092915050565b604080517f27ad9db40d40315deb7c9733dae204372b3012815db31bb8e8e56d6c68d6ac24602082015233918101919091526103cd906060015b604051602081830303815290604052805190602001205490565b600114610408576040517f4a0bfec100000000000000000000000000000000000000000000000000000000815233600482015260240161020b565b73ffffffffffffffffffffffffffffffffffffffff165f90815260026020526040812055565b604080517f27ad9db40d40315deb7c9733dae204372b3012815db31bb8e8e56d6c68d6ac246020820152339181019190915261046c906060016103b3565b6001146104a7576040517f4a0bfec100000000000000000000000000000000000000000000000000000000815233600482015260240161020b565b6104b081610902565b50565b604080517f27ad9db40d40315deb7c9733dae204372b3012815db31bb8e8e56d6c68d6ac24602082015233918101919091526104f1906060016103b3565b60011461052c576040517f4a0bfec100000000000000000000000000000000000000000000000000000000815233600482015260240161020b565b6104b081610975565b604080517f27ad9db40d40315deb7c9733dae204372b3012815db31bb8e8e56d6c68d6ac2460208201523391810191909152610573906060016103b3565b6001146105ae576040517f4a0bfec100000000000000000000000000000000000000000000000000000000815233600482015260240161020b565b73ffffffffffffffffffffffffffffffffffffffff165f90815260016020819052604090912055565b335f90815260016020819052604082205414610621576040517f4a0bfec100000000000000000000000000000000000000000000000000000000815233600482015260240161020b565b73ffffffffffffffffffffffffffffffffffffffff83165f908152600260205260409020548390600114610699576040517f4a0bfec100000000000000000000000000000000000000000000000000000000815273ffffffffffffffffffffffffffffffffffffffff8216600482015260240161020b565b73ffffffffffffffffffffffffffffffffffffffff85166106e6576040517fd92e233d00000000000000000000000000000000000000000000000000000000815260040160405180910390fd5b6106f1858585610897565b50909392505050565b5f6107507f27ad9db40d40315deb7c9733dae204372b3012815db31bb8e8e56d6c68d6ac24836040516020016103b392919091825273ffffffffffffffffffffffffffffffffffffffff16602082015260400190565b92915050565b604080517f27ad9db40d40315deb7c9733dae204372b3012815db31bb8e8e56d6c68d6ac2460208201523391810191909152610794906060016103b3565b6001146107cf576040517f4a0bfec100000000000000000000000000000000000000000000000000000000815233600482015260240161020b565b73ffffffffffffffffffffffffffffffffffffffff165f90815260016020526040812055565b604080517f27ad9db40d40315deb7c9733dae204372b3012815db31bb8e8e56d6c68d6ac2460208201523391810191909152610833906060016103b3565b60011461086e576040517f4a0bfec100000000000000000000000000000000000000000000000000000000815233600482015260240161020b565b73ffffffffffffffffffffffffffffffffffffffff165f90815260026020526040902060019055565b6108a28383836109e7565b808273ffffffffffffffffffffffffffffffffffffffff168473ffffffffffffffffffffffffffffffffffffffff167fdeb3a6837278f6e9914a507e4d73f08e841d8fca434fb97d4307b3b0d3d6b10560405160405180910390a4505050565b6104b07f27ad9db40d40315deb7c9733dae204372b3012815db31bb8e8e56d6c68d6ac248260405160200161095792919091825273ffffffffffffffffffffffffffffffffffffffff16602082015260400190565b6040516020818303038152906040528051906020012060015f1b9055565b6104b07f27ad9db40d40315deb7c9733dae204372b3012815db31bb8e8e56d6c68d6ac24826040516020016109ca92919091825273ffffffffffffffffffffffffffffffffffffffff16602082015260400190565b604051602081830303815290604052805190602001205f5f1b9055565b6040805173ffffffffffffffffffffffffffffffffffffffff8481166024830152604480830185905283518084039091018152606490920183526020820180517bffffffffffffffffffffffffffffffffffffffffffffffffffffffff167fa9059cbb0000000000000000000000000000000000000000000000000000000017905291515f92839290871691610a7d9190610bf0565b5f604051808303815f865af19150503d805f8114610ab6576040519150601f19603f3d011682016040523d82523d5f602084013e610abb565b606091505b5091509150811580610ae957505f8151118015610ae9575080806020019051810190610ae79190610c06565b155b15610b20576040517f90b8ec1800000000000000000000000000000000000000000000000000000000815260040160405180910390fd5b5050505050565b803573ffffffffffffffffffffffffffffffffffffffff81168114610b4a575f5ffd5b919050565b5f5f60408385031215610b60575f5ffd5b610b6983610b27565b9150610b7760208401610b27565b90509250929050565b5f60208284031215610b90575f5ffd5b610b9982610b27565b9392505050565b5f5f5f60608486031215610bb2575f5ffd5b610bbb84610b27565b9250610bc960208501610b27565b9150604084013590509250925092565b5f60208284031215610be9575f5ffd5b5051919050565b5f82518060208501845e5f920191825250919050565b5f60208284031215610c16575f5ffd5b81518015158114610b99575f5ffdfea2646970667358221220393648b5fc97ef76f0719467d5fbe91cc6973cc7915b3b90327c07254b2f7cbe64736f6c634300081d0033",
        "nonce": "0x4e",
        "chainId": "0x1"
      },
      "additionalContracts": [],
      "isFixedGasLimit": false
    },
    {
      "hash": "0xa121b34875caf272ebb244625ff708ccbdd3744a6417bf1bcca9382001b6ae84",
      "transactionType": "CREATE",
      "contractName": "MaseerProxy",
      "contractAddress": "0x9e0924075bb6696e70f638336ee36e3bd9a130c7",
      "function": null,
      "arguments": [
        "0xb10d74543e0eB81dcc1D8E76da6c524b68DD4c80"
      ],
      "transaction": {
        "from": "0xccadea5cc24204995a98daa056c37bd5207fd0c5",
        "gas": "0x7327c",
        "value": "0x0",
        "input": "0x608060405234801561000f575f5ffd5b506040516105ec3803806105ec83398101604081905261002e91610168565b610039336001610051565b610042336100b7565b61004b8161011d565b50610195565b5f7f312ed9ac9b839e579b0572e42b6b61a1d0e768aa92df633e58ace1e6a3633e79836040516020016100979291909182526001600160a01b0316602082015260400190565b604051602081830303815290604052805190602001209050818155505050565b5f7f27ad9db40d40315deb7c9733dae204372b3012815db31bb8e8e56d6c68d6ac24826040516020016100fd9291909182526001600160a01b0316602082015260400190565b604051602081830303815290604052805190602001209050600181555050565b6001600160a01b038116610144576040516318ce8b9560e31b815260040160405180910390fd5b7f0e4c00c0fe9fb028e73dd325b95165d8884bc26853613a6b5131a12effdd8ddd55565b5f60208284031215610178575f5ffd5b81516001600160a01b038116811461018e575f5ffd5b9392505050565b61044a806101a25f395ff3fe608060405234801561000f575f5ffd5b5060043610610065575f3560e01c8063266a164a1161004e578063266a164a146100d957806360cd9853146100ec5780638abf60771461011257610065565b8063048046c1146100b35780630715940e146100c6575b5f61008e7f0e4c00c0fe9fb028e73dd325b95165d8884bc26853613a6b5131a12effdd8ddd5490565b9050604051365f82375f5f3683855af43d5f833e8080156100ad573d83f35b3d83fd5b005b6100b16100c13660046103da565b61013f565b6100b16100d43660046103da565b61018d565b6100b16100e73660046103da565b6101d9565b6100ff6100fa3660046103da565b610226565b6040519081526020015b60405180910390f35b61011a610236565b60405173ffffffffffffffffffffffffffffffffffffffff9091168152602001610109565b61014833610264565b600114610181576040517fea8e4eb500000000000000000000000000000000000000000000000000000000815260040160405180910390fd5b61018a816102f6565b50565b61019633610264565b6001146101cf576040517fea8e4eb500000000000000000000000000000000000000000000000000000000815260040160405180910390fd5b61018a815f610367565b6101e233610264565b60011461021b576040517fea8e4eb500000000000000000000000000000000000000000000000000000000815260040160405180910390fd5b61018a816001610367565b5f61023082610264565b92915050565b5f61025f7f0e4c00c0fe9fb028e73dd325b95165d8884bc26853613a6b5131a12effdd8ddd5490565b905090565b5f5f7f312ed9ac9b839e579b0572e42b6b61a1d0e768aa92df633e58ace1e6a3633e79836040516020016102b892919091825273ffffffffffffffffffffffffffffffffffffffff16602082015260400190565b604080517fffffffffffffffffffffffffffffffffffffffffffffffffffffffffffffffe08184030181529190528051602090910120549392505050565b73ffffffffffffffffffffffffffffffffffffffff8116610343576040517fc6745ca800000000000000000000000000000000000000000000000000000000815260040160405180910390fd5b7f0e4c00c0fe9fb028e73dd325b95165d8884bc26853613a6b5131a12effdd8ddd55565b5f7f312ed9ac9b839e579b0572e42b6b61a1d0e768aa92df633e58ace1e6a3633e79836040516020016103ba92919091825273ffffffffffffffffffffffffffffffffffffffff16602082015260400190565b604051602081830303815290604052805190602001209050818155505050565b5f602082840312156103ea575f5ffd5b813573ffffffffffffffffffffffffffffffffffffffff8116811461040d575f5ffd5b939250505056fea264697066735822122066097d3f930be8a5c492d5dbcdcab6d022aaca32a5e785d3ee4941a031ea110f64736f6c634300081d0033000000000000000000000000b10d74543e0eb81dcc1d8e76da6c524b68dd4c80",
        "nonce": "0x4f",
        "chainId": "0x1"
      },
      "additionalContracts": [],
      "isFixedGasLimit": false
    },
    {
      "hash": "0x709608615334d1f9125b62c02e8106c41256272f41e6497a3de621fe57d39117",
      "transactionType": "CREATE",
      "contractName": "MaseerOne",
      "contractAddress": "0x1a88e0a996c0c024e8b14f88b28a1e20863307ab",
      "function": null,
      "arguments": [
        "0xdAC17F958D2ee523a2206206994597C13D831ec7",
        "0x7267dC183d5259AC33Fd80322E62fc052efdad66",
        "0xD5B61Ee60e89c4C068BC8F9628d0a36D8eD1e08c",
        "0xb9A83116Abd6BF3476FC5819dEEB91f63CaFdCa2",
        "0xb946b4c20522d23cCCaE926aceEF6fc302f56609",
        "0x9E0924075bb6696E70f638336eE36E3Bd9a130C7",
        "CANA Holdings California Carbon Credits",
        "CANA"
      ],
      "transaction": {
        "from": "0xccadea5cc24204995a98daa056c37bd5207fd0c5",
        "gas": "0x34fa00",
        "value": "0x0",
        "input": "0x610180604052348015610010575f5ffd5b506040516132e63803806132e683398101604081905261002f916101f5565b8181600361003d8382610340565b50600461004a8282610340565b504660a05261005761008f565b6080525050506001600160a01b0396871660c0525093851660e05291841661010052831661012052821661014052166101605261046b565b5f7f8b73c3c69bb8fe3d512ecc4cf759cc79239f7b179b0ffacaa9a75d522b39400f60036040516100c091906103fa565b60408051918290038220828201825260018352603160f81b6020938401528151928301939093528101919091527fc89efdaa54c0f20c7adf612882df0950f5a951637e0307cdcb4c672f298b8bc660608201524660808201523060a082015260c00160405160208183030381529060405280519060200120905090565b80516001600160a01b0381168114610153575f5ffd5b919050565b634e487b7160e01b5f52604160045260245ffd5b5f82601f83011261017b575f5ffd5b81516001600160401b0381111561019457610194610158565b604051601f8201601f19908116603f011681016001600160401b03811182821017156101c2576101c2610158565b6040528181528382016020018510156101d9575f5ffd5b8160208501602083015e5f918101602001919091529392505050565b5f5f5f5f5f5f5f5f610100898b03121561020d575f5ffd5b6102168961013d565b975061022460208a0161013d565b965061023260408a0161013d565b955061024060608a0161013d565b945061024e60808a0161013d565b935061025c60a08a0161013d565b60c08a01519093506001600160401b03811115610277575f5ffd5b6102838b828c0161016c565b60e08b015190935090506001600160401b038111156102a0575f5ffd5b6102ac8b828c0161016c565b9150509295985092959890939650565b600181811c908216806102d057607f821691505b6020821081036102ee57634e487b7160e01b5f52602260045260245ffd5b50919050565b601f82111561033b57805f5260205f20601f840160051c810160208510156103195750805b601f840160051c820191505b81811015610338575f8155600101610325565b50505b505050565b81516001600160401b0381111561035957610359610158565b61036d8161036784546102bc565b846102f4565b6020601f82116001811461039f575f83156103885750848201515b5f19600385901b1c1916600184901b178455610338565b5f84815260208120601f198516915b828110156103ce57878501518255602094850194600190920191016103ae565b50848210156103eb57868401515f19600387901b60f8161c191681555b50505050600190811b01905550565b5f5f8354610407816102bc565b60018216801561041e576001811461043357610460565b60ff1983168652811515820286019350610460565b865f5260205f205f5b838110156104585781548882015260019091019060200161043c565b505081860193505b509195945050505050565b60805160a05160c05160e05161010051610120516101405161016051612da961053d5f395f818161039701528181610946015261098701525f81816104d50152611adb01525f81816102e10152818161129c015261142901525f818161072c01528181610c40015281816110fd01528181611575015281816120820152818161218401528181612206015261229e01525f81816106ad01526120ec01525f818161052b0152818161092501528181610e5f015281816110940152611bee01525f610be601525f610c1b0152612da95ff3fe608060405234801561000f575f5ffd5b50600436106102d8575f3560e01c806370a0823111610187578063ad1a2396116100dd578063d741e2f911610093578063dd62ed3e1161006e578063dd62ed3e146106f5578063ede750941461071f578063ee42b10b14610727575f5ffd5b8063d741e2f9146106a8578063daea85c5146106cf578063db006a75146106e2575f5ffd5b8063cc872b66116100c3578063cc872b661461067a578063d50256251461068d578063d505accf14610695575f5ffd5b8063ad1a2396146105c5578063beb65893146105d8575f5ffd5b806394c3cbf41161013d578063a0712d6811610118578063a0712d6814610597578063a07c7ce4146105aa578063a9059cbb146105b2575f5ffd5b806394c3cbf41461057f57806395d89b4114610587578063973efb5c1461058f575f5ffd5b80637bd2bea71161016d5780637bd2bea7146105265780637ecebe001461054d5780637f8661a11461056c575f5ffd5b806370a08231146104ff578063787a08a61461051e575f5ffd5b806326ea37991161023c5780634bf365df116101f25780635cfc1a51116101cd5780635cfc1a51146104c85780635f7efbea146104d05780636c96474f146104f7575f5ffd5b80634bf365df146104805780634d773aa61461048857806351f5d98d14610490575f5ffd5b80633644e515116102225780633644e515146104275780633f90916a1461042f57806342c4a1aa14610438575f5ffd5b806326ea379914610404578063313ce5671461040d575f5ffd5b806311da60b411610291578063219df1cc11610277578063219df1cc146103c957806323b872dd146103de578063248c11f5146103f1575f5ffd5b806311da60b4146103b957806318160ddd146103c1575f5ffd5b806306ff7a41116102c157806306ff7a4114610342578063095ea7b31461036f5780630a77bd4914610392575f5ffd5b806304d7aef2146102dc57806306fdde031461032d575b5f5ffd5b6103037f000000000000000000000000000000000000000000000000000000000000000081565b60405173ffffffffffffffffffffffffffffffffffffffff90911681526020015b60405180910390f35b61033561074e565b6040516103249190612862565b6103616103503660046128b5565b5f9081526008602052604090205490565b604051908152602001610324565b61038261037d3660046128f4565b6107da565b6040519015158152602001610324565b6103037f000000000000000000000000000000000000000000000000000000000000000081565b6103616108a3565b6103615f5481565b6103dc6103d73660046128b5565b6109d3565b005b6103826103ec36600461291c565b610a65565b6103826103ff366004612956565b610bd3565b61036160075481565b610415601281565b60405160ff9091168152602001610324565b610361610be3565b61036160065481565b6103616104463660046128b5565b5f908152600860205260409020600101547401000000000000000000000000000000000000000090046bffffffffffffffffffffffff1690565b610382610c3d565b610361610ccb565b61030361049e3660046128b5565b5f9081526008602052604090206001015473ffffffffffffffffffffffffffffffffffffffff1690565b610361610cfb565b6103037f000000000000000000000000000000000000000000000000000000000000000081565b610361610d04565b61036161050d366004612956565b60016020525f908152604090205481565b610361610d15565b6103037f000000000000000000000000000000000000000000000000000000000000000081565b61036161055b366004612956565b60056020525f908152604090205481565b61036161057a3660046128b5565b610d1e565b610361610eed565b610335610efe565b610361610f0b565b6103616105a53660046128b5565b610f14565b6103826110fa565b6103826105c03660046128f4565b611164565b6103dc6105d33660046128f4565b61126e565b61063c6105e63660046128b5565b60086020525f90815260409020805460019091015473ffffffffffffffffffffffffffffffffffffffff8116907401000000000000000000000000000000000000000090046bffffffffffffffffffffffff1683565b6040805193845273ffffffffffffffffffffffffffffffffffffffff90921660208401526bffffffffffffffffffffffff1690820152606001610324565b6103dc6106883660046128b5565b6113fb565b610335611571565b6103dc6106a336600461296f565b611620565b6103037f000000000000000000000000000000000000000000000000000000000000000081565b6103826106dd366004612956565b611743565b6103616106f03660046128b5565b611805565b6103616107033660046129dc565b600260209081525f928352604080842090915290825290205481565b610361611a72565b6103037f000000000000000000000000000000000000000000000000000000000000000081565b6003805461075b90612a0d565b80601f016020809104026020016040519081016040528092919081815260200182805461078790612a0d565b80156107d25780601f106107a9576101008083540402835291602001916107d2565b820191905f5260205f20905b8154815290600101906020018083116107b557829003601f168201915b505050505081565b5f336107e581611a94565b610838576040517f4a0bfec100000000000000000000000000000000000000000000000000000000815273ffffffffffffffffffffffffffffffffffffffff821660048201526024015b60405180910390fd5b8361084281611a94565b610890576040517f4a0bfec100000000000000000000000000000000000000000000000000000000815273ffffffffffffffffffffffffffffffffffffffff8216600482015260240161082f565b61089a8585611b46565b95945050505050565b5f336108ae81611a94565b6108fc576040517f4a0bfec100000000000000000000000000000000000000000000000000000000815273ffffffffffffffffffffffffffffffffffffffff8216600482015260240161082f565b5f610905611bbe565b60065490915080821161091b575f935050505090565b808203935061096b7f00000000000000000000000000000000000000000000000000000000000000007f000000000000000000000000000000000000000000000000000000000000000086611c6c565b604051849073ffffffffffffffffffffffffffffffffffffffff7f000000000000000000000000000000000000000000000000000000000000000016907f7823e479a1a4ebe2418874847436f8a1680c5ee5b17f38bb59dbff28e1b45552905f90a350505090565b336109dd81611a94565b610a2b576040517f4a0bfec100000000000000000000000000000000000000000000000000000000815273ffffffffffffffffffffffffffffffffffffffff8216600482015260240161082f565b610a353383611dac565b604051829033907f266ba2fe22d2b352fe1eb8c45b5d486ff3c0b83ef953959b6d34397d53fb088d905f90a35050565b5f33610a7081611a94565b610abe576040517f4a0bfec100000000000000000000000000000000000000000000000000000000815273ffffffffffffffffffffffffffffffffffffffff8216600482015260240161082f565b84610ac881611a94565b610b16576040517f4a0bfec100000000000000000000000000000000000000000000000000000000815273ffffffffffffffffffffffffffffffffffffffff8216600482015260240161082f565b84610b2081611a94565b610b6e576040517f4a0bfec100000000000000000000000000000000000000000000000000000000815273ffffffffffffffffffffffffffffffffffffffff8216600482015260240161082f565b3073ffffffffffffffffffffffffffffffffffffffff871603610bbd576040517f3a49fd5c00000000000000000000000000000000000000000000000000000000815260040160405180910390fd5b610bc8878787611e3d565b979650505050505050565b5f610bdd82611a94565b92915050565b5f7f00000000000000000000000000000000000000000000000000000000000000004614610c1857610c13611fb5565b905090565b507f000000000000000000000000000000000000000000000000000000000000000090565b5f7f000000000000000000000000000000000000000000000000000000000000000073ffffffffffffffffffffffffffffffffffffffff16634bf365df6040518163ffffffff1660e01b8152600401602060405180830381865afa158015610ca7573d5f5f3e3d5ffd5b505050506040513d601f19601f82011682018060405250810190610c139190612a5e565b5f5f610cd5611bbe565b90506006548111610cf35780600654610cee9190612aaa565b610cf5565b5f5b91505090565b5f610c1361207f565b5f610c13610d106120e9565b612153565b5f610c13612203565b5f33610d2981611a94565b610d77576040517f4a0bfec100000000000000000000000000000000000000000000000000000000815273ffffffffffffffffffffffffffffffffffffffff8216600482015260240161082f565b5f83815260086020526040902060018101547401000000000000000000000000000000000000000090046bffffffffffffffffffffffff1642811115610dec576040517f774cceca0000000000000000000000000000000000000000000000000000000081526004810182905260240161082f565b805f03610e25576040517f9b604d0b00000000000000000000000000000000000000000000000000000000815260040160405180910390fd5b81545f610e30611bbe565b9050808210610e3f5780610e41565b815b600680548290039055845481900385556001850154909650610e9b907f00000000000000000000000000000000000000000000000000000000000000009073ffffffffffffffffffffffffffffffffffffffff1688611c6c565b6001840154604051879173ffffffffffffffffffffffffffffffffffffffff169089907f786e090d783caced3baddcb29bd555ffb93faf484529ab87feab4ec4c48a81e1905f90a45050505050919050565b5f610c13610ef96120e9565b61226d565b6004805461075b90612a0d565b5f610c136120e9565b5f610f1d610c3d565b610f53576040517f0b5f6bf000000000000000000000000000000000000000000000000000000000815260040160405180910390fd5b33610f5d81611a94565b610fab576040517f4a0bfec100000000000000000000000000000000000000000000000000000000815273ffffffffffffffffffffffffffffffffffffffff8216600482015260240161082f565b5f610fb46120e9565b9050805f03610fee576040517ebfc92100000000000000000000000000000000000000000000000000000000815260040160405180910390fd5b610ff78161226d565b905080841015611036576040517fa4a050250000000000000000000000000000000000000000000000000000000081526004810182905260240161082f565b61104084826122e2565b925061104a61207f565b835f546110579190612abd565b111561108f576040517f2edaff4300000000000000000000000000000000000000000000000000000000815260040160405180910390fd5b6110bb7f0000000000000000000000000000000000000000000000000000000000000000333087612307565b6110c53384612450565b6040518390829033907f58781ca443f8e3ecffad28c83044b16c6e549d8e9c677aebb3b8ee176f99f53f905f90a45050919050565b5f7f000000000000000000000000000000000000000000000000000000000000000073ffffffffffffffffffffffffffffffffffffffff1663a07c7ce46040518163ffffffff1660e01b8152600401602060405180830381865afa158015610ca7573d5f5f3e3d5ffd5b5f3361116f81611a94565b6111bd576040517f4a0bfec100000000000000000000000000000000000000000000000000000000815273ffffffffffffffffffffffffffffffffffffffff8216600482015260240161082f565b836111c781611a94565b611215576040517f4a0bfec100000000000000000000000000000000000000000000000000000000815273ffffffffffffffffffffffffffffffffffffffff8216600482015260240161082f565b3073ffffffffffffffffffffffffffffffffffffffff861603611264576040517f3a49fd5c00000000000000000000000000000000000000000000000000000000815260040160405180910390fd5b61089a85856124be565b6040517f5711caaf0000000000000000000000000000000000000000000000000000000081523360048201527f000000000000000000000000000000000000000000000000000000000000000073ffffffffffffffffffffffffffffffffffffffff1690635711caaf90602401602060405180830381865afa1580156112f6573d5f5f3e3d5ffd5b505050506040513d601f19601f8201168201806040525081019061131a9190612a5e565b611352576040517f4a0bfec100000000000000000000000000000000000000000000000000000000815233600482015260240161082f565b3361135c81611a94565b6113aa576040517f4a0bfec100000000000000000000000000000000000000000000000000000000815273ffffffffffffffffffffffffffffffffffffffff8216600482015260240161082f565b6113b48383611dac565b604051829073ffffffffffffffffffffffffffffffffffffffff8516907f266ba2fe22d2b352fe1eb8c45b5d486ff3c0b83ef953959b6d34397d53fb088d905f90a3505050565b6040517f5711caaf0000000000000000000000000000000000000000000000000000000081523360048201527f000000000000000000000000000000000000000000000000000000000000000073ffffffffffffffffffffffffffffffffffffffff1690635711caaf90602401602060405180830381865afa158015611483573d5f5f3e3d5ffd5b505050506040513d601f19601f820116820180604052508101906114a79190612a5e565b6114df576040517f4a0bfec100000000000000000000000000000000000000000000000000000000815233600482015260240161082f565b336114e981611a94565b611537576040517f4a0bfec100000000000000000000000000000000000000000000000000000000815273ffffffffffffffffffffffffffffffffffffffff8216600482015260240161082f565b6115413383612450565b604051829033907fa59f12e354e8cd10bb74c559844c2dd69a5458e31fe56c7594c62ca57480509a905f90a35050565b60607f000000000000000000000000000000000000000000000000000000000000000073ffffffffffffffffffffffffffffffffffffffff1663d50256256040518163ffffffff1660e01b81526004015f60405180830381865afa1580156115db573d5f5f3e3d5ffd5b505050506040513d5f823e601f3d9081017fffffffffffffffffffffffffffffffffffffffffffffffffffffffffffffffe0168201604052610c139190810190612afd565b3361162a81611a94565b611678576040517f4a0bfec100000000000000000000000000000000000000000000000000000000815273ffffffffffffffffffffffffffffffffffffffff8216600482015260240161082f565b8761168281611a94565b6116d0576040517f4a0bfec100000000000000000000000000000000000000000000000000000000815273ffffffffffffffffffffffffffffffffffffffff8216600482015260240161082f565b876116da81611a94565b611728576040517f4a0bfec100000000000000000000000000000000000000000000000000000000815273ffffffffffffffffffffffffffffffffffffffff8216600482015260240161082f565b6117378a8a8a8a8a8a8a612541565b50505050505050505050565b5f3361174e81611a94565b61179c576040517f4a0bfec100000000000000000000000000000000000000000000000000000000815273ffffffffffffffffffffffffffffffffffffffff8216600482015260240161082f565b826117a681611a94565b6117f4576040517f4a0bfec100000000000000000000000000000000000000000000000000000000815273ffffffffffffffffffffffffffffffffffffffff8216600482015260240161082f565b6117fd84612823565b949350505050565b5f61180e6110fa565b611844576040517f0b5f6bf000000000000000000000000000000000000000000000000000000000815260040160405180910390fd5b3361184e81611a94565b61189c576040517f4a0bfec100000000000000000000000000000000000000000000000000000000815273ffffffffffffffffffffffffffffffffffffffff8216600482015260240161082f565b670de0b6b3a76400008310156118e8576040517fa4a05025000000000000000000000000000000000000000000000000000000008152670de0b6b3a7640000600482015260240161082f565b5f6118f16120e9565b9050805f0361192b576040517ebfc92100000000000000000000000000000000000000000000000000000000815260040160405180910390fd5b61193481612153565b90505f611941858361284e565b90508060065f8282546119549190612abd565b909155505060078054905f61196883612bed565b9190505593505f611977612203565b6119819042612abd565b604080516060810182528481523360208083018281526bffffffffffffffffffffffff8087168587019081525f8d81526008909452959092209351845551935116740100000000000000000000000000000000000000000273ffffffffffffffffffffffffffffffffffffffff9390931692909217600190910155909150611a099087611dac565b3373ffffffffffffffffffffffffffffffffffffffff16816bffffffffffffffffffffffff16867f5a084092180e1b482afdddc2a20027f4d3619225151fb1a9934c119cd7307f3285604051611a6191815260200190565b60405180910390a450505050919050565b5f5f611a7c611bbe565b90506006548110610cf357600654610cee9082612aaa565b6040517f82c4b3b200000000000000000000000000000000000000000000000000000000815273ffffffffffffffffffffffffffffffffffffffff82811660048301525f917f0000000000000000000000000000000000000000000000000000000000000000909116906382c4b3b290602401602060405180830381865afa158015611b22573d5f5f3e3d5ffd5b505050506040513d601f19601f82011682018060405250810190610bdd9190612a5e565b335f81815260026020908152604080832073ffffffffffffffffffffffffffffffffffffffff8716808552925280832085905551919290917f8c5be1e5ebec7d5bd14f71427d1e84f3dd0314c0f7b2291e5b200ac8c7c3b92590611bad9086815260200190565b60405180910390a350600192915050565b6040517f70a082310000000000000000000000000000000000000000000000000000000081523060048201525f907f000000000000000000000000000000000000000000000000000000000000000073ffffffffffffffffffffffffffffffffffffffff16906370a0823190602401602060405180830381865afa158015611c48573d5f5f3e3d5ffd5b505050506040513d601f19601f82011682018060405250810190610c139190612c24565b6040805173ffffffffffffffffffffffffffffffffffffffff8481166024830152604480830185905283518084039091018152606490920183526020820180517bffffffffffffffffffffffffffffffffffffffffffffffffffffffff167fa9059cbb0000000000000000000000000000000000000000000000000000000017905291515f92839290871691611d029190612c3b565b5f604051808303815f865af19150503d805f8114611d3b576040519150601f19603f3d011682016040523d82523d5f602084013e611d40565b606091505b5091509150811580611d6e57505f8151118015611d6e575080806020019051810190611d6c9190612a5e565b155b15611da5576040517f90b8ec1800000000000000000000000000000000000000000000000000000000815260040160405180910390fd5b5050505050565b73ffffffffffffffffffffffffffffffffffffffff82165f9081526001602052604081208054839290611de0908490612aaa565b90915550505f8054829003815560405182815273ffffffffffffffffffffffffffffffffffffffff8416907fddf252ad1be2c89b69c2b068fc378daa952ba7f163c4a11628f55a4df523b3ef906020015b60405180910390a35050565b73ffffffffffffffffffffffffffffffffffffffff83165f9081526002602090815260408083203384529091528120547fffffffffffffffffffffffffffffffffffffffffffffffffffffffffffffffff8114611ecf57611e9e8382612aaa565b73ffffffffffffffffffffffffffffffffffffffff86165f9081526002602090815260408083203384529091529020555b73ffffffffffffffffffffffffffffffffffffffff85165f9081526001602052604081208054859290611f03908490612aaa565b909155505073ffffffffffffffffffffffffffffffffffffffff84165f9081526001602052604081208054859290611f3c908490612abd565b925050819055508373ffffffffffffffffffffffffffffffffffffffff168573ffffffffffffffffffffffffffffffffffffffff167fddf252ad1be2c89b69c2b068fc378daa952ba7f163c4a11628f55a4df523b3ef85604051611fa291815260200190565b60405180910390a3506001949350505050565b5f7f8b73c3c69bb8fe3d512ecc4cf759cc79239f7b179b0ffacaa9a75d522b39400f6003604051611fe69190612c51565b604080519182900382208282018252600183527f31000000000000000000000000000000000000000000000000000000000000006020938401528151928301939093528101919091527fc89efdaa54c0f20c7adf612882df0950f5a951637e0307cdcb4c672f298b8bc660608201524660808201523060a082015260c00160405160208183030381529060405280519060200120905090565b5f7f000000000000000000000000000000000000000000000000000000000000000073ffffffffffffffffffffffffffffffffffffffff16635cfc1a516040518163ffffffff1660e01b8152600401602060405180830381865afa158015611c48573d5f5f3e3d5ffd5b5f7f000000000000000000000000000000000000000000000000000000000000000073ffffffffffffffffffffffffffffffffffffffff166357de26a46040518163ffffffff1660e01b8152600401602060405180830381865afa158015611c48573d5f5f3e3d5ffd5b6040517fef86cf56000000000000000000000000000000000000000000000000000000008152600481018290525f907f000000000000000000000000000000000000000000000000000000000000000073ffffffffffffffffffffffffffffffffffffffff169063ef86cf56906024015b602060405180830381865afa1580156121df573d5f5f3e3d5ffd5b505050506040513d601f19601f82011682018060405250810190610bdd9190612c24565b5f7f000000000000000000000000000000000000000000000000000000000000000073ffffffffffffffffffffffffffffffffffffffff1663787a08a66040518163ffffffff1660e01b8152600401602060405180830381865afa158015611c48573d5f5f3e3d5ffd5b6040517f5c4f46ed000000000000000000000000000000000000000000000000000000008152600481018290525f907f000000000000000000000000000000000000000000000000000000000000000073ffffffffffffffffffffffffffffffffffffffff1690635c4f46ed906024016121c4565b5f816122f6670de0b6b3a764000085612d24565b6123009190612d3b565b9392505050565b6040805173ffffffffffffffffffffffffffffffffffffffff85811660248301528481166044830152606480830185905283518084039091018152608490920183526020820180517bffffffffffffffffffffffffffffffffffffffffffffffffffffffff167f23b872dd0000000000000000000000000000000000000000000000000000000017905291515f928392908816916123a59190612c3b565b5f604051808303815f865af19150503d805f81146123de576040519150601f19603f3d011682016040523d82523d5f602084013e6123e3565b606091505b509150915081158061241157505f815111801561241157508080602001905181019061240f9190612a5e565b155b15612448576040517f90b8ec1800000000000000000000000000000000000000000000000000000000815260040160405180910390fd5b505050505050565b805f5f8282546124609190612abd565b909155505073ffffffffffffffffffffffffffffffffffffffff82165f818152600160209081526040808320805486019055518481527fddf252ad1be2c89b69c2b068fc378daa952ba7f163c4a11628f55a4df523b3ef9101611e31565b335f908152600160205260408120805483919083906124de908490612aaa565b909155505073ffffffffffffffffffffffffffffffffffffffff83165f81815260016020526040908190208054850190555133907fddf252ad1be2c89b69c2b068fc378daa952ba7f163c4a11628f55a4df523b3ef90611bad9086815260200190565b42841015612584576040517fc4773cba0000000000000000000000000000000000000000000000000000000081526004810185905242602482015260440161082f565b5f600161258f610be3565b73ffffffffffffffffffffffffffffffffffffffff8a81165f8181526005602090815260409182902080546001810190915582517f6e71edae12b1b97f4d1f60370fef10105fa2faae0126114a169c64845d6126c98184015280840194909452938d166060840152608083018c905260a083019390935260c08083018b90528151808403909101815260e0830190915280519201919091207f190100000000000000000000000000000000000000000000000000000000000061010083015261010282019290925261012281019190915261014201604080517fffffffffffffffffffffffffffffffffffffffffffffffffffffffffffffffe081840301815282825280516020918201205f84529083018083525260ff871690820152606081018590526080810184905260a0016020604051602081039080840390855afa1580156126dd573d5f5f3e3d5ffd5b50506040517fffffffffffffffffffffffffffffffffffffffffffffffffffffffffffffffe0015191505073ffffffffffffffffffffffffffffffffffffffff8116158061275757508773ffffffffffffffffffffffffffffffffffffffff168173ffffffffffffffffffffffffffffffffffffffff1614155b156127ae576040517f7ba5ffb500000000000000000000000000000000000000000000000000000000815273ffffffffffffffffffffffffffffffffffffffff80831660048301528916602482015260440161082f565b73ffffffffffffffffffffffffffffffffffffffff9081165f9081526002602090815260408083208a8516808552908352928190208990555188815291928a16917f8c5be1e5ebec7d5bd14f71427d1e84f3dd0314c0f7b2291e5b200ac8c7c3b925910160405180910390a350505050505050565b5f610bdd827fffffffffffffffffffffffffffffffffffffffffffffffffffffffffffffffff6107da565b5f670de0b6b3a76400006122f68385612d24565b602081525f82518060208401528060208501604085015e5f6040828501015260407fffffffffffffffffffffffffffffffffffffffffffffffffffffffffffffffe0601f83011684010191505092915050565b5f602082840312156128c5575f5ffd5b5035919050565b803573ffffffffffffffffffffffffffffffffffffffff811681146128ef575f5ffd5b919050565b5f5f60408385031215612905575f5ffd5b61290e836128cc565b946020939093013593505050565b5f5f5f6060848603121561292e575f5ffd5b612937846128cc565b9250612945602085016128cc565b929592945050506040919091013590565b5f60208284031215612966575f5ffd5b612300826128cc565b5f5f5f5f5f5f5f60e0888a031215612985575f5ffd5b61298e886128cc565b965061299c602089016128cc565b95506040880135945060608801359350608088013560ff811681146129bf575f5ffd5b9699959850939692959460a0840135945060c09093013592915050565b5f5f604083850312156129ed575f5ffd5b6129f6836128cc565b9150612a04602084016128cc565b90509250929050565b600181811c90821680612a2157607f821691505b602082108103612a58577f4e487b71000000000000000000000000000000000000000000000000000000005f52602260045260245ffd5b50919050565b5f60208284031215612a6e575f5ffd5b81518015158114612300575f5ffd5b7f4e487b71000000000000000000000000000000000000000000000000000000005f52601160045260245ffd5b81810381811115610bdd57610bdd612a7d565b80820180821115610bdd57610bdd612a7d565b7f4e487b71000000000000000000000000000000000000000000000000000000005f52604160045260245ffd5b5f60208284031215612b0d575f5ffd5b815167ffffffffffffffff811115612b23575f5ffd5b8201601f81018413612b33575f5ffd5b805167ffffffffffffffff811115612b4d57612b4d612ad0565b6040517fffffffffffffffffffffffffffffffffffffffffffffffffffffffffffffffe0603f7fffffffffffffffffffffffffffffffffffffffffffffffffffffffffffffffe0601f8501160116810181811067ffffffffffffffff82111715612bb957612bb9612ad0565b604052818152828201602001861015612bd0575f5ffd5b8160208401602083015e5f91810160200191909152949350505050565b5f7fffffffffffffffffffffffffffffffffffffffffffffffffffffffffffffffff8203612c1d57612c1d612a7d565b5060010190565b5f60208284031215612c34575f5ffd5b5051919050565b5f82518060208501845e5f920191825250919050565b5f5f83545f8160011c90506001821680612c6c57607f821691505b602082108103612ca3577f4e487b71000000000000000000000000000000000000000000000000000000005f52602260045260245ffd5b808015612cb75760018114612cea57612d18565b7fffffffffffffffffffffffffffffffffffffffffffffffffffffffffffffff0084168752821515830287019450612d18565b5f888152602090205f5b84811015612d1057815489820152600190910190602001612cf4565b505082870194505b50929695505050505050565b8082028115828204841417610bdd57610bdd612a7d565b5f82612d6e577f4e487b71000000000000000000000000000000000000000000000000000000005f52601260045260245ffd5b50049056fea2646970667358221220f3805a0c36fd63afe9347964743e5c37585f03494b78db0e2465f49e17ae0de164736f6c634300081d0033000000000000000000000000dac17f958d2ee523a2206206994597c13d831ec70000000000000000000000007267dc183d5259ac33fd80322e62fc052efdad66000000000000000000000000d5b61ee60e89c4c068bc8f9628d0a36d8ed1e08c000000000000000000000000b9a83116abd6bf3476fc5819deeb91f63cafdca2000000000000000000000000b946b4c20522d23cccae926aceef6fc302f566090000000000000000000000009e0924075bb6696e70f638336ee36e3bd9a130c700000000000000000000000000000000000000000000000000000000000001000000000000000000000000000000000000000000000000000000000000000160000000000000000000000000000000000000000000000000000000000000002743414e4120486f6c64696e67732043616c69666f726e696120436172626f6e204372656469747300000000000000000000000000000000000000000000000000000000000000000000000000000000000000000000000000000000000000000443414e4100000000000000000000000000000000000000000000000000000000",
        "nonce": "0x50",
        "chainId": "0x1"
      },
      "additionalContracts": [],
      "isFixedGasLimit": false
    },
    {
      "hash": "0x0dae4281e17c61171daa6ab41867e2df0ac84f407bca8af280b611d14ec4dcd3",
      "transactionType": "CREATE",
      "contractName": "MaseerPrecommit",
      "contractAddress": "0x1fa926b0f325bd4930e4fd0d7d291c7dcc1fdb67",
      "function": null,
      "arguments": [
        "0x1A88E0a996c0c024e8b14F88B28a1E20863307aB"
      ],
      "transaction": {
        "from": "0xccadea5cc24204995a98daa056c37bd5207fd0c5",
        "gas": "0x10d8fa",
        "value": "0x0",
        "input": "0x60e060405234801561000f575f5ffd5b5060405161110f38038061110f83398101604081905261002e91610185565b806001600160a01b0316637bd2bea76040518163ffffffff1660e01b8152600401602060405180830381865afa15801561006a573d5f5f3e3d5ffd5b505050506040513d601f19601f8201168201806040525081019061008e9190610185565b6001600160a01b031660808190526040805163313ce56760e01b8152905163313ce567916004808201926020929091908290030181865afa1580156100d5573d5f5f3e3d5ffd5b505050506040513d601f19601f820116820180604052508101906100f991906101b2565b6101079060ff16600a6102cb565b610113906103e86102d6565b60c0526001600160a01b0381811660a081905260805160405163095ea7b360e01b815260048101929092525f1960248301529091169063095ea7b3906044015f604051808303815f87803b158015610169575f5ffd5b505af115801561017b573d5f5f3e3d5ffd5b50505050506102ed565b5f60208284031215610195575f5ffd5b81516001600160a01b03811681146101ab575f5ffd5b9392505050565b5f602082840312156101c2575f5ffd5b815160ff811681146101ab575f5ffd5b634e487b7160e01b5f52601160045260245ffd5b6001815b600184111561022157808504811115610205576102056101d2565b600184161561021357908102905b60019390931c9280026101ea565b935093915050565b5f82610237575060016102c5565b8161024357505f6102c5565b816001811461025957600281146102635761027f565b60019150506102c5565b60ff841115610274576102746101d2565b50506001821b6102c5565b5060208310610133831016604e8410600b84101617156102a2575081810a6102c5565b6102ae5f1984846101e6565b805f19048211156102c1576102c16101d2565b0290505b92915050565b5f6101ab8383610229565b80820281158282048414176102c5576102c56101d2565b60805160a05160c051610dac6103635f395f818161021d015261034f01525f818161013e015281816102920152818161054801528181610624015281816107900152818161094801526109c601525f818160dd015281816103dd01528181610603015281816106dd01526108dd0152610dac5ff3fe608060405234801561000f575f5ffd5b50600436106100b9575f3560e01c8063c959c42b11610072578063f873cb9111610058578063f873cb9114610208578063f88979451461021b578063fde788f614610241575f5ffd5b8063c959c42b14610195578063e9fad8ee14610200575f5ffd5b806389506000116100a25780638950600014610124578063901717d114610139578063c659cd4514610160575f5ffd5b80630f752fe8146100bd5780637bd2bea7146100d8575b5f5ffd5b6100c55f5481565b6040519081526020015b60405180910390f35b6100ff7f000000000000000000000000000000000000000000000000000000000000000081565b60405173ffffffffffffffffffffffffffffffffffffffff90911681526020016100cf565b610137610132366004610c7d565b610264565b005b6100ff7f000000000000000000000000000000000000000000000000000000000000000081565b6100ff61016e366004610c7d565b5f9081526001602052604090205473ffffffffffffffffffffffffffffffffffffffff1690565b6101d46101a3366004610c7d565b600160208190525f9182526040909120805491015473ffffffffffffffffffffffffffffffffffffffff9091169082565b6040805173ffffffffffffffffffffffffffffffffffffffff90931683526020830191909152016100cf565b61013761051a565b610137610216366004610c7d565b610762565b7f00000000000000000000000000000000000000000000000000000000000000006100c5565b6100c561024f366004610c7d565b5f908152600160208190526040909120015490565b6040517f248c11f50000000000000000000000000000000000000000000000000000000081523360048201527f000000000000000000000000000000000000000000000000000000000000000073ffffffffffffffffffffffffffffffffffffffff169063248c11f590602401602060405180830381865afa1580156102ec573d5f5f3e3d5ffd5b505050506040513d601f19601f820116820180604052508101906103109190610c94565b61034d576040517f4a0bfec10000000000000000000000000000000000000000000000000000000081523360048201526024015b60405180910390fd5b7f00000000000000000000000000000000000000000000000000000000000000008110156103a7576040517f5945ea5600000000000000000000000000000000000000000000000000000000815260040160405180910390fd5b6040517fdd62ed3e00000000000000000000000000000000000000000000000000000000815233600482015230602482015281907f000000000000000000000000000000000000000000000000000000000000000073ffffffffffffffffffffffffffffffffffffffff169063dd62ed3e90604401602060405180830381865afa158015610437573d5f5f3e3d5ffd5b505050506040513d601f19601f8201168201806040525081019061045b9190610cba565b1015610493576040517f13be252b00000000000000000000000000000000000000000000000000000000815260040160405180910390fd5b60408051808201909152338152602081018290525f80546001919081806104b983610cd1565b9091555081526020808201929092526040015f20825181547fffffffffffffffffffffffff00000000000000000000000000000000000000001673ffffffffffffffffffffffffffffffffffffffff90911617815591015160019091015550565b6040517f248c11f50000000000000000000000000000000000000000000000000000000081523360048201527f000000000000000000000000000000000000000000000000000000000000000073ffffffffffffffffffffffffffffffffffffffff169063248c11f590602401602060405180830381865afa1580156105a2573d5f5f3e3d5ffd5b505050506040513d601f19601f820116820180604052508101906105c69190610c94565b6105fe576040517f4a0bfec1000000000000000000000000000000000000000000000000000000008152336004820152602401610344565b6107607f00000000000000000000000000000000000000000000000000000000000000007f000000000000000000000000000000000000000000000000000000000000000073ffffffffffffffffffffffffffffffffffffffff16630a77bd496040518163ffffffff1660e01b8152600401602060405180830381865afa15801561068b573d5f5f3e3d5ffd5b505050506040513d601f19601f820116820180604052508101906106af9190610d2d565b6040517f70a082310000000000000000000000000000000000000000000000000000000081523060048201527f000000000000000000000000000000000000000000000000000000000000000073ffffffffffffffffffffffffffffffffffffffff16906370a0823190602401602060405180830381865afa158015610737573d5f5f3e3d5ffd5b505050506040513d601f19601f8201168201806040525081019061075b9190610cba565b6109f4565b565b6040517f248c11f50000000000000000000000000000000000000000000000000000000081523360048201527f000000000000000000000000000000000000000000000000000000000000000073ffffffffffffffffffffffffffffffffffffffff169063248c11f590602401602060405180830381865afa1580156107ea573d5f5f3e3d5ffd5b505050506040513d601f19601f8201168201806040525081019061080e9190610c94565b610846576040517f4a0bfec1000000000000000000000000000000000000000000000000000000008152336004820152602401610344565b5f8181526001602081815260408084208151808301909252805473ffffffffffffffffffffffffffffffffffffffff168252909201549082018190529091036108bb576040517f5945ea5600000000000000000000000000000000000000000000000000000000815260040160405180910390fd5b5f828152600160208181526040832090910191909155815190820151610904917f0000000000000000000000000000000000000000000000000000000000000000913090610b34565b60208101516040517fa0712d680000000000000000000000000000000000000000000000000000000081525f9173ffffffffffffffffffffffffffffffffffffffff7f0000000000000000000000000000000000000000000000000000000000000000169163a0712d689161097f9160040190815260200190565b6020604051808303815f875af115801561099b573d5f5f3e3d5ffd5b505050506040513d601f19601f820116820180604052508101906109bf9190610cba565b90506109ef7f0000000000000000000000000000000000000000000000000000000000000000835f0151836109f4565b505050565b6040805173ffffffffffffffffffffffffffffffffffffffff8481166024830152604480830185905283518084039091018152606490920183526020820180517bffffffffffffffffffffffffffffffffffffffffffffffffffffffff167fa9059cbb0000000000000000000000000000000000000000000000000000000017905291515f92839290871691610a8a9190610d60565b5f604051808303815f865af19150503d805f8114610ac3576040519150601f19603f3d011682016040523d82523d5f602084013e610ac8565b606091505b5091509150811580610af657505f8151118015610af6575080806020019051810190610af49190610c94565b155b15610b2d576040517f90b8ec1800000000000000000000000000000000000000000000000000000000815260040160405180910390fd5b5050505050565b6040805173ffffffffffffffffffffffffffffffffffffffff85811660248301528481166044830152606480830185905283518084039091018152608490920183526020820180517bffffffffffffffffffffffffffffffffffffffffffffffffffffffff167f23b872dd0000000000000000000000000000000000000000000000000000000017905291515f92839290881691610bd29190610d60565b5f604051808303815f865af19150503d805f8114610c0b576040519150601f19603f3d011682016040523d82523d5f602084013e610c10565b606091505b5091509150811580610c3e57505f8151118015610c3e575080806020019051810190610c3c9190610c94565b155b15610c75576040517f90b8ec1800000000000000000000000000000000000000000000000000000000815260040160405180910390fd5b505050505050565b5f60208284031215610c8d575f5ffd5b5035919050565b5f60208284031215610ca4575f5ffd5b81518015158114610cb3575f5ffd5b9392505050565b5f60208284031215610cca575f5ffd5b5051919050565b5f7fffffffffffffffffffffffffffffffffffffffffffffffffffffffffffffffff8203610d26577f4e487b71000000000000000000000000000000000000000000000000000000005f52601160045260245ffd5b5060010190565b5f60208284031215610d3d575f5ffd5b815173ffffffffffffffffffffffffffffffffffffffff81168114610cb3575f5ffd5b5f82518060208501845e5f92019182525091905056fea2646970667358221220fda985c4f3ffdcb4fa991d2eeb164f29b35b7721b70a29be3b8a87f06dd573d264736f6c634300081d00330000000000000000000000001a88e0a996c0c024e8b14f88b28a1e20863307ab",
        "nonce": "0x51",
        "chainId": "0x1"
      },
      "additionalContracts": [],
      "isFixedGasLimit": false
    },
    {
      "hash": "0x8b4c5006a6c820953303014b302cd846fa133842c2fd21fea48147b9e6c08902",
      "transactionType": "CALL",
      "contractName": "MaseerProxy",
      "contractAddress": "0x7267dc183d5259ac33fd80322e62fc052efdad66",
      "function": null,
      "arguments": null,
      "transaction": {
        "from": "0xccadea5cc24204995a98daa056c37bd5207fd0c5",
        "to": "0x7267dc183d5259ac33fd80322e62fc052efdad66",
        "gas": "0x1407b",
        "value": "0x0",
        "input": "0xe9b674b96e616d650000000000000000000000000000000000000000000000000000000043414e4155534454000000000000000000000000000000000000000000000000",
        "nonce": "0x52",
        "chainId": "0x1"
      },
      "additionalContracts": [],
      "isFixedGasLimit": false
    },
    {
      "hash": "0x72d6b3cd13f27cd7922c486ff884c8c4e54019dd8a7b114c1b0264bed4e49b71",
      "transactionType": "CALL",
      "contractName": "MaseerProxy",
      "contractAddress": "0x7267dc183d5259ac33fd80322e62fc052efdad66",
      "function": null,
      "arguments": null,
      "transaction": {
        "from": "0xccadea5cc24204995a98daa056c37bd5207fd0c5",
        "to": "0x7267dc183d5259ac33fd80322e62fc052efdad66",
        "gas": "0x11c70",
        "value": "0x0",
        "input": "0xe9b674b9646563696d616c730000000000000000000000000000000000000000000000000000000000000000000000000000000000000000000000000000000000000006",
        "nonce": "0x53",
        "chainId": "0x1"
      },
      "additionalContracts": [],
      "isFixedGasLimit": false
    },
    {
      "hash": "0x2d377386669bf32b6eddf3f5c25d31bc5414e7d4a69ac7e8f02fff1d51459a18",
      "transactionType": "CALL",
      "contractName": "MaseerProxy",
      "contractAddress": "0x7267dc183d5259ac33fd80322e62fc052efdad66",
      "function": null,
      "arguments": null,
      "transaction": {
        "from": "0xccadea5cc24204995a98daa056c37bd5207fd0c5",
        "to": "0x7267dc183d5259ac33fd80322e62fc052efdad66",
        "gas": "0x12455",
        "value": "0x0",
        "input": "0xe9b674b9707269636500000000000000000000000000000000000000000000000000000000000000000000000000000000000000000000000000000000000000000f4240",
        "nonce": "0x54",
        "chainId": "0x1"
      },
      "additionalContracts": [],
      "isFixedGasLimit": false
    },
    {
      "hash": "0x8495b602eaac353cf37c43e4db544432cfc136d73dfd61df0a89003fcf6389a4",
      "transactionType": "CALL",
      "contractName": "MaseerProxy",
      "contractAddress": "0x7267dc183d5259ac33fd80322e62fc052efdad66",
      "function": null,
      "arguments": null,
      "transaction": {
        "from": "0xccadea5cc24204995a98daa056c37bd5207fd0c5",
        "to": "0x7267dc183d5259ac33fd80322e62fc052efdad66",
        "gas": "0x1147d",
        "value": "0x0",
        "input": "0xf29c29c4000000000000000000000000cf4f4eb6715e7c3d2ef6cec3dfb9215ce865826b",
        "nonce": "0x55",
        "chainId": "0x1"
      },
      "additionalContracts": [],
      "isFixedGasLimit": false
    },
    {
      "hash": "0xe721752213e24cd0527e93bef022019046b10a788ed16e80b8cb52ed9ffeb571",
      "transactionType": "CALL",
      "contractName": "MaseerProxy",
      "contractAddress": "0x7267dc183d5259ac33fd80322e62fc052efdad66",
      "function": null,
      "arguments": null,
      "transaction": {
        "from": "0xccadea5cc24204995a98daa056c37bd5207fd0c5",
        "to": "0x7267dc183d5259ac33fd80322e62fc052efdad66",
        "gas": "0x1150e",
        "value": "0x0",
        "input": "0x65fae35e000000000000000000000000b56f413dbce352cfd71f221029cfc84580133f66",
        "nonce": "0x56",
        "chainId": "0x1"
      },
      "additionalContracts": [],
      "isFixedGasLimit": false
    },
    {
      "hash": "0xecaf200319a9ea392671d3c4708cde89da9f5cad96f8a18630e6af0d98ac47ad",
      "transactionType": "CALL",
      "contractName": "MaseerProxy",
      "contractAddress": "0x7267dc183d5259ac33fd80322e62fc052efdad66",
      "function": "relyProxy(address)",
      "arguments": [
        "0xb56F413dbCe352cfd71f221029CFC84580133F66"
      ],
      "transaction": {
        "from": "0xccadea5cc24204995a98daa056c37bd5207fd0c5",
        "to": "0x7267dc183d5259ac33fd80322e62fc052efdad66",
        "gas": "0x108da",
        "value": "0x0",
        "input": "0x266a164a000000000000000000000000b56f413dbce352cfd71f221029cfc84580133f66",
        "nonce": "0x57",
        "chainId": "0x1"
      },
      "additionalContracts": [],
      "isFixedGasLimit": false
    },
    {
      "hash": "0xabc1651b03a146b125e44694203ad4d33f241ffbf4ef26ee743192d942a4ae2d",
      "transactionType": "CALL",
      "contractName": "MaseerProxy",
      "contractAddress": "0xd5b61ee60e89c4c068bc8f9628d0a36d8ed1e08c",
      "function": null,
      "arguments": null,
      "transaction": {
        "from": "0xccadea5cc24204995a98daa056c37bd5207fd0c5",
        "to": "0xd5b61ee60e89c4c068bc8f9628d0a36d8ed1e08c",
        "gas": "0x112f4",
        "value": "0x0",
        "input": "0x4fc3f41a0000000000000000000000000000000000000000000000000000000000093a80",
        "nonce": "0x58",
        "chainId": "0x1"
      },
      "additionalContracts": [],
      "isFixedGasLimit": false
    },
    {
      "hash": "0x1c3814cc75c69d081a210b49cd3caae4b4de9b411c49f88a9481684919f2b8dd",
      "transactionType": "CALL",
      "contractName": "MaseerProxy",
      "contractAddress": "0xd5b61ee60e89c4c068bc8f9628d0a36d8ed1e08c",
      "function": null,
      "arguments": null,
      "transaction": {
        "from": "0xccadea5cc24204995a98daa056c37bd5207fd0c5",
        "to": "0xd5b61ee60e89c4c068bc8f9628d0a36d8ed1e08c",
        "gas": "0x12381",
        "value": "0x0",
        "input": "0x91915ef800000000000000000000000000000000000000000000d3c21bcecceda1000000",
        "nonce": "0x59",
        "chainId": "0x1"
      },
      "additionalContracts": [],
      "isFixedGasLimit": false
    },
    {
      "hash": "0x752e7e6fd984f01a25c624e697c217ff7326b02ab967625da404e725ad53a2f2",
      "transactionType": "CALL",
      "contractName": "MaseerProxy",
      "contractAddress": "0xd5b61ee60e89c4c068bc8f9628d0a36d8ed1e08c",
      "function": null,
      "arguments": null,
      "transaction": {
        "from": "0xccadea5cc24204995a98daa056c37bd5207fd0c5",
        "to": "0xd5b61ee60e89c4c068bc8f9628d0a36d8ed1e08c",
        "gas": "0x112f0",
        "value": "0x0",
        "input": "0x59361d8e00000000000000000000000000000000000000000000000000000000000000c8",
        "nonce": "0x5a",
        "chainId": "0x1"
      },
      "additionalContracts": [],
      "isFixedGasLimit": false
    },
    {
      "hash": "0xc63e26a43d327dd5e287c7fcbb2df264bd0051b8af4eb4d69bc2238d40b0bce8",
      "transactionType": "CALL",
      "contractName": "MaseerProxy",
      "contractAddress": "0xd5b61ee60e89c4c068bc8f9628d0a36d8ed1e08c",
      "function": null,
      "arguments": null,
      "transaction": {
        "from": "0xccadea5cc24204995a98daa056c37bd5207fd0c5",
        "to": "0xd5b61ee60e89c4c068bc8f9628d0a36d8ed1e08c",
        "gas": "0x1233c",
        "value": "0x0",
        "input": "0x71ebdf4e00000000000000000000000000000000000000000000000000000000000000c8",
        "nonce": "0x5b",
        "chainId": "0x1"
      },
      "additionalContracts": [],
      "isFixedGasLimit": false
    },
    {
      "hash": "0x300f8521ecf2f9936e76be0bd7757f583eae125400f175903ee9e0c1651e0a4d",
      "transactionType": "CALL",
      "contractName": "MaseerProxy",
      "contractAddress": "0xd5b61ee60e89c4c068bc8f9628d0a36d8ed1e08c",
      "function": null,
      "arguments": null,
      "transaction": {
        "from": "0xccadea5cc24204995a98daa056c37bd5207fd0c5",
        "to": "0xd5b61ee60e89c4c068bc8f9628d0a36d8ed1e08c",
        "gas": "0x20c08",
        "value": "0x0",
        "input": "0x78f86afc0000000000000000000000000000000000000000000000000000000000000020000000000000000000000000000000000000000000000000000000000000003b6261666b726569633771737463726e77337935766371616d6f747965647865626d7a65707937646962643378373361346e376f366b627a656b36340000000000",
        "nonce": "0x5c",
        "chainId": "0x1"
      },
      "additionalContracts": [],
      "isFixedGasLimit": false
    },
    {
      "hash": "0xb2c1916c2ad21cd4fe0d1b93d952d566052a84a15405c79fa802c99bdfefba52",
      "transactionType": "CALL",
      "contractName": "MaseerProxy",
      "contractAddress": "0xd5b61ee60e89c4c068bc8f9628d0a36d8ed1e08c",
      "function": null,
      "arguments": null,
      "transaction": {
        "from": "0xccadea5cc24204995a98daa056c37bd5207fd0c5",
        "to": "0xd5b61ee60e89c4c068bc8f9628d0a36d8ed1e08c",
        "gas": "0x1150e",
        "value": "0x0",
        "input": "0x65fae35e000000000000000000000000b56f413dbce352cfd71f221029cfc84580133f66",
        "nonce": "0x5d",
        "chainId": "0x1"
      },
      "additionalContracts": [],
      "isFixedGasLimit": false
    },
    {
      "hash": "0x6c5e7035ddd828aa2cfa7a12b920422942d82d66591f860c6c1d8174fd14b170",
      "transactionType": "CALL",
      "contractName": "MaseerProxy",
      "contractAddress": "0xd5b61ee60e89c4c068bc8f9628d0a36d8ed1e08c",
      "function": "relyProxy(address)",
      "arguments": [
        "0xb56F413dbCe352cfd71f221029CFC84580133F66"
      ],
      "transaction": {
        "from": "0xccadea5cc24204995a98daa056c37bd5207fd0c5",
        "to": "0xd5b61ee60e89c4c068bc8f9628d0a36d8ed1e08c",
        "gas": "0x108da",
        "value": "0x0",
        "input": "0x266a164a000000000000000000000000b56f413dbce352cfd71f221029cfc84580133f66",
        "nonce": "0x5e",
        "chainId": "0x1"
      },
      "additionalContracts": [],
      "isFixedGasLimit": false
    },
    {
      "hash": "0x3a9fa2b3fb4615407b9de89400b5146fb52834d0dedea9ced30e7df9717f6f08",
      "transactionType": "CALL",
      "contractName": "MaseerProxy",
      "contractAddress": "0xb9a83116abd6bf3476fc5819deeb91f63cafdca2",
      "function": null,
      "arguments": null,
      "transaction": {
        "from": "0xccadea5cc24204995a98daa056c37bd5207fd0c5",
        "to": "0xb9a83116abd6bf3476fc5819deeb91f63cafdca2",
        "gas": "0x114e1",
        "value": "0x0",
        "input": "0x65fae35e000000000000000000000000b56f413dbce352cfd71f221029cfc84580133f66",
        "nonce": "0x5f",
        "chainId": "0x1"
      },
      "additionalContracts": [],
      "isFixedGasLimit": false
    },
    {
      "hash": "0xa2fbdd371a87553be1d1e749d23e39e9c79397ee42ffcf30fca94fb4426f20d2",
      "transactionType": "CALL",
      "contractName": "MaseerProxy",
      "contractAddress": "0xb9a83116abd6bf3476fc5819deeb91f63cafdca2",
      "function": null,
      "arguments": null,
      "transaction": {
        "from": "0xccadea5cc24204995a98daa056c37bd5207fd0c5",
        "to": "0xb9a83116abd6bf3476fc5819deeb91f63cafdca2",
        "gas": "0x1254a",
        "value": "0x0",
        "input": "0xbc0505f0000000000000000000000000b56f413dbce352cfd71f221029cfc84580133f66",
        "nonce": "0x60",
        "chainId": "0x1"
      },
      "additionalContracts": [],
      "isFixedGasLimit": false
    },
    {
      "hash": "0x14391c6f3099bcffef2dbcb0bd78070d033256533c185a6766bdd2da51c56fe8",
      "transactionType": "CALL",
      "contractName": "MaseerProxy",
      "contractAddress": "0xb9a83116abd6bf3476fc5819deeb91f63cafdca2",
      "function": "relyProxy(address)",
      "arguments": [
        "0xb56F413dbCe352cfd71f221029CFC84580133F66"
      ],
      "transaction": {
        "from": "0xccadea5cc24204995a98daa056c37bd5207fd0c5",
        "to": "0xb9a83116abd6bf3476fc5819deeb91f63cafdca2",
        "gas": "0x108da",
        "value": "0x0",
        "input": "0x266a164a000000000000000000000000b56f413dbce352cfd71f221029cfc84580133f66",
        "nonce": "0x61",
        "chainId": "0x1"
      },
      "additionalContracts": [],
      "isFixedGasLimit": false
    },
    {
      "hash": "0xb487dcfa60c693a009e74a5d3a6fff4894697da1ebe9b8ec18975b68fa77b49f",
      "transactionType": "CALL",
      "contractName": "MaseerProxy",
      "contractAddress": "0xb946b4c20522d23cccae926aceef6fc302f56609",
      "function": null,
      "arguments": null,
      "transaction": {
        "from": "0xccadea5cc24204995a98daa056c37bd5207fd0c5",
        "to": "0xb946b4c20522d23cccae926aceef6fc302f56609",
        "gas": "0x114c2",
        "value": "0x0",
        "input": "0x65fae35e000000000000000000000000b56f413dbce352cfd71f221029cfc84580133f66",
        "nonce": "0x62",
        "chainId": "0x1"
      },
      "additionalContracts": [],
      "isFixedGasLimit": false
    },
    {
      "hash": "0x1e03704af7a0ab037a3f9e55502812470a7979d2bc9d5fc9d72c16139998fcfb",
      "transactionType": "CALL",
      "contractName": "MaseerProxy",
      "contractAddress": "0xb946b4c20522d23cccae926aceef6fc302f56609",
      "function": "relyProxy(address)",
      "arguments": [
        "0xb56F413dbCe352cfd71f221029CFC84580133F66"
      ],
      "transaction": {
        "from": "0xccadea5cc24204995a98daa056c37bd5207fd0c5",
        "to": "0xb946b4c20522d23cccae926aceef6fc302f56609",
        "gas": "0x108da",
        "value": "0x0",
        "input": "0x266a164a000000000000000000000000b56f413dbce352cfd71f221029cfc84580133f66",
        "nonce": "0x63",
        "chainId": "0x1"
      },
      "additionalContracts": [],
      "isFixedGasLimit": false
    },
    {
      "hash": "0x77e660b0212e48b35445890cfe26b92ced8393b04b89fd08e16ec7c033de007e",
      "transactionType": "CALL",
      "contractName": "MaseerProxy",
      "contractAddress": "0x9e0924075bb6696e70f638336ee36e3bd9a130c7",
      "function": null,
      "arguments": null,
      "transaction": {
        "from": "0xccadea5cc24204995a98daa056c37bd5207fd0c5",
        "to": "0x9e0924075bb6696e70f638336ee36e3bd9a130c7",
        "gas": "0x11453",
        "value": "0x0",
        "input": "0xa3b22fc4000000000000000000000000b56f413dbce352cfd71f221029cfc84580133f66",
        "nonce": "0x64",
        "chainId": "0x1"
      },
      "additionalContracts": [],
      "isFixedGasLimit": false
    },
    {
      "hash": "0x09cb74a34fa1bd0688b223e69741ac5461f72048f0ea59df03ff7a05d49e0fe2",
      "transactionType": "CALL",
      "contractName": "MaseerProxy",
      "contractAddress": "0x9e0924075bb6696e70f638336ee36e3bd9a130c7",
      "function": null,
      "arguments": null,
      "transaction": {
        "from": "0xccadea5cc24204995a98daa056c37bd5207fd0c5",
        "to": "0x9e0924075bb6696e70f638336ee36e3bd9a130c7",
        "gas": "0x11453",
        "value": "0x0",
        "input": "0xa3b22fc4000000000000000000000000b324284a938807b40c713c159d6df2cc25014167",
        "nonce": "0x65",
        "chainId": "0x1"
      },
      "additionalContracts": [],
      "isFixedGasLimit": false
    },
    {
      "hash": "0x2b61dfd648a8cd11facadd9c553df8d0033b024f8e213aacda8621e54db50980",
      "transactionType": "CALL",
      "contractName": "MaseerProxy",
      "contractAddress": "0x9e0924075bb6696e70f638336ee36e3bd9a130c7",
      "function": null,
      "arguments": null,
      "transaction": {
        "from": "0xccadea5cc24204995a98daa056c37bd5207fd0c5",
        "to": "0x9e0924075bb6696e70f638336ee36e3bd9a130c7",
        "gas": "0x11453",
        "value": "0x0",
        "input": "0xa3b22fc4000000000000000000000000be14e22875012b51e1cdcdf9fa91722516cbaa7d",
        "nonce": "0x66",
        "chainId": "0x1"
      },
      "additionalContracts": [],
      "isFixedGasLimit": false
    },
    {
      "hash": "0x98111cbf2e02d7b5b13df948a6a0abd299f4ef110df622e12a60dcc903fbdb1a",
      "transactionType": "CALL",
      "contractName": "MaseerProxy",
      "contractAddress": "0x9e0924075bb6696e70f638336ee36e3bd9a130c7",
      "function": null,
      "arguments": null,
      "transaction": {
        "from": "0xccadea5cc24204995a98daa056c37bd5207fd0c5",
        "to": "0x9e0924075bb6696e70f638336ee36e3bd9a130c7",
        "gas": "0x11453",
        "value": "0x0",
        "input": "0xa3b22fc40000000000000000000000006f67b49d236b099209fd195de5e04e908d2f185b",
        "nonce": "0x67",
        "chainId": "0x1"
      },
      "additionalContracts": [],
      "isFixedGasLimit": false
    },
    {
      "hash": "0xd711bbddcda8948b94b35961df8409ffe799b67d5a2c2de897e31fca21ea4a7c",
      "transactionType": "CALL",
      "contractName": "MaseerProxy",
      "contractAddress": "0x9e0924075bb6696e70f638336ee36e3bd9a130c7",
      "function": null,
      "arguments": null,
      "transaction": {
        "from": "0xccadea5cc24204995a98daa056c37bd5207fd0c5",
        "to": "0x9e0924075bb6696e70f638336ee36e3bd9a130c7",
        "gas": "0x11453",
        "value": "0x0",
        "input": "0xa3b22fc40000000000000000000000008e1c0e01f4e29e97275fc466ac79670f64496e9b",
        "nonce": "0x68",
        "chainId": "0x1"
      },
      "additionalContracts": [],
      "isFixedGasLimit": false
    },
    {
      "hash": "0xc733d3f4d1cbf129f690a19f29b33d9b89ef5f5758efddb4b772a776b1ccdcc1",
      "transactionType": "CALL",
      "contractName": "MaseerProxy",
      "contractAddress": "0x9e0924075bb6696e70f638336ee36e3bd9a130c7",
      "function": null,
      "arguments": null,
      "transaction": {
        "from": "0xccadea5cc24204995a98daa056c37bd5207fd0c5",
        "to": "0x9e0924075bb6696e70f638336ee36e3bd9a130c7",
        "gas": "0x11453",
        "value": "0x0",
        "input": "0xa3b22fc400000000000000000000000011b9be3139af548dc21e50495b471f1ff02fb83e",
        "nonce": "0x69",
        "chainId": "0x1"
      },
      "additionalContracts": [],
      "isFixedGasLimit": false
    },
    {
      "hash": "0xcfe07bc2839b10c5219486ae301b93d921df8a82321a462a14e6a790a6b1b7fe",
      "transactionType": "CALL",
      "contractName": "MaseerProxy",
      "contractAddress": "0x9e0924075bb6696e70f638336ee36e3bd9a130c7",
      "function": null,
      "arguments": null,
      "transaction": {
        "from": "0xccadea5cc24204995a98daa056c37bd5207fd0c5",
        "to": "0x9e0924075bb6696e70f638336ee36e3bd9a130c7",
        "gas": "0x12483",
        "value": "0x0",
        "input": "0xa3b22fc40000000000000000000000007cc0fc315378ac88e276e8290021b33016896064",
        "nonce": "0x6a",
        "chainId": "0x1"
      },
      "additionalContracts": [],
      "isFixedGasLimit": false
    },
    {
      "hash": "0xe0d6ce7eef95cf3b08afe8331717ca9d23e81bd7ebfc8e3ba5a61b01540aa845",
      "transactionType": "CALL",
      "contractName": "MaseerProxy",
      "contractAddress": "0x9e0924075bb6696e70f638336ee36e3bd9a130c7",
      "function": null,
      "arguments": null,
      "transaction": {
        "from": "0xccadea5cc24204995a98daa056c37bd5207fd0c5",
        "to": "0x9e0924075bb6696e70f638336ee36e3bd9a130c7",
        "gas": "0x11453",
        "value": "0x0",
        "input": "0xa3b22fc40000000000000000000000000d35938d133dcca71773cc750ffabe2c40a003f1",
        "nonce": "0x6b",
        "chainId": "0x1"
      },
      "additionalContracts": [],
      "isFixedGasLimit": false
    },
    {
      "hash": "0x80226bedd7043f7052abeaabb5f3e5b03cdf164c4200e0d71be1309b1ff67b98",
      "transactionType": "CALL",
      "contractName": "MaseerProxy",
      "contractAddress": "0x9e0924075bb6696e70f638336ee36e3bd9a130c7",
      "function": null,
      "arguments": null,
      "transaction": {
        "from": "0xccadea5cc24204995a98daa056c37bd5207fd0c5",
        "to": "0x9e0924075bb6696e70f638336ee36e3bd9a130c7",
        "gas": "0x11453",
        "value": "0x0",
        "input": "0xa3b22fc4000000000000000000000000ccadea5cc24204995a98daa056c37bd5207fd0c5",
        "nonce": "0x6c",
        "chainId": "0x1"
      },
      "additionalContracts": [],
      "isFixedGasLimit": false
    },
    {
      "hash": "0x6a594b9a37a8f7a1e5f7951bf28eac1d728b18bbd51467873f0d13630cce188f",
      "transactionType": "CALL",
      "contractName": "MaseerProxy",
      "contractAddress": "0x9e0924075bb6696e70f638336ee36e3bd9a130c7",
      "function": null,
      "arguments": null,
      "transaction": {
        "from": "0xccadea5cc24204995a98daa056c37bd5207fd0c5",
        "to": "0x9e0924075bb6696e70f638336ee36e3bd9a130c7",
        "gas": "0x1148b",
        "value": "0x0",
        "input": "0xf29c29c4000000000000000000000000b56f413dbce352cfd71f221029cfc84580133f66",
        "nonce": "0x6d",
        "chainId": "0x1"
      },
      "additionalContracts": [],
      "isFixedGasLimit": false
    },
    {
      "hash": "0xe32edaf2bc5b440d359f5325656c46114012d92922ca0369fc2dbab748044a5b",
      "transactionType": "CALL",
      "contractName": "MaseerProxy",
      "contractAddress": "0x9e0924075bb6696e70f638336ee36e3bd9a130c7",
      "function": null,
      "arguments": null,
      "transaction": {
        "from": "0xccadea5cc24204995a98daa056c37bd5207fd0c5",
        "to": "0x9e0924075bb6696e70f638336ee36e3bd9a130c7",
        "gas": "0x1148b",
        "value": "0x0",
        "input": "0xf29c29c4000000000000000000000000631ed7600543ee5d87378508233fde667c0cc6e6",
        "nonce": "0x6e",
        "chainId": "0x1"
      },
      "additionalContracts": [],
      "isFixedGasLimit": false
    },
    {
      "hash": "0xfe52b29eca615d0be7043d632fd634233226e35dfe508828a6d96f780a548c19",
      "transactionType": "CALL",
      "contractName": "MaseerProxy",
      "contractAddress": "0x9e0924075bb6696e70f638336ee36e3bd9a130c7",
      "function": null,
      "arguments": null,
      "transaction": {
        "from": "0xccadea5cc24204995a98daa056c37bd5207fd0c5",
        "to": "0x9e0924075bb6696e70f638336ee36e3bd9a130c7",
        "gas": "0x1148b",
        "value": "0x0",
        "input": "0xf29c29c4000000000000000000000000b324284a938807b40c713c159d6df2cc25014167",
        "nonce": "0x6f",
        "chainId": "0x1"
      },
      "additionalContracts": [],
      "isFixedGasLimit": false
    },
    {
      "hash": "0xbdbb5cfd3a336b04d10d3cf2cde0b8e2c133bec2320cc849cde6b6755d06fc49",
      "transactionType": "CALL",
      "contractName": "MaseerProxy",
      "contractAddress": "0x9e0924075bb6696e70f638336ee36e3bd9a130c7",
      "function": null,
      "arguments": null,
      "transaction": {
        "from": "0xccadea5cc24204995a98daa056c37bd5207fd0c5",
        "to": "0x9e0924075bb6696e70f638336ee36e3bd9a130c7",
        "gas": "0x1148b",
        "value": "0x0",
        "input": "0xf29c29c40000000000000000000000001a88e0a996c0c024e8b14f88b28a1e20863307ab",
        "nonce": "0x70",
        "chainId": "0x1"
      },
      "additionalContracts": [],
      "isFixedGasLimit": false
    },
    {
      "hash": "0x468a3dc33bd25e5434ba26d891bbb52a15c4cacf04d1d57e217726e01adb6b29",
      "transactionType": "CALL",
      "contractName": "MaseerProxy",
      "contractAddress": "0x9e0924075bb6696e70f638336ee36e3bd9a130c7",
      "function": null,
      "arguments": null,
      "transaction": {
        "from": "0xccadea5cc24204995a98daa056c37bd5207fd0c5",
        "to": "0x9e0924075bb6696e70f638336ee36e3bd9a130c7",
        "gas": "0x1258e",
        "value": "0x0",
        "input": "0x65fae35e000000000000000000000000b56f413dbce352cfd71f221029cfc84580133f66",
        "nonce": "0x71",
        "chainId": "0x1"
      },
      "additionalContracts": [],
      "isFixedGasLimit": false
    },
    {
      "hash": "0xec0ba2dc4c12c2888828f14a76f4de962c0d73271c76a98a474ec526810146e8",
      "transactionType": "CALL",
      "contractName": "MaseerProxy",
      "contractAddress": "0x9e0924075bb6696e70f638336ee36e3bd9a130c7",
      "function": "relyProxy(address)",
      "arguments": [
        "0xb56F413dbCe352cfd71f221029CFC84580133F66"
      ],
      "transaction": {
        "from": "0xccadea5cc24204995a98daa056c37bd5207fd0c5",
        "to": "0x9e0924075bb6696e70f638336ee36e3bd9a130c7",
        "gas": "0x108da",
        "value": "0x0",
        "input": "0x266a164a000000000000000000000000b56f413dbce352cfd71f221029cfc84580133f66",
        "nonce": "0x72",
        "chainId": "0x1"
      },
      "additionalContracts": [],
      "isFixedGasLimit": false
    },
    {
      "hash": "0xd942d04e1f35fb492e329b4d5361bd8ae879cd4a155ab83a90e1d2492a827af8",
      "transactionType": "CALL",
      "contractName": "MaseerProxy",
      "contractAddress": "0x7267dc183d5259ac33fd80322e62fc052efdad66",
      "function": null,
      "arguments": null,
      "transaction": {
        "from": "0xccadea5cc24204995a98daa056c37bd5207fd0c5",
        "to": "0x7267dc183d5259ac33fd80322e62fc052efdad66",
        "gas": "0xb388",
        "value": "0x0",
        "input": "0x9c52a7f10000000000000000000000001804c8ab1f12e6bbf3894d4083f33e07309d1f38",
        "nonce": "0x73",
        "chainId": "0x1"
      },
      "additionalContracts": [],
      "isFixedGasLimit": false
    },
    {
      "hash": "0x5b50c1388c12095040a48d340cc9e2cb7b0de8f3a871f1c62f2a4ebf367f707d",
      "transactionType": "CALL",
      "contractName": "MaseerProxy",
      "contractAddress": "0x7267dc183d5259ac33fd80322e62fc052efdad66",
      "function": "denyProxy(address)",
      "arguments": [
        "0x1804c8AB1F12E6bbf3894d4083f33e07309d1f38"
      ],
      "transaction": {
        "from": "0xccadea5cc24204995a98daa056c37bd5207fd0c5",
        "to": "0x7267dc183d5259ac33fd80322e62fc052efdad66",
        "gas": "0x974a",
        "value": "0x0",
        "input": "0x0715940e0000000000000000000000001804c8ab1f12e6bbf3894d4083f33e07309d1f38",
        "nonce": "0x74",
        "chainId": "0x1"
      },
      "additionalContracts": [],
      "isFixedGasLimit": false
    },
    {
      "hash": "0xcad20b8a41ee8e15c618f36e0f5e20250231553b6cae5a2ff1d8fc47636b6e77",
      "transactionType": "CALL",
      "contractName": "MaseerProxy",
      "contractAddress": "0xd5b61ee60e89c4c068bc8f9628d0a36d8ed1e08c",
      "function": null,
      "arguments": null,
      "transaction": {
        "from": "0xccadea5cc24204995a98daa056c37bd5207fd0c5",
        "to": "0xd5b61ee60e89c4c068bc8f9628d0a36d8ed1e08c",
        "gas": "0xa9cc",
        "value": "0x0",
        "input": "0x9c52a7f10000000000000000000000001804c8ab1f12e6bbf3894d4083f33e07309d1f38",
        "nonce": "0x75",
        "chainId": "0x1"
      },
      "additionalContracts": [],
      "isFixedGasLimit": false
    },
    {
      "hash": "0x33b7fda2e00cc6141aea9eed33333632875f02b6729146b51a1a60d8f12ef009",
      "transactionType": "CALL",
      "contractName": "MaseerProxy",
      "contractAddress": "0xd5b61ee60e89c4c068bc8f9628d0a36d8ed1e08c",
      "function": "denyProxy(address)",
      "arguments": [
        "0x1804c8AB1F12E6bbf3894d4083f33e07309d1f38"
      ],
      "transaction": {
        "from": "0xccadea5cc24204995a98daa056c37bd5207fd0c5",
        "to": "0xd5b61ee60e89c4c068bc8f9628d0a36d8ed1e08c",
        "gas": "0x974a",
        "value": "0x0",
        "input": "0x0715940e0000000000000000000000001804c8ab1f12e6bbf3894d4083f33e07309d1f38",
        "nonce": "0x76",
        "chainId": "0x1"
      },
      "additionalContracts": [],
      "isFixedGasLimit": false
    },
    {
      "hash": "0x9b43472ccb7051ae534b3d151d3b82b60e37b91ddde233c459b62fdc79e8e794",
      "transactionType": "CALL",
      "contractName": "MaseerProxy",
      "contractAddress": "0xb9a83116abd6bf3476fc5819deeb91f63cafdca2",
      "function": null,
      "arguments": null,
      "transaction": {
        "from": "0xccadea5cc24204995a98daa056c37bd5207fd0c5",
        "to": "0xb9a83116abd6bf3476fc5819deeb91f63cafdca2",
        "gas": "0xa96f",
        "value": "0x0",
        "input": "0x9c52a7f10000000000000000000000001804c8ab1f12e6bbf3894d4083f33e07309d1f38",
        "nonce": "0x77",
        "chainId": "0x1"
      },
      "additionalContracts": [],
      "isFixedGasLimit": false
    },
    {
      "hash": "0x4235d37ac7ae950c77d85a2f41d950a8560bc5a7e0677d16087d5491bb473c14",
      "transactionType": "CALL",
      "contractName": "MaseerProxy",
      "contractAddress": "0xb9a83116abd6bf3476fc5819deeb91f63cafdca2",
      "function": "denyProxy(address)",
      "arguments": [
        "0x1804c8AB1F12E6bbf3894d4083f33e07309d1f38"
      ],
      "transaction": {
        "from": "0xccadea5cc24204995a98daa056c37bd5207fd0c5",
        "to": "0xb9a83116abd6bf3476fc5819deeb91f63cafdca2",
        "gas": "0x974a",
        "value": "0x0",
        "input": "0x0715940e0000000000000000000000001804c8ab1f12e6bbf3894d4083f33e07309d1f38",
        "nonce": "0x78",
        "chainId": "0x1"
      },
      "additionalContracts": [],
      "isFixedGasLimit": false
    },
    {
      "hash": "0x4e8485918c94415c5104536b0e409496d31ff19caf40ef6ac575eebc9ea9018e",
      "transactionType": "CALL",
      "contractName": "MaseerProxy",
      "contractAddress": "0xb946b4c20522d23cccae926aceef6fc302f56609",
      "function": null,
      "arguments": null,
      "transaction": {
        "from": "0xccadea5cc24204995a98daa056c37bd5207fd0c5",
        "to": "0xb946b4c20522d23cccae926aceef6fc302f56609",
        "gas": "0xb388",
        "value": "0x0",
        "input": "0x9c52a7f10000000000000000000000001804c8ab1f12e6bbf3894d4083f33e07309d1f38",
        "nonce": "0x79",
        "chainId": "0x1"
      },
      "additionalContracts": [],
      "isFixedGasLimit": false
    },
    {
      "hash": "0xeedcf18c5fe992a0a49e66eb1f133a3aa95f77d319a336ff086ce966cef9b3b8",
      "transactionType": "CALL",
      "contractName": "MaseerProxy",
      "contractAddress": "0xb946b4c20522d23cccae926aceef6fc302f56609",
      "function": "denyProxy(address)",
      "arguments": [
        "0x1804c8AB1F12E6bbf3894d4083f33e07309d1f38"
      ],
      "transaction": {
        "from": "0xccadea5cc24204995a98daa056c37bd5207fd0c5",
        "to": "0xb946b4c20522d23cccae926aceef6fc302f56609",
        "gas": "0x974a",
        "value": "0x0",
        "input": "0x0715940e0000000000000000000000001804c8ab1f12e6bbf3894d4083f33e07309d1f38",
        "nonce": "0x7a",
        "chainId": "0x1"
      },
      "additionalContracts": [],
      "isFixedGasLimit": false
    },
    {
      "hash": "0x01aa6d61bb05b619d1980986c7a0ec1e20ddea6f35daa7cbff76cf4b0344b00f",
      "transactionType": "CALL",
      "contractName": "MaseerProxy",
      "contractAddress": "0x9e0924075bb6696e70f638336ee36e3bd9a130c7",
      "function": null,
      "arguments": null,
      "transaction": {
        "from": "0xccadea5cc24204995a98daa056c37bd5207fd0c5",
        "to": "0x9e0924075bb6696e70f638336ee36e3bd9a130c7",
        "gas": "0xb3fd",
        "value": "0x0",
        "input": "0x9c52a7f10000000000000000000000001804c8ab1f12e6bbf3894d4083f33e07309d1f38",
        "nonce": "0x7b",
        "chainId": "0x1"
      },
      "additionalContracts": [],
      "isFixedGasLimit": false
    },
    {
      "hash": "0x3bc58b9567e57094c1ce811ddd40b1cd7867f6c0c893f0a26a75a43179b1e583",
      "transactionType": "CALL",
      "contractName": "MaseerProxy",
      "contractAddress": "0x9e0924075bb6696e70f638336ee36e3bd9a130c7",
      "function": "denyProxy(address)",
      "arguments": [
        "0x1804c8AB1F12E6bbf3894d4083f33e07309d1f38"
      ],
      "transaction": {
        "from": "0xccadea5cc24204995a98daa056c37bd5207fd0c5",
        "to": "0x9e0924075bb6696e70f638336ee36e3bd9a130c7",
        "gas": "0x974a",
        "value": "0x0",
        "input": "0x0715940e0000000000000000000000001804c8ab1f12e6bbf3894d4083f33e07309d1f38",
        "nonce": "0x7c",
        "chainId": "0x1"
      },
      "additionalContracts": [],
      "isFixedGasLimit": false
    }
  ],
  "receipts": [
    {
      "status": "0x1",
      "cumulativeGasUsed": "0xd6112",
      "logs": [],
      "logsBloom": "0x00000000000000000000000000000000000000000000000000000000000000000000000000000000000000000000000000000000000000000000000000000000000000000000000000000000000000000000000000000000000000000000000000000000000000000000000000000000000000000000000000000000000000000000000000000000000000000000000000000000000000000000000000000000000000000000000000000000000000000000000000000000000000000000000000000000000000000000000000000000000000000000000000000000000000000000000000000000000000000000000000000000000000000000000000000000",
      "type": "0x2",
      "transactionHash": "0xcc46b672cce9c65425feb484abe8b21a96a2a9001d51f112ccbd89929b7d0b3f",
      "transactionIndex": "0x0",
      "blockHash": "0x0de0a032c68dce3ea43e2b402b0226cd069536e56f813c52f80e1d04dc8b9ea1",
      "blockNumber": "0x15508da",
      "gasUsed": "0xd6112",
      "effectiveGasPrice": "0x41290e50",
      "from": "0xccadea5cc24204995a98daa056c37bd5207fd0c5",
      "to": null,
      "contractAddress": "0x8d259b827728f126920b60745f2c3fd4e220782d"
    },
    {
      "status": "0x1",
      "cumulativeGasUsed": "0x526e15",
      "logs": [],
      "logsBloom": "0x00000000000000000000000000000000000000000000000000000000000000000000000000000000000000000000000000000000000000000000000000000000000000000000000000000000000000000000000000000000000000000000000000000000000000000000000000000000000000000000000000000000000000000000000000000000000000000000000000000000000000000000000000000000000000000000000000000000000000000000000000000000000000000000000000000000000000000000000000000000000000000000000000000000000000000000000000000000000000000000000000000000000000000000000000000000",
      "type": "0x2",
      "transactionHash": "0x7b9e565ba376375a92037a6730732efe523ef75d4f0f70e730cf822ffc5ad787",
      "transactionIndex": "0x2b",
      "blockHash": "0x49fa3d99cf0e62342eed5a6d1e9699f292144d6201dc6841f9cecb06575e1520",
      "blockNumber": "0x15508db",
      "gasUsed": "0x5894c",
      "effectiveGasPrice": "0x429bc63e",
      "from": "0xccadea5cc24204995a98daa056c37bd5207fd0c5",
      "to": null,
      "contractAddress": "0x7267dc183d5259ac33fd80322e62fc052efdad66"
    },
    {
      "status": "0x1",
      "cumulativeGasUsed": "0x32e03a",
      "logs": [],
      "logsBloom": "0x00000000000000000000000000000000000000000000000000000000000000000000000000000000000000000000000000000000000000000000000000000000000000000000000000000000000000000000000000000000000000000000000000000000000000000000000000000000000000000000000000000000000000000000000000000000000000000000000000000000000000000000000000000000000000000000000000000000000000000000000000000000000000000000000000000000000000000000000000000000000000000000000000000000000000000000000000000000000000000000000000000000000000000000000000000000",
      "type": "0x2",
      "transactionHash": "0x7ac337f0f10fdf8609b2ab62e9144c2321bd1a96fe51e8c1c403135bc6ea18e5",
      "transactionIndex": "0xe",
      "blockHash": "0xc4e59b4ba1a210b59a0c01fd72ce7a9abd0380e0236b108a5471c399b0347861",
      "blockNumber": "0x15508dc",
      "gasUsed": "0x1553a8",
      "effectiveGasPrice": "0x429bc63e",
      "from": "0xccadea5cc24204995a98daa056c37bd5207fd0c5",
      "to": null,
      "contractAddress": "0xa5cb218db3c128adfb326b262232ce58396ee63a"
    },
    {
      "status": "0x1",
      "cumulativeGasUsed": "0x497d1c",
      "logs": [],
      "logsBloom": "0x00000000000000000000000000000000000000000000000000000000000000000000000000000000000000000000000000000000000000000000000000000000000000000000000000000000000000000000000000000000000000000000000000000000000000000000000000000000000000000000000000000000000000000000000000000000000000000000000000000000000000000000000000000000000000000000000000000000000000000000000000000000000000000000000000000000000000000000000000000000000000000000000000000000000000000000000000000000000000000000000000000000000000000000000000000000",
      "type": "0x2",
      "transactionHash": "0x781f178cdc97a8b6122ff38b8defee4232685b59d15616356d8717dbf4b032e0",
      "transactionIndex": "0x2c",
      "blockHash": "0x5e7ac8a4a6469e11b92ce6fce1c30d48bec04981d554c36b921f9bcbf5b4d2a2",
      "blockNumber": "0x15508dd",
      "gasUsed": "0x5894c",
      "effectiveGasPrice": "0x429bc63e",
      "from": "0xccadea5cc24204995a98daa056c37bd5207fd0c5",
      "to": null,
      "contractAddress": "0xd5b61ee60e89c4c068bc8f9628d0a36d8ed1e08c"
    },
    {
      "status": "0x1",
      "cumulativeGasUsed": "0xa015d",
      "logs": [],
      "logsBloom": "0x00000000000000000000000000000000000000000000000000000000000000000000000000000000000000000000000000000000000000000000000000000000000000000000000000000000000000000000000000000000000000000000000000000000000000000000000000000000000000000000000000000000000000000000000000000000000000000000000000000000000000000000000000000000000000000000000000000000000000000000000000000000000000000000000000000000000000000000000000000000000000000000000000000000000000000000000000000000000000000000000000000000000000000000000000000000",
      "type": "0x2",
      "transactionHash": "0xa5fa95edb2a1fee1eb50373742f936179350b4c3d163a36095793fbc1750f295",
      "transactionIndex": "0x5",
      "blockHash": "0x78d1c95885e267b5c7057838dc7eb118bd4ec2ff9c3ed483e1b0fc96bd5dd6d8",
      "blockNumber": "0x15508de",
      "gasUsed": "0x5cccb",
      "effectiveGasPrice": "0x429bc63e",
      "from": "0xccadea5cc24204995a98daa056c37bd5207fd0c5",
      "to": null,
      "contractAddress": "0x5ac573bd64022e88452421786f536b7084286faa"
    },
    {
      "status": "0x1",
      "cumulativeGasUsed": "0x5931a5",
      "logs": [],
      "logsBloom": "0x00000000000000000000000000000000000000000000000000000000000000000000000000000000000000000000000000000000000000000000000000000000000000000000000000000000000000000000000000000000000000000000000000000000000000000000000000000000000000000000000000000000000000000000000000000000000000000000000000000000000000000000000000000000000000000000000000000000000000000000000000000000000000000000000000000000000000000000000000000000000000000000000000000000000000000000000000000000000000000000000000000000000000000000000000000000",
      "type": "0x2",
      "transactionHash": "0x362f4dfcbad007eae64010e6271ee6aa9c89ac3a3a61f4e2e37fb837fef98794",
      "transactionIndex": "0xd",
      "blockHash": "0x4d4df72700118249171a75860bdfc1548082d6c832cbc9dc51d204283b067ad4",
      "blockNumber": "0x15508df",
      "gasUsed": "0x5894c",
      "effectiveGasPrice": "0x429bc63e",
      "from": "0xccadea5cc24204995a98daa056c37bd5207fd0c5",
      "to": null,
      "contractAddress": "0xb9a83116abd6bf3476fc5819deeb91f63cafdca2"
    },
    {
      "status": "0x1",
      "cumulativeGasUsed": "0xd4a35",
      "logs": [],
      "logsBloom": "0x00000000000000000000000000000000000000000000000000000000000000000000000000000000000000000000000000000000000000000000000000000000000000000000000000000000000000000000000000000000000000000000000000000000000000000000000000000000000000000000000000000000000000000000000000000000000000000000000000000000000000000000000000000000000000000000000000000000000000000000000000000000000000000000000000000000000000000000000000000000000000000000000000000000000000000000000000000000000000000000000000000000000000000000000000000000",
      "type": "0x2",
      "transactionHash": "0xf50a0c65161c5fa5ca463c469aa469dad237d28085fc6c74b882c6febc271717",
      "transactionIndex": "0x7",
      "blockHash": "0x142b62c51651de0b912412864eebc9e26428e9dc757230a52318c6e70c93b05c",
      "blockNumber": "0x15508e0",
      "gasUsed": "0x4e2a0",
      "effectiveGasPrice": "0x429bc63e",
      "from": "0xccadea5cc24204995a98daa056c37bd5207fd0c5",
      "to": null,
      "contractAddress": "0x0853b0570df010b8da89915782533fba0a1185a0"
    },
    {
      "status": "0x1",
      "cumulativeGasUsed": "0x3ddc72",
      "logs": [],
      "logsBloom": "0x00000000000000000000000000000000000000000000000000000000000000000000000000000000000000000000000000000000000000000000000000000000000000000000000000000000000000000000000000000000000000000000000000000000000000000000000000000000000000000000000000000000000000000000000000000000000000000000000000000000000000000000000000000000000000000000000000000000000000000000000000000000000000000000000000000000000000000000000000000000000000000000000000000000000000000000000000000000000000000000000000000000000000000000000000000000",
      "type": "0x2",
      "transactionHash": "0x1b53475ae861e4ac34e6e09ae4be923317f8ad1caca2517d54ce250bdde63a55",
      "transactionIndex": "0x8",
      "blockHash": "0x875febcf21fdd59b519d74127f58bb3763be0db29336ce9c6172d5669eafc414",
      "blockNumber": "0x15508e1",
      "gasUsed": "0x5894c",
      "effectiveGasPrice": "0x429bc63e",
      "from": "0xccadea5cc24204995a98daa056c37bd5207fd0c5",
      "to": null,
      "contractAddress": "0xb946b4c20522d23cccae926aceef6fc302f56609"
    },
    {
      "status": "0x1",
      "cumulativeGasUsed": "0x42e0cc",
      "logs": [],
      "logsBloom": "0x00000000000000000000000000000000000000000000000000000000000000000000000000000000000000000000000000000000000000000000000000000000000000000000000000000000000000000000000000000000000000000000000000000000000000000000000000000000000000000000000000000000000000000000000000000000000000000000000000000000000000000000000000000000000000000000000000000000000000000000000000000000000000000000000000000000000000000000000000000000000000000000000000000000000000000000000000000000000000000000000000000000000000000000000000000000",
      "type": "0x2",
      "transactionHash": "0x5e5e8760dfa7ae8dd0d28b70f8eb1755cf256a9764dd8541379aea3cb143467e",
      "transactionIndex": "0xb",
      "blockHash": "0x4dae83a24727147c1b42663abda3e2cc90557f6f817960eeec9767e5f0fbc270",
      "blockNumber": "0x15508e2",
      "gasUsed": "0xb8ad9",
      "effectiveGasPrice": "0x429bc63e",
      "from": "0xccadea5cc24204995a98daa056c37bd5207fd0c5",
      "to": null,
      "contractAddress": "0xb10d74543e0eb81dcc1d8e76da6c524b68dd4c80"
    },
    {
      "status": "0x1",
      "cumulativeGasUsed": "0x7800b",
      "logs": [],
      "logsBloom": "0x00000000000000000000000000000000000000000000000000000000000000000000000000000000000000000000000000000000000000000000000000000000000000000000000000000000000000000000000000000000000000000000000000000000000000000000000000000000000000000000000000000000000000000000000000000000000000000000000000000000000000000000000000000000000000000000000000000000000000000000000000000000000000000000000000000000000000000000000000000000000000000000000000000000000000000000000000000000000000000000000000000000000000000000000000000000",
      "type": "0x2",
      "transactionHash": "0xa121b34875caf272ebb244625ff708ccbdd3744a6417bf1bcca9382001b6ae84",
      "transactionIndex": "0x3",
      "blockHash": "0xdb4ccec1ee510a5ba32fd4c7124c125589b651fd07b4baf181cd490d30149b54",
      "blockNumber": "0x15508e3",
      "gasUsed": "0x5894c",
      "effectiveGasPrice": "0x429bc63e",
      "from": "0xccadea5cc24204995a98daa056c37bd5207fd0c5",
      "to": null,
      "contractAddress": "0x9e0924075bb6696e70f638336ee36e3bd9a130c7"
    },
    {
      "status": "0x1",
      "cumulativeGasUsed": "0x35a3f0",
      "logs": [],
      "logsBloom": "0x00000000000000000000000000000000000000000000000000000000000000000000000000000000000000000000000000000000000000000000000000000000000000000000000000000000000000000000000000000000000000000000000000000000000000000000000000000000000000000000000000000000000000000000000000000000000000000000000000000000000000000000000000000000000000000000000000000000000000000000000000000000000000000000000000000000000000000000000000000000000000000000000000000000000000000000000000000000000000000000000000000000000000000000000000000000",
      "type": "0x2",
      "transactionHash": "0x709608615334d1f9125b62c02e8106c41256272f41e6497a3de621fe57d39117",
      "transactionIndex": "0x2",
      "blockHash": "0x08b7c31e97288a0fabab3c31c7b8231202e4a0b96038e1f4749233140191cceb",
      "blockNumber": "0x15508e4",
      "gasUsed": "0x28c04f",
      "effectiveGasPrice": "0x429bc63e",
      "from": "0xccadea5cc24204995a98daa056c37bd5207fd0c5",
      "to": null,
      "contractAddress": "0x1a88e0a996c0c024e8b14f88b28a1e20863307ab"
    },
    {
      "status": "0x1",
      "cumulativeGasUsed": "0x2043ca",
      "logs": [
        {
          "address": "0xdac17f958d2ee523a2206206994597c13d831ec7",
          "topics": [
            "0x8c5be1e5ebec7d5bd14f71427d1e84f3dd0314c0f7b2291e5b200ac8c7c3b925",
            "0x0000000000000000000000001fa926b0f325bd4930e4fd0d7d291c7dcc1fdb67",
            "0x0000000000000000000000001a88e0a996c0c024e8b14f88b28a1e20863307ab"
          ],
          "data": "0xffffffffffffffffffffffffffffffffffffffffffffffffffffffffffffffff",
          "blockHash": "0x50ee028d7ec0884f840c7c6d0539ca25901b2092ed08d5bde2da9dbc1516c50d",
          "blockNumber": "0x15508e5",
          "blockTimestamp": "0x680c3ce7",
          "transactionHash": "0x0dae4281e17c61171daa6ab41867e2df0ac84f407bca8af280b611d14ec4dcd3",
          "transactionIndex": "0x2",
          "logIndex": "0x2d",
          "removed": false
        }
      ],
      "logsBloom": "0x00000800000000000000000000000000000000000000000000000000000000000000000000000000000000000000010000000000000000000000000000200000000000000000000000000000000100000000000000000000000000000000000004000000000000000000000000000000000000000000000000000000000000000000000000000000200000000000000000000000000000000000000000100000020000000000000000000080000000000000000000000000000000000000000200000000000000000000000000000000000001000000000000000000000000000010000000000000000000000000000000000000000000000000000000000000",
      "type": "0x2",
      "transactionHash": "0x0dae4281e17c61171daa6ab41867e2df0ac84f407bca8af280b611d14ec4dcd3",
      "transactionIndex": "0x2",
      "blockHash": "0x50ee028d7ec0884f840c7c6d0539ca25901b2092ed08d5bde2da9dbc1516c50d",
      "blockNumber": "0x15508e5",
      "gasUsed": "0xcf5ad",
      "effectiveGasPrice": "0x429bc63e",
      "from": "0xccadea5cc24204995a98daa056c37bd5207fd0c5",
      "to": null,
      "contractAddress": "0x1fa926b0f325bd4930e4fd0d7d291c7dcc1fdb67"
    },
    {
      "status": "0x1",
      "cumulativeGasUsed": "0x3068c8",
      "logs": [
        {
          "address": "0x7267dc183d5259ac33fd80322e62fc052efdad66",
          "topics": [
            "0x943a793c11a909d4409e7706d8c3d1467960e08f6141234950042994856812df",
            "0x6e616d6500000000000000000000000000000000000000000000000000000000"
          ],
          "data": "0x43414e4155534454000000000000000000000000000000000000000000000000",
          "blockHash": "0xf2ac56c060b1fe11a812183bb3c5a9c03e5cf6031000fcecdaa5853913c21f41",
          "blockNumber": "0x15508e6",
          "transactionHash": "0x8b4c5006a6c820953303014b302cd846fa133842c2fd21fea48147b9e6c08902",
          "transactionIndex": "0x17",
          "logIndex": "0x39",
          "removed": false
        }
      ],
      "logsBloom": "0x00000000000000000000000000000000000000000000000000000000000000000000000000000000802000000000000000000000000000000000000000000000000000200000000000000000000000000000000000000000000000000000000000000000000000000000800000400000000000000000000000000000000000000000000000000000000000000000000000000000000000000000000000000010000000000000000000000000000000000020000000000000000000000000000000000000000000000000000000000000000400100000000000000000000000000000000000000000000000000000000000000000000000000000000000000000",
      "type": "0x2",
      "transactionHash": "0x8b4c5006a6c820953303014b302cd846fa133842c2fd21fea48147b9e6c08902",
      "transactionIndex": "0x17",
      "blockHash": "0xf2ac56c060b1fe11a812183bb3c5a9c03e5cf6031000fcecdaa5853913c21f41",
      "blockNumber": "0x15508e6",
      "gasUsed": "0xdb22",
      "effectiveGasPrice": "0x429bc63e",
      "from": "0xccadea5cc24204995a98daa056c37bd5207fd0c5",
      "to": "0x7267dc183d5259ac33fd80322e62fc052efdad66",
      "contractAddress": null
    },
    {
      "status": "0x1",
      "cumulativeGasUsed": "0x247d4c",
      "logs": [
        {
          "address": "0x7267dc183d5259ac33fd80322e62fc052efdad66",
          "topics": [
            "0x943a793c11a909d4409e7706d8c3d1467960e08f6141234950042994856812df",
            "0x646563696d616c73000000000000000000000000000000000000000000000000"
          ],
          "data": "0x0000000000000000000000000000000000000000000000000000000000000006",
          "blockHash": "0x0bf9817e833c6888212a89a99b6d43ea66677278cd7354e827a95d7724a70f65",
          "blockNumber": "0x15508e7",
          "blockTimestamp": "0x680c3cff",
          "transactionHash": "0x72d6b3cd13f27cd7922c486ff884c8c4e54019dd8a7b114c1b0264bed4e49b71",
          "transactionIndex": "0x28",
          "logIndex": "0x2d",
          "removed": false
        }
      ],
      "logsBloom": "0x00000000000000000000000000000000000000000000000000000000000000000000000000000000002000000400000000000000000000000000000000000000000000200000000000000000000000000000000000000000000000000000000000000000000000000000800000400000000000000000000000000000000000000000000000000000000000000000000000000000000000000000000000000000000000000000000000000000000000000020000000000000000000000000000000000000000000000000000000000000001000100000000000000000000000000000000000000000000000000000000000004000000000000000000000000000",
      "type": "0x2",
      "transactionHash": "0x72d6b3cd13f27cd7922c486ff884c8c4e54019dd8a7b114c1b0264bed4e49b71",
      "transactionIndex": "0x28",
      "blockHash": "0x0bf9817e833c6888212a89a99b6d43ea66677278cd7354e827a95d7724a70f65",
      "blockNumber": "0x15508e7",
      "gasUsed": "0xcdef",
      "effectiveGasPrice": "0x429bc63e",
      "from": "0xccadea5cc24204995a98daa056c37bd5207fd0c5",
      "to": "0x7267dc183d5259ac33fd80322e62fc052efdad66",
      "contractAddress": null
    },
    {
      "status": "0x1",
      "cumulativeGasUsed": "0x27f4c9",
      "logs": [
        {
          "address": "0x7267dc183d5259ac33fd80322e62fc052efdad66",
          "topics": [
            "0x9205f54491e32927259b3f6e67e823b85407d3a915972fe9973e58788507b254",
            "0x00000000000000000000000000000000000000000000000000000000000f4240",
            "0x00000000000000000000000000000000000000000000000000000000680c3d0b"
          ],
          "data": "0x",
          "blockHash": "0x82ef3ceefb365b5f00cc12f1fdc034a7537bb35c0449a862e2f7d929ad988b8a",
          "blockNumber": "0x15508e8",
          "transactionHash": "0x2d377386669bf32b6eddf3f5c25d31bc5414e7d4a69ac7e8f02fff1d51459a18",
          "transactionIndex": "0x1f",
          "logIndex": "0x46",
          "removed": false
        },
        {
          "address": "0x7267dc183d5259ac33fd80322e62fc052efdad66",
          "topics": [
            "0x943a793c11a909d4409e7706d8c3d1467960e08f6141234950042994856812df",
            "0x7072696365000000000000000000000000000000000000000000000000000000"
          ],
          "data": "0x00000000000000000000000000000000000000000000000000000000000f4240",
          "blockHash": "0x82ef3ceefb365b5f00cc12f1fdc034a7537bb35c0449a862e2f7d929ad988b8a",
          "blockNumber": "0x15508e8",
          "transactionHash": "0x2d377386669bf32b6eddf3f5c25d31bc5414e7d4a69ac7e8f02fff1d51459a18",
          "transactionIndex": "0x1f",
          "logIndex": "0x47",
          "removed": false
        }
      ],
      "logsBloom": "0x00000000000000000000000000000000000000000000000200000000000000000000000000000000002000200000000000001000000000000000000000000000000000200000000000020000000000000000000000000000000000000000000000000000000000000000800000400000000000000000000000000000000000000000000000000000000000000010000000000000000000000000000000000000000000000000000000000000000000000020000000040000000000000000000000000000800000002000800000000000000000100000010000000040000000000000000000000000000000000000000000000000800000000000000000000000",
      "type": "0x2",
      "transactionHash": "0x2d377386669bf32b6eddf3f5c25d31bc5414e7d4a69ac7e8f02fff1d51459a18",
      "transactionIndex": "0x1f",
      "blockHash": "0x82ef3ceefb365b5f00cc12f1fdc034a7537bb35c0449a862e2f7d929ad988b8a",
      "blockNumber": "0x15508e8",
      "gasUsed": "0xd3a5",
      "effectiveGasPrice": "0x429bc63e",
      "from": "0xccadea5cc24204995a98daa056c37bd5207fd0c5",
      "to": "0x7267dc183d5259ac33fd80322e62fc052efdad66",
      "contractAddress": null
    },
    {
      "status": "0x1",
      "cumulativeGasUsed": "0x4fdf56",
      "logs": [],
      "logsBloom": "0x00000000000000000000000000000000000000000000000000000000000000000000000000000000000000000000000000000000000000000000000000000000000000000000000000000000000000000000000000000000000000000000000000000000000000000000000000000000000000000000000000000000000000000000000000000000000000000000000000000000000000000000000000000000000000000000000000000000000000000000000000000000000000000000000000000000000000000000000000000000000000000000000000000000000000000000000000000000000000000000000000000000000000000000000000000000",
      "type": "0x2",
      "transactionHash": "0x8495b602eaac353cf37c43e4db544432cfc136d73dfd61df0a89003fcf6389a4",
      "transactionIndex": "0x40",
      "blockHash": "0xcf2535d214481bd6acee8e289e10cd3e6b178acf37f22e747f7e4dfcbe215227",
      "blockNumber": "0x15508e9",
      "gasUsed": "0xc82d",
      "effectiveGasPrice": "0x429bc63e",
      "from": "0xccadea5cc24204995a98daa056c37bd5207fd0c5",
      "to": "0x7267dc183d5259ac33fd80322e62fc052efdad66",
      "contractAddress": null
    },
    {
      "status": "0x1",
      "cumulativeGasUsed": "0xaad14b",
      "logs": [],
      "logsBloom": "0x00000000000000000000000000000000000000000000000000000000000000000000000000000000000000000000000000000000000000000000000000000000000000000000000000000000000000000000000000000000000000000000000000000000000000000000000000000000000000000000000000000000000000000000000000000000000000000000000000000000000000000000000000000000000000000000000000000000000000000000000000000000000000000000000000000000000000000000000000000000000000000000000000000000000000000000000000000000000000000000000000000000000000000000000000000000",
      "type": "0x2",
      "transactionHash": "0xe721752213e24cd0527e93bef022019046b10a788ed16e80b8cb52ed9ffeb571",
      "transactionIndex": "0x47",
      "blockHash": "0x57029ca2226f574df1c9ea2849bfcd74ebb984e7ca5a9f077b1db8e88f4071c8",
      "blockNumber": "0x15508ea",
      "gasUsed": "0xc896",
      "effectiveGasPrice": "0x429bc63e",
      "from": "0xccadea5cc24204995a98daa056c37bd5207fd0c5",
      "to": "0x7267dc183d5259ac33fd80322e62fc052efdad66",
      "contractAddress": null
    },
    {
      "status": "0x1",
      "cumulativeGasUsed": "0x6f43b0",
      "logs": [],
      "logsBloom": "0x00000000000000000000000000000000000000000000000000000000000000000000000000000000000000000000000000000000000000000000000000000000000000000000000000000000000000000000000000000000000000000000000000000000000000000000000000000000000000000000000000000000000000000000000000000000000000000000000000000000000000000000000000000000000000000000000000000000000000000000000000000000000000000000000000000000000000000000000000000000000000000000000000000000000000000000000000000000000000000000000000000000000000000000000000000000",
      "type": "0x2",
      "transactionHash": "0xecaf200319a9ea392671d3c4708cde89da9f5cad96f8a18630e6af0d98ac47ad",
      "transactionIndex": "0x30",
      "blockHash": "0x54d2da5f3f54197de38f96e5760863be1ea4fad99bb1f7be3a1ad53e19d2da37",
      "blockNumber": "0x15508eb",
      "gasUsed": "0xb519",
      "effectiveGasPrice": "0x429bc63e",
      "from": "0xccadea5cc24204995a98daa056c37bd5207fd0c5",
      "to": "0x7267dc183d5259ac33fd80322e62fc052efdad66",
      "contractAddress": null
    },
    {
      "status": "0x1",
      "cumulativeGasUsed": "0x4d1877",
      "logs": [],
      "logsBloom": "0x00000000000000000000000000000000000000000000000000000000000000000000000000000000000000000000000000000000000000000000000000000000000000000000000000000000000000000000000000000000000000000000000000000000000000000000000000000000000000000000000000000000000000000000000000000000000000000000000000000000000000000000000000000000000000000000000000000000000000000000000000000000000000000000000000000000000000000000000000000000000000000000000000000000000000000000000000000000000000000000000000000000000000000000000000000000",
      "type": "0x2",
      "transactionHash": "0xabc1651b03a146b125e44694203ad4d33f241ffbf4ef26ee743192d942a4ae2d",
      "transactionIndex": "0x33",
      "blockHash": "0x155410cb4d4cc10aeb995ceb09912b5a082d1432e1fee7d888a41fe2eed40c73",
      "blockNumber": "0x15508ec",
      "gasUsed": "0xc710",
      "effectiveGasPrice": "0x429bc63e",
      "from": "0xccadea5cc24204995a98daa056c37bd5207fd0c5",
      "to": "0xd5b61ee60e89c4c068bc8f9628d0a36d8ed1e08c",
      "contractAddress": null
    },
    {
      "status": "0x1",
      "cumulativeGasUsed": "0x598bae",
      "logs": [],
      "logsBloom": "0x00000000000000000000000000000000000000000000000000000000000000000000000000000000000000000000000000000000000000000000000000000000000000000000000000000000000000000000000000000000000000000000000000000000000000000000000000000000000000000000000000000000000000000000000000000000000000000000000000000000000000000000000000000000000000000000000000000000000000000000000000000000000000000000000000000000000000000000000000000000000000000000000000000000000000000000000000000000000000000000000000000000000000000000000000000000",
      "type": "0x2",
      "transactionHash": "0x1c3814cc75c69d081a210b49cd3caae4b4de9b411c49f88a9481684919f2b8dd",
      "transactionIndex": "0x26",
      "blockHash": "0xffc70192c0a4773bbf7ba8492ba1fe6ce3a1888d4badb374a01e6590157abd5e",
      "blockNumber": "0x15508ed",
      "gasUsed": "0xc752",
      "effectiveGasPrice": "0x429bc63e",
      "from": "0xccadea5cc24204995a98daa056c37bd5207fd0c5",
      "to": "0xd5b61ee60e89c4c068bc8f9628d0a36d8ed1e08c",
      "contractAddress": null
    },
    {
      "status": "0x1",
      "cumulativeGasUsed": "0x9b2573",
      "logs": [],
      "logsBloom": "0x00000000000000000000000000000000000000000000000000000000000000000000000000000000000000000000000000000000000000000000000000000000000000000000000000000000000000000000000000000000000000000000000000000000000000000000000000000000000000000000000000000000000000000000000000000000000000000000000000000000000000000000000000000000000000000000000000000000000000000000000000000000000000000000000000000000000000000000000000000000000000000000000000000000000000000000000000000000000000000000000000000000000000000000000000000000",
      "type": "0x2",
      "transactionHash": "0x752e7e6fd984f01a25c624e697c217ff7326b02ab967625da404e725ad53a2f2",
      "transactionIndex": "0x4a",
      "blockHash": "0x7d34efd5e826b71ba7e3dae8d8d6689a543b50c6acdfc4648ebbd7a22a4ee003",
      "blockNumber": "0x15508ee",
      "gasUsed": "0xc70e",
      "effectiveGasPrice": "0x429bc63e",
      "from": "0xccadea5cc24204995a98daa056c37bd5207fd0c5",
      "to": "0xd5b61ee60e89c4c068bc8f9628d0a36d8ed1e08c",
      "contractAddress": null
    },
    {
      "status": "0x1",
      "cumulativeGasUsed": "0x80d9f0",
      "logs": [],
      "logsBloom": "0x00000000000000000000000000000000000000000000000000000000000000000000000000000000000000000000000000000000000000000000000000000000000000000000000000000000000000000000000000000000000000000000000000000000000000000000000000000000000000000000000000000000000000000000000000000000000000000000000000000000000000000000000000000000000000000000000000000000000000000000000000000000000000000000000000000000000000000000000000000000000000000000000000000000000000000000000000000000000000000000000000000000000000000000000000000000",
      "type": "0x2",
      "transactionHash": "0xc63e26a43d327dd5e287c7fcbb2df264bd0051b8af4eb4d69bc2238d40b0bce8",
      "transactionIndex": "0x44",
      "blockHash": "0x4d256088d1f33d40d7bf8723a12cf45734ffcde0577525a8aa8768fe3a07671d",
      "blockNumber": "0x15508ef",
      "gasUsed": "0xc723",
      "effectiveGasPrice": "0x429bc63e",
      "from": "0xccadea5cc24204995a98daa056c37bd5207fd0c5",
      "to": "0xd5b61ee60e89c4c068bc8f9628d0a36d8ed1e08c",
      "contractAddress": null
    },
    {
      "status": "0x1",
      "cumulativeGasUsed": "0x218027",
      "logs": [],
      "logsBloom": "0x00000000000000000000000000000000000000000000000000000000000000000000000000000000000000000000000000000000000000000000000000000000000000000000000000000000000000000000000000000000000000000000000000000000000000000000000000000000000000000000000000000000000000000000000000000000000000000000000000000000000000000000000000000000000000000000000000000000000000000000000000000000000000000000000000000000000000000000000000000000000000000000000000000000000000000000000000000000000000000000000000000000000000000000000000000000",
      "type": "0x2",
      "transactionHash": "0x300f8521ecf2f9936e76be0bd7757f583eae125400f175903ee9e0c1651e0a4d",
      "transactionIndex": "0x18",
      "blockHash": "0x6aaeeebc112c33e9e804b5f4c0dda81055173b9f7a39c248071a5d8e0b7160c6",
      "blockNumber": "0x15508f0",
      "gasUsed": "0x17b64",
      "effectiveGasPrice": "0x429bc63e",
      "from": "0xccadea5cc24204995a98daa056c37bd5207fd0c5",
      "to": "0xd5b61ee60e89c4c068bc8f9628d0a36d8ed1e08c",
      "contractAddress": null
    },
    {
      "status": "0x1",
      "cumulativeGasUsed": "0xc38192",
      "logs": [],
      "logsBloom": "0x00000000000000000000000000000000000000000000000000000000000000000000000000000000000000000000000000000000000000000000000000000000000000000000000000000000000000000000000000000000000000000000000000000000000000000000000000000000000000000000000000000000000000000000000000000000000000000000000000000000000000000000000000000000000000000000000000000000000000000000000000000000000000000000000000000000000000000000000000000000000000000000000000000000000000000000000000000000000000000000000000000000000000000000000000000000",
      "type": "0x2",
      "transactionHash": "0xb2c1916c2ad21cd4fe0d1b93d952d566052a84a15405c79fa802c99bdfefba52",
      "transactionIndex": "0x56",
      "blockHash": "0x3b08be545f1ac835b960ba5c24b158beb8508c01257645dbffdbd6a6b451408a",
      "blockNumber": "0x15508f1",
      "gasUsed": "0xc896",
      "effectiveGasPrice": "0x429bc63e",
      "from": "0xccadea5cc24204995a98daa056c37bd5207fd0c5",
      "to": "0xd5b61ee60e89c4c068bc8f9628d0a36d8ed1e08c",
      "contractAddress": null
    },
    {
      "status": "0x1",
      "cumulativeGasUsed": "0xa1631b",
      "logs": [],
      "logsBloom": "0x00000000000000000000000000000000000000000000000000000000000000000000000000000000000000000000000000000000000000000000000000000000000000000000000000000000000000000000000000000000000000000000000000000000000000000000000000000000000000000000000000000000000000000000000000000000000000000000000000000000000000000000000000000000000000000000000000000000000000000000000000000000000000000000000000000000000000000000000000000000000000000000000000000000000000000000000000000000000000000000000000000000000000000000000000000000",
      "type": "0x2",
      "transactionHash": "0x6c5e7035ddd828aa2cfa7a12b920422942d82d66591f860c6c1d8174fd14b170",
      "transactionIndex": "0x58",
      "blockHash": "0xeb172cfdc0a81c635cd523e8637ac0d50453a5d67db13b5d4f3e4601eb2d6ba4",
      "blockNumber": "0x15508f2",
      "gasUsed": "0xb519",
      "effectiveGasPrice": "0x429bc63e",
      "from": "0xccadea5cc24204995a98daa056c37bd5207fd0c5",
      "to": "0xd5b61ee60e89c4c068bc8f9628d0a36d8ed1e08c",
      "contractAddress": null
    },
    {
      "status": "0x1",
      "cumulativeGasUsed": "0x77617e",
      "logs": [],
      "logsBloom": "0x00000000000000000000000000000000000000000000000000000000000000000000000000000000000000000000000000000000000000000000000000000000000000000000000000000000000000000000000000000000000000000000000000000000000000000000000000000000000000000000000000000000000000000000000000000000000000000000000000000000000000000000000000000000000000000000000000000000000000000000000000000000000000000000000000000000000000000000000000000000000000000000000000000000000000000000000000000000000000000000000000000000000000000000000000000000",
      "type": "0x2",
      "transactionHash": "0x3a9fa2b3fb4615407b9de89400b5146fb52834d0dedea9ced30e7df9717f6f08",
      "transactionIndex": "0x4c",
      "blockHash": "0xc3b597423f47d0b6ed05718e46305e94135e9ce99bacee6d22f31df3f800123a",
      "blockNumber": "0x15508f3",
      "gasUsed": "0xc875",
      "effectiveGasPrice": "0x429bc63e",
      "from": "0xccadea5cc24204995a98daa056c37bd5207fd0c5",
      "to": "0xb9a83116abd6bf3476fc5819deeb91f63cafdca2",
      "contractAddress": null
    },
    {
      "status": "0x1",
      "cumulativeGasUsed": "0x16a5a4",
      "logs": [],
      "logsBloom": "0x00000000000000000000000000000000000000000000000000000000000000000000000000000000000000000000000000000000000000000000000000000000000000000000000000000000000000000000000000000000000000000000000000000000000000000000000000000000000000000000000000000000000000000000000000000000000000000000000000000000000000000000000000000000000000000000000000000000000000000000000000000000000000000000000000000000000000000000000000000000000000000000000000000000000000000000000000000000000000000000000000000000000000000000000000000000",
      "type": "0x2",
      "transactionHash": "0xa2fbdd371a87553be1d1e749d23e39e9c79397ee42ffcf30fca94fb4426f20d2",
      "transactionIndex": "0x15",
      "blockHash": "0xb56405ec60fea735a303d9fd549bb806fc6906592bf93b5731c461715cfa0b78",
      "blockNumber": "0x15508f4",
      "gasUsed": "0xc88b",
      "effectiveGasPrice": "0x429bc63e",
      "from": "0xccadea5cc24204995a98daa056c37bd5207fd0c5",
      "to": "0xb9a83116abd6bf3476fc5819deeb91f63cafdca2",
      "contractAddress": null
    },
    {
      "status": "0x1",
      "cumulativeGasUsed": "0x240aaa",
      "logs": [],
      "logsBloom": "0x00000000000000000000000000000000000000000000000000000000000000000000000000000000000000000000000000000000000000000000000000000000000000000000000000000000000000000000000000000000000000000000000000000000000000000000000000000000000000000000000000000000000000000000000000000000000000000000000000000000000000000000000000000000000000000000000000000000000000000000000000000000000000000000000000000000000000000000000000000000000000000000000000000000000000000000000000000000000000000000000000000000000000000000000000000000",
      "type": "0x2",
      "transactionHash": "0x14391c6f3099bcffef2dbcb0bd78070d033256533c185a6766bdd2da51c56fe8",
      "transactionIndex": "0x45",
      "blockHash": "0x8e7a8d7d5325dd344bdf786a135f6b997ecf0259edb5e12aff46c8cc5b38134d",
      "blockNumber": "0x15508f5",
      "gasUsed": "0xb519",
      "effectiveGasPrice": "0x429bc63e",
      "from": "0xccadea5cc24204995a98daa056c37bd5207fd0c5",
      "to": "0xb9a83116abd6bf3476fc5819deeb91f63cafdca2",
      "contractAddress": null
    },
    {
      "status": "0x1",
      "cumulativeGasUsed": "0xd2a202",
      "logs": [],
      "logsBloom": "0x00000000000000000000000000000000000000000000000000000000000000000000000000000000000000000000000000000000000000000000000000000000000000000000000000000000000000000000000000000000000000000000000000000000000000000000000000000000000000000000000000000000000000000000000000000000000000000000000000000000000000000000000000000000000000000000000000000000000000000000000000000000000000000000000000000000000000000000000000000000000000000000000000000000000000000000000000000000000000000000000000000000000000000000000000000000",
      "type": "0x2",
      "transactionHash": "0xb487dcfa60c693a009e74a5d3a6fff4894697da1ebe9b8ec18975b68fa77b49f",
      "transactionIndex": "0xa3",
      "blockHash": "0x1ea55103d7cd7171ab73de2e1b5389eda81789411e67382feb4bf17ca9a7a9b5",
      "blockNumber": "0x15508f6",
      "gasUsed": "0xc85f",
      "effectiveGasPrice": "0x429bc63e",
      "from": "0xccadea5cc24204995a98daa056c37bd5207fd0c5",
      "to": "0xb946b4c20522d23cccae926aceef6fc302f56609",
      "contractAddress": null
    },
    {
      "status": "0x1",
      "cumulativeGasUsed": "0x8d123f",
      "logs": [],
      "logsBloom": "0x00000000000000000000000000000000000000000000000000000000000000000000000000000000000000000000000000000000000000000000000000000000000000000000000000000000000000000000000000000000000000000000000000000000000000000000000000000000000000000000000000000000000000000000000000000000000000000000000000000000000000000000000000000000000000000000000000000000000000000000000000000000000000000000000000000000000000000000000000000000000000000000000000000000000000000000000000000000000000000000000000000000000000000000000000000000",
      "type": "0x2",
      "transactionHash": "0x1e03704af7a0ab037a3f9e55502812470a7979d2bc9d5fc9d72c16139998fcfb",
      "transactionIndex": "0x52",
      "blockHash": "0x66eee917de517706291880ade22db6bd30fd0167298ad6cde5f33f8a2f96cd58",
      "blockNumber": "0x15508f7",
      "gasUsed": "0xb519",
      "effectiveGasPrice": "0x429bc63e",
      "from": "0xccadea5cc24204995a98daa056c37bd5207fd0c5",
      "to": "0xb946b4c20522d23cccae926aceef6fc302f56609",
      "contractAddress": null
    },
    {
      "status": "0x1",
      "cumulativeGasUsed": "0x7df42f",
      "logs": [],
      "logsBloom": "0x00000000000000000000000000000000000000000000000000000000000000000000000000000000000000000000000000000000000000000000000000000000000000000000000000000000000000000000000000000000000000000000000000000000000000000000000000000000000000000000000000000000000000000000000000000000000000000000000000000000000000000000000000000000000000000000000000000000000000000000000000000000000000000000000000000000000000000000000000000000000000000000000000000000000000000000000000000000000000000000000000000000000000000000000000000000",
      "type": "0x2",
      "transactionHash": "0x77e660b0212e48b35445890cfe26b92ced8393b04b89fd08e16ec7c033de007e",
      "transactionIndex": "0x63",
      "blockHash": "0x2e692900d183af3374ea27d9aecc93d6047d1834b69accc8f508f5be324f3eab",
      "blockNumber": "0x15508f8",
      "gasUsed": "0xc80f",
      "effectiveGasPrice": "0x429bc63e",
      "from": "0xccadea5cc24204995a98daa056c37bd5207fd0c5",
      "to": "0x9e0924075bb6696e70f638336ee36e3bd9a130c7",
      "contractAddress": null
    },
    {
      "status": "0x1",
      "cumulativeGasUsed": "0x5fffe9",
      "logs": [],
      "logsBloom": "0x00000000000000000000000000000000000000000000000000000000000000000000000000000000000000000000000000000000000000000000000000000000000000000000000000000000000000000000000000000000000000000000000000000000000000000000000000000000000000000000000000000000000000000000000000000000000000000000000000000000000000000000000000000000000000000000000000000000000000000000000000000000000000000000000000000000000000000000000000000000000000000000000000000000000000000000000000000000000000000000000000000000000000000000000000000000",
      "type": "0x2",
      "transactionHash": "0x09cb74a34fa1bd0688b223e69741ac5461f72048f0ea59df03ff7a05d49e0fe2",
      "transactionIndex": "0x6e",
      "blockHash": "0x2bb7bbab7c0a00f98837a131603a0c275c36233a34c064db7af25d4e3a73026c",
      "blockNumber": "0x15508f9",
      "gasUsed": "0xc80f",
      "effectiveGasPrice": "0x429bc63e",
      "from": "0xccadea5cc24204995a98daa056c37bd5207fd0c5",
      "to": "0x9e0924075bb6696e70f638336ee36e3bd9a130c7",
      "contractAddress": null
    },
    {
      "status": "0x1",
      "cumulativeGasUsed": "0xc595ea",
      "logs": [],
      "logsBloom": "0x00000000000000000000000000000000000000000000000000000000000000000000000000000000000000000000000000000000000000000000000000000000000000000000000000000000000000000000000000000000000000000000000000000000000000000000000000000000000000000000000000000000000000000000000000000000000000000000000000000000000000000000000000000000000000000000000000000000000000000000000000000000000000000000000000000000000000000000000000000000000000000000000000000000000000000000000000000000000000000000000000000000000000000000000000000000",
      "type": "0x2",
      "transactionHash": "0x2b61dfd648a8cd11facadd9c553df8d0033b024f8e213aacda8621e54db50980",
      "transactionIndex": "0x6f",
      "blockHash": "0x96ca3c0dc10a1bc54fd42ee009055d1d658ff24210d0498766b1888b827fb403",
      "blockNumber": "0x15508fa",
      "gasUsed": "0xc80f",
      "effectiveGasPrice": "0x429bc63e",
      "from": "0xccadea5cc24204995a98daa056c37bd5207fd0c5",
      "to": "0x9e0924075bb6696e70f638336ee36e3bd9a130c7",
      "contractAddress": null
    },
    {
      "status": "0x1",
      "cumulativeGasUsed": "0x482c33",
      "logs": [],
      "logsBloom": "0x00000000000000000000000000000000000000000000000000000000000000000000000000000000000000000000000000000000000000000000000000000000000000000000000000000000000000000000000000000000000000000000000000000000000000000000000000000000000000000000000000000000000000000000000000000000000000000000000000000000000000000000000000000000000000000000000000000000000000000000000000000000000000000000000000000000000000000000000000000000000000000000000000000000000000000000000000000000000000000000000000000000000000000000000000000000",
      "type": "0x2",
      "transactionHash": "0x98111cbf2e02d7b5b13df948a6a0abd299f4ef110df622e12a60dcc903fbdb1a",
      "transactionIndex": "0x45",
      "blockHash": "0x38c8531ce98fe19a1f313a838369edc9f51f22c31b4fff0124033eef996dcd70",
      "blockNumber": "0x15508fb",
      "gasUsed": "0xc80f",
      "effectiveGasPrice": "0x429bc63e",
      "from": "0xccadea5cc24204995a98daa056c37bd5207fd0c5",
      "to": "0x9e0924075bb6696e70f638336ee36e3bd9a130c7",
      "contractAddress": null
    },
    {
      "status": "0x1",
      "cumulativeGasUsed": "0x629932",
      "logs": [],
      "logsBloom": "0x00000000000000000000000000000000000000000000000000000000000000000000000000000000000000000000000000000000000000000000000000000000000000000000000000000000000000000000000000000000000000000000000000000000000000000000000000000000000000000000000000000000000000000000000000000000000000000000000000000000000000000000000000000000000000000000000000000000000000000000000000000000000000000000000000000000000000000000000000000000000000000000000000000000000000000000000000000000000000000000000000000000000000000000000000000000",
      "type": "0x2",
      "transactionHash": "0xd711bbddcda8948b94b35961df8409ffe799b67d5a2c2de897e31fca21ea4a7c",
      "transactionIndex": "0x3f",
      "blockHash": "0xa795105a0030ae489f58e829269e620bb250630db76517ee420c5eb48e7f6e32",
      "blockNumber": "0x15508fc",
      "gasUsed": "0xc80f",
      "effectiveGasPrice": "0x429bc63e",
      "from": "0xccadea5cc24204995a98daa056c37bd5207fd0c5",
      "to": "0x9e0924075bb6696e70f638336ee36e3bd9a130c7",
      "contractAddress": null
    },
    {
      "status": "0x1",
      "cumulativeGasUsed": "0x9df238",
      "logs": [],
      "logsBloom": "0x00000000000000000000000000000000000000000000000000000000000000000000000000000000000000000000000000000000000000000000000000000000000000000000000000000000000000000000000000000000000000000000000000000000000000000000000000000000000000000000000000000000000000000000000000000000000000000000000000000000000000000000000000000000000000000000000000000000000000000000000000000000000000000000000000000000000000000000000000000000000000000000000000000000000000000000000000000000000000000000000000000000000000000000000000000000",
      "type": "0x2",
      "transactionHash": "0xc733d3f4d1cbf129f690a19f29b33d9b89ef5f5758efddb4b772a776b1ccdcc1",
      "transactionIndex": "0x60",
      "blockHash": "0x6788f2d82ddeb754ce5763d901167fd74893101a19fd0f9eed418c46f8d36f16",
      "blockNumber": "0x15508fd",
      "gasUsed": "0xc80f",
      "effectiveGasPrice": "0x429bc63e",
      "from": "0xccadea5cc24204995a98daa056c37bd5207fd0c5",
      "to": "0x9e0924075bb6696e70f638336ee36e3bd9a130c7",
      "contractAddress": null
    },
    {
      "status": "0x1",
      "cumulativeGasUsed": "0x3ce850",
      "logs": [],
      "logsBloom": "0x00000000000000000000000000000000000000000000000000000000000000000000000000000000000000000000000000000000000000000000000000000000000000000000000000000000000000000000000000000000000000000000000000000000000000000000000000000000000000000000000000000000000000000000000000000000000000000000000000000000000000000000000000000000000000000000000000000000000000000000000000000000000000000000000000000000000000000000000000000000000000000000000000000000000000000000000000000000000000000000000000000000000000000000000000000000",
      "type": "0x2",
      "transactionHash": "0xcfe07bc2839b10c5219486ae301b93d921df8a82321a462a14e6a790a6b1b7fe",
      "transactionIndex": "0x43",
      "blockHash": "0xe708552fb99a7ee0f7a1d96d67c7fb06e2b5f54a4fdda4f6befcfb6bc9a63512",
      "blockNumber": "0x15508fe",
      "gasUsed": "0xc803",
      "effectiveGasPrice": "0x429bc63e",
      "from": "0xccadea5cc24204995a98daa056c37bd5207fd0c5",
      "to": "0x9e0924075bb6696e70f638336ee36e3bd9a130c7",
      "contractAddress": null
    },
    {
      "status": "0x1",
      "cumulativeGasUsed": "0x4aff9f",
      "logs": [],
      "logsBloom": "0x00000000000000000000000000000000000000000000000000000000000000000000000000000000000000000000000000000000000000000000000000000000000000000000000000000000000000000000000000000000000000000000000000000000000000000000000000000000000000000000000000000000000000000000000000000000000000000000000000000000000000000000000000000000000000000000000000000000000000000000000000000000000000000000000000000000000000000000000000000000000000000000000000000000000000000000000000000000000000000000000000000000000000000000000000000000",
      "type": "0x2",
      "transactionHash": "0xe0d6ce7eef95cf3b08afe8331717ca9d23e81bd7ebfc8e3ba5a61b01540aa845",
      "transactionIndex": "0x4a",
      "blockHash": "0x8a710bf8fedf07dbfcb91b1317ffe139966bf342247e626ddd922b0134b1b688",
      "blockNumber": "0x15508ff",
      "gasUsed": "0xc80f",
      "effectiveGasPrice": "0x429bc63e",
      "from": "0xccadea5cc24204995a98daa056c37bd5207fd0c5",
      "to": "0x9e0924075bb6696e70f638336ee36e3bd9a130c7",
      "contractAddress": null
    },
    {
      "status": "0x1",
      "cumulativeGasUsed": "0xe76b79",
      "logs": [],
      "logsBloom": "0x00000000000000000000000000000000000000000000000000000000000000000000000000000000000000000000000000000000000000000000000000000000000000000000000000000000000000000000000000000000000000000000000000000000000000000000000000000000000000000000000000000000000000000000000000000000000000000000000000000000000000000000000000000000000000000000000000000000000000000000000000000000000000000000000000000000000000000000000000000000000000000000000000000000000000000000000000000000000000000000000000000000000000000000000000000000",
      "type": "0x2",
      "transactionHash": "0x80226bedd7043f7052abeaabb5f3e5b03cdf164c4200e0d71be1309b1ff67b98",
      "transactionIndex": "0xd5",
      "blockHash": "0xf339ed52fc0f0669db2f6da2bd338041e14dbc5cb780add293bd05081d67b019",
      "blockNumber": "0x1550900",
      "gasUsed": "0xc80f",
      "effectiveGasPrice": "0x429bc63e",
      "from": "0xccadea5cc24204995a98daa056c37bd5207fd0c5",
      "to": "0x9e0924075bb6696e70f638336ee36e3bd9a130c7",
      "contractAddress": null
    },
    {
      "status": "0x1",
      "cumulativeGasUsed": "0xbe91be",
      "logs": [],
      "logsBloom": "0x00000000000000000000000000000000000000000000000000000000000000000000000000000000000000000000000000000000000000000000000000000000000000000000000000000000000000000000000000000000000000000000000000000000000000000000000000000000000000000000000000000000000000000000000000000000000000000000000000000000000000000000000000000000000000000000000000000000000000000000000000000000000000000000000000000000000000000000000000000000000000000000000000000000000000000000000000000000000000000000000000000000000000000000000000000000",
      "type": "0x2",
      "transactionHash": "0x6a594b9a37a8f7a1e5f7951bf28eac1d728b18bbd51467873f0d13630cce188f",
      "transactionIndex": "0xb5",
      "blockHash": "0x76241332775d8f4331ed31e35f243f8087dde58dbd76ab63d9e3ee551668d8a7",
      "blockNumber": "0x1550901",
      "gasUsed": "0xc837",
      "effectiveGasPrice": "0x429bc63e",
      "from": "0xccadea5cc24204995a98daa056c37bd5207fd0c5",
      "to": "0x9e0924075bb6696e70f638336ee36e3bd9a130c7",
      "contractAddress": null
    },
    {
      "status": "0x1",
      "cumulativeGasUsed": "0xbb3e0f",
      "logs": [],
      "logsBloom": "0x00000000000000000000000000000000000000000000000000000000000000000000000000000000000000000000000000000000000000000000000000000000000000000000000000000000000000000000000000000000000000000000000000000000000000000000000000000000000000000000000000000000000000000000000000000000000000000000000000000000000000000000000000000000000000000000000000000000000000000000000000000000000000000000000000000000000000000000000000000000000000000000000000000000000000000000000000000000000000000000000000000000000000000000000000000000",
      "type": "0x2",
      "transactionHash": "0xe32edaf2bc5b440d359f5325656c46114012d92922ca0369fc2dbab748044a5b",
      "transactionIndex": "0x55",
      "blockHash": "0x5daa76dac77b56172ff2f4939c3cbbb6c6d2ed2b39170b34f3ea88833190907c",
      "blockNumber": "0x1550902",
      "gasUsed": "0xc837",
      "effectiveGasPrice": "0x429bc63e",
      "from": "0xccadea5cc24204995a98daa056c37bd5207fd0c5",
      "to": "0x9e0924075bb6696e70f638336ee36e3bd9a130c7",
      "contractAddress": null
    },
    {
      "status": "0x1",
      "cumulativeGasUsed": "0x3429ef",
      "logs": [],
      "logsBloom": "0x00000000000000000000000000000000000000000000000000000000000000000000000000000000000000000000000000000000000000000000000000000000000000000000000000000000000000000000000000000000000000000000000000000000000000000000000000000000000000000000000000000000000000000000000000000000000000000000000000000000000000000000000000000000000000000000000000000000000000000000000000000000000000000000000000000000000000000000000000000000000000000000000000000000000000000000000000000000000000000000000000000000000000000000000000000000",
      "type": "0x2",
      "transactionHash": "0xfe52b29eca615d0be7043d632fd634233226e35dfe508828a6d96f780a548c19",
      "transactionIndex": "0x2e",
      "blockHash": "0xd5256997472a0783efd1d0e1447a231d2d77c535b0a2570e3048ef337b615b42",
      "blockNumber": "0x1550903",
      "gasUsed": "0xc837",
      "effectiveGasPrice": "0x429bc63e",
      "from": "0xccadea5cc24204995a98daa056c37bd5207fd0c5",
      "to": "0x9e0924075bb6696e70f638336ee36e3bd9a130c7",
      "contractAddress": null
    },
    {
      "status": "0x1",
      "cumulativeGasUsed": "0x2672a7",
      "logs": [],
      "logsBloom": "0x00000000000000000000000000000000000000000000000000000000000000000000000000000000000000000000000000000000000000000000000000000000000000000000000000000000000000000000000000000000000000000000000000000000000000000000000000000000000000000000000000000000000000000000000000000000000000000000000000000000000000000000000000000000000000000000000000000000000000000000000000000000000000000000000000000000000000000000000000000000000000000000000000000000000000000000000000000000000000000000000000000000000000000000000000000000",
      "type": "0x2",
      "transactionHash": "0xbdbb5cfd3a336b04d10d3cf2cde0b8e2c133bec2320cc849cde6b6755d06fc49",
      "transactionIndex": "0x2d",
      "blockHash": "0xd8a74212eb3f9a2a61a8a69dda2762be62d9aaae5e57f85bc28c7dfe1958d90f",
      "blockNumber": "0x1550904",
      "gasUsed": "0xc837",
      "effectiveGasPrice": "0x429bc63e",
      "from": "0xccadea5cc24204995a98daa056c37bd5207fd0c5",
      "to": "0x9e0924075bb6696e70f638336ee36e3bd9a130c7",
      "contractAddress": null
    },
    {
      "status": "0x1",
      "cumulativeGasUsed": "0xd2b3d1",
      "logs": [],
      "logsBloom": "0x00000000000000000000000000000000000000000000000000000000000000000000000000000000000000000000000000000000000000000000000000000000000000000000000000000000000000000000000000000000000000000000000000000000000000000000000000000000000000000000000000000000000000000000000000000000000000000000000000000000000000000000000000000000000000000000000000000000000000000000000000000000000000000000000000000000000000000000000000000000000000000000000000000000000000000000000000000000000000000000000000000000000000000000000000000000",
      "type": "0x2",
      "transactionHash": "0x468a3dc33bd25e5434ba26d891bbb52a15c4cacf04d1d57e217726e01adb6b29",
      "transactionIndex": "0x94",
      "blockHash": "0x0ea03c2b817bb13717bfa7c5c43e5f96805e59b8e7f0c1aa0c1ec55059889413",
      "blockNumber": "0x1550905",
      "gasUsed": "0xc8b9",
      "effectiveGasPrice": "0x429bc63e",
      "from": "0xccadea5cc24204995a98daa056c37bd5207fd0c5",
      "to": "0x9e0924075bb6696e70f638336ee36e3bd9a130c7",
      "contractAddress": null
    },
    {
      "status": "0x1",
      "cumulativeGasUsed": "0x8431e9",
      "logs": [],
      "logsBloom": "0x00000000000000000000000000000000000000000000000000000000000000000000000000000000000000000000000000000000000000000000000000000000000000000000000000000000000000000000000000000000000000000000000000000000000000000000000000000000000000000000000000000000000000000000000000000000000000000000000000000000000000000000000000000000000000000000000000000000000000000000000000000000000000000000000000000000000000000000000000000000000000000000000000000000000000000000000000000000000000000000000000000000000000000000000000000000",
      "type": "0x2",
      "transactionHash": "0xec0ba2dc4c12c2888828f14a76f4de962c0d73271c76a98a474ec526810146e8",
      "transactionIndex": "0x47",
      "blockHash": "0x60bab64848cf3ae86c0fa05c822ec9b4b7fd8cda89345dd5a958f3d2834a76f9",
      "blockNumber": "0x1550906",
      "gasUsed": "0xb519",
      "effectiveGasPrice": "0x429bc63e",
      "from": "0xccadea5cc24204995a98daa056c37bd5207fd0c5",
      "to": "0x9e0924075bb6696e70f638336ee36e3bd9a130c7",
      "contractAddress": null
    },
    {
      "status": "0x1",
      "cumulativeGasUsed": "0x980cfa",
      "logs": [],
      "logsBloom": "0x00000000000000000000000000000000000000000000000000000000000000000000000000000000000000000000000000000000000000000000000000000000000000000000000000000000000000000000000000000000000000000000000000000000000000000000000000000000000000000000000000000000000000000000000000000000000000000000000000000000000000000000000000000000000000000000000000000000000000000000000000000000000000000000000000000000000000000000000000000000000000000000000000000000000000000000000000000000000000000000000000000000000000000000000000000000",
      "type": "0x2",
      "transactionHash": "0xd942d04e1f35fb492e329b4d5361bd8ae879cd4a155ab83a90e1d2492a827af8",
      "transactionIndex": "0x71",
      "blockHash": "0xf1d6017cff075ff8b2cc77aafe3539b921658d1ab176135e656440b34f23f0a5",
      "blockNumber": "0x1550907",
      "gasUsed": "0x7ac2",
      "effectiveGasPrice": "0x429bc63e",
      "from": "0xccadea5cc24204995a98daa056c37bd5207fd0c5",
      "to": "0x7267dc183d5259ac33fd80322e62fc052efdad66",
      "contractAddress": null
    },
    {
      "status": "0x1",
      "cumulativeGasUsed": "0x617d9c",
      "logs": [],
      "logsBloom": "0x00000000000000000000000000000000000000000000000000000000000000000000000000000000000000000000000000000000000000000000000000000000000000000000000000000000000000000000000000000000000000000000000000000000000000000000000000000000000000000000000000000000000000000000000000000000000000000000000000000000000000000000000000000000000000000000000000000000000000000000000000000000000000000000000000000000000000000000000000000000000000000000000000000000000000000000000000000000000000000000000000000000000000000000000000000000",
      "type": "0x2",
      "transactionHash": "0x5b50c1388c12095040a48d340cc9e2cb7b0de8f3a871f1c62f2a4ebf367f707d",
      "transactionIndex": "0x50",
      "blockHash": "0xf34a778cc7f5ad914d818160f2f6bab6b6c3b9171afc317dbaa05aea8989b2d4",
      "blockNumber": "0x1550909",
      "gasUsed": "0x6773",
      "effectiveGasPrice": "0x429bc63e",
      "from": "0xccadea5cc24204995a98daa056c37bd5207fd0c5",
      "to": "0x7267dc183d5259ac33fd80322e62fc052efdad66",
      "contractAddress": null
    },
    {
      "status": "0x1",
      "cumulativeGasUsed": "0x6706b3",
      "logs": [],
      "logsBloom": "0x00000000000000000000000000000000000000000000000000000000000000000000000000000000000000000000000000000000000000000000000000000000000000000000000000000000000000000000000000000000000000000000000000000000000000000000000000000000000000000000000000000000000000000000000000000000000000000000000000000000000000000000000000000000000000000000000000000000000000000000000000000000000000000000000000000000000000000000000000000000000000000000000000000000000000000000000000000000000000000000000000000000000000000000000000000000",
      "type": "0x2",
      "transactionHash": "0xcad20b8a41ee8e15c618f36e0f5e20250231553b6cae5a2ff1d8fc47636b6e77",
      "transactionIndex": "0x3d",
      "blockHash": "0x3b12c4169d05dabbfba20068d4d73dc8d5298781968b25a8e95aa927dd180022",
      "blockNumber": "0x155090a",
      "gasUsed": "0x7aef",
      "effectiveGasPrice": "0x429bc63e",
      "from": "0xccadea5cc24204995a98daa056c37bd5207fd0c5",
      "to": "0xd5b61ee60e89c4c068bc8f9628d0a36d8ed1e08c",
      "contractAddress": null
    },
    {
      "status": "0x1",
      "cumulativeGasUsed": "0xbcd0ac",
      "logs": [],
      "logsBloom": "0x00000000000000000000000000000000000000000000000000000000000000000000000000000000000000000000000000000000000000000000000000000000000000000000000000000000000000000000000000000000000000000000000000000000000000000000000000000000000000000000000000000000000000000000000000000000000000000000000000000000000000000000000000000000000000000000000000000000000000000000000000000000000000000000000000000000000000000000000000000000000000000000000000000000000000000000000000000000000000000000000000000000000000000000000000000000",
      "type": "0x2",
      "transactionHash": "0x33b7fda2e00cc6141aea9eed33333632875f02b6729146b51a1a60d8f12ef009",
      "transactionIndex": "0x58",
      "blockHash": "0x1385bc5acb555be61c18accdac159b1f57b73e7a29421d930f16c3dffdc4b060",
      "blockNumber": "0x155090b",
      "gasUsed": "0x6773",
      "effectiveGasPrice": "0x429bc63e",
      "from": "0xccadea5cc24204995a98daa056c37bd5207fd0c5",
      "to": "0xd5b61ee60e89c4c068bc8f9628d0a36d8ed1e08c",
      "contractAddress": null
    },
    {
      "status": "0x1",
      "cumulativeGasUsed": "0x693709",
      "logs": [],
      "logsBloom": "0x00000000000000000000000000000000000000000000000000000000000000000000000000000000000000000000000000000000000000000000000000000000000000000000000000000000000000000000000000000000000000000000000000000000000000000000000000000000000000000000000000000000000000000000000000000000000000000000000000000000000000000000000000000000000000000000000000000000000000000000000000000000000000000000000000000000000000000000000000000000000000000000000000000000000000000000000000000000000000000000000000000000000000000000000000000000",
      "type": "0x2",
      "transactionHash": "0x9b43472ccb7051ae534b3d151d3b82b60e37b91ddde233c459b62fdc79e8e794",
      "transactionIndex": "0x2b",
      "blockHash": "0x4a3fa0207a7783d8d408083e4a8cdd14ae37e545e7324390e1dcd4cc8e6e3082",
      "blockNumber": "0x155090c",
      "gasUsed": "0x7aac",
      "effectiveGasPrice": "0x429bc63e",
      "from": "0xccadea5cc24204995a98daa056c37bd5207fd0c5",
      "to": "0xb9a83116abd6bf3476fc5819deeb91f63cafdca2",
      "contractAddress": null
    },
    {
      "status": "0x1",
      "cumulativeGasUsed": "0xc626e4",
      "logs": [],
      "logsBloom": "0x00000000000000000000000000000000000000000000000000000000000000000000000000000000000000000000000000000000000000000000000000000000000000000000000000000000000000000000000000000000000000000000000000000000000000000000000000000000000000000000000000000000000000000000000000000000000000000000000000000000000000000000000000000000000000000000000000000000000000000000000000000000000000000000000000000000000000000000000000000000000000000000000000000000000000000000000000000000000000000000000000000000000000000000000000000000",
      "type": "0x2",
      "transactionHash": "0x4235d37ac7ae950c77d85a2f41d950a8560bc5a7e0677d16087d5491bb473c14",
      "transactionIndex": "0x6f",
      "blockHash": "0x9009211150b18e3be4cd4bd4780b21dad505fc9c4451b2e6b410acae7623829e",
      "blockNumber": "0x155090d",
      "gasUsed": "0x6773",
      "effectiveGasPrice": "0x429bc63e",
      "from": "0xccadea5cc24204995a98daa056c37bd5207fd0c5",
      "to": "0xb9a83116abd6bf3476fc5819deeb91f63cafdca2",
      "contractAddress": null
    },
    {
      "status": "0x1",
      "cumulativeGasUsed": "0x8642cc",
      "logs": [],
      "logsBloom": "0x00000000000000000000000000000000000000000000000000000000000000000000000000000000000000000000000000000000000000000000000000000000000000000000000000000000000000000000000000000000000000000000000000000000000000000000000000000000000000000000000000000000000000000000000000000000000000000000000000000000000000000000000000000000000000000000000000000000000000000000000000000000000000000000000000000000000000000000000000000000000000000000000000000000000000000000000000000000000000000000000000000000000000000000000000000000",
      "type": "0x2",
      "transactionHash": "0x4e8485918c94415c5104536b0e409496d31ff19caf40ef6ac575eebc9ea9018e",
      "transactionIndex": "0x57",
      "blockHash": "0x33e6736fc5c091e52fdc7f99723a23e1791fb2eb84dcadb86b2872d9dc9b31de",
      "blockNumber": "0x155090e",
      "gasUsed": "0x7ac2",
      "effectiveGasPrice": "0x429bc63e",
      "from": "0xccadea5cc24204995a98daa056c37bd5207fd0c5",
      "to": "0xb946b4c20522d23cccae926aceef6fc302f56609",
      "contractAddress": null
    },
    {
      "status": "0x1",
      "cumulativeGasUsed": "0x81ccb9",
      "logs": [],
      "logsBloom": "0x00000000000000000000000000000000000000000000000000000000000000000000000000000000000000000000000000000000000000000000000000000000000000000000000000000000000000000000000000000000000000000000000000000000000000000000000000000000000000000000000000000000000000000000000000000000000000000000000000000000000000000000000000000000000000000000000000000000000000000000000000000000000000000000000000000000000000000000000000000000000000000000000000000000000000000000000000000000000000000000000000000000000000000000000000000000",
      "type": "0x2",
      "transactionHash": "0xeedcf18c5fe992a0a49e66eb1f133a3aa95f77d319a336ff086ce966cef9b3b8",
      "transactionIndex": "0x5a",
      "blockHash": "0x40818d89c12f897399cd640fc578011c3ce196cb94fb76dcdf13742e50a12af3",
      "blockNumber": "0x155090f",
      "gasUsed": "0x6773",
      "effectiveGasPrice": "0x429bc63e",
      "from": "0xccadea5cc24204995a98daa056c37bd5207fd0c5",
      "to": "0xb946b4c20522d23cccae926aceef6fc302f56609",
      "contractAddress": null
    },
    {
      "status": "0x1",
      "cumulativeGasUsed": "0x7aba90",
      "logs": [],
      "logsBloom": "0x00000000000000000000000000000000000000000000000000000000000000000000000000000000000000000000000000000000000000000000000000000000000000000000000000000000000000000000000000000000000000000000000000000000000000000000000000000000000000000000000000000000000000000000000000000000000000000000000000000000000000000000000000000000000000000000000000000000000000000000000000000000000000000000000000000000000000000000000000000000000000000000000000000000000000000000000000000000000000000000000000000000000000000000000000000000",
      "type": "0x2",
      "transactionHash": "0x01aa6d61bb05b619d1980986c7a0ec1e20ddea6f35daa7cbff76cf4b0344b00f",
      "transactionIndex": "0x54",
      "blockHash": "0x9298fa61d81aebadbb39553165926b474099b61b97f7edaa219da69c139f92b1",
      "blockNumber": "0x1550910",
      "gasUsed": "0x7b12",
      "effectiveGasPrice": "0x429bc63e",
      "from": "0xccadea5cc24204995a98daa056c37bd5207fd0c5",
      "to": "0x9e0924075bb6696e70f638336ee36e3bd9a130c7",
      "contractAddress": null
    },
    {
      "status": "0x1",
      "cumulativeGasUsed": "0x7286bc",
      "logs": [],
      "logsBloom": "0x00000000000000000000000000000000000000000000000000000000000000000000000000000000000000000000000000000000000000000000000000000000000000000000000000000000000000000000000000000000000000000000000000000000000000000000000000000000000000000000000000000000000000000000000000000000000000000000000000000000000000000000000000000000000000000000000000000000000000000000000000000000000000000000000000000000000000000000000000000000000000000000000000000000000000000000000000000000000000000000000000000000000000000000000000000000",
      "type": "0x2",
      "transactionHash": "0x3bc58b9567e57094c1ce811ddd40b1cd7867f6c0c893f0a26a75a43179b1e583",
      "transactionIndex": "0x3f",
      "blockHash": "0xdb04443e261c5fbba6e66aa08bbe08d3ac1819c04a2812835c8a7d9529263498",
      "blockNumber": "0x1550911",
      "gasUsed": "0x6773",
      "effectiveGasPrice": "0x429bc63e",
      "from": "0xccadea5cc24204995a98daa056c37bd5207fd0c5",
      "to": "0x9e0924075bb6696e70f638336ee36e3bd9a130c7",
      "contractAddress": null
    }
  ],
  "libraries": [],
  "pending": [],
  "returns": {},
  "timestamp": 1745633207,
  "chain": 1,
  "commit": "7cc9fe6"
}